{
  "address": "0x6eAD16e44912cEDa569603704ba6785e25B9e3eB",
  "abi": [
    {
      "inputs": [
        {
          "internalType": "uint256",
          "name": "regular",
          "type": "uint256"
        },
        {
          "internalType": "uint256",
          "name": "upgrade",
          "type": "uint256"
        },
        {
          "internalType": "uint256",
          "name": "premium",
          "type": "uint256"
        },
        {
          "internalType": "uint256",
          "name": "team",
          "type": "uint256"
        }
      ],
      "stateMutability": "nonpayable",
      "type": "constructor"
    },
    {
      "anonymous": false,
      "inputs": [
        {
          "indexed": true,
          "internalType": "address",
          "name": "previousOwner",
          "type": "address"
        },
        {
          "indexed": true,
          "internalType": "address",
          "name": "newOwner",
          "type": "address"
        }
      ],
      "name": "OwnershipTransferred",
      "type": "event"
    },
    {
      "anonymous": false,
      "inputs": [
        {
          "indexed": false,
          "internalType": "address",
          "name": "",
          "type": "address"
        },
        {
          "indexed": false,
          "internalType": "uint256",
          "name": "",
          "type": "uint256"
        }
      ],
      "name": "Received",
      "type": "event"
    },
    {
      "inputs": [],
      "name": "SplitFunds",
      "outputs": [],
      "stateMutability": "nonpayable",
      "type": "function"
    },
    {
      "inputs": [],
      "name": "emergencyWithdraw",
      "outputs": [],
      "stateMutability": "nonpayable",
      "type": "function"
    },
    {
      "inputs": [],
      "name": "feeDistributionScheme",
      "outputs": [
        {
          "internalType": "uint8",
          "name": "buyBackAndburn",
          "type": "uint8"
        },
        {
          "internalType": "uint8",
          "name": "rewardPool",
          "type": "uint8"
        },
        {
          "internalType": "uint8",
          "name": "corporate",
          "type": "uint8"
        }
      ],
      "stateMutability": "view",
      "type": "function"
    },
    {
      "inputs": [],
      "name": "feeDistributionWallets",
      "outputs": [
        {
          "internalType": "address payable",
          "name": "buyBackAndburn",
          "type": "address"
        },
        {
          "internalType": "address payable",
          "name": "rewardPool",
          "type": "address"
        },
        {
          "internalType": "address payable",
          "name": "corporate",
          "type": "address"
        },
        {
          "internalType": "address",
          "name": "buyBackReceiver",
          "type": "address"
        }
      ],
      "stateMutability": "view",
      "type": "function"
    },
    {
      "inputs": [
        {
          "internalType": "enum MembershipFeeManager.FeesType",
          "name": "feeType",
          "type": "uint8"
        }
      ],
      "name": "getAllFees",
      "outputs": [
        {
          "internalType": "uint256",
          "name": "regular",
          "type": "uint256"
        },
        {
          "internalType": "uint256",
          "name": "upgrade",
          "type": "uint256"
        },
        {
          "internalType": "uint256",
          "name": "premium",
          "type": "uint256"
        },
        {
          "internalType": "uint256",
          "name": "team",
          "type": "uint256"
        }
      ],
      "stateMutability": "view",
      "type": "function"
    },
    {
      "inputs": [],
      "name": "getLatestPriceOfOneUSD",
      "outputs": [
        {
          "internalType": "int256",
          "name": "price",
          "type": "int256"
        }
      ],
      "stateMutability": "view",
      "type": "function"
    },
    {
      "inputs": [
        {
          "internalType": "enum StakingLibrary.MembershipCategories",
          "name": "category",
          "type": "uint8"
        }
      ],
      "name": "getMembershipFee",
      "outputs": [
        {
          "internalType": "uint256",
          "name": "",
          "type": "uint256"
        }
      ],
      "stateMutability": "view",
      "type": "function"
    },
    {
      "inputs": [
        {
          "internalType": "enum StakingLibrary.MembershipCategories",
          "name": "",
          "type": "uint8"
        }
      ],
      "name": "membershipFee",
      "outputs": [
        {
          "internalType": "uint256",
          "name": "",
          "type": "uint256"
        }
      ],
      "stateMutability": "view",
      "type": "function"
    },
    {
      "inputs": [],
      "name": "owner",
      "outputs": [
        {
          "internalType": "address",
          "name": "",
          "type": "address"
        }
      ],
      "stateMutability": "view",
      "type": "function"
    },
    {
      "inputs": [],
      "name": "renounceOwnership",
      "outputs": [],
      "stateMutability": "nonpayable",
      "type": "function"
    },
    {
      "inputs": [
        {
          "internalType": "uint8",
          "name": "buyBackAndburn",
          "type": "uint8"
        },
        {
          "internalType": "uint8",
          "name": "rewardPool",
          "type": "uint8"
        },
        {
          "internalType": "uint8",
          "name": "corporate",
          "type": "uint8"
        }
      ],
      "name": "setDistributionScheme",
      "outputs": [],
      "stateMutability": "nonpayable",
      "type": "function"
    },
    {
      "inputs": [
        {
          "internalType": "address",
          "name": "buyBackAndburn",
          "type": "address"
        },
        {
          "internalType": "address",
          "name": "rewardPool",
          "type": "address"
        },
        {
          "internalType": "address",
          "name": "corporate",
          "type": "address"
        },
        {
          "internalType": "address",
          "name": "buyBackReceiver",
          "type": "address"
        }
      ],
      "name": "setFeeDistributionWallets",
      "outputs": [],
      "stateMutability": "nonpayable",
      "type": "function"
    },
    {
      "inputs": [
        {
          "internalType": "uint256",
          "name": "regular",
          "type": "uint256"
        },
        {
          "internalType": "uint256",
          "name": "upgrade",
          "type": "uint256"
        },
        {
          "internalType": "uint256",
          "name": "premium",
          "type": "uint256"
        },
        {
          "internalType": "uint256",
          "name": "team",
          "type": "uint256"
        }
      ],
      "name": "setMembershipFee",
      "outputs": [],
      "stateMutability": "nonpayable",
      "type": "function"
    },
    {
      "inputs": [
        {
          "internalType": "contract IUniswapV2Router02",
          "name": "_uniswapV2Router",
          "type": "address"
        }
      ],
      "name": "setRouter",
      "outputs": [],
      "stateMutability": "nonpayable",
      "type": "function"
    },
    {
      "inputs": [
        {
          "internalType": "address",
          "name": "newOwner",
          "type": "address"
        }
      ],
      "name": "transferOwnership",
      "outputs": [],
      "stateMutability": "nonpayable",
      "type": "function"
    },
    {
      "inputs": [],
      "name": "uniswapV2Router",
      "outputs": [
        {
          "internalType": "contract IUniswapV2Router02",
          "name": "",
          "type": "address"
        }
      ],
      "stateMutability": "view",
      "type": "function"
    },
    {
      "stateMutability": "payable",
      "type": "receive"
    }
  ],
  "transactionHash": "0x87afb042fde478b2498071155c2c19b978b4eca2e4ed5c3762c00f474b21eada",
  "args": [
    "3",
    "2",
    "5",
    "8"
  ],
  "numDeployments": 1,
  "solcInputHash": "342a1f51a6451f775f7a0340442e55ed",
  "bytecode": "0x6080604052600180546001600160a01b0319908116730567f2323251f0aab15c8dfb1967e4e8a7d42aee17909155600280549091167310ed43c718714eb63d5aa57b78b54704e256024e17905534801561005857600080fd5b5060405161132138038061132183398101604081905261007791610170565b61008033610120565b600360208190527f3617319a054d772f909f7c479a2cebe5066e836a939412e32403c99029b92eff949094557fa15bc60c955c405d20d9149c709e2460f1c2d9a497496a7f46004d1772c3054c929092557fc3a24b0501bd2c13a7e57f2db4369ec4c223447539fc0724a9d55ac4a06ebd4d556000919091527fcbc4e5fb02c3d1de23a9f1e014b4d2ee5aeaea9505df5e855c9210bf472495af556101a6565b600080546001600160a01b038381166001600160a01b0319831681178455604051919092169283917f8be0079c531659141344cd1fd0a4f28419497f9722a3daafe3b4186f6b6457e09190a35050565b6000806000806080858703121561018657600080fd5b505082516020840151604085015160609095015191969095509092509050565b61116c806101b56000396000f3fe6080604052600436106100f75760003560e01c80638da5cb5b1161008a578063c691068d11610059578063c691068d14610316578063db2e21bc1461037c578063f2fde38b14610391578063f6dfc669146103b157600080fd5b80638da5cb5b146102985780639b5e831a146102b6578063a1d8f53c146102d6578063c0d78655146102f657600080fd5b806358041b57116100c657806358041b57146102035780635e1129c1146102235780636680649d14610243578063715018a61461028357600080fd5b806302a64a4b1461013b5780631694505e14610163578063178e8e3d1461019b57806329a3bcbf146101ec57600080fd5b3661013657604080513381523460208201527f88a5966d370b9919b20f3e2c13ff65706f196a4e32cc2c12bf57088f88525874910160405180910390a1005b600080fd5b34801561014757600080fd5b506101506103de565b6040519081526020015b60405180910390f35b34801561016f57600080fd5b50600254610183906001600160a01b031681565b6040516001600160a01b03909116815260200161015a565b3480156101a757600080fd5b506004546101c89060ff808216916101008104821691620100009091041683565b6040805160ff9485168152928416602084015292169181019190915260600161015a565b3480156101f857600080fd5b5061020161048d565b005b34801561020f57600080fd5b5061020161021e366004610cbf565b610694565b34801561022f57600080fd5b5061020161023e366004610d02565b6106d2565b34801561024f57600080fd5b5061026361025e366004610d34565b610777565b60408051948552602085019390935291830152606082015260800161015a565b34801561028f57600080fd5b5061020161086e565b3480156102a457600080fd5b506000546001600160a01b0316610183565b3480156102c257600080fd5b506101506102d1366004610d55565b610882565b3480156102e257600080fd5b506102016102f1366004610d8b565b6108d7565b34801561030257600080fd5b50610201610311366004610de7565b61092f565b34801561032257600080fd5b50600554600654600754600854610349936001600160a01b03908116938116928116911684565b604080516001600160a01b039586168152938516602085015291841691830191909152909116606082015260800161015a565b34801561038857600080fd5b50610201610959565b34801561039d57600080fd5b506102016103ac366004610de7565b6109f6565b3480156103bd57600080fd5b506101506103cc366004610d55565b60036020526000908152604090205481565b60015460408051633fabe5a360e21b815290516000926001600160a01b03169163feaf968c9160048083019260a0929190829003018186803b15801561042357600080fd5b505afa158015610437573d6000803e3d6000fd5b505050506040513d601f19601f8201168201806040525081019061045b9190610e1e565b50919350670de0b6b3a7640000925083915061047d9050826305f5e100610e84565b6104879190610f1f565b91505090565b610495610a6f565b6005546001600160a01b0316158015906104b957506006546001600160a01b031615155b80156104cf57506007546001600160a01b031615155b80156104e557506008546001600160a01b031615155b6105455760405162461bcd60e51b815260206004820152602660248201527f446973747269627574696f6e2077616c6c65747320617265206e6f74206265696044820152651b99c81cd95d60d21b60648201526084015b60405180910390fd5b47806105935760405162461bcd60e51b815260206004820152601e60248201527f4e6f2062616c616e63652061766169616c626c6520666f722073706c69740000604482015260640161053c565b6004546000906064906105af9062010000900460ff1684610f4d565b6105b99190610f6c565b6004549091506000906064906105d790610100900460ff1685610f4d565b6105e19190610f6c565b90506000816105f08486610f80565b6105fa9190610f80565b6007546040519192506001600160a01b03169084156108fc029085906000818181858888f19350505050158015610635573d6000803e3d6000fd5b506006546040516001600160a01b039091169083156108fc029084906000818181858888f19350505050158015610670573d6000803e3d6000fd5b5060055460085461068e916001600160a01b03908116911683610ac9565b50505050565b61069c610a6f565b6004805460ff94851661ffff1990911617610100938516939093029290921762ff00001916620100009190931602919091179055565b6106da610a6f565b600360208190527f3617319a054d772f909f7c479a2cebe5066e836a939412e32403c99029b92eff949094557fa15bc60c955c405d20d9149c709e2460f1c2d9a497496a7f46004d1772c3054c929092557fc3a24b0501bd2c13a7e57f2db4369ec4c223447539fc0724a9d55ac4a06ebd4d556000919091527fcbc4e5fb02c3d1de23a9f1e014b4d2ee5aeaea9505df5e855c9210bf472495af55565b600360208190527f3617319a054d772f909f7c479a2cebe5066e836a939412e32403c99029b92eff547fa15bc60c955c405d20d9149c709e2460f1c2d9a497496a7f46004d1772c3054c547fc3a24b0501bd2c13a7e57f2db4369ec4c223447539fc0724a9d55ac4a06ebd4d546000939093527fcbc4e5fb02c3d1de23a9f1e014b4d2ee5aeaea9505df5e855c9210bf472495af54919290916001858181111561082357610823610f97565b14156108675760006108336103de565b905061083f8186610f4d565b945061084b8185610f4d565b93506108578184610f4d565b92506108638183610f4d565b9150505b9193509193565b610876610a6f565b6108806000610c59565b565b60008061088d6103de565b905080600360008560038111156108a6576108a6610f97565b60038111156108b7576108b7610f97565b8152602001908152602001600020546108d09190610f4d565b9392505050565b6108df610a6f565b600580546001600160a01b039586166001600160a01b0319918216179091556006805494861694821694909417909355600780549285169284169290921790915560088054919093169116179055565b610937610a6f565b600280546001600160a01b0319166001600160a01b0392909216919091179055565b610961610a6f565b47806109b95760405162461bcd60e51b815260206004820152602160248201527f4e6f2062616c616e63652061766169616c626c6520666f7220776974686472616044820152607760f81b606482015260840161053c565b600080546040516001600160a01b039091169183156108fc02918491818181858888f193505050501580156109f2573d6000803e3d6000fd5b5050565b6109fe610a6f565b6001600160a01b038116610a635760405162461bcd60e51b815260206004820152602660248201527f4f776e61626c653a206e6577206f776e657220697320746865207a65726f206160448201526564647265737360d01b606482015260840161053c565b610a6c81610c59565b50565b6000546001600160a01b031633146108805760405162461bcd60e51b815260206004820181905260248201527f4f776e61626c653a2063616c6c6572206973206e6f7420746865206f776e6572604482015260640161053c565b6040805160028082526060820183526000926020830190803683375050600254604080516315ab88c960e31b815290519394506001600160a01b039091169263ad5c464892506004808301926020929190829003018186803b158015610b2e57600080fd5b505afa158015610b42573d6000803e3d6000fd5b505050506040513d601f19601f82011682018060405250810190610b669190610fc3565b81600081518110610b7957610b79610fe0565b60200260200101906001600160a01b031690816001600160a01b0316815250508381600181518110610bad57610bad610fe0565b6001600160a01b03928316602091820292909201015260025416637ff36ab58360008487610bdd426101f4610ff6565b6040518663ffffffff1660e01b8152600401610bfc949392919061100e565b6000604051808303818588803b158015610c1557600080fd5b505af1158015610c29573d6000803e3d6000fd5b50505050506040513d6000823e601f3d908101601f19168201604052610c529190810190611078565b5050505050565b600080546001600160a01b038381166001600160a01b0319831681178455604051919092169283917f8be0079c531659141344cd1fd0a4f28419497f9722a3daafe3b4186f6b6457e09190a35050565b803560ff81168114610cba57600080fd5b919050565b600080600060608486031215610cd457600080fd5b610cdd84610ca9565b9250610ceb60208501610ca9565b9150610cf960408501610ca9565b90509250925092565b60008060008060808587031215610d1857600080fd5b5050823594602084013594506040840135936060013592509050565b600060208284031215610d4657600080fd5b8135600281106108d057600080fd5b600060208284031215610d6757600080fd5b8135600481106108d057600080fd5b6001600160a01b0381168114610a6c57600080fd5b60008060008060808587031215610da157600080fd5b8435610dac81610d76565b93506020850135610dbc81610d76565b92506040850135610dcc81610d76565b91506060850135610ddc81610d76565b939692955090935050565b600060208284031215610df957600080fd5b81356108d081610d76565b805169ffffffffffffffffffff81168114610cba57600080fd5b600080600080600060a08688031215610e3657600080fd5b610e3f86610e04565b9450602086015193506040860151925060608601519150610e6260808701610e04565b90509295509295909350565b634e487b7160e01b600052601160045260246000fd5b60006001600160ff1b0381841382841380821686840486111615610eaa57610eaa610e6e565b600160ff1b6000871282811687830589121615610ec957610ec9610e6e565b60008712925087820587128484161615610ee557610ee5610e6e565b87850587128184161615610efb57610efb610e6e565b505050929093029392505050565b634e487b7160e01b600052601260045260246000fd5b600082610f2e57610f2e610f09565b600160ff1b821460001984141615610f4857610f48610e6e565b500590565b6000816000190483118215151615610f6757610f67610e6e565b500290565b600082610f7b57610f7b610f09565b500490565b600082821015610f9257610f92610e6e565b500390565b634e487b7160e01b600052602160045260246000fd5b634e487b7160e01b600052604160045260246000fd5b600060208284031215610fd557600080fd5b81516108d081610d76565b634e487b7160e01b600052603260045260246000fd5b6000821982111561100957611009610e6e565b500190565b600060808201868352602060808185015281875180845260a086019150828901935060005b818110156110585784516001600160a01b031683529383019391830191600101611033565b50506001600160a01b039690961660408501525050506060015292915050565b6000602080838503121561108b57600080fd5b825167ffffffffffffffff808211156110a357600080fd5b818501915085601f8301126110b757600080fd5b8151818111156110c9576110c9610fad565b8060051b604051601f19603f830116810181811085821117156110ee576110ee610fad565b60405291825284820192508381018501918883111561110c57600080fd5b938501935b8285101561112a57845184529385019392850192611111565b9897505050505050505056fea2646970667358221220c67ec9d3b2df8dc060c4d6b3a8ee6000214634a3f205ebed887651633b4d143764736f6c63430008090033",
  "devdoc": {
    "kind": "dev",
    "methods": {
      "owner()": {
        "details": "Returns the address of the current owner."
      },
      "renounceOwnership()": {
        "details": "Leaves the contract without owner. It will not be possible to call `onlyOwner` functions anymore. Can only be called by the current owner. NOTE: Renouncing ownership will leave the contract without an owner, thereby removing any functionality that is only available to the owner."
      },
      "transferOwnership(address)": {
        "details": "Transfers ownership of the contract to a new account (`newOwner`). Can only be called by the current owner."
      }
    },
    "version": 1
  },
  "userdoc": {
    "kind": "user",
    "methods": {},
    "notice": "Network: BNB Chain Mainnet Aggregator: BNB/USD Address: 0x0567F2323251f0Aab15c8dFb1967E4e8A7D42aeE",
    "version": 1
  },
  "storageLayout": {
    "storage": [
      {
        "astId": 53,
        "contract": "contracts/Planetmoon/MembershipFeeManager.sol:MembershipFeeManager",
        "label": "_owner",
        "offset": 0,
        "slot": "0",
        "type": "t_address"
      },
      {
        "astId": 196,
        "contract": "contracts/Planetmoon/MembershipFeeManager.sol:MembershipFeeManager",
        "label": "priceFeed",
        "offset": 0,
        "slot": "1",
        "type": "t_contract(AggregatorV3Interface)45"
      },
      {
        "astId": 202,
        "contract": "contracts/Planetmoon/MembershipFeeManager.sol:MembershipFeeManager",
        "label": "uniswapV2Router",
        "offset": 0,
        "slot": "2",
        "type": "t_contract(IUniswapV2Router02)1149"
      },
      {
        "astId": 207,
        "contract": "contracts/Planetmoon/MembershipFeeManager.sol:MembershipFeeManager",
        "label": "membershipFee",
        "offset": 0,
        "slot": "3",
        "type": "t_mapping(t_enum(MembershipCategories)1161,t_uint256)"
      },
      {
        "astId": 219,
        "contract": "contracts/Planetmoon/MembershipFeeManager.sol:MembershipFeeManager",
        "label": "feeDistributionScheme",
        "offset": 0,
        "slot": "4",
        "type": "t_struct(FeeDistributionScheme)226_storage"
      },
      {
        "astId": 229,
        "contract": "contracts/Planetmoon/MembershipFeeManager.sol:MembershipFeeManager",
        "label": "feeDistributionWallets",
        "offset": 0,
        "slot": "5",
        "type": "t_struct(FeeDistributionWallets)238_storage"
      }
    ],
    "types": {
      "t_address": {
        "encoding": "inplace",
        "label": "address",
        "numberOfBytes": "20"
      },
      "t_address_payable": {
        "encoding": "inplace",
        "label": "address payable",
        "numberOfBytes": "20"
      },
      "t_contract(AggregatorV3Interface)45": {
        "encoding": "inplace",
        "label": "contract AggregatorV3Interface",
        "numberOfBytes": "20"
      },
      "t_contract(IUniswapV2Router02)1149": {
        "encoding": "inplace",
        "label": "contract IUniswapV2Router02",
        "numberOfBytes": "20"
      },
      "t_enum(MembershipCategories)1161": {
        "encoding": "inplace",
        "label": "enum StakingLibrary.MembershipCategories",
        "numberOfBytes": "1"
      },
      "t_mapping(t_enum(MembershipCategories)1161,t_uint256)": {
        "encoding": "mapping",
        "key": "t_enum(MembershipCategories)1161",
        "label": "mapping(enum StakingLibrary.MembershipCategories => uint256)",
        "numberOfBytes": "32",
        "value": "t_uint256"
      },
      "t_struct(FeeDistributionScheme)226_storage": {
        "encoding": "inplace",
        "label": "struct MembershipFeeManager.FeeDistributionScheme",
        "members": [
          {
            "astId": 221,
            "contract": "contracts/Planetmoon/MembershipFeeManager.sol:MembershipFeeManager",
            "label": "buyBackAndburn",
            "offset": 0,
            "slot": "0",
            "type": "t_uint8"
          },
          {
            "astId": 223,
            "contract": "contracts/Planetmoon/MembershipFeeManager.sol:MembershipFeeManager",
            "label": "rewardPool",
            "offset": 1,
            "slot": "0",
            "type": "t_uint8"
          },
          {
            "astId": 225,
            "contract": "contracts/Planetmoon/MembershipFeeManager.sol:MembershipFeeManager",
            "label": "corporate",
            "offset": 2,
            "slot": "0",
            "type": "t_uint8"
          }
        ],
        "numberOfBytes": "32"
      },
      "t_struct(FeeDistributionWallets)238_storage": {
        "encoding": "inplace",
        "label": "struct MembershipFeeManager.FeeDistributionWallets",
        "members": [
          {
            "astId": 231,
            "contract": "contracts/Planetmoon/MembershipFeeManager.sol:MembershipFeeManager",
            "label": "buyBackAndburn",
            "offset": 0,
            "slot": "0",
            "type": "t_address_payable"
          },
          {
            "astId": 233,
            "contract": "contracts/Planetmoon/MembershipFeeManager.sol:MembershipFeeManager",
            "label": "rewardPool",
            "offset": 0,
            "slot": "1",
            "type": "t_address_payable"
          },
          {
            "astId": 235,
            "contract": "contracts/Planetmoon/MembershipFeeManager.sol:MembershipFeeManager",
            "label": "corporate",
            "offset": 0,
            "slot": "2",
            "type": "t_address_payable"
          },
          {
            "astId": 237,
            "contract": "contracts/Planetmoon/MembershipFeeManager.sol:MembershipFeeManager",
            "label": "buyBackReceiver",
            "offset": 0,
            "slot": "3",
            "type": "t_address"
          }
        ],
        "numberOfBytes": "128"
      },
      "t_uint256": {
        "encoding": "inplace",
        "label": "uint256",
        "numberOfBytes": "32"
      },
      "t_uint8": {
        "encoding": "inplace",
        "label": "uint8",
        "numberOfBytes": "1"
      }
    }
  }
}