{
  "address": "0x3a6178A4af77eD79fa11Ab071E43f5CC78C589E9",
  "abi": [
    {
      "inputs": [
        {
          "internalType": "address",
          "name": "_giveAwayManager",
          "type": "address"
        }
      ],
      "stateMutability": "nonpayable",
      "type": "constructor"
    },
    {
      "inputs": [],
      "name": "CONTRACT_IS_PAUSED",
      "type": "error"
    },
    {
      "inputs": [],
      "name": "NOT_ENOUGH_BALANCE",
      "type": "error"
    },
    {
      "anonymous": false,
      "inputs": [
        {
          "indexed": true,
          "internalType": "address",
          "name": "previousOwner",
          "type": "address"
        },
        {
          "indexed": true,
          "internalType": "address",
          "name": "newOwner",
          "type": "address"
        }
      ],
      "name": "OwnershipTransferred",
      "type": "event"
    },
    {
      "anonymous": false,
      "inputs": [
        {
          "indexed": false,
          "internalType": "address",
          "name": "",
          "type": "address"
        },
        {
          "indexed": false,
          "internalType": "uint256",
          "name": "",
          "type": "uint256"
        }
      ],
      "name": "Received",
      "type": "event"
    },
    {
      "anonymous": false,
      "inputs": [
        {
          "indexed": false,
          "internalType": "address",
          "name": "",
          "type": "address"
        },
        {
          "indexed": false,
          "internalType": "address",
          "name": "",
          "type": "address"
        },
        {
          "indexed": false,
          "internalType": "uint256",
          "name": "",
          "type": "uint256"
        },
        {
          "indexed": false,
          "internalType": "uint8",
          "name": "",
          "type": "uint8"
        }
      ],
      "name": "RewardApplied",
      "type": "event"
    },
    {
      "inputs": [
        {
          "internalType": "address",
          "name": "campaign",
          "type": "address"
        },
        {
          "internalType": "address",
          "name": "user",
          "type": "address"
        },
        {
          "internalType": "uint8",
          "name": "amountUSD",
          "type": "uint8"
        },
        {
          "internalType": "enum StakingLibrary.StakingType",
          "name": "_type",
          "type": "uint8"
        }
      ],
      "name": "applyRewardToACampaing",
      "outputs": [],
      "stateMutability": "nonpayable",
      "type": "function"
    },
    {
      "inputs": [
        {
          "internalType": "bool",
          "name": "action",
          "type": "bool"
        }
      ],
      "name": "changePauseStatus",
      "outputs": [],
      "stateMutability": "nonpayable",
      "type": "function"
    },
    {
      "inputs": [
        {
          "internalType": "address",
          "name": "winner",
          "type": "address"
        },
        {
          "internalType": "uint8",
          "name": "prizeUSD",
          "type": "uint8"
        }
      ],
      "name": "distributeReward",
      "outputs": [],
      "stateMutability": "nonpayable",
      "type": "function"
    },
    {
      "inputs": [],
      "name": "emergencyWithdraw",
      "outputs": [],
      "stateMutability": "nonpayable",
      "type": "function"
    },
    {
      "inputs": [],
      "name": "getLatestPriceOfOneUSD",
      "outputs": [
        {
          "internalType": "int256",
          "name": "price",
          "type": "int256"
        }
      ],
      "stateMutability": "view",
      "type": "function"
    },
    {
      "inputs": [],
      "name": "giveAwayManager",
      "outputs": [
        {
          "internalType": "address",
          "name": "",
          "type": "address"
        }
      ],
      "stateMutability": "view",
      "type": "function"
    },
    {
      "inputs": [],
      "name": "owner",
      "outputs": [
        {
          "internalType": "address",
          "name": "",
          "type": "address"
        }
      ],
      "stateMutability": "view",
      "type": "function"
    },
    {
      "inputs": [],
      "name": "pause",
      "outputs": [
        {
          "internalType": "bool",
          "name": "",
          "type": "bool"
        }
      ],
      "stateMutability": "view",
      "type": "function"
    },
    {
      "inputs": [],
      "name": "renounceOwnership",
      "outputs": [],
      "stateMutability": "nonpayable",
      "type": "function"
    },
    {
      "inputs": [
        {
          "internalType": "contract IUniswapV2Router02",
          "name": "_uniswapV2Router",
          "type": "address"
        }
      ],
      "name": "setRouter",
      "outputs": [],
      "stateMutability": "nonpayable",
      "type": "function"
    },
    {
      "inputs": [],
      "name": "totalRewardDistributed",
      "outputs": [
        {
          "internalType": "uint256",
          "name": "",
          "type": "uint256"
        }
      ],
      "stateMutability": "view",
      "type": "function"
    },
    {
      "inputs": [
        {
          "internalType": "address",
          "name": "newOwner",
          "type": "address"
        }
      ],
      "name": "transferOwnership",
      "outputs": [],
      "stateMutability": "nonpayable",
      "type": "function"
    },
    {
      "inputs": [],
      "name": "uniswapV2Router",
      "outputs": [
        {
          "internalType": "contract IUniswapV2Router02",
          "name": "",
          "type": "address"
        }
      ],
      "stateMutability": "view",
      "type": "function"
    },
    {
      "inputs": [
        {
          "internalType": "address",
          "name": "_giveAwayManager",
          "type": "address"
        }
      ],
      "name": "updateGiveAwayManager",
      "outputs": [],
      "stateMutability": "nonpayable",
      "type": "function"
    },
    {
      "stateMutability": "payable",
      "type": "receive"
    }
  ],
  "transactionHash": "0x4082ef87b1811dd2a90d8973e8feca3728994c671853239f9f33528615a0d23d",
  "args": [
    "0x49EB9ac3e28a22A90D73e3F7B27Bc76628b2442B"
  ],
  "numDeployments": 2,
  "solcInputHash": "22474e021bcd0bd8bafd68088d860c71",
  "bytecode": "0x6080604052600180546001600160a01b0319908116730567f2323251f0aab15c8dfb1967e4e8a7d42aee17909155600280549091167310ed43c718714eb63d5aa57b78b54704e256024e1790556003805460ff60a01b1916600160a01b17905534801561006b57600080fd5b5060405161161238038061161283398101604081905261008a91610108565b610093336100b8565b600380546001600160a01b0319166001600160a01b0392909216919091179055610138565b600080546001600160a01b038381166001600160a01b0319831681178455604051919092169283917f8be0079c531659141344cd1fd0a4f28419497f9722a3daafe3b4186f6b6457e09190a35050565b60006020828403121561011a57600080fd5b81516001600160a01b038116811461013157600080fd5b9392505050565b6114cb806101476000396000f3fe6080604052600436106100e15760003560e01c80638456cb591161007f578063d478c0e011610059578063d478c0e014610281578063db2e21bc146102a1578063f206f2db146102b6578063f2fde38b146102d657600080fd5b80638456cb59146102125780638da5cb5b14610243578063c0d786551461026157600080fd5b806330188ee8116100bb57806330188ee8146101a75780633424b8ce146101bd578063442f1f65146101dd578063715018a6146101fd57600080fd5b806302a64a4b146101255780631694505e1461014d578063190f5ded1461018557600080fd5b3661012057604080513381523460208201527f88a5966d370b9919b20f3e2c13ff65706f196a4e32cc2c12bf57088f88525874910160405180910390a1005b600080fd5b34801561013157600080fd5b5061013a6102f6565b6040519081526020015b60405180910390f35b34801561015957600080fd5b5060025461016d906001600160a01b031681565b6040516001600160a01b039091168152602001610144565b34801561019157600080fd5b506101a56101a0366004610b4e565b610396565b005b3480156101b357600080fd5b5061013a60045481565b3480156101c957600080fd5b506101a56101d8366004610bbc565b61062e565b3480156101e957600080fd5b506101a56101f8366004610be0565b610654565b34801561020957600080fd5b506101a561067e565b34801561021e57600080fd5b5060035461023390600160a01b900460ff1681565b6040519015158152602001610144565b34801561024f57600080fd5b506000546001600160a01b031661016d565b34801561026d57600080fd5b506101a561027c366004610be0565b610692565b34801561028d57600080fd5b506101a561029c366004610bfd565b6106bc565b3480156102ad57600080fd5b506101a56107bf565b3480156102c257600080fd5b5060035461016d906001600160a01b031681565b3480156102e257600080fd5b506101a56102f1366004610be0565b61085c565b60015460408051633fabe5a360e21b815290516000926001600160a01b03169163feaf968c9160048083019260a09291908290030181865afa158015610340573d6000803e3d6000fd5b505050506040513d601f19601f820116820180604052508101906103649190610c55565b50919350670de0b6b3a764000092508391506103869050826305f5e100610cbb565b6103909190610d40565b91505090565b6003546001600160a01b031633146103e55760405162461bcd60e51b815260206004820152600d60248201526c139bc8105d5d1a1bdc9a5e9959609a1b60448201526064015b60405180910390fd5b600354600160a01b900460ff16156104105760405163364759ad60e11b815260040160405180910390fd5b600061041a6102f6565b9050600061042b60ff851683610d7c565b90508060045461043b9190610d9b565b60045547818110156104605760405163119563e560e31b815260040160405180910390fd5b6000876001600160a01b03166367c897fe6040518163ffffffff1660e01b8152600401600060405180830381865afa1580156104a0573d6000803e3d6000fd5b505050506040513d6000823e601f3d908101601f191682016040526104c891908101906111a7565b60208101516060015190915060006104e18230876108d5565b60405163095ea7b360e01b81526001600160a01b038c81166004830152602482018390529192509083169063095ea7b3906044016020604051808303816000875af1158015610534573d6000803e3d6000fd5b505050506040513d601f19601f8201168201806040525081019061055891906112c5565b5060405163018de22360e61b81526001600160a01b038b169063637888c090610589908c9085908c906004016112f8565b600060405180830381600087803b1580156105a357600080fd5b505af11580156105b7573d6000803e3d6000fd5b505050507f4d7cc17f866386d5d89d8e5590222a32b2f868de90f085e211d0643cc6d8fa5d8a8a838a60048111156105f1576105f16112e2565b604080516001600160a01b0395861681529490931660208501529183015260ff16606082015260800160405180910390a150505050505050505050565b610636610a80565b60038054911515600160a01b0260ff60a01b19909216919091179055565b61065c610a80565b600380546001600160a01b0319166001600160a01b0392909216919091179055565b610686610a80565b6106906000610ada565b565b61069a610a80565b600280546001600160a01b0319166001600160a01b0392909216919091179055565b6003546001600160a01b031633146107065760405162461bcd60e51b815260206004820152600d60248201526c139bc8105d5d1a1bdc9a5e9959609a1b60448201526064016103dc565b600354600160a01b900460ff16156107315760405163364759ad60e11b815260040160405180910390fd5b600061073b6102f6565b9050600061074c60ff841683610d7c565b90508060045461075c9190610d9b565b60045547818110156107815760405163119563e560e31b815260040160405180910390fd5b6040516001600160a01b0386169083156108fc029084906000818181858888f193505050501580156107b7573d6000803e3d6000fd5b505050505050565b6107c7610a80565b478061081f5760405162461bcd60e51b815260206004820152602160248201527f4e6f2062616c616e63652061766169616c626c6520666f7220776974686472616044820152607760f81b60648201526084016103dc565b600080546040516001600160a01b039091169183156108fc02918491818181858888f19350505050158015610858573d6000803e3d6000fd5b5050565b610864610a80565b6001600160a01b0381166108c95760405162461bcd60e51b815260206004820152602660248201527f4f776e61626c653a206e6577206f776e657220697320746865207a65726f206160448201526564647265737360d01b60648201526084016103dc565b6108d281610ada565b50565b604080516002808252606082018352600092839291906020830190803683375050600254604080516315ab88c960e31b815290519394506001600160a01b039091169263ad5c4648925060048083019260209291908290030181865afa158015610943573d6000803e3d6000fd5b505050506040513d601f19601f82011682018060405250810190610967919061133b565b8160008151811061097a5761097a611358565b60200260200101906001600160a01b031690816001600160a01b03168152505084816001815181106109ae576109ae611358565b6001600160a01b03928316602091820292909201015260025460009116637ff36ab5858385896109e0426101f4610d9b565b6040518663ffffffff1660e01b81526004016109ff949392919061136e565b60006040518083038185885af1158015610a1d573d6000803e3d6000fd5b50505050506040513d6000823e601f3d908101601f19168201604052610a4691908101906113d8565b905060008160018351610a59919061147e565b81518110610a6957610a69611358565b602002602001015190508093505050509392505050565b6000546001600160a01b031633146106905760405162461bcd60e51b815260206004820181905260248201527f4f776e61626c653a2063616c6c6572206973206e6f7420746865206f776e657260448201526064016103dc565b600080546001600160a01b038381166001600160a01b0319831681178455604051919092169283917f8be0079c531659141344cd1fd0a4f28419497f9722a3daafe3b4186f6b6457e09190a35050565b6001600160a01b03811681146108d257600080fd5b60ff811681146108d257600080fd5b60008060008060808587031215610b6457600080fd5b8435610b6f81610b2a565b93506020850135610b7f81610b2a565b92506040850135610b8f81610b3f565b9150606085013560058110610ba357600080fd5b939692955090935050565b80151581146108d257600080fd5b600060208284031215610bce57600080fd5b8135610bd981610bae565b9392505050565b600060208284031215610bf257600080fd5b8135610bd981610b2a565b60008060408385031215610c1057600080fd5b8235610c1b81610b2a565b91506020830135610c2b81610b3f565b809150509250929050565b805169ffffffffffffffffffff81168114610c5057600080fd5b919050565b600080600080600060a08688031215610c6d57600080fd5b610c7686610c36565b9450602086015193506040860151925060608601519150610c9960808701610c36565b90509295509295909350565b634e487b7160e01b600052601160045260246000fd5b60006001600160ff1b0381841382841380821686840486111615610ce157610ce1610ca5565b600160ff1b6000871282811687830589121615610d0057610d00610ca5565b60008712925087820587128484161615610d1c57610d1c610ca5565b87850587128184161615610d3257610d32610ca5565b505050929093029392505050565b600082610d5d57634e487b7160e01b600052601260045260246000fd5b600160ff1b821460001984141615610d7757610d77610ca5565b500590565b6000816000190483118215151615610d9657610d96610ca5565b500290565b60008219821115610dae57610dae610ca5565b500190565b634e487b7160e01b600052604160045260246000fd5b604051610100810167ffffffffffffffff81118282101715610ded57610ded610db3565b60405290565b604051610140810167ffffffffffffffff81118282101715610ded57610ded610db3565b6040516080810167ffffffffffffffff81118282101715610ded57610ded610db3565b60405160e0810167ffffffffffffffff81118282101715610ded57610ded610db3565b604051601f8201601f1916810167ffffffffffffffff81118282101715610e8657610e86610db3565b604052919050565b8051610c5081610b2a565b805160038110610c5057600080fd5b600082601f830112610eb957600080fd5b815167ffffffffffffffff811115610ed357610ed3610db3565b6020610ee7601f8301601f19168201610e5d565b8281528582848701011115610efb57600080fd5b60005b83811015610f19578581018301518282018401528201610efe565b83811115610f2a5760008385840101525b5095945050505050565b8051610c5081610b3f565b60006101008284031215610f5257600080fd5b610f5a610dc9565b9050610f6582610e99565b8152602082015167ffffffffffffffff80821115610f8257600080fd5b610f8e85838601610ea8565b60208401526040840151915080821115610fa757600080fd5b610fb385838601610ea8565b6040840152610fc460608501610e8e565b6060840152610fd560808501610f34565b608084015260a0840151915080821115610fee57600080fd5b50610ffb84828501610ea8565b60a08301525061100d60c08301610e99565b60c082015260e082015160e082015292915050565b60006040828403121561103457600080fd5b6040516040810181811067ffffffffffffffff8211171561105757611057610db3565b604052825181526020928301519281019290925250919050565b6000610140828403121561108457600080fd5b61108c610df3565b9050815167ffffffffffffffff808211156110a657600080fd5b6110b285838601610ea8565b835260208401519150808211156110c857600080fd5b6110d485838601610ea8565b602084015260408401519150808211156110ed57600080fd5b6110f985838601610ea8565b6040840152606084015191508082111561111257600080fd5b61111e85838601610ea8565b6060840152608084015191508082111561113757600080fd5b5061114484828501610ea8565b60808301525061115660a08301610f34565b60a082015261116760c08301610f34565b60c082015261117860e08301610f34565b60e082015261010061118b818401610f34565b9082015261012061119d838201610f34565b9082015292915050565b6000602082840312156111b957600080fd5b815167ffffffffffffffff808211156111d157600080fd5b908301908185036101608112156111e757600080fd5b6111ef610e17565b60e08212156111fd57600080fd5b611205610e3a565b915083518252602084015161121981610b2a565b8060208401525060408401516040830152606084015160608301526080840151608083015260a084015160a083015260c084015161125681610b2a565b60c083015290815260e0830151908282111561127157600080fd5b61127d87838601610f3f565b6020820152611290876101008601611022565b60408201526101408401519150828211156112aa57600080fd5b6112b687838601611071565b60608201529695505050505050565b6000602082840312156112d757600080fd5b8151610bd981610bae565b634e487b7160e01b600052602160045260246000fd5b6001600160a01b038416815260208101839052606081016005831061132d57634e487b7160e01b600052602160045260246000fd5b826040830152949350505050565b60006020828403121561134d57600080fd5b8151610bd981610b2a565b634e487b7160e01b600052603260045260246000fd5b600060808201868352602060808185015281875180845260a086019150828901935060005b818110156113b85784516001600160a01b031683529383019391830191600101611393565b50506001600160a01b039690961660408501525050506060015292915050565b600060208083850312156113eb57600080fd5b825167ffffffffffffffff8082111561140357600080fd5b818501915085601f83011261141757600080fd5b81518181111561142957611429610db3565b8060051b915061143a848301610e5d565b818152918301840191848101908884111561145457600080fd5b938501935b8385101561147257845182529385019390850190611459565b98975050505050505050565b60008282101561149057611490610ca5565b50039056fea2646970667358221220a38833a1fa7d8eebf41dfff8dd307fea67ca26e39726b071bbf243ac506c601064736f6c634300080f0033",
  "devdoc": {
    "kind": "dev",
    "methods": {
      "owner()": {
        "details": "Returns the address of the current owner."
      },
      "renounceOwnership()": {
        "details": "Leaves the contract without owner. It will not be possible to call `onlyOwner` functions anymore. Can only be called by the current owner. NOTE: Renouncing ownership will leave the contract without an owner, thereby removing any functionality that is only available to the owner."
      },
      "transferOwnership(address)": {
        "details": "Transfers ownership of the contract to a new account (`newOwner`). Can only be called by the current owner."
      }
    },
    "version": 1
  },
  "userdoc": {
    "kind": "user",
    "methods": {},
    "version": 1
  },
  "storageLayout": {
    "storage": [
      {
        "astId": 53,
        "contract": "contracts/Planetmoon/PMRewardDistributor.sol:PMRewardDistributor",
        "label": "_owner",
        "offset": 0,
        "slot": "0",
        "type": "t_address"
      },
      {
        "astId": 1981,
        "contract": "contracts/Planetmoon/PMRewardDistributor.sol:PMRewardDistributor",
        "label": "priceFeed",
        "offset": 0,
        "slot": "1",
        "type": "t_contract(AggregatorV3Interface)45"
      },
      {
        "astId": 2022,
        "contract": "contracts/Planetmoon/PMRewardDistributor.sol:PMRewardDistributor",
        "label": "uniswapV2Router",
        "offset": 0,
        "slot": "2",
        "type": "t_contract(IUniswapV2Router02)2534"
      },
      {
        "astId": 1706,
        "contract": "contracts/Planetmoon/PMRewardDistributor.sol:PMRewardDistributor",
        "label": "giveAwayManager",
        "offset": 0,
        "slot": "3",
        "type": "t_address"
      },
      {
        "astId": 1709,
        "contract": "contracts/Planetmoon/PMRewardDistributor.sol:PMRewardDistributor",
        "label": "pause",
        "offset": 20,
        "slot": "3",
        "type": "t_bool"
      },
      {
        "astId": 1711,
        "contract": "contracts/Planetmoon/PMRewardDistributor.sol:PMRewardDistributor",
        "label": "totalRewardDistributed",
        "offset": 0,
        "slot": "4",
        "type": "t_uint256"
      }
    ],
    "types": {
      "t_address": {
        "encoding": "inplace",
        "label": "address",
        "numberOfBytes": "20"
      },
      "t_bool": {
        "encoding": "inplace",
        "label": "bool",
        "numberOfBytes": "1"
      },
      "t_contract(AggregatorV3Interface)45": {
        "encoding": "inplace",
        "label": "contract AggregatorV3Interface",
        "numberOfBytes": "20"
      },
      "t_contract(IUniswapV2Router02)2534": {
        "encoding": "inplace",
        "label": "contract IUniswapV2Router02",
        "numberOfBytes": "20"
      },
      "t_uint256": {
        "encoding": "inplace",
        "label": "uint256",
        "numberOfBytes": "32"
      }
    }
  }
}