{
  "address": "0x0d2c74fB634EE973611Dea86B94044Cd8F535D64",
  "abi": [
    {
      "inputs": [
        {
          "internalType": "address",
          "name": "_campaignFeeManager",
          "type": "address"
        },
        {
          "internalType": "address",
          "name": "_pmMembership",
          "type": "address"
        },
        {
          "internalType": "address",
          "name": "_pmTeamManager",
          "type": "address"
        },
        {
          "internalType": "address",
          "name": "_creatorManager",
          "type": "address"
        }
      ],
      "stateMutability": "nonpayable",
      "type": "constructor"
    },
    {
      "inputs": [],
      "name": "CONTRACT_IS_PAUSED",
      "type": "error"
    },
    {
      "inputs": [],
      "name": "FAILED_TO_TRANSFER_BNBS",
      "type": "error"
    },
    {
      "inputs": [],
      "name": "FAILED_TO_TRANSFER_TOKENS",
      "type": "error"
    },
    {
      "inputs": [],
      "name": "INSUFFICIENT_FUNDS",
      "type": "error"
    },
    {
      "inputs": [],
      "name": "NOT_OWNER_OF_TEAM",
      "type": "error"
    },
    {
      "inputs": [],
      "name": "NOT_PREMIUM_OR_TEAM",
      "type": "error"
    },
    {
      "inputs": [],
      "name": "START_TIME_SHOULD_BE_FUTURE",
      "type": "error"
    },
    {
      "anonymous": false,
      "inputs": [
        {
          "indexed": true,
          "internalType": "address",
          "name": "previousOwner",
          "type": "address"
        },
        {
          "indexed": true,
          "internalType": "address",
          "name": "newOwner",
          "type": "address"
        }
      ],
      "name": "OwnershipTransferred",
      "type": "event"
    },
    {
      "anonymous": false,
      "inputs": [
        {
          "indexed": false,
          "internalType": "uint256",
          "name": "poolId",
          "type": "uint256"
        },
        {
          "indexed": false,
          "internalType": "address",
          "name": "poolAddress",
          "type": "address"
        },
        {
          "indexed": false,
          "internalType": "address",
          "name": "tokenAddress",
          "type": "address"
        }
      ],
      "name": "Poolcreated",
      "type": "event"
    },
    {
      "inputs": [],
      "name": "campaignFeeManager",
      "outputs": [
        {
          "internalType": "address payable",
          "name": "",
          "type": "address"
        }
      ],
      "stateMutability": "view",
      "type": "function"
    },
    {
      "inputs": [
        {
          "internalType": "bool",
          "name": "action",
          "type": "bool"
        }
      ],
      "name": "changePauseStatus",
      "outputs": [],
      "stateMutability": "nonpayable",
      "type": "function"
    },
    {
      "inputs": [
        {
          "components": [
            {
              "internalType": "enum StakingLibrary.CampaignCategories",
              "name": "category",
              "type": "uint8"
            },
            {
              "internalType": "string",
              "name": "projectName",
              "type": "string"
            },
            {
              "internalType": "string",
              "name": "projectSymbol",
              "type": "string"
            },
            {
              "internalType": "address",
              "name": "tokenAddress",
              "type": "address"
            },
            {
              "internalType": "uint8",
              "name": "tokenDecimals",
              "type": "uint8"
            },
            {
              "internalType": "string",
              "name": "tokenSymbol",
              "type": "string"
            },
            {
              "internalType": "enum StakingLibrary.ProfileType",
              "name": "profileType",
              "type": "uint8"
            },
            {
              "internalType": "uint256",
              "name": "profileId",
              "type": "uint256"
            }
          ],
          "internalType": "struct StakingLibrary.ProjectInfo",
          "name": "projectInfo",
          "type": "tuple"
        },
        {
          "components": [
            {
              "internalType": "uint256",
              "name": "startedAt",
              "type": "uint256"
            },
            {
              "internalType": "uint256",
              "name": "poolAmount",
              "type": "uint256"
            }
          ],
          "internalType": "struct StakingLibrary.RewardPoolInfo",
          "name": "rewardPoolInfo",
          "type": "tuple"
        },
        {
          "components": [
            {
              "internalType": "string",
              "name": "image_1_months",
              "type": "string"
            },
            {
              "internalType": "string",
              "name": "image_3_months",
              "type": "string"
            },
            {
              "internalType": "string",
              "name": "image_6_months",
              "type": "string"
            },
            {
              "internalType": "string",
              "name": "image_9_months",
              "type": "string"
            },
            {
              "internalType": "string",
              "name": "image_12_months",
              "type": "string"
            },
            {
              "internalType": "uint8",
              "name": "APY_1_months",
              "type": "uint8"
            },
            {
              "internalType": "uint8",
              "name": "APY_3_months",
              "type": "uint8"
            },
            {
              "internalType": "uint8",
              "name": "APY_6_months",
              "type": "uint8"
            },
            {
              "internalType": "uint8",
              "name": "APY_9_months",
              "type": "uint8"
            },
            {
              "internalType": "uint8",
              "name": "APY_12_months",
              "type": "uint8"
            }
          ],
          "internalType": "struct StakingLibrary.NFTData",
          "name": "nftData",
          "type": "tuple"
        }
      ],
      "name": "createAStakingPool",
      "outputs": [],
      "stateMutability": "payable",
      "type": "function"
    },
    {
      "inputs": [],
      "name": "creatorManager",
      "outputs": [
        {
          "internalType": "address",
          "name": "",
          "type": "address"
        }
      ],
      "stateMutability": "view",
      "type": "function"
    },
    {
      "inputs": [
        {
          "internalType": "uint256",
          "name": "id",
          "type": "uint256"
        }
      ],
      "name": "getPoolByID",
      "outputs": [
        {
          "internalType": "address",
          "name": "",
          "type": "address"
        }
      ],
      "stateMutability": "view",
      "type": "function"
    },
    {
      "inputs": [
        {
          "internalType": "uint256",
          "name": "teamId",
          "type": "uint256"
        }
      ],
      "name": "getPoolIdsOfATeam",
      "outputs": [
        {
          "internalType": "uint256[]",
          "name": "",
          "type": "uint256[]"
        }
      ],
      "stateMutability": "view",
      "type": "function"
    },
    {
      "inputs": [
        {
          "internalType": "address",
          "name": "user",
          "type": "address"
        }
      ],
      "name": "getPoolIdsOfAUser",
      "outputs": [
        {
          "internalType": "uint256[]",
          "name": "",
          "type": "uint256[]"
        }
      ],
      "stateMutability": "view",
      "type": "function"
    },
    {
      "inputs": [
        {
          "internalType": "address",
          "name": "token",
          "type": "address"
        }
      ],
      "name": "getPoolsByToken",
      "outputs": [
        {
          "internalType": "address[]",
          "name": "",
          "type": "address[]"
        }
      ],
      "stateMutability": "view",
      "type": "function"
    },
    {
      "inputs": [],
      "name": "owner",
      "outputs": [
        {
          "internalType": "address",
          "name": "",
          "type": "address"
        }
      ],
      "stateMutability": "view",
      "type": "function"
    },
    {
      "inputs": [],
      "name": "pause",
      "outputs": [
        {
          "internalType": "bool",
          "name": "",
          "type": "bool"
        }
      ],
      "stateMutability": "view",
      "type": "function"
    },
    {
      "inputs": [],
      "name": "pmMembership",
      "outputs": [
        {
          "internalType": "address",
          "name": "",
          "type": "address"
        }
      ],
      "stateMutability": "view",
      "type": "function"
    },
    {
      "inputs": [],
      "name": "pmTeamManager",
      "outputs": [
        {
          "internalType": "address",
          "name": "",
          "type": "address"
        }
      ],
      "stateMutability": "view",
      "type": "function"
    },
    {
      "inputs": [],
      "name": "projectsCount",
      "outputs": [
        {
          "internalType": "uint256",
          "name": "",
          "type": "uint256"
        }
      ],
      "stateMutability": "view",
      "type": "function"
    },
    {
      "inputs": [],
      "name": "renounceOwnership",
      "outputs": [],
      "stateMutability": "nonpayable",
      "type": "function"
    },
    {
      "inputs": [
        {
          "internalType": "address",
          "name": "newOwner",
          "type": "address"
        }
      ],
      "name": "transferOwnership",
      "outputs": [],
      "stateMutability": "nonpayable",
      "type": "function"
    },
    {
      "inputs": [
        {
          "internalType": "address",
          "name": "_campaignFeeManager",
          "type": "address"
        }
      ],
      "name": "updateCampaignFeeManager",
      "outputs": [],
      "stateMutability": "nonpayable",
      "type": "function"
    }
  ],
  "transactionHash": "0x50fabe1338b525b36e182b9fda90e87d9a318d100b41487d1daac82d3b5411f1",
  "args": [
    "0x0405B4fcabae0014B9ecab3809098E2e471F353d",
    "0x782bB7435Ff34156cF0Fd451010e04d8E299CC86",
    "0x7809ab1295f3aCF2dA080b274454aA1Dc029C299",
    "0x4eB18aaF5F14BAFAEB8F0019adB55c63338843EE"
  ],
  "numDeployments": 1,
  "solcInputHash": "3c68293e0b6e25186a929e5a05895757",
  "bytecode": "0x60806040526006805460ff191660011790553480156200001e57600080fd5b50604051620060f6380380620060f683398101604081905262000041916200010d565b6200004c33620000a0565b600180546001600160a01b039586166001600160a01b03199182161790915560028054948616948216949094179093556003805492851692841692909217909155600480549190931691161790556200016a565b600080546001600160a01b038381166001600160a01b0319831681178455604051919092169283917f8be0079c531659141344cd1fd0a4f28419497f9722a3daafe3b4186f6b6457e09190a35050565b80516001600160a01b03811681146200010857600080fd5b919050565b600080600080608085870312156200012457600080fd5b6200012f85620000f0565b93506200013f60208601620000f0565b92506200014f60408601620000f0565b91506200015f60608601620000f0565b905092959194509250565b615f7c806200017a6000396000f3fe608060405260043610620001075760003560e01c80638da5cb5b1162000095578063c73b302e1162000060578063c73b302e1462000307578063d4f47e93146200032e578063f2fde38b1462000350578063fb598ff7146200037557600080fd5b80638da5cb5b146200027e5780638dc6c5f6146200029e578063942cc30714620002c3578063a0ac50b914620002e557600080fd5b80637a0e6ad311620000d65780637a0e6ad314620001c75780637f71303714620001fb5780638456cb59146200021d57806386959b4b146200024a57600080fd5b80633424b8ce146200010c57806340362db414620001335780635055149c1462000158578063715018a614620001af575b600080fd5b3480156200011957600080fd5b50620001316200012b36600462000c4e565b6200038c565b005b3480156200014057600080fd5b50620001316200015236600462000c9d565b620003a9565b3480156200016557600080fd5b50620001926200017736600462000cbd565b6000908152600a60205260409020546001600160a01b031690565b6040516001600160a01b0390911681526020015b60405180910390f35b348015620001bc57600080fd5b5062000131620003d5565b348015620001d457600080fd5b50620001ec620001e636600462000c9d565b620003ed565b604051620001a6919062000cd7565b3480156200020857600080fd5b5060035462000192906001600160a01b031681565b3480156200022a57600080fd5b50600654620002399060ff1681565b6040519015158152602001620001a6565b3480156200025757600080fd5b506200026f6200026936600462000c9d565b6200045b565b604051620001a6919062000d1d565b3480156200028b57600080fd5b506000546001600160a01b031662000192565b348015620002ab57600080fd5b50620001ec620002bd36600462000cbd565b620004d2565b348015620002d057600080fd5b5060015462000192906001600160a01b031681565b348015620002f257600080fd5b5060025462000192906001600160a01b031681565b3480156200031457600080fd5b506200031f60055481565b604051908152602001620001a6565b3480156200033b57600080fd5b5060045462000192906001600160a01b031681565b3480156200035d57600080fd5b50620001316200036f36600462000c9d565b62000534565b620001316200038636600462001026565b620005b7565b6200039662000b85565b6006805460ff1916911515919091179055565b620003b362000b85565b600180546001600160a01b0319166001600160a01b0392909216919091179055565b620003df62000b85565b620003eb600062000be1565b565b6001600160a01b0381166000908152600760209081526040918290208054835181840281018401909452808452606093928301828280156200044f57602002820191906000526020600020905b8154815260200190600101908083116200043a575b50505050509050919050565b6001600160a01b0381166000908152600960209081526040918290208054835181840281018401909452808452606093928301828280156200044f57602002820191906000526020600020905b81546001600160a01b03168152600190910190602001808311620004a85750505050509050919050565b6000818152600860209081526040918290208054835181840281018401909452808452606093928301828280156200044f57602002820191906000526020600020908154815260200190600101908083116200043a5750505050509050919050565b6200053e62000b85565b6001600160a01b038116620005a95760405162461bcd60e51b815260206004820152602660248201527f4f776e61626c653a206e6577206f776e657220697320746865207a65726f206160448201526564647265737360d01b60648201526084015b60405180910390fd5b620005b48162000be1565b50565b60065460ff1615620005dc5760405163364759ad60e11b815260040160405180910390fd5b6003546040516370a0823160e01b815233600482015260009182916001600160a01b03909116906370a082319060240160206040518083038186803b1580156200062557600080fd5b505afa1580156200063a573d6000803e3d6000fd5b505050506040513d601f19601f820116820180604052508101906200066091906200117b565b6002546040516329c59e0360e01b81523360048201529290911192506000916001600160a01b03909116906329c59e039060240160606040518083038186803b158015620006ad57600080fd5b505afa158015620006c2573d6000803e3d6000fd5b505050506040513d601f19601f82011682018060405250810190620006e8919062001195565b60400151905081158015620006fb575080155b156200071a5760405163eb932d8b60e01b815260040160405180910390fd5b60018560c001516002811115620007355762000735620011fd565b1415620007f15760035460e08601516040516331a9108f60e11b815260048101919091526000916001600160a01b031690636352211e9060240160206040518083038186803b1580156200078857600080fd5b505afa1580156200079d573d6000803e3d6000fd5b505050506040513d601f19601f82011682018060405250810190620007c3919062001213565b90506001600160a01b0381163314620007ef57604051636edd33cd60e11b815260040160405180910390fd5b505b600154855160405163abe9836360e01b81526000926001600160a01b03169163abe983639162000825919060040162001261565b60206040518083038186803b1580156200083e57600080fd5b505afa15801562000853573d6000803e3d6000fd5b505050506040513d601f19601f820116820180604052508101906200087991906200117b565b9050803410156200089d57604051631cf2628760e31b815260040160405180910390fd5b8451421115620008c05760405163474435c160e01b815260040160405180910390fd5b60058054906000620008d28362001276565b9091555050600554600454600154604051600093928a928a928a926001600160a01b039081169216903390620009089062000c31565b6200091a9796959493929190620013e4565b604051809103906000f08015801562000937573d6000803e3d6000fd5b50905060018760c001516002811115620009555762000955620011fd565b1415620009885760e087015160009081526008602090815260408220600554815460018101835591845291909220909101555b6060870180516001600160a01b0390811660009081526009602090815260408083208054600180820183559185528385200180548887166001600160a01b03199182168117909255600580548752600a8652848720805490921683179091553380875260078652848720915482549485018355918752858720909301559551928c015191516323b872dd60e01b815260048101919091526024810195909552604485015290929116906323b872dd90606401602060405180830381600087803b15801562000a5557600080fd5b505af115801562000a6a573d6000803e3d6000fd5b505050506040513d601f19601f8201168201806040525081019062000a90919062001518565b90508062000ab15760405163197d6ecf60e21b815260040160405180910390fd5b6001546040516000916001600160a01b03169034908381818185875af1925050503d806000811462000b00576040519150601f19603f3d011682016040523d82523d6000602084013e62000b05565b606091505b505090508062000b2857604051635b77072160e11b815260040160405180910390fd5b6005546060808b0151604080519384526001600160a01b038088166020860152909116908301527fdffe5be4b28e9feff47252db2cf2054aef948f89043d4ba606b2c6a0fd0cff0d910160405180910390a1505050505050505050565b6000546001600160a01b03163314620003eb5760405162461bcd60e51b815260206004820181905260248201527f4f776e61626c653a2063616c6c6572206973206e6f7420746865206f776e65726044820152606401620005a0565b600080546001600160a01b038381166001600160a01b0319831681178455604051919092169283917f8be0079c531659141344cd1fd0a4f28419497f9722a3daafe3b4186f6b6457e09190a35050565b614a0e806200153983390190565b8015158114620005b457600080fd5b60006020828403121562000c6157600080fd5b813562000c6e8162000c3f565b9392505050565b6001600160a01b0381168114620005b457600080fd5b803562000c988162000c75565b919050565b60006020828403121562000cb057600080fd5b813562000c6e8162000c75565b60006020828403121562000cd057600080fd5b5035919050565b6020808252825182820181905260009190848201906040850190845b8181101562000d115783518352928401929184019160010162000cf3565b50909695505050505050565b6020808252825182820181905260009190848201906040850190845b8181101562000d115783516001600160a01b03168352928401929184019160010162000d39565b634e487b7160e01b600052604160045260246000fd5b604051610140810167ffffffffffffffff8111828210171562000d9d5762000d9d62000d60565b60405290565b604051610100810167ffffffffffffffff8111828210171562000d9d5762000d9d62000d60565b80356003811062000c9857600080fd5b600082601f83011262000dec57600080fd5b813567ffffffffffffffff8082111562000e0a5762000e0a62000d60565b604051601f8301601f19908116603f0116810190828211818310171562000e355762000e3562000d60565b8160405283815286602085880101111562000e4f57600080fd5b836020870160208301376000602085830101528094505050505092915050565b803560ff8116811462000c9857600080fd5b60006040828403121562000e9457600080fd5b6040516040810181811067ffffffffffffffff8211171562000eba5762000eba62000d60565b604052823581526020928301359281019290925250919050565b6000610140828403121562000ee857600080fd5b62000ef262000d76565b9050813567ffffffffffffffff8082111562000f0d57600080fd5b62000f1b8583860162000dda565b8352602084013591508082111562000f3257600080fd5b62000f408583860162000dda565b6020840152604084013591508082111562000f5a57600080fd5b62000f688583860162000dda565b6040840152606084013591508082111562000f8257600080fd5b62000f908583860162000dda565b6060840152608084013591508082111562000faa57600080fd5b5062000fb98482850162000dda565b60808301525062000fcd60a0830162000e6f565b60a082015262000fe060c0830162000e6f565b60c082015262000ff360e0830162000e6f565b60e08201526101006200100881840162000e6f565b908201526101206200101c83820162000e6f565b9082015292915050565b6000806000608084860312156200103c57600080fd5b833567ffffffffffffffff808211156200105557600080fd5b9085019061010082880312156200106b57600080fd5b6200107562000da3565b620010808362000dca565b81526020830135828111156200109557600080fd5b620010a38982860162000dda565b602083015250604083013582811115620010bc57600080fd5b620010ca8982860162000dda565b604083015250620010de6060840162000c8b565b6060820152620010f16080840162000e6f565b608082015260a0830135828111156200110957600080fd5b620011178982860162000dda565b60a0830152506200112b60c0840162000dca565b60c082015260e0838101359082015294506200114b876020880162000e81565b935060608601359150808211156200116257600080fd5b50620011718682870162000ed4565b9150509250925092565b6000602082840312156200118e57600080fd5b5051919050565b600060608284031215620011a857600080fd5b6040516060810181811067ffffffffffffffff82111715620011ce57620011ce62000d60565b806040525082518152602083015160208201526040830151620011f18162000c3f565b60408201529392505050565b634e487b7160e01b600052602160045260246000fd5b6000602082840312156200122657600080fd5b815162000c6e8162000c75565b60038110620005b457634e487b7160e01b600052602160045260246000fd5b6200125d8162001233565b9052565b60208101620012708362001233565b91905290565b60006000198214156200129957634e487b7160e01b600052601160045260246000fd5b5060010190565b6000815180845260005b81811015620012c857602081850181015186830182015201620012aa565b81811115620012db576000602083870101525b50601f01601f19169290920160200192915050565b600061014082518185526200130882860182620012a0565b91505060208301518482036020860152620013248282620012a0565b91505060408301518482036040860152620013408282620012a0565b915050606083015184820360608601526200135c8282620012a0565b91505060808301518482036080860152620013788282620012a0565b91505060a08301516200139060a086018260ff169052565b5060c0830151620013a660c086018260ff169052565b5060e0830151620013bc60e086018260ff169052565b506101008381015160ff90811691860191909152610120938401511692909301919091525090565b6000610100898352806020840152620014018184018a5162001252565b6020890151816101208501526200141d610200850182620012a0565b915050604089015160ff1980858403016101408601526200143f8383620012a0565b925060608b015191506200145f6101608601836001600160a01b03169052565b60808b015160ff1661018086015260a08b01518584039091016101a086015290506200148c8282620012a0565b91505060c0890151620014a46101c085018262001252565b5060e08901516101e084015287516040840152602088015160608401528281036080840152620014d58188620012f0565b915050620014ee60a08301866001600160a01b03169052565b6001600160a01b03841660c08301526001600160a01b03831660e083015298975050505050505050565b6000602082840312156200152b57600080fd5b815162000c6e8162000c3f56fe60806040523480156200001157600080fd5b5060405162004a0e38038062004a0e833981016040819052620000349162000a8b565b85602001518660400151816000908051906020019062000056929190620006d2565b5080516200006c906001906020840190620006d2565b505050604051806060016040528062015180601e6200008c919062000c27565b815260a086015160ff166020808301919091528651604092830152600080526022815282517fb84cf808d0d5b1ad44962c9bfddd3cfce67763c49ab557cfd0e9f6804faade99908155838201517fb84cf808d0d5b1ad44962c9bfddd3cfce67763c49ab557cfd0e9f6804faade9a5591830151805162000130927fb84cf808d0d5b1ad44962c9bfddd3cfce67763c49ab557cfd0e9f6804faade9b920190620006d2565b50905050604051806060016040528062015180605a62000151919062000c27565b815260c086015160ff166020808301919091528087015160409283015260016000526022815282517fe39b43e4224876d80510ac9d8f190663bcce357e28a4aec26f3bf2e600bb40ec908155838201517fe39b43e4224876d80510ac9d8f190663bcce357e28a4aec26f3bf2e600bb40ed55918301518051620001f8927fe39b43e4224876d80510ac9d8f190663bcce357e28a4aec26f3bf2e600bb40ee920190620006d2565b5090505060405180606001604052806201518060b462000219919062000c27565b815260e086015160ff166020808301919091526040808801519281019290925260026000526022815282517f52978eb6718a0ed733b71dbb3c4781d6da146a41523832713c09679420d0cac5908155838201517f52978eb6718a0ed733b71dbb3c4781d6da146a41523832713c09679420d0cac655918301518051620002c3927f52978eb6718a0ed733b71dbb3c4781d6da146a41523832713c09679420d0cac7920190620006d2565b5090505060405180606001604052806201518061010e620002e5919062000c27565b815261010086015160ff16602080830191909152606087015160409283015260036000526022815282517f3f1c07aec4ba487306d5d4faaa1d9deb5d8db1e41c6130041b740cb07487a597908155838201517f3f1c07aec4ba487306d5d4faaa1d9deb5d8db1e41c6130041b740cb07487a598559183015180516200038e927f3f1c07aec4ba487306d5d4faaa1d9deb5d8db1e41c6130041b740cb07487a599920190620006d2565b5090505060405180606001604052806201518061016d620003b0919062000c27565b815261012086015160ff16602080830191909152608087015160409283015260046000526022815282517fd7343ae3d2c16eacc7c893fad12c1ec38efa5751e5cb5741a848035a232aa5e8908155838201517fd7343ae3d2c16eacc7c893fad12c1ec38efa5751e5cb5741a848035a232aa5e95591830151805162000459927fd7343ae3d2c16eacc7c893fad12c1ec38efa5751e5cb5741a848035a232aa5ea920190620006d2565b5050865160138054899350909190829060ff1916600183600281111562000484576200048462000c55565b02179055506020828101518051620004a39260018501920190620006d2565b5060408201518051620004c1916002840191602090910190620006d2565b506060820151600382018054608085015160ff16600160a01b026001600160a81b03199091166001600160a01b039093169290921791909117905560a0820151805162000519916004840191602090910190620006d2565b5060c082015160058201805460ff1916600183600281111562000540576200054062000c55565b021790555060e091909101516006909101558451602090815580860151602155845180518692601a926200057b9284929190910190620006d2565b506020828101518051620005969260018501920190620006d2565b5060408201518051620005b4916002840191602090910190620006d2565b5060608201518051620005d2916003840191602090910190620006d2565b5060808201518051620005f0916004840191602090910190620006d2565b5060a08201516005909101805460c084015160e0850151610100808701516101209097015160ff9081166401000000000260ff60201b1998821663010000000263ff0000001994831662010000029490941663ffff00001995831690930261ffff1990961691909716179390931791909116919091171792909216179055600c96909655600d80546001600160a01b03199081163017909155602090940151600e55601280546001600160a01b03978816908616179055600a805492871692851692909217909155600b8054919095169216919091179092555062000ca89050565b828054620006e09062000c6b565b90600052602060002090601f0160209004810192826200070457600085556200074f565b82601f106200071f57805160ff19168380011785556200074f565b828001600101855582156200074f579182015b828111156200074f57825182559160200191906001019062000732565b506200075d92915062000761565b5090565b5b808211156200075d576000815560010162000762565b634e487b7160e01b600052604160045260246000fd5b60405161014081016001600160401b0381118282101715620007b457620007b462000778565b60405290565b60405161010081016001600160401b0381118282101715620007b457620007b462000778565b604051601f8201601f191681016001600160401b03811182821017156200080b576200080b62000778565b604052919050565b8051600381106200082357600080fd5b919050565b600082601f8301126200083a57600080fd5b81516001600160401b0381111562000856576200085662000778565b60206200086c601f8301601f19168201620007e0565b82815285828487010111156200088157600080fd5b60005b83811015620008a157858101830151828201840152820162000884565b83811115620008b35760008385840101525b5095945050505050565b80516001600160a01b03811681146200082357600080fd5b805160ff811681146200082357600080fd5b600060408284031215620008fa57600080fd5b604080519081016001600160401b03811182821017156200091f576200091f62000778565b604052825181526020928301519281019290925250919050565b600061014082840312156200094d57600080fd5b620009576200078e565b82519091506001600160401b03808211156200097257600080fd5b620009808583860162000828565b835260208401519150808211156200099757600080fd5b620009a58583860162000828565b60208401526040840151915080821115620009bf57600080fd5b620009cd8583860162000828565b60408401526060840151915080821115620009e757600080fd5b620009f58583860162000828565b6060840152608084015191508082111562000a0f57600080fd5b5062000a1e8482850162000828565b60808301525062000a3260a08301620008d5565b60a082015262000a4560c08301620008d5565b60c082015262000a5860e08301620008d5565b60e082015261010062000a6d818401620008d5565b9082015261012062000a81838201620008d5565b9082015292915050565b600080600080600080600061010080898b03121562000aa957600080fd5b885160208a01519098506001600160401b038082111562000ac957600080fd5b818b01915082828d03121562000ade57600080fd5b62000ae8620007ba565b925062000af58262000813565b835260208201518181111562000b0a57600080fd5b62000b188d82850162000828565b60208501525060408201518181111562000b3157600080fd5b62000b3f8d82850162000828565b60408501525062000b5360608301620008bd565b606084015262000b6660808301620008d5565b608084015260a08201518181111562000b7e57600080fd5b62000b8c8d82850162000828565b60a08501525062000ba060c0830162000813565b60c084015260e082015160e084015282985062000bc18c60408d01620008e7565b975060808b015192508083111562000bd857600080fd5b505062000be88a828b0162000939565b94505062000bf960a08901620008bd565b925062000c0960c08901620008bd565b915062000c1960e08901620008bd565b905092959891949750929550565b600081600019048311821515161562000c5057634e487b7160e01b600052601160045260246000fd5b500290565b634e487b7160e01b600052602160045260246000fd5b600181811c9082168062000c8057607f821691505b6020821081141562000ca257634e487b7160e01b600052602260045260246000fd5b50919050565b613d568062000cb86000396000f3fe6080604052600436106101665760003560e01c80636352211e116100d1578063a22cb4651161008a578063b88d4fde11610064578063b88d4fde14610485578063c87b56dd146104a5578063d4f47e93146104c5578063e985e9c5146104e557600080fd5b8063a22cb465146103ef578063a3a439311461040f578063b09afec11461045857600080fd5b80636352211e14610338578063637888c01461035857806367c897fe1461037857806370a082311461039a578063942cc307146103ba57806395d89b41146103da57600080fd5b806323b872dd1161012357806323b872dd146102785780632f745c591461029857806342842e0e146102b85780634f6ccce7146102d8578063519dc8d2146102f8578063608e4dd01461032557600080fd5b806301ffc9a71461016b57806306fdde03146101a0578063081812fc146101c2578063095ea7b3146101fa57806318160ddd1461021c5780631df025c61461023b575b600080fd5b34801561017757600080fd5b5061018b610186366004613334565b61052e565b60405190151581526020015b60405180910390f35b3480156101ac57600080fd5b506101b5610559565b60405161019791906133a9565b3480156101ce57600080fd5b506101e26101dd3660046133bc565b6105eb565b6040516001600160a01b039091168152602001610197565b34801561020657600080fd5b5061021a6102153660046133ea565b610612565b005b34801561022857600080fd5b506008545b604051908152602001610197565b34801561024757600080fd5b5061025b610256366004613416565b61072d565b6040805193845260ff909216602084015290820152606001610197565b34801561028457600080fd5b5061021a610293366004613442565b610958565b3480156102a457600080fd5b5061022d6102b33660046133ea565b610989565b3480156102c457600080fd5b5061021a6102d3366004613442565b610a1f565b3480156102e457600080fd5b5061022d6102f33660046133bc565b610a3a565b34801561030457600080fd5b50610318610313366004613483565b610acd565b60405161019791906135a5565b61021a6103333660046133bc565b610d95565b34801561034457600080fd5b506101e26103533660046133bc565b611339565b34801561036457600080fd5b5061021a610373366004613607565b611399565b34801561038457600080fd5b5061038d611a67565b6040516101979190613815565b3480156103a657600080fd5b5061022d6103b5366004613483565b612088565b3480156103c657600080fd5b50600b546101e2906001600160a01b031681565b3480156103e657600080fd5b506101b561210e565b3480156103fb57600080fd5b5061021a61040a3660046138d8565b61211d565b34801561041b57600080fd5b5061042f61042a3660046133bc565b61212c565b6040516101979493929190938452602084019290925260ff166040830152606082015260800190565b34801561046457600080fd5b506104786104733660046133bc565b6122c2565b6040516101979190613911565b34801561049157600080fd5b5061021a6104a036600461393a565b61242b565b3480156104b157600080fd5b506101b56104c03660046133bc565b612463565b3480156104d157600080fd5b50600a546101e2906001600160a01b031681565b3480156104f157600080fd5b5061018b610500366004613a1a565b6001600160a01b03918216600090815260056020908152604080832093909416825291909152205460ff1690565b60006001600160e01b0319821663780e9d6360e01b14806105535750610553826124d7565b92915050565b60606000805461056890613a48565b80601f016020809104026020016040519081016040528092919081815260200182805461059490613a48565b80156105e15780601f106105b6576101008083540402835291602001916105e1565b820191906000526020600020905b8154815290600101906020018083116105c457829003601f168201915b5050505050905090565b60006105f682612527565b506000908152600460205260409020546001600160a01b031690565b600061061d82611339565b9050806001600160a01b0316836001600160a01b031614156106905760405162461bcd60e51b815260206004820152602160248201527f4552433732313a20617070726f76616c20746f2063757272656e74206f776e656044820152603960f91b60648201526084015b60405180910390fd5b336001600160a01b03821614806106ac57506106ac8133610500565b61071e5760405162461bcd60e51b815260206004820152603d60248201527f4552433732313a20617070726f76652063616c6c6572206973206e6f7420746f60448201527f6b656e206f776e6572206f7220617070726f76656420666f7220616c6c0000006064820152608401610687565b6107288383612589565b505050565b600080808061073c8686613a99565b9050600061074a8742613a99565b905060008261075a836064613ab0565b6107649190613acf565b905060328110156107fd57600b54604051633b6a8f1d60e01b8152600097508796506001600160a01b0390911690633b6a8f1d906107a6908890600401613af1565b60206040518083038186803b1580156107be57600080fd5b505afa1580156107d2573d6000803e3d6000fd5b505050506040513d601f19601f820116820180604052508101906107f69190613b0b565b935061094c565b6032811015801561080e5750605081105b1561085f57601e94506064610823868b613ab0565b61082d9190613acf565b600b54604051633b6a8f1d60e01b81529197506001600160a01b031690633b6a8f1d906107a690600190600401613af1565b605081101580156108705750606481105b156108c1576032945060646108858a87613ab0565b61088f9190613acf565b600b54604051633b6a8f1d60e01b81529197506001600160a01b031690633b6a8f1d906107a690600290600401613af1565b600b54604051633b6a8f1d60e01b81528a9750606496506001600160a01b0390911690633b6a8f1d906108f990600390600401613af1565b60206040518083038186803b15801561091157600080fd5b505afa158015610925573d6000803e3d6000fd5b505050506040513d601f19601f820116820180604052508101906109499190613b0b565b93505b50505093509350939050565b61096233826125f7565b61097e5760405162461bcd60e51b815260040161068790613b24565b610728838383612676565b600061099483612088565b82106109f65760405162461bcd60e51b815260206004820152602b60248201527f455243373231456e756d657261626c653a206f776e657220696e646578206f7560448201526a74206f6620626f756e647360a81b6064820152608401610687565b506001600160a01b03919091166000908152600660209081526040808320938352929052205490565b6107288383836040518060200160405280600081525061242b565b6000610a4560085490565b8210610aa85760405162461bcd60e51b815260206004820152602c60248201527f455243373231456e756d657261626c653a20676c6f62616c20696e646578206f60448201526b7574206f6620626f756e647360a01b6064820152608401610687565b60088281548110610abb57610abb613b71565b90600052602060002001549050919050565b600a5460405163677755bb60e01b81526001600160a01b03838116600483015260609260009291169063677755bb9060240160206040518083038186803b158015610b1757600080fd5b505afa158015610b2b573d6000803e3d6000fd5b505050506040513d601f19601f82011682018060405250810190610b4f9190613b87565b90506001600160a01b038116610b78576040516374fcb30d60e11b815260040160405180910390fd5b6000610b8382612088565b905060008167ffffffffffffffff811115610ba057610ba0613924565b604051908082528060200260200182016040528015610bd957816020015b610bc661309e565b815260200190600190039081610bbe5790505b50905060005b82811015610d8c576000610bf38583610989565b600081815260236020908152604080832081516101e08101835281546001600160a01b039081168252600183015494820194909452600282015492810192909252600381015483166060830152600481015483166080830152600581015490921660a0820152600682015460c08201526007820180549495509293909260e0840191610c7e90613a48565b80601f0160208091040260200160405190810160405280929190818152602001828054610caa90613a48565b8015610cf75780601f10610ccc57610100808354040283529160200191610cf7565b820191906000526020600020905b815481529060010190602001808311610cda57829003601f168201915b5050509183525050600882015460ff908116602083015260098301546040830152600a8301546060830152600b8301546080830152600c8301548116151560a0830152600d83015460c0830152600e9092015490911660e09091015284519091508190859085908110610d6c57610d6c613b71565b602002602001018190525050508080610d8490613ba4565b915050610bdf565b50949350505050565b600081815260236020908152604080832081516101e08101835281546001600160a01b039081168252600183015494820194909452600282015492810192909252600381015483166060830152600481015483166080830152600581015490921660a0820152600682015460c082015260078201805491929160e084019190610e1d90613a48565b80601f0160208091040260200160405190810160405280929190818152602001828054610e4990613a48565b8015610e965780601f10610e6b57610100808354040283529160200191610e96565b820191906000526020600020905b815481529060010190602001808311610e7957829003601f168201915b5050509183525050600882015460ff908116602083015260098301546040830152600a8301546060830152600b830154608080840191909152600c8401548216151560a0840152600d84015460c0840152600e909301541660e0909101528101519091506001600160a01b03163314610f2257604051636ff49be560e01b815260040160405180910390fd5b610160810151610f4557604051630638c18f60e51b815260040160405180910390fd5b80610180015115610f6957604051636dc6682d60e01b815260040160405180910390fd5b6000828152602360205260408120600c01805460ff1916600117905561016082015161012083015161014084015183928392610fa49261072d565b6000888152602360205260408120600d8101859055600e01805460ff191660ff8516179055610160880151939650919450925090610fe3908590613a99565b905080600c6002016000828254610ffa9190613bbf565b90915550503482111561102057604051631cf2628760e31b815260040160405180910390fd5b600b546040516000916001600160a01b03169034908381818185875af1925050503d806000811461106d576040519150601f19603f3d011682016040523d82523d6000602084013e611072565b606091505b505090508061109457604051635b77072160e11b815260040160405180910390fd5b600a5460405163677755bb60e01b81523360048201526000916001600160a01b03169063677755bb9060240160206040518083038186803b1580156110d857600080fd5b505afa1580156110ec573d6000803e3d6000fd5b505050506040513d601f19601f820116820180604052508101906111109190613b87565b6040516357fecd5d60e11b8152306004820152602481018a90529091506000906001600160a01b0383169063affd9aba90604401602060405180830381600087803b15801561115e57600080fd5b505af1158015611172573d6000803e3d6000fd5b505050506040513d601f19601f820116820180604052508101906111969190613bd7565b9050806111b65760405163d0411c3960e01b815260040160405180910390fd5b601654608089015160405163a9059cbb60e01b81526001600160a01b039182166004820152602481018a905291169063a9059cbb90604401602060405180830381600087803b15801561120857600080fd5b505af115801561121c573d6000803e3d6000fd5b505050506040513d601f19601f820116820180604052508101906112409190613bd7565b90508061126057604051630c26b1fd60e11b815260040160405180910390fd5b61126d8860c001516127e7565b61127682612088565b6112d45760405163838c003960e01b81523060048201526001600160a01b0383169063838c003990602401600060405180830381600087803b1580156112bb57600080fd5b505af11580156112cf573d6000803e3d6000fd5b505050505b600c546040808a01516101008b015182519384523360208501529183015260ff166060820152608081018890527f8958f0c58afef19b6642cac81ae35a14e955e85b5d55cdc65c7d502eb592fe0d9060a00160405180910390a1505050505050505050565b6000818152600260205260408120546001600160a01b0316806105535760405162461bcd60e51b8152602060048201526018602482015277115490cdcc8c4e881a5b9d985b1a59081d1bdad95b88125160421b6044820152606401610687565b6020544210156113bc57604051638f2d4c2d60e01b815260040160405180910390fd5b6000602260008360048111156113d4576113d461364d565b60048111156113e5576113e561364d565b8152602001908152602001600020604051806060016040529081600082015481526020016001820154815260200160028201805461142290613a48565b80601f016020809104026020016040519081016040528092919081815260200182805461144e90613a48565b801561149b5780601f106114705761010080835404028352916020019161149b565b820191906000526020600020905b81548152906001019060200180831161147e57829003601f168201915b50505050508152505090508060200151600014156114cc576040516306aa11dd60e21b815260040160405180910390fd5b600060648260200151856114e09190613ab0565b6114ea9190613acf565b905080600c600201541015611512576040516348eb126760e11b815260040160405180910390fd5b80600c60020160008282546115279190613a99565b9091555050600f8054859190600090611541908490613bbf565b90915550506010805490600061155683613ba4565b90915550506011805490600061156b83613ba4565b91905055506000602260008560048111156115885761158861364d565b60048111156115995761159961364d565b815260200190815260200160002060020180546115b590613a48565b80601f01602080910402602001604051908101604052809291908181526020018280546115e190613a48565b801561162e5780601f106116035761010080835404028352916020019161162e565b820191906000526020600020905b81548152906001019060200180831161161157829003601f168201915b5050600a5460405163677755bb60e01b81526001600160a01b038c81166004830152959650600095909116935063677755bb9250602401905060206040518083038186803b15801561167f57600080fd5b505afa158015611693573d6000803e3d6000fd5b505050506040513d601f19601f820116820180604052508101906116b79190613b87565b90506001600160a01b03811661174957600a546040516331b77b8960e21b81526001600160a01b0389811660048301529091169063c6ddee2490602401602060405180830381600087803b15801561170e57600080fd5b505af1158015611722573d6000803e3d6000fd5b505050506040513d601f19601f820116820180604052508101906117469190613b87565b90505b604080516101e081018252308152600c5460208201529081018790526016546001600160a01b0390811660608301528881166080830152821660a082015260115460c082015260e0810183905261010081018660048111156117ad576117ad61364d565b60ff1681526020014281526020018560000151426117cb9190613bbf565b81526020808201869052600060408084018290526060808501839052608094850183905260115483526023845291819020855181546001600160a01b039182166001600160a01b0319918216178355878601516001840155928701516002830155928601516003820180549185169184169190911790559385015160048501805491841691831691909117905560a085015160058501805491909316911617905560c0830151600683015560e0830151805161188d9260078501920190613140565b5061010082015160088201805460ff1990811660ff938416179091556101208401516009840155610140840151600a840155610160840151600b840155610180840151600c8401805483169115159190911790556101a0840151600d8401556101c090930151600e909201805490931691161790556016546040516323b872dd60e01b81523360048201526001600160a01b0383811660248301526044820189905260009216906323b872dd90606401602060405180830381600087803b15801561195757600080fd5b505af115801561196b573d6000803e3d6000fd5b505050506040513d601f19601f8201168201806040525081019061198f9190613bd7565b9050806119af5760405163986aebbb60e01b815260040160405180910390fd5b6011546040516bffffffffffffffffffffffff193060601b1660208201526119ea91849160340160405160208183030381529060405261288a565b600c546011547fbbd184b832a658705e19e15121bf8abb81df8e6c59469af906e22fdf841bbffa91908a8a8a6004811115611a2757611a2761364d565b6040805195865260208601949094526001600160a01b039290921684840152606084015260ff166080830152519081900360a00190a15050505050505050565b611a6f6131c4565b6040805161016081018252600c5460808201908152600d546001600160a01b0390811660a0840152600e5460c0840152600f5460e08401526010546101008085019190915260115461012085015260125490911661014084015290825282519081019092526013805491926020840192909190829060ff166002811115611af857611af861364d565b6002811115611b0957611b0961364d565b8152602001600182018054611b1d90613a48565b80601f0160208091040260200160405190810160405280929190818152602001828054611b4990613a48565b8015611b965780601f10611b6b57610100808354040283529160200191611b96565b820191906000526020600020905b815481529060010190602001808311611b7957829003601f168201915b50505050508152602001600282018054611baf90613a48565b80601f0160208091040260200160405190810160405280929190818152602001828054611bdb90613a48565b8015611c285780601f10611bfd57610100808354040283529160200191611c28565b820191906000526020600020905b815481529060010190602001808311611c0b57829003601f168201915b505050918352505060038201546001600160a01b0381166020830152600160a01b900460ff166040820152600482018054606090920191611c6890613a48565b80601f0160208091040260200160405190810160405280929190818152602001828054611c9490613a48565b8015611ce15780601f10611cb657610100808354040283529160200191611ce1565b820191906000526020600020905b815481529060010190602001808311611cc457829003601f168201915b5050509183525050600582015460209091019060ff166002811115611d0857611d0861364d565b6002811115611d1957611d1961364d565b815260200160068201548152505081526020016020604051806040016040529081600082015481526020016001820154815250508152602001601a60405180610140016040529081600082018054611d7090613a48565b80601f0160208091040260200160405190810160405280929190818152602001828054611d9c90613a48565b8015611de95780601f10611dbe57610100808354040283529160200191611de9565b820191906000526020600020905b815481529060010190602001808311611dcc57829003601f168201915b50505050508152602001600182018054611e0290613a48565b80601f0160208091040260200160405190810160405280929190818152602001828054611e2e90613a48565b8015611e7b5780601f10611e5057610100808354040283529160200191611e7b565b820191906000526020600020905b815481529060010190602001808311611e5e57829003601f168201915b50505050508152602001600282018054611e9490613a48565b80601f0160208091040260200160405190810160405280929190818152602001828054611ec090613a48565b8015611f0d5780601f10611ee257610100808354040283529160200191611f0d565b820191906000526020600020905b815481529060010190602001808311611ef057829003601f168201915b50505050508152602001600382018054611f2690613a48565b80601f0160208091040260200160405190810160405280929190818152602001828054611f5290613a48565b8015611f9f5780601f10611f7457610100808354040283529160200191611f9f565b820191906000526020600020905b815481529060010190602001808311611f8257829003601f168201915b50505050508152602001600482018054611fb890613a48565b80601f0160208091040260200160405190810160405280929190818152602001828054611fe490613a48565b80156120315780601f1061200657610100808354040283529160200191612031565b820191906000526020600020905b81548152906001019060200180831161201457829003601f168201915b50505091835250506005919091015460ff80821660208401526101008204811660408401526201000082048116606084015263010000008204811660808401526401000000009091041660a0909101529052919050565b60006001600160a01b0382166120f25760405162461bcd60e51b815260206004820152602960248201527f4552433732313a2061646472657373207a65726f206973206e6f7420612076616044820152683634b21037bbb732b960b91b6064820152608401610687565b506001600160a01b031660009081526003602052604090205490565b60606001805461056890613a48565b6121283383836128bd565b5050565b600081815260236020908152604080832081516101e08101835281546001600160a01b039081168252600183015494820194909452600282015492810192909252600381015483166060830152600481015483166080830152600581015490921660a0820152600682015460c0820152600782018054849384938493849391929160e0840191906121bc90613a48565b80601f01602080910402602001604051908101604052809291908181526020018280546121e890613a48565b80156122355780601f1061220a57610100808354040283529160200191612235565b820191906000526020600020905b81548152906001019060200180831161221857829003601f168201915b5050509183525050600882015460ff908116602083015260098301546040830152600a8301546060830152600b8301546080830152600c8301548116151560a0830152600d83015460c0830152600e9092015490911660e0909101526101608101516101208201516101408301519197509192506122b491879161072d565b969891975095945092505050565b6122ca61309e565b60008281526023602090815260409182902082516101e08101845281546001600160a01b039081168252600183015493820193909352600282015493810193909352600381015482166060840152600481015482166080840152600581015490911660a0830152600681015460c083015260078101805460e08401919061235090613a48565b80601f016020809104026020016040519081016040528092919081815260200182805461237c90613a48565b80156123c95780601f1061239e576101008083540402835291602001916123c9565b820191906000526020600020905b8154815290600101906020018083116123ac57829003601f168201915b5050509183525050600882015460ff908116602083015260098301546040830152600a8301546060830152600b8301546080830152600c8301548116151560a0830152600d83015460c0830152600e9092015490911660e09091015292915050565b61243533836125f7565b6124515760405162461bcd60e51b815260040161068790613b24565b61245d8484848461298c565b50505050565b606061246e82612527565b600061248560408051602081019091526000815290565b905060008151116124a557604051806020016040528060008152506124d0565b806124af846129bf565b6040516020016124c0929190613bf4565b6040516020818303038152906040525b9392505050565b60006001600160e01b031982166380ac58cd60e01b148061250857506001600160e01b03198216635b5e139f60e01b145b8061055357506301ffc9a760e01b6001600160e01b0319831614610553565b6000818152600260205260409020546001600160a01b03166125865760405162461bcd60e51b8152602060048201526018602482015277115490cdcc8c4e881a5b9d985b1a59081d1bdad95b88125160421b6044820152606401610687565b50565b600081815260046020526040902080546001600160a01b0319166001600160a01b03841690811790915581906125be82611339565b6001600160a01b03167f8c5be1e5ebec7d5bd14f71427d1e84f3dd0314c0f7b2291e5b200ac8c7c3b92560405160405180910390a45050565b60008061260383611339565b9050806001600160a01b0316846001600160a01b0316148061264a57506001600160a01b0380821660009081526005602090815260408083209388168352929052205460ff165b8061266e5750836001600160a01b0316612663846105eb565b6001600160a01b0316145b949350505050565b826001600160a01b031661268982611339565b6001600160a01b0316146126af5760405162461bcd60e51b815260040161068790613c23565b6001600160a01b0382166127115760405162461bcd60e51b8152602060048201526024808201527f4552433732313a207472616e7366657220746f20746865207a65726f206164646044820152637265737360e01b6064820152608401610687565b61271e8383836001612a5c565b826001600160a01b031661273182611339565b6001600160a01b0316146127575760405162461bcd60e51b815260040161068790613c23565b600081815260046020908152604080832080546001600160a01b03199081169091556001600160a01b0387811680865260038552838620805460001901905590871680865283862080546001019055868652600290945282852080549092168417909155905184937fddf252ad1be2c89b69c2b068fc378daa952ba7f163c4a11628f55a4df523b3ef91a4505050565b60006127f282611339565b9050612802816000846001612a5c565b61280b82611339565b600083815260046020908152604080832080546001600160a01b03199081169091556001600160a01b0385168085526003845282852080546000190190558785526002909352818420805490911690555192935084927fddf252ad1be2c89b69c2b068fc378daa952ba7f163c4a11628f55a4df523b3ef908390a45050565b6128948383612b90565b6128a16000848484612d29565b6107285760405162461bcd60e51b815260040161068790613c68565b816001600160a01b0316836001600160a01b0316141561291f5760405162461bcd60e51b815260206004820152601960248201527f4552433732313a20617070726f766520746f2063616c6c6572000000000000006044820152606401610687565b6001600160a01b03838116600081815260056020908152604080832094871680845294825291829020805460ff191686151590811790915591519182527f17307eab39ab6107e8899845ad3d59bd9653f200f220920489ca2b5937696c31910160405180910390a3505050565b612997848484612676565b6129a384848484612d29565b61245d5760405162461bcd60e51b815260040161068790613c68565b606060006129cc83612e36565b600101905060008167ffffffffffffffff8111156129ec576129ec613924565b6040519080825280601f01601f191660200182016040528015612a16576020820181803683370190505b5090508181016020015b600019016f181899199a1a9b1b9c1cb0b131b232b360811b600a86061a8153600a8504945084612a4f57612a54565b612a20565b509392505050565b6001811115612acb5760405162461bcd60e51b815260206004820152603560248201527f455243373231456e756d657261626c653a20636f6e7365637574697665207472604482015274185b9cd9995c9cc81b9bdd081cdd5c1c1bdc9d1959605a1b6064820152608401610687565b816001600160a01b038516612b2757612b2281600880546000838152600960205260408120829055600182018355919091527ff3f7a9fe364faab93b216da50a3214154f22a0a2b415b23a84c8169e8b636ee30155565b612b4a565b836001600160a01b0316856001600160a01b031614612b4a57612b4a8582612f0e565b6001600160a01b038416612b6657612b6181612fab565b612b89565b846001600160a01b0316846001600160a01b031614612b8957612b89848261305a565b5050505050565b6001600160a01b038216612be65760405162461bcd60e51b815260206004820181905260248201527f4552433732313a206d696e7420746f20746865207a65726f20616464726573736044820152606401610687565b6000818152600260205260409020546001600160a01b031615612c4b5760405162461bcd60e51b815260206004820152601c60248201527f4552433732313a20746f6b656e20616c7265616479206d696e746564000000006044820152606401610687565b612c59600083836001612a5c565b6000818152600260205260409020546001600160a01b031615612cbe5760405162461bcd60e51b815260206004820152601c60248201527f4552433732313a20746f6b656e20616c7265616479206d696e746564000000006044820152606401610687565b6001600160a01b038216600081815260036020908152604080832080546001019055848352600290915280822080546001600160a01b0319168417905551839291907fddf252ad1be2c89b69c2b068fc378daa952ba7f163c4a11628f55a4df523b3ef908290a45050565b60006001600160a01b0384163b15612e2b57604051630a85bd0160e11b81526001600160a01b0385169063150b7a0290612d6d903390899088908890600401613cba565b602060405180830381600087803b158015612d8757600080fd5b505af1925050508015612db7575060408051601f3d908101601f19168201909252612db491810190613ced565b60015b612e11573d808015612de5576040519150601f19603f3d011682016040523d82523d6000602084013e612dea565b606091505b508051612e095760405162461bcd60e51b815260040161068790613c68565b805181602001fd5b6001600160e01b031916630a85bd0160e11b14905061266e565b506001949350505050565b60008072184f03e93ff9f4daa797ed6e38ed64bf6a1f0160401b8310612e755772184f03e93ff9f4daa797ed6e38ed64bf6a1f0160401b830492506040015b6d04ee2d6d415b85acef81000000008310612ea1576d04ee2d6d415b85acef8100000000830492506020015b662386f26fc100008310612ebf57662386f26fc10000830492506010015b6305f5e1008310612ed7576305f5e100830492506008015b6127108310612eeb57612710830492506004015b60648310612efd576064830492506002015b600a83106105535760010192915050565b60006001612f1b84612088565b612f259190613a99565b600083815260076020526040902054909150808214612f78576001600160a01b03841660009081526006602090815260408083208584528252808320548484528184208190558352600790915290208190555b5060009182526007602090815260408084208490556001600160a01b039094168352600681528383209183525290812055565b600854600090612fbd90600190613a99565b60008381526009602052604081205460088054939450909284908110612fe557612fe5613b71565b90600052602060002001549050806008838154811061300657613006613b71565b600091825260208083209091019290925582815260099091526040808220849055858252812055600880548061303e5761303e613d0a565b6001900381819060005260206000200160009055905550505050565b600061306583612088565b6001600160a01b039093166000908152600660209081526040808320868452825280832085905593825260079052919091209190915550565b604051806101e0016040528060006001600160a01b03168152602001600081526020016000815260200160006001600160a01b0316815260200160006001600160a01b0316815260200160006001600160a01b031681526020016000815260200160608152602001600060ff16815260200160008152602001600081526020016000815260200160001515815260200160008152602001600060ff1681525090565b82805461314c90613a48565b90600052602060002090601f01602090048101928261316e57600085556131b4565b82601f1061318757805160ff19168380011785556131b4565b828001600101855582156131b4579182015b828111156131b4578251825591602001919060010190613199565b506131c09291506132a6565b5090565b60405180608001604052806132216040518060e001604052806000815260200160006001600160a01b031681526020016000815260200160008152602001600081526020016000815260200160006001600160a01b031681525090565b815260200161322e6132bb565b8152602001613250604051806040016040528060008152602001600081525090565b81526040805161014081018252606080825260208281018290529282018190528082018190526080820152600060a0820181905260c0820181905260e08201819052610100820181905261012082015291015290565b5b808211156131c057600081556001016132a7565b6040805161010081019091528060008152602001606081526020016060815260200160006001600160a01b03168152602001600060ff16815260200160608152602001600060028111156133115761331161364d565b8152602001600081525090565b6001600160e01b03198116811461258657600080fd5b60006020828403121561334657600080fd5b81356124d08161331e565b60005b8381101561336c578181015183820152602001613354565b8381111561245d5750506000910152565b60008151808452613395816020860160208601613351565b601f01601f19169290920160200192915050565b6020815260006124d0602083018461337d565b6000602082840312156133ce57600080fd5b5035919050565b6001600160a01b038116811461258657600080fd5b600080604083850312156133fd57600080fd5b8235613408816133d5565b946020939093013593505050565b60008060006060848603121561342b57600080fd5b505081359360208301359350604090920135919050565b60008060006060848603121561345757600080fd5b8335613462816133d5565b92506020840135613472816133d5565b929592945050506040919091013590565b60006020828403121561349557600080fd5b81356124d0816133d5565b80516001600160a01b0316825260006101e0602083015160208501526040830151604085015260608301516134e060608601826001600160a01b03169052565b5060808301516134fb60808601826001600160a01b03169052565b5060a083015161351660a08601826001600160a01b03169052565b5060c083015160c085015260e08301518160e08601526135388286018261337d565b915050610100808401516135508287018260ff169052565b5050610120838101519085015261014080840151908501526101608084015190850152610180808401511515908501526101a080840151908501526101c08084015160ff8116828701525b5090949350505050565b6000602080830181845280855180835260408601915060408160051b870101925083870160005b828110156135fa57603f198886030184526135e88583516134a0565b945092850192908501906001016135cc565b5092979650505050505050565b60008060006060848603121561361c57600080fd5b8335613627816133d5565b92506020840135915060408401356005811061364257600080fd5b809150509250925092565b634e487b7160e01b600052602160045260246000fd5b600381106125865761258661364d565b61367c81613663565b9052565b6000610100825161369081613663565b8085525060208301518160208601526136ab8286018261337d565b915050604083015184820360408601526136c5828261337d565b91505060018060a01b03606084015116606085015260808301516136ee608086018260ff169052565b5060a083015184820360a0860152613706828261337d565b91505060c083015161371b60c0860182613673565b5060e083015160e08501528091505092915050565b600061014082518185526137468286018261337d565b91505060208301518482036020860152613760828261337d565b9150506040830151848203604086015261377a828261337d565b91505060608301518482036060860152613794828261337d565b915050608083015184820360808601526137ae828261337d565b91505060a08301516137c560a086018260ff169052565b5060c08301516137da60c086018260ff169052565b5060e08301516137ef60e086018260ff169052565b506101008381015160ff81168683015250506101208381015160ff81168683015261359b565b602081526000825180516020840152602081015160018060a01b0380821660408601526040830151606086015260608301516080860152608083015160a086015260a083015160c08601528060c08401511660e086015250505060208301516101608061010085015261388c610180850183613680565b60408601518051610120870152602001516101408601526060860151858203601f1901838701529092506138c08382613730565b9695505050505050565b801515811461258657600080fd5b600080604083850312156138eb57600080fd5b82356138f6816133d5565b91506020830135613906816138ca565b809150509250929050565b6020815260006124d060208301846134a0565b634e487b7160e01b600052604160045260246000fd5b6000806000806080858703121561395057600080fd5b843561395b816133d5565b9350602085013561396b816133d5565b925060408501359150606085013567ffffffffffffffff8082111561398f57600080fd5b818701915087601f8301126139a357600080fd5b8135818111156139b5576139b5613924565b604051601f8201601f19908116603f011681019083821181831017156139dd576139dd613924565b816040528281528a60208487010111156139f657600080fd5b82602086016020830137600060208483010152809550505050505092959194509250565b60008060408385031215613a2d57600080fd5b8235613a38816133d5565b91506020830135613906816133d5565b600181811c90821680613a5c57607f821691505b60208210811415613a7d57634e487b7160e01b600052602260045260246000fd5b50919050565b634e487b7160e01b600052601160045260246000fd5b600082821015613aab57613aab613a83565b500390565b6000816000190483118215151615613aca57613aca613a83565b500290565b600082613aec57634e487b7160e01b600052601260045260246000fd5b500490565b6020810160048310613b0557613b0561364d565b91905290565b600060208284031215613b1d57600080fd5b5051919050565b6020808252602d908201527f4552433732313a2063616c6c6572206973206e6f7420746f6b656e206f776e6560408201526c1c881bdc88185c1c1c9bdd9959609a1b606082015260800190565b634e487b7160e01b600052603260045260246000fd5b600060208284031215613b9957600080fd5b81516124d0816133d5565b6000600019821415613bb857613bb8613a83565b5060010190565b60008219821115613bd257613bd2613a83565b500190565b600060208284031215613be957600080fd5b81516124d0816138ca565b60008351613c06818460208801613351565b835190830190613c1a818360208801613351565b01949350505050565b60208082526025908201527f4552433732313a207472616e736665722066726f6d20696e636f72726563742060408201526437bbb732b960d91b606082015260800190565b60208082526032908201527f4552433732313a207472616e7366657220746f206e6f6e20455243373231526560408201527131b2b4bb32b91034b6b83632b6b2b73a32b960711b606082015260800190565b6001600160a01b03858116825284166020820152604081018390526080606082018190526000906138c09083018461337d565b600060208284031215613cff57600080fd5b81516124d08161331e565b634e487b7160e01b600052603160045260246000fdfea2646970667358221220923941aed83f4205c2b2eb548c162b8796614a2cf42f900a9ec4a9a9883f3d8164736f6c63430008090033a2646970667358221220f62f437b8c87261344fa90bc3680ec350e01b8d2525db9aba50dc52627d4a10c64736f6c63430008090033",
  "devdoc": {
    "kind": "dev",
    "methods": {
      "owner()": {
        "details": "Returns the address of the current owner."
      },
      "renounceOwnership()": {
        "details": "Leaves the contract without owner. It will not be possible to call `onlyOwner` functions anymore. Can only be called by the current owner. NOTE: Renouncing ownership will leave the contract without an owner, thereby removing any functionality that is only available to the owner."
      },
      "transferOwnership(address)": {
        "details": "Transfers ownership of the contract to a new account (`newOwner`). Can only be called by the current owner."
      }
    },
    "version": 1
  },
  "userdoc": {
    "kind": "user",
    "methods": {},
    "version": 1
  },
  "storageLayout": {
    "storage": [
      {
        "astId": 53,
        "contract": "contracts/StakingContract/StakingPoolFactory.sol:StakingPoolFactory",
        "label": "_owner",
        "offset": 0,
        "slot": "0",
        "type": "t_address"
      },
      {
        "astId": 5455,
        "contract": "contracts/StakingContract/StakingPoolFactory.sol:StakingPoolFactory",
        "label": "campaignFeeManager",
        "offset": 0,
        "slot": "1",
        "type": "t_address_payable"
      },
      {
        "astId": 5457,
        "contract": "contracts/StakingContract/StakingPoolFactory.sol:StakingPoolFactory",
        "label": "pmMembership",
        "offset": 0,
        "slot": "2",
        "type": "t_address"
      },
      {
        "astId": 5459,
        "contract": "contracts/StakingContract/StakingPoolFactory.sol:StakingPoolFactory",
        "label": "pmTeamManager",
        "offset": 0,
        "slot": "3",
        "type": "t_address"
      },
      {
        "astId": 5461,
        "contract": "contracts/StakingContract/StakingPoolFactory.sol:StakingPoolFactory",
        "label": "creatorManager",
        "offset": 0,
        "slot": "4",
        "type": "t_address"
      },
      {
        "astId": 5463,
        "contract": "contracts/StakingContract/StakingPoolFactory.sol:StakingPoolFactory",
        "label": "projectsCount",
        "offset": 0,
        "slot": "5",
        "type": "t_uint256"
      },
      {
        "astId": 5466,
        "contract": "contracts/StakingContract/StakingPoolFactory.sol:StakingPoolFactory",
        "label": "pause",
        "offset": 0,
        "slot": "6",
        "type": "t_bool"
      },
      {
        "astId": 5471,
        "contract": "contracts/StakingContract/StakingPoolFactory.sol:StakingPoolFactory",
        "label": "poolsOfAUser",
        "offset": 0,
        "slot": "7",
        "type": "t_mapping(t_address,t_array(t_uint256)dyn_storage)"
      },
      {
        "astId": 5476,
        "contract": "contracts/StakingContract/StakingPoolFactory.sol:StakingPoolFactory",
        "label": "poolsOfATeam",
        "offset": 0,
        "slot": "8",
        "type": "t_mapping(t_uint256,t_array(t_uint256)dyn_storage)"
      },
      {
        "astId": 5481,
        "contract": "contracts/StakingContract/StakingPoolFactory.sol:StakingPoolFactory",
        "label": "stakingPoolsByToken",
        "offset": 0,
        "slot": "9",
        "type": "t_mapping(t_address,t_array(t_address)dyn_storage)"
      },
      {
        "astId": 5485,
        "contract": "contracts/StakingContract/StakingPoolFactory.sol:StakingPoolFactory",
        "label": "stakingPoolByID",
        "offset": 0,
        "slot": "10",
        "type": "t_mapping(t_uint256,t_address)"
      }
    ],
    "types": {
      "t_address": {
        "encoding": "inplace",
        "label": "address",
        "numberOfBytes": "20"
      },
      "t_address_payable": {
        "encoding": "inplace",
        "label": "address payable",
        "numberOfBytes": "20"
      },
      "t_array(t_address)dyn_storage": {
        "base": "t_address",
        "encoding": "dynamic_array",
        "label": "address[]",
        "numberOfBytes": "32"
      },
      "t_array(t_uint256)dyn_storage": {
        "base": "t_uint256",
        "encoding": "dynamic_array",
        "label": "uint256[]",
        "numberOfBytes": "32"
      },
      "t_bool": {
        "encoding": "inplace",
        "label": "bool",
        "numberOfBytes": "1"
      },
      "t_mapping(t_address,t_array(t_address)dyn_storage)": {
        "encoding": "mapping",
        "key": "t_address",
        "label": "mapping(address => address[])",
        "numberOfBytes": "32",
        "value": "t_array(t_address)dyn_storage"
      },
      "t_mapping(t_address,t_array(t_uint256)dyn_storage)": {
        "encoding": "mapping",
        "key": "t_address",
        "label": "mapping(address => uint256[])",
        "numberOfBytes": "32",
        "value": "t_array(t_uint256)dyn_storage"
      },
      "t_mapping(t_uint256,t_address)": {
        "encoding": "mapping",
        "key": "t_uint256",
        "label": "mapping(uint256 => address)",
        "numberOfBytes": "32",
        "value": "t_address"
      },
      "t_mapping(t_uint256,t_array(t_uint256)dyn_storage)": {
        "encoding": "mapping",
        "key": "t_uint256",
        "label": "mapping(uint256 => uint256[])",
        "numberOfBytes": "32",
        "value": "t_array(t_uint256)dyn_storage"
      },
      "t_uint256": {
        "encoding": "inplace",
        "label": "uint256",
        "numberOfBytes": "32"
      }
    }
  }
}