{
  "address": "0xDc64a140Aa3E981100a9becA4E685f962f0cF6C9",
  "abi": [
    {
      "inputs": [
        {
          "internalType": "uint256",
          "name": "silver",
          "type": "uint256"
        },
        {
          "internalType": "uint256",
          "name": "gold",
          "type": "uint256"
        },
        {
          "internalType": "uint256",
          "name": "diamond",
          "type": "uint256"
        },
        {
          "internalType": "uint256",
          "name": "reward_0pc",
          "type": "uint256"
        },
        {
          "internalType": "uint256",
          "name": "reward_30pc",
          "type": "uint256"
        },
        {
          "internalType": "uint256",
          "name": "reward_50pc",
          "type": "uint256"
        },
        {
          "internalType": "uint256",
          "name": "reward_100pc",
          "type": "uint256"
        }
      ],
      "stateMutability": "nonpayable",
      "type": "constructor"
    },
    {
      "anonymous": false,
      "inputs": [
        {
          "indexed": true,
          "internalType": "address",
          "name": "previousOwner",
          "type": "address"
        },
        {
          "indexed": true,
          "internalType": "address",
          "name": "newOwner",
          "type": "address"
        }
      ],
      "name": "OwnershipTransferred",
      "type": "event"
    },
    {
      "anonymous": false,
      "inputs": [
        {
          "indexed": false,
          "internalType": "address",
          "name": "",
          "type": "address"
        },
        {
          "indexed": false,
          "internalType": "uint256",
          "name": "",
          "type": "uint256"
        }
      ],
      "name": "Received",
      "type": "event"
    },
    {
      "inputs": [],
      "name": "SplitFunds",
      "outputs": [],
      "stateMutability": "nonpayable",
      "type": "function"
    },
    {
      "inputs": [
        {
          "internalType": "enum StakingLibrary.CampaignCategories",
          "name": "",
          "type": "uint8"
        }
      ],
      "name": "campaingFee",
      "outputs": [
        {
          "internalType": "uint256",
          "name": "",
          "type": "uint256"
        }
      ],
      "stateMutability": "view",
      "type": "function"
    },
    {
      "inputs": [],
      "name": "emergencyWithdraw",
      "outputs": [],
      "stateMutability": "nonpayable",
      "type": "function"
    },
    {
      "inputs": [],
      "name": "feeDistributionScheme",
      "outputs": [
        {
          "internalType": "uint8",
          "name": "buyBackAndburn",
          "type": "uint8"
        },
        {
          "internalType": "uint8",
          "name": "rewardPool",
          "type": "uint8"
        },
        {
          "internalType": "uint8",
          "name": "corporate",
          "type": "uint8"
        }
      ],
      "stateMutability": "view",
      "type": "function"
    },
    {
      "inputs": [],
      "name": "feeDistributionWallets",
      "outputs": [
        {
          "internalType": "address payable",
          "name": "buyBackAndburn",
          "type": "address"
        },
        {
          "internalType": "address payable",
          "name": "rewardPool",
          "type": "address"
        },
        {
          "internalType": "address payable",
          "name": "corporate",
          "type": "address"
        }
      ],
      "stateMutability": "view",
      "type": "function"
    },
    {
      "inputs": [
        {
          "internalType": "enum CampaignFeeManager.FeesType",
          "name": "feeType",
          "type": "uint8"
        }
      ],
      "name": "getAllCampaignFees",
      "outputs": [
        {
          "internalType": "uint256",
          "name": "silver",
          "type": "uint256"
        },
        {
          "internalType": "uint256",
          "name": "gold",
          "type": "uint256"
        },
        {
          "internalType": "uint256",
          "name": "diamond",
          "type": "uint256"
        }
      ],
      "stateMutability": "view",
      "type": "function"
    },
    {
      "inputs": [
        {
          "internalType": "enum CampaignFeeManager.FeesType",
          "name": "feeType",
          "type": "uint8"
        }
      ],
      "name": "getAllUnstakingFees",
      "outputs": [
        {
          "internalType": "uint256",
          "name": "reward_0pc",
          "type": "uint256"
        },
        {
          "internalType": "uint256",
          "name": "reward_30pc",
          "type": "uint256"
        },
        {
          "internalType": "uint256",
          "name": "reward_50pc",
          "type": "uint256"
        },
        {
          "internalType": "uint256",
          "name": "reward_100pc",
          "type": "uint256"
        }
      ],
      "stateMutability": "view",
      "type": "function"
    },
    {
      "inputs": [
        {
          "internalType": "enum StakingLibrary.CampaignCategories",
          "name": "category",
          "type": "uint8"
        }
      ],
      "name": "getCampaignFee",
      "outputs": [
        {
          "internalType": "uint256",
          "name": "",
          "type": "uint256"
        }
      ],
      "stateMutability": "view",
      "type": "function"
    },
    {
      "inputs": [],
      "name": "getLatestPriceOfOneUSD",
      "outputs": [
        {
          "internalType": "int256",
          "name": "",
          "type": "int256"
        }
      ],
      "stateMutability": "view",
      "type": "function"
    },
    {
      "inputs": [
        {
          "internalType": "enum StakingLibrary.UnstakingCategories",
          "name": "category",
          "type": "uint8"
        }
      ],
      "name": "getUnstakingFee",
      "outputs": [
        {
          "internalType": "uint256",
          "name": "",
          "type": "uint256"
        }
      ],
      "stateMutability": "view",
      "type": "function"
    },
    {
      "inputs": [],
      "name": "owner",
      "outputs": [
        {
          "internalType": "address",
          "name": "",
          "type": "address"
        }
      ],
      "stateMutability": "view",
      "type": "function"
    },
    {
      "inputs": [],
      "name": "renounceOwnership",
      "outputs": [],
      "stateMutability": "nonpayable",
      "type": "function"
    },
    {
      "inputs": [
        {
          "internalType": "uint256",
          "name": "silver",
          "type": "uint256"
        },
        {
          "internalType": "uint256",
          "name": "gold",
          "type": "uint256"
        },
        {
          "internalType": "uint256",
          "name": "diamond",
          "type": "uint256"
        }
      ],
      "name": "setCampaignFees",
      "outputs": [],
      "stateMutability": "nonpayable",
      "type": "function"
    },
    {
      "inputs": [
        {
          "internalType": "uint8",
          "name": "buyBackAndburn",
          "type": "uint8"
        },
        {
          "internalType": "uint8",
          "name": "rewardPool",
          "type": "uint8"
        },
        {
          "internalType": "uint8",
          "name": "corporate",
          "type": "uint8"
        }
      ],
      "name": "setDistributionScheme",
      "outputs": [],
      "stateMutability": "nonpayable",
      "type": "function"
    },
    {
      "inputs": [
        {
          "internalType": "address",
          "name": "buyBackAndburn",
          "type": "address"
        },
        {
          "internalType": "address",
          "name": "rewardPool",
          "type": "address"
        },
        {
          "internalType": "address",
          "name": "corporate",
          "type": "address"
        }
      ],
      "name": "setFeeDistributionWallets",
      "outputs": [],
      "stateMutability": "nonpayable",
      "type": "function"
    },
    {
      "inputs": [
        {
          "internalType": "contract IUniswapV2Router02",
          "name": "_uniswapV2Router",
          "type": "address"
        }
      ],
      "name": "setRouter",
      "outputs": [],
      "stateMutability": "nonpayable",
      "type": "function"
    },
    {
      "inputs": [
        {
          "internalType": "uint256",
          "name": "reward_0pc",
          "type": "uint256"
        },
        {
          "internalType": "uint256",
          "name": "reward_30pc",
          "type": "uint256"
        },
        {
          "internalType": "uint256",
          "name": "reward_50pc",
          "type": "uint256"
        },
        {
          "internalType": "uint256",
          "name": "reward_100pc",
          "type": "uint256"
        }
      ],
      "name": "setUnstakingFees",
      "outputs": [],
      "stateMutability": "nonpayable",
      "type": "function"
    },
    {
      "inputs": [
        {
          "internalType": "address",
          "name": "newOwner",
          "type": "address"
        }
      ],
      "name": "transferOwnership",
      "outputs": [],
      "stateMutability": "nonpayable",
      "type": "function"
    },
    {
      "inputs": [
        {
          "internalType": "enum StakingLibrary.UnstakingCategories",
          "name": "",
          "type": "uint8"
        }
      ],
      "name": "unStakingFee",
      "outputs": [
        {
          "internalType": "uint256",
          "name": "",
          "type": "uint256"
        }
      ],
      "stateMutability": "view",
      "type": "function"
    },
    {
      "inputs": [],
      "name": "uniswapV2Router",
      "outputs": [
        {
          "internalType": "contract IUniswapV2Router02",
          "name": "",
          "type": "address"
        }
      ],
      "stateMutability": "view",
      "type": "function"
    },
    {
      "stateMutability": "payable",
      "type": "receive"
    }
  ],
  "transactionHash": "0xe3f5c8a30ae3a6fe2b2e2129aa2f3c5ebeccc59aafa9c604cf8f97a5fa17a725",
  "args": [
    "100",
    "125",
    "400",
    "3",
    "2",
    "2",
    "0"
  ],
  "numDeployments": 1,
  "solcInputHash": "4d1a6f06330d85ddb1b4e56efbcd8da6",
  "bytecode": "0x6080604052600180546001600160a01b031990811673d4a33860578de61dbabdc8bfdb98fd742fa7028e17909155600280548216737a250d5630b4cf539739df2c5dacb4c659f2488d1790556003805490911661dead17905534801561006457600080fd5b506040516113f23803806113f2833981016040819052610083916101e2565b61008c33610192565b7f17ef568e3e12ab5b9c7254a8d58478811de00f9e6eb34345acd53bf8fd09d3ec969096557fabd6e7cb50984ff9c2f3e18a2660c3353dadf4e3291deeb275dae2cd1e44fe05949094557f91da3fd0782e51c6b3986e9e672fd566868e71f3dbc2d6c2cd6fbb3e361af2a79290925560056020527f05b8ccbb9d4d8fb16ea74ce3c29a41f1b461fbdaff4714a0d9a8eb05499746bc557f1471eb6eb2c5e789fc3de43f8ce62938c7d1836ec861730447e2ada8fd81017b557f89832631fb3c3307a103ba2c84ab569c64d6182a18893dcd163f0f1c2090733a5560036000527fa9bc9a3a348c357ba16b37005d7e6b3236198c0e939f4af8c5f19b8deeb8ebc055610236565b600080546001600160a01b038381166001600160a01b0319831681178455604051919092169283917f8be0079c531659141344cd1fd0a4f28419497f9722a3daafe3b4186f6b6457e09190a35050565b600080600080600080600060e0888a0312156101fd57600080fd5b5050855160208701516040880151606089015160808a015160a08b015160c0909b0151949c939b50919990985090965094509092509050565b6111ad806102456000396000f3fe6080604052600436106101235760003560e01c806370085f5c116100a0578063c0d7865511610064578063c0d78655146103cb578063c390a314146103eb578063c691068d14610418578063db2e21bc1461046f578063f2fde38b1461048457600080fd5b806370085f5c14610338578063715018a6146103585780637d2b6fe11461036d5780638da5cb5b1461038d578063abe98363146103ab57600080fd5b806329a3bcbf116100e757806329a3bcbf146102945780633b6a8f1d146102ab5780634d3520e2146102cb5780635072d33d146102eb57806358041b571461031857600080fd5b806302a64a4b146101675780630e3cab5a146101905780630f6b2cf4146101d05780631694505e1461020b578063178e8e3d1461024357600080fd5b3661016257604080513381523460208201527f88a5966d370b9919b20f3e2c13ff65706f196a4e32cc2c12bf57088f88525874910160405180910390a1005b600080fd5b34801561017357600080fd5b506602b0614fb6df5b5b6040519081526020015b60405180910390f35b34801561019c57600080fd5b506101b06101ab366004610dd3565b6104a4565b604080519485526020850193909352918301526060820152608001610187565b3480156101dc57600080fd5b506101f06101eb366004610dd3565b610570565b60408051938452602084019290925290820152606001610187565b34801561021757600080fd5b5060025461022b906001600160a01b031681565b6040516001600160a01b039091168152602001610187565b34801561024f57600080fd5b506006546102709060ff808216916101008104821691620100009091041683565b6040805160ff94851681529284166020840152921691810191909152606001610187565b3480156102a057600080fd5b506102a961062e565b005b3480156102b757600080fd5b5061017d6102c6366004610df4565b61081f565b3480156102d757600080fd5b506102a96102e6366004610e2a565b610870565b3480156102f757600080fd5b5061017d610306366004610df4565b60056020526000908152604090205481565b34801561032457600080fd5b506102a9610333366004610e8b565b6108b7565b34801561034457600080fd5b506102a9610353366004610ece565b6108f5565b34801561036457600080fd5b506102a9610972565b34801561037957600080fd5b506102a9610388366004610efa565b610986565b34801561039957600080fd5b506000546001600160a01b031661022b565b3480156103b757600080fd5b5061017d6103c6366004610f2c565b610a28565b3480156103d757600080fd5b506102a96103e6366004610f4d565b610a59565b3480156103f757600080fd5b5061017d610406366004610f2c565b60046020526000908152604090205481565b34801561042457600080fd5b50600754600854600954610445926001600160a01b03908116928116911683565b604080516001600160a01b0394851681529284166020840152921691810191909152606001610187565b34801561047b57600080fd5b506102a9610a83565b34801561049057600080fd5b506102a961049f366004610f4d565b610b20565b60056020527f05b8ccbb9d4d8fb16ea74ce3c29a41f1b461fbdaff4714a0d9a8eb05499746bc547f89832631fb3c3307a103ba2c84ab569c64d6182a18893dcd163f0f1c2090733a5460036000527fa9bc9a3a348c357ba16b37005d7e6b3236198c0e939f4af8c5f19b8deeb8ebc05481906001858181111561052957610529610f6a565b1415610569576602b0614fb6df5b6105418186610f96565b945061054d8185610f96565b93506105598184610f96565b92506105658183610f96565b9150505b9193509193565b60046020527f17ef568e3e12ab5b9c7254a8d58478811de00f9e6eb34345acd53bf8fd09d3ec547fabd6e7cb50984ff9c2f3e18a2660c3353dadf4e3291deeb275dae2cd1e44fe055460026000527f91da3fd0782e51c6b3986e9e672fd566868e71f3dbc2d6c2cd6fbb3e361af2a754600184818111156105f3576105f3610f6a565b1415610627576602b0614fb6df5b61060b8185610f96565b93506106178184610f96565b92506106238183610f96565b9150505b9193909250565b610636610b99565b6007546001600160a01b03161580159061065a57506008546001600160a01b031615155b801561067057506009546001600160a01b031615155b6106d05760405162461bcd60e51b815260206004820152602660248201527f446973747269627574696f6e2077616c6c65747320617265206e6f74206265696044820152651b99c81cd95d60d21b60648201526084015b60405180910390fd5b478061071e5760405162461bcd60e51b815260206004820152601e60248201527f4e6f2062616c616e63652061766169616c626c6520666f722073706c6974000060448201526064016106c7565b60065460009060649061073a9062010000900460ff1684610f96565b6107449190610fb5565b60065490915060009060649061076290610100900460ff1685610f96565b61076c9190610fb5565b905060008161077b8486610fd7565b6107859190610fd7565b6009546040519192506001600160a01b03169084156108fc029085906000818181858888f193505050501580156107c0573d6000803e3d6000fd5b506008546040516001600160a01b039091169083156108fc029084906000818181858888f193505050501580156107fb573d6000803e3d6000fd5b50600754600354610819916001600160a01b03908116911683610bf3565b50505050565b60006602b0614fb6df5b8060058385600381111561083f5761083f610f6a565b600381111561085057610850610f6a565b8152602001908152602001600020546108699190610f96565b9392505050565b610878610b99565b600780546001600160a01b039485166001600160a01b031991821617909155600880549385169382169390931790925560098054919093169116179055565b6108bf610b99565b6006805460ff94851661ffff1990911617610100938516939093029290921762ff00001916620100009190931602919091179055565b6108fd610b99565b60046020527f17ef568e3e12ab5b9c7254a8d58478811de00f9e6eb34345acd53bf8fd09d3ec929092557fabd6e7cb50984ff9c2f3e18a2660c3353dadf4e3291deeb275dae2cd1e44fe055560026000527f91da3fd0782e51c6b3986e9e672fd566868e71f3dbc2d6c2cd6fbb3e361af2a755565b61097a610b99565b6109846000610d83565b565b61098e610b99565b60056020527f05b8ccbb9d4d8fb16ea74ce3c29a41f1b461fbdaff4714a0d9a8eb05499746bc939093557f1471eb6eb2c5e789fc3de43f8ce62938c7d1836ec861730447e2ada8fd81017b919091557f89832631fb3c3307a103ba2c84ab569c64d6182a18893dcd163f0f1c2090733a5560036000527fa9bc9a3a348c357ba16b37005d7e6b3236198c0e939f4af8c5f19b8deeb8ebc055565b60006602b0614fb6df5b80600483856002811115610a4857610a48610f6a565b600281111561085057610850610f6a565b610a61610b99565b600280546001600160a01b0319166001600160a01b0392909216919091179055565b610a8b610b99565b4780610ae35760405162461bcd60e51b815260206004820152602160248201527f4e6f2062616c616e63652061766169616c626c6520666f7220776974686472616044820152607760f81b60648201526084016106c7565b600080546040516001600160a01b039091169183156108fc02918491818181858888f19350505050158015610b1c573d6000803e3d6000fd5b5050565b610b28610b99565b6001600160a01b038116610b8d5760405162461bcd60e51b815260206004820152602660248201527f4f776e61626c653a206e6577206f776e657220697320746865207a65726f206160448201526564647265737360d01b60648201526084016106c7565b610b9681610d83565b50565b6000546001600160a01b031633146109845760405162461bcd60e51b815260206004820181905260248201527f4f776e61626c653a2063616c6c6572206973206e6f7420746865206f776e657260448201526064016106c7565b6040805160028082526060820183526000926020830190803683375050600254604080516315ab88c960e31b815290519394506001600160a01b039091169263ad5c464892506004808301926020929190829003018186803b158015610c5857600080fd5b505afa158015610c6c573d6000803e3d6000fd5b505050506040513d601f19601f82011682018060405250810190610c909190611004565b81600081518110610ca357610ca3611021565b60200260200101906001600160a01b031690816001600160a01b0316815250508381600181518110610cd757610cd7611021565b6001600160a01b03928316602091820292909201015260025416637ff36ab58360008487610d07426101f4611037565b6040518663ffffffff1660e01b8152600401610d26949392919061104f565b6000604051808303818588803b158015610d3f57600080fd5b505af1158015610d53573d6000803e3d6000fd5b50505050506040513d6000823e601f3d908101601f19168201604052610d7c91908101906110b9565b5050505050565b600080546001600160a01b038381166001600160a01b0319831681178455604051919092169283917f8be0079c531659141344cd1fd0a4f28419497f9722a3daafe3b4186f6b6457e09190a35050565b600060208284031215610de557600080fd5b81356002811061086957600080fd5b600060208284031215610e0657600080fd5b81356004811061086957600080fd5b6001600160a01b0381168114610b9657600080fd5b600080600060608486031215610e3f57600080fd5b8335610e4a81610e15565b92506020840135610e5a81610e15565b91506040840135610e6a81610e15565b809150509250925092565b803560ff81168114610e8657600080fd5b919050565b600080600060608486031215610ea057600080fd5b610ea984610e75565b9250610eb760208501610e75565b9150610ec560408501610e75565b90509250925092565b600080600060608486031215610ee357600080fd5b505081359360208301359350604090920135919050565b60008060008060808587031215610f1057600080fd5b5050823594602084013594506040840135936060013592509050565b600060208284031215610f3e57600080fd5b81356003811061086957600080fd5b600060208284031215610f5f57600080fd5b813561086981610e15565b634e487b7160e01b600052602160045260246000fd5b634e487b7160e01b600052601160045260246000fd5b6000816000190483118215151615610fb057610fb0610f80565b500290565b600082610fd257634e487b7160e01b600052601260045260246000fd5b500490565b600082821015610fe957610fe9610f80565b500390565b634e487b7160e01b600052604160045260246000fd5b60006020828403121561101657600080fd5b815161086981610e15565b634e487b7160e01b600052603260045260246000fd5b6000821982111561104a5761104a610f80565b500190565b600060808201868352602060808185015281875180845260a086019150828901935060005b818110156110995784516001600160a01b031683529383019391830191600101611074565b50506001600160a01b039690961660408501525050506060015292915050565b600060208083850312156110cc57600080fd5b825167ffffffffffffffff808211156110e457600080fd5b818501915085601f8301126110f857600080fd5b81518181111561110a5761110a610fee565b8060051b604051601f19603f8301168101818110858211171561112f5761112f610fee565b60405291825284820192508381018501918883111561114d57600080fd5b938501935b8285101561116b57845184529385019392850192611152565b9897505050505050505056fea264697066735822122049b531a14c16238f4fca2032ea8f8982d1209d3b2cd8e78961421d38c42a649264736f6c63430008090033",
  "devdoc": {
    "kind": "dev",
    "methods": {
      "owner()": {
        "details": "Returns the address of the current owner."
      },
      "renounceOwnership()": {
        "details": "Leaves the contract without owner. It will not be possible to call `onlyOwner` functions anymore. Can only be called by the current owner. NOTE: Renouncing ownership will leave the contract without an owner, thereby removing any functionality that is only available to the owner."
      },
      "transferOwnership(address)": {
        "details": "Transfers ownership of the contract to a new account (`newOwner`). Can only be called by the current owner."
      }
    },
    "version": 1
  },
  "userdoc": {
    "kind": "user",
    "methods": {},
    "version": 1
  },
  "storageLayout": {
    "storage": [
      {
        "astId": 53,
        "contract": "contracts/Planetmoon/CampaignFeeManager.sol:CampaignFeeManager",
        "label": "_owner",
        "offset": 0,
        "slot": "0",
        "type": "t_address"
      },
      {
        "astId": 6902,
        "contract": "contracts/Planetmoon/CampaignFeeManager.sol:CampaignFeeManager",
        "label": "priceFeed",
        "offset": 0,
        "slot": "1",
        "type": "t_contract(AggregatorV3Interface)45"
      },
      {
        "astId": 6908,
        "contract": "contracts/Planetmoon/CampaignFeeManager.sol:CampaignFeeManager",
        "label": "uniswapV2Router",
        "offset": 0,
        "slot": "2",
        "type": "t_contract(IUniswapV2Router02)10334"
      },
      {
        "astId": 6911,
        "contract": "contracts/Planetmoon/CampaignFeeManager.sol:CampaignFeeManager",
        "label": "DEAD_ADDRESS",
        "offset": 0,
        "slot": "3",
        "type": "t_address"
      },
      {
        "astId": 6916,
        "contract": "contracts/Planetmoon/CampaignFeeManager.sol:CampaignFeeManager",
        "label": "campaingFee",
        "offset": 0,
        "slot": "4",
        "type": "t_mapping(t_enum(CampaignCategories)10350,t_uint256)"
      },
      {
        "astId": 6921,
        "contract": "contracts/Planetmoon/CampaignFeeManager.sol:CampaignFeeManager",
        "label": "unStakingFee",
        "offset": 0,
        "slot": "5",
        "type": "t_mapping(t_enum(UnstakingCategories)10341,t_uint256)"
      },
      {
        "astId": 6930,
        "contract": "contracts/Planetmoon/CampaignFeeManager.sol:CampaignFeeManager",
        "label": "feeDistributionScheme",
        "offset": 0,
        "slot": "6",
        "type": "t_struct(FeeDistributionScheme)6937_storage"
      },
      {
        "astId": 6940,
        "contract": "contracts/Planetmoon/CampaignFeeManager.sol:CampaignFeeManager",
        "label": "feeDistributionWallets",
        "offset": 0,
        "slot": "7",
        "type": "t_struct(FeeDistributionWallets)6947_storage"
      }
    ],
    "types": {
      "t_address": {
        "encoding": "inplace",
        "label": "address",
        "numberOfBytes": "20"
      },
      "t_address_payable": {
        "encoding": "inplace",
        "label": "address payable",
        "numberOfBytes": "20"
      },
      "t_contract(AggregatorV3Interface)45": {
        "encoding": "inplace",
        "label": "contract AggregatorV3Interface",
        "numberOfBytes": "20"
      },
      "t_contract(IUniswapV2Router02)10334": {
        "encoding": "inplace",
        "label": "contract IUniswapV2Router02",
        "numberOfBytes": "20"
      },
      "t_enum(CampaignCategories)10350": {
        "encoding": "inplace",
        "label": "enum StakingLibrary.CampaignCategories",
        "numberOfBytes": "1"
      },
      "t_enum(UnstakingCategories)10341": {
        "encoding": "inplace",
        "label": "enum StakingLibrary.UnstakingCategories",
        "numberOfBytes": "1"
      },
      "t_mapping(t_enum(CampaignCategories)10350,t_uint256)": {
        "encoding": "mapping",
        "key": "t_enum(CampaignCategories)10350",
        "label": "mapping(enum StakingLibrary.CampaignCategories => uint256)",
        "numberOfBytes": "32",
        "value": "t_uint256"
      },
      "t_mapping(t_enum(UnstakingCategories)10341,t_uint256)": {
        "encoding": "mapping",
        "key": "t_enum(UnstakingCategories)10341",
        "label": "mapping(enum StakingLibrary.UnstakingCategories => uint256)",
        "numberOfBytes": "32",
        "value": "t_uint256"
      },
      "t_struct(FeeDistributionScheme)6937_storage": {
        "encoding": "inplace",
        "label": "struct CampaignFeeManager.FeeDistributionScheme",
        "members": [
          {
            "astId": 6932,
            "contract": "contracts/Planetmoon/CampaignFeeManager.sol:CampaignFeeManager",
            "label": "buyBackAndburn",
            "offset": 0,
            "slot": "0",
            "type": "t_uint8"
          },
          {
            "astId": 6934,
            "contract": "contracts/Planetmoon/CampaignFeeManager.sol:CampaignFeeManager",
            "label": "rewardPool",
            "offset": 1,
            "slot": "0",
            "type": "t_uint8"
          },
          {
            "astId": 6936,
            "contract": "contracts/Planetmoon/CampaignFeeManager.sol:CampaignFeeManager",
            "label": "corporate",
            "offset": 2,
            "slot": "0",
            "type": "t_uint8"
          }
        ],
        "numberOfBytes": "32"
      },
      "t_struct(FeeDistributionWallets)6947_storage": {
        "encoding": "inplace",
        "label": "struct CampaignFeeManager.FeeDistributionWallets",
        "members": [
          {
            "astId": 6942,
            "contract": "contracts/Planetmoon/CampaignFeeManager.sol:CampaignFeeManager",
            "label": "buyBackAndburn",
            "offset": 0,
            "slot": "0",
            "type": "t_address_payable"
          },
          {
            "astId": 6944,
            "contract": "contracts/Planetmoon/CampaignFeeManager.sol:CampaignFeeManager",
            "label": "rewardPool",
            "offset": 0,
            "slot": "1",
            "type": "t_address_payable"
          },
          {
            "astId": 6946,
            "contract": "contracts/Planetmoon/CampaignFeeManager.sol:CampaignFeeManager",
            "label": "corporate",
            "offset": 0,
            "slot": "2",
            "type": "t_address_payable"
          }
        ],
        "numberOfBytes": "96"
      },
      "t_uint256": {
        "encoding": "inplace",
        "label": "uint256",
        "numberOfBytes": "32"
      },
      "t_uint8": {
        "encoding": "inplace",
        "label": "uint8",
        "numberOfBytes": "1"
      }
    }
  }
}