{
  "address": "0xCf7Ed3AccA5a467e9e704C703E8D87F634fB0Fc9",
  "abi": [
    {
      "anonymous": false,
      "inputs": [
        {
          "indexed": false,
          "internalType": "address",
          "name": "user",
          "type": "address"
        },
        {
          "indexed": false,
          "internalType": "address",
          "name": "creator",
          "type": "address"
        }
      ],
      "name": "CreatorCreated",
      "type": "event"
    },
    {
      "inputs": [
        {
          "internalType": "address",
          "name": "user",
          "type": "address"
        }
      ],
      "name": "createACreator",
      "outputs": [
        {
          "internalType": "address",
          "name": "",
          "type": "address"
        }
      ],
      "stateMutability": "nonpayable",
      "type": "function"
    },
    {
      "inputs": [],
      "name": "createACreatorForSelf",
      "outputs": [
        {
          "internalType": "address",
          "name": "",
          "type": "address"
        }
      ],
      "stateMutability": "nonpayable",
      "type": "function"
    },
    {
      "inputs": [
        {
          "internalType": "address",
          "name": "",
          "type": "address"
        }
      ],
      "name": "creatorAddress",
      "outputs": [
        {
          "internalType": "contract CreatorContract",
          "name": "",
          "type": "address"
        }
      ],
      "stateMutability": "view",
      "type": "function"
    },
    {
      "inputs": [
        {
          "internalType": "address",
          "name": "user",
          "type": "address"
        }
      ],
      "name": "getCreatorAddress",
      "outputs": [
        {
          "internalType": "address",
          "name": "",
          "type": "address"
        }
      ],
      "stateMutability": "view",
      "type": "function"
    },
    {
      "inputs": [],
      "name": "getMyCreatorAddress",
      "outputs": [
        {
          "internalType": "address",
          "name": "",
          "type": "address"
        }
      ],
      "stateMutability": "view",
      "type": "function"
    },
    {
      "inputs": [
        {
          "internalType": "address",
          "name": "",
          "type": "address"
        }
      ],
      "name": "walletAddress",
      "outputs": [
        {
          "internalType": "address",
          "name": "",
          "type": "address"
        }
      ],
      "stateMutability": "view",
      "type": "function"
    }
  ],
  "transactionHash": "0xe284d7d3ff365655946223d3c3da321b490d69d12de76579d8d286a97727cb8a",
  "args": [],
  "numDeployments": 1,
  "solcInputHash": "4d1a6f06330d85ddb1b4e56efbcd8da6",
  "bytecode": "0x608060405234801561001057600080fd5b506110aa806100206000396000f3fe608060405234801561001057600080fd5b50600436106100625760003560e01c80634fb7cb2714610067578063638a88ae1461009d578063677755bb146100c6578063c082c30c146100ef578063c6ddee241461011b578063f0409a331461012e575b600080fd5b336000908152600160205260409020546001600160a01b03165b6040516001600160a01b03909116815260200160405180910390f35b6100816100ab36600461039c565b6002602052600090815260409020546001600160a01b031681565b6100816100d436600461039c565b6001602052600090815260409020546001600160a01b031681565b6100816100fd36600461039c565b6001600160a01b039081166000908152600160205260409020541690565b61008161012936600461039c565b610136565b610081610276565b6001600160a01b03818116600090815260016020526040812054909116156101965760405162461bcd60e51b815260206004820152600e60248201526d416c72656164792065786973747360901b60448201526064015b60405180910390fd5b6000826040516101a59061038f565b6001600160a01b039091168152602001604051809103906000f0801580156101d1573d6000803e3d6000fd5b506001600160a01b03808516600081815260016020908152604080832080549587166001600160a01b031996871681179091558352600290915281208054909316909117909155805491925080610227836103cc565b9091555050604080516001600160a01b038086168252831660208201527f2cf58b2dfc67dd9fd9d3be318ce396658897594c9e8d321599127060601c9a9591015b60405180910390a192915050565b336000818152600160205260408120549091906001600160a01b0316156102d05760405162461bcd60e51b815260206004820152600e60248201526d416c72656164792065786973747360901b604482015260640161018d565b6000816040516102df9061038f565b6001600160a01b039091168152602001604051809103906000f08015801561030b573d6000803e3d6000fd5b506001600160a01b03838116600090815260016020526040812080546001600160a01b0319169284169290921790915580549192508061034a836103cc565b9091555050604080516001600160a01b038085168252831660208201527f2cf58b2dfc67dd9fd9d3be318ce396658897594c9e8d321599127060601c9a959101610268565b610c7f806103f683390190565b6000602082840312156103ae57600080fd5b81356001600160a01b03811681146103c557600080fd5b9392505050565b60006000198214156103ee57634e487b7160e01b600052601160045260246000fd5b506001019056fe608060405234801561001057600080fd5b50604051610c7f380380610c7f83398101604081905261002f91610171565b61003833610047565b61004181610097565b506101a1565b600080546001600160a01b038381166001600160a01b0319831681178455604051919092169283917f8be0079c531659141344cd1fd0a4f28419497f9722a3daafe3b4186f6b6457e09190a35050565b61009f610115565b6001600160a01b0381166101095760405162461bcd60e51b815260206004820152602660248201527f4f776e61626c653a206e6577206f776e657220697320746865207a65726f206160448201526564647265737360d01b60648201526084015b60405180910390fd5b61011281610047565b50565b6000546001600160a01b0316331461016f5760405162461bcd60e51b815260206004820181905260248201527f4f776e61626c653a2063616c6c6572206973206e6f7420746865206f776e65726044820152606401610100565b565b60006020828403121561018357600080fd5b81516001600160a01b038116811461019a57600080fd5b9392505050565b610acf806101b06000396000f3fe608060405234801561001057600080fd5b50600436106100935760003560e01c8063838c003911610066578063838c0039146100fd5780638da5cb5b14610110578063affd9aba1461012b578063ea2d03e01461013e578063f2fde38b1461015357600080fd5b8063150b7a021461009857806343499844146100c957806361bc221a146100de578063715018a6146100f5575b600080fd5b6100ab6100a636600461070a565b610166565b6040516001600160e01b031990911681526020015b60405180910390f35b6100dc6100d73660046107b9565b610198565b005b6100e760035481565b6040519081526020016100c0565b6100dc6101a7565b6100dc61010b3660046107b9565b6101bb565b6000546040516001600160a01b0390911681526020016100c0565b6100dc6101393660046107d6565b6101c6565b610146610320565b6040516100c09190610802565b6100dc6101613660046107b9565b610331565b60148101516000906101796001826103af565b6101865761018681610198565b50630a85bd0160e11b95945050505050565b6101a36001826103d6565b5050565b6101af6103eb565b6101b96000610445565b565b6101a3600182610495565b60405163b09afec160e01b8152600481018290526000906001600160a01b0384169063b09afec19060240160006040518083038186803b15801561020957600080fd5b505afa15801561021d573d6000803e3d6000fd5b505050506040513d6000823e601f3d908101601f1916820160405261024591908101906108ef565b80519091506001600160a01b0316331461027257604051636ff49be560e01b815260040160405180910390fd5b80606001516001600160a01b031663a9059cbb6102976000546001600160a01b031690565b60408085015190516001600160e01b031960e085901b1681526001600160a01b0390921660048301526024820152604401602060405180830381600087803b1580156102e257600080fd5b505af11580156102f6573d6000803e3d6000fd5b505050506040513d601f19601f8201168201806040525081019061031a9190610a2d565b50505050565b606061032c60016104aa565b905090565b6103396103eb565b6001600160a01b0381166103a35760405162461bcd60e51b815260206004820152602660248201527f4f776e61626c653a206e6577206f776e657220697320746865207a65726f206160448201526564647265737360d01b60648201526084015b60405180910390fd5b6103ac81610445565b50565b6001600160a01b038116600090815260018301602052604081205415155b90505b92915050565b60006103cd836001600160a01b0384166104be565b6000546001600160a01b031633146101b95760405162461bcd60e51b815260206004820181905260248201527f4f776e61626c653a2063616c6c6572206973206e6f7420746865206f776e6572604482015260640161039a565b600080546001600160a01b038381166001600160a01b0319831681178455604051919092169283917f8be0079c531659141344cd1fd0a4f28419497f9722a3daafe3b4186f6b6457e09190a35050565b60006103cd836001600160a01b03841661050d565b606060006104b783610600565b9392505050565b6000818152600183016020526040812054610505575081546001818101845560008481526020808220909301849055845484825282860190935260409020919091556103d0565b5060006103d0565b600081815260018301602052604081205480156105f6576000610531600183610a48565b855490915060009061054590600190610a48565b90508181146105aa57600086600001828154811061056557610565610a6d565b906000526020600020015490508087600001848154811061058857610588610a6d565b6000918252602080832090910192909255918252600188019052604090208390555b85548690806105bb576105bb610a83565b6001900381819060005260206000200160009055905585600101600086815260200190815260200160002060009055600193505050506103d0565b60009150506103d0565b60608160000180548060200260200160405190810160405280929190818152602001828054801561065057602002820191906000526020600020905b81548152602001906001019080831161063c575b50505050509050919050565b6001600160a01b03811681146103ac57600080fd5b634e487b7160e01b600052604160045260246000fd5b6040516101e0810167ffffffffffffffff811182821017156106ab576106ab610671565b60405290565b604051601f8201601f1916810167ffffffffffffffff811182821017156106da576106da610671565b604052919050565b600067ffffffffffffffff8211156106fc576106fc610671565b50601f01601f191660200190565b6000806000806080858703121561072057600080fd5b843561072b8161065c565b9350602085013561073b8161065c565b925060408501359150606085013567ffffffffffffffff81111561075e57600080fd5b8501601f8101871361076f57600080fd5b803561078261077d826106e2565b6106b1565b81815288602083850101111561079757600080fd5b8160208401602083013760006020838301015280935050505092959194509250565b6000602082840312156107cb57600080fd5b81356104b78161065c565b600080604083850312156107e957600080fd5b82356107f48161065c565b946020939093013593505050565b6020808252825182820181905260009190848201906040850190845b818110156108435783516001600160a01b03168352928401929184019160010161081e565b50909695505050505050565b805161085a8161065c565b919050565b600082601f83011261087057600080fd5b815161087e61077d826106e2565b8181526020858184870101111561089457600080fd5b60005b838110156108b2578581018201518382018301528101610897565b838111156108c35760008285850101525b509095945050505050565b805160ff8116811461085a57600080fd5b8051801515811461085a57600080fd5b60006020828403121561090157600080fd5b815167ffffffffffffffff8082111561091957600080fd5b908301906101e0828603121561092e57600080fd5b610936610687565b61093f8361084f565b815260208301516020820152604083015160408201526109616060840161084f565b60608201526109726080840161084f565b608082015261098360a0840161084f565b60a082015260c083015160c082015260e0830151828111156109a457600080fd5b6109b08782860161085f565b60e08301525061010091506109c68284016108ce565b91810191909152610120828101519082015261014080830151908201526101608083015190820152610180906109fd8284016108df565b828201526101a0915081830151828201526101c09150610a1e8284016108ce565b91810191909152949350505050565b600060208284031215610a3f57600080fd5b6103cd826108df565b600082821015610a6857634e487b7160e01b600052601160045260246000fd5b500390565b634e487b7160e01b600052603260045260246000fd5b634e487b7160e01b600052603160045260246000fdfea264697066735822122024b003f472ec991502dffede199a00872fabdfbb36d5bcb712ecbab167a2eba364736f6c63430008090033a26469706673582212201d8f866ca84340a802610ef508c1806b9d44d38020319c17e3b9137a36e4757a64736f6c63430008090033",
  "devdoc": {
    "kind": "dev",
    "methods": {},
    "version": 1
  },
  "userdoc": {
    "kind": "user",
    "methods": {},
    "version": 1
  },
  "storageLayout": {
    "storage": [
      {
        "astId": 6038,
        "contract": "contracts/CreatorContract/CreatorManager.sol:CreatorManager",
        "label": "creatorsCount",
        "offset": 0,
        "slot": "0",
        "type": "t_uint256"
      },
      {
        "astId": 6043,
        "contract": "contracts/CreatorContract/CreatorManager.sol:CreatorManager",
        "label": "creatorAddress",
        "offset": 0,
        "slot": "1",
        "type": "t_mapping(t_address,t_contract(CreatorContract)6032)"
      },
      {
        "astId": 6047,
        "contract": "contracts/CreatorContract/CreatorManager.sol:CreatorManager",
        "label": "walletAddress",
        "offset": 0,
        "slot": "2",
        "type": "t_mapping(t_address,t_address)"
      }
    ],
    "types": {
      "t_address": {
        "encoding": "inplace",
        "label": "address",
        "numberOfBytes": "20"
      },
      "t_contract(CreatorContract)6032": {
        "encoding": "inplace",
        "label": "contract CreatorContract",
        "numberOfBytes": "20"
      },
      "t_mapping(t_address,t_address)": {
        "encoding": "mapping",
        "key": "t_address",
        "label": "mapping(address => address)",
        "numberOfBytes": "32",
        "value": "t_address"
      },
      "t_mapping(t_address,t_contract(CreatorContract)6032)": {
        "encoding": "mapping",
        "key": "t_address",
        "label": "mapping(address => contract CreatorContract)",
        "numberOfBytes": "32",
        "value": "t_contract(CreatorContract)6032"
      },
      "t_uint256": {
        "encoding": "inplace",
        "label": "uint256",
        "numberOfBytes": "32"
      }
    }
  }
}