{
  "address": "0x5FC8d32690cc91D4c39d9d3abcBD16989F875707",
  "abi": [
    {
      "inputs": [
        {
          "internalType": "uint256",
          "name": "regular",
          "type": "uint256"
        },
        {
          "internalType": "uint256",
          "name": "upgrade",
          "type": "uint256"
        },
        {
          "internalType": "uint256",
          "name": "premium",
          "type": "uint256"
        },
        {
          "internalType": "uint256",
          "name": "team",
          "type": "uint256"
        }
      ],
      "stateMutability": "nonpayable",
      "type": "constructor"
    },
    {
      "anonymous": false,
      "inputs": [
        {
          "indexed": true,
          "internalType": "address",
          "name": "previousOwner",
          "type": "address"
        },
        {
          "indexed": true,
          "internalType": "address",
          "name": "newOwner",
          "type": "address"
        }
      ],
      "name": "OwnershipTransferred",
      "type": "event"
    },
    {
      "anonymous": false,
      "inputs": [
        {
          "indexed": false,
          "internalType": "address",
          "name": "",
          "type": "address"
        },
        {
          "indexed": false,
          "internalType": "uint256",
          "name": "",
          "type": "uint256"
        }
      ],
      "name": "Received",
      "type": "event"
    },
    {
      "inputs": [],
      "name": "SplitFunds",
      "outputs": [],
      "stateMutability": "nonpayable",
      "type": "function"
    },
    {
      "inputs": [],
      "name": "emergencyWithdraw",
      "outputs": [],
      "stateMutability": "nonpayable",
      "type": "function"
    },
    {
      "inputs": [],
      "name": "feeDistributionScheme",
      "outputs": [
        {
          "internalType": "uint8",
          "name": "buyBackAndburn",
          "type": "uint8"
        },
        {
          "internalType": "uint8",
          "name": "rewardPool",
          "type": "uint8"
        },
        {
          "internalType": "uint8",
          "name": "corporate",
          "type": "uint8"
        }
      ],
      "stateMutability": "view",
      "type": "function"
    },
    {
      "inputs": [],
      "name": "feeDistributionWallets",
      "outputs": [
        {
          "internalType": "address payable",
          "name": "buyBackAndburn",
          "type": "address"
        },
        {
          "internalType": "address payable",
          "name": "rewardPool",
          "type": "address"
        },
        {
          "internalType": "address payable",
          "name": "corporate",
          "type": "address"
        }
      ],
      "stateMutability": "view",
      "type": "function"
    },
    {
      "inputs": [
        {
          "internalType": "enum MembershipFeeManager.FeesType",
          "name": "feeType",
          "type": "uint8"
        }
      ],
      "name": "getAllFees",
      "outputs": [
        {
          "internalType": "uint256",
          "name": "regular",
          "type": "uint256"
        },
        {
          "internalType": "uint256",
          "name": "upgrade",
          "type": "uint256"
        },
        {
          "internalType": "uint256",
          "name": "premium",
          "type": "uint256"
        },
        {
          "internalType": "uint256",
          "name": "team",
          "type": "uint256"
        }
      ],
      "stateMutability": "view",
      "type": "function"
    },
    {
      "inputs": [],
      "name": "getLatestPriceOfOneUSD",
      "outputs": [
        {
          "internalType": "int256",
          "name": "",
          "type": "int256"
        }
      ],
      "stateMutability": "view",
      "type": "function"
    },
    {
      "inputs": [
        {
          "internalType": "enum StakingLibrary.MembershipCategories",
          "name": "category",
          "type": "uint8"
        }
      ],
      "name": "getMembershipFee",
      "outputs": [
        {
          "internalType": "uint256",
          "name": "",
          "type": "uint256"
        }
      ],
      "stateMutability": "view",
      "type": "function"
    },
    {
      "inputs": [
        {
          "internalType": "enum StakingLibrary.MembershipCategories",
          "name": "",
          "type": "uint8"
        }
      ],
      "name": "membershipFee",
      "outputs": [
        {
          "internalType": "uint256",
          "name": "",
          "type": "uint256"
        }
      ],
      "stateMutability": "view",
      "type": "function"
    },
    {
      "inputs": [],
      "name": "owner",
      "outputs": [
        {
          "internalType": "address",
          "name": "",
          "type": "address"
        }
      ],
      "stateMutability": "view",
      "type": "function"
    },
    {
      "inputs": [],
      "name": "renounceOwnership",
      "outputs": [],
      "stateMutability": "nonpayable",
      "type": "function"
    },
    {
      "inputs": [
        {
          "internalType": "uint8",
          "name": "buyBackAndburn",
          "type": "uint8"
        },
        {
          "internalType": "uint8",
          "name": "rewardPool",
          "type": "uint8"
        },
        {
          "internalType": "uint8",
          "name": "corporate",
          "type": "uint8"
        }
      ],
      "name": "setDistributionScheme",
      "outputs": [],
      "stateMutability": "nonpayable",
      "type": "function"
    },
    {
      "inputs": [
        {
          "internalType": "address",
          "name": "buyBackAndburn",
          "type": "address"
        },
        {
          "internalType": "address",
          "name": "rewardPool",
          "type": "address"
        },
        {
          "internalType": "address",
          "name": "corporate",
          "type": "address"
        }
      ],
      "name": "setFeeDistributionWallets",
      "outputs": [],
      "stateMutability": "nonpayable",
      "type": "function"
    },
    {
      "inputs": [
        {
          "internalType": "uint256",
          "name": "regular",
          "type": "uint256"
        },
        {
          "internalType": "uint256",
          "name": "upgrade",
          "type": "uint256"
        },
        {
          "internalType": "uint256",
          "name": "premium",
          "type": "uint256"
        },
        {
          "internalType": "uint256",
          "name": "team",
          "type": "uint256"
        }
      ],
      "name": "setMembershipFee",
      "outputs": [],
      "stateMutability": "nonpayable",
      "type": "function"
    },
    {
      "inputs": [
        {
          "internalType": "contract IUniswapV2Router02",
          "name": "_uniswapV2Router",
          "type": "address"
        }
      ],
      "name": "setRouter",
      "outputs": [],
      "stateMutability": "nonpayable",
      "type": "function"
    },
    {
      "inputs": [
        {
          "internalType": "address",
          "name": "newOwner",
          "type": "address"
        }
      ],
      "name": "transferOwnership",
      "outputs": [],
      "stateMutability": "nonpayable",
      "type": "function"
    },
    {
      "inputs": [],
      "name": "uniswapV2Router",
      "outputs": [
        {
          "internalType": "contract IUniswapV2Router02",
          "name": "",
          "type": "address"
        }
      ],
      "stateMutability": "view",
      "type": "function"
    },
    {
      "stateMutability": "payable",
      "type": "receive"
    }
  ],
  "transactionHash": "0xcfe549a0e80ece8d08177365db5a488909ef3679b9f90e10f3631c12a2b25c63",
  "args": [
    "3",
    "2",
    "5",
    "8"
  ],
  "numDeployments": 1,
  "solcInputHash": "4d1a6f06330d85ddb1b4e56efbcd8da6",
  "bytecode": "0x6080604052600180546001600160a01b031990811673d4a33860578de61dbabdc8bfdb98fd742fa7028e17909155600280548216737a250d5630b4cf539739df2c5dacb4c659f2488d1790556004805490911661dead17905534801561006457600080fd5b5060405161110a38038061110a8339810160408190526100839161017c565b61008c3361012c565b600360208190527f3617319a054d772f909f7c479a2cebe5066e836a939412e32403c99029b92eff949094557fa15bc60c955c405d20d9149c709e2460f1c2d9a497496a7f46004d1772c3054c929092557fc3a24b0501bd2c13a7e57f2db4369ec4c223447539fc0724a9d55ac4a06ebd4d556000919091527fcbc4e5fb02c3d1de23a9f1e014b4d2ee5aeaea9505df5e855c9210bf472495af556101b2565b600080546001600160a01b038381166001600160a01b0319831681178455604051919092169283917f8be0079c531659141344cd1fd0a4f28419497f9722a3daafe3b4186f6b6457e09190a35050565b6000806000806080858703121561019257600080fd5b505082516020840151604085015160609095015191969095509092509050565b610f49806101c16000396000f3fe6080604052600436106100f75760003560e01c8063715018a61161008a578063c691068d11610059578063c691068d14610317578063db2e21bc1461036e578063f2fde38b14610383578063f6dfc669146103a357600080fd5b8063715018a6146102a45780638da5cb5b146102b95780639b5e831a146102d7578063c0d78655146102f757600080fd5b80634d3520e2116100c65780634d3520e21461020457806358041b57146102245780635e1129c1146102445780636680649d1461026457600080fd5b806302a64a4b1461013b5780631694505e14610164578063178e8e3d1461019c57806329a3bcbf146101ed57600080fd5b3661013657604080513381523460208201527f88a5966d370b9919b20f3e2c13ff65706f196a4e32cc2c12bf57088f88525874910160405180910390a1005b600080fd5b34801561014757600080fd5b506602b0614fb6df5b5b6040519081526020015b60405180910390f35b34801561017057600080fd5b50600254610184906001600160a01b031681565b6040516001600160a01b03909116815260200161015b565b3480156101a857600080fd5b506005546101c99060ff808216916101008104821691620100009091041683565b6040805160ff9485168152928416602084015292169181019190915260600161015b565b3480156101f957600080fd5b506102026103d0565b005b34801561021057600080fd5b5061020261021f366004610bd1565b6105c1565b34801561023057600080fd5b5061020261023f366004610c32565b610608565b34801561025057600080fd5b5061020261025f366004610c75565b610646565b34801561027057600080fd5b5061028461027f366004610ca7565b6106eb565b60408051948552602085019390935291830152606082015260800161015b565b3480156102b057600080fd5b506102026107de565b3480156102c557600080fd5b506000546001600160a01b0316610184565b3480156102e357600080fd5b506101516102f2366004610cc8565b6107f2565b34801561030357600080fd5b50610202610312366004610ce9565b610842565b34801561032357600080fd5b50600654600754600854610344926001600160a01b03908116928116911683565b604080516001600160a01b039485168152928416602084015292169181019190915260600161015b565b34801561037a57600080fd5b5061020261086c565b34801561038f57600080fd5b5061020261039e366004610ce9565b610909565b3480156103af57600080fd5b506101516103be366004610cc8565b60036020526000908152604090205481565b6103d8610982565b6006546001600160a01b0316158015906103fc57506007546001600160a01b031615155b801561041257506008546001600160a01b031615155b6104725760405162461bcd60e51b815260206004820152602660248201527f446973747269627574696f6e2077616c6c65747320617265206e6f74206265696044820152651b99c81cd95d60d21b60648201526084015b60405180910390fd5b47806104c05760405162461bcd60e51b815260206004820152601e60248201527f4e6f2062616c616e63652061766169616c626c6520666f722073706c697400006044820152606401610469565b6005546000906064906104dc9062010000900460ff1684610d1c565b6104e69190610d3b565b60055490915060009060649061050490610100900460ff1685610d1c565b61050e9190610d3b565b905060008161051d8486610d5d565b6105279190610d5d565b6008546040519192506001600160a01b03169084156108fc029085906000818181858888f19350505050158015610562573d6000803e3d6000fd5b506007546040516001600160a01b039091169083156108fc029084906000818181858888f1935050505015801561059d573d6000803e3d6000fd5b506006546004546105bb916001600160a01b039081169116836109dc565b50505050565b6105c9610982565b600680546001600160a01b039485166001600160a01b031991821617909155600780549385169382169390931790925560088054919093169116179055565b610610610982565b6005805460ff94851661ffff1990911617610100938516939093029290921762ff00001916620100009190931602919091179055565b61064e610982565b600360208190527f3617319a054d772f909f7c479a2cebe5066e836a939412e32403c99029b92eff949094557fa15bc60c955c405d20d9149c709e2460f1c2d9a497496a7f46004d1772c3054c929092557fc3a24b0501bd2c13a7e57f2db4369ec4c223447539fc0724a9d55ac4a06ebd4d556000919091527fcbc4e5fb02c3d1de23a9f1e014b4d2ee5aeaea9505df5e855c9210bf472495af55565b600360208190527f3617319a054d772f909f7c479a2cebe5066e836a939412e32403c99029b92eff547fa15bc60c955c405d20d9149c709e2460f1c2d9a497496a7f46004d1772c3054c547fc3a24b0501bd2c13a7e57f2db4369ec4c223447539fc0724a9d55ac4a06ebd4d546000939093527fcbc4e5fb02c3d1de23a9f1e014b4d2ee5aeaea9505df5e855c9210bf472495af54919290916001858181111561079757610797610d74565b14156107d7576602b0614fb6df5b6107af8186610d1c565b94506107bb8185610d1c565b93506107c78184610d1c565b92506107d38183610d1c565b9150505b9193509193565b6107e6610982565b6107f06000610b6c565b565b60006602b0614fb6df5b80600383858281111561081157610811610d74565b600381111561082257610822610d74565b81526020019081526020016000205461083b9190610d1c565b9392505050565b61084a610982565b600280546001600160a01b0319166001600160a01b0392909216919091179055565b610874610982565b47806108cc5760405162461bcd60e51b815260206004820152602160248201527f4e6f2062616c616e63652061766169616c626c6520666f7220776974686472616044820152607760f81b6064820152608401610469565b600080546040516001600160a01b039091169183156108fc02918491818181858888f19350505050158015610905573d6000803e3d6000fd5b5050565b610911610982565b6001600160a01b0381166109765760405162461bcd60e51b815260206004820152602660248201527f4f776e61626c653a206e6577206f776e657220697320746865207a65726f206160448201526564647265737360d01b6064820152608401610469565b61097f81610b6c565b50565b6000546001600160a01b031633146107f05760405162461bcd60e51b815260206004820181905260248201527f4f776e61626c653a2063616c6c6572206973206e6f7420746865206f776e65726044820152606401610469565b6040805160028082526060820183526000926020830190803683375050600254604080516315ab88c960e31b815290519394506001600160a01b039091169263ad5c464892506004808301926020929190829003018186803b158015610a4157600080fd5b505afa158015610a55573d6000803e3d6000fd5b505050506040513d601f19601f82011682018060405250810190610a799190610da0565b81600081518110610a8c57610a8c610dbd565b60200260200101906001600160a01b031690816001600160a01b0316815250508381600181518110610ac057610ac0610dbd565b6001600160a01b03928316602091820292909201015260025416637ff36ab58360008487610af0426101f4610dd3565b6040518663ffffffff1660e01b8152600401610b0f9493929190610deb565b6000604051808303818588803b158015610b2857600080fd5b505af1158015610b3c573d6000803e3d6000fd5b50505050506040513d6000823e601f3d908101601f19168201604052610b659190810190610e55565b5050505050565b600080546001600160a01b038381166001600160a01b0319831681178455604051919092169283917f8be0079c531659141344cd1fd0a4f28419497f9722a3daafe3b4186f6b6457e09190a35050565b6001600160a01b038116811461097f57600080fd5b600080600060608486031215610be657600080fd5b8335610bf181610bbc565b92506020840135610c0181610bbc565b91506040840135610c1181610bbc565b809150509250925092565b803560ff81168114610c2d57600080fd5b919050565b600080600060608486031215610c4757600080fd5b610c5084610c1c565b9250610c5e60208501610c1c565b9150610c6c60408501610c1c565b90509250925092565b60008060008060808587031215610c8b57600080fd5b5050823594602084013594506040840135936060013592509050565b600060208284031215610cb957600080fd5b81356002811061083b57600080fd5b600060208284031215610cda57600080fd5b81356004811061083b57600080fd5b600060208284031215610cfb57600080fd5b813561083b81610bbc565b634e487b7160e01b600052601160045260246000fd5b6000816000190483118215151615610d3657610d36610d06565b500290565b600082610d5857634e487b7160e01b600052601260045260246000fd5b500490565b600082821015610d6f57610d6f610d06565b500390565b634e487b7160e01b600052602160045260246000fd5b634e487b7160e01b600052604160045260246000fd5b600060208284031215610db257600080fd5b815161083b81610bbc565b634e487b7160e01b600052603260045260246000fd5b60008219821115610de657610de6610d06565b500190565b600060808201868352602060808185015281875180845260a086019150828901935060005b81811015610e355784516001600160a01b031683529383019391830191600101610e10565b50506001600160a01b039690961660408501525050506060015292915050565b60006020808385031215610e6857600080fd5b825167ffffffffffffffff80821115610e8057600080fd5b818501915085601f830112610e9457600080fd5b815181811115610ea657610ea6610d8a565b8060051b604051601f19603f83011681018181108582111715610ecb57610ecb610d8a565b604052918252848201925083810185019188831115610ee957600080fd5b938501935b82851015610f0757845184529385019392850192610eee565b9897505050505050505056fea26469706673582212207dce78c950882906ba6af67e23eeafe826ac27d32d41d3485ba61d11ffed617464736f6c63430008090033",
  "devdoc": {
    "kind": "dev",
    "methods": {
      "owner()": {
        "details": "Returns the address of the current owner."
      },
      "renounceOwnership()": {
        "details": "Leaves the contract without owner. It will not be possible to call `onlyOwner` functions anymore. Can only be called by the current owner. NOTE: Renouncing ownership will leave the contract without an owner, thereby removing any functionality that is only available to the owner."
      },
      "transferOwnership(address)": {
        "details": "Transfers ownership of the contract to a new account (`newOwner`). Can only be called by the current owner."
      }
    },
    "version": 1
  },
  "userdoc": {
    "kind": "user",
    "methods": {},
    "version": 1
  },
  "storageLayout": {
    "storage": [
      {
        "astId": 53,
        "contract": "contracts/Planetmoon/MembershipFeeManager.sol:MembershipFeeManager",
        "label": "_owner",
        "offset": 0,
        "slot": "0",
        "type": "t_address"
      },
      {
        "astId": 7604,
        "contract": "contracts/Planetmoon/MembershipFeeManager.sol:MembershipFeeManager",
        "label": "priceFeed",
        "offset": 0,
        "slot": "1",
        "type": "t_contract(AggregatorV3Interface)45"
      },
      {
        "astId": 7610,
        "contract": "contracts/Planetmoon/MembershipFeeManager.sol:MembershipFeeManager",
        "label": "uniswapV2Router",
        "offset": 0,
        "slot": "2",
        "type": "t_contract(IUniswapV2Router02)10334"
      },
      {
        "astId": 7615,
        "contract": "contracts/Planetmoon/MembershipFeeManager.sol:MembershipFeeManager",
        "label": "membershipFee",
        "offset": 0,
        "slot": "3",
        "type": "t_mapping(t_enum(MembershipCategories)10346,t_uint256)"
      },
      {
        "astId": 7618,
        "contract": "contracts/Planetmoon/MembershipFeeManager.sol:MembershipFeeManager",
        "label": "DEAD_ADDRESS",
        "offset": 0,
        "slot": "4",
        "type": "t_address"
      },
      {
        "astId": 7627,
        "contract": "contracts/Planetmoon/MembershipFeeManager.sol:MembershipFeeManager",
        "label": "feeDistributionScheme",
        "offset": 0,
        "slot": "5",
        "type": "t_struct(FeeDistributionScheme)7634_storage"
      },
      {
        "astId": 7637,
        "contract": "contracts/Planetmoon/MembershipFeeManager.sol:MembershipFeeManager",
        "label": "feeDistributionWallets",
        "offset": 0,
        "slot": "6",
        "type": "t_struct(FeeDistributionWallets)7644_storage"
      }
    ],
    "types": {
      "t_address": {
        "encoding": "inplace",
        "label": "address",
        "numberOfBytes": "20"
      },
      "t_address_payable": {
        "encoding": "inplace",
        "label": "address payable",
        "numberOfBytes": "20"
      },
      "t_contract(AggregatorV3Interface)45": {
        "encoding": "inplace",
        "label": "contract AggregatorV3Interface",
        "numberOfBytes": "20"
      },
      "t_contract(IUniswapV2Router02)10334": {
        "encoding": "inplace",
        "label": "contract IUniswapV2Router02",
        "numberOfBytes": "20"
      },
      "t_enum(MembershipCategories)10346": {
        "encoding": "inplace",
        "label": "enum StakingLibrary.MembershipCategories",
        "numberOfBytes": "1"
      },
      "t_mapping(t_enum(MembershipCategories)10346,t_uint256)": {
        "encoding": "mapping",
        "key": "t_enum(MembershipCategories)10346",
        "label": "mapping(enum StakingLibrary.MembershipCategories => uint256)",
        "numberOfBytes": "32",
        "value": "t_uint256"
      },
      "t_struct(FeeDistributionScheme)7634_storage": {
        "encoding": "inplace",
        "label": "struct MembershipFeeManager.FeeDistributionScheme",
        "members": [
          {
            "astId": 7629,
            "contract": "contracts/Planetmoon/MembershipFeeManager.sol:MembershipFeeManager",
            "label": "buyBackAndburn",
            "offset": 0,
            "slot": "0",
            "type": "t_uint8"
          },
          {
            "astId": 7631,
            "contract": "contracts/Planetmoon/MembershipFeeManager.sol:MembershipFeeManager",
            "label": "rewardPool",
            "offset": 1,
            "slot": "0",
            "type": "t_uint8"
          },
          {
            "astId": 7633,
            "contract": "contracts/Planetmoon/MembershipFeeManager.sol:MembershipFeeManager",
            "label": "corporate",
            "offset": 2,
            "slot": "0",
            "type": "t_uint8"
          }
        ],
        "numberOfBytes": "32"
      },
      "t_struct(FeeDistributionWallets)7644_storage": {
        "encoding": "inplace",
        "label": "struct MembershipFeeManager.FeeDistributionWallets",
        "members": [
          {
            "astId": 7639,
            "contract": "contracts/Planetmoon/MembershipFeeManager.sol:MembershipFeeManager",
            "label": "buyBackAndburn",
            "offset": 0,
            "slot": "0",
            "type": "t_address_payable"
          },
          {
            "astId": 7641,
            "contract": "contracts/Planetmoon/MembershipFeeManager.sol:MembershipFeeManager",
            "label": "rewardPool",
            "offset": 0,
            "slot": "1",
            "type": "t_address_payable"
          },
          {
            "astId": 7643,
            "contract": "contracts/Planetmoon/MembershipFeeManager.sol:MembershipFeeManager",
            "label": "corporate",
            "offset": 0,
            "slot": "2",
            "type": "t_address_payable"
          }
        ],
        "numberOfBytes": "96"
      },
      "t_uint256": {
        "encoding": "inplace",
        "label": "uint256",
        "numberOfBytes": "32"
      },
      "t_uint8": {
        "encoding": "inplace",
        "label": "uint8",
        "numberOfBytes": "1"
      }
    }
  }
}