{
  "address": "0x610178dA211FEF7D417bC0e6FeD39F05609AD788",
  "abi": [
    {
      "inputs": [
        {
          "internalType": "address",
          "name": "_giveAwayManager",
          "type": "address"
        },
        {
          "components": [
            {
              "internalType": "uint8",
              "name": "firstPrize",
              "type": "uint8"
            },
            {
              "internalType": "uint8",
              "name": "remainingPrize",
              "type": "uint8"
            }
          ],
          "internalType": "struct PMAirDropper.GiveAwayPrizeScheme",
          "name": "_giveAwayPrizeScheme",
          "type": "tuple"
        }
      ],
      "stateMutability": "nonpayable",
      "type": "constructor"
    },
    {
      "anonymous": false,
      "inputs": [
        {
          "indexed": true,
          "internalType": "address",
          "name": "previousOwner",
          "type": "address"
        },
        {
          "indexed": true,
          "internalType": "address",
          "name": "newOwner",
          "type": "address"
        }
      ],
      "name": "OwnershipTransferred",
      "type": "event"
    },
    {
      "anonymous": false,
      "inputs": [
        {
          "indexed": false,
          "internalType": "address",
          "name": "",
          "type": "address"
        },
        {
          "indexed": false,
          "internalType": "uint256",
          "name": "",
          "type": "uint256"
        }
      ],
      "name": "Received",
      "type": "event"
    },
    {
      "inputs": [
        {
          "internalType": "address",
          "name": "firstWinner",
          "type": "address"
        },
        {
          "internalType": "address[]",
          "name": "remainingWinners",
          "type": "address[]"
        }
      ],
      "name": "distributeGiveAwayReward",
      "outputs": [],
      "stateMutability": "nonpayable",
      "type": "function"
    },
    {
      "inputs": [],
      "name": "emergencyWithdraw",
      "outputs": [],
      "stateMutability": "nonpayable",
      "type": "function"
    },
    {
      "inputs": [],
      "name": "getLatestPriceOfOneUSD",
      "outputs": [
        {
          "internalType": "int256",
          "name": "",
          "type": "int256"
        }
      ],
      "stateMutability": "view",
      "type": "function"
    },
    {
      "inputs": [],
      "name": "giveAwayManager",
      "outputs": [
        {
          "internalType": "address",
          "name": "",
          "type": "address"
        }
      ],
      "stateMutability": "view",
      "type": "function"
    },
    {
      "inputs": [],
      "name": "giveAwayPrizeScheme",
      "outputs": [
        {
          "internalType": "uint8",
          "name": "firstPrize",
          "type": "uint8"
        },
        {
          "internalType": "uint8",
          "name": "remainingPrize",
          "type": "uint8"
        }
      ],
      "stateMutability": "view",
      "type": "function"
    },
    {
      "inputs": [],
      "name": "owner",
      "outputs": [
        {
          "internalType": "address",
          "name": "",
          "type": "address"
        }
      ],
      "stateMutability": "view",
      "type": "function"
    },
    {
      "inputs": [],
      "name": "renounceOwnership",
      "outputs": [],
      "stateMutability": "nonpayable",
      "type": "function"
    },
    {
      "inputs": [
        {
          "internalType": "address",
          "name": "newOwner",
          "type": "address"
        }
      ],
      "name": "transferOwnership",
      "outputs": [],
      "stateMutability": "nonpayable",
      "type": "function"
    },
    {
      "stateMutability": "payable",
      "type": "receive"
    }
  ],
  "transactionHash": "0xa1fb8b1d761159fdd82d76780e1468c3c703cdd93b250328d8326379d7f7b919",
  "args": [
    "0xf39Fd6e51aad88F6F4ce6aB8827279cffFb92266",
    {
      "firstPrize": 100,
      "remainingPrize": 2
    }
  ],
  "numDeployments": 1,
  "solcInputHash": "4d1a6f06330d85ddb1b4e56efbcd8da6",
  "bytecode": "0x6080604052600180546001600160a01b03191673d4a33860578de61dbabdc8bfdb98fd742fa7028e17905534801561003657600080fd5b5060405161093038038061093083398101604081905261005591610113565b61005e336100ad565b600280546001600160a01b039093166001600160a01b03199093169290921790915580516003805460209093015160ff9081166101000261ffff199094169216919091179190911790556101b0565b600080546001600160a01b038381166001600160a01b0319831681178455604051919092169283917f8be0079c531659141344cd1fd0a4f28419497f9722a3daafe3b4186f6b6457e09190a35050565b805160ff8116811461010e57600080fd5b919050565b600080828403606081121561012757600080fd5b83516001600160a01b038116811461013e57600080fd5b92506040601f198201121561015257600080fd5b50604080519081016001600160401b038111828210171561018357634e487b7160e01b600052604160045260246000fd5b604052610192602085016100fd565b81526101a0604085016100fd565b6020820152809150509250929050565b610771806101bf6000396000f3fe60806040526004361061007f5760003560e01c80638da5cb5b1161004e5780638da5cb5b1461015e578063db2e21bc14610190578063f206f2db146101a5578063f2fde38b146101c557600080fd5b806302a64a4b146100c357806349eef668146100ea57806366593f1b14610127578063715018a61461014957600080fd5b366100be57604080513381523460208201527f88a5966d370b9919b20f3e2c13ff65706f196a4e32cc2c12bf57088f88525874910160405180910390a1005b600080fd5b3480156100cf57600080fd5b506040516602b0614fb6df5b81526020015b60405180910390f35b3480156100f657600080fd5b5060035461010d9060ff8082169161010090041682565b6040805160ff9384168152929091166020830152016100e1565b34801561013357600080fd5b506101476101423660046105be565b6101e5565b005b34801561015557600080fd5b506101476103b8565b34801561016a57600080fd5b506000546001600160a01b03165b6040516001600160a01b0390911681526020016100e1565b34801561019c57600080fd5b506101476103cc565b3480156101b157600080fd5b50600254610178906001600160a01b031681565b3480156101d157600080fd5b506101476101e0366004610696565b610469565b6002546001600160a01b031633146102345760405162461bcd60e51b815260206004820152600d60248201526c139bc8105d5d1a1bdc9a5e9959609a1b60448201526064015b60405180910390fd5b60035481516602b0614fb6df5b9160009161025791610100900460ff16906106ce565b600354610267919060ff166106ed565b61027190836106ce565b905047818110156102d45760405162461bcd60e51b815260206004820152602760248201527f4e6f7420456e6f7567682062616c616e636520746f20646973747269627574656044820152660814995dd85c9960ca1b606482015260840161022b565b6003546001600160a01b038616906108fc906102f39060ff16866106ce565b6040518115909202916000818181858888f1935050505015801561031b573d6000803e3d6000fd5b5060005b84518160ff1610156103b057848160ff168151811061034057610340610705565b60200260200101516001600160a01b03166108fc600360000160019054906101000a900460ff1660ff168661037591906106ce565b6040518115909202916000818181858888f1935050505015801561039d573d6000803e3d6000fd5b50806103a88161071b565b91505061031f565b505050505050565b6103c06104e2565b6103ca600061053c565b565b6103d46104e2565b478061042c5760405162461bcd60e51b815260206004820152602160248201527f4e6f2062616c616e63652061766169616c626c6520666f7220776974686472616044820152607760f81b606482015260840161022b565b600080546040516001600160a01b039091169183156108fc02918491818181858888f19350505050158015610465573d6000803e3d6000fd5b5050565b6104716104e2565b6001600160a01b0381166104d65760405162461bcd60e51b815260206004820152602660248201527f4f776e61626c653a206e6577206f776e657220697320746865207a65726f206160448201526564647265737360d01b606482015260840161022b565b6104df8161053c565b50565b6000546001600160a01b031633146103ca5760405162461bcd60e51b815260206004820181905260248201527f4f776e61626c653a2063616c6c6572206973206e6f7420746865206f776e6572604482015260640161022b565b600080546001600160a01b038381166001600160a01b0319831681178455604051919092169283917f8be0079c531659141344cd1fd0a4f28419497f9722a3daafe3b4186f6b6457e09190a35050565b80356001600160a01b03811681146105a357600080fd5b919050565b634e487b7160e01b600052604160045260246000fd5b600080604083850312156105d157600080fd5b6105da8361058c565b915060208084013567ffffffffffffffff808211156105f857600080fd5b818601915086601f83011261060c57600080fd5b81358181111561061e5761061e6105a8565b8060051b604051601f19603f83011681018181108582111715610643576106436105a8565b60405291825284820192508381018501918983111561066157600080fd5b938501935b82851015610686576106778561058c565b84529385019392850192610666565b8096505050505050509250929050565b6000602082840312156106a857600080fd5b6106b18261058c565b9392505050565b634e487b7160e01b600052601160045260246000fd5b60008160001904831182151516156106e8576106e86106b8565b500290565b60008219821115610700576107006106b8565b500190565b634e487b7160e01b600052603260045260246000fd5b600060ff821660ff811415610732576107326106b8565b6001019291505056fea264697066735822122055e38c434cc62f14c3a9bb6a4b78dde1fc6c378f7c780018b094eeda4acc94d664736f6c63430008090033",
  "devdoc": {
    "kind": "dev",
    "methods": {
      "owner()": {
        "details": "Returns the address of the current owner."
      },
      "renounceOwnership()": {
        "details": "Leaves the contract without owner. It will not be possible to call `onlyOwner` functions anymore. Can only be called by the current owner. NOTE: Renouncing ownership will leave the contract without an owner, thereby removing any functionality that is only available to the owner."
      },
      "transferOwnership(address)": {
        "details": "Transfers ownership of the contract to a new account (`newOwner`). Can only be called by the current owner."
      }
    },
    "version": 1
  },
  "userdoc": {
    "kind": "user",
    "methods": {},
    "version": 1
  },
  "storageLayout": {
    "storage": [
      {
        "astId": 53,
        "contract": "contracts/Planetmoon/PMAirDropper.sol:PMAirDropper",
        "label": "_owner",
        "offset": 0,
        "slot": "0",
        "type": "t_address"
      },
      {
        "astId": 8143,
        "contract": "contracts/Planetmoon/PMAirDropper.sol:PMAirDropper",
        "label": "priceFeed",
        "offset": 0,
        "slot": "1",
        "type": "t_contract(AggregatorV3Interface)45"
      },
      {
        "astId": 8151,
        "contract": "contracts/Planetmoon/PMAirDropper.sol:PMAirDropper",
        "label": "giveAwayManager",
        "offset": 0,
        "slot": "2",
        "type": "t_address"
      },
      {
        "astId": 8154,
        "contract": "contracts/Planetmoon/PMAirDropper.sol:PMAirDropper",
        "label": "giveAwayPrizeScheme",
        "offset": 0,
        "slot": "3",
        "type": "t_struct(GiveAwayPrizeScheme)8159_storage"
      }
    ],
    "types": {
      "t_address": {
        "encoding": "inplace",
        "label": "address",
        "numberOfBytes": "20"
      },
      "t_contract(AggregatorV3Interface)45": {
        "encoding": "inplace",
        "label": "contract AggregatorV3Interface",
        "numberOfBytes": "20"
      },
      "t_struct(GiveAwayPrizeScheme)8159_storage": {
        "encoding": "inplace",
        "label": "struct PMAirDropper.GiveAwayPrizeScheme",
        "members": [
          {
            "astId": 8156,
            "contract": "contracts/Planetmoon/PMAirDropper.sol:PMAirDropper",
            "label": "firstPrize",
            "offset": 0,
            "slot": "0",
            "type": "t_uint8"
          },
          {
            "astId": 8158,
            "contract": "contracts/Planetmoon/PMAirDropper.sol:PMAirDropper",
            "label": "remainingPrize",
            "offset": 1,
            "slot": "0",
            "type": "t_uint8"
          }
        ],
        "numberOfBytes": "32"
      },
      "t_uint8": {
        "encoding": "inplace",
        "label": "uint8",
        "numberOfBytes": "1"
      }
    }
  }
}