{
  "address": "0xa513E6E4b8f2a923D98304ec87F64353C4D5C853",
  "abi": [
    {
      "inputs": [
        {
          "internalType": "address",
          "name": "_membershipFeeManager",
          "type": "address"
        }
      ],
      "stateMutability": "nonpayable",
      "type": "constructor"
    },
    {
      "inputs": [],
      "name": "FAILED_TO_TRANSFER_BNBS",
      "type": "error"
    },
    {
      "inputs": [],
      "name": "INSUFFICIENT_FUNDS",
      "type": "error"
    },
    {
      "inputs": [],
      "name": "NOT_OWNER_OF_TEAM",
      "type": "error"
    },
    {
      "anonymous": false,
      "inputs": [
        {
          "indexed": true,
          "internalType": "address",
          "name": "owner",
          "type": "address"
        },
        {
          "indexed": true,
          "internalType": "address",
          "name": "approved",
          "type": "address"
        },
        {
          "indexed": true,
          "internalType": "uint256",
          "name": "tokenId",
          "type": "uint256"
        }
      ],
      "name": "Approval",
      "type": "event"
    },
    {
      "anonymous": false,
      "inputs": [
        {
          "indexed": true,
          "internalType": "address",
          "name": "owner",
          "type": "address"
        },
        {
          "indexed": true,
          "internalType": "address",
          "name": "operator",
          "type": "address"
        },
        {
          "indexed": false,
          "internalType": "bool",
          "name": "approved",
          "type": "bool"
        }
      ],
      "name": "ApprovalForAll",
      "type": "event"
    },
    {
      "anonymous": false,
      "inputs": [
        {
          "indexed": true,
          "internalType": "address",
          "name": "previousOwner",
          "type": "address"
        },
        {
          "indexed": true,
          "internalType": "address",
          "name": "newOwner",
          "type": "address"
        }
      ],
      "name": "OwnershipTransferred",
      "type": "event"
    },
    {
      "anonymous": false,
      "inputs": [
        {
          "indexed": false,
          "internalType": "uint256",
          "name": "teamId",
          "type": "uint256"
        },
        {
          "indexed": false,
          "internalType": "uint256",
          "name": "createdAt",
          "type": "uint256"
        }
      ],
      "name": "TeamCreated",
      "type": "event"
    },
    {
      "anonymous": false,
      "inputs": [
        {
          "indexed": true,
          "internalType": "address",
          "name": "from",
          "type": "address"
        },
        {
          "indexed": true,
          "internalType": "address",
          "name": "to",
          "type": "address"
        },
        {
          "indexed": true,
          "internalType": "uint256",
          "name": "tokenId",
          "type": "uint256"
        }
      ],
      "name": "Transfer",
      "type": "event"
    },
    {
      "inputs": [
        {
          "internalType": "address",
          "name": "to",
          "type": "address"
        },
        {
          "internalType": "uint256",
          "name": "tokenId",
          "type": "uint256"
        }
      ],
      "name": "approve",
      "outputs": [],
      "stateMutability": "nonpayable",
      "type": "function"
    },
    {
      "inputs": [
        {
          "internalType": "address",
          "name": "owner",
          "type": "address"
        }
      ],
      "name": "balanceOf",
      "outputs": [
        {
          "internalType": "uint256",
          "name": "",
          "type": "uint256"
        }
      ],
      "stateMutability": "view",
      "type": "function"
    },
    {
      "inputs": [
        {
          "internalType": "address",
          "name": "to",
          "type": "address"
        }
      ],
      "name": "createATeam",
      "outputs": [],
      "stateMutability": "payable",
      "type": "function"
    },
    {
      "inputs": [
        {
          "internalType": "uint256",
          "name": "tokenId",
          "type": "uint256"
        }
      ],
      "name": "getApproved",
      "outputs": [
        {
          "internalType": "address",
          "name": "",
          "type": "address"
        }
      ],
      "stateMutability": "view",
      "type": "function"
    },
    {
      "inputs": [
        {
          "internalType": "uint256",
          "name": "tokenId",
          "type": "uint256"
        }
      ],
      "name": "getTeamData",
      "outputs": [
        {
          "components": [
            {
              "internalType": "uint256",
              "name": "teamId",
              "type": "uint256"
            },
            {
              "internalType": "address[]",
              "name": "members",
              "type": "address[]"
            },
            {
              "internalType": "uint256",
              "name": "inceptionDate",
              "type": "uint256"
            }
          ],
          "internalType": "struct PMTeamManager.Team",
          "name": "",
          "type": "tuple"
        }
      ],
      "stateMutability": "view",
      "type": "function"
    },
    {
      "inputs": [
        {
          "internalType": "uint256",
          "name": "from",
          "type": "uint256"
        },
        {
          "internalType": "uint256",
          "name": "length",
          "type": "uint256"
        }
      ],
      "name": "getTeamsDataByRange",
      "outputs": [
        {
          "components": [
            {
              "internalType": "uint256",
              "name": "teamId",
              "type": "uint256"
            },
            {
              "internalType": "address[]",
              "name": "members",
              "type": "address[]"
            },
            {
              "internalType": "uint256",
              "name": "inceptionDate",
              "type": "uint256"
            }
          ],
          "internalType": "struct PMTeamManager.Team[]",
          "name": "",
          "type": "tuple[]"
        }
      ],
      "stateMutability": "view",
      "type": "function"
    },
    {
      "inputs": [
        {
          "internalType": "address",
          "name": "owner",
          "type": "address"
        },
        {
          "internalType": "address",
          "name": "operator",
          "type": "address"
        }
      ],
      "name": "isApprovedForAll",
      "outputs": [
        {
          "internalType": "bool",
          "name": "",
          "type": "bool"
        }
      ],
      "stateMutability": "view",
      "type": "function"
    },
    {
      "inputs": [],
      "name": "membershipFeeManager",
      "outputs": [
        {
          "internalType": "address payable",
          "name": "",
          "type": "address"
        }
      ],
      "stateMutability": "view",
      "type": "function"
    },
    {
      "inputs": [],
      "name": "name",
      "outputs": [
        {
          "internalType": "string",
          "name": "",
          "type": "string"
        }
      ],
      "stateMutability": "view",
      "type": "function"
    },
    {
      "inputs": [],
      "name": "owner",
      "outputs": [
        {
          "internalType": "address",
          "name": "",
          "type": "address"
        }
      ],
      "stateMutability": "view",
      "type": "function"
    },
    {
      "inputs": [
        {
          "internalType": "uint256",
          "name": "tokenId",
          "type": "uint256"
        }
      ],
      "name": "ownerOf",
      "outputs": [
        {
          "internalType": "address",
          "name": "",
          "type": "address"
        }
      ],
      "stateMutability": "view",
      "type": "function"
    },
    {
      "inputs": [],
      "name": "renounceOwnership",
      "outputs": [],
      "stateMutability": "nonpayable",
      "type": "function"
    },
    {
      "inputs": [
        {
          "internalType": "address",
          "name": "from",
          "type": "address"
        },
        {
          "internalType": "address",
          "name": "to",
          "type": "address"
        },
        {
          "internalType": "uint256",
          "name": "tokenId",
          "type": "uint256"
        }
      ],
      "name": "safeTransferFrom",
      "outputs": [],
      "stateMutability": "nonpayable",
      "type": "function"
    },
    {
      "inputs": [
        {
          "internalType": "address",
          "name": "from",
          "type": "address"
        },
        {
          "internalType": "address",
          "name": "to",
          "type": "address"
        },
        {
          "internalType": "uint256",
          "name": "tokenId",
          "type": "uint256"
        },
        {
          "internalType": "bytes",
          "name": "data",
          "type": "bytes"
        }
      ],
      "name": "safeTransferFrom",
      "outputs": [],
      "stateMutability": "nonpayable",
      "type": "function"
    },
    {
      "inputs": [
        {
          "internalType": "address",
          "name": "operator",
          "type": "address"
        },
        {
          "internalType": "bool",
          "name": "approved",
          "type": "bool"
        }
      ],
      "name": "setApprovalForAll",
      "outputs": [],
      "stateMutability": "nonpayable",
      "type": "function"
    },
    {
      "inputs": [
        {
          "internalType": "bytes4",
          "name": "interfaceId",
          "type": "bytes4"
        }
      ],
      "name": "supportsInterface",
      "outputs": [
        {
          "internalType": "bool",
          "name": "",
          "type": "bool"
        }
      ],
      "stateMutability": "view",
      "type": "function"
    },
    {
      "inputs": [],
      "name": "symbol",
      "outputs": [
        {
          "internalType": "string",
          "name": "",
          "type": "string"
        }
      ],
      "stateMutability": "view",
      "type": "function"
    },
    {
      "inputs": [
        {
          "internalType": "uint256",
          "name": "index",
          "type": "uint256"
        }
      ],
      "name": "tokenByIndex",
      "outputs": [
        {
          "internalType": "uint256",
          "name": "",
          "type": "uint256"
        }
      ],
      "stateMutability": "view",
      "type": "function"
    },
    {
      "inputs": [
        {
          "internalType": "address",
          "name": "owner",
          "type": "address"
        },
        {
          "internalType": "uint256",
          "name": "index",
          "type": "uint256"
        }
      ],
      "name": "tokenOfOwnerByIndex",
      "outputs": [
        {
          "internalType": "uint256",
          "name": "",
          "type": "uint256"
        }
      ],
      "stateMutability": "view",
      "type": "function"
    },
    {
      "inputs": [
        {
          "internalType": "uint256",
          "name": "tokenId",
          "type": "uint256"
        }
      ],
      "name": "tokenURI",
      "outputs": [
        {
          "internalType": "string",
          "name": "",
          "type": "string"
        }
      ],
      "stateMutability": "view",
      "type": "function"
    },
    {
      "inputs": [],
      "name": "totalSupply",
      "outputs": [
        {
          "internalType": "uint256",
          "name": "",
          "type": "uint256"
        }
      ],
      "stateMutability": "view",
      "type": "function"
    },
    {
      "inputs": [
        {
          "internalType": "address",
          "name": "from",
          "type": "address"
        },
        {
          "internalType": "address",
          "name": "to",
          "type": "address"
        },
        {
          "internalType": "uint256",
          "name": "tokenId",
          "type": "uint256"
        }
      ],
      "name": "transferFrom",
      "outputs": [],
      "stateMutability": "nonpayable",
      "type": "function"
    },
    {
      "inputs": [
        {
          "internalType": "address",
          "name": "newOwner",
          "type": "address"
        }
      ],
      "name": "transferOwnership",
      "outputs": [],
      "stateMutability": "nonpayable",
      "type": "function"
    },
    {
      "inputs": [
        {
          "internalType": "uint256",
          "name": "tokenId",
          "type": "uint256"
        },
        {
          "internalType": "address[]",
          "name": "members",
          "type": "address[]"
        }
      ],
      "name": "updateTeamMembers",
      "outputs": [],
      "stateMutability": "nonpayable",
      "type": "function"
    },
    {
      "inputs": [],
      "name": "uri",
      "outputs": [
        {
          "internalType": "string",
          "name": "",
          "type": "string"
        }
      ],
      "stateMutability": "view",
      "type": "function"
    }
  ],
  "transactionHash": "0x5c2a1cff17d4f90841af7aa12ec0f185083a059f2330f536423997ab9533355a",
  "args": [
    "0x5FC8d32690cc91D4c39d9d3abcBD16989F875707"
  ],
  "numDeployments": 1,
  "solcInputHash": "4d1a6f06330d85ddb1b4e56efbcd8da6",
  "bytecode": "0x61010060405260596080818152906200260c60a03980516200002a91600d916020909101906200015c565b503480156200003857600080fd5b5060405162002665380380620026658339810160408190526200005b9162000202565b604080518082018252600f81526e506c616e65746d6f6f6e205465616d60881b60208083019182528351808501909452600384526214135560ea1b908401528151919291620000ad916000916200015c565b508051620000c39060019060208401906200015c565b505050620000e0620000da6200010660201b60201c565b6200010a565b600b80546001600160a01b0319166001600160a01b039290921691909117905562000271565b3390565b600a80546001600160a01b038381166001600160a01b0319831681179093556040519116919082907f8be0079c531659141344cd1fd0a4f28419497f9722a3daafe3b4186f6b6457e090600090a35050565b8280546200016a9062000234565b90600052602060002090601f0160209004810192826200018e5760008555620001d9565b82601f10620001a957805160ff1916838001178555620001d9565b82800160010185558215620001d9579182015b82811115620001d9578251825591602001919060010190620001bc565b50620001e7929150620001eb565b5090565b5b80821115620001e75760008155600101620001ec565b6000602082840312156200021557600080fd5b81516001600160a01b03811681146200022d57600080fd5b9392505050565b600181811c908216806200024957607f821691505b602082108114156200026b57634e487b7160e01b600052602260045260246000fd5b50919050565b61238b80620002816000396000f3fe6080604052600436106101665760003560e01c806370a08231116100d1578063b88d4fde1161008a578063e985e9c511610064578063e985e9c514610430578063eac989f814610479578063ee37adc21461048e578063f2fde38b146104ae57600080fd5b8063b88d4fde146103c3578063c87b56dd146103e3578063e5dcf1b71461040357600080fd5b806370a082311461031b578063715018a61461033b5780638da5cb5b1461035057806390f7ad7d1461036e57806395d89b411461038e578063a22cb465146103a357600080fd5b8063228e0ace11610123578063228e0ace1461026857806323b872dd1461027b5780632f745c591461029b57806342842e0e146102bb5780634f6ccce7146102db5780636352211e146102fb57600080fd5b806301ffc9a71461016b57806306fdde03146101a0578063081812fc146101c2578063095ea7b3146101fa578063120dd0381461021c57806318160ddd14610249575b600080fd5b34801561017757600080fd5b5061018b610186366004611c53565b6104ce565b60405190151581526020015b60405180910390f35b3480156101ac57600080fd5b506101b56104f9565b6040516101979190611cc8565b3480156101ce57600080fd5b506101e26101dd366004611cdb565b61058b565b6040516001600160a01b039091168152602001610197565b34801561020657600080fd5b5061021a610215366004611d10565b6105b2565b005b34801561022857600080fd5b5061023c610237366004611d3a565b6106cd565b6040516101979190611dc9565b34801561025557600080fd5b506008545b604051908152602001610197565b61021a610276366004611e2b565b610836565b34801561028757600080fd5b5061021a610296366004611e46565b6109fe565b3480156102a757600080fd5b5061025a6102b6366004611d10565b610a2f565b3480156102c757600080fd5b5061021a6102d6366004611e46565b610ac5565b3480156102e757600080fd5b5061025a6102f6366004611cdb565b610ae0565b34801561030757600080fd5b506101e2610316366004611cdb565b610b73565b34801561032757600080fd5b5061025a610336366004611e2b565b610bd3565b34801561034757600080fd5b5061021a610c59565b34801561035c57600080fd5b50600a546001600160a01b03166101e2565b34801561037a57600080fd5b5061021a610389366004611ec9565b610c6d565b34801561039a57600080fd5b506101b5610cc3565b3480156103af57600080fd5b5061021a6103be366004611f82565b610cd2565b3480156103cf57600080fd5b5061021a6103de366004611fbe565b610ce1565b3480156103ef57600080fd5b506101b56103fe366004611cdb565b610d19565b34801561040f57600080fd5b5061042361041e366004611cdb565b610d8d565b604051610197919061207e565b34801561043c57600080fd5b5061018b61044b366004612091565b6001600160a01b03918216600090815260056020908152604080832093909416825291909152205460ff1690565b34801561048557600080fd5b506101b5610e41565b34801561049a57600080fd5b50600b546101e2906001600160a01b031681565b3480156104ba57600080fd5b5061021a6104c9366004611e2b565b610ecf565b60006001600160e01b0319821663780e9d6360e01b14806104f357506104f382610f48565b92915050565b606060008054610508906120c4565b80601f0160208091040260200160405190810160405280929190818152602001828054610534906120c4565b80156105815780601f1061055657610100808354040283529160200191610581565b820191906000526020600020905b81548152906001019060200180831161056457829003601f168201915b5050505050905090565b600061059682610f98565b506000908152600460205260409020546001600160a01b031690565b60006105bd82610b73565b9050806001600160a01b0316836001600160a01b031614156106305760405162461bcd60e51b815260206004820152602160248201527f4552433732313a20617070726f76616c20746f2063757272656e74206f776e656044820152603960f91b60648201526084015b60405180910390fd5b336001600160a01b038216148061064c575061064c813361044b565b6106be5760405162461bcd60e51b815260206004820152603d60248201527f4552433732313a20617070726f76652063616c6c6572206973206e6f7420746f60448201527f6b656e206f776e6572206f7220617070726f76656420666f7220616c6c0000006064820152608401610627565b6106c88383610ff7565b505050565b60608183116106da578291505b60008267ffffffffffffffff8111156106f5576106f5611e82565b60405190808252806020026020018201604052801561074a57816020015b61073760405180606001604052806000815260200160608152602001600081525090565b8152602001906001900390816107135790505b5090506000845b61075b8587612115565b81111561082c576000818152600e6020908152604091829020825160608101845281548152600182018054855181860281018601909652808652919492938581019392908301828280156107d857602002820191906000526020600020905b81546001600160a01b031681526001909101906020018083116107ba575b50505050508152602001600282015481525050838360ff16815181106108005761080061212c565b6020026020010181905250818061081690612142565b925050808061082490612162565b915050610751565b5090949350505050565b600b54604051634daf418d60e11b81526000916001600160a01b031690639b5e831a9061086890600390600401612179565b60206040518083038186803b15801561088057600080fd5b505afa158015610894573d6000803e3d6000fd5b505050506040513d601f19601f820116820180604052508101906108b891906121a1565b9050803410156108db57604051631cf2628760e31b815260040160405180910390fd5b6108e9600c80546001019055565b60006108f4600c5490565b90506109008382611065565b6000818152600e60209081526040808320848155600180820180549182018155855292842090920180546001600160a01b0319166001600160a01b0388811691909117909155848452426002909301839055600b54915192939291169034908381818185875af1925050503d8060008114610997576040519150601f19603f3d011682016040523d82523d6000602084013e61099c565b606091505b50509050806109be57604051635b77072160e11b815260040160405180910390fd5b60408051848152602081018490527f9574ebbd8a596f705e129fa49700bb52708e69b1b8e2dece8bb7d2f3f6951312910160405180910390a15050505050565b610a08338261107f565b610a245760405162461bcd60e51b8152600401610627906121ba565b6106c88383836110fe565b6000610a3a83610bd3565b8210610a9c5760405162461bcd60e51b815260206004820152602b60248201527f455243373231456e756d657261626c653a206f776e657220696e646578206f7560448201526a74206f6620626f756e647360a81b6064820152608401610627565b506001600160a01b03919091166000908152600660209081526040808320938352929052205490565b6106c883838360405180602001604052806000815250610ce1565b6000610aeb60085490565b8210610b4e5760405162461bcd60e51b815260206004820152602c60248201527f455243373231456e756d657261626c653a20676c6f62616c20696e646578206f60448201526b7574206f6620626f756e647360a01b6064820152608401610627565b60088281548110610b6157610b6161212c565b90600052602060002001549050919050565b6000818152600260205260408120546001600160a01b0316806104f35760405162461bcd60e51b8152602060048201526018602482015277115490cdcc8c4e881a5b9d985b1a59081d1bdad95b88125160421b6044820152606401610627565b60006001600160a01b038216610c3d5760405162461bcd60e51b815260206004820152602960248201527f4552433732313a2061646472657373207a65726f206973206e6f7420612076616044820152683634b21037bbb732b960b91b6064820152608401610627565b506001600160a01b031660009081526003602052604090205490565b610c6161126f565b610c6b60006112c9565b565b33610c7783610b73565b6001600160a01b031614610c9e57604051636edd33cd60e11b815260040160405180910390fd5b6000828152600e6020908152604090912082516106c892600190920191840190611bc3565b606060018054610508906120c4565b610cdd33838361131b565b5050565b610ceb338361107f565b610d075760405162461bcd60e51b8152600401610627906121ba565b610d13848484846113ea565b50505050565b6060610d2482610f98565b6000610d3b60408051602081019091526000815290565b90506000815111610d5b5760405180602001604052806000815250610d86565b80610d658461141d565b604051602001610d76929190612207565b6040516020818303038152906040525b9392505050565b610db160405180606001604052806000815260200160608152602001600081525090565b6000828152600e602090815260409182902082516060810184528154815260018201805485518186028101860190965280865291949293858101939290830182828015610e2757602002820191906000526020600020905b81546001600160a01b03168152600190910190602001808311610e09575b505050505081526020016002820154815250509050919050565b600d8054610e4e906120c4565b80601f0160208091040260200160405190810160405280929190818152602001828054610e7a906120c4565b8015610ec75780601f10610e9c57610100808354040283529160200191610ec7565b820191906000526020600020905b815481529060010190602001808311610eaa57829003601f168201915b505050505081565b610ed761126f565b6001600160a01b038116610f3c5760405162461bcd60e51b815260206004820152602660248201527f4f776e61626c653a206e6577206f776e657220697320746865207a65726f206160448201526564647265737360d01b6064820152608401610627565b610f45816112c9565b50565b60006001600160e01b031982166380ac58cd60e01b1480610f7957506001600160e01b03198216635b5e139f60e01b145b806104f357506301ffc9a760e01b6001600160e01b03198316146104f3565b6000818152600260205260409020546001600160a01b0316610f455760405162461bcd60e51b8152602060048201526018602482015277115490cdcc8c4e881a5b9d985b1a59081d1bdad95b88125160421b6044820152606401610627565b600081815260046020526040902080546001600160a01b0319166001600160a01b038416908117909155819061102c82610b73565b6001600160a01b03167f8c5be1e5ebec7d5bd14f71427d1e84f3dd0314c0f7b2291e5b200ac8c7c3b92560405160405180910390a45050565b610cdd8282604051806020016040528060008152506114ba565b60008061108b83610b73565b9050806001600160a01b0316846001600160a01b031614806110d257506001600160a01b0380821660009081526005602090815260408083209388168352929052205460ff165b806110f65750836001600160a01b03166110eb8461058b565b6001600160a01b0316145b949350505050565b826001600160a01b031661111182610b73565b6001600160a01b0316146111375760405162461bcd60e51b815260040161062790612236565b6001600160a01b0382166111995760405162461bcd60e51b8152602060048201526024808201527f4552433732313a207472616e7366657220746f20746865207a65726f206164646044820152637265737360e01b6064820152608401610627565b6111a683838360016114ed565b826001600160a01b03166111b982610b73565b6001600160a01b0316146111df5760405162461bcd60e51b815260040161062790612236565b600081815260046020908152604080832080546001600160a01b03199081169091556001600160a01b0387811680865260038552838620805460001901905590871680865283862080546001019055868652600290945282852080549092168417909155905184937fddf252ad1be2c89b69c2b068fc378daa952ba7f163c4a11628f55a4df523b3ef91a4505050565b600a546001600160a01b03163314610c6b5760405162461bcd60e51b815260206004820181905260248201527f4f776e61626c653a2063616c6c6572206973206e6f7420746865206f776e65726044820152606401610627565b600a80546001600160a01b038381166001600160a01b0319831681179093556040519116919082907f8be0079c531659141344cd1fd0a4f28419497f9722a3daafe3b4186f6b6457e090600090a35050565b816001600160a01b0316836001600160a01b0316141561137d5760405162461bcd60e51b815260206004820152601960248201527f4552433732313a20617070726f766520746f2063616c6c6572000000000000006044820152606401610627565b6001600160a01b03838116600081815260056020908152604080832094871680845294825291829020805460ff191686151590811790915591519182527f17307eab39ab6107e8899845ad3d59bd9653f200f220920489ca2b5937696c31910160405180910390a3505050565b6113f58484846110fe565b6114018484848461162d565b610d135760405162461bcd60e51b81526004016106279061227b565b6060600061142a8361173a565b600101905060008167ffffffffffffffff81111561144a5761144a611e82565b6040519080825280601f01601f191660200182016040528015611474576020820181803683370190505b5090508181016020015b600019016f181899199a1a9b1b9c1cb0b131b232b360811b600a86061a8153600a85049450846114ad576114b2565b61147e565b509392505050565b6114c48383611812565b6114d1600084848461162d565b6106c85760405162461bcd60e51b81526004016106279061227b565b6114f9848484846119ab565b60018111156115685760405162461bcd60e51b815260206004820152603560248201527f455243373231456e756d657261626c653a20636f6e7365637574697665207472604482015274185b9cd9995c9cc81b9bdd081cdd5c1c1bdc9d1959605a1b6064820152608401610627565b816001600160a01b0385166115c4576115bf81600880546000838152600960205260408120829055600182018355919091527ff3f7a9fe364faab93b216da50a3214154f22a0a2b415b23a84c8169e8b636ee30155565b6115e7565b836001600160a01b0316856001600160a01b0316146115e7576115e78582611a33565b6001600160a01b038416611603576115fe81611ad0565b611626565b846001600160a01b0316846001600160a01b031614611626576116268482611b7f565b5050505050565b60006001600160a01b0384163b1561172f57604051630a85bd0160e11b81526001600160a01b0385169063150b7a02906116719033908990889088906004016122cd565b602060405180830381600087803b15801561168b57600080fd5b505af19250505080156116bb575060408051601f3d908101601f191682019092526116b89181019061230a565b60015b611715573d8080156116e9576040519150601f19603f3d011682016040523d82523d6000602084013e6116ee565b606091505b50805161170d5760405162461bcd60e51b81526004016106279061227b565b805181602001fd5b6001600160e01b031916630a85bd0160e11b1490506110f6565b506001949350505050565b60008072184f03e93ff9f4daa797ed6e38ed64bf6a1f0160401b83106117795772184f03e93ff9f4daa797ed6e38ed64bf6a1f0160401b830492506040015b6d04ee2d6d415b85acef810000000083106117a5576d04ee2d6d415b85acef8100000000830492506020015b662386f26fc1000083106117c357662386f26fc10000830492506010015b6305f5e10083106117db576305f5e100830492506008015b61271083106117ef57612710830492506004015b60648310611801576064830492506002015b600a83106104f35760010192915050565b6001600160a01b0382166118685760405162461bcd60e51b815260206004820181905260248201527f4552433732313a206d696e7420746f20746865207a65726f20616464726573736044820152606401610627565b6000818152600260205260409020546001600160a01b0316156118cd5760405162461bcd60e51b815260206004820152601c60248201527f4552433732313a20746f6b656e20616c7265616479206d696e746564000000006044820152606401610627565b6118db6000838360016114ed565b6000818152600260205260409020546001600160a01b0316156119405760405162461bcd60e51b815260206004820152601c60248201527f4552433732313a20746f6b656e20616c7265616479206d696e746564000000006044820152606401610627565b6001600160a01b038216600081815260036020908152604080832080546001019055848352600290915280822080546001600160a01b0319168417905551839291907fddf252ad1be2c89b69c2b068fc378daa952ba7f163c4a11628f55a4df523b3ef908290a45050565b6001811115610d13576001600160a01b038416156119f1576001600160a01b038416600090815260036020526040812080548392906119eb908490612115565b90915550505b6001600160a01b03831615610d13576001600160a01b03831660009081526003602052604081208054839290611a28908490612327565b909155505050505050565b60006001611a4084610bd3565b611a4a9190612115565b600083815260076020526040902054909150808214611a9d576001600160a01b03841660009081526006602090815260408083208584528252808320548484528184208190558352600790915290208190555b5060009182526007602090815260408084208490556001600160a01b039094168352600681528383209183525290812055565b600854600090611ae290600190612115565b60008381526009602052604081205460088054939450909284908110611b0a57611b0a61212c565b906000526020600020015490508060088381548110611b2b57611b2b61212c565b6000918252602080832090910192909255828152600990915260408082208490558582528120556008805480611b6357611b6361233f565b6001900381819060005260206000200160009055905550505050565b6000611b8a83610bd3565b6001600160a01b039093166000908152600660209081526040808320868452825280832085905593825260079052919091209190915550565b828054828255906000526020600020908101928215611c18579160200282015b82811115611c1857825182546001600160a01b0319166001600160a01b03909116178255602090920191600190910190611be3565b50611c24929150611c28565b5090565b5b80821115611c245760008155600101611c29565b6001600160e01b031981168114610f4557600080fd5b600060208284031215611c6557600080fd5b8135610d8681611c3d565b60005b83811015611c8b578181015183820152602001611c73565b83811115610d135750506000910152565b60008151808452611cb4816020860160208601611c70565b601f01601f19169290920160200192915050565b602081526000610d866020830184611c9c565b600060208284031215611ced57600080fd5b5035919050565b80356001600160a01b0381168114611d0b57600080fd5b919050565b60008060408385031215611d2357600080fd5b611d2c83611cf4565b946020939093013593505050565b60008060408385031215611d4d57600080fd5b50508035926020909101359150565b600060608301825184526020808401516060828701528281518085526080880191508383019450600092505b80831015611db15784516001600160a01b03168252938301936001929092019190830190611d88565b50604086015160408801528094505050505092915050565b6000602080830181845280855180835260408601915060408160051b870101925083870160005b82811015611e1e57603f19888603018452611e0c858351611d5c565b94509285019290850190600101611df0565b5092979650505050505050565b600060208284031215611e3d57600080fd5b610d8682611cf4565b600080600060608486031215611e5b57600080fd5b611e6484611cf4565b9250611e7260208501611cf4565b9150604084013590509250925092565b634e487b7160e01b600052604160045260246000fd5b604051601f8201601f1916810167ffffffffffffffff81118282101715611ec157611ec1611e82565b604052919050565b60008060408385031215611edc57600080fd5b8235915060208084013567ffffffffffffffff80821115611efc57600080fd5b818601915086601f830112611f1057600080fd5b813581811115611f2257611f22611e82565b8060051b9150611f33848301611e98565b8181529183018401918481019089841115611f4d57600080fd5b938501935b83851015611f7257611f6385611cf4565b82529385019390850190611f52565b8096505050505050509250929050565b60008060408385031215611f9557600080fd5b611f9e83611cf4565b915060208301358015158114611fb357600080fd5b809150509250929050565b60008060008060808587031215611fd457600080fd5b611fdd85611cf4565b93506020611fec818701611cf4565b935060408601359250606086013567ffffffffffffffff8082111561201057600080fd5b818801915088601f83011261202457600080fd5b81358181111561203657612036611e82565b612048601f8201601f19168501611e98565b9150808252898482850101111561205e57600080fd5b808484018584013760008482840101525080935050505092959194509250565b602081526000610d866020830184611d5c565b600080604083850312156120a457600080fd5b6120ad83611cf4565b91506120bb60208401611cf4565b90509250929050565b600181811c908216806120d857607f821691505b602082108114156120f957634e487b7160e01b600052602260045260246000fd5b50919050565b634e487b7160e01b600052601160045260246000fd5b600082821015612127576121276120ff565b500390565b634e487b7160e01b600052603260045260246000fd5b600060ff821660ff811415612159576121596120ff565b60010192915050565b600081612171576121716120ff565b506000190190565b602081016004831061219b57634e487b7160e01b600052602160045260246000fd5b91905290565b6000602082840312156121b357600080fd5b5051919050565b6020808252602d908201527f4552433732313a2063616c6c6572206973206e6f7420746f6b656e206f776e6560408201526c1c881bdc88185c1c1c9bdd9959609a1b606082015260800190565b60008351612219818460208801611c70565b83519083019061222d818360208801611c70565b01949350505050565b60208082526025908201527f4552433732313a207472616e736665722066726f6d20696e636f72726563742060408201526437bbb732b960d91b606082015260800190565b60208082526032908201527f4552433732313a207472616e7366657220746f206e6f6e20455243373231526560408201527131b2b4bb32b91034b6b83632b6b2b73a32b960711b606082015260800190565b6001600160a01b038581168252841660208201526040810183905260806060820181905260009061230090830184611c9c565b9695505050505050565b60006020828403121561231c57600080fd5b8151610d8681611c3d565b6000821982111561233a5761233a6120ff565b500190565b634e487b7160e01b600052603160045260246000fdfea2646970667358221220ea11ce153729096faa44d6fa6c54e1b53c1c0bdaebbc14a1d676440c696d013a64736f6c6343000809003368747470733a2f2f75706c6f6164732e6c61626f72782e636f6d2f6769672f7468756d625f63726f707065645f363331783633315f64374f3255736d6844674c7a586135502d54486c4c7952322d4a5351644e39502e706e67",
  "devdoc": {
    "kind": "dev",
    "methods": {
      "approve(address,uint256)": {
        "details": "See {IERC721-approve}."
      },
      "balanceOf(address)": {
        "details": "See {IERC721-balanceOf}."
      },
      "getApproved(uint256)": {
        "details": "See {IERC721-getApproved}."
      },
      "isApprovedForAll(address,address)": {
        "details": "See {IERC721-isApprovedForAll}."
      },
      "name()": {
        "details": "See {IERC721Metadata-name}."
      },
      "owner()": {
        "details": "Returns the address of the current owner."
      },
      "ownerOf(uint256)": {
        "details": "See {IERC721-ownerOf}."
      },
      "renounceOwnership()": {
        "details": "Leaves the contract without owner. It will not be possible to call `onlyOwner` functions anymore. Can only be called by the current owner. NOTE: Renouncing ownership will leave the contract without an owner, thereby removing any functionality that is only available to the owner."
      },
      "safeTransferFrom(address,address,uint256)": {
        "details": "See {IERC721-safeTransferFrom}."
      },
      "safeTransferFrom(address,address,uint256,bytes)": {
        "details": "See {IERC721-safeTransferFrom}."
      },
      "setApprovalForAll(address,bool)": {
        "details": "See {IERC721-setApprovalForAll}."
      },
      "supportsInterface(bytes4)": {
        "details": "See {IERC165-supportsInterface}."
      },
      "symbol()": {
        "details": "See {IERC721Metadata-symbol}."
      },
      "tokenByIndex(uint256)": {
        "details": "See {IERC721Enumerable-tokenByIndex}."
      },
      "tokenOfOwnerByIndex(address,uint256)": {
        "details": "See {IERC721Enumerable-tokenOfOwnerByIndex}."
      },
      "tokenURI(uint256)": {
        "details": "See {IERC721Metadata-tokenURI}."
      },
      "totalSupply()": {
        "details": "See {IERC721Enumerable-totalSupply}."
      },
      "transferFrom(address,address,uint256)": {
        "details": "See {IERC721-transferFrom}."
      },
      "transferOwnership(address)": {
        "details": "Transfers ownership of the contract to a new account (`newOwner`). Can only be called by the current owner."
      }
    },
    "version": 1
  },
  "userdoc": {
    "kind": "user",
    "methods": {},
    "version": 1
  },
  "storageLayout": {
    "storage": [
      {
        "astId": 2275,
        "contract": "contracts/CreatorContract/PMTeamManager.sol:PMTeamManager",
        "label": "_name",
        "offset": 0,
        "slot": "0",
        "type": "t_string_storage"
      },
      {
        "astId": 2277,
        "contract": "contracts/CreatorContract/PMTeamManager.sol:PMTeamManager",
        "label": "_symbol",
        "offset": 0,
        "slot": "1",
        "type": "t_string_storage"
      },
      {
        "astId": 2281,
        "contract": "contracts/CreatorContract/PMTeamManager.sol:PMTeamManager",
        "label": "_owners",
        "offset": 0,
        "slot": "2",
        "type": "t_mapping(t_uint256,t_address)"
      },
      {
        "astId": 2285,
        "contract": "contracts/CreatorContract/PMTeamManager.sol:PMTeamManager",
        "label": "_balances",
        "offset": 0,
        "slot": "3",
        "type": "t_mapping(t_address,t_uint256)"
      },
      {
        "astId": 2289,
        "contract": "contracts/CreatorContract/PMTeamManager.sol:PMTeamManager",
        "label": "_tokenApprovals",
        "offset": 0,
        "slot": "4",
        "type": "t_mapping(t_uint256,t_address)"
      },
      {
        "astId": 2295,
        "contract": "contracts/CreatorContract/PMTeamManager.sol:PMTeamManager",
        "label": "_operatorApprovals",
        "offset": 0,
        "slot": "5",
        "type": "t_mapping(t_address,t_mapping(t_address,t_bool))"
      },
      {
        "astId": 3343,
        "contract": "contracts/CreatorContract/PMTeamManager.sol:PMTeamManager",
        "label": "_ownedTokens",
        "offset": 0,
        "slot": "6",
        "type": "t_mapping(t_address,t_mapping(t_uint256,t_uint256))"
      },
      {
        "astId": 3347,
        "contract": "contracts/CreatorContract/PMTeamManager.sol:PMTeamManager",
        "label": "_ownedTokensIndex",
        "offset": 0,
        "slot": "7",
        "type": "t_mapping(t_uint256,t_uint256)"
      },
      {
        "astId": 3350,
        "contract": "contracts/CreatorContract/PMTeamManager.sol:PMTeamManager",
        "label": "_allTokens",
        "offset": 0,
        "slot": "8",
        "type": "t_array(t_uint256)dyn_storage"
      },
      {
        "astId": 3354,
        "contract": "contracts/CreatorContract/PMTeamManager.sol:PMTeamManager",
        "label": "_allTokensIndex",
        "offset": 0,
        "slot": "9",
        "type": "t_mapping(t_uint256,t_uint256)"
      },
      {
        "astId": 53,
        "contract": "contracts/CreatorContract/PMTeamManager.sol:PMTeamManager",
        "label": "_owner",
        "offset": 0,
        "slot": "10",
        "type": "t_address"
      },
      {
        "astId": 6644,
        "contract": "contracts/CreatorContract/PMTeamManager.sol:PMTeamManager",
        "label": "membershipFeeManager",
        "offset": 0,
        "slot": "11",
        "type": "t_address_payable"
      },
      {
        "astId": 6651,
        "contract": "contracts/CreatorContract/PMTeamManager.sol:PMTeamManager",
        "label": "_tokenIdCounter",
        "offset": 0,
        "slot": "12",
        "type": "t_struct(Counter)4125_storage"
      },
      {
        "astId": 6654,
        "contract": "contracts/CreatorContract/PMTeamManager.sol:PMTeamManager",
        "label": "uri",
        "offset": 0,
        "slot": "13",
        "type": "t_string_storage"
      },
      {
        "astId": 6659,
        "contract": "contracts/CreatorContract/PMTeamManager.sol:PMTeamManager",
        "label": "team",
        "offset": 0,
        "slot": "14",
        "type": "t_mapping(t_uint256,t_struct(Team)6667_storage)"
      }
    ],
    "types": {
      "t_address": {
        "encoding": "inplace",
        "label": "address",
        "numberOfBytes": "20"
      },
      "t_address_payable": {
        "encoding": "inplace",
        "label": "address payable",
        "numberOfBytes": "20"
      },
      "t_array(t_address)dyn_storage": {
        "base": "t_address",
        "encoding": "dynamic_array",
        "label": "address[]",
        "numberOfBytes": "32"
      },
      "t_array(t_uint256)dyn_storage": {
        "base": "t_uint256",
        "encoding": "dynamic_array",
        "label": "uint256[]",
        "numberOfBytes": "32"
      },
      "t_bool": {
        "encoding": "inplace",
        "label": "bool",
        "numberOfBytes": "1"
      },
      "t_mapping(t_address,t_bool)": {
        "encoding": "mapping",
        "key": "t_address",
        "label": "mapping(address => bool)",
        "numberOfBytes": "32",
        "value": "t_bool"
      },
      "t_mapping(t_address,t_mapping(t_address,t_bool))": {
        "encoding": "mapping",
        "key": "t_address",
        "label": "mapping(address => mapping(address => bool))",
        "numberOfBytes": "32",
        "value": "t_mapping(t_address,t_bool)"
      },
      "t_mapping(t_address,t_mapping(t_uint256,t_uint256))": {
        "encoding": "mapping",
        "key": "t_address",
        "label": "mapping(address => mapping(uint256 => uint256))",
        "numberOfBytes": "32",
        "value": "t_mapping(t_uint256,t_uint256)"
      },
      "t_mapping(t_address,t_uint256)": {
        "encoding": "mapping",
        "key": "t_address",
        "label": "mapping(address => uint256)",
        "numberOfBytes": "32",
        "value": "t_uint256"
      },
      "t_mapping(t_uint256,t_address)": {
        "encoding": "mapping",
        "key": "t_uint256",
        "label": "mapping(uint256 => address)",
        "numberOfBytes": "32",
        "value": "t_address"
      },
      "t_mapping(t_uint256,t_struct(Team)6667_storage)": {
        "encoding": "mapping",
        "key": "t_uint256",
        "label": "mapping(uint256 => struct PMTeamManager.Team)",
        "numberOfBytes": "32",
        "value": "t_struct(Team)6667_storage"
      },
      "t_mapping(t_uint256,t_uint256)": {
        "encoding": "mapping",
        "key": "t_uint256",
        "label": "mapping(uint256 => uint256)",
        "numberOfBytes": "32",
        "value": "t_uint256"
      },
      "t_string_storage": {
        "encoding": "bytes",
        "label": "string",
        "numberOfBytes": "32"
      },
      "t_struct(Counter)4125_storage": {
        "encoding": "inplace",
        "label": "struct Counters.Counter",
        "members": [
          {
            "astId": 4124,
            "contract": "contracts/CreatorContract/PMTeamManager.sol:PMTeamManager",
            "label": "_value",
            "offset": 0,
            "slot": "0",
            "type": "t_uint256"
          }
        ],
        "numberOfBytes": "32"
      },
      "t_struct(Team)6667_storage": {
        "encoding": "inplace",
        "label": "struct PMTeamManager.Team",
        "members": [
          {
            "astId": 6661,
            "contract": "contracts/CreatorContract/PMTeamManager.sol:PMTeamManager",
            "label": "teamId",
            "offset": 0,
            "slot": "0",
            "type": "t_uint256"
          },
          {
            "astId": 6664,
            "contract": "contracts/CreatorContract/PMTeamManager.sol:PMTeamManager",
            "label": "members",
            "offset": 0,
            "slot": "1",
            "type": "t_array(t_address)dyn_storage"
          },
          {
            "astId": 6666,
            "contract": "contracts/CreatorContract/PMTeamManager.sol:PMTeamManager",
            "label": "inceptionDate",
            "offset": 0,
            "slot": "2",
            "type": "t_uint256"
          }
        ],
        "numberOfBytes": "96"
      },
      "t_uint256": {
        "encoding": "inplace",
        "label": "uint256",
        "numberOfBytes": "32"
      }
    }
  }
}