{
  "address": "0x2279B7A0a67DB372996a5FaB50D91eAA73d2eBe6",
  "abi": [
    {
      "inputs": [
        {
          "internalType": "address",
          "name": "_campaignFeeManager",
          "type": "address"
        },
        {
          "internalType": "address",
          "name": "_pmMembership",
          "type": "address"
        },
        {
          "internalType": "address",
          "name": "_pmTeamManager",
          "type": "address"
        },
        {
          "internalType": "address",
          "name": "_creatorManager",
          "type": "address"
        }
      ],
      "stateMutability": "nonpayable",
      "type": "constructor"
    },
    {
      "inputs": [],
      "name": "FAILED_TO_TRANSFER_BNBS",
      "type": "error"
    },
    {
      "inputs": [],
      "name": "INSUFFICIENT_FUNDS",
      "type": "error"
    },
    {
      "inputs": [],
      "name": "NOT_OWNER_OF_TEAM",
      "type": "error"
    },
    {
      "inputs": [],
      "name": "NOT_PREMIUM_OR_TEAM",
      "type": "error"
    },
    {
      "inputs": [],
      "name": "START_TIME_SHOULD_BE_FUTURE",
      "type": "error"
    },
    {
      "anonymous": false,
      "inputs": [
        {
          "indexed": true,
          "internalType": "address",
          "name": "previousOwner",
          "type": "address"
        },
        {
          "indexed": true,
          "internalType": "address",
          "name": "newOwner",
          "type": "address"
        }
      ],
      "name": "OwnershipTransferred",
      "type": "event"
    },
    {
      "anonymous": false,
      "inputs": [
        {
          "indexed": false,
          "internalType": "uint256",
          "name": "poolId",
          "type": "uint256"
        },
        {
          "indexed": false,
          "internalType": "address",
          "name": "poolAddress",
          "type": "address"
        },
        {
          "indexed": false,
          "internalType": "address",
          "name": "tokenAddress",
          "type": "address"
        }
      ],
      "name": "Poolcreated",
      "type": "event"
    },
    {
      "inputs": [],
      "name": "campaignFeeManager",
      "outputs": [
        {
          "internalType": "address payable",
          "name": "",
          "type": "address"
        }
      ],
      "stateMutability": "view",
      "type": "function"
    },
    {
      "inputs": [
        {
          "components": [
            {
              "internalType": "enum StakingLibrary.CampaignCategories",
              "name": "category",
              "type": "uint8"
            },
            {
              "internalType": "string",
              "name": "projectName",
              "type": "string"
            },
            {
              "internalType": "string",
              "name": "projectSymbol",
              "type": "string"
            },
            {
              "internalType": "address",
              "name": "tokenAddress",
              "type": "address"
            },
            {
              "internalType": "uint8",
              "name": "tokenDecimals",
              "type": "uint8"
            },
            {
              "internalType": "string",
              "name": "tokenSymbol",
              "type": "string"
            },
            {
              "internalType": "enum StakingLibrary.ProfileType",
              "name": "profileType",
              "type": "uint8"
            },
            {
              "internalType": "uint256",
              "name": "profileId",
              "type": "uint256"
            }
          ],
          "internalType": "struct StakingLibrary.ProjectInfo",
          "name": "projectInfo",
          "type": "tuple"
        },
        {
          "components": [
            {
              "internalType": "uint256",
              "name": "startedAt",
              "type": "uint256"
            },
            {
              "internalType": "uint256",
              "name": "poolAmount",
              "type": "uint256"
            }
          ],
          "internalType": "struct StakingLibrary.RewardPoolInfo",
          "name": "rewardPoolInfo",
          "type": "tuple"
        },
        {
          "components": [
            {
              "internalType": "string",
              "name": "image_3_months",
              "type": "string"
            },
            {
              "internalType": "string",
              "name": "image_6_months",
              "type": "string"
            },
            {
              "internalType": "string",
              "name": "image_12_months",
              "type": "string"
            }
          ],
          "internalType": "struct StakingLibrary.Images",
          "name": "images",
          "type": "tuple"
        }
      ],
      "name": "createAStakingPool",
      "outputs": [],
      "stateMutability": "payable",
      "type": "function"
    },
    {
      "inputs": [],
      "name": "creatorManager",
      "outputs": [
        {
          "internalType": "address",
          "name": "",
          "type": "address"
        }
      ],
      "stateMutability": "view",
      "type": "function"
    },
    {
      "inputs": [
        {
          "internalType": "uint256",
          "name": "id",
          "type": "uint256"
        }
      ],
      "name": "getPoolByID",
      "outputs": [
        {
          "internalType": "address",
          "name": "",
          "type": "address"
        }
      ],
      "stateMutability": "view",
      "type": "function"
    },
    {
      "inputs": [
        {
          "internalType": "uint256",
          "name": "teamId",
          "type": "uint256"
        }
      ],
      "name": "getPoolIdsOfATeam",
      "outputs": [
        {
          "internalType": "uint256[]",
          "name": "",
          "type": "uint256[]"
        }
      ],
      "stateMutability": "view",
      "type": "function"
    },
    {
      "inputs": [
        {
          "internalType": "address",
          "name": "user",
          "type": "address"
        }
      ],
      "name": "getPoolIdsOfAUser",
      "outputs": [
        {
          "internalType": "uint256[]",
          "name": "",
          "type": "uint256[]"
        }
      ],
      "stateMutability": "view",
      "type": "function"
    },
    {
      "inputs": [
        {
          "internalType": "address",
          "name": "token",
          "type": "address"
        }
      ],
      "name": "getPoolsByToken",
      "outputs": [
        {
          "internalType": "address[]",
          "name": "",
          "type": "address[]"
        }
      ],
      "stateMutability": "view",
      "type": "function"
    },
    {
      "inputs": [],
      "name": "owner",
      "outputs": [
        {
          "internalType": "address",
          "name": "",
          "type": "address"
        }
      ],
      "stateMutability": "view",
      "type": "function"
    },
    {
      "inputs": [],
      "name": "pmMembership",
      "outputs": [
        {
          "internalType": "address",
          "name": "",
          "type": "address"
        }
      ],
      "stateMutability": "view",
      "type": "function"
    },
    {
      "inputs": [],
      "name": "pmTeamManager",
      "outputs": [
        {
          "internalType": "address",
          "name": "",
          "type": "address"
        }
      ],
      "stateMutability": "view",
      "type": "function"
    },
    {
      "inputs": [],
      "name": "projectsCount",
      "outputs": [
        {
          "internalType": "uint256",
          "name": "",
          "type": "uint256"
        }
      ],
      "stateMutability": "view",
      "type": "function"
    },
    {
      "inputs": [],
      "name": "renounceOwnership",
      "outputs": [],
      "stateMutability": "nonpayable",
      "type": "function"
    },
    {
      "inputs": [
        {
          "internalType": "address",
          "name": "newOwner",
          "type": "address"
        }
      ],
      "name": "transferOwnership",
      "outputs": [],
      "stateMutability": "nonpayable",
      "type": "function"
    }
  ],
  "transactionHash": "0x16c460b428e74c4e0ab5b61f3cf4b058c2dbd9ca06a522fa42ea2c134f75e05e",
  "args": [
    "0xDc64a140Aa3E981100a9becA4E685f962f0cF6C9",
    "0x0165878A594ca255338adfa4d48449f69242Eb8F",
    "0xa513E6E4b8f2a923D98304ec87F64353C4D5C853",
    "0xCf7Ed3AccA5a467e9e704C703E8D87F634fB0Fc9"
  ],
  "numDeployments": 1,
  "solcInputHash": "4d1a6f06330d85ddb1b4e56efbcd8da6",
  "bytecode": "0x60806040523480156200001157600080fd5b5060405162005d6938038062005d69833981016040819052620000349162000100565b6200003f3362000093565b600180546001600160a01b039586166001600160a01b03199182161790915560028054948616948216949094179093556003805492851692841692909217909155600480549190931691161790556200015d565b600080546001600160a01b038381166001600160a01b0319831681178455604051919092169283917f8be0079c531659141344cd1fd0a4f28419497f9722a3daafe3b4186f6b6457e09190a35050565b80516001600160a01b0381168114620000fb57600080fd5b919050565b600080600080608085870312156200011757600080fd5b6200012285620000e3565b93506200013260208601620000e3565b92506200014260408601620000e3565b91506200015260608601620000e3565b905092959194509250565b615bfc806200016d6000396000f3fe608060405260043610620000d25760003560e01c80638dc6c5f61162000089578063a0ac50b91162000060578063a0ac50b91462000250578063c73b302e1462000272578063d4f47e931462000299578063f2fde38b14620002bb57600080fd5b80638dc6c5f614620001f2578063942cc30714620002175780639aa33636146200023957600080fd5b80635055149c14620000d7578063715018a6146200012e5780637a0e6ad314620001485780637f713037146200017c57806386959b4b146200019e5780638da5cb5b14620001d2575b600080fd5b348015620000e457600080fd5b5062000111620000f636600462000b09565b6000908152600960205260409020546001600160a01b031690565b6040516001600160a01b0390911681526020015b60405180910390f35b3480156200013b57600080fd5b5062000146620002e0565b005b3480156200015557600080fd5b506200016d6200016736600462000b4b565b620002f8565b60405162000125919062000b72565b3480156200018957600080fd5b5060035462000111906001600160a01b031681565b348015620001ab57600080fd5b50620001c3620001bd36600462000b4b565b62000366565b60405162000125919062000bb8565b348015620001df57600080fd5b506000546001600160a01b031662000111565b348015620001ff57600080fd5b506200016d6200021136600462000b09565b620003dd565b3480156200022457600080fd5b5060015462000111906001600160a01b031681565b620001466200024a36600462000e04565b6200043f565b3480156200025d57600080fd5b5060025462000111906001600160a01b031681565b3480156200027f57600080fd5b506200028a60055481565b60405190815260200162000125565b348015620002a657600080fd5b5060045462000111906001600160a01b031681565b348015620002c857600080fd5b5062000146620002da36600462000b4b565b620009cc565b620002ea62000a4f565b620002f6600062000aab565b565b6001600160a01b0381166000908152600660209081526040918290208054835181840281018401909452808452606093928301828280156200035a57602002820191906000526020600020905b81548152602001906001019080831162000345575b50505050509050919050565b6001600160a01b0381166000908152600860209081526040918290208054835181840281018401909452808452606093928301828280156200035a57602002820191906000526020600020905b81546001600160a01b03168152600190910190602001808311620003b35750505050509050919050565b6000818152600760209081526040918290208054835181840281018401909452808452606093928301828280156200035a5760200282019190600052602060002090815481526020019060010190808311620003455750505050509050919050565b6003546040516370a0823160e01b815233600482015260009182916001600160a01b03909116906370a082319060240160206040518083038186803b1580156200048857600080fd5b505afa1580156200049d573d6000803e3d6000fd5b505050506040513d601f19601f82011682018060405250810190620004c3919062000f59565b6002546040516329c59e0360e01b81523360048201529290911192506000916001600160a01b03909116906329c59e039060240160606040518083038186803b1580156200051057600080fd5b505afa15801562000525573d6000803e3d6000fd5b505050506040513d601f19601f820116820180604052508101906200054b919062000f84565b604001519050811580156200055e575080155b156200057d5760405163eb932d8b60e01b815260040160405180910390fd5b60018560c00151600281111562000598576200059862000fea565b1415620006545760035460e08601516040516331a9108f60e11b815260048101919091526000916001600160a01b031690636352211e9060240160206040518083038186803b158015620005eb57600080fd5b505afa15801562000600573d6000803e3d6000fd5b505050506040513d601f19601f8201168201806040525081019062000626919062001000565b90506001600160a01b03811633146200065257604051636edd33cd60e11b815260040160405180910390fd5b505b600154855160405163abe9836360e01b81526000926001600160a01b03169163abe98363916200068891906004016200104e565b60206040518083038186803b158015620006a157600080fd5b505afa158015620006b6573d6000803e3d6000fd5b505050506040513d601f19601f82011682018060405250810190620006dc919062000f59565b9050803410156200070057604051631cf2628760e31b815260040160405180910390fd5b8451421115620007235760405163474435c160e01b815260040160405180910390fd5b60058054906000620007358362001063565b9091555050600554600454600154604051600093928a928a928a926001600160a01b0390811692169033906200076b9062000afb565b6200077d979695949392919062001134565b604051809103906000f0801580156200079a573d6000803e3d6000fd5b50905060018760c001516002811115620007b857620007b862000fea565b1415620007eb5760e087015160009081526007602090815260408220600554815460018101835591845291909220909101555b6060870180516001600160a01b0390811660009081526008602090815260408083208054600180820183559185528385200180548887166001600160a01b031991821681179092556005805487526009865284872080549092168317909155338087526006865284872091548254948501835591875295859020909201919091559451918b015190516323b872dd60e01b81526004810193909352602483019490945260448201939093529116906323b872dd90606401602060405180830381600087803b158015620008bd57600080fd5b505af1158015620008d2573d6000803e3d6000fd5b505050506040513d601f19601f82011682018060405250810190620008f8919062001268565b506001546040516000916001600160a01b03169034908381818185875af1925050503d806000811462000948576040519150601f19603f3d011682016040523d82523d6000602084013e6200094d565b606091505b50509050806200097057604051635b77072160e11b815260040160405180910390fd5b6005546060808a0151604080519384526001600160a01b038087166020860152909116908301527fdffe5be4b28e9feff47252db2cf2054aef948f89043d4ba606b2c6a0fd0cff0d910160405180910390a15050505050505050565b620009d662000a4f565b6001600160a01b03811662000a415760405162461bcd60e51b815260206004820152602660248201527f4f776e61626c653a206e6577206f776e657220697320746865207a65726f206160448201526564647265737360d01b60648201526084015b60405180910390fd5b62000a4c8162000aab565b50565b6000546001600160a01b03163314620002f65760405162461bcd60e51b815260206004820181905260248201527f4f776e61626c653a2063616c6c6572206973206e6f7420746865206f776e6572604482015260640162000a38565b600080546001600160a01b038381166001600160a01b0319831681178455604051919092169283917f8be0079c531659141344cd1fd0a4f28419497f9722a3daafe3b4186f6b6457e09190a35050565b614940806200128783390190565b60006020828403121562000b1c57600080fd5b5035919050565b6001600160a01b038116811462000a4c57600080fd5b803562000b468162000b23565b919050565b60006020828403121562000b5e57600080fd5b813562000b6b8162000b23565b9392505050565b6020808252825182820181905260009190848201906040850190845b8181101562000bac5783518352928401929184019160010162000b8e565b50909695505050505050565b6020808252825182820181905260009190848201906040850190845b8181101562000bac5783516001600160a01b03168352928401929184019160010162000bd4565b634e487b7160e01b600052604160045260246000fd5b604051610100810167ffffffffffffffff8111828210171562000c385762000c3862000bfb565b60405290565b80356003811062000b4657600080fd5b600082601f83011262000c6057600080fd5b813567ffffffffffffffff8082111562000c7e5762000c7e62000bfb565b604051601f8301601f19908116603f0116810190828211818310171562000ca95762000ca962000bfb565b8160405283815286602085880101111562000cc357600080fd5b836020870160208301376000602085830101528094505050505092915050565b803560ff8116811462000b4657600080fd5b60006040828403121562000d0857600080fd5b6040516040810181811067ffffffffffffffff8211171562000d2e5762000d2e62000bfb565b604052823581526020928301359281019290925250919050565b60006060828403121562000d5b57600080fd5b6040516060810167ffffffffffffffff828210818311171562000d825762000d8262000bfb565b81604052829350843591508082111562000d9b57600080fd5b62000da98683870162000c4e565b8352602085013591508082111562000dc057600080fd5b62000dce8683870162000c4e565b6020840152604085013591508082111562000de857600080fd5b5062000df78582860162000c4e565b6040830152505092915050565b60008060006080848603121562000e1a57600080fd5b833567ffffffffffffffff8082111562000e3357600080fd5b90850190610100828803121562000e4957600080fd5b62000e5362000c11565b62000e5e8362000c3e565b815260208301358281111562000e7357600080fd5b62000e818982860162000c4e565b60208301525060408301358281111562000e9a57600080fd5b62000ea88982860162000c4e565b60408301525062000ebc6060840162000b39565b606082015262000ecf6080840162000ce3565b608082015260a08301358281111562000ee757600080fd5b62000ef58982860162000c4e565b60a08301525062000f0960c0840162000c3e565b60c082015260e08381013590820152945062000f29876020880162000cf5565b9350606086013591508082111562000f4057600080fd5b5062000f4f8682870162000d48565b9150509250925092565b60006020828403121562000f6c57600080fd5b5051919050565b8051801515811462000b4657600080fd5b60006060828403121562000f9757600080fd5b6040516060810181811067ffffffffffffffff8211171562000fbd5762000fbd62000bfb565b8060405250825181526020830151602082015262000fde6040840162000f73565b60408201529392505050565b634e487b7160e01b600052602160045260246000fd5b6000602082840312156200101357600080fd5b815162000b6b8162000b23565b6003811062000a4c57634e487b7160e01b600052602160045260246000fd5b6200104a8162001020565b9052565b602081016200105d8362001020565b91905290565b60006000198214156200108657634e487b7160e01b600052601160045260246000fd5b5060010190565b6000815180845260005b81811015620010b55760208185018101518683018201520162001097565b81811115620010c8576000602083870101525b50601f01601f19169290920160200192915050565b6000815160608452620010f460608501826200108d565b9050602083015184820360208601526200110f82826200108d565b915050604083015184820360408601526200112b82826200108d565b95945050505050565b6000610100898352806020840152620011518184018a516200103f565b6020890151816101208501526200116d6102008501826200108d565b915050604089015160ff1980858403016101408601526200118f83836200108d565b925060608b01519150620011af6101608601836001600160a01b03169052565b60808b015160ff1661018086015260a08b01518584039091016101a08601529050620011dc82826200108d565b91505060c0890151620011f46101c08501826200103f565b5060e08901516101e084015287516040840152602088015160608401528281036080840152620012258188620010dd565b9150506200123e60a08301866001600160a01b03169052565b6001600160a01b03841660c08301526001600160a01b03831660e083015298975050505050505050565b6000602082840312156200127b57600080fd5b62000b6b8262000f7356fe6101006040526000608090815260a06200001c6001605a62000744565b8152601e60208083019190915260408051918201815260008252909101528051601f8054909190829060ff191660018360028111156200006057620000606200072e565b02179055506020828101516001830155604083015160028301556060830151805162000093926003850192019062000604565b5050604080516080810190915290508060018152602001620000b8600160b462000744565b815260326020808301919091526040805191820181526000825290910152805160238054909190829060ff19166001836002811115620000fc57620000fc6200072e565b0217905550602082810151600183015560408301516002830155606083015180516200012f926003850192019062000604565b505060408051608081019091529050806002815260200162000155600161016d62000744565b815260506020808301919091526040805191820181526000825290910152805160278054909190829060ff191660018360028111156200019957620001996200072e565b021790555060208281015160018301556040830151600283015560608301518051620001cc926003850192019062000604565b505050348015620001dc57600080fd5b506040516200494038038062004940833981016040819052620001ff91620009c8565b6020808701518051909182916200021d916000919084019062000604565b5080516200023390600190602084019062000604565b5050845180516200024c92506022916020019062000604565b5060208085015180516200026592602692019062000604565b50604084015180516200028191602a9160209091019062000604565b5060008052602b602052601f80547fe18c65fb8491ea105d3652ed62258476aaccd771ae89682addbba12f33acc62a8054909160ff1690829060ff19166001836002811115620002d557620002d56200072e565b021790555060018201548160010155600282015481600201556003820181600301908054620003049062000b64565b6200031192919062000693565b505060016000819052602b602052602380547ffcc3d43705633578a5e8f1b6d6f38d08eb8cb891174edcc94b1a54972a1aebbd80549294509260ff90911691839160ff19909116908360028111156200036e576200036e6200072e565b0217905550600182015481600101556002820154816002015560038201816003019080546200039d9062000b64565b620003aa92919062000693565b505060026000819052602b602052602780547fbd6c10e6ce287735500a1c033be76c57d5e632addc2ff6eff6bb587b8ee0d95c80549294509260ff90911691839160ff199091169060019084908111156200040957620004096200072e565b021790555060018201548160010155600282015481600201556003820181600301908054620004389062000b64565b6200044592919062000693565b5050865160138054899350909190829060ff191660018360028111156200047057620004706200072e565b021790555060208281015180516200048f926001850192019062000604565b5060408201518051620004ad91600284019160209091019062000604565b506060820151600382018054608085015160ff16600160a01b026001600160a81b03199091166001600160a01b039093169290921791909117905560a082015180516200050591600484019160209091019062000604565b5060c082015160058201805460ff191660018360028111156200052c576200052c6200072e565b021790555060e091909101516006909101558451601a55602080860151601b55845180518692601c9262000567928492919091019062000604565b50602082810151805162000582926001850192019062000604565b5060408201518051620005a091600284019160209091019062000604565b505050600c96909655600d8054306001600160a01b03199182161790915560209490940151600e556012805485166001600160a01b03978816179055600a8054851692871692909217909155600b805490931694169390931790555062000ba19050565b828054620006129062000b64565b90600052602060002090601f01602090048101928262000636576000855562000681565b82601f106200065157805160ff191683800117855562000681565b8280016001018555821562000681579182015b828111156200068157825182559160200191906001019062000664565b506200068f92915062000717565b5090565b828054620006a19062000b64565b90600052602060002090601f016020900481019282620006c5576000855562000681565b82601f10620006d8578054855562000681565b828001600101855582156200068157600052602060002091601f016020900482015b8281111562000681578254825591600101919060010190620006fa565b5b808211156200068f576000815560010162000718565b634e487b7160e01b600052602160045260246000fd5b60008160001904831182151516156200076d57634e487b7160e01b600052601160045260246000fd5b500290565b634e487b7160e01b600052604160045260246000fd5b60405161010081016001600160401b0381118282101715620007ae57620007ae62000772565b60405290565b604051601f8201601f191681016001600160401b0381118282101715620007df57620007df62000772565b604052919050565b805160038110620007f757600080fd5b919050565b600082601f8301126200080e57600080fd5b81516001600160401b038111156200082a576200082a62000772565b602062000840601f8301601f19168201620007b4565b82815285828487010111156200085557600080fd5b60005b838110156200087557858101830151828201840152820162000858565b83811115620008875760008385840101525b5095945050505050565b80516001600160a01b0381168114620007f757600080fd5b805160ff81168114620007f757600080fd5b600060408284031215620008ce57600080fd5b604080519081016001600160401b0381118282101715620008f357620008f362000772565b604052825181526020928301519281019290925250919050565b6000606082840312156200092057600080fd5b604051606081016001600160401b03808211838310171562000946576200094662000772565b8160405282935084519150808211156200095f57600080fd5b6200096d86838701620007fc565b835260208501519150808211156200098457600080fd5b6200099286838701620007fc565b60208401526040850151915080821115620009ac57600080fd5b50620009bb85828601620007fc565b6040830152505092915050565b600080600080600080600061010080898b031215620009e657600080fd5b885160208a01519098506001600160401b038082111562000a0657600080fd5b818b01915082828d03121562000a1b57600080fd5b62000a2562000788565b925062000a3282620007e7565b835260208201518181111562000a4757600080fd5b62000a558d828501620007fc565b60208501525060408201518181111562000a6e57600080fd5b62000a7c8d828501620007fc565b60408501525062000a906060830162000891565b606084015262000aa360808301620008a9565b608084015260a08201518181111562000abb57600080fd5b62000ac98d828501620007fc565b60a08501525062000add60c08301620007e7565b60c084015260e082015160e084015282985062000afe8c60408d01620008bb565b975060808b015192508083111562000b1557600080fd5b505062000b258a828b016200090d565b94505062000b3660a0890162000891565b925062000b4660c0890162000891565b915062000b5660e0890162000891565b905092959891949750929550565b600181811c9082168062000b7957607f821691505b6020821081141562000b9b57634e487b7160e01b600052602260045260246000fd5b50919050565b613d8f8062000bb16000396000f3fe6080604052600436106101b75760003560e01c8063608e4dd0116100ec578063a3a439311161008a578063c87b56dd11610064578063c87b56dd14610531578063d4f47e9314610551578063e7301f0e14610571578063e985e9c51461058657600080fd5b8063a3a439311461049b578063b09afec1146104e4578063b88d4fde1461051157600080fd5b806370a08231116100c657806370a0823114610426578063942cc3071461044657806395d89b4114610466578063a22cb4651461047b57600080fd5b8063608e4dd0146103d15780636352211e146103e457806367c897fe1461040457600080fd5b80631df025c611610159578063277c2d6811610133578063277c2d68146103515780632f745c591461037157806342842e0e146103915780634f6ccce7146103b157600080fd5b80631df025c6146102c657806320e0c51c1461030357806323b872dd1461033157600080fd5b8063095ea7b311610195578063095ea7b31461024b5780630a851b401461026d5780630c12252b1461029257806318160ddd146102a757600080fd5b806301ffc9a7146101bc57806306fdde03146101f1578063081812fc14610213575b600080fd5b3480156101c857600080fd5b506101dc6101d73660046133e4565b6105cf565b60405190151581526020015b60405180910390f35b3480156101fd57600080fd5b506102066105fa565b6040516101e89190613459565b34801561021f57600080fd5b5061023361022e36600461346c565b61068c565b6040516001600160a01b0390911681526020016101e8565b34801561025757600080fd5b5061026b61026636600461349a565b6106b3565b005b34801561027957600080fd5b506102826107ce565b6040516101e894939291906134ec565b34801561029e57600080fd5b50610282610873565b3480156102b357600080fd5b506008545b6040519081526020016101e8565b3480156102d257600080fd5b506102e66102e1366004613524565b610895565b6040805193845260ff9092166020840152908201526060016101e8565b34801561030f57600080fd5b5061032361031e366004613550565b610ac0565b6040516101e892919061372b565b34801561033d57600080fd5b5061026b61034c36600461379d565b610f47565b34801561035d57600080fd5b5061026b61036c3660046137de565b610f78565b34801561037d57600080fd5b506102b861038c36600461349a565b611626565b34801561039d57600080fd5b5061026b6103ac36600461379d565b6116bc565b3480156103bd57600080fd5b506102b86103cc36600461346c565b6116d7565b61026b6103df36600461346c565b61176a565b3480156103f057600080fd5b506102336103ff36600461346c565b611c37565b34801561041057600080fd5b50610419611c97565b6040516101e89190613863565b34801561043257600080fd5b506102b8610441366004613550565b61214d565b34801561045257600080fd5b50600b54610233906001600160a01b031681565b34801561047257600080fd5b506102066121d3565b34801561048757600080fd5b5061026b61049636600461391c565b6121e2565b3480156104a757600080fd5b506104bb6104b636600461346c565b6121f1565b6040516101e89493929190938452602084019290925260ff166040830152606082015260800190565b3480156104f057600080fd5b506105046104ff36600461346c565b612387565b6040516101e8919061394a565b34801561051d57600080fd5b5061026b61052c366004613973565b6124f0565b34801561053d57600080fd5b5061020661054c36600461346c565b612528565b34801561055d57600080fd5b50600a54610233906001600160a01b031681565b34801561057d57600080fd5b5061028261259c565b34801561059257600080fd5b506101dc6105a1366004613a53565b6001600160a01b03918216600090815260056020908152604080832093909416825291909152205460ff1690565b60006001600160e01b0319821663780e9d6360e01b14806105f457506105f4826125be565b92915050565b60606000805461060990613a81565b80601f016020809104026020016040519081016040528092919081815260200182805461063590613a81565b80156106825780601f1061065757610100808354040283529160200191610682565b820191906000526020600020905b81548152906001019060200180831161066557829003601f168201915b5050505050905090565b60006106978261260e565b506000908152600460205260409020546001600160a01b031690565b60006106be82611c37565b9050806001600160a01b0316836001600160a01b031614156107315760405162461bcd60e51b815260206004820152602160248201527f4552433732313a20617070726f76616c20746f2063757272656e74206f776e656044820152603960f91b60648201526084015b60405180910390fd5b336001600160a01b038216148061074d575061074d81336105a1565b6107bf5760405162461bcd60e51b815260206004820152603d60248201527f4552433732313a20617070726f76652063616c6c6572206973206e6f7420746f60448201527f6b656e206f776e6572206f7220617070726f76656420666f7220616c6c0000006064820152608401610728565b6107c98383612670565b505050565b602380546024546025546026805460ff9094169492939192916107f090613a81565b80601f016020809104026020016040519081016040528092919081815260200182805461081c90613a81565b80156108695780601f1061083e57610100808354040283529160200191610869565b820191906000526020600020905b81548152906001019060200180831161084c57829003601f168201915b5050505050905084565b601f80546020546021546022805460ff9094169492939192916107f090613a81565b60008080806108a48686613ad2565b905060006108b28742613ad2565b90506000826108c2836064613ae9565b6108cc9190613b08565b9050603281101561096557600b54604051633b6a8f1d60e01b8152600097508796506001600160a01b0390911690633b6a8f1d9061090e908890600401613b2a565b60206040518083038186803b15801561092657600080fd5b505afa15801561093a573d6000803e3d6000fd5b505050506040513d601f19601f8201168201806040525081019061095e9190613b44565b9350610ab4565b603281101580156109765750605081105b156109c757601e9450606461098b868b613ae9565b6109959190613b08565b600b54604051633b6a8f1d60e01b81529197506001600160a01b031690633b6a8f1d9061090e90600190600401613b2a565b605081101580156109d85750606481105b15610a29576032945060646109ed8a87613ae9565b6109f79190613b08565b600b54604051633b6a8f1d60e01b81529197506001600160a01b031690633b6a8f1d9061090e90600290600401613b2a565b600b54604051633b6a8f1d60e01b81528a9750606496506001600160a01b0390911690633b6a8f1d90610a6190600390600401613b2a565b60206040518083038186803b158015610a7957600080fd5b505afa158015610a8d573d6000803e3d6000fd5b505050506040513d601f19601f82011682018060405250810190610ab19190613b44565b93505b50505093509350939050565b610ac8613176565b60606000610ad58461214d565b905060008167ffffffffffffffff811115610af257610af261395d565b604051908082528060200260200182016040528015610b2b57816020015b610b186131d9565b815260200190600190039081610b105790505b50905060005b82811015610cde576000610b458783611626565b6000818152602c6020908152604080832081516101e08101835281546001600160a01b039081168252600183015494820194909452600282015492810192909252600381015483166060830152600481015483166080830152600581015490921660a0820152600682015460c08201526007820180549495509293909260e0840191610bd090613a81565b80601f0160208091040260200160405190810160405280929190818152602001828054610bfc90613a81565b8015610c495780601f10610c1e57610100808354040283529160200191610c49565b820191906000526020600020905b815481529060010190602001808311610c2c57829003601f168201915b5050509183525050600882015460ff908116602083015260098301546040830152600a8301546060830152600b8301546080830152600c8301548116151560a0830152600d83015460c0830152600e9092015490911660e09091015284519091508190859085908110610cbe57610cbe613b5d565b602002602001018190525050508080610cd690613b73565b915050610b31565b5060408051610100810190915260138054909183918390829060ff166002811115610d0b57610d0b6134c6565b6002811115610d1c57610d1c6134c6565b8152602001600182018054610d3090613a81565b80601f0160208091040260200160405190810160405280929190818152602001828054610d5c90613a81565b8015610da95780601f10610d7e57610100808354040283529160200191610da9565b820191906000526020600020905b815481529060010190602001808311610d8c57829003601f168201915b50505050508152602001600282018054610dc290613a81565b80601f0160208091040260200160405190810160405280929190818152602001828054610dee90613a81565b8015610e3b5780601f10610e1057610100808354040283529160200191610e3b565b820191906000526020600020905b815481529060010190602001808311610e1e57829003601f168201915b505050918352505060038201546001600160a01b0381166020830152600160a01b900460ff166040820152600482018054606090920191610e7b90613a81565b80601f0160208091040260200160405190810160405280929190818152602001828054610ea790613a81565b8015610ef45780601f10610ec957610100808354040283529160200191610ef4565b820191906000526020600020905b815481529060010190602001808311610ed757829003601f168201915b5050509183525050600582015460209091019060ff166002811115610f1b57610f1b6134c6565b6002811115610f2c57610f2c6134c6565b81526020016006820154815250509150935093505050915091565b610f5133826126de565b610f6d5760405162461bcd60e51b815260040161072890613b8e565b6107c983838361275d565b601a54421015610f9b57604051638f2d4c2d60e01b815260040160405180910390fd5b6000602b6000836002811115610fb357610fb36134c6565b6002811115610fc457610fc46134c6565b8152602081019190915260409081016000208151608081019092528054829060ff166002811115610ff757610ff76134c6565b6002811115611008576110086134c6565b8152602001600182015481526020016002820154815260200160038201805461103090613a81565b80601f016020809104026020016040519081016040528092919081815260200182805461105c90613a81565b80156110a95780601f1061107e576101008083540402835291602001916110a9565b820191906000526020600020905b81548152906001019060200180831161108c57829003601f168201915b5050505050815250509050600060648260400151856110c89190613ae9565b6110d29190613b08565b905080600c6002015410156110fa576040516348eb126760e11b815260040160405180910390fd5b600a5460405163677755bb60e01b81523360048201526000916001600160a01b03169063677755bb9060240160206040518083038186803b15801561113e57600080fd5b505afa158015611152573d6000803e3d6000fd5b505050506040513d601f19601f820116820180604052508101906111769190613bdb565b90506001600160a01b03811661120657600a546040516331b77b8960e21b81523360048201526001600160a01b039091169063c6ddee2490602401602060405180830381600087803b1580156111cb57600080fd5b505af11580156111df573d6000803e3d6000fd5b505050506040513d601f19601f820116820180604052508101906112039190613bdb565b90505b6011805490600061121683613b73565b91905055506000602b6000866002811115611233576112336134c6565b6002811115611244576112446134c6565b8152602001908152602001600020600301805461126090613a81565b80601f016020809104026020016040519081016040528092919081815260200182805461128c90613a81565b80156112d95780601f106112ae576101008083540402835291602001916112d9565b820191906000526020600020905b8154815290600101906020018083116112bc57829003601f168201915b5050604080516101e081018252308152600c5460208201529081018b90526016546001600160a01b039081166060830152336080830152871660a082015260115460c082015260e0810185905293945050610100830191508790506002811115611345576113456134c6565b60ff1681526020014281526020018560200151426113639190613bf8565b8152602080820186905260006040808401829052606080850183905260809485018390526011548352602c845291819020855181546001600160a01b039182166001600160a01b0319918216178355878601516001840155928701516002830155928601516003820180549185169184169190911790559385015160048501805491841691831691909117905560a085015160058501805491909316911617905560c0830151600683015560e08301518051611425926007850192019061327b565b5061010082015160088201805460ff1990811660ff938416179091556101208401516009840155610140840151600a840155610160840151600b840155610180840151600c8401805483169115159190911790556101a0840151600d8401556101c090930151600e909201805490931691161790556016546040516323b872dd60e01b81523360048201526001600160a01b03848116602483015260448201899052909116906323b872dd90606401602060405180830381600087803b1580156114ee57600080fd5b505af1158015611502573d6000803e3d6000fd5b505050506040513d601f19601f820116820180604052508101906115269190613c10565b5082600c600201600082825461153c9190613ad2565b9091555050600f8054879190600090611556908490613bf8565b90915550506010805490600061156b83613b73565b90915550506011546040516bffffffffffffffffffffffff193060601b1660208201526115ab9184916034016040516020818303038152906040526128ce565b600c546011547fbbd184b832a658705e19e15121bf8abb81df8e6c59469af906e22fdf841bbffa919033898960028111156115e8576115e86134c6565b6040805195865260208601949094526001600160a01b039290921684840152606084015260ff166080830152519081900360a00190a1505050505050565b60006116318361214d565b82106116935760405162461bcd60e51b815260206004820152602b60248201527f455243373231456e756d657261626c653a206f776e657220696e646578206f7560448201526a74206f6620626f756e647360a81b6064820152608401610728565b506001600160a01b03919091166000908152600660209081526040808320938352929052205490565b6107c9838383604051806020016040528060008152506124f0565b60006116e260085490565b82106117455760405162461bcd60e51b815260206004820152602c60248201527f455243373231456e756d657261626c653a20676c6f62616c20696e646578206f60448201526b7574206f6620626f756e647360a01b6064820152608401610728565b6008828154811061175857611758613b5d565b90600052602060002001549050919050565b6000818152602c6020908152604080832081516101e08101835281546001600160a01b039081168252600183015494820194909452600282015492810192909252600381015483166060830152600481015483166080830152600581015490921660a0820152600682015460c082015260078201805491929160e0840191906117f290613a81565b80601f016020809104026020016040519081016040528092919081815260200182805461181e90613a81565b801561186b5780601f106118405761010080835404028352916020019161186b565b820191906000526020600020905b81548152906001019060200180831161184e57829003601f168201915b5050509183525050600882015460ff908116602083015260098301546040830152600a8301546060830152600b830154608080840191909152600c8401548216151560a0840152600d84015460c0840152600e909301541660e0909101528101519091506001600160a01b031633146118f757604051636ff49be560e01b815260040160405180910390fd5b61016081015161191a57604051630638c18f60e51b815260040160405180910390fd5b8061018001511561193e57604051636dc6682d60e01b815260040160405180910390fd5b6000828152602c60205260408120600c01805460ff191660011790556101608201516101208301516101408401518392839261197992610895565b6000888152602c60205260408120600d8101859055600e01805460ff191660ff85161790556101608801519396509194509250906119b8908590613ad2565b905080600c60020160008282546119cf9190613bf8565b9091555050348211156119f557604051631cf2628760e31b815260040160405180910390fd5b600b546040516000916001600160a01b03169034908381818185875af1925050503d8060008114611a42576040519150601f19603f3d011682016040523d82523d6000602084013e611a47565b606091505b5050905080611a6957604051635b77072160e11b815260040160405180910390fd5b600a5460405163677755bb60e01b81523360048201526000916001600160a01b03169063677755bb9060240160206040518083038186803b158015611aad57600080fd5b505afa158015611ac1573d6000803e3d6000fd5b505050506040513d601f19601f82011682018060405250810190611ae59190613bdb565b6040516357fecd5d60e11b8152306004820152602481018a90529091506001600160a01b0382169063affd9aba90604401600060405180830381600087803b158015611b3057600080fd5b505af1158015611b44573d6000803e3d6000fd5b505060165460808a015160405163a9059cbb60e01b81526001600160a01b039182166004820152602481018b90529116925063a9059cbb9150604401602060405180830381600087803b158015611b9a57600080fd5b505af1158015611bae573d6000803e3d6000fd5b505050506040513d601f19601f82011682018060405250810190611bd29190613c10565b50600c546040808901516101008a015182519384523360208501529183015260ff166060820152608081018790527f8958f0c58afef19b6642cac81ae35a14e955e85b5d55cdc65c7d502eb592fe0d9060a00160405180910390a15050505050505050565b6000818152600260205260408120546001600160a01b0316806105f45760405162461bcd60e51b8152602060048201526018602482015277115490cdcc8c4e881a5b9d985b1a59081d1bdad95b88125160421b6044820152606401610728565b611c9f6132ff565b6040805161016081018252600c5460808201908152600d546001600160a01b0390811660a0840152600e5460c0840152600f5460e08401526010546101008085019190915260115461012085015260125490911661014084015290825282519081019092526013805491926020840192909190829060ff166002811115611d2857611d286134c6565b6002811115611d3957611d396134c6565b8152602001600182018054611d4d90613a81565b80601f0160208091040260200160405190810160405280929190818152602001828054611d7990613a81565b8015611dc65780601f10611d9b57610100808354040283529160200191611dc6565b820191906000526020600020905b815481529060010190602001808311611da957829003601f168201915b50505050508152602001600282018054611ddf90613a81565b80601f0160208091040260200160405190810160405280929190818152602001828054611e0b90613a81565b8015611e585780601f10611e2d57610100808354040283529160200191611e58565b820191906000526020600020905b815481529060010190602001808311611e3b57829003601f168201915b505050918352505060038201546001600160a01b0381166020830152600160a01b900460ff166040820152600482018054606090920191611e9890613a81565b80601f0160208091040260200160405190810160405280929190818152602001828054611ec490613a81565b8015611f115780601f10611ee657610100808354040283529160200191611f11565b820191906000526020600020905b815481529060010190602001808311611ef457829003601f168201915b5050509183525050600582015460209091019060ff166002811115611f3857611f386134c6565b6002811115611f4957611f496134c6565b81526020016006820154815250508152602001601a604051806040016040529081600082015481526020016001820154815250508152602001601c604051806060016040529081600082018054611f9f90613a81565b80601f0160208091040260200160405190810160405280929190818152602001828054611fcb90613a81565b80156120185780601f10611fed57610100808354040283529160200191612018565b820191906000526020600020905b815481529060010190602001808311611ffb57829003601f168201915b5050505050815260200160018201805461203190613a81565b80601f016020809104026020016040519081016040528092919081815260200182805461205d90613a81565b80156120aa5780601f1061207f576101008083540402835291602001916120aa565b820191906000526020600020905b81548152906001019060200180831161208d57829003601f168201915b505050505081526020016002820180546120c390613a81565b80601f01602080910402602001604051908101604052809291908181526020018280546120ef90613a81565b801561213c5780601f106121115761010080835404028352916020019161213c565b820191906000526020600020905b81548152906001019060200180831161211f57829003601f168201915b505050505081525050815250905090565b60006001600160a01b0382166121b75760405162461bcd60e51b815260206004820152602960248201527f4552433732313a2061646472657373207a65726f206973206e6f7420612076616044820152683634b21037bbb732b960b91b6064820152608401610728565b506001600160a01b031660009081526003602052604090205490565b60606001805461060990613a81565b6121ed338383612901565b5050565b6000818152602c6020908152604080832081516101e08101835281546001600160a01b039081168252600183015494820194909452600282015492810192909252600381015483166060830152600481015483166080830152600581015490921660a0820152600682015460c0820152600782018054849384938493849391929160e08401919061228190613a81565b80601f01602080910402602001604051908101604052809291908181526020018280546122ad90613a81565b80156122fa5780601f106122cf576101008083540402835291602001916122fa565b820191906000526020600020905b8154815290600101906020018083116122dd57829003601f168201915b5050509183525050600882015460ff908116602083015260098301546040830152600a8301546060830152600b8301546080830152600c8301548116151560a0830152600d83015460c0830152600e9092015490911660e090910152610160810151610120820151610140830151919750919250612379918791610895565b969891975095945092505050565b61238f6131d9565b6000828152602c602090815260409182902082516101e08101845281546001600160a01b039081168252600183015493820193909352600282015493810193909352600381015482166060840152600481015482166080840152600581015490911660a0830152600681015460c083015260078101805460e08401919061241590613a81565b80601f016020809104026020016040519081016040528092919081815260200182805461244190613a81565b801561248e5780601f106124635761010080835404028352916020019161248e565b820191906000526020600020905b81548152906001019060200180831161247157829003601f168201915b5050509183525050600882015460ff908116602083015260098301546040830152600a8301546060830152600b8301546080830152600c8301548116151560a0830152600d83015460c0830152600e9092015490911660e09091015292915050565b6124fa33836126de565b6125165760405162461bcd60e51b815260040161072890613b8e565b612522848484846129d0565b50505050565b60606125338261260e565b600061254a60408051602081019091526000815290565b9050600081511161256a5760405180602001604052806000815250612595565b8061257484612a03565b604051602001612585929190613c2d565b6040516020818303038152906040525b9392505050565b60278054602854602954602a805460ff9094169492939192916107f090613a81565b60006001600160e01b031982166380ac58cd60e01b14806125ef57506001600160e01b03198216635b5e139f60e01b145b806105f457506301ffc9a760e01b6001600160e01b03198316146105f4565b6000818152600260205260409020546001600160a01b031661266d5760405162461bcd60e51b8152602060048201526018602482015277115490cdcc8c4e881a5b9d985b1a59081d1bdad95b88125160421b6044820152606401610728565b50565b600081815260046020526040902080546001600160a01b0319166001600160a01b03841690811790915581906126a582611c37565b6001600160a01b03167f8c5be1e5ebec7d5bd14f71427d1e84f3dd0314c0f7b2291e5b200ac8c7c3b92560405160405180910390a45050565b6000806126ea83611c37565b9050806001600160a01b0316846001600160a01b0316148061273157506001600160a01b0380821660009081526005602090815260408083209388168352929052205460ff165b806127555750836001600160a01b031661274a8461068c565b6001600160a01b0316145b949350505050565b826001600160a01b031661277082611c37565b6001600160a01b0316146127965760405162461bcd60e51b815260040161072890613c5c565b6001600160a01b0382166127f85760405162461bcd60e51b8152602060048201526024808201527f4552433732313a207472616e7366657220746f20746865207a65726f206164646044820152637265737360e01b6064820152608401610728565b6128058383836001612aa0565b826001600160a01b031661281882611c37565b6001600160a01b03161461283e5760405162461bcd60e51b815260040161072890613c5c565b600081815260046020908152604080832080546001600160a01b03199081169091556001600160a01b0387811680865260038552838620805460001901905590871680865283862080546001019055868652600290945282852080549092168417909155905184937fddf252ad1be2c89b69c2b068fc378daa952ba7f163c4a11628f55a4df523b3ef91a4505050565b6128d88383612be0565b6128e56000848484612d79565b6107c95760405162461bcd60e51b815260040161072890613ca1565b816001600160a01b0316836001600160a01b031614156129635760405162461bcd60e51b815260206004820152601960248201527f4552433732313a20617070726f766520746f2063616c6c6572000000000000006044820152606401610728565b6001600160a01b03838116600081815260056020908152604080832094871680845294825291829020805460ff191686151590811790915591519182527f17307eab39ab6107e8899845ad3d59bd9653f200f220920489ca2b5937696c31910160405180910390a3505050565b6129db84848461275d565b6129e784848484612d79565b6125225760405162461bcd60e51b815260040161072890613ca1565b60606000612a1083612e86565b600101905060008167ffffffffffffffff811115612a3057612a3061395d565b6040519080825280601f01601f191660200182016040528015612a5a576020820181803683370190505b5090508181016020015b600019016f181899199a1a9b1b9c1cb0b131b232b360811b600a86061a8153600a8504945084612a9357612a98565b612a64565b509392505050565b612aac84848484612f5e565b6001811115612b1b5760405162461bcd60e51b815260206004820152603560248201527f455243373231456e756d657261626c653a20636f6e7365637574697665207472604482015274185b9cd9995c9cc81b9bdd081cdd5c1c1bdc9d1959605a1b6064820152608401610728565b816001600160a01b038516612b7757612b7281600880546000838152600960205260408120829055600182018355919091527ff3f7a9fe364faab93b216da50a3214154f22a0a2b415b23a84c8169e8b636ee30155565b612b9a565b836001600160a01b0316856001600160a01b031614612b9a57612b9a8582612fe6565b6001600160a01b038416612bb657612bb181613083565b612bd9565b846001600160a01b0316846001600160a01b031614612bd957612bd98482613132565b5050505050565b6001600160a01b038216612c365760405162461bcd60e51b815260206004820181905260248201527f4552433732313a206d696e7420746f20746865207a65726f20616464726573736044820152606401610728565b6000818152600260205260409020546001600160a01b031615612c9b5760405162461bcd60e51b815260206004820152601c60248201527f4552433732313a20746f6b656e20616c7265616479206d696e746564000000006044820152606401610728565b612ca9600083836001612aa0565b6000818152600260205260409020546001600160a01b031615612d0e5760405162461bcd60e51b815260206004820152601c60248201527f4552433732313a20746f6b656e20616c7265616479206d696e746564000000006044820152606401610728565b6001600160a01b038216600081815260036020908152604080832080546001019055848352600290915280822080546001600160a01b0319168417905551839291907fddf252ad1be2c89b69c2b068fc378daa952ba7f163c4a11628f55a4df523b3ef908290a45050565b60006001600160a01b0384163b15612e7b57604051630a85bd0160e11b81526001600160a01b0385169063150b7a0290612dbd903390899088908890600401613cf3565b602060405180830381600087803b158015612dd757600080fd5b505af1925050508015612e07575060408051601f3d908101601f19168201909252612e0491810190613d26565b60015b612e61573d808015612e35576040519150601f19603f3d011682016040523d82523d6000602084013e612e3a565b606091505b508051612e595760405162461bcd60e51b815260040161072890613ca1565b805181602001fd5b6001600160e01b031916630a85bd0160e11b149050612755565b506001949350505050565b60008072184f03e93ff9f4daa797ed6e38ed64bf6a1f0160401b8310612ec55772184f03e93ff9f4daa797ed6e38ed64bf6a1f0160401b830492506040015b6d04ee2d6d415b85acef81000000008310612ef1576d04ee2d6d415b85acef8100000000830492506020015b662386f26fc100008310612f0f57662386f26fc10000830492506010015b6305f5e1008310612f27576305f5e100830492506008015b6127108310612f3b57612710830492506004015b60648310612f4d576064830492506002015b600a83106105f45760010192915050565b6001811115612522576001600160a01b03841615612fa4576001600160a01b03841660009081526003602052604081208054839290612f9e908490613ad2565b90915550505b6001600160a01b03831615612522576001600160a01b03831660009081526003602052604081208054839290612fdb908490613bf8565b909155505050505050565b60006001612ff38461214d565b612ffd9190613ad2565b600083815260076020526040902054909150808214613050576001600160a01b03841660009081526006602090815260408083208584528252808320548484528184208190558352600790915290208190555b5060009182526007602090815260408084208490556001600160a01b039094168352600681528383209183525290812055565b60085460009061309590600190613ad2565b600083815260096020526040812054600880549394509092849081106130bd576130bd613b5d565b9060005260206000200154905080600883815481106130de576130de613b5d565b600091825260208083209091019290925582815260099091526040808220849055858252812055600880548061311657613116613d43565b6001900381819060005260206000200160009055905550505050565b600061313d8361214d565b6001600160a01b039093166000908152600660209081526040808320868452825280832085905593825260079052919091209190915550565b6040805161010081019091528060008152602001606081526020016060815260200160006001600160a01b03168152602001600060ff16815260200160608152602001600060028111156131cc576131cc6134c6565b8152602001600081525090565b604051806101e0016040528060006001600160a01b03168152602001600081526020016000815260200160006001600160a01b0316815260200160006001600160a01b0316815260200160006001600160a01b031681526020016000815260200160608152602001600060ff16815260200160008152602001600081526020016000815260200160001515815260200160008152602001600060ff1681525090565b82805461328790613a81565b90600052602060002090601f0160209004810192826132a957600085556132ef565b82601f106132c257805160ff19168380011785556132ef565b828001600101855582156132ef579182015b828111156132ef5782518255916020019190600101906132d4565b506132fb9291506133b9565b5090565b604051806080016040528061335c6040518060e001604052806000815260200160006001600160a01b031681526020016000815260200160008152602001600081526020016000815260200160006001600160a01b031681525090565b8152602001613369613176565b815260200161338b604051806040016040528060008152602001600081525090565b81526020016133b460405180606001604052806060815260200160608152602001606081525090565b905290565b5b808211156132fb57600081556001016133ba565b6001600160e01b03198116811461266d57600080fd5b6000602082840312156133f657600080fd5b8135612595816133ce565b60005b8381101561341c578181015183820152602001613404565b838111156125225750506000910152565b60008151808452613445816020860160208601613401565b601f01601f19169290920160200192915050565b602081526000612595602083018461342d565b60006020828403121561347e57600080fd5b5035919050565b6001600160a01b038116811461266d57600080fd5b600080604083850312156134ad57600080fd5b82356134b881613485565b946020939093013593505050565b634e487b7160e01b600052602160045260246000fd5b6003811061266d5761266d6134c6565b6134f5856134dc565b84815283602082015282604082015260806060820152600061351a608083018461342d565b9695505050505050565b60008060006060848603121561353957600080fd5b505081359360208301359350604090920135919050565b60006020828403121561356257600080fd5b813561259581613485565b613576816134dc565b9052565b6000610100825161358a816134dc565b8085525060208301518160208601526135a58286018261342d565b915050604083015184820360408601526135bf828261342d565b91505060018060a01b03606084015116606085015260808301516135e8608086018260ff169052565b5060a083015184820360a0860152613600828261342d565b91505060c083015161361560c086018261356d565b5060e083015160e08501528091505092915050565b80516001600160a01b0316825260006101e06020830151602085015260408301516040850152606083015161366a60608601826001600160a01b03169052565b50608083015161368560808601826001600160a01b03169052565b5060a08301516136a060a08601826001600160a01b03169052565b5060c083015160c085015260e08301518160e08601526136c28286018261342d565b915050610100808401516136da8287018260ff169052565b5050610120838101519085015261014080840151908501526101608084015190850152610180808401511515908501526101a080840151908501526101c09283015160ff1692909301919091525090565b60408152600061373e604083018561357a565b6020838203818501528185518084528284019150828160051b85010183880160005b8381101561378e57601f1987840301855261377c83835161362a565b94860194925090850190600101613760565b50909998505050505050505050565b6000806000606084860312156137b257600080fd5b83356137bd81613485565b925060208401356137cd81613485565b929592945050506040919091013590565b600080604083850312156137f157600080fd5b8235915060208301356003811061380757600080fd5b809150509250929050565b6000815160608452613827606085018261342d565b905060208301518482036020860152613840828261342d565b9150506040830151848203604086015261385a828261342d565b95945050505050565b602081526000825180516020840152602081015160018060a01b0380821660408601526040830151606086015260608301516080860152608083015160a086015260a083015160c08601528060c08401511660e08601525050506020830151610160806101008501526138da61018085018361357a565b60408601518051610120870152602001516101408601526060860151858203601f19018387015290925061351a8382613812565b801515811461266d57600080fd5b6000806040838503121561392f57600080fd5b823561393a81613485565b915060208301356138078161390e565b602081526000612595602083018461362a565b634e487b7160e01b600052604160045260246000fd5b6000806000806080858703121561398957600080fd5b843561399481613485565b935060208501356139a481613485565b925060408501359150606085013567ffffffffffffffff808211156139c857600080fd5b818701915087601f8301126139dc57600080fd5b8135818111156139ee576139ee61395d565b604051601f8201601f19908116603f01168101908382118183101715613a1657613a1661395d565b816040528281528a6020848701011115613a2f57600080fd5b82602086016020830137600060208483010152809550505050505092959194509250565b60008060408385031215613a6657600080fd5b8235613a7181613485565b9150602083013561380781613485565b600181811c90821680613a9557607f821691505b60208210811415613ab657634e487b7160e01b600052602260045260246000fd5b50919050565b634e487b7160e01b600052601160045260246000fd5b600082821015613ae457613ae4613abc565b500390565b6000816000190483118215151615613b0357613b03613abc565b500290565b600082613b2557634e487b7160e01b600052601260045260246000fd5b500490565b6020810160048310613b3e57613b3e6134c6565b91905290565b600060208284031215613b5657600080fd5b5051919050565b634e487b7160e01b600052603260045260246000fd5b6000600019821415613b8757613b87613abc565b5060010190565b6020808252602d908201527f4552433732313a2063616c6c6572206973206e6f7420746f6b656e206f776e6560408201526c1c881bdc88185c1c1c9bdd9959609a1b606082015260800190565b600060208284031215613bed57600080fd5b815161259581613485565b60008219821115613c0b57613c0b613abc565b500190565b600060208284031215613c2257600080fd5b81516125958161390e565b60008351613c3f818460208801613401565b835190830190613c53818360208801613401565b01949350505050565b60208082526025908201527f4552433732313a207472616e736665722066726f6d20696e636f72726563742060408201526437bbb732b960d91b606082015260800190565b60208082526032908201527f4552433732313a207472616e7366657220746f206e6f6e20455243373231526560408201527131b2b4bb32b91034b6b83632b6b2b73a32b960711b606082015260800190565b6001600160a01b038581168252841660208201526040810183905260806060820181905260009061351a9083018461342d565b600060208284031215613d3857600080fd5b8151612595816133ce565b634e487b7160e01b600052603160045260246000fdfea264697066735822122001691b08364f6e1d905c5d209dd5f514f6ed2d7f3fdd310013c6d579611493ab64736f6c63430008090033a26469706673582212200dbfe57bc17a0a5676a2d2135fefec6402074465ca771b04503253cf784a748264736f6c63430008090033",
  "devdoc": {
    "kind": "dev",
    "methods": {
      "owner()": {
        "details": "Returns the address of the current owner."
      },
      "renounceOwnership()": {
        "details": "Leaves the contract without owner. It will not be possible to call `onlyOwner` functions anymore. Can only be called by the current owner. NOTE: Renouncing ownership will leave the contract without an owner, thereby removing any functionality that is only available to the owner."
      },
      "transferOwnership(address)": {
        "details": "Transfers ownership of the contract to a new account (`newOwner`). Can only be called by the current owner."
      }
    },
    "version": 1
  },
  "userdoc": {
    "kind": "user",
    "methods": {},
    "version": 1
  },
  "storageLayout": {
    "storage": [
      {
        "astId": 53,
        "contract": "contracts/StakingContract/StakingPoolFactory.sol:StakingPoolFactory",
        "label": "_owner",
        "offset": 0,
        "slot": "0",
        "type": "t_address"
      },
      {
        "astId": 9247,
        "contract": "contracts/StakingContract/StakingPoolFactory.sol:StakingPoolFactory",
        "label": "campaignFeeManager",
        "offset": 0,
        "slot": "1",
        "type": "t_address_payable"
      },
      {
        "astId": 9249,
        "contract": "contracts/StakingContract/StakingPoolFactory.sol:StakingPoolFactory",
        "label": "pmMembership",
        "offset": 0,
        "slot": "2",
        "type": "t_address"
      },
      {
        "astId": 9251,
        "contract": "contracts/StakingContract/StakingPoolFactory.sol:StakingPoolFactory",
        "label": "pmTeamManager",
        "offset": 0,
        "slot": "3",
        "type": "t_address"
      },
      {
        "astId": 9253,
        "contract": "contracts/StakingContract/StakingPoolFactory.sol:StakingPoolFactory",
        "label": "creatorManager",
        "offset": 0,
        "slot": "4",
        "type": "t_address"
      },
      {
        "astId": 9255,
        "contract": "contracts/StakingContract/StakingPoolFactory.sol:StakingPoolFactory",
        "label": "projectsCount",
        "offset": 0,
        "slot": "5",
        "type": "t_uint256"
      },
      {
        "astId": 9260,
        "contract": "contracts/StakingContract/StakingPoolFactory.sol:StakingPoolFactory",
        "label": "poolsOfAUser",
        "offset": 0,
        "slot": "6",
        "type": "t_mapping(t_address,t_array(t_uint256)dyn_storage)"
      },
      {
        "astId": 9265,
        "contract": "contracts/StakingContract/StakingPoolFactory.sol:StakingPoolFactory",
        "label": "poolsOfATeam",
        "offset": 0,
        "slot": "7",
        "type": "t_mapping(t_uint256,t_array(t_uint256)dyn_storage)"
      },
      {
        "astId": 9270,
        "contract": "contracts/StakingContract/StakingPoolFactory.sol:StakingPoolFactory",
        "label": "stakingPoolsByToken",
        "offset": 0,
        "slot": "8",
        "type": "t_mapping(t_address,t_array(t_address)dyn_storage)"
      },
      {
        "astId": 9274,
        "contract": "contracts/StakingContract/StakingPoolFactory.sol:StakingPoolFactory",
        "label": "stakingPoolByID",
        "offset": 0,
        "slot": "9",
        "type": "t_mapping(t_uint256,t_address)"
      }
    ],
    "types": {
      "t_address": {
        "encoding": "inplace",
        "label": "address",
        "numberOfBytes": "20"
      },
      "t_address_payable": {
        "encoding": "inplace",
        "label": "address payable",
        "numberOfBytes": "20"
      },
      "t_array(t_address)dyn_storage": {
        "base": "t_address",
        "encoding": "dynamic_array",
        "label": "address[]",
        "numberOfBytes": "32"
      },
      "t_array(t_uint256)dyn_storage": {
        "base": "t_uint256",
        "encoding": "dynamic_array",
        "label": "uint256[]",
        "numberOfBytes": "32"
      },
      "t_mapping(t_address,t_array(t_address)dyn_storage)": {
        "encoding": "mapping",
        "key": "t_address",
        "label": "mapping(address => address[])",
        "numberOfBytes": "32",
        "value": "t_array(t_address)dyn_storage"
      },
      "t_mapping(t_address,t_array(t_uint256)dyn_storage)": {
        "encoding": "mapping",
        "key": "t_address",
        "label": "mapping(address => uint256[])",
        "numberOfBytes": "32",
        "value": "t_array(t_uint256)dyn_storage"
      },
      "t_mapping(t_uint256,t_address)": {
        "encoding": "mapping",
        "key": "t_uint256",
        "label": "mapping(uint256 => address)",
        "numberOfBytes": "32",
        "value": "t_address"
      },
      "t_mapping(t_uint256,t_array(t_uint256)dyn_storage)": {
        "encoding": "mapping",
        "key": "t_uint256",
        "label": "mapping(uint256 => uint256[])",
        "numberOfBytes": "32",
        "value": "t_array(t_uint256)dyn_storage"
      },
      "t_uint256": {
        "encoding": "inplace",
        "label": "uint256",
        "numberOfBytes": "32"
      }
    }
  }
}