{
  "address": "0xF67F00E32507B9201d44c9d5a3540768EbC2104f",
  "abi": [
    {
      "inputs": [
        {
          "internalType": "uint256",
          "name": "silver",
          "type": "uint256"
        },
        {
          "internalType": "uint256",
          "name": "gold",
          "type": "uint256"
        },
        {
          "internalType": "uint256",
          "name": "diamond",
          "type": "uint256"
        },
        {
          "internalType": "uint256",
          "name": "reward_0pc",
          "type": "uint256"
        },
        {
          "internalType": "uint256",
          "name": "reward_30pc",
          "type": "uint256"
        },
        {
          "internalType": "uint256",
          "name": "reward_50pc",
          "type": "uint256"
        },
        {
          "internalType": "uint256",
          "name": "reward_100pc",
          "type": "uint256"
        }
      ],
      "stateMutability": "nonpayable",
      "type": "constructor"
    },
    {
      "anonymous": false,
      "inputs": [
        {
          "indexed": true,
          "internalType": "address",
          "name": "previousOwner",
          "type": "address"
        },
        {
          "indexed": true,
          "internalType": "address",
          "name": "newOwner",
          "type": "address"
        }
      ],
      "name": "OwnershipTransferred",
      "type": "event"
    },
    {
      "anonymous": false,
      "inputs": [
        {
          "indexed": false,
          "internalType": "address",
          "name": "",
          "type": "address"
        },
        {
          "indexed": false,
          "internalType": "uint256",
          "name": "",
          "type": "uint256"
        }
      ],
      "name": "Received",
      "type": "event"
    },
    {
      "inputs": [],
      "name": "SplitFunds",
      "outputs": [],
      "stateMutability": "nonpayable",
      "type": "function"
    },
    {
      "inputs": [],
      "name": "emergencyWithdraw",
      "outputs": [],
      "stateMutability": "nonpayable",
      "type": "function"
    },
    {
      "inputs": [
        {
          "internalType": "enum PMLibrary.FeesType",
          "name": "feeType",
          "type": "uint8"
        }
      ],
      "name": "getAllCampaignFees",
      "outputs": [
        {
          "internalType": "uint256",
          "name": "silver",
          "type": "uint256"
        },
        {
          "internalType": "uint256",
          "name": "gold",
          "type": "uint256"
        },
        {
          "internalType": "uint256",
          "name": "diamond",
          "type": "uint256"
        }
      ],
      "stateMutability": "view",
      "type": "function"
    },
    {
      "inputs": [
        {
          "internalType": "enum PMLibrary.FeesType",
          "name": "feeType",
          "type": "uint8"
        }
      ],
      "name": "getAllClaimFees",
      "outputs": [
        {
          "internalType": "uint256",
          "name": "reward_0pc",
          "type": "uint256"
        },
        {
          "internalType": "uint256",
          "name": "reward_30pc",
          "type": "uint256"
        },
        {
          "internalType": "uint256",
          "name": "reward_50pc",
          "type": "uint256"
        },
        {
          "internalType": "uint256",
          "name": "reward_100pc",
          "type": "uint256"
        }
      ],
      "stateMutability": "view",
      "type": "function"
    },
    {
      "inputs": [
        {
          "internalType": "enum PMLibrary.CampaignCategories",
          "name": "category",
          "type": "uint8"
        }
      ],
      "name": "getCampaignFee",
      "outputs": [
        {
          "internalType": "uint256",
          "name": "",
          "type": "uint256"
        }
      ],
      "stateMutability": "view",
      "type": "function"
    },
    {
      "inputs": [
        {
          "internalType": "enum PMLibrary.ClaimCategories",
          "name": "category",
          "type": "uint8"
        }
      ],
      "name": "getClaimFee",
      "outputs": [
        {
          "internalType": "uint256",
          "name": "",
          "type": "uint256"
        }
      ],
      "stateMutability": "view",
      "type": "function"
    },
    {
      "inputs": [],
      "name": "getDistributionShares",
      "outputs": [
        {
          "internalType": "uint8",
          "name": "buyBackAndburn",
          "type": "uint8"
        },
        {
          "internalType": "uint8",
          "name": "rewardPool",
          "type": "uint8"
        },
        {
          "internalType": "uint8",
          "name": "corporate",
          "type": "uint8"
        }
      ],
      "stateMutability": "view",
      "type": "function"
    },
    {
      "inputs": [],
      "name": "getDistributionWallets",
      "outputs": [
        {
          "internalType": "address",
          "name": "rewardPool",
          "type": "address"
        },
        {
          "internalType": "address",
          "name": "corporate",
          "type": "address"
        },
        {
          "internalType": "address",
          "name": "buyBackAndburnToken",
          "type": "address"
        },
        {
          "internalType": "address",
          "name": "buyBackReceiver",
          "type": "address"
        }
      ],
      "stateMutability": "view",
      "type": "function"
    },
    {
      "inputs": [],
      "name": "getLatestPriceOfOneUSD",
      "outputs": [
        {
          "internalType": "int256",
          "name": "price",
          "type": "int256"
        }
      ],
      "stateMutability": "view",
      "type": "function"
    },
    {
      "inputs": [],
      "name": "owner",
      "outputs": [
        {
          "internalType": "address",
          "name": "",
          "type": "address"
        }
      ],
      "stateMutability": "view",
      "type": "function"
    },
    {
      "inputs": [],
      "name": "renounceOwnership",
      "outputs": [],
      "stateMutability": "nonpayable",
      "type": "function"
    },
    {
      "inputs": [
        {
          "internalType": "uint256",
          "name": "silver",
          "type": "uint256"
        },
        {
          "internalType": "uint256",
          "name": "gold",
          "type": "uint256"
        },
        {
          "internalType": "uint256",
          "name": "diamond",
          "type": "uint256"
        }
      ],
      "name": "setCampaignFees",
      "outputs": [],
      "stateMutability": "nonpayable",
      "type": "function"
    },
    {
      "inputs": [
        {
          "internalType": "uint256",
          "name": "reward_0pc",
          "type": "uint256"
        },
        {
          "internalType": "uint256",
          "name": "reward_30pc",
          "type": "uint256"
        },
        {
          "internalType": "uint256",
          "name": "reward_50pc",
          "type": "uint256"
        },
        {
          "internalType": "uint256",
          "name": "reward_100pc",
          "type": "uint256"
        }
      ],
      "name": "setClaimFees",
      "outputs": [],
      "stateMutability": "nonpayable",
      "type": "function"
    },
    {
      "inputs": [
        {
          "internalType": "uint8",
          "name": "buyBackAndburn",
          "type": "uint8"
        },
        {
          "internalType": "uint8",
          "name": "rewardPool",
          "type": "uint8"
        },
        {
          "internalType": "uint8",
          "name": "corporate",
          "type": "uint8"
        }
      ],
      "name": "setFeeDistributionShares",
      "outputs": [],
      "stateMutability": "nonpayable",
      "type": "function"
    },
    {
      "inputs": [
        {
          "internalType": "address",
          "name": "rewardPool",
          "type": "address"
        },
        {
          "internalType": "address",
          "name": "corporate",
          "type": "address"
        },
        {
          "internalType": "address",
          "name": "buyBackAndburnToken",
          "type": "address"
        },
        {
          "internalType": "address",
          "name": "buyBackReceiver",
          "type": "address"
        }
      ],
      "name": "setFeeDistributionWallets",
      "outputs": [],
      "stateMutability": "nonpayable",
      "type": "function"
    },
    {
      "inputs": [
        {
          "internalType": "address",
          "name": "newOwner",
          "type": "address"
        }
      ],
      "name": "transferOwnership",
      "outputs": [],
      "stateMutability": "nonpayable",
      "type": "function"
    },
    {
      "inputs": [],
      "name": "uniswapV2Router",
      "outputs": [
        {
          "internalType": "contract IUniswapV2Router02",
          "name": "",
          "type": "address"
        }
      ],
      "stateMutability": "view",
      "type": "function"
    },
    {
      "inputs": [
        {
          "internalType": "contract AggregatorV3Interface",
          "name": "_priceFeed",
          "type": "address"
        }
      ],
      "name": "updatePriceFeed",
      "outputs": [],
      "stateMutability": "nonpayable",
      "type": "function"
    },
    {
      "inputs": [
        {
          "internalType": "contract IUniswapV2Router02",
          "name": "_uniswapV2Router",
          "type": "address"
        }
      ],
      "name": "updateRouter",
      "outputs": [],
      "stateMutability": "nonpayable",
      "type": "function"
    },
    {
      "stateMutability": "payable",
      "type": "receive"
    }
  ],
  "transactionHash": "0x32d79bb53e324374bd19e51b143844a492e8663fef4aecfd469f12c528a924a6",
  "args": [
    "0",
    "0",
    "0",
    "3",
    "2",
    "2",
    "0"
  ],
  "numDeployments": 1,
  "solcInputHash": "0fb1101042a11c55763c576911848678",
  "bytecode": "0x6080604052600180546001600160a01b031990811673694aa1769357215de4fac081bf1f309adc325306179091556002805490911673b26b2de65d07ebb5e54c7f6282424d3be670e1f017905534801561005857600080fd5b506040516117cf3803806117cf833981016040819052610077916101d6565b61008033610186565b7f3617319a054d772f909f7c479a2cebe5066e836a939412e32403c99029b92eff969096557fa15bc60c955c405d20d9149c709e2460f1c2d9a497496a7f46004d1772c3054c949094557fc3a24b0501bd2c13a7e57f2db4369ec4c223447539fc0724a9d55ac4a06ebd4d9290925560046020527f17ef568e3e12ab5b9c7254a8d58478811de00f9e6eb34345acd53bf8fd09d3ec557fabd6e7cb50984ff9c2f3e18a2660c3353dadf4e3291deeb275dae2cd1e44fe05557f91da3fd0782e51c6b3986e9e672fd566868e71f3dbc2d6c2cd6fbb3e361af2a75560036000527f2e174c10e159ea99b867ce3205125c24a42d128804e4070ed6fcc8cc98166aa05561022a565b600080546001600160a01b038381166001600160a01b0319831681178455604051919092169283917f8be0079c531659141344cd1fd0a4f28419497f9722a3daafe3b4186f6b6457e09190a35050565b600080600080600080600060e0888a0312156101f157600080fd5b5050855160208701516040880151606089015160808a015160a08b015160c0909b0151949c939b50919990985090965094509092509050565b611596806102396000396000f3fe6080604052600436106101185760003560e01c806395877f78116100a0578063cfb6e81f11610064578063cfb6e81f1461038b578063d485b847146103ab578063db2e21bc146103cb578063e1d2dbfc146103e0578063f2fde38b1461042057600080fd5b806395877f78146102ce578063a1d8f53c146102ee578063abe983631461030e578063c851cc321461032e578063cf5b2f9c1461034e57600080fd5b806347dd490a116100e757806347dd490a1461020e57806365b3f9b01461022e57806370085f5c1461027b578063715018a61461029b5780638da5cb5b146102b057600080fd5b806302a64a4b1461015c5780630f6b2cf4146101845780631694505e146101bf57806329a3bcbf146101f757600080fd5b3661015757604080513381523460208201527f88a5966d370b9919b20f3e2c13ff65706f196a4e32cc2c12bf57088f88525874910160405180910390a1005b600080fd5b34801561016857600080fd5b50610171610440565b6040519081526020015b60405180910390f35b34801561019057600080fd5b506101a461019f36600461107e565b6104e0565b6040805193845260208401929092529082015260600161017b565b3480156101cb57600080fd5b506002546101df906001600160a01b031681565b6040516001600160a01b03909116815260200161017b565b34801561020357600080fd5b5061020c6105a1565b005b34801561021a57600080fd5b5061020c6102293660046110b5565b61087f565b34801561023a57600080fd5b50600654600754600854600954604080516001600160a01b03958616815293851660208501529184169183019190915291909116606082015260800161017b565b34801561028757600080fd5b5061020c6102963660046110f8565b610957565b3480156102a757600080fd5b5061020c6109d4565b3480156102bc57600080fd5b506000546001600160a01b03166101df565b3480156102da57600080fd5b5061020c6102e9366004611139565b6109e8565b3480156102fa57600080fd5b5061020c610309366004611156565b610a12565b34801561031a57600080fd5b506101716103293660046111b2565b610ace565b34801561033a57600080fd5b5061020c610349366004611139565b610b23565b34801561035a57600080fd5b506005546040805160ff8084168252610100840481166020830152620100009093049092169082015260600161017b565b34801561039757600080fd5b506101716103a63660046111d3565b610b4d565b3480156103b757600080fd5b5061020c6103c63660046111f4565b610b82565b3480156103d757600080fd5b5061020c610c24565b3480156103ec57600080fd5b506104006103fb36600461107e565b610cc1565b60408051948552602085019390935291830152606082015260800161017b565b34801561042c57600080fd5b5061020c61043b366004611139565b610db0565b60015460408051633fabe5a360e21b815290516000926001600160a01b03169163feaf968c9160048083019260a09291908290030181865afa15801561048a573d6000803e3d6000fd5b505050506040513d601f19601f820116820180604052508101906104ae9190611240565b50919350670de0b6b3a764000092508391506104d09050826305f5e1006112a6565b6104da91906112f2565b91505090565b60036020527f3617319a054d772f909f7c479a2cebe5066e836a939412e32403c99029b92eff547fa15bc60c955c405d20d9149c709e2460f1c2d9a497496a7f46004d1772c3054c5460026000527fc3a24b0501bd2c13a7e57f2db4369ec4c223447539fc0724a9d55ac4a06ebd4d546001848181111561056357610563611320565b0361059a576000610572610440565b905061057e8185611336565b935061058a8184611336565b92506105968183611336565b9150505b9193909250565b6105a9610e29565b604080516080810182526006546001600160a01b039081168252600754811660208084019190915260085482168385015260095482166060808501919091528451908101855260055460ff808216835261010082048116938301939093526201000090049091169381019390935281519192911615801590610637575060208201516001600160a01b031615155b801561064f575060408201516001600160a01b031615155b8015610667575060608201516001600160a01b031615155b61068c5760405162461bcd60e51b81526004016106839061134d565b60405180910390fd5b6000816040015160ff161180156106aa57506000816020015160ff16115b80156106d857506040810151602082015182516106c7919061139c565b6106d1919061139c565b60ff166064145b6107395760405162461bcd60e51b815260206004820152602c60248201527f446973747269627574696f6e206665657320617265206e6f74206265696e672060448201526b7365742070726f7065726c7960a01b6064820152608401610683565b47806107875760405162461bcd60e51b815260206004820152601e60248201527f4e6f2062616c616e63652061766169616c626c6520666f722073706c697400006044820152606401610683565b60006064836040015160ff168361079e9190611336565b6107a891906113b5565b905060006064846020015160ff16846107c19190611336565b6107cb91906113b5565b90506000816107da84866113c9565b6107e491906113c9565b60208701516040519192506001600160a01b03169084156108fc029085906000818181858888f19350505050158015610821573d6000803e3d6000fd5b5085516040516001600160a01b039091169083156108fc029084906000818181858888f1935050505015801561085b573d6000803e3d6000fd5b508015610877576108758660400151876060015183610e83565b505b505050505050565b610887610e29565b60008160ff1611801561089d575060008260ff16115b80156108c05750806108af838561139c565b6108b9919061139c565b60ff166064145b6109215760405162461bcd60e51b815260206004820152602c60248201527f446973747269627574696f6e206665657320617265206e6f7420616464696e6760448201526b20757020746f20313030706360a01b6064820152608401610683565b6005805460ff94851661ffff1990911617610100938516939093029290921762ff00001916620100009190931602919091179055565b61095f610e29565b60036020527f3617319a054d772f909f7c479a2cebe5066e836a939412e32403c99029b92eff929092557fa15bc60c955c405d20d9149c709e2460f1c2d9a497496a7f46004d1772c3054c5560026000527fc3a24b0501bd2c13a7e57f2db4369ec4c223447539fc0724a9d55ac4a06ebd4d55565b6109dc610e29565b6109e6600061102e565b565b6109f0610e29565b600180546001600160a01b0319166001600160a01b0392909216919091179055565b610a1a610e29565b6001600160a01b03841615801590610a3a57506001600160a01b03831615155b8015610a4e57506001600160a01b03821615155b8015610a6257506001600160a01b03811615155b610a7e5760405162461bcd60e51b81526004016106839061134d565b600680546001600160a01b039586166001600160a01b0319918216179091556007805494861694821694909417909355600880549285169284169290921790915560098054919093169116179055565b600080610ad9610440565b90508060036000856002811115610af257610af2611320565b6002811115610b0357610b03611320565b815260200190815260200160002054610b1c9190611336565b9392505050565b610b2b610e29565b600280546001600160a01b0319166001600160a01b0392909216919091179055565b600080610b58610440565b90508060046000856003811115610b7157610b71611320565b6003811115610b0357610b03611320565b610b8a610e29565b60046020527f17ef568e3e12ab5b9c7254a8d58478811de00f9e6eb34345acd53bf8fd09d3ec939093557fabd6e7cb50984ff9c2f3e18a2660c3353dadf4e3291deeb275dae2cd1e44fe05919091557f91da3fd0782e51c6b3986e9e672fd566868e71f3dbc2d6c2cd6fbb3e361af2a75560036000527f2e174c10e159ea99b867ce3205125c24a42d128804e4070ed6fcc8cc98166aa055565b610c2c610e29565b4780610c845760405162461bcd60e51b815260206004820152602160248201527f4e6f2062616c616e63652061766169616c626c6520666f7220776974686472616044820152607760f81b6064820152608401610683565b600080546040516001600160a01b039091169183156108fc02918491818181858888f19350505050158015610cbd573d6000803e3d6000fd5b5050565b60046020527f17ef568e3e12ab5b9c7254a8d58478811de00f9e6eb34345acd53bf8fd09d3ec547fabd6e7cb50984ff9c2f3e18a2660c3353dadf4e3291deeb275dae2cd1e44fe05547f91da3fd0782e51c6b3986e9e672fd566868e71f3dbc2d6c2cd6fbb3e361af2a75460036000527f2e174c10e159ea99b867ce3205125c24a42d128804e4070ed6fcc8cc98166aa05460018581811115610d6657610d66611320565b03610da9576000610d75610440565b9050610d818186611336565b9450610d8d8185611336565b9350610d998184611336565b9250610da58183611336565b9150505b9193509193565b610db8610e29565b6001600160a01b038116610e1d5760405162461bcd60e51b815260206004820152602660248201527f4f776e61626c653a206e6577206f776e657220697320746865207a65726f206160448201526564647265737360d01b6064820152608401610683565b610e268161102e565b50565b6000546001600160a01b031633146109e65760405162461bcd60e51b815260206004820181905260248201527f4f776e61626c653a2063616c6c6572206973206e6f7420746865206f776e65726044820152606401610683565b604080516002808252606082018352600092839291906020830190803683375050600254604080516315ab88c960e31b815290519394506001600160a01b039091169263ad5c4648925060048083019260209291908290030181865afa158015610ef1573d6000803e3d6000fd5b505050506040513d601f19601f82011682018060405250810190610f1591906113f2565b81600081518110610f2857610f2861140f565b60200260200101906001600160a01b031690816001600160a01b0316815250508481600181518110610f5c57610f5c61140f565b6001600160a01b03928316602091820292909201015260025460009116637ff36ab585838589610f8e426101f4611425565b6040518663ffffffff1660e01b8152600401610fad9493929190611438565b60006040518083038185885af1158015610fcb573d6000803e3d6000fd5b50505050506040513d6000823e601f3d908101601f19168201604052610ff491908101906114a2565b90506000816001835161100791906113c9565b815181106110175761101761140f565b602002602001015190508093505050509392505050565b600080546001600160a01b038381166001600160a01b0319831681178455604051919092169283917f8be0079c531659141344cd1fd0a4f28419497f9722a3daafe3b4186f6b6457e09190a35050565b60006020828403121561109057600080fd5b813560028110610b1c57600080fd5b803560ff811681146110b057600080fd5b919050565b6000806000606084860312156110ca57600080fd5b6110d38461109f565b92506110e16020850161109f565b91506110ef6040850161109f565b90509250925092565b60008060006060848603121561110d57600080fd5b505081359360208301359350604090920135919050565b6001600160a01b0381168114610e2657600080fd5b60006020828403121561114b57600080fd5b8135610b1c81611124565b6000806000806080858703121561116c57600080fd5b843561117781611124565b9350602085013561118781611124565b9250604085013561119781611124565b915060608501356111a781611124565b939692955090935050565b6000602082840312156111c457600080fd5b813560038110610b1c57600080fd5b6000602082840312156111e557600080fd5b813560048110610b1c57600080fd5b6000806000806080858703121561120a57600080fd5b5050823594602084013594506040840135936060013592509050565b805169ffffffffffffffffffff811681146110b057600080fd5b600080600080600060a0868803121561125857600080fd5b61126186611226565b945060208601519350604086015192506060860151915061128460808701611226565b90509295509295909350565b634e487b7160e01b600052601160045260246000fd5b80820260008212600160ff1b841416156112c2576112c2611290565b81810583148215176112d6576112d6611290565b92915050565b634e487b7160e01b600052601260045260246000fd5b600082611301576113016112dc565b600160ff1b82146000198414161561131b5761131b611290565b500590565b634e487b7160e01b600052602160045260246000fd5b80820281158282048414176112d6576112d6611290565b6020808252602f908201527f446973747269627574696f6e2077616c6c65747320617265206e6f742062656960408201526e6e67207365742070726f7065726c7960881b606082015260800190565b60ff81811683821601908111156112d6576112d6611290565b6000826113c4576113c46112dc565b500490565b818103818111156112d6576112d6611290565b634e487b7160e01b600052604160045260246000fd5b60006020828403121561140457600080fd5b8151610b1c81611124565b634e487b7160e01b600052603260045260246000fd5b808201808211156112d6576112d6611290565b600060808201868352602060808185015281875180845260a086019150828901935060005b818110156114825784516001600160a01b03168352938301939183019160010161145d565b50506001600160a01b039690961660408501525050506060015292915050565b600060208083850312156114b557600080fd5b825167ffffffffffffffff808211156114cd57600080fd5b818501915085601f8301126114e157600080fd5b8151818111156114f3576114f36113dc565b8060051b604051601f19603f83011681018181108582111715611518576115186113dc565b60405291825284820192508381018501918883111561153657600080fd5b938501935b828510156115545784518452938501939285019261153b565b9897505050505050505056fea2646970667358221220e957ce788cb6e341cb0b5b92948ae22dfebd350573dc5738696732d30e58279d64736f6c63430008120033",
  "devdoc": {
    "kind": "dev",
    "methods": {
      "owner()": {
        "details": "Returns the address of the current owner."
      },
      "renounceOwnership()": {
        "details": "Leaves the contract without owner. It will not be possible to call `onlyOwner` functions anymore. Can only be called by the current owner. NOTE: Renouncing ownership will leave the contract without an owner, thereby removing any functionality that is only available to the owner."
      },
      "transferOwnership(address)": {
        "details": "Transfers ownership of the contract to a new account (`newOwner`). Can only be called by the current owner."
      }
    },
    "version": 1
  },
  "userdoc": {
    "kind": "user",
    "methods": {},
    "version": 1
  },
  "storageLayout": {
    "storage": [
      {
        "astId": 53,
        "contract": "contracts/Planetmoon/CampaignFeeManager.sol:CampaignFeeManager",
        "label": "_owner",
        "offset": 0,
        "slot": "0",
        "type": "t_address"
      },
      {
        "astId": 2022,
        "contract": "contracts/Planetmoon/CampaignFeeManager.sol:CampaignFeeManager",
        "label": "priceFeed",
        "offset": 0,
        "slot": "1",
        "type": "t_contract(AggregatorV3Interface)45"
      },
      {
        "astId": 2061,
        "contract": "contracts/Planetmoon/CampaignFeeManager.sol:CampaignFeeManager",
        "label": "uniswapV2Router",
        "offset": 0,
        "slot": "2",
        "type": "t_contract(IUniswapV2Router02)2559"
      },
      {
        "astId": 285,
        "contract": "contracts/Planetmoon/CampaignFeeManager.sol:CampaignFeeManager",
        "label": "s_campaingFee",
        "offset": 0,
        "slot": "3",
        "type": "t_mapping(t_enum(CampaignCategories)2583,t_uint256)"
      },
      {
        "astId": 290,
        "contract": "contracts/Planetmoon/CampaignFeeManager.sol:CampaignFeeManager",
        "label": "s_claimingFee",
        "offset": 0,
        "slot": "4",
        "type": "t_mapping(t_enum(ClaimCategories)2579,t_uint256)"
      },
      {
        "astId": 293,
        "contract": "contracts/Planetmoon/CampaignFeeManager.sol:CampaignFeeManager",
        "label": "s_feeDistributionShares",
        "offset": 0,
        "slot": "5",
        "type": "t_struct(FeeDistributionShares)309_storage"
      },
      {
        "astId": 296,
        "contract": "contracts/Planetmoon/CampaignFeeManager.sol:CampaignFeeManager",
        "label": "s_feeDistributionWallets",
        "offset": 0,
        "slot": "6",
        "type": "t_struct(FeeDistributionWallets)318_storage"
      }
    ],
    "types": {
      "t_address": {
        "encoding": "inplace",
        "label": "address",
        "numberOfBytes": "20"
      },
      "t_address_payable": {
        "encoding": "inplace",
        "label": "address payable",
        "numberOfBytes": "20"
      },
      "t_contract(AggregatorV3Interface)45": {
        "encoding": "inplace",
        "label": "contract AggregatorV3Interface",
        "numberOfBytes": "20"
      },
      "t_contract(IUniswapV2Router02)2559": {
        "encoding": "inplace",
        "label": "contract IUniswapV2Router02",
        "numberOfBytes": "20"
      },
      "t_enum(CampaignCategories)2583": {
        "encoding": "inplace",
        "label": "enum PMLibrary.CampaignCategories",
        "numberOfBytes": "1"
      },
      "t_enum(ClaimCategories)2579": {
        "encoding": "inplace",
        "label": "enum PMLibrary.ClaimCategories",
        "numberOfBytes": "1"
      },
      "t_mapping(t_enum(CampaignCategories)2583,t_uint256)": {
        "encoding": "mapping",
        "key": "t_enum(CampaignCategories)2583",
        "label": "mapping(enum PMLibrary.CampaignCategories => uint256)",
        "numberOfBytes": "32",
        "value": "t_uint256"
      },
      "t_mapping(t_enum(ClaimCategories)2579,t_uint256)": {
        "encoding": "mapping",
        "key": "t_enum(ClaimCategories)2579",
        "label": "mapping(enum PMLibrary.ClaimCategories => uint256)",
        "numberOfBytes": "32",
        "value": "t_uint256"
      },
      "t_struct(FeeDistributionShares)309_storage": {
        "encoding": "inplace",
        "label": "struct CampaignFeeManager.FeeDistributionShares",
        "members": [
          {
            "astId": 304,
            "contract": "contracts/Planetmoon/CampaignFeeManager.sol:CampaignFeeManager",
            "label": "buyBackAndburn",
            "offset": 0,
            "slot": "0",
            "type": "t_uint8"
          },
          {
            "astId": 306,
            "contract": "contracts/Planetmoon/CampaignFeeManager.sol:CampaignFeeManager",
            "label": "rewardPool",
            "offset": 1,
            "slot": "0",
            "type": "t_uint8"
          },
          {
            "astId": 308,
            "contract": "contracts/Planetmoon/CampaignFeeManager.sol:CampaignFeeManager",
            "label": "corporate",
            "offset": 2,
            "slot": "0",
            "type": "t_uint8"
          }
        ],
        "numberOfBytes": "32"
      },
      "t_struct(FeeDistributionWallets)318_storage": {
        "encoding": "inplace",
        "label": "struct CampaignFeeManager.FeeDistributionWallets",
        "members": [
          {
            "astId": 311,
            "contract": "contracts/Planetmoon/CampaignFeeManager.sol:CampaignFeeManager",
            "label": "rewardPool",
            "offset": 0,
            "slot": "0",
            "type": "t_address_payable"
          },
          {
            "astId": 313,
            "contract": "contracts/Planetmoon/CampaignFeeManager.sol:CampaignFeeManager",
            "label": "corporate",
            "offset": 0,
            "slot": "1",
            "type": "t_address_payable"
          },
          {
            "astId": 315,
            "contract": "contracts/Planetmoon/CampaignFeeManager.sol:CampaignFeeManager",
            "label": "buyBackAndburnToken",
            "offset": 0,
            "slot": "2",
            "type": "t_address"
          },
          {
            "astId": 317,
            "contract": "contracts/Planetmoon/CampaignFeeManager.sol:CampaignFeeManager",
            "label": "buyBackReceiver",
            "offset": 0,
            "slot": "3",
            "type": "t_address"
          }
        ],
        "numberOfBytes": "128"
      },
      "t_uint256": {
        "encoding": "inplace",
        "label": "uint256",
        "numberOfBytes": "32"
      },
      "t_uint8": {
        "encoding": "inplace",
        "label": "uint8",
        "numberOfBytes": "1"
      }
    }
  }
}