{
  "address": "0x45616Fb7d299c068E3131EBB7C11AE15EF66D1C1",
  "abi": [
    {
      "inputs": [
        {
          "internalType": "uint256",
          "name": "silver",
          "type": "uint256"
        },
        {
          "internalType": "uint256",
          "name": "gold",
          "type": "uint256"
        },
        {
          "internalType": "uint256",
          "name": "diamond",
          "type": "uint256"
        },
        {
          "internalType": "uint256",
          "name": "reward_0pc",
          "type": "uint256"
        },
        {
          "internalType": "uint256",
          "name": "reward_30pc",
          "type": "uint256"
        },
        {
          "internalType": "uint256",
          "name": "reward_50pc",
          "type": "uint256"
        },
        {
          "internalType": "uint256",
          "name": "reward_100pc",
          "type": "uint256"
        }
      ],
      "stateMutability": "nonpayable",
      "type": "constructor"
    },
    {
      "anonymous": false,
      "inputs": [
        {
          "indexed": true,
          "internalType": "address",
          "name": "previousOwner",
          "type": "address"
        },
        {
          "indexed": true,
          "internalType": "address",
          "name": "newOwner",
          "type": "address"
        }
      ],
      "name": "OwnershipTransferred",
      "type": "event"
    },
    {
      "anonymous": false,
      "inputs": [
        {
          "indexed": false,
          "internalType": "address",
          "name": "",
          "type": "address"
        },
        {
          "indexed": false,
          "internalType": "uint256",
          "name": "",
          "type": "uint256"
        }
      ],
      "name": "Received",
      "type": "event"
    },
    {
      "inputs": [],
      "name": "SplitFunds",
      "outputs": [],
      "stateMutability": "nonpayable",
      "type": "function"
    },
    {
      "inputs": [
        {
          "internalType": "enum StakingLibrary.CampaignCategories",
          "name": "",
          "type": "uint8"
        }
      ],
      "name": "campaingFee",
      "outputs": [
        {
          "internalType": "uint256",
          "name": "",
          "type": "uint256"
        }
      ],
      "stateMutability": "view",
      "type": "function"
    },
    {
      "inputs": [],
      "name": "emergencyWithdraw",
      "outputs": [],
      "stateMutability": "nonpayable",
      "type": "function"
    },
    {
      "inputs": [],
      "name": "feeDistributionShares",
      "outputs": [
        {
          "internalType": "uint8",
          "name": "buyBackAndburn",
          "type": "uint8"
        },
        {
          "internalType": "uint8",
          "name": "rewardPool",
          "type": "uint8"
        },
        {
          "internalType": "uint8",
          "name": "corporate",
          "type": "uint8"
        }
      ],
      "stateMutability": "view",
      "type": "function"
    },
    {
      "inputs": [],
      "name": "feeDistributionWallets",
      "outputs": [
        {
          "internalType": "address payable",
          "name": "rewardPool",
          "type": "address"
        },
        {
          "internalType": "address payable",
          "name": "corporate",
          "type": "address"
        },
        {
          "internalType": "address",
          "name": "buyBackAndburnToken",
          "type": "address"
        },
        {
          "internalType": "address",
          "name": "buyBackReceiver",
          "type": "address"
        }
      ],
      "stateMutability": "view",
      "type": "function"
    },
    {
      "inputs": [
        {
          "internalType": "enum CampaignFeeManager.FeesType",
          "name": "feeType",
          "type": "uint8"
        }
      ],
      "name": "getAllCampaignFees",
      "outputs": [
        {
          "internalType": "uint256",
          "name": "silver",
          "type": "uint256"
        },
        {
          "internalType": "uint256",
          "name": "gold",
          "type": "uint256"
        },
        {
          "internalType": "uint256",
          "name": "diamond",
          "type": "uint256"
        }
      ],
      "stateMutability": "view",
      "type": "function"
    },
    {
      "inputs": [
        {
          "internalType": "enum CampaignFeeManager.FeesType",
          "name": "feeType",
          "type": "uint8"
        }
      ],
      "name": "getAllUnstakingFees",
      "outputs": [
        {
          "internalType": "uint256",
          "name": "reward_0pc",
          "type": "uint256"
        },
        {
          "internalType": "uint256",
          "name": "reward_30pc",
          "type": "uint256"
        },
        {
          "internalType": "uint256",
          "name": "reward_50pc",
          "type": "uint256"
        },
        {
          "internalType": "uint256",
          "name": "reward_100pc",
          "type": "uint256"
        }
      ],
      "stateMutability": "view",
      "type": "function"
    },
    {
      "inputs": [
        {
          "internalType": "enum StakingLibrary.CampaignCategories",
          "name": "category",
          "type": "uint8"
        }
      ],
      "name": "getCampaignFee",
      "outputs": [
        {
          "internalType": "uint256",
          "name": "",
          "type": "uint256"
        }
      ],
      "stateMutability": "view",
      "type": "function"
    },
    {
      "inputs": [],
      "name": "getLatestPriceOfOneUSD",
      "outputs": [
        {
          "internalType": "int256",
          "name": "price",
          "type": "int256"
        }
      ],
      "stateMutability": "view",
      "type": "function"
    },
    {
      "inputs": [
        {
          "internalType": "enum StakingLibrary.UnstakingCategories",
          "name": "category",
          "type": "uint8"
        }
      ],
      "name": "getUnstakingFee",
      "outputs": [
        {
          "internalType": "uint256",
          "name": "",
          "type": "uint256"
        }
      ],
      "stateMutability": "view",
      "type": "function"
    },
    {
      "inputs": [],
      "name": "owner",
      "outputs": [
        {
          "internalType": "address",
          "name": "",
          "type": "address"
        }
      ],
      "stateMutability": "view",
      "type": "function"
    },
    {
      "inputs": [],
      "name": "renounceOwnership",
      "outputs": [],
      "stateMutability": "nonpayable",
      "type": "function"
    },
    {
      "inputs": [
        {
          "internalType": "uint256",
          "name": "silver",
          "type": "uint256"
        },
        {
          "internalType": "uint256",
          "name": "gold",
          "type": "uint256"
        },
        {
          "internalType": "uint256",
          "name": "diamond",
          "type": "uint256"
        }
      ],
      "name": "setCampaignFees",
      "outputs": [],
      "stateMutability": "nonpayable",
      "type": "function"
    },
    {
      "inputs": [
        {
          "internalType": "uint8",
          "name": "buyBackAndburn",
          "type": "uint8"
        },
        {
          "internalType": "uint8",
          "name": "rewardPool",
          "type": "uint8"
        },
        {
          "internalType": "uint8",
          "name": "corporate",
          "type": "uint8"
        }
      ],
      "name": "setFeeDistributionShares",
      "outputs": [],
      "stateMutability": "nonpayable",
      "type": "function"
    },
    {
      "inputs": [
        {
          "internalType": "address",
          "name": "rewardPool",
          "type": "address"
        },
        {
          "internalType": "address",
          "name": "corporate",
          "type": "address"
        },
        {
          "internalType": "address",
          "name": "buyBackAndburnToken",
          "type": "address"
        },
        {
          "internalType": "address",
          "name": "buyBackReceiver",
          "type": "address"
        }
      ],
      "name": "setFeeDistributionWallets",
      "outputs": [],
      "stateMutability": "nonpayable",
      "type": "function"
    },
    {
      "inputs": [
        {
          "internalType": "contract IUniswapV2Router02",
          "name": "_uniswapV2Router",
          "type": "address"
        }
      ],
      "name": "setRouter",
      "outputs": [],
      "stateMutability": "nonpayable",
      "type": "function"
    },
    {
      "inputs": [
        {
          "internalType": "uint256",
          "name": "reward_0pc",
          "type": "uint256"
        },
        {
          "internalType": "uint256",
          "name": "reward_30pc",
          "type": "uint256"
        },
        {
          "internalType": "uint256",
          "name": "reward_50pc",
          "type": "uint256"
        },
        {
          "internalType": "uint256",
          "name": "reward_100pc",
          "type": "uint256"
        }
      ],
      "name": "setUnstakingFees",
      "outputs": [],
      "stateMutability": "nonpayable",
      "type": "function"
    },
    {
      "inputs": [
        {
          "internalType": "address",
          "name": "newOwner",
          "type": "address"
        }
      ],
      "name": "transferOwnership",
      "outputs": [],
      "stateMutability": "nonpayable",
      "type": "function"
    },
    {
      "inputs": [
        {
          "internalType": "enum StakingLibrary.UnstakingCategories",
          "name": "",
          "type": "uint8"
        }
      ],
      "name": "unStakingFee",
      "outputs": [
        {
          "internalType": "uint256",
          "name": "",
          "type": "uint256"
        }
      ],
      "stateMutability": "view",
      "type": "function"
    },
    {
      "inputs": [],
      "name": "uniswapV2Router",
      "outputs": [
        {
          "internalType": "contract IUniswapV2Router02",
          "name": "",
          "type": "address"
        }
      ],
      "stateMutability": "view",
      "type": "function"
    },
    {
      "stateMutability": "payable",
      "type": "receive"
    }
  ],
  "transactionHash": "0xbe7809bffb756cc3a4361feb7368831a645a8979185c59d92172b3825afe9f10",
  "args": [
    "100",
    "200",
    "400",
    "3",
    "2",
    "2",
    "0"
  ],
  "numDeployments": 1,
  "solcInputHash": "d2038625921aa2e8a69487c20d93043d",
  "bytecode": "0x6080604052600180546001600160a01b031990811673d4a33860578de61dbabdc8bfdb98fd742fa7028e1790915560028054909116737a250d5630b4cf539739df2c5dacb4c659f2488d17905534801561005857600080fd5b50604051611883380380611883833981016040819052610077916101d6565b61008033610186565b7f3617319a054d772f909f7c479a2cebe5066e836a939412e32403c99029b92eff969096557fa15bc60c955c405d20d9149c709e2460f1c2d9a497496a7f46004d1772c3054c949094557fc3a24b0501bd2c13a7e57f2db4369ec4c223447539fc0724a9d55ac4a06ebd4d9290925560046020527f17ef568e3e12ab5b9c7254a8d58478811de00f9e6eb34345acd53bf8fd09d3ec557fabd6e7cb50984ff9c2f3e18a2660c3353dadf4e3291deeb275dae2cd1e44fe05557f91da3fd0782e51c6b3986e9e672fd566868e71f3dbc2d6c2cd6fbb3e361af2a75560036000527f2e174c10e159ea99b867ce3205125c24a42d128804e4070ed6fcc8cc98166aa05561022a565b600080546001600160a01b038381166001600160a01b0319831681178455604051919092169283917f8be0079c531659141344cd1fd0a4f28419497f9722a3daafe3b4186f6b6457e09190a35050565b600080600080600080600060e0888a0312156101f157600080fd5b5050855160208701516040880151606089015160808a015160a08b015160c0909b0151949c939b50919990985090965094509092509050565b61164a806102396000396000f3fe6080604052600436106101235760003560e01c8063715018a6116100a0578063c0d7865511610064578063c0d78655146103ca578063c390a314146103ea578063c691068d14610417578063db2e21bc1461047d578063f2fde38b1461049257600080fd5b8063715018a6146103375780637d2b6fe11461034c5780638da5cb5b1461036c578063a1d8f53c1461038a578063abe98363146103aa57600080fd5b80632d08c256116100e75780632d08c256146102595780633b6a8f1d146102aa57806347dd490a146102ca5780635072d33d146102ea57806370085f5c1461031757600080fd5b806302a64a4b146101675780630e3cab5a1461018f5780630f6b2cf4146101cf5780631694505e1461020a57806329a3bcbf1461024257600080fd5b3661016257604080513381523460208201527f88a5966d370b9919b20f3e2c13ff65706f196a4e32cc2c12bf57088f88525874910160405180910390a1005b600080fd5b34801561017357600080fd5b5061017c6104b2565b6040519081526020015b60405180910390f35b34801561019b57600080fd5b506101af6101aa3660046110c6565b610552565b604080519485526020850193909352918301526060820152608001610186565b3480156101db57600080fd5b506101ef6101ea3660046110c6565b610641565b60408051938452602084019290925290820152606001610186565b34801561021657600080fd5b5060025461022a906001600160a01b031681565b6040516001600160a01b039091168152602001610186565b34801561024e57600080fd5b50610257610702565b005b34801561026557600080fd5b506005546102869060ff808216916101008104821691620100009091041683565b6040805160ff94851681529284166020840152921691810191909152606001610186565b3480156102b657600080fd5b5061017c6102c53660046110e7565b6109e0565b3480156102d657600080fd5b506102576102e536600461111e565b610a35565b3480156102f657600080fd5b5061017c6103053660046110e7565b60046020526000908152604090205481565b34801561032357600080fd5b50610257610332366004611161565b610b0d565b34801561034357600080fd5b50610257610b8a565b34801561035857600080fd5b5061025761036736600461118d565b610b9e565b34801561037857600080fd5b506000546001600160a01b031661022a565b34801561039657600080fd5b506102576103a53660046111d4565b610c40565b3480156103b657600080fd5b5061017c6103c5366004611230565b610cfc565b3480156103d657600080fd5b506102576103e5366004611251565b610d31565b3480156103f657600080fd5b5061017c610405366004611230565b60036020526000908152604090205481565b34801561042357600080fd5b5060065460075460085460095461044a936001600160a01b03908116938116928116911684565b604080516001600160a01b0395861681529385166020850152918416918301919091529091166060820152608001610186565b34801561048957600080fd5b50610257610d5b565b34801561049e57600080fd5b506102576104ad366004611251565b610df8565b60015460408051633fabe5a360e21b815290516000926001600160a01b03169163feaf968c9160048083019260a09291908290030181865afa1580156104fc573d6000803e3d6000fd5b505050506040513d601f19601f820116820180604052508101906105209190611288565b50919350670de0b6b3a764000092508391506105429050826305f5e1006112ee565b61054c9190611389565b91505090565b60046020527f17ef568e3e12ab5b9c7254a8d58478811de00f9e6eb34345acd53bf8fd09d3ec547fabd6e7cb50984ff9c2f3e18a2660c3353dadf4e3291deeb275dae2cd1e44fe05547f91da3fd0782e51c6b3986e9e672fd566868e71f3dbc2d6c2cd6fbb3e361af2a75460036000527f2e174c10e159ea99b867ce3205125c24a42d128804e4070ed6fcc8cc98166aa054600185818111156105f7576105f76113b7565b0361063a5760006106066104b2565b905061061281866113cd565b945061061e81856113cd565b935061062a81846113cd565b925061063681836113cd565b9150505b9193509193565b60036020527f3617319a054d772f909f7c479a2cebe5066e836a939412e32403c99029b92eff547fa15bc60c955c405d20d9149c709e2460f1c2d9a497496a7f46004d1772c3054c5460026000527fc3a24b0501bd2c13a7e57f2db4369ec4c223447539fc0724a9d55ac4a06ebd4d54600184818111156106c4576106c46113b7565b036106fb5760006106d36104b2565b90506106df81856113cd565b93506106eb81846113cd565b92506106f781836113cd565b9150505b9193909250565b61070a610e71565b604080516080810182526006546001600160a01b039081168252600754811660208084019190915260085482168385015260095482166060808501919091528451908101855260055460ff808216835261010082048116938301939093526201000090049091169381019390935281519192911615801590610798575060208201516001600160a01b031615155b80156107b0575060408201516001600160a01b031615155b80156107c8575060608201516001600160a01b031615155b6107ed5760405162461bcd60e51b81526004016107e4906113ec565b60405180910390fd5b6000816040015160ff1611801561080b57506000816020015160ff16115b80156108395750604081015160208201518251610828919061143b565b610832919061143b565b60ff166064145b61089a5760405162461bcd60e51b815260206004820152602c60248201527f446973747269627574696f6e206665657320617265206e6f74206265696e672060448201526b7365742070726f7065726c7960a01b60648201526084016107e4565b47806108e85760405162461bcd60e51b815260206004820152601e60248201527f4e6f2062616c616e63652061766169616c626c6520666f722073706c6974000060448201526064016107e4565b60006064836040015160ff16836108ff91906113cd565b6109099190611460565b905060006064846020015160ff168461092291906113cd565b61092c9190611460565b905060008161093b8486611474565b6109459190611474565b60208701516040519192506001600160a01b03169084156108fc029085906000818181858888f19350505050158015610982573d6000803e3d6000fd5b5085516040516001600160a01b039091169083156108fc029084906000818181858888f193505050501580156109bc573d6000803e3d6000fd5b5080156109d8576109d68660400151876060015183610ecb565b505b505050505050565b6000806109eb6104b2565b90508060046000856003811115610a0457610a046113b7565b6003811115610a1557610a156113b7565b815260200190815260200160002054610a2e91906113cd565b9392505050565b610a3d610e71565b60008160ff16118015610a53575060008260ff16115b8015610a76575080610a65838561143b565b610a6f919061143b565b60ff166064145b610ad75760405162461bcd60e51b815260206004820152602c60248201527f446973747269627574696f6e206665657320617265206e6f7420616464696e6760448201526b20757020746f20313030706360a01b60648201526084016107e4565b6005805460ff94851661ffff1990911617610100938516939093029290921762ff00001916620100009190931602919091179055565b610b15610e71565b60036020527f3617319a054d772f909f7c479a2cebe5066e836a939412e32403c99029b92eff929092557fa15bc60c955c405d20d9149c709e2460f1c2d9a497496a7f46004d1772c3054c5560026000527fc3a24b0501bd2c13a7e57f2db4369ec4c223447539fc0724a9d55ac4a06ebd4d55565b610b92610e71565b610b9c6000611076565b565b610ba6610e71565b60046020527f17ef568e3e12ab5b9c7254a8d58478811de00f9e6eb34345acd53bf8fd09d3ec939093557fabd6e7cb50984ff9c2f3e18a2660c3353dadf4e3291deeb275dae2cd1e44fe05919091557f91da3fd0782e51c6b3986e9e672fd566868e71f3dbc2d6c2cd6fbb3e361af2a75560036000527f2e174c10e159ea99b867ce3205125c24a42d128804e4070ed6fcc8cc98166aa055565b610c48610e71565b6001600160a01b03841615801590610c6857506001600160a01b03831615155b8015610c7c57506001600160a01b03821615155b8015610c9057506001600160a01b03811615155b610cac5760405162461bcd60e51b81526004016107e4906113ec565b600680546001600160a01b039586166001600160a01b0319918216179091556007805494861694821694909417909355600880549285169284169290921790915560098054919093169116179055565b600080610d076104b2565b90508060036000856002811115610d2057610d206113b7565b6002811115610a1557610a156113b7565b610d39610e71565b600280546001600160a01b0319166001600160a01b0392909216919091179055565b610d63610e71565b4780610dbb5760405162461bcd60e51b815260206004820152602160248201527f4e6f2062616c616e63652061766169616c626c6520666f7220776974686472616044820152607760f81b60648201526084016107e4565b600080546040516001600160a01b039091169183156108fc02918491818181858888f19350505050158015610df4573d6000803e3d6000fd5b5050565b610e00610e71565b6001600160a01b038116610e655760405162461bcd60e51b815260206004820152602660248201527f4f776e61626c653a206e6577206f776e657220697320746865207a65726f206160448201526564647265737360d01b60648201526084016107e4565b610e6e81611076565b50565b6000546001600160a01b03163314610b9c5760405162461bcd60e51b815260206004820181905260248201527f4f776e61626c653a2063616c6c6572206973206e6f7420746865206f776e657260448201526064016107e4565b604080516002808252606082018352600092839291906020830190803683375050600254604080516315ab88c960e31b815290519394506001600160a01b039091169263ad5c4648925060048083019260209291908290030181865afa158015610f39573d6000803e3d6000fd5b505050506040513d601f19601f82011682018060405250810190610f5d91906114a1565b81600081518110610f7057610f706114be565b60200260200101906001600160a01b031690816001600160a01b0316815250508481600181518110610fa457610fa46114be565b6001600160a01b03928316602091820292909201015260025460009116637ff36ab585838589610fd6426101f46114d4565b6040518663ffffffff1660e01b8152600401610ff594939291906114ec565b60006040518083038185885af1158015611013573d6000803e3d6000fd5b50505050506040513d6000823e601f3d908101601f1916820160405261103c9190810190611556565b90506000816001835161104f9190611474565b8151811061105f5761105f6114be565b602002602001015190508093505050509392505050565b600080546001600160a01b038381166001600160a01b0319831681178455604051919092169283917f8be0079c531659141344cd1fd0a4f28419497f9722a3daafe3b4186f6b6457e09190a35050565b6000602082840312156110d857600080fd5b813560028110610a2e57600080fd5b6000602082840312156110f957600080fd5b813560048110610a2e57600080fd5b803560ff8116811461111957600080fd5b919050565b60008060006060848603121561113357600080fd5b61113c84611108565b925061114a60208501611108565b915061115860408501611108565b90509250925092565b60008060006060848603121561117657600080fd5b505081359360208301359350604090920135919050565b600080600080608085870312156111a357600080fd5b5050823594602084013594506040840135936060013592509050565b6001600160a01b0381168114610e6e57600080fd5b600080600080608085870312156111ea57600080fd5b84356111f5816111bf565b93506020850135611205816111bf565b92506040850135611215816111bf565b91506060850135611225816111bf565b939692955090935050565b60006020828403121561124257600080fd5b813560038110610a2e57600080fd5b60006020828403121561126357600080fd5b8135610a2e816111bf565b805169ffffffffffffffffffff8116811461111957600080fd5b600080600080600060a086880312156112a057600080fd5b6112a98661126e565b94506020860151935060408601519250606086015191506112cc6080870161126e565b90509295509295909350565b634e487b7160e01b600052601160045260246000fd5b60006001600160ff1b0381841382841380821686840486111615611314576113146112d8565b600160ff1b6000871282811687830589121615611333576113336112d8565b6000871292508782058712848416161561134f5761134f6112d8565b87850587128184161615611365576113656112d8565b505050929093029392505050565b634e487b7160e01b600052601260045260246000fd5b60008261139857611398611373565b600160ff1b8214600019841416156113b2576113b26112d8565b500590565b634e487b7160e01b600052602160045260246000fd5b60008160001904831182151516156113e7576113e76112d8565b500290565b6020808252602f908201527f446973747269627574696f6e2077616c6c65747320617265206e6f742062656960408201526e6e67207365742070726f7065726c7960881b606082015260800190565b600060ff821660ff84168060ff03821115611458576114586112d8565b019392505050565b60008261146f5761146f611373565b500490565b600082821015611486576114866112d8565b500390565b634e487b7160e01b600052604160045260246000fd5b6000602082840312156114b357600080fd5b8151610a2e816111bf565b634e487b7160e01b600052603260045260246000fd5b600082198211156114e7576114e76112d8565b500190565b600060808201868352602060808185015281875180845260a086019150828901935060005b818110156115365784516001600160a01b031683529383019391830191600101611511565b50506001600160a01b039690961660408501525050506060015292915050565b6000602080838503121561156957600080fd5b825167ffffffffffffffff8082111561158157600080fd5b818501915085601f83011261159557600080fd5b8151818111156115a7576115a761148b565b8060051b604051601f19603f830116810181811085821117156115cc576115cc61148b565b6040529182528482019250838101850191888311156115ea57600080fd5b938501935b82851015611608578451845293850193928501926115ef565b9897505050505050505056fea2646970667358221220c4b817bfdf9560c248874008eb54af81a6089edf936985c7d674c1dde1cab03e64736f6c634300080f0033",
  "devdoc": {
    "kind": "dev",
    "methods": {
      "owner()": {
        "details": "Returns the address of the current owner."
      },
      "renounceOwnership()": {
        "details": "Leaves the contract without owner. It will not be possible to call `onlyOwner` functions anymore. Can only be called by the current owner. NOTE: Renouncing ownership will leave the contract without an owner, thereby removing any functionality that is only available to the owner."
      },
      "transferOwnership(address)": {
        "details": "Transfers ownership of the contract to a new account (`newOwner`). Can only be called by the current owner."
      }
    },
    "version": 1
  },
  "userdoc": {
    "kind": "user",
    "methods": {},
    "version": 1
  },
  "storageLayout": {
    "storage": [
      {
        "astId": 53,
        "contract": "contracts/Planetmoon/CampaignFeeManager.sol:CampaignFeeManager",
        "label": "_owner",
        "offset": 0,
        "slot": "0",
        "type": "t_address"
      },
      {
        "astId": 8587,
        "contract": "contracts/Planetmoon/CampaignFeeManager.sol:CampaignFeeManager",
        "label": "priceFeed",
        "offset": 0,
        "slot": "1",
        "type": "t_contract(AggregatorV3Interface)45"
      },
      {
        "astId": 8628,
        "contract": "contracts/Planetmoon/CampaignFeeManager.sol:CampaignFeeManager",
        "label": "uniswapV2Router",
        "offset": 0,
        "slot": "2",
        "type": "t_contract(IUniswapV2Router02)15999"
      },
      {
        "astId": 7010,
        "contract": "contracts/Planetmoon/CampaignFeeManager.sol:CampaignFeeManager",
        "label": "campaingFee",
        "offset": 0,
        "slot": "3",
        "type": "t_mapping(t_enum(CampaignCategories)16015,t_uint256)"
      },
      {
        "astId": 7015,
        "contract": "contracts/Planetmoon/CampaignFeeManager.sol:CampaignFeeManager",
        "label": "unStakingFee",
        "offset": 0,
        "slot": "4",
        "type": "t_mapping(t_enum(UnstakingCategories)16006,t_uint256)"
      },
      {
        "astId": 7027,
        "contract": "contracts/Planetmoon/CampaignFeeManager.sol:CampaignFeeManager",
        "label": "feeDistributionShares",
        "offset": 0,
        "slot": "5",
        "type": "t_struct(FeeDistributionShares)7034_storage"
      },
      {
        "astId": 7037,
        "contract": "contracts/Planetmoon/CampaignFeeManager.sol:CampaignFeeManager",
        "label": "feeDistributionWallets",
        "offset": 0,
        "slot": "6",
        "type": "t_struct(FeeDistributionWallets)7046_storage"
      }
    ],
    "types": {
      "t_address": {
        "encoding": "inplace",
        "label": "address",
        "numberOfBytes": "20"
      },
      "t_address_payable": {
        "encoding": "inplace",
        "label": "address payable",
        "numberOfBytes": "20"
      },
      "t_contract(AggregatorV3Interface)45": {
        "encoding": "inplace",
        "label": "contract AggregatorV3Interface",
        "numberOfBytes": "20"
      },
      "t_contract(IUniswapV2Router02)15999": {
        "encoding": "inplace",
        "label": "contract IUniswapV2Router02",
        "numberOfBytes": "20"
      },
      "t_enum(CampaignCategories)16015": {
        "encoding": "inplace",
        "label": "enum StakingLibrary.CampaignCategories",
        "numberOfBytes": "1"
      },
      "t_enum(UnstakingCategories)16006": {
        "encoding": "inplace",
        "label": "enum StakingLibrary.UnstakingCategories",
        "numberOfBytes": "1"
      },
      "t_mapping(t_enum(CampaignCategories)16015,t_uint256)": {
        "encoding": "mapping",
        "key": "t_enum(CampaignCategories)16015",
        "label": "mapping(enum StakingLibrary.CampaignCategories => uint256)",
        "numberOfBytes": "32",
        "value": "t_uint256"
      },
      "t_mapping(t_enum(UnstakingCategories)16006,t_uint256)": {
        "encoding": "mapping",
        "key": "t_enum(UnstakingCategories)16006",
        "label": "mapping(enum StakingLibrary.UnstakingCategories => uint256)",
        "numberOfBytes": "32",
        "value": "t_uint256"
      },
      "t_struct(FeeDistributionShares)7034_storage": {
        "encoding": "inplace",
        "label": "struct CampaignFeeManager.FeeDistributionShares",
        "members": [
          {
            "astId": 7029,
            "contract": "contracts/Planetmoon/CampaignFeeManager.sol:CampaignFeeManager",
            "label": "buyBackAndburn",
            "offset": 0,
            "slot": "0",
            "type": "t_uint8"
          },
          {
            "astId": 7031,
            "contract": "contracts/Planetmoon/CampaignFeeManager.sol:CampaignFeeManager",
            "label": "rewardPool",
            "offset": 1,
            "slot": "0",
            "type": "t_uint8"
          },
          {
            "astId": 7033,
            "contract": "contracts/Planetmoon/CampaignFeeManager.sol:CampaignFeeManager",
            "label": "corporate",
            "offset": 2,
            "slot": "0",
            "type": "t_uint8"
          }
        ],
        "numberOfBytes": "32"
      },
      "t_struct(FeeDistributionWallets)7046_storage": {
        "encoding": "inplace",
        "label": "struct CampaignFeeManager.FeeDistributionWallets",
        "members": [
          {
            "astId": 7039,
            "contract": "contracts/Planetmoon/CampaignFeeManager.sol:CampaignFeeManager",
            "label": "rewardPool",
            "offset": 0,
            "slot": "0",
            "type": "t_address_payable"
          },
          {
            "astId": 7041,
            "contract": "contracts/Planetmoon/CampaignFeeManager.sol:CampaignFeeManager",
            "label": "corporate",
            "offset": 0,
            "slot": "1",
            "type": "t_address_payable"
          },
          {
            "astId": 7043,
            "contract": "contracts/Planetmoon/CampaignFeeManager.sol:CampaignFeeManager",
            "label": "buyBackAndburnToken",
            "offset": 0,
            "slot": "2",
            "type": "t_address"
          },
          {
            "astId": 7045,
            "contract": "contracts/Planetmoon/CampaignFeeManager.sol:CampaignFeeManager",
            "label": "buyBackReceiver",
            "offset": 0,
            "slot": "3",
            "type": "t_address"
          }
        ],
        "numberOfBytes": "128"
      },
      "t_uint256": {
        "encoding": "inplace",
        "label": "uint256",
        "numberOfBytes": "32"
      },
      "t_uint8": {
        "encoding": "inplace",
        "label": "uint8",
        "numberOfBytes": "1"
      }
    }
  }
}