{
  "address": "0x7a8321fA84D5D79A2A664fB56D4D5ded8cD94513",
  "abi": [
    {
      "inputs": [
        {
          "internalType": "uint256",
          "name": "silver",
          "type": "uint256"
        },
        {
          "internalType": "uint256",
          "name": "gold",
          "type": "uint256"
        },
        {
          "internalType": "uint256",
          "name": "diamond",
          "type": "uint256"
        },
        {
          "internalType": "uint256",
          "name": "reward_0pc",
          "type": "uint256"
        },
        {
          "internalType": "uint256",
          "name": "reward_30pc",
          "type": "uint256"
        },
        {
          "internalType": "uint256",
          "name": "reward_50pc",
          "type": "uint256"
        },
        {
          "internalType": "uint256",
          "name": "reward_100pc",
          "type": "uint256"
        }
      ],
      "stateMutability": "nonpayable",
      "type": "constructor"
    },
    {
      "anonymous": false,
      "inputs": [
        {
          "indexed": true,
          "internalType": "address",
          "name": "previousOwner",
          "type": "address"
        },
        {
          "indexed": true,
          "internalType": "address",
          "name": "newOwner",
          "type": "address"
        }
      ],
      "name": "OwnershipTransferred",
      "type": "event"
    },
    {
      "anonymous": false,
      "inputs": [
        {
          "indexed": false,
          "internalType": "address",
          "name": "",
          "type": "address"
        },
        {
          "indexed": false,
          "internalType": "uint256",
          "name": "",
          "type": "uint256"
        }
      ],
      "name": "Received",
      "type": "event"
    },
    {
      "inputs": [],
      "name": "SplitFunds",
      "outputs": [],
      "stateMutability": "nonpayable",
      "type": "function"
    },
    {
      "inputs": [
        {
          "internalType": "enum StakingLibrary.CampaignCategories",
          "name": "",
          "type": "uint8"
        }
      ],
      "name": "campaingFee",
      "outputs": [
        {
          "internalType": "uint256",
          "name": "",
          "type": "uint256"
        }
      ],
      "stateMutability": "view",
      "type": "function"
    },
    {
      "inputs": [],
      "name": "emergencyWithdraw",
      "outputs": [],
      "stateMutability": "nonpayable",
      "type": "function"
    },
    {
      "inputs": [],
      "name": "feeDistributionScheme",
      "outputs": [
        {
          "internalType": "uint8",
          "name": "buyBackAndburn",
          "type": "uint8"
        },
        {
          "internalType": "uint8",
          "name": "rewardPool",
          "type": "uint8"
        },
        {
          "internalType": "uint8",
          "name": "corporate",
          "type": "uint8"
        }
      ],
      "stateMutability": "view",
      "type": "function"
    },
    {
      "inputs": [],
      "name": "feeDistributionWallets",
      "outputs": [
        {
          "internalType": "address payable",
          "name": "buyBackAndburn",
          "type": "address"
        },
        {
          "internalType": "address payable",
          "name": "rewardPool",
          "type": "address"
        },
        {
          "internalType": "address payable",
          "name": "corporate",
          "type": "address"
        },
        {
          "internalType": "address",
          "name": "buyBackReceiver",
          "type": "address"
        }
      ],
      "stateMutability": "view",
      "type": "function"
    },
    {
      "inputs": [
        {
          "internalType": "enum CampaignFeeManager.FeesType",
          "name": "feeType",
          "type": "uint8"
        }
      ],
      "name": "getAllCampaignFees",
      "outputs": [
        {
          "internalType": "uint256",
          "name": "silver",
          "type": "uint256"
        },
        {
          "internalType": "uint256",
          "name": "gold",
          "type": "uint256"
        },
        {
          "internalType": "uint256",
          "name": "diamond",
          "type": "uint256"
        }
      ],
      "stateMutability": "view",
      "type": "function"
    },
    {
      "inputs": [
        {
          "internalType": "enum CampaignFeeManager.FeesType",
          "name": "feeType",
          "type": "uint8"
        }
      ],
      "name": "getAllUnstakingFees",
      "outputs": [
        {
          "internalType": "uint256",
          "name": "reward_0pc",
          "type": "uint256"
        },
        {
          "internalType": "uint256",
          "name": "reward_30pc",
          "type": "uint256"
        },
        {
          "internalType": "uint256",
          "name": "reward_50pc",
          "type": "uint256"
        },
        {
          "internalType": "uint256",
          "name": "reward_100pc",
          "type": "uint256"
        }
      ],
      "stateMutability": "view",
      "type": "function"
    },
    {
      "inputs": [
        {
          "internalType": "enum StakingLibrary.CampaignCategories",
          "name": "category",
          "type": "uint8"
        }
      ],
      "name": "getCampaignFee",
      "outputs": [
        {
          "internalType": "uint256",
          "name": "",
          "type": "uint256"
        }
      ],
      "stateMutability": "view",
      "type": "function"
    },
    {
      "inputs": [],
      "name": "getLatestPriceOfOneUSD",
      "outputs": [
        {
          "internalType": "int256",
          "name": "price",
          "type": "int256"
        }
      ],
      "stateMutability": "pure",
      "type": "function"
    },
    {
      "inputs": [
        {
          "internalType": "enum StakingLibrary.UnstakingCategories",
          "name": "category",
          "type": "uint8"
        }
      ],
      "name": "getUnstakingFee",
      "outputs": [
        {
          "internalType": "uint256",
          "name": "",
          "type": "uint256"
        }
      ],
      "stateMutability": "view",
      "type": "function"
    },
    {
      "inputs": [],
      "name": "owner",
      "outputs": [
        {
          "internalType": "address",
          "name": "",
          "type": "address"
        }
      ],
      "stateMutability": "view",
      "type": "function"
    },
    {
      "inputs": [],
      "name": "renounceOwnership",
      "outputs": [],
      "stateMutability": "nonpayable",
      "type": "function"
    },
    {
      "inputs": [
        {
          "internalType": "uint256",
          "name": "silver",
          "type": "uint256"
        },
        {
          "internalType": "uint256",
          "name": "gold",
          "type": "uint256"
        },
        {
          "internalType": "uint256",
          "name": "diamond",
          "type": "uint256"
        }
      ],
      "name": "setCampaignFees",
      "outputs": [],
      "stateMutability": "nonpayable",
      "type": "function"
    },
    {
      "inputs": [
        {
          "internalType": "uint8",
          "name": "buyBackAndburn",
          "type": "uint8"
        },
        {
          "internalType": "uint8",
          "name": "rewardPool",
          "type": "uint8"
        },
        {
          "internalType": "uint8",
          "name": "corporate",
          "type": "uint8"
        }
      ],
      "name": "setDistributionScheme",
      "outputs": [],
      "stateMutability": "nonpayable",
      "type": "function"
    },
    {
      "inputs": [
        {
          "internalType": "address",
          "name": "buyBackAndburn",
          "type": "address"
        },
        {
          "internalType": "address",
          "name": "rewardPool",
          "type": "address"
        },
        {
          "internalType": "address",
          "name": "corporate",
          "type": "address"
        },
        {
          "internalType": "address",
          "name": "buyBackReceiver",
          "type": "address"
        }
      ],
      "name": "setFeeDistributionWallets",
      "outputs": [],
      "stateMutability": "nonpayable",
      "type": "function"
    },
    {
      "inputs": [
        {
          "internalType": "contract IUniswapV2Router02",
          "name": "_uniswapV2Router",
          "type": "address"
        }
      ],
      "name": "setRouter",
      "outputs": [],
      "stateMutability": "nonpayable",
      "type": "function"
    },
    {
      "inputs": [
        {
          "internalType": "uint256",
          "name": "reward_0pc",
          "type": "uint256"
        },
        {
          "internalType": "uint256",
          "name": "reward_30pc",
          "type": "uint256"
        },
        {
          "internalType": "uint256",
          "name": "reward_50pc",
          "type": "uint256"
        },
        {
          "internalType": "uint256",
          "name": "reward_100pc",
          "type": "uint256"
        }
      ],
      "name": "setUnstakingFees",
      "outputs": [],
      "stateMutability": "nonpayable",
      "type": "function"
    },
    {
      "inputs": [
        {
          "internalType": "address",
          "name": "newOwner",
          "type": "address"
        }
      ],
      "name": "transferOwnership",
      "outputs": [],
      "stateMutability": "nonpayable",
      "type": "function"
    },
    {
      "inputs": [
        {
          "internalType": "enum StakingLibrary.UnstakingCategories",
          "name": "",
          "type": "uint8"
        }
      ],
      "name": "unStakingFee",
      "outputs": [
        {
          "internalType": "uint256",
          "name": "",
          "type": "uint256"
        }
      ],
      "stateMutability": "view",
      "type": "function"
    },
    {
      "inputs": [],
      "name": "uniswapV2Router",
      "outputs": [
        {
          "internalType": "contract IUniswapV2Router02",
          "name": "",
          "type": "address"
        }
      ],
      "stateMutability": "view",
      "type": "function"
    },
    {
      "stateMutability": "payable",
      "type": "receive"
    }
  ],
  "transactionHash": "0x1cf4a5a93b5435dc55c53fcb9aa803fbccc50680ab96bbfc4ec1982a98bed2a2",
  "args": [
    "0",
    "0",
    "0",
    "0",
    "0",
    "0",
    "0"
  ],
  "numDeployments": 1,
  "solcInputHash": "e61dfc8c28feed11111b89b9ad43a47f",
  "bytecode": "0x6080604052600180546001600160a01b031990811673d4a33860578de61dbabdc8bfdb98fd742fa7028e1790915560028054909116737a250d5630b4cf539739df2c5dacb4c659f2488d17905534801561005857600080fd5b5060405161144d38038061144d833981016040819052610077916101d6565b61008033610186565b7f3617319a054d772f909f7c479a2cebe5066e836a939412e32403c99029b92eff969096557fa15bc60c955c405d20d9149c709e2460f1c2d9a497496a7f46004d1772c3054c949094557fc3a24b0501bd2c13a7e57f2db4369ec4c223447539fc0724a9d55ac4a06ebd4d9290925560046020527f17ef568e3e12ab5b9c7254a8d58478811de00f9e6eb34345acd53bf8fd09d3ec557fabd6e7cb50984ff9c2f3e18a2660c3353dadf4e3291deeb275dae2cd1e44fe05557f91da3fd0782e51c6b3986e9e672fd566868e71f3dbc2d6c2cd6fbb3e361af2a75560036000527f2e174c10e159ea99b867ce3205125c24a42d128804e4070ed6fcc8cc98166aa05561022a565b600080546001600160a01b038381166001600160a01b0319831681178455604051919092169283917f8be0079c531659141344cd1fd0a4f28419497f9722a3daafe3b4186f6b6457e09190a35050565b600080600080600080600060e0888a0312156101f157600080fd5b5050855160208701516040880151606089015160808a015160a08b015160c0909b0151949c939b50919990985090965094509092509050565b611214806102396000396000f3fe6080604052600436106101235760003560e01c8063715018a6116100a0578063c0d7865511610064578063c0d78655146103cb578063c390a314146103eb578063c691068d14610418578063db2e21bc1461047e578063f2fde38b1461049357600080fd5b8063715018a6146103385780637d2b6fe11461034d5780638da5cb5b1461036d578063a1d8f53c1461038b578063abe98363146103ab57600080fd5b806329a3bcbf116100e757806329a3bcbf146102945780633b6a8f1d146102ab5780635072d33d146102cb57806358041b57146102f857806370085f5c1461031857600080fd5b806302a64a4b146101675780630e3cab5a146101905780630f6b2cf4146101d05780631694505e1461020b578063178e8e3d1461024357600080fd5b3661016257604080513381523460208201527f88a5966d370b9919b20f3e2c13ff65706f196a4e32cc2c12bf57088f88525874910160405180910390a1005b600080fd5b34801561017357600080fd5b506602b0614fb6df5b5b6040519081526020015b60405180910390f35b34801561019c57600080fd5b506101b06101ab366004610e29565b6104b3565b604080519485526020850193909352918301526060820152608001610187565b3480156101dc57600080fd5b506101f06101eb366004610e29565b61059f565b60408051938452602084019290925290820152606001610187565b34801561021757600080fd5b5060025461022b906001600160a01b031681565b6040516001600160a01b039091168152602001610187565b34801561024f57600080fd5b506005546102709060ff808216916101008104821691620100009091041683565b6040805160ff94851681529284166020840152921691810191909152606001610187565b3480156102a057600080fd5b506102a961065d565b005b3480156102b757600080fd5b5061017d6102c6366004610e4a565b610864565b3480156102d757600080fd5b5061017d6102e6366004610e4a565b60046020526000908152604090205481565b34801561030457600080fd5b506102a9610313366004610e81565b6108b5565b34801561032457600080fd5b506102a9610333366004610ec4565b6108f3565b34801561034457600080fd5b506102a9610970565b34801561035957600080fd5b506102a9610368366004610ef0565b610984565b34801561037957600080fd5b506000546001600160a01b031661022b565b34801561039757600080fd5b506102a96103a6366004610f37565b610a26565b3480156103b757600080fd5b5061017d6103c6366004610f93565b610a7e565b3480156103d757600080fd5b506102a96103e6366004610fb4565b610aaf565b3480156103f757600080fd5b5061017d610406366004610f93565b60036020526000908152604090205481565b34801561042457600080fd5b5060065460075460085460095461044b936001600160a01b03908116938116928116911684565b604080516001600160a01b0395861681529385166020850152918416918301919091529091166060820152608001610187565b34801561048a57600080fd5b506102a9610ad9565b34801561049f57600080fd5b506102a96104ae366004610fb4565b610b76565b60046020527f17ef568e3e12ab5b9c7254a8d58478811de00f9e6eb34345acd53bf8fd09d3ec547fabd6e7cb50984ff9c2f3e18a2660c3353dadf4e3291deeb275dae2cd1e44fe05547f91da3fd0782e51c6b3986e9e672fd566868e71f3dbc2d6c2cd6fbb3e361af2a75460036000527f2e174c10e159ea99b867ce3205125c24a42d128804e4070ed6fcc8cc98166aa0546001858181111561055857610558610fd1565b1415610598576602b0614fb6df5b6105708186610ffd565b945061057c8185610ffd565b93506105888184610ffd565b92506105948183610ffd565b9150505b9193509193565b60036020527f3617319a054d772f909f7c479a2cebe5066e836a939412e32403c99029b92eff547fa15bc60c955c405d20d9149c709e2460f1c2d9a497496a7f46004d1772c3054c5460026000527fc3a24b0501bd2c13a7e57f2db4369ec4c223447539fc0724a9d55ac4a06ebd4d546001848181111561062257610622610fd1565b1415610656576602b0614fb6df5b61063a8185610ffd565b93506106468184610ffd565b92506106528183610ffd565b9150505b9193909250565b610665610bef565b6006546001600160a01b03161580159061068957506007546001600160a01b031615155b801561069f57506008546001600160a01b031615155b80156106b557506009546001600160a01b031615155b6107155760405162461bcd60e51b815260206004820152602660248201527f446973747269627574696f6e2077616c6c65747320617265206e6f74206265696044820152651b99c81cd95d60d21b60648201526084015b60405180910390fd5b47806107635760405162461bcd60e51b815260206004820152601e60248201527f4e6f2062616c616e63652061766169616c626c6520666f722073706c69740000604482015260640161070c565b60055460009060649061077f9062010000900460ff1684610ffd565b610789919061101c565b6005549091506000906064906107a790610100900460ff1685610ffd565b6107b1919061101c565b90506000816107c0848661103e565b6107ca919061103e565b6008546040519192506001600160a01b03169084156108fc029085906000818181858888f19350505050158015610805573d6000803e3d6000fd5b506007546040516001600160a01b039091169083156108fc029084906000818181858888f19350505050158015610840573d6000803e3d6000fd5b5060065460095461085e916001600160a01b03908116911683610c49565b50505050565b60006602b0614fb6df5b8060048385600381111561088457610884610fd1565b600381111561089557610895610fd1565b8152602001908152602001600020546108ae9190610ffd565b9392505050565b6108bd610bef565b6005805460ff94851661ffff1990911617610100938516939093029290921762ff00001916620100009190931602919091179055565b6108fb610bef565b60036020527f3617319a054d772f909f7c479a2cebe5066e836a939412e32403c99029b92eff929092557fa15bc60c955c405d20d9149c709e2460f1c2d9a497496a7f46004d1772c3054c5560026000527fc3a24b0501bd2c13a7e57f2db4369ec4c223447539fc0724a9d55ac4a06ebd4d55565b610978610bef565b6109826000610dd9565b565b61098c610bef565b60046020527f17ef568e3e12ab5b9c7254a8d58478811de00f9e6eb34345acd53bf8fd09d3ec939093557fabd6e7cb50984ff9c2f3e18a2660c3353dadf4e3291deeb275dae2cd1e44fe05919091557f91da3fd0782e51c6b3986e9e672fd566868e71f3dbc2d6c2cd6fbb3e361af2a75560036000527f2e174c10e159ea99b867ce3205125c24a42d128804e4070ed6fcc8cc98166aa055565b610a2e610bef565b600680546001600160a01b039586166001600160a01b0319918216179091556007805494861694821694909417909355600880549285169284169290921790915560098054919093169116179055565b60006602b0614fb6df5b80600383856002811115610a9e57610a9e610fd1565b600281111561089557610895610fd1565b610ab7610bef565b600280546001600160a01b0319166001600160a01b0392909216919091179055565b610ae1610bef565b4780610b395760405162461bcd60e51b815260206004820152602160248201527f4e6f2062616c616e63652061766169616c626c6520666f7220776974686472616044820152607760f81b606482015260840161070c565b600080546040516001600160a01b039091169183156108fc02918491818181858888f19350505050158015610b72573d6000803e3d6000fd5b5050565b610b7e610bef565b6001600160a01b038116610be35760405162461bcd60e51b815260206004820152602660248201527f4f776e61626c653a206e6577206f776e657220697320746865207a65726f206160448201526564647265737360d01b606482015260840161070c565b610bec81610dd9565b50565b6000546001600160a01b031633146109825760405162461bcd60e51b815260206004820181905260248201527f4f776e61626c653a2063616c6c6572206973206e6f7420746865206f776e6572604482015260640161070c565b6040805160028082526060820183526000926020830190803683375050600254604080516315ab88c960e31b815290519394506001600160a01b039091169263ad5c464892506004808301926020929190829003018186803b158015610cae57600080fd5b505afa158015610cc2573d6000803e3d6000fd5b505050506040513d601f19601f82011682018060405250810190610ce6919061106b565b81600081518110610cf957610cf9611088565b60200260200101906001600160a01b031690816001600160a01b0316815250508381600181518110610d2d57610d2d611088565b6001600160a01b03928316602091820292909201015260025416637ff36ab58360008487610d5d426101f461109e565b6040518663ffffffff1660e01b8152600401610d7c94939291906110b6565b6000604051808303818588803b158015610d9557600080fd5b505af1158015610da9573d6000803e3d6000fd5b50505050506040513d6000823e601f3d908101601f19168201604052610dd29190810190611120565b5050505050565b600080546001600160a01b038381166001600160a01b0319831681178455604051919092169283917f8be0079c531659141344cd1fd0a4f28419497f9722a3daafe3b4186f6b6457e09190a35050565b600060208284031215610e3b57600080fd5b8135600281106108ae57600080fd5b600060208284031215610e5c57600080fd5b8135600481106108ae57600080fd5b803560ff81168114610e7c57600080fd5b919050565b600080600060608486031215610e9657600080fd5b610e9f84610e6b565b9250610ead60208501610e6b565b9150610ebb60408501610e6b565b90509250925092565b600080600060608486031215610ed957600080fd5b505081359360208301359350604090920135919050565b60008060008060808587031215610f0657600080fd5b5050823594602084013594506040840135936060013592509050565b6001600160a01b0381168114610bec57600080fd5b60008060008060808587031215610f4d57600080fd5b8435610f5881610f22565b93506020850135610f6881610f22565b92506040850135610f7881610f22565b91506060850135610f8881610f22565b939692955090935050565b600060208284031215610fa557600080fd5b8135600381106108ae57600080fd5b600060208284031215610fc657600080fd5b81356108ae81610f22565b634e487b7160e01b600052602160045260246000fd5b634e487b7160e01b600052601160045260246000fd5b600081600019048311821515161561101757611017610fe7565b500290565b60008261103957634e487b7160e01b600052601260045260246000fd5b500490565b60008282101561105057611050610fe7565b500390565b634e487b7160e01b600052604160045260246000fd5b60006020828403121561107d57600080fd5b81516108ae81610f22565b634e487b7160e01b600052603260045260246000fd5b600082198211156110b1576110b1610fe7565b500190565b600060808201868352602060808185015281875180845260a086019150828901935060005b818110156111005784516001600160a01b0316835293830193918301916001016110db565b50506001600160a01b039690961660408501525050506060015292915050565b6000602080838503121561113357600080fd5b825167ffffffffffffffff8082111561114b57600080fd5b818501915085601f83011261115f57600080fd5b81518181111561117157611171611055565b8060051b604051601f19603f8301168101818110858211171561119657611196611055565b6040529182528482019250838101850191888311156111b457600080fd5b938501935b828510156111d2578451845293850193928501926111b9565b9897505050505050505056fea2646970667358221220cfd1eeccc8e6f3726ac9c74aa9e9caaa3b5ff63877017d6e1477bf12bac8865664736f6c63430008090033",
  "devdoc": {
    "kind": "dev",
    "methods": {
      "owner()": {
        "details": "Returns the address of the current owner."
      },
      "renounceOwnership()": {
        "details": "Leaves the contract without owner. It will not be possible to call `onlyOwner` functions anymore. Can only be called by the current owner. NOTE: Renouncing ownership will leave the contract without an owner, thereby removing any functionality that is only available to the owner."
      },
      "transferOwnership(address)": {
        "details": "Transfers ownership of the contract to a new account (`newOwner`). Can only be called by the current owner."
      }
    },
    "version": 1
  },
  "userdoc": {
    "kind": "user",
    "methods": {},
    "notice": "Network: BNB Chain Mainnet Aggregator: BNB/USD Address: 0x0567F2323251f0Aab15c8dFb1967E4e8A7D42aeE",
    "version": 1
  },
  "storageLayout": {
    "storage": [
      {
        "astId": 53,
        "contract": "contracts/Planetmoon/CampaignFeeManager.sol:CampaignFeeManager",
        "label": "_owner",
        "offset": 0,
        "slot": "0",
        "type": "t_address"
      },
      {
        "astId": 7016,
        "contract": "contracts/Planetmoon/CampaignFeeManager.sol:CampaignFeeManager",
        "label": "priceFeed",
        "offset": 0,
        "slot": "1",
        "type": "t_contract(AggregatorV3Interface)45"
      },
      {
        "astId": 7022,
        "contract": "contracts/Planetmoon/CampaignFeeManager.sol:CampaignFeeManager",
        "label": "uniswapV2Router",
        "offset": 0,
        "slot": "2",
        "type": "t_contract(IUniswapV2Router02)10816"
      },
      {
        "astId": 7027,
        "contract": "contracts/Planetmoon/CampaignFeeManager.sol:CampaignFeeManager",
        "label": "campaingFee",
        "offset": 0,
        "slot": "3",
        "type": "t_mapping(t_enum(CampaignCategories)10832,t_uint256)"
      },
      {
        "astId": 7032,
        "contract": "contracts/Planetmoon/CampaignFeeManager.sol:CampaignFeeManager",
        "label": "unStakingFee",
        "offset": 0,
        "slot": "4",
        "type": "t_mapping(t_enum(UnstakingCategories)10823,t_uint256)"
      },
      {
        "astId": 7044,
        "contract": "contracts/Planetmoon/CampaignFeeManager.sol:CampaignFeeManager",
        "label": "feeDistributionScheme",
        "offset": 0,
        "slot": "5",
        "type": "t_struct(FeeDistributionScheme)7051_storage"
      },
      {
        "astId": 7054,
        "contract": "contracts/Planetmoon/CampaignFeeManager.sol:CampaignFeeManager",
        "label": "feeDistributionWallets",
        "offset": 0,
        "slot": "6",
        "type": "t_struct(FeeDistributionWallets)7063_storage"
      }
    ],
    "types": {
      "t_address": {
        "encoding": "inplace",
        "label": "address",
        "numberOfBytes": "20"
      },
      "t_address_payable": {
        "encoding": "inplace",
        "label": "address payable",
        "numberOfBytes": "20"
      },
      "t_contract(AggregatorV3Interface)45": {
        "encoding": "inplace",
        "label": "contract AggregatorV3Interface",
        "numberOfBytes": "20"
      },
      "t_contract(IUniswapV2Router02)10816": {
        "encoding": "inplace",
        "label": "contract IUniswapV2Router02",
        "numberOfBytes": "20"
      },
      "t_enum(CampaignCategories)10832": {
        "encoding": "inplace",
        "label": "enum StakingLibrary.CampaignCategories",
        "numberOfBytes": "1"
      },
      "t_enum(UnstakingCategories)10823": {
        "encoding": "inplace",
        "label": "enum StakingLibrary.UnstakingCategories",
        "numberOfBytes": "1"
      },
      "t_mapping(t_enum(CampaignCategories)10832,t_uint256)": {
        "encoding": "mapping",
        "key": "t_enum(CampaignCategories)10832",
        "label": "mapping(enum StakingLibrary.CampaignCategories => uint256)",
        "numberOfBytes": "32",
        "value": "t_uint256"
      },
      "t_mapping(t_enum(UnstakingCategories)10823,t_uint256)": {
        "encoding": "mapping",
        "key": "t_enum(UnstakingCategories)10823",
        "label": "mapping(enum StakingLibrary.UnstakingCategories => uint256)",
        "numberOfBytes": "32",
        "value": "t_uint256"
      },
      "t_struct(FeeDistributionScheme)7051_storage": {
        "encoding": "inplace",
        "label": "struct CampaignFeeManager.FeeDistributionScheme",
        "members": [
          {
            "astId": 7046,
            "contract": "contracts/Planetmoon/CampaignFeeManager.sol:CampaignFeeManager",
            "label": "buyBackAndburn",
            "offset": 0,
            "slot": "0",
            "type": "t_uint8"
          },
          {
            "astId": 7048,
            "contract": "contracts/Planetmoon/CampaignFeeManager.sol:CampaignFeeManager",
            "label": "rewardPool",
            "offset": 1,
            "slot": "0",
            "type": "t_uint8"
          },
          {
            "astId": 7050,
            "contract": "contracts/Planetmoon/CampaignFeeManager.sol:CampaignFeeManager",
            "label": "corporate",
            "offset": 2,
            "slot": "0",
            "type": "t_uint8"
          }
        ],
        "numberOfBytes": "32"
      },
      "t_struct(FeeDistributionWallets)7063_storage": {
        "encoding": "inplace",
        "label": "struct CampaignFeeManager.FeeDistributionWallets",
        "members": [
          {
            "astId": 7056,
            "contract": "contracts/Planetmoon/CampaignFeeManager.sol:CampaignFeeManager",
            "label": "buyBackAndburn",
            "offset": 0,
            "slot": "0",
            "type": "t_address_payable"
          },
          {
            "astId": 7058,
            "contract": "contracts/Planetmoon/CampaignFeeManager.sol:CampaignFeeManager",
            "label": "rewardPool",
            "offset": 0,
            "slot": "1",
            "type": "t_address_payable"
          },
          {
            "astId": 7060,
            "contract": "contracts/Planetmoon/CampaignFeeManager.sol:CampaignFeeManager",
            "label": "corporate",
            "offset": 0,
            "slot": "2",
            "type": "t_address_payable"
          },
          {
            "astId": 7062,
            "contract": "contracts/Planetmoon/CampaignFeeManager.sol:CampaignFeeManager",
            "label": "buyBackReceiver",
            "offset": 0,
            "slot": "3",
            "type": "t_address"
          }
        ],
        "numberOfBytes": "128"
      },
      "t_uint256": {
        "encoding": "inplace",
        "label": "uint256",
        "numberOfBytes": "32"
      },
      "t_uint8": {
        "encoding": "inplace",
        "label": "uint8",
        "numberOfBytes": "1"
      }
    }
  }
}