{
  "address": "0xf8a8Acfea832Cd265d26e31BAB411b03B01180e6",
  "abi": [
    {
      "inputs": [],
      "name": "CreatorManager__ALREADY_EXIST",
      "type": "error"
    },
    {
      "inputs": [],
      "name": "CreatorManager__NOT_EXIST",
      "type": "error"
    },
    {
      "anonymous": false,
      "inputs": [
        {
          "indexed": false,
          "internalType": "address",
          "name": "user",
          "type": "address"
        },
        {
          "indexed": false,
          "internalType": "address",
          "name": "creator",
          "type": "address"
        }
      ],
      "name": "CreatorCreated",
      "type": "event"
    },
    {
      "inputs": [
        {
          "internalType": "address",
          "name": "user",
          "type": "address"
        }
      ],
      "name": "createACreator",
      "outputs": [
        {
          "internalType": "address",
          "name": "",
          "type": "address"
        }
      ],
      "stateMutability": "nonpayable",
      "type": "function"
    },
    {
      "inputs": [
        {
          "internalType": "address",
          "name": "user",
          "type": "address"
        }
      ],
      "name": "getCreatorAddressOfUser",
      "outputs": [
        {
          "internalType": "address",
          "name": "",
          "type": "address"
        }
      ],
      "stateMutability": "view",
      "type": "function"
    },
    {
      "inputs": [
        {
          "internalType": "address",
          "name": "user",
          "type": "address"
        }
      ],
      "name": "getPoolAddressesOfCreator",
      "outputs": [
        {
          "internalType": "address[]",
          "name": "",
          "type": "address[]"
        }
      ],
      "stateMutability": "view",
      "type": "function"
    },
    {
      "inputs": [
        {
          "internalType": "address",
          "name": "creator",
          "type": "address"
        }
      ],
      "name": "getWalletAddressOfCreator",
      "outputs": [
        {
          "internalType": "address",
          "name": "",
          "type": "address"
        }
      ],
      "stateMutability": "view",
      "type": "function"
    }
  ],
  "transactionHash": "0x7a400b3304f4f6b65213ffb2620bbc90fce77731e82a6ea4296a85dfcf626ddb",
  "args": [],
  "numDeployments": 1,
  "solcInputHash": "6f70cc6159e2047674f7d9b58e11ac41",
  "bytecode": "0x608060405234801561001057600080fd5b50610df5806100206000396000f3fe608060405234801561001057600080fd5b506004361061004c5760003560e01c8063209fba0f146100515780632c09e39214610081578063865c79a9146100ad578063c6ddee24146100cd575b600080fd5b61006461005f366004610310565b6100e0565b6040516001600160a01b0390911681526020015b60405180910390f35b61006461008f366004610310565b6001600160a01b039081166000908152600160205260409020541690565b6100c06100bb366004610310565b610139565b604051610078919061032d565b6100646100db366004610310565b6101e2565b6001600160a01b0381811660009081526002602052604081205490911661011a5760405163312d19bf60e21b815260040160405180910390fd5b506001600160a01b039081166000908152600260205260409020541690565b6001600160a01b0380821660009081526001602052604090205460609116806101755760405163312d19bf60e21b815260040160405180910390fd5b806001600160a01b031663e4b6db4c6040518163ffffffff1660e01b8152600401600060405180830381865afa1580156101b3573d6000803e3d6000fd5b505050506040513d6000823e601f3d908101601f191682016040526101db91908101906103a0565b9392505050565b6001600160a01b038181166000908152600160205260408120549091161561021d57604051636250ec4d60e01b815260040160405180910390fd5b600060405161022b906102eb565b604051809103906000f080158015610247573d6000803e3d6000fd5b506001600160a01b03808516600081815260016020908152604080832080549587166001600160a01b03199687168117909155835260029091528120805490931690911790915580549192508061029d83610465565b9091555050604080516001600160a01b038086168252831660208201527f2cf58b2dfc67dd9fd9d3be318ce396658897594c9e8d321599127060601c9a95910160405180910390a192915050565b6109338061048d83390190565b6001600160a01b038116811461030d57600080fd5b50565b60006020828403121561032257600080fd5b81356101db816102f8565b6020808252825182820181905260009190848201906040850190845b8181101561036e5783516001600160a01b031683529284019291840191600101610349565b50909695505050505050565b634e487b7160e01b600052604160045260246000fd5b805161039b816102f8565b919050565b600060208083850312156103b357600080fd5b825167ffffffffffffffff808211156103cb57600080fd5b818501915085601f8301126103df57600080fd5b8151818111156103f1576103f161037a565b8060051b604051601f19603f830116810181811085821117156104165761041661037a565b60405291825284820192508381018501918883111561043457600080fd5b938501935b828510156104595761044a85610390565b84529385019392850192610439565b98975050505050505050565b60006001820161048557634e487b7160e01b600052601160045260246000fd5b506001019056fe608060405234801561001057600080fd5b50610913806100206000396000f3fe608060405234801561001057600080fd5b50600436106100415760003560e01c8063150b7a0214610046578063affd9aba14610077578063e4b6db4c1461009a575b600080fd5b610059610054366004610551565b6100af565b6040516001600160e01b031990911681526020015b60405180910390f35b61008a610085366004610600565b6100e4565b604051901515815260200161006e565b6100a261028c565b60405161006e919061062c565b60148101516000906100c1828261029d565b6100d2576100d06000826102c4565b505b50630a85bd0160e11b95945050505050565b60405163b09afec160e01b81526004810182905260009081906001600160a01b0385169063b09afec190602401600060405180830381865afa15801561012e573d6000803e3d6000fd5b505050506040513d6000823e601f3d908101601f19168201604052610156919081019061071e565b80519091506001600160a01b031633146101835760405163dc467f7760e01b815260040160405180910390fd5b60608101516080820151604080840151905163a9059cbb60e01b81526001600160a01b039283166004820152602481019190915291169063a9059cbb906044016020604051808303816000875af11580156101e2573d6000803e3d6000fd5b505050506040513d601f19601f82011682018060405250810190610206919061085c565b6040516370a0823160e01b81523060048201529092506001600160a01b038516906370a0823190602401602060405180830381865afa15801561024d573d6000803e3d6000fd5b505050506040513d601f19601f820116820180604052508101906102719190610877565b600003610285576102836000856102d9565b505b5092915050565b606061029860006102ee565b905090565b6001600160a01b038116600090815260018301602052604081205415155b90505b92915050565b60006102bb836001600160a01b038416610302565b60006102bb836001600160a01b038416610351565b606060006102fb83610444565b9392505050565b6000818152600183016020526040812054610349575081546001818101845560008481526020808220909301849055845484825282860190935260409020919091556102be565b5060006102be565b6000818152600183016020526040812054801561043a576000610375600183610890565b855490915060009061038990600190610890565b90508181146103ee5760008660000182815481106103a9576103a96108b1565b90600052602060002001549050808760000184815481106103cc576103cc6108b1565b6000918252602080832090910192909255918252600188019052604090208390555b85548690806103ff576103ff6108c7565b6001900381819060005260206000200160009055905585600101600086815260200190815260200160002060009055600193505050506102be565b60009150506102be565b60608160000180548060200260200160405190810160405280929190818152602001828054801561049457602002820191906000526020600020905b815481526020019060010190808311610480575b50505050509050919050565b6001600160a01b03811681146104b557600080fd5b50565b634e487b7160e01b600052604160045260246000fd5b6040516101e0810167ffffffffffffffff811182821017156104f2576104f26104b8565b60405290565b604051601f8201601f1916810167ffffffffffffffff81118282101715610521576105216104b8565b604052919050565b600067ffffffffffffffff821115610543576105436104b8565b50601f01601f191660200190565b6000806000806080858703121561056757600080fd5b8435610572816104a0565b93506020850135610582816104a0565b925060408501359150606085013567ffffffffffffffff8111156105a557600080fd5b8501601f810187136105b657600080fd5b80356105c96105c482610529565b6104f8565b8181528860208385010111156105de57600080fd5b8160208401602083013760006020838301015280935050505092959194509250565b6000806040838503121561061357600080fd5b823561061e816104a0565b946020939093013593505050565b6020808252825182820181905260009190848201906040850190845b8181101561066d5783516001600160a01b031683529284019291840191600101610648565b50909695505050505050565b8051610684816104a0565b919050565b600082601f83011261069a57600080fd5b81516106a86105c482610529565b818152602085818487010111156106be57600080fd5b60005b838110156106dc5785810182015183820183015281016106c1565b50600092820101919091529392505050565b80516005811061068457600080fd5b8051801515811461068457600080fd5b805160ff8116811461068457600080fd5b60006020828403121561073057600080fd5b815167ffffffffffffffff8082111561074857600080fd5b908301906101e0828603121561075d57600080fd5b6107656104ce565b61076e83610679565b8152602083015160208201526040830151604082015261079060608401610679565b60608201526107a160808401610679565b60808201526107b260a08401610679565b60a082015260c083015160c082015260e0830151828111156107d357600080fd5b6107df87828601610689565b60e08301525061010091506107f58284016106ee565b918101919091526101208281015190820152610140808301519082015261016080830151908201526101809061082c8284016106fd565b828201526101a0915081830151828201526101c0915061084d82840161070d565b91810191909152949350505050565b60006020828403121561086e57600080fd5b6102bb826106fd565b60006020828403121561088957600080fd5b5051919050565b818103818111156102be57634e487b7160e01b600052601160045260246000fd5b634e487b7160e01b600052603260045260246000fd5b634e487b7160e01b600052603160045260246000fdfea26469706673582212200d59c8e9b4cd29afc45ebb8ce19a6c847cdce46eedfbabc3d84b08314a678c2664736f6c63430008120033a26469706673582212200a6f3e3410e03ecc0bf8ba274135673cb1a3e2c0c36bdf634258f24225dcc22564736f6c63430008120033",
  "devdoc": {
    "kind": "dev",
    "methods": {},
    "version": 1
  },
  "userdoc": {
    "kind": "user",
    "methods": {},
    "version": 1
  },
  "storageLayout": {
    "storage": [
      {
        "astId": 3998,
        "contract": "contracts/CreatorContract/CreatorManager.sol:CreatorManager",
        "label": "s_creatorsCount",
        "offset": 0,
        "slot": "0",
        "type": "t_uint256"
      },
      {
        "astId": 4003,
        "contract": "contracts/CreatorContract/CreatorManager.sol:CreatorManager",
        "label": "s_creatorAddress",
        "offset": 0,
        "slot": "1",
        "type": "t_mapping(t_address,t_contract(CreatorContract)3988)"
      },
      {
        "astId": 4007,
        "contract": "contracts/CreatorContract/CreatorManager.sol:CreatorManager",
        "label": "s_walletAddress",
        "offset": 0,
        "slot": "2",
        "type": "t_mapping(t_address,t_address)"
      }
    ],
    "types": {
      "t_address": {
        "encoding": "inplace",
        "label": "address",
        "numberOfBytes": "20"
      },
      "t_contract(CreatorContract)3988": {
        "encoding": "inplace",
        "label": "contract CreatorContract",
        "numberOfBytes": "20"
      },
      "t_mapping(t_address,t_address)": {
        "encoding": "mapping",
        "key": "t_address",
        "label": "mapping(address => address)",
        "numberOfBytes": "32",
        "value": "t_address"
      },
      "t_mapping(t_address,t_contract(CreatorContract)3988)": {
        "encoding": "mapping",
        "key": "t_address",
        "label": "mapping(address => contract CreatorContract)",
        "numberOfBytes": "32",
        "value": "t_contract(CreatorContract)3988"
      },
      "t_uint256": {
        "encoding": "inplace",
        "label": "uint256",
        "numberOfBytes": "32"
      }
    }
  }
}