{
  "address": "0xe2ce88117e8CF66a7b96d3525AF3d8382634e07E",
  "abi": [
    {
      "inputs": [
        {
          "internalType": "uint256",
          "name": "regular",
          "type": "uint256"
        },
        {
          "internalType": "uint256",
          "name": "upgrade",
          "type": "uint256"
        },
        {
          "internalType": "uint256",
          "name": "premium",
          "type": "uint256"
        },
        {
          "internalType": "uint256",
          "name": "team",
          "type": "uint256"
        }
      ],
      "stateMutability": "nonpayable",
      "type": "constructor"
    },
    {
      "anonymous": false,
      "inputs": [
        {
          "indexed": true,
          "internalType": "address",
          "name": "previousOwner",
          "type": "address"
        },
        {
          "indexed": true,
          "internalType": "address",
          "name": "newOwner",
          "type": "address"
        }
      ],
      "name": "OwnershipTransferred",
      "type": "event"
    },
    {
      "anonymous": false,
      "inputs": [
        {
          "indexed": false,
          "internalType": "address",
          "name": "",
          "type": "address"
        },
        {
          "indexed": false,
          "internalType": "uint256",
          "name": "",
          "type": "uint256"
        }
      ],
      "name": "Received",
      "type": "event"
    },
    {
      "inputs": [],
      "name": "SplitFunds",
      "outputs": [],
      "stateMutability": "nonpayable",
      "type": "function"
    },
    {
      "inputs": [],
      "name": "emergencyWithdraw",
      "outputs": [],
      "stateMutability": "nonpayable",
      "type": "function"
    },
    {
      "inputs": [],
      "name": "feeDistributionShares",
      "outputs": [
        {
          "internalType": "uint8",
          "name": "buyBackAndburn",
          "type": "uint8"
        },
        {
          "internalType": "uint8",
          "name": "rewardPool",
          "type": "uint8"
        },
        {
          "internalType": "uint8",
          "name": "corporate",
          "type": "uint8"
        }
      ],
      "stateMutability": "view",
      "type": "function"
    },
    {
      "inputs": [],
      "name": "feeDistributionWallets",
      "outputs": [
        {
          "internalType": "address payable",
          "name": "rewardPool",
          "type": "address"
        },
        {
          "internalType": "address payable",
          "name": "corporate",
          "type": "address"
        },
        {
          "internalType": "address",
          "name": "buyBackAndburnToken",
          "type": "address"
        },
        {
          "internalType": "address",
          "name": "buyBackReceiver",
          "type": "address"
        }
      ],
      "stateMutability": "view",
      "type": "function"
    },
    {
      "inputs": [
        {
          "internalType": "enum MembershipFeeManager.FeesType",
          "name": "feeType",
          "type": "uint8"
        }
      ],
      "name": "getAllFees",
      "outputs": [
        {
          "internalType": "uint256",
          "name": "regular",
          "type": "uint256"
        },
        {
          "internalType": "uint256",
          "name": "upgrade",
          "type": "uint256"
        },
        {
          "internalType": "uint256",
          "name": "premium",
          "type": "uint256"
        },
        {
          "internalType": "uint256",
          "name": "team",
          "type": "uint256"
        }
      ],
      "stateMutability": "view",
      "type": "function"
    },
    {
      "inputs": [],
      "name": "getLatestPriceOfOneUSD",
      "outputs": [
        {
          "internalType": "int256",
          "name": "price",
          "type": "int256"
        }
      ],
      "stateMutability": "view",
      "type": "function"
    },
    {
      "inputs": [
        {
          "internalType": "enum StakingLibrary.MembershipCategories",
          "name": "category",
          "type": "uint8"
        }
      ],
      "name": "getMembershipFee",
      "outputs": [
        {
          "internalType": "uint256",
          "name": "",
          "type": "uint256"
        }
      ],
      "stateMutability": "view",
      "type": "function"
    },
    {
      "inputs": [
        {
          "internalType": "enum StakingLibrary.MembershipCategories",
          "name": "",
          "type": "uint8"
        }
      ],
      "name": "membershipFee",
      "outputs": [
        {
          "internalType": "uint256",
          "name": "",
          "type": "uint256"
        }
      ],
      "stateMutability": "view",
      "type": "function"
    },
    {
      "inputs": [],
      "name": "owner",
      "outputs": [
        {
          "internalType": "address",
          "name": "",
          "type": "address"
        }
      ],
      "stateMutability": "view",
      "type": "function"
    },
    {
      "inputs": [],
      "name": "renounceOwnership",
      "outputs": [],
      "stateMutability": "nonpayable",
      "type": "function"
    },
    {
      "inputs": [
        {
          "internalType": "uint8",
          "name": "buyBackAndburn",
          "type": "uint8"
        },
        {
          "internalType": "uint8",
          "name": "rewardPool",
          "type": "uint8"
        },
        {
          "internalType": "uint8",
          "name": "corporate",
          "type": "uint8"
        }
      ],
      "name": "setFeeDistributionShares",
      "outputs": [],
      "stateMutability": "nonpayable",
      "type": "function"
    },
    {
      "inputs": [
        {
          "internalType": "address",
          "name": "rewardPool",
          "type": "address"
        },
        {
          "internalType": "address",
          "name": "corporate",
          "type": "address"
        },
        {
          "internalType": "address",
          "name": "buyBackAndburnToken",
          "type": "address"
        },
        {
          "internalType": "address",
          "name": "buyBackReceiver",
          "type": "address"
        }
      ],
      "name": "setFeeDistributionWallets",
      "outputs": [],
      "stateMutability": "nonpayable",
      "type": "function"
    },
    {
      "inputs": [
        {
          "internalType": "uint256",
          "name": "regular",
          "type": "uint256"
        },
        {
          "internalType": "uint256",
          "name": "upgrade",
          "type": "uint256"
        },
        {
          "internalType": "uint256",
          "name": "premium",
          "type": "uint256"
        },
        {
          "internalType": "uint256",
          "name": "team",
          "type": "uint256"
        }
      ],
      "name": "setMembershipFee",
      "outputs": [],
      "stateMutability": "nonpayable",
      "type": "function"
    },
    {
      "inputs": [
        {
          "internalType": "contract IUniswapV2Router02",
          "name": "_uniswapV2Router",
          "type": "address"
        }
      ],
      "name": "setRouter",
      "outputs": [],
      "stateMutability": "nonpayable",
      "type": "function"
    },
    {
      "inputs": [
        {
          "internalType": "address",
          "name": "newOwner",
          "type": "address"
        }
      ],
      "name": "transferOwnership",
      "outputs": [],
      "stateMutability": "nonpayable",
      "type": "function"
    },
    {
      "inputs": [],
      "name": "uniswapV2Router",
      "outputs": [
        {
          "internalType": "contract IUniswapV2Router02",
          "name": "",
          "type": "address"
        }
      ],
      "stateMutability": "view",
      "type": "function"
    },
    {
      "stateMutability": "payable",
      "type": "receive"
    }
  ],
  "transactionHash": "0x777c3576b840740efaec3b1e51dffef3a4bf3b877068989bd53c4d86b8947524",
  "args": [
    "3",
    "2",
    "5",
    "8"
  ],
  "numDeployments": 1,
  "solcInputHash": "d2038625921aa2e8a69487c20d93043d",
  "bytecode": "0x6080604052600180546001600160a01b031990811673d4a33860578de61dbabdc8bfdb98fd742fa7028e1790915560028054909116737a250d5630b4cf539739df2c5dacb4c659f2488d17905534801561005857600080fd5b5060405161157538038061157583398101604081905261007791610170565b61008033610120565b600360208190527f3617319a054d772f909f7c479a2cebe5066e836a939412e32403c99029b92eff949094557fa15bc60c955c405d20d9149c709e2460f1c2d9a497496a7f46004d1772c3054c929092557fc3a24b0501bd2c13a7e57f2db4369ec4c223447539fc0724a9d55ac4a06ebd4d556000919091527fcbc4e5fb02c3d1de23a9f1e014b4d2ee5aeaea9505df5e855c9210bf472495af556101a6565b600080546001600160a01b038381166001600160a01b0319831681178455604051919092169283917f8be0079c531659141344cd1fd0a4f28419497f9722a3daafe3b4186f6b6457e09190a35050565b6000806000806080858703121561018657600080fd5b505082516020840151604085015160609095015191969095509092509050565b6113c0806101b56000396000f3fe6080604052600436106100f75760003560e01c80638da5cb5b1161008a578063c691068d11610059578063c691068d14610316578063db2e21bc1461037c578063f2fde38b14610391578063f6dfc669146103b157600080fd5b80638da5cb5b146102985780639b5e831a146102b6578063a1d8f53c146102d6578063c0d78655146102f657600080fd5b806347dd490a116100c657806347dd490a146102035780635e1129c1146102235780636680649d14610243578063715018a61461028357600080fd5b806302a64a4b1461013b5780631694505e1461016357806329a3bcbf1461019b5780632d08c256146101b257600080fd5b3661013657604080513381523460208201527f88a5966d370b9919b20f3e2c13ff65706f196a4e32cc2c12bf57088f88525874910160405180910390a1005b600080fd5b34801561014757600080fd5b506101506103de565b6040519081526020015b60405180910390f35b34801561016f57600080fd5b50600254610183906001600160a01b031681565b6040516001600160a01b03909116815260200161015a565b3480156101a757600080fd5b506101b061047e565b005b3480156101be57600080fd5b506004546101df9060ff808216916101008104821691620100009091041683565b6040805160ff9485168152928416602084015292169181019190915260600161015a565b34801561020f57600080fd5b506101b061021e366004610e9f565b61075c565b34801561022f57600080fd5b506101b061023e366004610ee2565b610834565b34801561024f57600080fd5b5061026361025e366004610f14565b6108d9565b60408051948552602085019390935291830152606082015260800161015a565b34801561028f57600080fd5b506101b06109cf565b3480156102a457600080fd5b506000546001600160a01b0316610183565b3480156102c257600080fd5b506101506102d1366004610f35565b6109e3565b3480156102e257600080fd5b506101b06102f1366004610f6b565b610a38565b34801561030257600080fd5b506101b0610311366004610fc7565b610af4565b34801561032257600080fd5b50600554600654600754600854610349936001600160a01b03908116938116928116911684565b604080516001600160a01b039586168152938516602085015291841691830191909152909116606082015260800161015a565b34801561038857600080fd5b506101b0610b1e565b34801561039d57600080fd5b506101b06103ac366004610fc7565b610bbb565b3480156103bd57600080fd5b506101506103cc366004610f35565b60036020526000908152604090205481565b60015460408051633fabe5a360e21b815290516000926001600160a01b03169163feaf968c9160048083019260a09291908290030181865afa158015610428573d6000803e3d6000fd5b505050506040513d601f19601f8201168201806040525081019061044c9190610ffe565b50919350670de0b6b3a7640000925083915061046e9050826305f5e100611064565b61047891906110ff565b91505090565b610486610c34565b604080516080810182526005546001600160a01b039081168252600654811660208084019190915260075482168385015260085482166060808501919091528451908101855260045460ff808216835261010082048116938301939093526201000090049091169381019390935281519192911615801590610514575060208201516001600160a01b031615155b801561052c575060408201516001600160a01b031615155b8015610544575060608201516001600160a01b031615155b6105695760405162461bcd60e51b81526004016105609061112d565b60405180910390fd5b6000816040015160ff1611801561058757506000816020015160ff16115b80156105b557506040810151602082015182516105a4919061117c565b6105ae919061117c565b60ff166064145b6106165760405162461bcd60e51b815260206004820152602c60248201527f446973747269627574696f6e206665657320617265206e6f74206265696e672060448201526b7365742070726f7065726c7960a01b6064820152608401610560565b47806106645760405162461bcd60e51b815260206004820152601e60248201527f4e6f2062616c616e63652061766169616c626c6520666f722073706c697400006044820152606401610560565b60006064836040015160ff168361067b91906111a1565b61068591906111c0565b905060006064846020015160ff168461069e91906111a1565b6106a891906111c0565b90506000816106b784866111d4565b6106c191906111d4565b60208701516040519192506001600160a01b03169084156108fc029085906000818181858888f193505050501580156106fe573d6000803e3d6000fd5b5085516040516001600160a01b039091169083156108fc029084906000818181858888f19350505050158015610738573d6000803e3d6000fd5b508015610754576107528660400151876060015183610c8e565b505b505050505050565b610764610c34565b60008160ff1611801561077a575060008260ff16115b801561079d57508061078c838561117c565b610796919061117c565b60ff166064145b6107fe5760405162461bcd60e51b815260206004820152602c60248201527f446973747269627574696f6e206665657320617265206e6f7420616464696e6760448201526b20757020746f20313030706360a01b6064820152608401610560565b6004805460ff94851661ffff1990911617610100938516939093029290921762ff00001916620100009190931602919091179055565b61083c610c34565b600360208190527f3617319a054d772f909f7c479a2cebe5066e836a939412e32403c99029b92eff949094557fa15bc60c955c405d20d9149c709e2460f1c2d9a497496a7f46004d1772c3054c929092557fc3a24b0501bd2c13a7e57f2db4369ec4c223447539fc0724a9d55ac4a06ebd4d556000919091527fcbc4e5fb02c3d1de23a9f1e014b4d2ee5aeaea9505df5e855c9210bf472495af55565b600360208190527f3617319a054d772f909f7c479a2cebe5066e836a939412e32403c99029b92eff547fa15bc60c955c405d20d9149c709e2460f1c2d9a497496a7f46004d1772c3054c547fc3a24b0501bd2c13a7e57f2db4369ec4c223447539fc0724a9d55ac4a06ebd4d546000939093527fcbc4e5fb02c3d1de23a9f1e014b4d2ee5aeaea9505df5e855c9210bf472495af549192909160018581811115610985576109856111eb565b036109c85760006109946103de565b90506109a081866111a1565b94506109ac81856111a1565b93506109b881846111a1565b92506109c481836111a1565b9150505b9193509193565b6109d7610c34565b6109e16000610e39565b565b6000806109ee6103de565b90508060036000856003811115610a0757610a076111eb565b6003811115610a1857610a186111eb565b815260200190815260200160002054610a3191906111a1565b9392505050565b610a40610c34565b6001600160a01b03841615801590610a6057506001600160a01b03831615155b8015610a7457506001600160a01b03821615155b8015610a8857506001600160a01b03811615155b610aa45760405162461bcd60e51b81526004016105609061112d565b600580546001600160a01b039586166001600160a01b0319918216179091556006805494861694821694909417909355600780549285169284169290921790915560088054919093169116179055565b610afc610c34565b600280546001600160a01b0319166001600160a01b0392909216919091179055565b610b26610c34565b4780610b7e5760405162461bcd60e51b815260206004820152602160248201527f4e6f2062616c616e63652061766169616c626c6520666f7220776974686472616044820152607760f81b6064820152608401610560565b600080546040516001600160a01b039091169183156108fc02918491818181858888f19350505050158015610bb7573d6000803e3d6000fd5b5050565b610bc3610c34565b6001600160a01b038116610c285760405162461bcd60e51b815260206004820152602660248201527f4f776e61626c653a206e6577206f776e657220697320746865207a65726f206160448201526564647265737360d01b6064820152608401610560565b610c3181610e39565b50565b6000546001600160a01b031633146109e15760405162461bcd60e51b815260206004820181905260248201527f4f776e61626c653a2063616c6c6572206973206e6f7420746865206f776e65726044820152606401610560565b604080516002808252606082018352600092839291906020830190803683375050600254604080516315ab88c960e31b815290519394506001600160a01b039091169263ad5c4648925060048083019260209291908290030181865afa158015610cfc573d6000803e3d6000fd5b505050506040513d601f19601f82011682018060405250810190610d209190611217565b81600081518110610d3357610d33611234565b60200260200101906001600160a01b031690816001600160a01b0316815250508481600181518110610d6757610d67611234565b6001600160a01b03928316602091820292909201015260025460009116637ff36ab585838589610d99426101f461124a565b6040518663ffffffff1660e01b8152600401610db89493929190611262565b60006040518083038185885af1158015610dd6573d6000803e3d6000fd5b50505050506040513d6000823e601f3d908101601f19168201604052610dff91908101906112cc565b905060008160018351610e1291906111d4565b81518110610e2257610e22611234565b602002602001015190508093505050509392505050565b600080546001600160a01b038381166001600160a01b0319831681178455604051919092169283917f8be0079c531659141344cd1fd0a4f28419497f9722a3daafe3b4186f6b6457e09190a35050565b803560ff81168114610e9a57600080fd5b919050565b600080600060608486031215610eb457600080fd5b610ebd84610e89565b9250610ecb60208501610e89565b9150610ed960408501610e89565b90509250925092565b60008060008060808587031215610ef857600080fd5b5050823594602084013594506040840135936060013592509050565b600060208284031215610f2657600080fd5b813560028110610a3157600080fd5b600060208284031215610f4757600080fd5b813560048110610a3157600080fd5b6001600160a01b0381168114610c3157600080fd5b60008060008060808587031215610f8157600080fd5b8435610f8c81610f56565b93506020850135610f9c81610f56565b92506040850135610fac81610f56565b91506060850135610fbc81610f56565b939692955090935050565b600060208284031215610fd957600080fd5b8135610a3181610f56565b805169ffffffffffffffffffff81168114610e9a57600080fd5b600080600080600060a0868803121561101657600080fd5b61101f86610fe4565b945060208601519350604086015192506060860151915061104260808701610fe4565b90509295509295909350565b634e487b7160e01b600052601160045260246000fd5b60006001600160ff1b038184138284138082168684048611161561108a5761108a61104e565b600160ff1b60008712828116878305891216156110a9576110a961104e565b600087129250878205871284841616156110c5576110c561104e565b878505871281841616156110db576110db61104e565b505050929093029392505050565b634e487b7160e01b600052601260045260246000fd5b60008261110e5761110e6110e9565b600160ff1b8214600019841416156111285761112861104e565b500590565b6020808252602f908201527f446973747269627574696f6e2077616c6c65747320617265206e6f742062656960408201526e6e67207365742070726f7065726c7960881b606082015260800190565b600060ff821660ff84168060ff038211156111995761119961104e565b019392505050565b60008160001904831182151516156111bb576111bb61104e565b500290565b6000826111cf576111cf6110e9565b500490565b6000828210156111e6576111e661104e565b500390565b634e487b7160e01b600052602160045260246000fd5b634e487b7160e01b600052604160045260246000fd5b60006020828403121561122957600080fd5b8151610a3181610f56565b634e487b7160e01b600052603260045260246000fd5b6000821982111561125d5761125d61104e565b500190565b600060808201868352602060808185015281875180845260a086019150828901935060005b818110156112ac5784516001600160a01b031683529383019391830191600101611287565b50506001600160a01b039690961660408501525050506060015292915050565b600060208083850312156112df57600080fd5b825167ffffffffffffffff808211156112f757600080fd5b818501915085601f83011261130b57600080fd5b81518181111561131d5761131d611201565b8060051b604051601f19603f8301168101818110858211171561134257611342611201565b60405291825284820192508381018501918883111561136057600080fd5b938501935b8285101561137e57845184529385019392850192611365565b9897505050505050505056fea2646970667358221220034be745783c643b95fa1fcfecb25b549f1272cba5e67aefa7efd2190fff81d764736f6c634300080f0033",
  "devdoc": {
    "kind": "dev",
    "methods": {
      "owner()": {
        "details": "Returns the address of the current owner."
      },
      "renounceOwnership()": {
        "details": "Leaves the contract without owner. It will not be possible to call `onlyOwner` functions anymore. Can only be called by the current owner. NOTE: Renouncing ownership will leave the contract without an owner, thereby removing any functionality that is only available to the owner."
      },
      "transferOwnership(address)": {
        "details": "Transfers ownership of the contract to a new account (`newOwner`). Can only be called by the current owner."
      }
    },
    "version": 1
  },
  "userdoc": {
    "kind": "user",
    "methods": {},
    "version": 1
  },
  "storageLayout": {
    "storage": [
      {
        "astId": 53,
        "contract": "contracts/Planetmoon/MembershipFeeManager.sol:MembershipFeeManager",
        "label": "_owner",
        "offset": 0,
        "slot": "0",
        "type": "t_address"
      },
      {
        "astId": 8587,
        "contract": "contracts/Planetmoon/MembershipFeeManager.sol:MembershipFeeManager",
        "label": "priceFeed",
        "offset": 0,
        "slot": "1",
        "type": "t_contract(AggregatorV3Interface)45"
      },
      {
        "astId": 8628,
        "contract": "contracts/Planetmoon/MembershipFeeManager.sol:MembershipFeeManager",
        "label": "uniswapV2Router",
        "offset": 0,
        "slot": "2",
        "type": "t_contract(IUniswapV2Router02)15999"
      },
      {
        "astId": 7733,
        "contract": "contracts/Planetmoon/MembershipFeeManager.sol:MembershipFeeManager",
        "label": "membershipFee",
        "offset": 0,
        "slot": "3",
        "type": "t_mapping(t_enum(MembershipCategories)16011,t_uint256)"
      },
      {
        "astId": 7745,
        "contract": "contracts/Planetmoon/MembershipFeeManager.sol:MembershipFeeManager",
        "label": "feeDistributionShares",
        "offset": 0,
        "slot": "4",
        "type": "t_struct(FeeDistributionShares)7752_storage"
      },
      {
        "astId": 7755,
        "contract": "contracts/Planetmoon/MembershipFeeManager.sol:MembershipFeeManager",
        "label": "feeDistributionWallets",
        "offset": 0,
        "slot": "5",
        "type": "t_struct(FeeDistributionWallets)7764_storage"
      }
    ],
    "types": {
      "t_address": {
        "encoding": "inplace",
        "label": "address",
        "numberOfBytes": "20"
      },
      "t_address_payable": {
        "encoding": "inplace",
        "label": "address payable",
        "numberOfBytes": "20"
      },
      "t_contract(AggregatorV3Interface)45": {
        "encoding": "inplace",
        "label": "contract AggregatorV3Interface",
        "numberOfBytes": "20"
      },
      "t_contract(IUniswapV2Router02)15999": {
        "encoding": "inplace",
        "label": "contract IUniswapV2Router02",
        "numberOfBytes": "20"
      },
      "t_enum(MembershipCategories)16011": {
        "encoding": "inplace",
        "label": "enum StakingLibrary.MembershipCategories",
        "numberOfBytes": "1"
      },
      "t_mapping(t_enum(MembershipCategories)16011,t_uint256)": {
        "encoding": "mapping",
        "key": "t_enum(MembershipCategories)16011",
        "label": "mapping(enum StakingLibrary.MembershipCategories => uint256)",
        "numberOfBytes": "32",
        "value": "t_uint256"
      },
      "t_struct(FeeDistributionShares)7752_storage": {
        "encoding": "inplace",
        "label": "struct MembershipFeeManager.FeeDistributionShares",
        "members": [
          {
            "astId": 7747,
            "contract": "contracts/Planetmoon/MembershipFeeManager.sol:MembershipFeeManager",
            "label": "buyBackAndburn",
            "offset": 0,
            "slot": "0",
            "type": "t_uint8"
          },
          {
            "astId": 7749,
            "contract": "contracts/Planetmoon/MembershipFeeManager.sol:MembershipFeeManager",
            "label": "rewardPool",
            "offset": 1,
            "slot": "0",
            "type": "t_uint8"
          },
          {
            "astId": 7751,
            "contract": "contracts/Planetmoon/MembershipFeeManager.sol:MembershipFeeManager",
            "label": "corporate",
            "offset": 2,
            "slot": "0",
            "type": "t_uint8"
          }
        ],
        "numberOfBytes": "32"
      },
      "t_struct(FeeDistributionWallets)7764_storage": {
        "encoding": "inplace",
        "label": "struct MembershipFeeManager.FeeDistributionWallets",
        "members": [
          {
            "astId": 7757,
            "contract": "contracts/Planetmoon/MembershipFeeManager.sol:MembershipFeeManager",
            "label": "rewardPool",
            "offset": 0,
            "slot": "0",
            "type": "t_address_payable"
          },
          {
            "astId": 7759,
            "contract": "contracts/Planetmoon/MembershipFeeManager.sol:MembershipFeeManager",
            "label": "corporate",
            "offset": 0,
            "slot": "1",
            "type": "t_address_payable"
          },
          {
            "astId": 7761,
            "contract": "contracts/Planetmoon/MembershipFeeManager.sol:MembershipFeeManager",
            "label": "buyBackAndburnToken",
            "offset": 0,
            "slot": "2",
            "type": "t_address"
          },
          {
            "astId": 7763,
            "contract": "contracts/Planetmoon/MembershipFeeManager.sol:MembershipFeeManager",
            "label": "buyBackReceiver",
            "offset": 0,
            "slot": "3",
            "type": "t_address"
          }
        ],
        "numberOfBytes": "128"
      },
      "t_uint256": {
        "encoding": "inplace",
        "label": "uint256",
        "numberOfBytes": "32"
      },
      "t_uint8": {
        "encoding": "inplace",
        "label": "uint8",
        "numberOfBytes": "1"
      }
    }
  }
}