{
  "address": "0x36fF9E3cD4d353282185377A1E06aEc4940a9eDc",
  "abi": [
    {
      "inputs": [
        {
          "internalType": "uint256",
          "name": "member",
          "type": "uint256"
        },
        {
          "internalType": "uint256",
          "name": "team",
          "type": "uint256"
        }
      ],
      "stateMutability": "nonpayable",
      "type": "constructor"
    },
    {
      "anonymous": false,
      "inputs": [
        {
          "indexed": true,
          "internalType": "address",
          "name": "previousOwner",
          "type": "address"
        },
        {
          "indexed": true,
          "internalType": "address",
          "name": "newOwner",
          "type": "address"
        }
      ],
      "name": "OwnershipTransferred",
      "type": "event"
    },
    {
      "anonymous": false,
      "inputs": [
        {
          "indexed": false,
          "internalType": "address",
          "name": "",
          "type": "address"
        },
        {
          "indexed": false,
          "internalType": "uint256",
          "name": "",
          "type": "uint256"
        }
      ],
      "name": "Received",
      "type": "event"
    },
    {
      "inputs": [],
      "name": "emergencyWithdraw",
      "outputs": [],
      "stateMutability": "nonpayable",
      "type": "function"
    },
    {
      "inputs": [
        {
          "internalType": "enum PMLibrary.FeesType",
          "name": "feeType",
          "type": "uint8"
        }
      ],
      "name": "getAllFees",
      "outputs": [
        {
          "internalType": "uint256",
          "name": "member",
          "type": "uint256"
        },
        {
          "internalType": "uint256",
          "name": "team",
          "type": "uint256"
        }
      ],
      "stateMutability": "view",
      "type": "function"
    },
    {
      "inputs": [],
      "name": "getDistributionShares",
      "outputs": [
        {
          "internalType": "uint8",
          "name": "buyBackAndburn",
          "type": "uint8"
        },
        {
          "internalType": "uint8",
          "name": "rewardPool",
          "type": "uint8"
        },
        {
          "internalType": "uint8",
          "name": "corporate",
          "type": "uint8"
        }
      ],
      "stateMutability": "view",
      "type": "function"
    },
    {
      "inputs": [],
      "name": "getDistributionWallets",
      "outputs": [
        {
          "internalType": "address",
          "name": "rewardPool",
          "type": "address"
        },
        {
          "internalType": "address",
          "name": "corporate",
          "type": "address"
        },
        {
          "internalType": "address",
          "name": "buyBackAndburnToken",
          "type": "address"
        },
        {
          "internalType": "address",
          "name": "buyBackReceiver",
          "type": "address"
        }
      ],
      "stateMutability": "view",
      "type": "function"
    },
    {
      "inputs": [],
      "name": "getLatestPriceOfOneUSD",
      "outputs": [
        {
          "internalType": "int256",
          "name": "price",
          "type": "int256"
        }
      ],
      "stateMutability": "view",
      "type": "function"
    },
    {
      "inputs": [
        {
          "internalType": "enum PMLibrary.MembershipCategories",
          "name": "category",
          "type": "uint8"
        }
      ],
      "name": "getMembershipFee",
      "outputs": [
        {
          "internalType": "uint256",
          "name": "",
          "type": "uint256"
        }
      ],
      "stateMutability": "view",
      "type": "function"
    },
    {
      "inputs": [],
      "name": "owner",
      "outputs": [
        {
          "internalType": "address",
          "name": "",
          "type": "address"
        }
      ],
      "stateMutability": "view",
      "type": "function"
    },
    {
      "inputs": [],
      "name": "renounceOwnership",
      "outputs": [],
      "stateMutability": "nonpayable",
      "type": "function"
    },
    {
      "inputs": [
        {
          "internalType": "uint8",
          "name": "buyBackAndburn",
          "type": "uint8"
        },
        {
          "internalType": "uint8",
          "name": "rewardPool",
          "type": "uint8"
        },
        {
          "internalType": "uint8",
          "name": "corporate",
          "type": "uint8"
        }
      ],
      "name": "setFeeDistributionShares",
      "outputs": [],
      "stateMutability": "nonpayable",
      "type": "function"
    },
    {
      "inputs": [
        {
          "internalType": "address",
          "name": "rewardPool",
          "type": "address"
        },
        {
          "internalType": "address",
          "name": "corporate",
          "type": "address"
        },
        {
          "internalType": "address",
          "name": "buyBackAndburnToken",
          "type": "address"
        },
        {
          "internalType": "address",
          "name": "buyBackReceiver",
          "type": "address"
        }
      ],
      "name": "setFeeDistributionWallets",
      "outputs": [],
      "stateMutability": "nonpayable",
      "type": "function"
    },
    {
      "inputs": [
        {
          "internalType": "uint256",
          "name": "member",
          "type": "uint256"
        },
        {
          "internalType": "uint256",
          "name": "team",
          "type": "uint256"
        }
      ],
      "name": "setMembershipFee",
      "outputs": [],
      "stateMutability": "nonpayable",
      "type": "function"
    },
    {
      "inputs": [],
      "name": "splitFunds",
      "outputs": [],
      "stateMutability": "nonpayable",
      "type": "function"
    },
    {
      "inputs": [
        {
          "internalType": "address",
          "name": "newOwner",
          "type": "address"
        }
      ],
      "name": "transferOwnership",
      "outputs": [],
      "stateMutability": "nonpayable",
      "type": "function"
    },
    {
      "inputs": [],
      "name": "uniswapV2Router",
      "outputs": [
        {
          "internalType": "contract IUniswapV2Router02",
          "name": "",
          "type": "address"
        }
      ],
      "stateMutability": "view",
      "type": "function"
    },
    {
      "inputs": [
        {
          "internalType": "contract AggregatorV3Interface",
          "name": "_priceFeed",
          "type": "address"
        }
      ],
      "name": "updatePriceFeed",
      "outputs": [],
      "stateMutability": "nonpayable",
      "type": "function"
    },
    {
      "inputs": [
        {
          "internalType": "contract IUniswapV2Router02",
          "name": "_uniswapV2Router",
          "type": "address"
        }
      ],
      "name": "updateRouter",
      "outputs": [],
      "stateMutability": "nonpayable",
      "type": "function"
    },
    {
      "stateMutability": "payable",
      "type": "receive"
    }
  ],
  "transactionHash": "0x7958ff0bd2afaac516f0a3c84e8c05166d7f585adf341607104ab745d75102a1",
  "args": [
    "5",
    "8"
  ],
  "numDeployments": 1,
  "solcInputHash": "0fb1101042a11c55763c576911848678",
  "bytecode": "0x6080604052600180546001600160a01b031990811673694aa1769357215de4fac081bf1f309adc325306179091556002805490911673b26b2de65d07ebb5e54c7f6282424d3be670e1f017905534801561005857600080fd5b506040516113bc3803806113bc83398101604081905261007791610126565b610080336100d6565b60036020527f3617319a054d772f909f7c479a2cebe5066e836a939412e32403c99029b92eff9190915560016000527fa15bc60c955c405d20d9149c709e2460f1c2d9a497496a7f46004d1772c3054c5561014a565b600080546001600160a01b038381166001600160a01b0319831681178455604051919092169283917f8be0079c531659141344cd1fd0a4f28419497f9722a3daafe3b4186f6b6457e09190a35050565b6000806040838503121561013957600080fd5b505080516020909101519092909150565b611263806101596000396000f3fe6080604052600436106100f75760003560e01c806395877f781161008a578063c851cc3211610059578063c851cc3214610307578063cf5b2f9c14610327578063db2e21bc14610364578063f2fde38b1461037957600080fd5b806395877f78146102875780639b5e831a146102a7578063a1d8f53c146102c7578063b648b1ac146102e757600080fd5b806365b3f9b0116100c657806365b3f9b0146101d25780636680649d1461021f578063715018a6146102545780638da5cb5b1461026957600080fd5b806302a64a4b1461013b5780631694505e146101635780631b814f021461019b57806347dd490a146101b257600080fd5b3661013657604080513381523460208201527f88a5966d370b9919b20f3e2c13ff65706f196a4e32cc2c12bf57088f88525874910160405180910390a1005b600080fd5b34801561014757600080fd5b50610150610399565b6040519081526020015b60405180910390f35b34801561016f57600080fd5b50600254610183906001600160a01b031681565b6040516001600160a01b03909116815260200161015a565b3480156101a757600080fd5b506101b0610439565b005b3480156101be57600080fd5b506101b06101cd366004610dd6565b610717565b3480156101de57600080fd5b50600554600654600754600854604080516001600160a01b03958616815293851660208501529184169183019190915291909116606082015260800161015a565b34801561022b57600080fd5b5061023f61023a366004610e26565b6107ef565b6040805192835260208301919091520161015a565b34801561026057600080fd5b506101b0610881565b34801561027557600080fd5b506000546001600160a01b0316610183565b34801561029357600080fd5b506101b06102a2366004610e58565b610895565b3480156102b357600080fd5b506101506102c2366004610e26565b6108bf565b3480156102d357600080fd5b506101b06102e2366004610e75565b610914565b3480156102f357600080fd5b506101b0610302366004610ed1565b6109d0565b34801561031357600080fd5b506101b0610322366004610e58565b610a2b565b34801561033357600080fd5b506004546040805160ff8084168252610100840481166020830152620100009093049092169082015260600161015a565b34801561037057600080fd5b506101b0610a55565b34801561038557600080fd5b506101b0610394366004610e58565b610af2565b60015460408051633fabe5a360e21b815290516000926001600160a01b03169163feaf968c9160048083019260a09291908290030181865afa1580156103e3573d6000803e3d6000fd5b505050506040513d601f19601f820116820180604052508101906104079190610f0d565b50919350670de0b6b3a764000092508391506104299050826305f5e100610f73565b6104339190610fbf565b91505090565b610441610b6b565b604080516080810182526005546001600160a01b039081168252600654811660208084019190915260075482168385015260085482166060808501919091528451908101855260045460ff8082168352610100820481169383019390935262010000900490911693810193909352815191929116158015906104cf575060208201516001600160a01b031615155b80156104e7575060408201516001600160a01b031615155b80156104ff575060608201516001600160a01b031615155b6105245760405162461bcd60e51b815260040161051b90610fed565b60405180910390fd5b6000816040015160ff1611801561054257506000816020015160ff16115b8015610570575060408101516020820151825161055f919061103c565b610569919061103c565b60ff166064145b6105d15760405162461bcd60e51b815260206004820152602c60248201527f446973747269627574696f6e206665657320617265206e6f74206265696e672060448201526b7365742070726f7065726c7960a01b606482015260840161051b565b478061061f5760405162461bcd60e51b815260206004820152601e60248201527f4e6f2062616c616e63652061766169616c626c6520666f722073706c69740000604482015260640161051b565b60006064836040015160ff16836106369190611055565b610640919061106c565b905060006064846020015160ff16846106599190611055565b610663919061106c565b90506000816106728486611080565b61067c9190611080565b60208701516040519192506001600160a01b03169084156108fc029085906000818181858888f193505050501580156106b9573d6000803e3d6000fd5b5085516040516001600160a01b039091169083156108fc029084906000818181858888f193505050501580156106f3573d6000803e3d6000fd5b50801561070f5761070d8660400151876060015183610bc5565b505b505050505050565b61071f610b6b565b60008160ff16118015610735575060008260ff16115b8015610758575080610747838561103c565b610751919061103c565b60ff166064145b6107b95760405162461bcd60e51b815260206004820152602c60248201527f446973747269627574696f6e206665657320617265206e6f7420616464696e6760448201526b20757020746f20313030706360a01b606482015260840161051b565b6004805460ff94851661ffff1990911617610100938516939093029290921762ff00001916620100009190931602919091179055565b60036020527f3617319a054d772f909f7c479a2cebe5066e836a939412e32403c99029b92eff54600160008190527fa15bc60c955c405d20d9149c709e2460f1c2d9a497496a7f46004d1772c3054c5490838181111561085157610851611093565b0361087c576000610860610399565b905061086c8184611055565b92506108788183611055565b9150505b915091565b610889610b6b565b6108936000610d70565b565b61089d610b6b565b600180546001600160a01b0319166001600160a01b0392909216919091179055565b6000806108ca610399565b905080600360008560018111156108e3576108e3611093565b60018111156108f4576108f4611093565b81526020019081526020016000205461090d9190611055565b9392505050565b61091c610b6b565b6001600160a01b0384161580159061093c57506001600160a01b03831615155b801561095057506001600160a01b03821615155b801561096457506001600160a01b03811615155b6109805760405162461bcd60e51b815260040161051b90610fed565b600580546001600160a01b039586166001600160a01b0319918216179091556006805494861694821694909417909355600780549285169284169290921790915560088054919093169116179055565b6109d8610b6b565b60036020527f3617319a054d772f909f7c479a2cebe5066e836a939412e32403c99029b92eff9190915560016000527fa15bc60c955c405d20d9149c709e2460f1c2d9a497496a7f46004d1772c3054c55565b610a33610b6b565b600280546001600160a01b0319166001600160a01b0392909216919091179055565b610a5d610b6b565b4780610ab55760405162461bcd60e51b815260206004820152602160248201527f4e6f2062616c616e63652061766169616c626c6520666f7220776974686472616044820152607760f81b606482015260840161051b565b600080546040516001600160a01b039091169183156108fc02918491818181858888f19350505050158015610aee573d6000803e3d6000fd5b5050565b610afa610b6b565b6001600160a01b038116610b5f5760405162461bcd60e51b815260206004820152602660248201527f4f776e61626c653a206e6577206f776e657220697320746865207a65726f206160448201526564647265737360d01b606482015260840161051b565b610b6881610d70565b50565b6000546001600160a01b031633146108935760405162461bcd60e51b815260206004820181905260248201527f4f776e61626c653a2063616c6c6572206973206e6f7420746865206f776e6572604482015260640161051b565b604080516002808252606082018352600092839291906020830190803683375050600254604080516315ab88c960e31b815290519394506001600160a01b039091169263ad5c4648925060048083019260209291908290030181865afa158015610c33573d6000803e3d6000fd5b505050506040513d601f19601f82011682018060405250810190610c5791906110bf565b81600081518110610c6a57610c6a6110dc565b60200260200101906001600160a01b031690816001600160a01b0316815250508481600181518110610c9e57610c9e6110dc565b6001600160a01b03928316602091820292909201015260025460009116637ff36ab585838589610cd0426101f46110f2565b6040518663ffffffff1660e01b8152600401610cef9493929190611105565b60006040518083038185885af1158015610d0d573d6000803e3d6000fd5b50505050506040513d6000823e601f3d908101601f19168201604052610d36919081019061116f565b905060008160018351610d499190611080565b81518110610d5957610d596110dc565b602002602001015190508093505050509392505050565b600080546001600160a01b038381166001600160a01b0319831681178455604051919092169283917f8be0079c531659141344cd1fd0a4f28419497f9722a3daafe3b4186f6b6457e09190a35050565b803560ff81168114610dd157600080fd5b919050565b600080600060608486031215610deb57600080fd5b610df484610dc0565b9250610e0260208501610dc0565b9150610e1060408501610dc0565b90509250925092565b60028110610b6857600080fd5b600060208284031215610e3857600080fd5b813561090d81610e19565b6001600160a01b0381168114610b6857600080fd5b600060208284031215610e6a57600080fd5b813561090d81610e43565b60008060008060808587031215610e8b57600080fd5b8435610e9681610e43565b93506020850135610ea681610e43565b92506040850135610eb681610e43565b91506060850135610ec681610e43565b939692955090935050565b60008060408385031215610ee457600080fd5b50508035926020909101359150565b805169ffffffffffffffffffff81168114610dd157600080fd5b600080600080600060a08688031215610f2557600080fd5b610f2e86610ef3565b9450602086015193506040860151925060608601519150610f5160808701610ef3565b90509295509295909350565b634e487b7160e01b600052601160045260246000fd5b80820260008212600160ff1b84141615610f8f57610f8f610f5d565b8181058314821517610fa357610fa3610f5d565b92915050565b634e487b7160e01b600052601260045260246000fd5b600082610fce57610fce610fa9565b600160ff1b821460001984141615610fe857610fe8610f5d565b500590565b6020808252602f908201527f446973747269627574696f6e2077616c6c65747320617265206e6f742062656960408201526e6e67207365742070726f7065726c7960881b606082015260800190565b60ff8181168382160190811115610fa357610fa3610f5d565b8082028115828204841417610fa357610fa3610f5d565b60008261107b5761107b610fa9565b500490565b81810381811115610fa357610fa3610f5d565b634e487b7160e01b600052602160045260246000fd5b634e487b7160e01b600052604160045260246000fd5b6000602082840312156110d157600080fd5b815161090d81610e43565b634e487b7160e01b600052603260045260246000fd5b80820180821115610fa357610fa3610f5d565b600060808201868352602060808185015281875180845260a086019150828901935060005b8181101561114f5784516001600160a01b03168352938301939183019160010161112a565b50506001600160a01b039690961660408501525050506060015292915050565b6000602080838503121561118257600080fd5b825167ffffffffffffffff8082111561119a57600080fd5b818501915085601f8301126111ae57600080fd5b8151818111156111c0576111c06110a9565b8060051b604051601f19603f830116810181811085821117156111e5576111e56110a9565b60405291825284820192508381018501918883111561120357600080fd5b938501935b8285101561122157845184529385019392850192611208565b9897505050505050505056fea26469706673582212200c56ee9a59f09a834145482ad05e7bb2351a25685c35d0f6c2b5ad1c7fe5250264736f6c63430008120033",
  "devdoc": {
    "kind": "dev",
    "methods": {
      "owner()": {
        "details": "Returns the address of the current owner."
      },
      "renounceOwnership()": {
        "details": "Leaves the contract without owner. It will not be possible to call `onlyOwner` functions anymore. Can only be called by the current owner. NOTE: Renouncing ownership will leave the contract without an owner, thereby removing any functionality that is only available to the owner."
      },
      "transferOwnership(address)": {
        "details": "Transfers ownership of the contract to a new account (`newOwner`). Can only be called by the current owner."
      }
    },
    "version": 1
  },
  "userdoc": {
    "kind": "user",
    "methods": {},
    "version": 1
  },
  "storageLayout": {
    "storage": [
      {
        "astId": 53,
        "contract": "contracts/Planetmoon/MembershipFeeManager.sol:MembershipFeeManager",
        "label": "_owner",
        "offset": 0,
        "slot": "0",
        "type": "t_address"
      },
      {
        "astId": 2022,
        "contract": "contracts/Planetmoon/MembershipFeeManager.sol:MembershipFeeManager",
        "label": "priceFeed",
        "offset": 0,
        "slot": "1",
        "type": "t_contract(AggregatorV3Interface)45"
      },
      {
        "astId": 2061,
        "contract": "contracts/Planetmoon/MembershipFeeManager.sol:MembershipFeeManager",
        "label": "uniswapV2Router",
        "offset": 0,
        "slot": "2",
        "type": "t_contract(IUniswapV2Router02)2559"
      },
      {
        "astId": 1099,
        "contract": "contracts/Planetmoon/MembershipFeeManager.sol:MembershipFeeManager",
        "label": "s_membershipFee",
        "offset": 0,
        "slot": "3",
        "type": "t_mapping(t_enum(MembershipCategories)2574,t_uint256)"
      },
      {
        "astId": 1102,
        "contract": "contracts/Planetmoon/MembershipFeeManager.sol:MembershipFeeManager",
        "label": "s_feeDistributionShares",
        "offset": 0,
        "slot": "4",
        "type": "t_struct(FeeDistributionShares)1118_storage"
      },
      {
        "astId": 1105,
        "contract": "contracts/Planetmoon/MembershipFeeManager.sol:MembershipFeeManager",
        "label": "s_feeDistributionWallets",
        "offset": 0,
        "slot": "5",
        "type": "t_struct(FeeDistributionWallets)1127_storage"
      }
    ],
    "types": {
      "t_address": {
        "encoding": "inplace",
        "label": "address",
        "numberOfBytes": "20"
      },
      "t_address_payable": {
        "encoding": "inplace",
        "label": "address payable",
        "numberOfBytes": "20"
      },
      "t_contract(AggregatorV3Interface)45": {
        "encoding": "inplace",
        "label": "contract AggregatorV3Interface",
        "numberOfBytes": "20"
      },
      "t_contract(IUniswapV2Router02)2559": {
        "encoding": "inplace",
        "label": "contract IUniswapV2Router02",
        "numberOfBytes": "20"
      },
      "t_enum(MembershipCategories)2574": {
        "encoding": "inplace",
        "label": "enum PMLibrary.MembershipCategories",
        "numberOfBytes": "1"
      },
      "t_mapping(t_enum(MembershipCategories)2574,t_uint256)": {
        "encoding": "mapping",
        "key": "t_enum(MembershipCategories)2574",
        "label": "mapping(enum PMLibrary.MembershipCategories => uint256)",
        "numberOfBytes": "32",
        "value": "t_uint256"
      },
      "t_struct(FeeDistributionShares)1118_storage": {
        "encoding": "inplace",
        "label": "struct MembershipFeeManager.FeeDistributionShares",
        "members": [
          {
            "astId": 1113,
            "contract": "contracts/Planetmoon/MembershipFeeManager.sol:MembershipFeeManager",
            "label": "buyBackAndburn",
            "offset": 0,
            "slot": "0",
            "type": "t_uint8"
          },
          {
            "astId": 1115,
            "contract": "contracts/Planetmoon/MembershipFeeManager.sol:MembershipFeeManager",
            "label": "rewardPool",
            "offset": 1,
            "slot": "0",
            "type": "t_uint8"
          },
          {
            "astId": 1117,
            "contract": "contracts/Planetmoon/MembershipFeeManager.sol:MembershipFeeManager",
            "label": "corporate",
            "offset": 2,
            "slot": "0",
            "type": "t_uint8"
          }
        ],
        "numberOfBytes": "32"
      },
      "t_struct(FeeDistributionWallets)1127_storage": {
        "encoding": "inplace",
        "label": "struct MembershipFeeManager.FeeDistributionWallets",
        "members": [
          {
            "astId": 1120,
            "contract": "contracts/Planetmoon/MembershipFeeManager.sol:MembershipFeeManager",
            "label": "rewardPool",
            "offset": 0,
            "slot": "0",
            "type": "t_address_payable"
          },
          {
            "astId": 1122,
            "contract": "contracts/Planetmoon/MembershipFeeManager.sol:MembershipFeeManager",
            "label": "corporate",
            "offset": 0,
            "slot": "1",
            "type": "t_address_payable"
          },
          {
            "astId": 1124,
            "contract": "contracts/Planetmoon/MembershipFeeManager.sol:MembershipFeeManager",
            "label": "buyBackAndburnToken",
            "offset": 0,
            "slot": "2",
            "type": "t_address"
          },
          {
            "astId": 1126,
            "contract": "contracts/Planetmoon/MembershipFeeManager.sol:MembershipFeeManager",
            "label": "buyBackReceiver",
            "offset": 0,
            "slot": "3",
            "type": "t_address"
          }
        ],
        "numberOfBytes": "128"
      },
      "t_uint256": {
        "encoding": "inplace",
        "label": "uint256",
        "numberOfBytes": "32"
      },
      "t_uint8": {
        "encoding": "inplace",
        "label": "uint8",
        "numberOfBytes": "1"
      }
    }
  }
}