{
  "address": "0x3C17C3Dfe724A89b6Ca538912d7d7FFE08dBf90e",
  "abi": [
    {
      "inputs": [
        {
          "internalType": "address",
          "name": "_membershipFeeManager",
          "type": "address"
        }
      ],
      "stateMutability": "nonpayable",
      "type": "constructor"
    },
    {
      "inputs": [],
      "name": "PMMembershipManager__ALREADY_A_MEMBER",
      "type": "error"
    },
    {
      "inputs": [],
      "name": "PMMembershipManager__CONTRACT_IS_PAUSED",
      "type": "error"
    },
    {
      "inputs": [],
      "name": "PMMembershipManager__FAILED_TO_TRANSFER_BNBS",
      "type": "error"
    },
    {
      "inputs": [],
      "name": "PMMembershipManager__INSUFFICIENT_FUNDS",
      "type": "error"
    },
    {
      "inputs": [],
      "name": "PMMembershipManager__OUT_OF_RANGE",
      "type": "error"
    },
    {
      "inputs": [],
      "name": "PMMembershipManager__TOKEN_DONT_EXIST",
      "type": "error"
    },
    {
      "inputs": [],
      "name": "PMMembershipManager__TOKEN_TRANSFER_IS_BLOCKED",
      "type": "error"
    },
    {
      "anonymous": false,
      "inputs": [
        {
          "indexed": true,
          "internalType": "address",
          "name": "owner",
          "type": "address"
        },
        {
          "indexed": true,
          "internalType": "address",
          "name": "approved",
          "type": "address"
        },
        {
          "indexed": true,
          "internalType": "uint256",
          "name": "tokenId",
          "type": "uint256"
        }
      ],
      "name": "Approval",
      "type": "event"
    },
    {
      "anonymous": false,
      "inputs": [
        {
          "indexed": true,
          "internalType": "address",
          "name": "owner",
          "type": "address"
        },
        {
          "indexed": true,
          "internalType": "address",
          "name": "operator",
          "type": "address"
        },
        {
          "indexed": false,
          "internalType": "bool",
          "name": "approved",
          "type": "bool"
        }
      ],
      "name": "ApprovalForAll",
      "type": "event"
    },
    {
      "anonymous": false,
      "inputs": [
        {
          "indexed": true,
          "internalType": "address",
          "name": "previousOwner",
          "type": "address"
        },
        {
          "indexed": true,
          "internalType": "address",
          "name": "newOwner",
          "type": "address"
        }
      ],
      "name": "OwnershipTransferred",
      "type": "event"
    },
    {
      "anonymous": false,
      "inputs": [
        {
          "indexed": true,
          "internalType": "address",
          "name": "from",
          "type": "address"
        },
        {
          "indexed": true,
          "internalType": "address",
          "name": "to",
          "type": "address"
        },
        {
          "indexed": true,
          "internalType": "uint256",
          "name": "tokenId",
          "type": "uint256"
        }
      ],
      "name": "Transfer",
      "type": "event"
    },
    {
      "inputs": [
        {
          "internalType": "address",
          "name": "to",
          "type": "address"
        },
        {
          "internalType": "uint256",
          "name": "tokenId",
          "type": "uint256"
        }
      ],
      "name": "approve",
      "outputs": [],
      "stateMutability": "nonpayable",
      "type": "function"
    },
    {
      "inputs": [
        {
          "internalType": "address",
          "name": "owner",
          "type": "address"
        }
      ],
      "name": "balanceOf",
      "outputs": [
        {
          "internalType": "uint256",
          "name": "",
          "type": "uint256"
        }
      ],
      "stateMutability": "view",
      "type": "function"
    },
    {
      "inputs": [
        {
          "internalType": "address",
          "name": "to",
          "type": "address"
        }
      ],
      "name": "becomeMember",
      "outputs": [],
      "stateMutability": "payable",
      "type": "function"
    },
    {
      "inputs": [
        {
          "internalType": "bool",
          "name": "action",
          "type": "bool"
        }
      ],
      "name": "changePauseStatus",
      "outputs": [],
      "stateMutability": "nonpayable",
      "type": "function"
    },
    {
      "inputs": [
        {
          "internalType": "uint256",
          "name": "tokenId",
          "type": "uint256"
        }
      ],
      "name": "getApproved",
      "outputs": [
        {
          "internalType": "address",
          "name": "",
          "type": "address"
        }
      ],
      "stateMutability": "view",
      "type": "function"
    },
    {
      "inputs": [],
      "name": "getMemberShipFeeManager",
      "outputs": [
        {
          "internalType": "address",
          "name": "",
          "type": "address"
        }
      ],
      "stateMutability": "view",
      "type": "function"
    },
    {
      "inputs": [
        {
          "internalType": "address",
          "name": "user",
          "type": "address"
        }
      ],
      "name": "getUserData",
      "outputs": [
        {
          "components": [
            {
              "internalType": "uint256",
              "name": "memberId",
              "type": "uint256"
            },
            {
              "internalType": "uint256",
              "name": "memberSince",
              "type": "uint256"
            }
          ],
          "internalType": "struct PMMembershipManager.User",
          "name": "",
          "type": "tuple"
        }
      ],
      "stateMutability": "view",
      "type": "function"
    },
    {
      "inputs": [
        {
          "internalType": "uint256",
          "name": "from",
          "type": "uint256"
        },
        {
          "internalType": "uint256",
          "name": "length",
          "type": "uint256"
        }
      ],
      "name": "getUserDataByRange",
      "outputs": [
        {
          "components": [
            {
              "internalType": "uint256",
              "name": "memberId",
              "type": "uint256"
            },
            {
              "internalType": "uint256",
              "name": "memberSince",
              "type": "uint256"
            }
          ],
          "internalType": "struct PMMembershipManager.User[]",
          "name": "",
          "type": "tuple[]"
        }
      ],
      "stateMutability": "view",
      "type": "function"
    },
    {
      "inputs": [
        {
          "internalType": "address[]",
          "name": "to",
          "type": "address[]"
        }
      ],
      "name": "giveAwayMembership",
      "outputs": [],
      "stateMutability": "nonpayable",
      "type": "function"
    },
    {
      "inputs": [
        {
          "internalType": "address",
          "name": "owner",
          "type": "address"
        },
        {
          "internalType": "address",
          "name": "operator",
          "type": "address"
        }
      ],
      "name": "isApprovedForAll",
      "outputs": [
        {
          "internalType": "bool",
          "name": "",
          "type": "bool"
        }
      ],
      "stateMutability": "view",
      "type": "function"
    },
    {
      "inputs": [
        {
          "internalType": "address",
          "name": "user",
          "type": "address"
        }
      ],
      "name": "isMember",
      "outputs": [
        {
          "internalType": "bool",
          "name": "",
          "type": "bool"
        }
      ],
      "stateMutability": "view",
      "type": "function"
    },
    {
      "inputs": [],
      "name": "isPaused",
      "outputs": [
        {
          "internalType": "bool",
          "name": "",
          "type": "bool"
        }
      ],
      "stateMutability": "view",
      "type": "function"
    },
    {
      "inputs": [],
      "name": "name",
      "outputs": [
        {
          "internalType": "string",
          "name": "",
          "type": "string"
        }
      ],
      "stateMutability": "view",
      "type": "function"
    },
    {
      "inputs": [],
      "name": "owner",
      "outputs": [
        {
          "internalType": "address",
          "name": "",
          "type": "address"
        }
      ],
      "stateMutability": "view",
      "type": "function"
    },
    {
      "inputs": [
        {
          "internalType": "uint256",
          "name": "tokenId",
          "type": "uint256"
        }
      ],
      "name": "ownerOf",
      "outputs": [
        {
          "internalType": "address",
          "name": "",
          "type": "address"
        }
      ],
      "stateMutability": "view",
      "type": "function"
    },
    {
      "inputs": [],
      "name": "renounceOwnership",
      "outputs": [],
      "stateMutability": "nonpayable",
      "type": "function"
    },
    {
      "inputs": [
        {
          "internalType": "address",
          "name": "from",
          "type": "address"
        },
        {
          "internalType": "address",
          "name": "to",
          "type": "address"
        },
        {
          "internalType": "uint256",
          "name": "tokenId",
          "type": "uint256"
        }
      ],
      "name": "safeTransferFrom",
      "outputs": [],
      "stateMutability": "nonpayable",
      "type": "function"
    },
    {
      "inputs": [
        {
          "internalType": "address",
          "name": "from",
          "type": "address"
        },
        {
          "internalType": "address",
          "name": "to",
          "type": "address"
        },
        {
          "internalType": "uint256",
          "name": "tokenId",
          "type": "uint256"
        },
        {
          "internalType": "bytes",
          "name": "data",
          "type": "bytes"
        }
      ],
      "name": "safeTransferFrom",
      "outputs": [],
      "stateMutability": "nonpayable",
      "type": "function"
    },
    {
      "inputs": [
        {
          "internalType": "address",
          "name": "operator",
          "type": "address"
        },
        {
          "internalType": "bool",
          "name": "approved",
          "type": "bool"
        }
      ],
      "name": "setApprovalForAll",
      "outputs": [],
      "stateMutability": "nonpayable",
      "type": "function"
    },
    {
      "inputs": [
        {
          "internalType": "bytes4",
          "name": "interfaceId",
          "type": "bytes4"
        }
      ],
      "name": "supportsInterface",
      "outputs": [
        {
          "internalType": "bool",
          "name": "",
          "type": "bool"
        }
      ],
      "stateMutability": "view",
      "type": "function"
    },
    {
      "inputs": [],
      "name": "symbol",
      "outputs": [
        {
          "internalType": "string",
          "name": "",
          "type": "string"
        }
      ],
      "stateMutability": "view",
      "type": "function"
    },
    {
      "inputs": [
        {
          "internalType": "uint256",
          "name": "tokenId",
          "type": "uint256"
        }
      ],
      "name": "tokenURI",
      "outputs": [
        {
          "internalType": "string",
          "name": "",
          "type": "string"
        }
      ],
      "stateMutability": "view",
      "type": "function"
    },
    {
      "inputs": [],
      "name": "totalSupply",
      "outputs": [
        {
          "internalType": "uint256",
          "name": "",
          "type": "uint256"
        }
      ],
      "stateMutability": "view",
      "type": "function"
    },
    {
      "inputs": [
        {
          "internalType": "address",
          "name": "from",
          "type": "address"
        },
        {
          "internalType": "address",
          "name": "to",
          "type": "address"
        },
        {
          "internalType": "uint256",
          "name": "tokenId",
          "type": "uint256"
        }
      ],
      "name": "transferFrom",
      "outputs": [],
      "stateMutability": "nonpayable",
      "type": "function"
    },
    {
      "inputs": [
        {
          "internalType": "address",
          "name": "newOwner",
          "type": "address"
        }
      ],
      "name": "transferOwnership",
      "outputs": [],
      "stateMutability": "nonpayable",
      "type": "function"
    },
    {
      "inputs": [
        {
          "internalType": "address",
          "name": "_membershipFeeManager",
          "type": "address"
        }
      ],
      "name": "updateMembershipFeeManager",
      "outputs": [],
      "stateMutability": "nonpayable",
      "type": "function"
    }
  ],
  "transactionHash": "0x0e8b5ddd1b3299434b47f022a5a2806b9d3c3f41e81f200499fca57e133b8602",
  "args": [
    "0x36fF9E3cD4d353282185377A1E06aEc4940a9eDc"
  ],
  "numDeployments": 1,
  "solcInputHash": "f3f6c715391d995e0d22c3812177edd2",
  "bytecode": "0x6080604052600a805460ff191690553480156200001b57600080fd5b5060405162001f7d38038062001f7d8339810160408190526200003e9162000149565b6040518060400160405280601d81526020017f506c616e65744d6f6f6e204d656d62657273686970204d616e6167657200000081525060405180604001604052806003815260200162504d4d60e81b8152508160009081620000a1919062000220565b506001620000b0828262000220565b505050620000cd620000c7620000f360201b60201c565b620000f7565b600880546001600160a01b0319166001600160a01b0392909216919091179055620002ec565b3390565b600680546001600160a01b038381166001600160a01b0319831681179093556040519116919082907f8be0079c531659141344cd1fd0a4f28419497f9722a3daafe3b4186f6b6457e090600090a35050565b6000602082840312156200015c57600080fd5b81516001600160a01b03811681146200017457600080fd5b9392505050565b634e487b7160e01b600052604160045260246000fd5b600181811c90821680620001a657607f821691505b602082108103620001c757634e487b7160e01b600052602260045260246000fd5b50919050565b601f8211156200021b57600081815260208120601f850160051c81016020861015620001f65750805b601f850160051c820191505b81811015620002175782815560010162000202565b5050505b505050565b81516001600160401b038111156200023c576200023c6200017b565b62000254816200024d845462000191565b84620001cd565b602080601f8311600181146200028c5760008415620002735750858301515b600019600386901b1c1916600185901b17855562000217565b600085815260208120601f198616915b82811015620002bd578886015182559484019460019091019084016200029c565b5085821015620002dc5787850151600019600388901b60f8161c191681555b5050505050600190811b01905550565b611c8180620002fc6000396000f3fe6080604052600436106101815760003560e01c80638da5cb5b116100d1578063b187bd261161008a578063c87b56dd11610064578063c87b56dd14610458578063e985e9c514610478578063f2fde38b146104c1578063ffc9896b146104e157600080fd5b8063b187bd2614610400578063b1e5494c14610418578063b88d4fde1461043857600080fd5b80638da5cb5b1461034057806394ae45fe1461035e57806395d89b411461037e578063a22cb46514610393578063a230c524146103b3578063ac3253dd146103d357600080fd5b806323b872dd1161013e5780636352211e116101185780636352211e146102d857806370a08231146102f8578063715018a6146103185780638a12166f1461032d57600080fd5b806323b872dd146102785780633424b8ce1461029857806342842e0e146102b857600080fd5b806301ffc9a71461018657806306fdde03146101bb578063081812fc146101dd578063095ea7b31461021557806318160ddd146102375780632024d3261461025a575b600080fd5b34801561019257600080fd5b506101a66101a13660046115c5565b610550565b60405190151581526020015b60405180910390f35b3480156101c757600080fd5b506101d06105a2565b6040516101b2919061162f565b3480156101e957600080fd5b506101fd6101f8366004611642565b610634565b6040516001600160a01b0390911681526020016101b2565b34801561022157600080fd5b50610235610230366004611677565b61065b565b005b34801561024357600080fd5b5061024c610775565b6040519081526020016101b2565b34801561026657600080fd5b506008546001600160a01b03166101fd565b34801561028457600080fd5b506102356102933660046116a1565b610785565b3480156102a457600080fd5b506102356102b33660046116ed565b6107b6565b3480156102c457600080fd5b506102356102d33660046116a1565b6107d1565b3480156102e457600080fd5b506101fd6102f3366004611642565b6107ec565b34801561030457600080fd5b5061024c610313366004611708565b61084c565b34801561032457600080fd5b506102356108d2565b61023561033b366004611708565b6108e6565b34801561034c57600080fd5b506006546001600160a01b03166101fd565b34801561036a57600080fd5b5061023561037936600461176a565b610a89565b34801561038a57600080fd5b506101d0610b92565b34801561039f57600080fd5b506102356103ae366004611817565b610ba1565b3480156103bf57600080fd5b506101a66103ce366004611708565b610bac565b3480156103df57600080fd5b506103f36103ee36600461184a565b610bbf565b6040516101b2919061186c565b34801561040c57600080fd5b50600a5460ff166101a6565b34801561042457600080fd5b50610235610433366004611708565b610d05565b34801561044457600080fd5b506102356104533660046118c3565b610d2f565b34801561046457600080fd5b506101d0610473366004611642565b610d61565b34801561048457600080fd5b506101a6610493366004611983565b6001600160a01b03918216600090815260056020908152604080832093909416825291909152205460ff1690565b3480156104cd57600080fd5b506102356104dc366004611708565b610db8565b3480156104ed57600080fd5b506105436104fc366004611708565b6040805180820190915260008082526020820152506001600160a01b0316600090815260096020908152604091829020825180840190935280548352600101549082015290565b6040516101b291906119ad565b60006001600160e01b031982166380ac58cd60e01b148061058157506001600160e01b03198216635b5e139f60e01b145b8061059c57506301ffc9a760e01b6001600160e01b03198316145b92915050565b6060600080546105b1906119c4565b80601f01602080910402602001604051908101604052809291908181526020018280546105dd906119c4565b801561062a5780601f106105ff5761010080835404028352916020019161062a565b820191906000526020600020905b81548152906001019060200180831161060d57829003601f168201915b5050505050905090565b600061063f82610e31565b506000908152600460205260409020546001600160a01b031690565b6000610666826107ec565b9050806001600160a01b0316836001600160a01b0316036106d85760405162461bcd60e51b815260206004820152602160248201527f4552433732313a20617070726f76616c20746f2063757272656e74206f776e656044820152603960f91b60648201526084015b60405180910390fd5b336001600160a01b03821614806106f457506106f48133610493565b6107665760405162461bcd60e51b815260206004820152603d60248201527f4552433732313a20617070726f76652063616c6c6572206973206e6f7420746f60448201527f6b656e206f776e6572206f7220617070726f76656420666f7220616c6c00000060648201526084016106cf565b6107708383610e90565b505050565b600061078060075490565b905090565b61078f3382610efe565b6107ab5760405162461bcd60e51b81526004016106cf906119fe565b610770838383610f7d565b6107be6110ee565b600a805460ff1916911515919091179055565b61077083838360405180602001604052806000815250610d2f565b6000818152600260205260408120546001600160a01b03168061059c5760405162461bcd60e51b8152602060048201526018602482015277115490cdcc8c4e881a5b9d985b1a59081d1bdad95b88125160421b60448201526064016106cf565b60006001600160a01b0382166108b65760405162461bcd60e51b815260206004820152602960248201527f4552433732313a2061646472657373207a65726f206973206e6f7420612076616044820152683634b21037bbb732b960b91b60648201526084016106cf565b506001600160a01b031660009081526003602052604090205490565b6108da6110ee565b6108e46000611148565b565b600a5460ff161561090a57604051630d7d4e7160e01b815260040160405180910390fd5b60006109158261084c565b111561093457604051630204e17b60e41b815260040160405180910390fd5b600854604051634daf418d60e11b81526000916001600160a01b031690639b5e831a90610965908490600401611a4b565b602060405180830381865afa158015610982573d6000803e3d6000fd5b505050506040513d601f19601f820116820180604052508101906109a69190611a73565b9050803410156109c957604051635edcdbad60e01b815260040160405180910390fd5b6109d7600780546001019055565b60006109e260075490565b6001600160a01b03841660009081526009602052604090204260018201558190559050610a0f838261119a565b6008546040516000916001600160a01b03169034908381818185875af1925050503d8060008114610a5c576040519150601f19603f3d011682016040523d82523d6000602084013e610a61565b606091505b5050905080610a83576040516319212bcb60e31b815260040160405180910390fd5b50505050565b610a916110ee565b60005b81518160ff161015610b8e57610ac5828260ff1681518110610ab857610ab8611a8c565b602002602001015161084c565b600003610b7c57610ada600780546001019055565b6000610ae560075490565b905060405180604001604052808281526020014281525060096000858560ff1681518110610b1557610b15611a8c565b60200260200101516001600160a01b03166001600160a01b031681526020019081526020016000206000820151816000015560208201518160010155905050610b7a838360ff1681518110610b6c57610b6c611a8c565b60200260200101518261119a565b505b80610b8681611ab8565b915050610a94565b5050565b6060600180546105b1906119c4565b610b8e3383836111b4565b600080610bb88361084c565b1192915050565b6060610bca60075490565b831115610bea5760405163dd3e931f60e01b815260040160405180910390fd5b81831015610bf6578291505b60008267ffffffffffffffff811115610c1157610c11611723565b604051908082528060200260200182016040528015610c5657816020015b6040805180820190915260008082526020820152815260200190600190039081610c2f5790505b5090506000845b610c678587611ad7565b811115610cfb5760096000610c7b836107ec565b6001600160a01b03166001600160a01b0316815260200190815260200160002060405180604001604052908160008201548152602001600182015481525050838360ff1681518110610ccf57610ccf611a8c565b60200260200101819052508180610ce590611ab8565b9250508080610cf390611aea565b915050610c5d565b5090949350505050565b610d0d6110ee565b600880546001600160a01b0319166001600160a01b0392909216919091179055565b610d393383610efe565b610d555760405162461bcd60e51b81526004016106cf906119fe565b610a8384848484611282565b6000818152600260205260409020546060906001600160a01b0316610d99576040516308f578e360e01b815260040160405180910390fd5b604051806080016040528060598152602001611bf36059913992915050565b610dc06110ee565b6001600160a01b038116610e255760405162461bcd60e51b815260206004820152602660248201527f4f776e61626c653a206e6577206f776e657220697320746865207a65726f206160448201526564647265737360d01b60648201526084016106cf565b610e2e81611148565b50565b6000818152600260205260409020546001600160a01b0316610e2e5760405162461bcd60e51b8152602060048201526018602482015277115490cdcc8c4e881a5b9d985b1a59081d1bdad95b88125160421b60448201526064016106cf565b600081815260046020526040902080546001600160a01b0319166001600160a01b0384169081179091558190610ec5826107ec565b6001600160a01b03167f8c5be1e5ebec7d5bd14f71427d1e84f3dd0314c0f7b2291e5b200ac8c7c3b92560405160405180910390a45050565b600080610f0a836107ec565b9050806001600160a01b0316846001600160a01b03161480610f5157506001600160a01b0380821660009081526005602090815260408083209388168352929052205460ff165b80610f755750836001600160a01b0316610f6a84610634565b6001600160a01b0316145b949350505050565b826001600160a01b0316610f90826107ec565b6001600160a01b031614610fb65760405162461bcd60e51b81526004016106cf90611b01565b6001600160a01b0382166110185760405162461bcd60e51b8152602060048201526024808201527f4552433732313a207472616e7366657220746f20746865207a65726f206164646044820152637265737360e01b60648201526084016106cf565b61102583838360016112b5565b826001600160a01b0316611038826107ec565b6001600160a01b03161461105e5760405162461bcd60e51b81526004016106cf90611b01565b600081815260046020908152604080832080546001600160a01b03199081169091556001600160a01b0387811680865260038552838620805460001901905590871680865283862080546001019055868652600290945282852080549092168417909155905184937fddf252ad1be2c89b69c2b068fc378daa952ba7f163c4a11628f55a4df523b3ef91a4505050565b6006546001600160a01b031633146108e45760405162461bcd60e51b815260206004820181905260248201527f4f776e61626c653a2063616c6c6572206973206e6f7420746865206f776e657260448201526064016106cf565b600680546001600160a01b038381166001600160a01b0319831681179093556040519116919082907f8be0079c531659141344cd1fd0a4f28419497f9722a3daafe3b4186f6b6457e090600090a35050565b610b8e8282604051806020016040528060008152506112e2565b816001600160a01b0316836001600160a01b0316036112155760405162461bcd60e51b815260206004820152601960248201527f4552433732313a20617070726f766520746f2063616c6c65720000000000000060448201526064016106cf565b6001600160a01b03838116600081815260056020908152604080832094871680845294825291829020805460ff191686151590811790915591519182527f17307eab39ab6107e8899845ad3d59bd9653f200f220920489ca2b5937696c31910160405180910390a3505050565b61128d848484610f7d565b61129984848484611315565b610a835760405162461bcd60e51b81526004016106cf90611b46565b6001600160a01b038416156112dd576040516382ea236d60e01b815260040160405180910390fd5b610a83565b6112ec8383611416565b6112f96000848484611315565b6107705760405162461bcd60e51b81526004016106cf90611b46565b60006001600160a01b0384163b1561140b57604051630a85bd0160e11b81526001600160a01b0385169063150b7a0290611359903390899088908890600401611b98565b6020604051808303816000875af1925050508015611394575060408051601f3d908101601f1916820190925261139191810190611bd5565b60015b6113f1573d8080156113c2576040519150601f19603f3d011682016040523d82523d6000602084013e6113c7565b606091505b5080516000036113e95760405162461bcd60e51b81526004016106cf90611b46565b805181602001fd5b6001600160e01b031916630a85bd0160e11b149050610f75565b506001949350505050565b6001600160a01b03821661146c5760405162461bcd60e51b815260206004820181905260248201527f4552433732313a206d696e7420746f20746865207a65726f206164647265737360448201526064016106cf565b6000818152600260205260409020546001600160a01b0316156114d15760405162461bcd60e51b815260206004820152601c60248201527f4552433732313a20746f6b656e20616c7265616479206d696e7465640000000060448201526064016106cf565b6114df6000838360016112b5565b6000818152600260205260409020546001600160a01b0316156115445760405162461bcd60e51b815260206004820152601c60248201527f4552433732313a20746f6b656e20616c7265616479206d696e7465640000000060448201526064016106cf565b6001600160a01b038216600081815260036020908152604080832080546001019055848352600290915280822080546001600160a01b0319168417905551839291907fddf252ad1be2c89b69c2b068fc378daa952ba7f163c4a11628f55a4df523b3ef908290a45050565b6001600160e01b031981168114610e2e57600080fd5b6000602082840312156115d757600080fd5b81356115e2816115af565b9392505050565b6000815180845260005b8181101561160f576020818501810151868301820152016115f3565b506000602082860101526020601f19601f83011685010191505092915050565b6020815260006115e260208301846115e9565b60006020828403121561165457600080fd5b5035919050565b80356001600160a01b038116811461167257600080fd5b919050565b6000806040838503121561168a57600080fd5b6116938361165b565b946020939093013593505050565b6000806000606084860312156116b657600080fd5b6116bf8461165b565b92506116cd6020850161165b565b9150604084013590509250925092565b8035801515811461167257600080fd5b6000602082840312156116ff57600080fd5b6115e2826116dd565b60006020828403121561171a57600080fd5b6115e28261165b565b634e487b7160e01b600052604160045260246000fd5b604051601f8201601f1916810167ffffffffffffffff8111828210171561176257611762611723565b604052919050565b6000602080838503121561177d57600080fd5b823567ffffffffffffffff8082111561179557600080fd5b818501915085601f8301126117a957600080fd5b8135818111156117bb576117bb611723565b8060051b91506117cc848301611739565b81815291830184019184810190888411156117e657600080fd5b938501935b8385101561180b576117fc8561165b565b825293850193908501906117eb565b98975050505050505050565b6000806040838503121561182a57600080fd5b6118338361165b565b9150611841602084016116dd565b90509250929050565b6000806040838503121561185d57600080fd5b50508035926020909101359150565b602080825282518282018190526000919060409081850190868401855b828110156118b6576118a684835180518252602090810151910152565b9284019290850190600101611889565b5091979650505050505050565b600080600080608085870312156118d957600080fd5b6118e28561165b565b935060206118f181870161165b565b935060408601359250606086013567ffffffffffffffff8082111561191557600080fd5b818801915088601f83011261192957600080fd5b81358181111561193b5761193b611723565b61194d601f8201601f19168501611739565b9150808252898482850101111561196357600080fd5b808484018584013760008482840101525080935050505092959194509250565b6000806040838503121561199657600080fd5b61199f8361165b565b91506118416020840161165b565b81518152602080830151908201526040810161059c565b600181811c908216806119d857607f821691505b6020821081036119f857634e487b7160e01b600052602260045260246000fd5b50919050565b6020808252602d908201527f4552433732313a2063616c6c6572206973206e6f7420746f6b656e206f776e6560408201526c1c881bdc88185c1c1c9bdd9959609a1b606082015260800190565b6020810160028310611a6d57634e487b7160e01b600052602160045260246000fd5b91905290565b600060208284031215611a8557600080fd5b5051919050565b634e487b7160e01b600052603260045260246000fd5b634e487b7160e01b600052601160045260246000fd5b600060ff821660ff8103611ace57611ace611aa2565b60010192915050565b8181038181111561059c5761059c611aa2565b600081611af957611af9611aa2565b506000190190565b60208082526025908201527f4552433732313a207472616e736665722066726f6d20696e636f72726563742060408201526437bbb732b960d91b606082015260800190565b60208082526032908201527f4552433732313a207472616e7366657220746f206e6f6e20455243373231526560408201527131b2b4bb32b91034b6b83632b6b2b73a32b960711b606082015260800190565b6001600160a01b0385811682528416602082015260408101839052608060608201819052600090611bcb908301846115e9565b9695505050505050565b600060208284031215611be757600080fd5b81516115e2816115af56fe68747470733a2f2f6261666b72656963366a626564687a676763616f7762366a6a357a666c68787a34626e756b376c336c686a716b74636c78696933706c6c337079342e697066732e6e667473746f726167652e6c696e6b2fa264697066735822122061b740104aa60427b0b0f0467435db0bc0ff197cb69eb75d4d2fb1a7bf482edd64736f6c63430008120033",
  "devdoc": {
    "events": {
      "Approval(address,address,uint256)": {
        "details": "Emitted when `owner` enables `approved` to manage the `tokenId` token."
      },
      "ApprovalForAll(address,address,bool)": {
        "details": "Emitted when `owner` enables or disables (`approved`) `operator` to manage all of its assets."
      },
      "Transfer(address,address,uint256)": {
        "details": "Emitted when `tokenId` token is transferred from `from` to `to`."
      }
    },
    "kind": "dev",
    "methods": {
      "approve(address,uint256)": {
        "details": "See {IERC721-approve}."
      },
      "balanceOf(address)": {
        "details": "See {IERC721-balanceOf}."
      },
      "getApproved(uint256)": {
        "details": "See {IERC721-getApproved}."
      },
      "isApprovedForAll(address,address)": {
        "details": "See {IERC721-isApprovedForAll}."
      },
      "name()": {
        "details": "See {IERC721Metadata-name}."
      },
      "owner()": {
        "details": "Returns the address of the current owner."
      },
      "ownerOf(uint256)": {
        "details": "See {IERC721-ownerOf}."
      },
      "renounceOwnership()": {
        "details": "Leaves the contract without owner. It will not be possible to call `onlyOwner` functions anymore. Can only be called by the current owner. NOTE: Renouncing ownership will leave the contract without an owner, thereby removing any functionality that is only available to the owner."
      },
      "safeTransferFrom(address,address,uint256)": {
        "details": "See {IERC721-safeTransferFrom}."
      },
      "safeTransferFrom(address,address,uint256,bytes)": {
        "details": "See {IERC721-safeTransferFrom}."
      },
      "setApprovalForAll(address,bool)": {
        "details": "See {IERC721-setApprovalForAll}."
      },
      "supportsInterface(bytes4)": {
        "details": "See {IERC165-supportsInterface}."
      },
      "symbol()": {
        "details": "See {IERC721Metadata-symbol}."
      },
      "tokenURI(uint256)": {
        "details": "See {IERC721Metadata-tokenURI}."
      },
      "transferFrom(address,address,uint256)": {
        "details": "See {IERC721-transferFrom}."
      },
      "transferOwnership(address)": {
        "details": "Transfers ownership of the contract to a new account (`newOwner`). Can only be called by the current owner."
      }
    },
    "version": 1
  },
  "userdoc": {
    "kind": "user",
    "methods": {},
    "version": 1
  },
  "storageLayout": {
    "storage": [
      {
        "astId": 216,
        "contract": "contracts/CreatorContract/PMMembershipManager.sol:PMMembershipManager",
        "label": "_name",
        "offset": 0,
        "slot": "0",
        "type": "t_string_storage"
      },
      {
        "astId": 218,
        "contract": "contracts/CreatorContract/PMMembershipManager.sol:PMMembershipManager",
        "label": "_symbol",
        "offset": 0,
        "slot": "1",
        "type": "t_string_storage"
      },
      {
        "astId": 222,
        "contract": "contracts/CreatorContract/PMMembershipManager.sol:PMMembershipManager",
        "label": "_owners",
        "offset": 0,
        "slot": "2",
        "type": "t_mapping(t_uint256,t_address)"
      },
      {
        "astId": 226,
        "contract": "contracts/CreatorContract/PMMembershipManager.sol:PMMembershipManager",
        "label": "_balances",
        "offset": 0,
        "slot": "3",
        "type": "t_mapping(t_address,t_uint256)"
      },
      {
        "astId": 230,
        "contract": "contracts/CreatorContract/PMMembershipManager.sol:PMMembershipManager",
        "label": "_tokenApprovals",
        "offset": 0,
        "slot": "4",
        "type": "t_mapping(t_uint256,t_address)"
      },
      {
        "astId": 236,
        "contract": "contracts/CreatorContract/PMMembershipManager.sol:PMMembershipManager",
        "label": "_operatorApprovals",
        "offset": 0,
        "slot": "5",
        "type": "t_mapping(t_address,t_mapping(t_address,t_bool))"
      },
      {
        "astId": 7,
        "contract": "contracts/CreatorContract/PMMembershipManager.sol:PMMembershipManager",
        "label": "_owner",
        "offset": 0,
        "slot": "6",
        "type": "t_address"
      },
      {
        "astId": 3205,
        "contract": "contracts/CreatorContract/PMMembershipManager.sol:PMMembershipManager",
        "label": "s_tokenIdCounter",
        "offset": 0,
        "slot": "7",
        "type": "t_struct(Counter)2021_storage"
      },
      {
        "astId": 3207,
        "contract": "contracts/CreatorContract/PMMembershipManager.sol:PMMembershipManager",
        "label": "s_membershipFeeManager",
        "offset": 0,
        "slot": "8",
        "type": "t_address_payable"
      },
      {
        "astId": 3212,
        "contract": "contracts/CreatorContract/PMMembershipManager.sol:PMMembershipManager",
        "label": "s_user",
        "offset": 0,
        "slot": "9",
        "type": "t_mapping(t_address,t_struct(User)3223_storage)"
      },
      {
        "astId": 3215,
        "contract": "contracts/CreatorContract/PMMembershipManager.sol:PMMembershipManager",
        "label": "s_isPaused",
        "offset": 0,
        "slot": "10",
        "type": "t_bool"
      }
    ],
    "types": {
      "t_address": {
        "encoding": "inplace",
        "label": "address",
        "numberOfBytes": "20"
      },
      "t_address_payable": {
        "encoding": "inplace",
        "label": "address payable",
        "numberOfBytes": "20"
      },
      "t_bool": {
        "encoding": "inplace",
        "label": "bool",
        "numberOfBytes": "1"
      },
      "t_mapping(t_address,t_bool)": {
        "encoding": "mapping",
        "key": "t_address",
        "label": "mapping(address => bool)",
        "numberOfBytes": "32",
        "value": "t_bool"
      },
      "t_mapping(t_address,t_mapping(t_address,t_bool))": {
        "encoding": "mapping",
        "key": "t_address",
        "label": "mapping(address => mapping(address => bool))",
        "numberOfBytes": "32",
        "value": "t_mapping(t_address,t_bool)"
      },
      "t_mapping(t_address,t_struct(User)3223_storage)": {
        "encoding": "mapping",
        "key": "t_address",
        "label": "mapping(address => struct PMMembershipManager.User)",
        "numberOfBytes": "32",
        "value": "t_struct(User)3223_storage"
      },
      "t_mapping(t_address,t_uint256)": {
        "encoding": "mapping",
        "key": "t_address",
        "label": "mapping(address => uint256)",
        "numberOfBytes": "32",
        "value": "t_uint256"
      },
      "t_mapping(t_uint256,t_address)": {
        "encoding": "mapping",
        "key": "t_uint256",
        "label": "mapping(uint256 => address)",
        "numberOfBytes": "32",
        "value": "t_address"
      },
      "t_string_storage": {
        "encoding": "bytes",
        "label": "string",
        "numberOfBytes": "32"
      },
      "t_struct(Counter)2021_storage": {
        "encoding": "inplace",
        "label": "struct Counters.Counter",
        "members": [
          {
            "astId": 2020,
            "contract": "contracts/CreatorContract/PMMembershipManager.sol:PMMembershipManager",
            "label": "_value",
            "offset": 0,
            "slot": "0",
            "type": "t_uint256"
          }
        ],
        "numberOfBytes": "32"
      },
      "t_struct(User)3223_storage": {
        "encoding": "inplace",
        "label": "struct PMMembershipManager.User",
        "members": [
          {
            "astId": 3220,
            "contract": "contracts/CreatorContract/PMMembershipManager.sol:PMMembershipManager",
            "label": "memberId",
            "offset": 0,
            "slot": "0",
            "type": "t_uint256"
          },
          {
            "astId": 3222,
            "contract": "contracts/CreatorContract/PMMembershipManager.sol:PMMembershipManager",
            "label": "memberSince",
            "offset": 0,
            "slot": "1",
            "type": "t_uint256"
          }
        ],
        "numberOfBytes": "64"
      },
      "t_uint256": {
        "encoding": "inplace",
        "label": "uint256",
        "numberOfBytes": "32"
      }
    }
  }
}