{
  "address": "0x1b002ef75A1E5FF04bce3D67808B30fAcdDC26eB",
  "abi": [
    {
      "inputs": [
        {
          "internalType": "address",
          "name": "_membershipFeeManager",
          "type": "address"
        }
      ],
      "stateMutability": "nonpayable",
      "type": "constructor"
    },
    {
      "inputs": [],
      "name": "ALREADY_A_MEMBER",
      "type": "error"
    },
    {
      "inputs": [],
      "name": "ALREADY_A_PREMIUM_MEMBER",
      "type": "error"
    },
    {
      "inputs": [],
      "name": "CONTRACT_IS_PAUSED",
      "type": "error"
    },
    {
      "inputs": [],
      "name": "FAILED_TO_TRANSFER_BNBS",
      "type": "error"
    },
    {
      "inputs": [],
      "name": "INSUFFICIENT_FUNDS",
      "type": "error"
    },
    {
      "inputs": [],
      "name": "NOT_A_MEMBER",
      "type": "error"
    },
    {
      "inputs": [],
      "name": "TOKEN_DONT_EXIST",
      "type": "error"
    },
    {
      "anonymous": false,
      "inputs": [
        {
          "indexed": true,
          "internalType": "address",
          "name": "owner",
          "type": "address"
        },
        {
          "indexed": true,
          "internalType": "address",
          "name": "approved",
          "type": "address"
        },
        {
          "indexed": true,
          "internalType": "uint256",
          "name": "tokenId",
          "type": "uint256"
        }
      ],
      "name": "Approval",
      "type": "event"
    },
    {
      "anonymous": false,
      "inputs": [
        {
          "indexed": true,
          "internalType": "address",
          "name": "owner",
          "type": "address"
        },
        {
          "indexed": true,
          "internalType": "address",
          "name": "operator",
          "type": "address"
        },
        {
          "indexed": false,
          "internalType": "bool",
          "name": "approved",
          "type": "bool"
        }
      ],
      "name": "ApprovalForAll",
      "type": "event"
    },
    {
      "anonymous": false,
      "inputs": [
        {
          "indexed": true,
          "internalType": "address",
          "name": "previousOwner",
          "type": "address"
        },
        {
          "indexed": true,
          "internalType": "address",
          "name": "newOwner",
          "type": "address"
        }
      ],
      "name": "OwnershipTransferred",
      "type": "event"
    },
    {
      "anonymous": false,
      "inputs": [
        {
          "indexed": true,
          "internalType": "address",
          "name": "from",
          "type": "address"
        },
        {
          "indexed": true,
          "internalType": "address",
          "name": "to",
          "type": "address"
        },
        {
          "indexed": true,
          "internalType": "uint256",
          "name": "tokenId",
          "type": "uint256"
        }
      ],
      "name": "Transfer",
      "type": "event"
    },
    {
      "inputs": [
        {
          "internalType": "address",
          "name": "to",
          "type": "address"
        },
        {
          "internalType": "uint256",
          "name": "tokenId",
          "type": "uint256"
        }
      ],
      "name": "approve",
      "outputs": [],
      "stateMutability": "nonpayable",
      "type": "function"
    },
    {
      "inputs": [
        {
          "internalType": "address",
          "name": "owner",
          "type": "address"
        }
      ],
      "name": "balanceOf",
      "outputs": [
        {
          "internalType": "uint256",
          "name": "",
          "type": "uint256"
        }
      ],
      "stateMutability": "view",
      "type": "function"
    },
    {
      "inputs": [
        {
          "internalType": "address",
          "name": "to",
          "type": "address"
        }
      ],
      "name": "becomeMember",
      "outputs": [],
      "stateMutability": "payable",
      "type": "function"
    },
    {
      "inputs": [
        {
          "internalType": "address",
          "name": "to",
          "type": "address"
        }
      ],
      "name": "becomePremiumMember",
      "outputs": [],
      "stateMutability": "payable",
      "type": "function"
    },
    {
      "inputs": [
        {
          "internalType": "bool",
          "name": "action",
          "type": "bool"
        }
      ],
      "name": "changePauseStatus",
      "outputs": [],
      "stateMutability": "nonpayable",
      "type": "function"
    },
    {
      "inputs": [
        {
          "internalType": "uint256",
          "name": "tokenId",
          "type": "uint256"
        }
      ],
      "name": "getApproved",
      "outputs": [
        {
          "internalType": "address",
          "name": "",
          "type": "address"
        }
      ],
      "stateMutability": "view",
      "type": "function"
    },
    {
      "inputs": [
        {
          "internalType": "address",
          "name": "userAddress",
          "type": "address"
        }
      ],
      "name": "getUserTokenData",
      "outputs": [
        {
          "components": [
            {
              "internalType": "uint256",
              "name": "memberSince",
              "type": "uint256"
            },
            {
              "internalType": "uint256",
              "name": "memberId",
              "type": "uint256"
            },
            {
              "internalType": "bool",
              "name": "isPremium",
              "type": "bool"
            }
          ],
          "internalType": "struct StakingLibrary.UserDetail",
          "name": "",
          "type": "tuple"
        }
      ],
      "stateMutability": "view",
      "type": "function"
    },
    {
      "inputs": [
        {
          "internalType": "address[]",
          "name": "to",
          "type": "address[]"
        }
      ],
      "name": "giveAwayMembership",
      "outputs": [],
      "stateMutability": "nonpayable",
      "type": "function"
    },
    {
      "inputs": [
        {
          "internalType": "address",
          "name": "owner",
          "type": "address"
        },
        {
          "internalType": "address",
          "name": "operator",
          "type": "address"
        }
      ],
      "name": "isApprovedForAll",
      "outputs": [
        {
          "internalType": "bool",
          "name": "",
          "type": "bool"
        }
      ],
      "stateMutability": "view",
      "type": "function"
    },
    {
      "inputs": [],
      "name": "membershipFeeManager",
      "outputs": [
        {
          "internalType": "address payable",
          "name": "",
          "type": "address"
        }
      ],
      "stateMutability": "view",
      "type": "function"
    },
    {
      "inputs": [],
      "name": "name",
      "outputs": [
        {
          "internalType": "string",
          "name": "",
          "type": "string"
        }
      ],
      "stateMutability": "view",
      "type": "function"
    },
    {
      "inputs": [],
      "name": "owner",
      "outputs": [
        {
          "internalType": "address",
          "name": "",
          "type": "address"
        }
      ],
      "stateMutability": "view",
      "type": "function"
    },
    {
      "inputs": [
        {
          "internalType": "uint256",
          "name": "tokenId",
          "type": "uint256"
        }
      ],
      "name": "ownerOf",
      "outputs": [
        {
          "internalType": "address",
          "name": "",
          "type": "address"
        }
      ],
      "stateMutability": "view",
      "type": "function"
    },
    {
      "inputs": [],
      "name": "pause",
      "outputs": [
        {
          "internalType": "bool",
          "name": "",
          "type": "bool"
        }
      ],
      "stateMutability": "view",
      "type": "function"
    },
    {
      "inputs": [],
      "name": "premiumURI",
      "outputs": [
        {
          "internalType": "string",
          "name": "",
          "type": "string"
        }
      ],
      "stateMutability": "view",
      "type": "function"
    },
    {
      "inputs": [],
      "name": "regularURI",
      "outputs": [
        {
          "internalType": "string",
          "name": "",
          "type": "string"
        }
      ],
      "stateMutability": "view",
      "type": "function"
    },
    {
      "inputs": [],
      "name": "renounceOwnership",
      "outputs": [],
      "stateMutability": "nonpayable",
      "type": "function"
    },
    {
      "inputs": [
        {
          "internalType": "address",
          "name": "from",
          "type": "address"
        },
        {
          "internalType": "address",
          "name": "to",
          "type": "address"
        },
        {
          "internalType": "uint256",
          "name": "tokenId",
          "type": "uint256"
        }
      ],
      "name": "safeTransferFrom",
      "outputs": [],
      "stateMutability": "nonpayable",
      "type": "function"
    },
    {
      "inputs": [
        {
          "internalType": "address",
          "name": "from",
          "type": "address"
        },
        {
          "internalType": "address",
          "name": "to",
          "type": "address"
        },
        {
          "internalType": "uint256",
          "name": "tokenId",
          "type": "uint256"
        },
        {
          "internalType": "bytes",
          "name": "data",
          "type": "bytes"
        }
      ],
      "name": "safeTransferFrom",
      "outputs": [],
      "stateMutability": "nonpayable",
      "type": "function"
    },
    {
      "inputs": [
        {
          "internalType": "address",
          "name": "operator",
          "type": "address"
        },
        {
          "internalType": "bool",
          "name": "approved",
          "type": "bool"
        }
      ],
      "name": "setApprovalForAll",
      "outputs": [],
      "stateMutability": "nonpayable",
      "type": "function"
    },
    {
      "inputs": [
        {
          "internalType": "bytes4",
          "name": "interfaceId",
          "type": "bytes4"
        }
      ],
      "name": "supportsInterface",
      "outputs": [
        {
          "internalType": "bool",
          "name": "",
          "type": "bool"
        }
      ],
      "stateMutability": "view",
      "type": "function"
    },
    {
      "inputs": [],
      "name": "symbol",
      "outputs": [
        {
          "internalType": "string",
          "name": "",
          "type": "string"
        }
      ],
      "stateMutability": "view",
      "type": "function"
    },
    {
      "inputs": [
        {
          "internalType": "uint256",
          "name": "tokenId",
          "type": "uint256"
        }
      ],
      "name": "tokenURI",
      "outputs": [
        {
          "internalType": "string",
          "name": "",
          "type": "string"
        }
      ],
      "stateMutability": "view",
      "type": "function"
    },
    {
      "inputs": [],
      "name": "totalSupply",
      "outputs": [
        {
          "internalType": "uint256",
          "name": "",
          "type": "uint256"
        }
      ],
      "stateMutability": "view",
      "type": "function"
    },
    {
      "inputs": [
        {
          "internalType": "address",
          "name": "from",
          "type": "address"
        },
        {
          "internalType": "address",
          "name": "to",
          "type": "address"
        },
        {
          "internalType": "uint256",
          "name": "tokenId",
          "type": "uint256"
        }
      ],
      "name": "transferFrom",
      "outputs": [],
      "stateMutability": "nonpayable",
      "type": "function"
    },
    {
      "inputs": [
        {
          "internalType": "address",
          "name": "newOwner",
          "type": "address"
        }
      ],
      "name": "transferOwnership",
      "outputs": [],
      "stateMutability": "nonpayable",
      "type": "function"
    },
    {
      "inputs": [
        {
          "internalType": "address",
          "name": "_membershipFeeManager",
          "type": "address"
        }
      ],
      "name": "updateMembershipFeeManager",
      "outputs": [],
      "stateMutability": "nonpayable",
      "type": "function"
    },
    {
      "inputs": [
        {
          "internalType": "address",
          "name": "userAddress",
          "type": "address"
        }
      ],
      "name": "upgradeToPremium",
      "outputs": [],
      "stateMutability": "payable",
      "type": "function"
    }
  ],
  "transactionHash": "0xa96e4c73563af16350c04817fd42b14bbfd530982c16cde51c25d2958290b45b",
  "args": [
    "0x2D2f424B2B3FD9F5E9178b48c359FD776F488890"
  ],
  "numDeployments": 1,
  "solcInputHash": "5d88bf75289a7e7baa9fe7cf87e5cfb7",
  "bytecode": "0x6101006040526058608081815290620022df60a0396009906200002390826200023b565b506040518060800160405280605881526020016200228760589139600a906200004d90826200023b565b50600b805460ff191660011790553480156200006857600080fd5b5060405162002337380380620023378339810160408190526200008b9162000307565b6040518060400160405280601d81526020017f506c616e65744d6f6f6e204d656d62657273686970204d616e6167657200000081525060405180604001604052806003815260200162504d4d60e81b8152508160009081620000ee91906200023b565b506001620000fd82826200023b565b5050506200011a620001146200014060201b60201c565b62000144565b600780546001600160a01b0319166001600160a01b039290921691909117905562000339565b3390565b600680546001600160a01b038381166001600160a01b0319831681179093556040519116919082907f8be0079c531659141344cd1fd0a4f28419497f9722a3daafe3b4186f6b6457e090600090a35050565b634e487b7160e01b600052604160045260246000fd5b600181811c90821680620001c157607f821691505b602082108103620001e257634e487b7160e01b600052602260045260246000fd5b50919050565b601f8211156200023657600081815260208120601f850160051c81016020861015620002115750805b601f850160051c820191505b8181101562000232578281556001016200021d565b5050505b505050565b81516001600160401b0381111562000257576200025762000196565b6200026f81620002688454620001ac565b84620001e8565b602080601f831160018114620002a757600084156200028e5750858301515b600019600386901b1c1916600185901b17855562000232565b600085815260208120601f198616915b82811015620002d857888601518255948401946001909101908401620002b7565b5085821015620002f75787850151600019600388901b60f8161c191681555b5050505050600190811b01905550565b6000602082840312156200031a57600080fd5b81516001600160a01b03811681146200033257600080fd5b9392505050565b611f3e80620003496000396000f3fe6080604052600436106101b75760003560e01c806370a08231116100ec578063a22cb4651161008a578063c87b56dd11610064578063c87b56dd146104b9578063e985e9c5146104d9578063ee37adc214610522578063f2fde38b1461054257600080fd5b8063a22cb46514610459578063b1e5494c14610479578063b88d4fde1461049957600080fd5b80638a12166f116100c65780638a12166f146103f35780638da5cb5b1461040657806394ae45fe1461042457806395d89b411461044457600080fd5b806370a08231146103a4578063715018a6146103c45780638456cb59146103d957600080fd5b806323b872dd1161015957806342585d641161013357806342585d641461033e57806342842e0e146103515780634f80f41f146103715780636352211e1461038457600080fd5b806323b872dd146102ba57806329c59e03146102da5780633424b8ce1461031e57600080fd5b8063095ea7b311610195578063095ea7b31461024b57806317d181c71461026d57806318160ddd146102825780631c023aef146102a557600080fd5b806301ffc9a7146101bc57806306fdde03146101f1578063081812fc14610213575b600080fd5b3480156101c857600080fd5b506101dc6101d736600461199c565b610562565b60405190151581526020015b60405180910390f35b3480156101fd57600080fd5b506102066105b4565b6040516101e89190611a0d565b34801561021f57600080fd5b5061023361022e366004611a20565b610646565b6040516001600160a01b0390911681526020016101e8565b34801561025757600080fd5b5061026b610266366004611a55565b61066d565b005b34801561027957600080fd5b50610206610787565b34801561028e57600080fd5b50610297610815565b6040519081526020016101e8565b3480156102b157600080fd5b50610206610825565b3480156102c657600080fd5b5061026b6102d5366004611a7f565b610832565b3480156102e657600080fd5b506102fa6102f5366004611abb565b610863565b604080518251815260208084015190820152918101511515908201526060016101e8565b34801561032a57600080fd5b5061026b610339366004611ae6565b6108d0565b61026b61034c366004611abb565b6108eb565b34801561035d57600080fd5b5061026b61036c366004611a7f565b610ac2565b61026b61037f366004611abb565b610add565b34801561039057600080fd5b5061023361039f366004611a20565b610c85565b3480156103b057600080fd5b506102976103bf366004611abb565b610ce5565b3480156103d057600080fd5b5061026b610d6b565b3480156103e557600080fd5b50600b546101dc9060ff1681565b61026b610401366004611abb565b610d7f565b34801561041257600080fd5b506006546001600160a01b0316610233565b34801561043057600080fd5b5061026b61043f366004611b48565b610ea8565b34801561045057600080fd5b50610206610fda565b34801561046557600080fd5b5061026b610474366004611bf5565b610fe9565b34801561048557600080fd5b5061026b610494366004611abb565b610ff4565b3480156104a557600080fd5b5061026b6104b4366004611c28565b61101e565b3480156104c557600080fd5b506102066104d4366004611a20565b611050565b3480156104e557600080fd5b506101dc6104f4366004611ce8565b6001600160a01b03918216600090815260056020908152604080832093909416825291909152205460ff1690565b34801561052e57600080fd5b50600754610233906001600160a01b031681565b34801561054e57600080fd5b5061026b61055d366004611abb565b611160565b60006001600160e01b031982166380ac58cd60e01b148061059357506001600160e01b03198216635b5e139f60e01b145b806105ae57506301ffc9a760e01b6001600160e01b03198316145b92915050565b6060600080546105c390611d12565b80601f01602080910402602001604051908101604052809291908181526020018280546105ef90611d12565b801561063c5780601f106106115761010080835404028352916020019161063c565b820191906000526020600020905b81548152906001019060200180831161061f57829003601f168201915b5050505050905090565b6000610651826111d9565b506000908152600460205260409020546001600160a01b031690565b600061067882610c85565b9050806001600160a01b0316836001600160a01b0316036106ea5760405162461bcd60e51b815260206004820152602160248201527f4552433732313a20617070726f76616c20746f2063757272656e74206f776e656044820152603960f91b60648201526084015b60405180910390fd5b336001600160a01b0382161480610706575061070681336104f4565b6107785760405162461bcd60e51b815260206004820152603d60248201527f4552433732313a20617070726f76652063616c6c6572206973206e6f7420746f60448201527f6b656e206f776e6572206f7220617070726f76656420666f7220616c6c00000060648201526084016106e1565b6107828383611238565b505050565b600a805461079490611d12565b80601f01602080910402602001604051908101604052809291908181526020018280546107c090611d12565b801561080d5780601f106107e25761010080835404028352916020019161080d565b820191906000526020600020905b8154815290600101906020018083116107f057829003601f168201915b505050505081565b600061082060085490565b905090565b6009805461079490611d12565b61083c33826112a6565b6108585760405162461bcd60e51b81526004016106e190611d46565b610782838383611325565b610889604051806060016040528060008152602001600081526020016000151581525090565b506001600160a01b03166000908152600c60209081526040918290208251606081018452815481526001820154928101929092526002015460ff1615159181019190915290565b6108d8611496565b600b805460ff1916911515919091179055565b600b5460ff161561090f5760405163364759ad60e11b815260040160405180910390fd5b600061091a82610ce5565b11156109395760405163cea6102760e01b815260040160405180910390fd5b600754604051634daf418d60e11b81526000916001600160a01b031690639b5e831a9061096b90600290600401611d93565b602060405180830381865afa158015610988573d6000803e3d6000fd5b505050506040513d601f19601f820116820180604052508101906109ac9190611dbb565b9050803410156109cf57604051631cf2628760e31b815260040160405180910390fd5b6109dd600880546001019055565b60006109e860085490565b60408051606081018252428152602080820184815260018385018181526001600160a01b038a166000908152600c9094529490922092518355519082015590516002909101805460ff19169115159190911790559050610a4883826114f0565b6007546040516000916001600160a01b03169034908381818185875af1925050503d8060008114610a95576040519150601f19603f3d011682016040523d82523d6000602084013e610a9a565b606091505b5050905080610abc57604051635b77072160e11b815260040160405180910390fd5b50505050565b6107828383836040518060200160405280600081525061101e565b6001600160a01b0381166000908152600c60205260408120600101549003610b18576040516315cc961f60e01b815260040160405180910390fd5b6001600160a01b0381166000908152600c602052604090206002015460ff1615610b5557604051635906a6e560e01b815260040160405180910390fd5b600754604051634daf418d60e11b81526000916001600160a01b031690639b5e831a90610b8790600190600401611d93565b602060405180830381865afa158015610ba4573d6000803e3d6000fd5b505050506040513d601f19601f82011682018060405250810190610bc89190611dbb565b6001600160a01b0383166000908152600c60205260409020600201805460ff19166001179055905034811115610c1157604051631cf2628760e31b815260040160405180910390fd5b6007546040516000916001600160a01b03169034908381818185875af1925050503d8060008114610c5e576040519150601f19603f3d011682016040523d82523d6000602084013e610c63565b606091505b505090508061078257604051635b77072160e11b815260040160405180910390fd5b6000818152600260205260408120546001600160a01b0316806105ae5760405162461bcd60e51b8152602060048201526018602482015277115490cdcc8c4e881a5b9d985b1a59081d1bdad95b88125160421b60448201526064016106e1565b60006001600160a01b038216610d4f5760405162461bcd60e51b815260206004820152602960248201527f4552433732313a2061646472657373207a65726f206973206e6f7420612076616044820152683634b21037bbb732b960b91b60648201526084016106e1565b506001600160a01b031660009081526003602052604090205490565b610d73611496565b610d7d600061150a565b565b600b5460ff1615610da35760405163364759ad60e11b815260040160405180910390fd5b6000610dae82610ce5565b1115610dcd5760405163cea6102760e01b815260040160405180910390fd5b600754604051634daf418d60e11b81526000916001600160a01b031690639b5e831a90610dfe908490600401611d93565b602060405180830381865afa158015610e1b573d6000803e3d6000fd5b505050506040513d601f19601f82011682018060405250810190610e3f9190611dbb565b905080341015610e6257604051631cf2628760e31b815260040160405180910390fd5b610e70600880546001019055565b6000610e7b60085490565b6001600160a01b0384166000908152600c602052604090204281556001018190559050610a4883826114f0565b610eb0611496565b60005b81518160ff161015610fd657610ee4828260ff1681518110610ed757610ed7611dd4565b6020026020010151610ce5565b600003610fc457610ef9600880546001019055565b6000610f0460085490565b9050604051806060016040528042815260200182815260200160011515815250600c6000858560ff1681518110610f3d57610f3d611dd4565b60200260200101516001600160a01b03166001600160a01b03168152602001908152602001600020600082015181600001556020820151816001015560408201518160020160006101000a81548160ff021916908315150217905550905050610fc2838360ff1681518110610fb457610fb4611dd4565b6020026020010151826114f0565b505b80610fce81611dea565b915050610eb3565b5050565b6060600180546105c390611d12565b610fd633838361155c565b610ffc611496565b600780546001600160a01b0319166001600160a01b0392909216919091179055565b61102833836112a6565b6110445760405162461bcd60e51b81526004016106e190611d46565b610abc8484848461162a565b6000818152600260205260409020546060906001600160a01b0316611088576040516315b07cc360e21b815260040160405180910390fd5b600061109383610c85565b6001600160a01b0381166000908152600c602052604090206002015490915060ff161561114d57600a80546110c790611d12565b80601f01602080910402602001604051908101604052809291908181526020018280546110f390611d12565b80156111405780601f1061111557610100808354040283529160200191611140565b820191906000526020600020905b81548152906001019060200180831161112357829003601f168201915b5050505050915050919050565b600980546110c790611d12565b50919050565b611168611496565b6001600160a01b0381166111cd5760405162461bcd60e51b815260206004820152602660248201527f4f776e61626c653a206e6577206f776e657220697320746865207a65726f206160448201526564647265737360d01b60648201526084016106e1565b6111d68161150a565b50565b6000818152600260205260409020546001600160a01b03166111d65760405162461bcd60e51b8152602060048201526018602482015277115490cdcc8c4e881a5b9d985b1a59081d1bdad95b88125160421b60448201526064016106e1565b600081815260046020526040902080546001600160a01b0319166001600160a01b038416908117909155819061126d82610c85565b6001600160a01b03167f8c5be1e5ebec7d5bd14f71427d1e84f3dd0314c0f7b2291e5b200ac8c7c3b92560405160405180910390a45050565b6000806112b283610c85565b9050806001600160a01b0316846001600160a01b031614806112f957506001600160a01b0380821660009081526005602090815260408083209388168352929052205460ff165b8061131d5750836001600160a01b031661131284610646565b6001600160a01b0316145b949350505050565b826001600160a01b031661133882610c85565b6001600160a01b03161461135e5760405162461bcd60e51b81526004016106e190611e17565b6001600160a01b0382166113c05760405162461bcd60e51b8152602060048201526024808201527f4552433732313a207472616e7366657220746f20746865207a65726f206164646044820152637265737360e01b60648201526084016106e1565b6113cd838383600161165d565b826001600160a01b03166113e082610c85565b6001600160a01b0316146114065760405162461bcd60e51b81526004016106e190611e17565b600081815260046020908152604080832080546001600160a01b03199081169091556001600160a01b0387811680865260038552838620805460001901905590871680865283862080546001019055868652600290945282852080549092168417909155905184937fddf252ad1be2c89b69c2b068fc378daa952ba7f163c4a11628f55a4df523b3ef91a4505050565b6006546001600160a01b03163314610d7d5760405162461bcd60e51b815260206004820181905260248201527f4f776e61626c653a2063616c6c6572206973206e6f7420746865206f776e657260448201526064016106e1565b610fd68282604051806020016040528060008152506116b9565b600680546001600160a01b038381166001600160a01b0319831681179093556040519116919082907f8be0079c531659141344cd1fd0a4f28419497f9722a3daafe3b4186f6b6457e090600090a35050565b816001600160a01b0316836001600160a01b0316036115bd5760405162461bcd60e51b815260206004820152601960248201527f4552433732313a20617070726f766520746f2063616c6c65720000000000000060448201526064016106e1565b6001600160a01b03838116600081815260056020908152604080832094871680845294825291829020805460ff191686151590811790915591519182527f17307eab39ab6107e8899845ad3d59bd9653f200f220920489ca2b5937696c31910160405180910390a3505050565b611635848484611325565b611641848484846116ec565b610abc5760405162461bcd60e51b81526004016106e190611e5c565b6001600160a01b038416156116b45760405162461bcd60e51b815260206004820152601e60248201527f4572723a20746f6b656e207472616e7366657220697320424c4f434b4544000060448201526064016106e1565b610abc565b6116c383836117ed565b6116d060008484846116ec565b6107825760405162461bcd60e51b81526004016106e190611e5c565b60006001600160a01b0384163b156117e257604051630a85bd0160e11b81526001600160a01b0385169063150b7a0290611730903390899088908890600401611eae565b6020604051808303816000875af192505050801561176b575060408051601f3d908101601f1916820190925261176891810190611eeb565b60015b6117c8573d808015611799576040519150601f19603f3d011682016040523d82523d6000602084013e61179e565b606091505b5080516000036117c05760405162461bcd60e51b81526004016106e190611e5c565b805181602001fd5b6001600160e01b031916630a85bd0160e11b14905061131d565b506001949350505050565b6001600160a01b0382166118435760405162461bcd60e51b815260206004820181905260248201527f4552433732313a206d696e7420746f20746865207a65726f206164647265737360448201526064016106e1565b6000818152600260205260409020546001600160a01b0316156118a85760405162461bcd60e51b815260206004820152601c60248201527f4552433732313a20746f6b656e20616c7265616479206d696e7465640000000060448201526064016106e1565b6118b660008383600161165d565b6000818152600260205260409020546001600160a01b03161561191b5760405162461bcd60e51b815260206004820152601c60248201527f4552433732313a20746f6b656e20616c7265616479206d696e7465640000000060448201526064016106e1565b6001600160a01b038216600081815260036020908152604080832080546001019055848352600290915280822080546001600160a01b0319168417905551839291907fddf252ad1be2c89b69c2b068fc378daa952ba7f163c4a11628f55a4df523b3ef908290a45050565b6001600160e01b0319811681146111d657600080fd5b6000602082840312156119ae57600080fd5b81356119b981611986565b9392505050565b6000815180845260005b818110156119e6576020818501810151868301820152016119ca565b818111156119f8576000602083870101525b50601f01601f19169290920160200192915050565b6020815260006119b960208301846119c0565b600060208284031215611a3257600080fd5b5035919050565b80356001600160a01b0381168114611a5057600080fd5b919050565b60008060408385031215611a6857600080fd5b611a7183611a39565b946020939093013593505050565b600080600060608486031215611a9457600080fd5b611a9d84611a39565b9250611aab60208501611a39565b9150604084013590509250925092565b600060208284031215611acd57600080fd5b6119b982611a39565b80358015158114611a5057600080fd5b600060208284031215611af857600080fd5b6119b982611ad6565b634e487b7160e01b600052604160045260246000fd5b604051601f8201601f1916810167ffffffffffffffff81118282101715611b4057611b40611b01565b604052919050565b60006020808385031215611b5b57600080fd5b823567ffffffffffffffff80821115611b7357600080fd5b818501915085601f830112611b8757600080fd5b813581811115611b9957611b99611b01565b8060051b9150611baa848301611b17565b8181529183018401918481019088841115611bc457600080fd5b938501935b83851015611be957611bda85611a39565b82529385019390850190611bc9565b98975050505050505050565b60008060408385031215611c0857600080fd5b611c1183611a39565b9150611c1f60208401611ad6565b90509250929050565b60008060008060808587031215611c3e57600080fd5b611c4785611a39565b93506020611c56818701611a39565b935060408601359250606086013567ffffffffffffffff80821115611c7a57600080fd5b818801915088601f830112611c8e57600080fd5b813581811115611ca057611ca0611b01565b611cb2601f8201601f19168501611b17565b91508082528984828501011115611cc857600080fd5b808484018584013760008482840101525080935050505092959194509250565b60008060408385031215611cfb57600080fd5b611d0483611a39565b9150611c1f60208401611a39565b600181811c90821680611d2657607f821691505b60208210810361115a57634e487b7160e01b600052602260045260246000fd5b6020808252602d908201527f4552433732313a2063616c6c6572206973206e6f7420746f6b656e206f776e6560408201526c1c881bdc88185c1c1c9bdd9959609a1b606082015260800190565b6020810160048310611db557634e487b7160e01b600052602160045260246000fd5b91905290565b600060208284031215611dcd57600080fd5b5051919050565b634e487b7160e01b600052603260045260246000fd5b600060ff821660ff8103611e0e57634e487b7160e01b600052601160045260246000fd5b60010192915050565b60208082526025908201527f4552433732313a207472616e736665722066726f6d20696e636f72726563742060408201526437bbb732b960d91b606082015260800190565b60208082526032908201527f4552433732313a207472616e7366657220746f206e6f6e20455243373231526560408201527131b2b4bb32b91034b6b83632b6b2b73a32b960711b606082015260800190565b6001600160a01b0385811682528416602082015260408101839052608060608201819052600090611ee1908301846119c0565b9695505050505050565b600060208284031215611efd57600080fd5b81516119b98161198656fea26469706673582212209f06c34cab774ea7b2d43e6489a24e9d476fc3721e4557b4267cebf1b64677bc64736f6c634300080f003368747470733a2f2f6261666b726569666968683470643572376b71367a6967376f7936647a6d376176746b6870686574713671736a7a6d6475667a76356d756d686a792e697066732e6e667473746f726167652e6c696e6b68747470733a2f2f6261666b72656966726a3263366473346a346f6e66786d6f656c696266796877663678726363726f6832746637656a35356c72706c6267676936612e697066732e6e667473746f726167652e6c696e6b",
  "devdoc": {
    "kind": "dev",
    "methods": {
      "approve(address,uint256)": {
        "details": "See {IERC721-approve}."
      },
      "balanceOf(address)": {
        "details": "See {IERC721-balanceOf}."
      },
      "getApproved(uint256)": {
        "details": "See {IERC721-getApproved}."
      },
      "isApprovedForAll(address,address)": {
        "details": "See {IERC721-isApprovedForAll}."
      },
      "name()": {
        "details": "See {IERC721Metadata-name}."
      },
      "owner()": {
        "details": "Returns the address of the current owner."
      },
      "ownerOf(uint256)": {
        "details": "See {IERC721-ownerOf}."
      },
      "renounceOwnership()": {
        "details": "Leaves the contract without owner. It will not be possible to call `onlyOwner` functions anymore. Can only be called by the current owner. NOTE: Renouncing ownership will leave the contract without an owner, thereby removing any functionality that is only available to the owner."
      },
      "safeTransferFrom(address,address,uint256)": {
        "details": "See {IERC721-safeTransferFrom}."
      },
      "safeTransferFrom(address,address,uint256,bytes)": {
        "details": "See {IERC721-safeTransferFrom}."
      },
      "setApprovalForAll(address,bool)": {
        "details": "See {IERC721-setApprovalForAll}."
      },
      "supportsInterface(bytes4)": {
        "details": "See {IERC165-supportsInterface}."
      },
      "symbol()": {
        "details": "See {IERC721Metadata-symbol}."
      },
      "tokenURI(uint256)": {
        "details": "See {IERC721Metadata-tokenURI}."
      },
      "transferFrom(address,address,uint256)": {
        "details": "See {IERC721-transferFrom}."
      },
      "transferOwnership(address)": {
        "details": "Transfers ownership of the contract to a new account (`newOwner`). Can only be called by the current owner."
      }
    },
    "version": 1
  },
  "userdoc": {
    "kind": "user",
    "methods": {},
    "version": 1
  },
  "storageLayout": {
    "storage": [
      {
        "astId": 2275,
        "contract": "contracts/CreatorContract/PMMembershipManager.sol:PMMembershipManager",
        "label": "_name",
        "offset": 0,
        "slot": "0",
        "type": "t_string_storage"
      },
      {
        "astId": 2277,
        "contract": "contracts/CreatorContract/PMMembershipManager.sol:PMMembershipManager",
        "label": "_symbol",
        "offset": 0,
        "slot": "1",
        "type": "t_string_storage"
      },
      {
        "astId": 2281,
        "contract": "contracts/CreatorContract/PMMembershipManager.sol:PMMembershipManager",
        "label": "_owners",
        "offset": 0,
        "slot": "2",
        "type": "t_mapping(t_uint256,t_address)"
      },
      {
        "astId": 2285,
        "contract": "contracts/CreatorContract/PMMembershipManager.sol:PMMembershipManager",
        "label": "_balances",
        "offset": 0,
        "slot": "3",
        "type": "t_mapping(t_address,t_uint256)"
      },
      {
        "astId": 2289,
        "contract": "contracts/CreatorContract/PMMembershipManager.sol:PMMembershipManager",
        "label": "_tokenApprovals",
        "offset": 0,
        "slot": "4",
        "type": "t_mapping(t_uint256,t_address)"
      },
      {
        "astId": 2295,
        "contract": "contracts/CreatorContract/PMMembershipManager.sol:PMMembershipManager",
        "label": "_operatorApprovals",
        "offset": 0,
        "slot": "5",
        "type": "t_mapping(t_address,t_mapping(t_address,t_bool))"
      },
      {
        "astId": 53,
        "contract": "contracts/CreatorContract/PMMembershipManager.sol:PMMembershipManager",
        "label": "_owner",
        "offset": 0,
        "slot": "6",
        "type": "t_address"
      },
      {
        "astId": 6191,
        "contract": "contracts/CreatorContract/PMMembershipManager.sol:PMMembershipManager",
        "label": "membershipFeeManager",
        "offset": 0,
        "slot": "7",
        "type": "t_address_payable"
      },
      {
        "astId": 6198,
        "contract": "contracts/CreatorContract/PMMembershipManager.sol:PMMembershipManager",
        "label": "_tokenIdCounter",
        "offset": 0,
        "slot": "8",
        "type": "t_struct(Counter)4107_storage"
      },
      {
        "astId": 6201,
        "contract": "contracts/CreatorContract/PMMembershipManager.sol:PMMembershipManager",
        "label": "regularURI",
        "offset": 0,
        "slot": "9",
        "type": "t_string_storage"
      },
      {
        "astId": 6204,
        "contract": "contracts/CreatorContract/PMMembershipManager.sol:PMMembershipManager",
        "label": "premiumURI",
        "offset": 0,
        "slot": "10",
        "type": "t_string_storage"
      },
      {
        "astId": 6207,
        "contract": "contracts/CreatorContract/PMMembershipManager.sol:PMMembershipManager",
        "label": "pause",
        "offset": 0,
        "slot": "11",
        "type": "t_bool"
      },
      {
        "astId": 6212,
        "contract": "contracts/CreatorContract/PMMembershipManager.sol:PMMembershipManager",
        "label": "userDetail",
        "offset": 0,
        "slot": "12",
        "type": "t_mapping(t_address,t_struct(UserDetail)16136_storage)"
      },
      {
        "astId": 6216,
        "contract": "contracts/CreatorContract/PMMembershipManager.sol:PMMembershipManager",
        "label": "isPremium",
        "offset": 0,
        "slot": "13",
        "type": "t_mapping(t_uint256,t_bool)"
      }
    ],
    "types": {
      "t_address": {
        "encoding": "inplace",
        "label": "address",
        "numberOfBytes": "20"
      },
      "t_address_payable": {
        "encoding": "inplace",
        "label": "address payable",
        "numberOfBytes": "20"
      },
      "t_bool": {
        "encoding": "inplace",
        "label": "bool",
        "numberOfBytes": "1"
      },
      "t_mapping(t_address,t_bool)": {
        "encoding": "mapping",
        "key": "t_address",
        "label": "mapping(address => bool)",
        "numberOfBytes": "32",
        "value": "t_bool"
      },
      "t_mapping(t_address,t_mapping(t_address,t_bool))": {
        "encoding": "mapping",
        "key": "t_address",
        "label": "mapping(address => mapping(address => bool))",
        "numberOfBytes": "32",
        "value": "t_mapping(t_address,t_bool)"
      },
      "t_mapping(t_address,t_struct(UserDetail)16136_storage)": {
        "encoding": "mapping",
        "key": "t_address",
        "label": "mapping(address => struct StakingLibrary.UserDetail)",
        "numberOfBytes": "32",
        "value": "t_struct(UserDetail)16136_storage"
      },
      "t_mapping(t_address,t_uint256)": {
        "encoding": "mapping",
        "key": "t_address",
        "label": "mapping(address => uint256)",
        "numberOfBytes": "32",
        "value": "t_uint256"
      },
      "t_mapping(t_uint256,t_address)": {
        "encoding": "mapping",
        "key": "t_uint256",
        "label": "mapping(uint256 => address)",
        "numberOfBytes": "32",
        "value": "t_address"
      },
      "t_mapping(t_uint256,t_bool)": {
        "encoding": "mapping",
        "key": "t_uint256",
        "label": "mapping(uint256 => bool)",
        "numberOfBytes": "32",
        "value": "t_bool"
      },
      "t_string_storage": {
        "encoding": "bytes",
        "label": "string",
        "numberOfBytes": "32"
      },
      "t_struct(Counter)4107_storage": {
        "encoding": "inplace",
        "label": "struct Counters.Counter",
        "members": [
          {
            "astId": 4106,
            "contract": "contracts/CreatorContract/PMMembershipManager.sol:PMMembershipManager",
            "label": "_value",
            "offset": 0,
            "slot": "0",
            "type": "t_uint256"
          }
        ],
        "numberOfBytes": "32"
      },
      "t_struct(UserDetail)16136_storage": {
        "encoding": "inplace",
        "label": "struct StakingLibrary.UserDetail",
        "members": [
          {
            "astId": 16131,
            "contract": "contracts/CreatorContract/PMMembershipManager.sol:PMMembershipManager",
            "label": "memberSince",
            "offset": 0,
            "slot": "0",
            "type": "t_uint256"
          },
          {
            "astId": 16133,
            "contract": "contracts/CreatorContract/PMMembershipManager.sol:PMMembershipManager",
            "label": "memberId",
            "offset": 0,
            "slot": "1",
            "type": "t_uint256"
          },
          {
            "astId": 16135,
            "contract": "contracts/CreatorContract/PMMembershipManager.sol:PMMembershipManager",
            "label": "isPremium",
            "offset": 0,
            "slot": "2",
            "type": "t_bool"
          }
        ],
        "numberOfBytes": "96"
      },
      "t_uint256": {
        "encoding": "inplace",
        "label": "uint256",
        "numberOfBytes": "32"
      }
    }
  }
}