{
  "address": "0xc123942c316c3A715d5A412bdB0914f39343c40e",
  "abi": [
    {
      "inputs": [
        {
          "internalType": "address",
          "name": "_giveAwayManager",
          "type": "address"
        }
      ],
      "stateMutability": "nonpayable",
      "type": "constructor"
    },
    {
      "inputs": [],
      "name": "CONTRACT_IS_PAUSED",
      "type": "error"
    },
    {
      "inputs": [],
      "name": "NOT_ENOUGH_BALANCE",
      "type": "error"
    },
    {
      "anonymous": false,
      "inputs": [
        {
          "indexed": true,
          "internalType": "address",
          "name": "previousOwner",
          "type": "address"
        },
        {
          "indexed": true,
          "internalType": "address",
          "name": "newOwner",
          "type": "address"
        }
      ],
      "name": "OwnershipTransferred",
      "type": "event"
    },
    {
      "anonymous": false,
      "inputs": [
        {
          "indexed": false,
          "internalType": "address",
          "name": "",
          "type": "address"
        },
        {
          "indexed": false,
          "internalType": "uint256",
          "name": "",
          "type": "uint256"
        }
      ],
      "name": "Received",
      "type": "event"
    },
    {
      "anonymous": false,
      "inputs": [
        {
          "indexed": false,
          "internalType": "address",
          "name": "",
          "type": "address"
        },
        {
          "indexed": false,
          "internalType": "address",
          "name": "",
          "type": "address"
        },
        {
          "indexed": false,
          "internalType": "uint256",
          "name": "",
          "type": "uint256"
        },
        {
          "indexed": false,
          "internalType": "uint8",
          "name": "",
          "type": "uint8"
        }
      ],
      "name": "RewardApplied",
      "type": "event"
    },
    {
      "inputs": [
        {
          "internalType": "address",
          "name": "campaign",
          "type": "address"
        },
        {
          "internalType": "address",
          "name": "user",
          "type": "address"
        },
        {
          "internalType": "uint8",
          "name": "amountUSD",
          "type": "uint8"
        },
        {
          "internalType": "enum StakingLibrary.StakingType",
          "name": "_type",
          "type": "uint8"
        }
      ],
      "name": "applyRewardToACampaing",
      "outputs": [],
      "stateMutability": "nonpayable",
      "type": "function"
    },
    {
      "inputs": [
        {
          "internalType": "bool",
          "name": "action",
          "type": "bool"
        }
      ],
      "name": "changePauseStatus",
      "outputs": [],
      "stateMutability": "nonpayable",
      "type": "function"
    },
    {
      "inputs": [
        {
          "internalType": "address",
          "name": "winner",
          "type": "address"
        },
        {
          "internalType": "uint8",
          "name": "prizeUSD",
          "type": "uint8"
        }
      ],
      "name": "distributeReward",
      "outputs": [],
      "stateMutability": "nonpayable",
      "type": "function"
    },
    {
      "inputs": [],
      "name": "emergencyWithdraw",
      "outputs": [],
      "stateMutability": "nonpayable",
      "type": "function"
    },
    {
      "inputs": [],
      "name": "getLatestPriceOfOneUSD",
      "outputs": [
        {
          "internalType": "int256",
          "name": "price",
          "type": "int256"
        }
      ],
      "stateMutability": "pure",
      "type": "function"
    },
    {
      "inputs": [],
      "name": "giveAwayManager",
      "outputs": [
        {
          "internalType": "address",
          "name": "",
          "type": "address"
        }
      ],
      "stateMutability": "view",
      "type": "function"
    },
    {
      "inputs": [],
      "name": "owner",
      "outputs": [
        {
          "internalType": "address",
          "name": "",
          "type": "address"
        }
      ],
      "stateMutability": "view",
      "type": "function"
    },
    {
      "inputs": [],
      "name": "pause",
      "outputs": [
        {
          "internalType": "bool",
          "name": "",
          "type": "bool"
        }
      ],
      "stateMutability": "view",
      "type": "function"
    },
    {
      "inputs": [],
      "name": "renounceOwnership",
      "outputs": [],
      "stateMutability": "nonpayable",
      "type": "function"
    },
    {
      "inputs": [
        {
          "internalType": "contract IUniswapV2Router02",
          "name": "_uniswapV2Router",
          "type": "address"
        }
      ],
      "name": "setRouter",
      "outputs": [],
      "stateMutability": "nonpayable",
      "type": "function"
    },
    {
      "inputs": [],
      "name": "totalRewardDistributed",
      "outputs": [
        {
          "internalType": "uint256",
          "name": "",
          "type": "uint256"
        }
      ],
      "stateMutability": "view",
      "type": "function"
    },
    {
      "inputs": [
        {
          "internalType": "address",
          "name": "newOwner",
          "type": "address"
        }
      ],
      "name": "transferOwnership",
      "outputs": [],
      "stateMutability": "nonpayable",
      "type": "function"
    },
    {
      "inputs": [],
      "name": "uniswapV2Router",
      "outputs": [
        {
          "internalType": "contract IUniswapV2Router02",
          "name": "",
          "type": "address"
        }
      ],
      "stateMutability": "view",
      "type": "function"
    },
    {
      "inputs": [
        {
          "internalType": "address",
          "name": "_giveAwayManager",
          "type": "address"
        }
      ],
      "name": "updateGiveAwayManager",
      "outputs": [],
      "stateMutability": "nonpayable",
      "type": "function"
    },
    {
      "stateMutability": "payable",
      "type": "receive"
    }
  ],
  "transactionHash": "0x77c73f081c18381a65a69561a4e644d666e61ca6509c3983ef915602a6c79233",
  "args": [
    "0x6Fb08a7d994570a16322c1eA2d8D9936719761B9"
  ],
  "numDeployments": 2,
  "solcInputHash": "dd85de69ef8c2b80fd00b51c5c26d752",
  "bytecode": "0x6080604052600180546001600160a01b0319908116730567f2323251f0aab15c8dfb1967e4e8a7d42aee17909155600280549091167310ed43c718714eb63d5aa57b78b54704e256024e1790556003805460ff60a01b1916905534801561006557600080fd5b5060405161147638038061147683398101604081905261008491610102565b61008d336100b2565b600380546001600160a01b0319166001600160a01b0392909216919091179055610132565b600080546001600160a01b038381166001600160a01b0319831681178455604051919092169283917f8be0079c531659141344cd1fd0a4f28419497f9722a3daafe3b4186f6b6457e09190a35050565b60006020828403121561011457600080fd5b81516001600160a01b038116811461012b57600080fd5b9392505050565b611335806101416000396000f3fe6080604052600436106100e15760003560e01c80638456cb591161007f578063d478c0e011610059578063d478c0e014610282578063db2e21bc146102a2578063f206f2db146102b7578063f2fde38b146102d757600080fd5b80638456cb59146102135780638da5cb5b14610244578063c0d786551461026257600080fd5b806330188ee8116100bb57806330188ee8146101a85780633424b8ce146101be578063442f1f65146101de578063715018a6146101fe57600080fd5b806302a64a4b146101255780631694505e1461014e578063190f5ded1461018657600080fd5b3661012057604080513381523460208201527f88a5966d370b9919b20f3e2c13ff65706f196a4e32cc2c12bf57088f88525874910160405180910390a1005b600080fd5b34801561013157600080fd5b506602b0614fb6df5b5b6040519081526020015b60405180910390f35b34801561015a57600080fd5b5060025461016e906001600160a01b031681565b6040516001600160a01b039091168152602001610145565b34801561019257600080fd5b506101a66101a1366004610ae3565b6102f7565b005b3480156101b457600080fd5b5061013b60045481565b3480156101ca57600080fd5b506101a66101d9366004610b51565b6105a9565b3480156101ea57600080fd5b506101a66101f9366004610b75565b6105cf565b34801561020a57600080fd5b506101a66105f9565b34801561021f57600080fd5b5060035461023490600160a01b900460ff1681565b6040519015158152602001610145565b34801561025057600080fd5b506000546001600160a01b031661016e565b34801561026e57600080fd5b506101a661027d366004610b75565b61060d565b34801561028e57600080fd5b506101a661029d366004610b92565b610637565b3480156102ae57600080fd5b506101a6610736565b3480156102c357600080fd5b5060035461016e906001600160a01b031681565b3480156102e357600080fd5b506101a66102f2366004610b75565b6107d3565b6003546001600160a01b031633146103465760405162461bcd60e51b815260206004820152600d60248201526c139bc8105d5d1a1bdc9a5e9959609a1b60448201526064015b60405180910390fd5b600354600160a01b900460ff16156103715760405163364759ad60e11b815260040160405180910390fd5b6602b0614fb6df5b600061038860ff851683610be1565b9050806004546103989190610c00565b60045547818110156103bd5760405163119563e560e31b815260040160405180910390fd5b6000876001600160a01b03166367c897fe6040518163ffffffff1660e01b815260040160006040518083038186803b1580156103f857600080fd5b505afa15801561040c573d6000803e3d6000fd5b505050506040513d6000823e601f3d908101601f191682016040526104349190810190611011565b602081015160600151909150600061044d82308761084c565b60405163095ea7b360e01b81526001600160a01b038c81166004830152602482018390529192509083169063095ea7b390604401602060405180830381600087803b15801561049b57600080fd5b505af11580156104af573d6000803e3d6000fd5b505050506040513d601f19601f820116820180604052508101906104d3919061112f565b5060405163018de22360e61b81526001600160a01b038b169063637888c090610504908c9085908c90600401611162565b600060405180830381600087803b15801561051e57600080fd5b505af1158015610532573d6000803e3d6000fd5b505050507f4d7cc17f866386d5d89d8e5590222a32b2f868de90f085e211d0643cc6d8fa5d8a8a838a600481111561056c5761056c61114c565b604080516001600160a01b0395861681529490931660208501529183015260ff16606082015260800160405180910390a150505050505050505050565b6105b1610a15565b60038054911515600160a01b0260ff60a01b19909216919091179055565b6105d7610a15565b600380546001600160a01b0319166001600160a01b0392909216919091179055565b610601610a15565b61060b6000610a6f565b565b610615610a15565b600280546001600160a01b0319166001600160a01b0392909216919091179055565b6003546001600160a01b031633146106815760405162461bcd60e51b815260206004820152600d60248201526c139bc8105d5d1a1bdc9a5e9959609a1b604482015260640161033d565b600354600160a01b900460ff16156106ac5760405163364759ad60e11b815260040160405180910390fd5b6602b0614fb6df5b60006106c360ff841683610be1565b9050806004546106d39190610c00565b60045547818110156106f85760405163119563e560e31b815260040160405180910390fd5b6040516001600160a01b0386169083156108fc029084906000818181858888f1935050505015801561072e573d6000803e3d6000fd5b505050505050565b61073e610a15565b47806107965760405162461bcd60e51b815260206004820152602160248201527f4e6f2062616c616e63652061766169616c626c6520666f7220776974686472616044820152607760f81b606482015260840161033d565b600080546040516001600160a01b039091169183156108fc02918491818181858888f193505050501580156107cf573d6000803e3d6000fd5b5050565b6107db610a15565b6001600160a01b0381166108405760405162461bcd60e51b815260206004820152602660248201527f4f776e61626c653a206e6577206f776e657220697320746865207a65726f206160448201526564647265737360d01b606482015260840161033d565b61084981610a6f565b50565b604080516002808252606082018352600092839291906020830190803683375050600254604080516315ab88c960e31b815290519394506001600160a01b039091169263ad5c464892506004808301926020929190829003018186803b1580156108b557600080fd5b505afa1580156108c9573d6000803e3d6000fd5b505050506040513d601f19601f820116820180604052508101906108ed91906111a5565b81600081518110610900576109006111c2565b60200260200101906001600160a01b031690816001600160a01b0316815250508481600181518110610934576109346111c2565b6001600160a01b03928316602091820292909201015260025460009116637ff36ab585838589610966426101f4610c00565b6040518663ffffffff1660e01b815260040161098594939291906111d8565b6000604051808303818588803b15801561099e57600080fd5b505af11580156109b2573d6000803e3d6000fd5b50505050506040513d6000823e601f3d908101601f191682016040526109db9190810190611242565b9050600081600183516109ee91906112e8565b815181106109fe576109fe6111c2565b602002602001015190508093505050509392505050565b6000546001600160a01b0316331461060b5760405162461bcd60e51b815260206004820181905260248201527f4f776e61626c653a2063616c6c6572206973206e6f7420746865206f776e6572604482015260640161033d565b600080546001600160a01b038381166001600160a01b0319831681178455604051919092169283917f8be0079c531659141344cd1fd0a4f28419497f9722a3daafe3b4186f6b6457e09190a35050565b6001600160a01b038116811461084957600080fd5b60ff8116811461084957600080fd5b60008060008060808587031215610af957600080fd5b8435610b0481610abf565b93506020850135610b1481610abf565b92506040850135610b2481610ad4565b9150606085013560058110610b3857600080fd5b939692955090935050565b801515811461084957600080fd5b600060208284031215610b6357600080fd5b8135610b6e81610b43565b9392505050565b600060208284031215610b8757600080fd5b8135610b6e81610abf565b60008060408385031215610ba557600080fd5b8235610bb081610abf565b91506020830135610bc081610ad4565b809150509250929050565b634e487b7160e01b600052601160045260246000fd5b6000816000190483118215151615610bfb57610bfb610bcb565b500290565b60008219821115610c1357610c13610bcb565b500190565b634e487b7160e01b600052604160045260246000fd5b604051610100810167ffffffffffffffff81118282101715610c5257610c52610c18565b60405290565b604051610140810167ffffffffffffffff81118282101715610c5257610c52610c18565b6040516080810167ffffffffffffffff81118282101715610c5257610c52610c18565b60405160e0810167ffffffffffffffff81118282101715610c5257610c52610c18565b604051601f8201601f1916810167ffffffffffffffff81118282101715610ceb57610ceb610c18565b604052919050565b8051610cfe81610abf565b919050565b805160038110610cfe57600080fd5b600082601f830112610d2357600080fd5b815167ffffffffffffffff811115610d3d57610d3d610c18565b6020610d51601f8301601f19168201610cc2565b8281528582848701011115610d6557600080fd5b60005b83811015610d83578581018301518282018401528201610d68565b83811115610d945760008385840101525b5095945050505050565b8051610cfe81610ad4565b60006101008284031215610dbc57600080fd5b610dc4610c2e565b9050610dcf82610d03565b8152602082015167ffffffffffffffff80821115610dec57600080fd5b610df885838601610d12565b60208401526040840151915080821115610e1157600080fd5b610e1d85838601610d12565b6040840152610e2e60608501610cf3565b6060840152610e3f60808501610d9e565b608084015260a0840151915080821115610e5857600080fd5b50610e6584828501610d12565b60a083015250610e7760c08301610d03565b60c082015260e082015160e082015292915050565b600060408284031215610e9e57600080fd5b6040516040810181811067ffffffffffffffff82111715610ec157610ec1610c18565b604052825181526020928301519281019290925250919050565b60006101408284031215610eee57600080fd5b610ef6610c58565b9050815167ffffffffffffffff80821115610f1057600080fd5b610f1c85838601610d12565b83526020840151915080821115610f3257600080fd5b610f3e85838601610d12565b60208401526040840151915080821115610f5757600080fd5b610f6385838601610d12565b60408401526060840151915080821115610f7c57600080fd5b610f8885838601610d12565b60608401526080840151915080821115610fa157600080fd5b50610fae84828501610d12565b608083015250610fc060a08301610d9e565b60a0820152610fd160c08301610d9e565b60c0820152610fe260e08301610d9e565b60e0820152610100610ff5818401610d9e565b90820152610120611007838201610d9e565b9082015292915050565b60006020828403121561102357600080fd5b815167ffffffffffffffff8082111561103b57600080fd5b9083019081850361016081121561105157600080fd5b611059610c7c565b60e082121561106757600080fd5b61106f610c9f565b915083518252602084015161108381610abf565b8060208401525060408401516040830152606084015160608301526080840151608083015260a084015160a083015260c08401516110c081610abf565b60c083015290815260e083015190828211156110db57600080fd5b6110e787838601610da9565b60208201526110fa876101008601610e8c565b604082015261014084015191508282111561111457600080fd5b61112087838601610edb565b60608201529695505050505050565b60006020828403121561114157600080fd5b8151610b6e81610b43565b634e487b7160e01b600052602160045260246000fd5b6001600160a01b038416815260208101839052606081016005831061119757634e487b7160e01b600052602160045260246000fd5b826040830152949350505050565b6000602082840312156111b757600080fd5b8151610b6e81610abf565b634e487b7160e01b600052603260045260246000fd5b600060808201868352602060808185015281875180845260a086019150828901935060005b818110156112225784516001600160a01b0316835293830193918301916001016111fd565b50506001600160a01b039690961660408501525050506060015292915050565b6000602080838503121561125557600080fd5b825167ffffffffffffffff8082111561126d57600080fd5b818501915085601f83011261128157600080fd5b81518181111561129357611293610c18565b8060051b91506112a4848301610cc2565b81815291830184019184810190888411156112be57600080fd5b938501935b838510156112dc578451825293850193908501906112c3565b98975050505050505050565b6000828210156112fa576112fa610bcb565b50039056fea2646970667358221220ea69cca649271356deba03ef2b32c9c8b53c7c970cd407eb094a2d6bb9fc536f64736f6c63430008090033",
  "devdoc": {
    "kind": "dev",
    "methods": {
      "owner()": {
        "details": "Returns the address of the current owner."
      },
      "renounceOwnership()": {
        "details": "Leaves the contract without owner. It will not be possible to call `onlyOwner` functions anymore. Can only be called by the current owner. NOTE: Renouncing ownership will leave the contract without an owner, thereby removing any functionality that is only available to the owner."
      },
      "transferOwnership(address)": {
        "details": "Transfers ownership of the contract to a new account (`newOwner`). Can only be called by the current owner."
      }
    },
    "version": 1
  },
  "userdoc": {
    "kind": "user",
    "methods": {},
    "notice": "Network: BNB Chain Mainnet Aggregator: BNB/USD Address: 0x0567F2323251f0Aab15c8dFb1967E4e8A7D42aeE",
    "version": 1
  },
  "storageLayout": {
    "storage": [
      {
        "astId": 53,
        "contract": "contracts/Planetmoon/PMRewardDistributor.sol:PMRewardDistributor",
        "label": "_owner",
        "offset": 0,
        "slot": "0",
        "type": "t_address"
      },
      {
        "astId": 6287,
        "contract": "contracts/Planetmoon/PMRewardDistributor.sol:PMRewardDistributor",
        "label": "priceFeed",
        "offset": 0,
        "slot": "1",
        "type": "t_contract(AggregatorV3Interface)45"
      },
      {
        "astId": 6293,
        "contract": "contracts/Planetmoon/PMRewardDistributor.sol:PMRewardDistributor",
        "label": "uniswapV2Router",
        "offset": 0,
        "slot": "2",
        "type": "t_contract(IUniswapV2Router02)8578"
      },
      {
        "astId": 6311,
        "contract": "contracts/Planetmoon/PMRewardDistributor.sol:PMRewardDistributor",
        "label": "giveAwayManager",
        "offset": 0,
        "slot": "3",
        "type": "t_address"
      },
      {
        "astId": 6314,
        "contract": "contracts/Planetmoon/PMRewardDistributor.sol:PMRewardDistributor",
        "label": "pause",
        "offset": 20,
        "slot": "3",
        "type": "t_bool"
      },
      {
        "astId": 6316,
        "contract": "contracts/Planetmoon/PMRewardDistributor.sol:PMRewardDistributor",
        "label": "totalRewardDistributed",
        "offset": 0,
        "slot": "4",
        "type": "t_uint256"
      }
    ],
    "types": {
      "t_address": {
        "encoding": "inplace",
        "label": "address",
        "numberOfBytes": "20"
      },
      "t_bool": {
        "encoding": "inplace",
        "label": "bool",
        "numberOfBytes": "1"
      },
      "t_contract(AggregatorV3Interface)45": {
        "encoding": "inplace",
        "label": "contract AggregatorV3Interface",
        "numberOfBytes": "20"
      },
      "t_contract(IUniswapV2Router02)8578": {
        "encoding": "inplace",
        "label": "contract IUniswapV2Router02",
        "numberOfBytes": "20"
      },
      "t_uint256": {
        "encoding": "inplace",
        "label": "uint256",
        "numberOfBytes": "32"
      }
    }
  }
}