{
  "address": "0xdFcc38b1C46bc43aD47F73921a7A6F0cfd3097Ca",
  "abi": [
    {
      "inputs": [
        {
          "internalType": "address",
          "name": "_giveAwayManager",
          "type": "address"
        }
      ],
      "stateMutability": "nonpayable",
      "type": "constructor"
    },
    {
      "inputs": [],
      "name": "CONTRACT_IS_PAUSED",
      "type": "error"
    },
    {
      "inputs": [],
      "name": "NOT_ENOUGH_BALANCE",
      "type": "error"
    },
    {
      "anonymous": false,
      "inputs": [
        {
          "indexed": true,
          "internalType": "address",
          "name": "previousOwner",
          "type": "address"
        },
        {
          "indexed": true,
          "internalType": "address",
          "name": "newOwner",
          "type": "address"
        }
      ],
      "name": "OwnershipTransferred",
      "type": "event"
    },
    {
      "anonymous": false,
      "inputs": [
        {
          "indexed": false,
          "internalType": "address",
          "name": "",
          "type": "address"
        },
        {
          "indexed": false,
          "internalType": "uint256",
          "name": "",
          "type": "uint256"
        }
      ],
      "name": "Received",
      "type": "event"
    },
    {
      "anonymous": false,
      "inputs": [
        {
          "indexed": false,
          "internalType": "address",
          "name": "",
          "type": "address"
        },
        {
          "indexed": false,
          "internalType": "address",
          "name": "",
          "type": "address"
        },
        {
          "indexed": false,
          "internalType": "uint256",
          "name": "",
          "type": "uint256"
        },
        {
          "indexed": false,
          "internalType": "uint8",
          "name": "",
          "type": "uint8"
        }
      ],
      "name": "RewardApplied",
      "type": "event"
    },
    {
      "inputs": [
        {
          "internalType": "address",
          "name": "campaign",
          "type": "address"
        },
        {
          "internalType": "address",
          "name": "user",
          "type": "address"
        },
        {
          "internalType": "uint8",
          "name": "amountUSD",
          "type": "uint8"
        },
        {
          "internalType": "enum StakingLibrary.StakingType",
          "name": "_type",
          "type": "uint8"
        }
      ],
      "name": "applyRewardToACampaing",
      "outputs": [],
      "stateMutability": "nonpayable",
      "type": "function"
    },
    {
      "inputs": [
        {
          "internalType": "bool",
          "name": "action",
          "type": "bool"
        }
      ],
      "name": "changePauseStatus",
      "outputs": [],
      "stateMutability": "nonpayable",
      "type": "function"
    },
    {
      "inputs": [
        {
          "internalType": "address",
          "name": "winner",
          "type": "address"
        },
        {
          "internalType": "uint8",
          "name": "prizeUSD",
          "type": "uint8"
        }
      ],
      "name": "distributeReward",
      "outputs": [],
      "stateMutability": "nonpayable",
      "type": "function"
    },
    {
      "inputs": [],
      "name": "emergencyWithdraw",
      "outputs": [],
      "stateMutability": "nonpayable",
      "type": "function"
    },
    {
      "inputs": [],
      "name": "getLatestPriceOfOneUSD",
      "outputs": [
        {
          "internalType": "int256",
          "name": "price",
          "type": "int256"
        }
      ],
      "stateMutability": "pure",
      "type": "function"
    },
    {
      "inputs": [],
      "name": "giveAwayManager",
      "outputs": [
        {
          "internalType": "address",
          "name": "",
          "type": "address"
        }
      ],
      "stateMutability": "view",
      "type": "function"
    },
    {
      "inputs": [],
      "name": "owner",
      "outputs": [
        {
          "internalType": "address",
          "name": "",
          "type": "address"
        }
      ],
      "stateMutability": "view",
      "type": "function"
    },
    {
      "inputs": [],
      "name": "pause",
      "outputs": [
        {
          "internalType": "bool",
          "name": "",
          "type": "bool"
        }
      ],
      "stateMutability": "view",
      "type": "function"
    },
    {
      "inputs": [],
      "name": "renounceOwnership",
      "outputs": [],
      "stateMutability": "nonpayable",
      "type": "function"
    },
    {
      "inputs": [
        {
          "internalType": "contract IUniswapV2Router02",
          "name": "_uniswapV2Router",
          "type": "address"
        }
      ],
      "name": "setRouter",
      "outputs": [],
      "stateMutability": "nonpayable",
      "type": "function"
    },
    {
      "inputs": [
        {
          "internalType": "address",
          "name": "newOwner",
          "type": "address"
        }
      ],
      "name": "transferOwnership",
      "outputs": [],
      "stateMutability": "nonpayable",
      "type": "function"
    },
    {
      "inputs": [],
      "name": "uniswapV2Router",
      "outputs": [
        {
          "internalType": "contract IUniswapV2Router02",
          "name": "",
          "type": "address"
        }
      ],
      "stateMutability": "view",
      "type": "function"
    },
    {
      "inputs": [
        {
          "internalType": "address",
          "name": "_giveAwayManager",
          "type": "address"
        }
      ],
      "name": "updateGiveAwayManager",
      "outputs": [],
      "stateMutability": "nonpayable",
      "type": "function"
    },
    {
      "stateMutability": "payable",
      "type": "receive"
    }
  ],
  "transactionHash": "0xfc4ab5f93f1fc0694d375b9329c33923cb608d6860e4cbe20642d95cebafc626",
  "args": [
    "0x6Fb08a7d994570a16322c1eA2d8D9936719761B9"
  ],
  "numDeployments": 1,
  "solcInputHash": "e61dfc8c28feed11111b89b9ad43a47f",
  "bytecode": "0x6080604052600180546001600160a01b0319908116730567f2323251f0aab15c8dfb1967e4e8a7d42aee17909155600280549091167310ed43c718714eb63d5aa57b78b54704e256024e1790556003805460ff60a01b1916905534801561006557600080fd5b5060405161137b38038061137b83398101604081905261008491610102565b61008d336100b2565b600380546001600160a01b0319166001600160a01b0392909216919091179055610132565b600080546001600160a01b038381166001600160a01b0319831681178455604051919092169283917f8be0079c531659141344cd1fd0a4f28419497f9722a3daafe3b4186f6b6457e09190a35050565b60006020828403121561011457600080fd5b81516001600160a01b038116811461012b57600080fd5b9392505050565b61123a806101416000396000f3fe6080604052600436106100c65760003560e01c80638456cb591161007f578063d478c0e011610059578063d478c0e01461024f578063db2e21bc1461026f578063f206f2db14610284578063f2fde38b146102a457600080fd5b80638456cb59146101e05780638da5cb5b14610211578063c0d786551461022f57600080fd5b806302a64a4b1461010a5780631694505e14610131578063190f5ded146101695780633424b8ce1461018b578063442f1f65146101ab578063715018a6146101cb57600080fd5b3661010557604080513381523460208201527f88a5966d370b9919b20f3e2c13ff65706f196a4e32cc2c12bf57088f88525874910160405180910390a1005b600080fd5b34801561011657600080fd5b506040516602b0614fb6df5b81526020015b60405180910390f35b34801561013d57600080fd5b50600254610151906001600160a01b031681565b6040516001600160a01b039091168152602001610128565b34801561017557600080fd5b50610189610184366004610a9b565b6102c4565b005b34801561019757600080fd5b506101896101a6366004610b05565b610565565b3480156101b757600080fd5b506101896101c6366004610b29565b61058b565b3480156101d757600080fd5b506101896105b5565b3480156101ec57600080fd5b5060035461020190600160a01b900460ff1681565b6040519015158152602001610128565b34801561021d57600080fd5b506000546001600160a01b0316610151565b34801561023b57600080fd5b5061018961024a366004610b29565b6105c9565b34801561025b57600080fd5b5061018961026a366004610b46565b6105f3565b34801561027b57600080fd5b506101896106e1565b34801561029057600080fd5b50600354610151906001600160a01b031681565b3480156102b057600080fd5b506101896102bf366004610b29565b61077e565b6003546001600160a01b031633146103135760405162461bcd60e51b815260206004820152600d60248201526c139bc8105d5d1a1bdc9a5e9959609a1b60448201526064015b60405180910390fd5b600354600160a01b900460ff161561033e5760405163364759ad60e11b815260040160405180910390fd5b6602b0614fb6df5b600061035560ff851683610b95565b905047818110156103795760405163119563e560e31b815260040160405180910390fd5b6000876001600160a01b03166367c897fe6040518163ffffffff1660e01b815260040160006040518083038186803b1580156103b457600080fd5b505afa1580156103c8573d6000803e3d6000fd5b505050506040513d6000823e601f3d908101601f191682016040526103f09190810190610efe565b60208101516060015190915060006104098230876107f7565b60405163095ea7b360e01b81526001600160a01b038c81166004830152602482018390529192509083169063095ea7b390604401602060405180830381600087803b15801561045757600080fd5b505af115801561046b573d6000803e3d6000fd5b505050506040513d601f19601f8201168201806040525081019061048f919061101c565b5060405163018de22360e61b81526001600160a01b038b169063637888c0906104c0908c9085908c9060040161104f565b600060405180830381600087803b1580156104da57600080fd5b505af11580156104ee573d6000803e3d6000fd5b505050507f4d7cc17f866386d5d89d8e5590222a32b2f868de90f085e211d0643cc6d8fa5d8a8a838a600281111561052857610528611039565b604080516001600160a01b0395861681529490931660208501529183015260ff16606082015260800160405180910390a150505050505050505050565b61056d6109c0565b60038054911515600160a01b0260ff60a01b19909216919091179055565b6105936109c0565b600380546001600160a01b0319166001600160a01b0392909216919091179055565b6105bd6109c0565b6105c76000610a1a565b565b6105d16109c0565b600280546001600160a01b0319166001600160a01b0392909216919091179055565b6003546001600160a01b0316331461063d5760405162461bcd60e51b815260206004820152600d60248201526c139bc8105d5d1a1bdc9a5e9959609a1b604482015260640161030a565b600354600160a01b900460ff16156106685760405163364759ad60e11b815260040160405180910390fd5b6602b0614fb6df5b600061067f60ff841683610b95565b905047818110156106a35760405163119563e560e31b815260040160405180910390fd5b6040516001600160a01b0386169083156108fc029084906000818181858888f193505050501580156106d9573d6000803e3d6000fd5b505050505050565b6106e96109c0565b47806107415760405162461bcd60e51b815260206004820152602160248201527f4e6f2062616c616e63652061766169616c626c6520666f7220776974686472616044820152607760f81b606482015260840161030a565b600080546040516001600160a01b039091169183156108fc02918491818181858888f1935050505015801561077a573d6000803e3d6000fd5b5050565b6107866109c0565b6001600160a01b0381166107eb5760405162461bcd60e51b815260206004820152602660248201527f4f776e61626c653a206e6577206f776e657220697320746865207a65726f206160448201526564647265737360d01b606482015260840161030a565b6107f481610a1a565b50565b604080516002808252606082018352600092839291906020830190803683375050600254604080516315ab88c960e31b815290519394506001600160a01b039091169263ad5c464892506004808301926020929190829003018186803b15801561086057600080fd5b505afa158015610874573d6000803e3d6000fd5b505050506040513d601f19601f820116820180604052508101906108989190611092565b816000815181106108ab576108ab6110af565b60200260200101906001600160a01b031690816001600160a01b03168152505084816001815181106108df576108df6110af565b6001600160a01b03928316602091820292909201015260025460009116637ff36ab585838589610911426101f46110c5565b6040518663ffffffff1660e01b815260040161093094939291906110dd565b6000604051808303818588803b15801561094957600080fd5b505af115801561095d573d6000803e3d6000fd5b50505050506040513d6000823e601f3d908101601f191682016040526109869190810190611147565b90506000816001835161099991906111ed565b815181106109a9576109a96110af565b602002602001015190508093505050509392505050565b6000546001600160a01b031633146105c75760405162461bcd60e51b815260206004820181905260248201527f4f776e61626c653a2063616c6c6572206973206e6f7420746865206f776e6572604482015260640161030a565b600080546001600160a01b038381166001600160a01b0319831681178455604051919092169283917f8be0079c531659141344cd1fd0a4f28419497f9722a3daafe3b4186f6b6457e09190a35050565b6001600160a01b03811681146107f457600080fd5b60ff811681146107f457600080fd5b600381106107f457600080fd5b60008060008060808587031215610ab157600080fd5b8435610abc81610a6a565b93506020850135610acc81610a6a565b92506040850135610adc81610a7f565b91506060850135610aec81610a8e565b939692955090935050565b80151581146107f457600080fd5b600060208284031215610b1757600080fd5b8135610b2281610af7565b9392505050565b600060208284031215610b3b57600080fd5b8135610b2281610a6a565b60008060408385031215610b5957600080fd5b8235610b6481610a6a565b91506020830135610b7481610a7f565b809150509250929050565b634e487b7160e01b600052601160045260246000fd5b6000816000190483118215151615610baf57610baf610b7f565b500290565b634e487b7160e01b600052604160045260246000fd5b604051610100810167ffffffffffffffff81118282101715610bee57610bee610bb4565b60405290565b6040516080810167ffffffffffffffff81118282101715610bee57610bee610bb4565b60405160e0810167ffffffffffffffff81118282101715610bee57610bee610bb4565b604051601f8201601f1916810167ffffffffffffffff81118282101715610c6357610c63610bb4565b604052919050565b8051610c7681610a6a565b919050565b8051610c7681610a8e565b600082601f830112610c9757600080fd5b815167ffffffffffffffff811115610cb157610cb1610bb4565b6020610cc5601f8301601f19168201610c3a565b8281528582848701011115610cd957600080fd5b60005b83811015610cf7578581018301518282018401528201610cdc565b83811115610d085760008385840101525b5095945050505050565b8051610c7681610a7f565b60006101008284031215610d3057600080fd5b610d38610bca565b9050610d4382610c7b565b8152602082015167ffffffffffffffff80821115610d6057600080fd5b610d6c85838601610c86565b60208401526040840151915080821115610d8557600080fd5b610d9185838601610c86565b6040840152610da260608501610c6b565b6060840152610db360808501610d12565b608084015260a0840151915080821115610dcc57600080fd5b50610dd984828501610c86565b60a083015250610deb60c08301610c7b565b60c082015260e082015160e082015292915050565b600060408284031215610e1257600080fd5b6040516040810181811067ffffffffffffffff82111715610e3557610e35610bb4565b604052825181526020928301519281019290925250919050565b600060608284031215610e6157600080fd5b6040516060810167ffffffffffffffff8282108183111715610e8557610e85610bb4565b816040528293508451915080821115610e9d57600080fd5b610ea986838701610c86565b83526020850151915080821115610ebf57600080fd5b610ecb86838701610c86565b60208401526040850151915080821115610ee457600080fd5b50610ef185828601610c86565b6040830152505092915050565b600060208284031215610f1057600080fd5b815167ffffffffffffffff80821115610f2857600080fd5b90830190818503610160811215610f3e57600080fd5b610f46610bf4565b60e0821215610f5457600080fd5b610f5c610c17565b9150835182526020840151610f7081610a6a565b8060208401525060408401516040830152606084015160608301526080840151608083015260a084015160a083015260c0840151610fad81610a6a565b60c083015290815260e08301519082821115610fc857600080fd5b610fd487838601610d1d565b6020820152610fe7876101008601610e00565b604082015261014084015191508282111561100157600080fd5b61100d87838601610e4f565b60608201529695505050505050565b60006020828403121561102e57600080fd5b8151610b2281610af7565b634e487b7160e01b600052602160045260246000fd5b6001600160a01b038416815260208101839052606081016003831061108457634e487b7160e01b600052602160045260246000fd5b826040830152949350505050565b6000602082840312156110a457600080fd5b8151610b2281610a6a565b634e487b7160e01b600052603260045260246000fd5b600082198211156110d8576110d8610b7f565b500190565b600060808201868352602060808185015281875180845260a086019150828901935060005b818110156111275784516001600160a01b031683529383019391830191600101611102565b50506001600160a01b039690961660408501525050506060015292915050565b6000602080838503121561115a57600080fd5b825167ffffffffffffffff8082111561117257600080fd5b818501915085601f83011261118657600080fd5b81518181111561119857611198610bb4565b8060051b91506111a9848301610c3a565b81815291830184019184810190888411156111c357600080fd5b938501935b838510156111e1578451825293850193908501906111c8565b98975050505050505050565b6000828210156111ff576111ff610b7f565b50039056fea26469706673582212209004d62a6f025b995f37198b832dbf49a0032109c303453b4b81d9eb490ac3d564736f6c63430008090033",
  "devdoc": {
    "kind": "dev",
    "methods": {
      "owner()": {
        "details": "Returns the address of the current owner."
      },
      "renounceOwnership()": {
        "details": "Leaves the contract without owner. It will not be possible to call `onlyOwner` functions anymore. Can only be called by the current owner. NOTE: Renouncing ownership will leave the contract without an owner, thereby removing any functionality that is only available to the owner."
      },
      "transferOwnership(address)": {
        "details": "Transfers ownership of the contract to a new account (`newOwner`). Can only be called by the current owner."
      }
    },
    "version": 1
  },
  "userdoc": {
    "kind": "user",
    "methods": {},
    "notice": "Network: BNB Chain Mainnet Aggregator: BNB/USD Address: 0x0567F2323251f0Aab15c8dFb1967E4e8A7D42aeE",
    "version": 1
  },
  "storageLayout": {
    "storage": [
      {
        "astId": 53,
        "contract": "contracts/Planetmoon/PMRewardDistributor.sol:PMRewardDistributor",
        "label": "_owner",
        "offset": 0,
        "slot": "0",
        "type": "t_address"
      },
      {
        "astId": 8300,
        "contract": "contracts/Planetmoon/PMRewardDistributor.sol:PMRewardDistributor",
        "label": "priceFeed",
        "offset": 0,
        "slot": "1",
        "type": "t_contract(AggregatorV3Interface)45"
      },
      {
        "astId": 8306,
        "contract": "contracts/Planetmoon/PMRewardDistributor.sol:PMRewardDistributor",
        "label": "uniswapV2Router",
        "offset": 0,
        "slot": "2",
        "type": "t_contract(IUniswapV2Router02)10816"
      },
      {
        "astId": 8324,
        "contract": "contracts/Planetmoon/PMRewardDistributor.sol:PMRewardDistributor",
        "label": "giveAwayManager",
        "offset": 0,
        "slot": "3",
        "type": "t_address"
      },
      {
        "astId": 8327,
        "contract": "contracts/Planetmoon/PMRewardDistributor.sol:PMRewardDistributor",
        "label": "pause",
        "offset": 20,
        "slot": "3",
        "type": "t_bool"
      }
    ],
    "types": {
      "t_address": {
        "encoding": "inplace",
        "label": "address",
        "numberOfBytes": "20"
      },
      "t_bool": {
        "encoding": "inplace",
        "label": "bool",
        "numberOfBytes": "1"
      },
      "t_contract(AggregatorV3Interface)45": {
        "encoding": "inplace",
        "label": "contract AggregatorV3Interface",
        "numberOfBytes": "20"
      },
      "t_contract(IUniswapV2Router02)10816": {
        "encoding": "inplace",
        "label": "contract IUniswapV2Router02",
        "numberOfBytes": "20"
      }
    }
  }
}