{
  "address": "0x6dE24Ad8312871ba9D06db51F000F344E9a7A476",
  "abi": [
    {
      "inputs": [
        {
          "internalType": "address",
          "name": "_giveAwayManager",
          "type": "address"
        }
      ],
      "stateMutability": "nonpayable",
      "type": "constructor"
    },
    {
      "inputs": [],
      "name": "PMRewardDistributor__CONTRACT_IS_PAUSED",
      "type": "error"
    },
    {
      "inputs": [],
      "name": "PMRewardDistributor__NOT_ENOUGH_BALANCE",
      "type": "error"
    },
    {
      "inputs": [],
      "name": "PMRewardDistributor__Not_Authorized",
      "type": "error"
    },
    {
      "anonymous": false,
      "inputs": [
        {
          "indexed": true,
          "internalType": "address",
          "name": "previousOwner",
          "type": "address"
        },
        {
          "indexed": true,
          "internalType": "address",
          "name": "newOwner",
          "type": "address"
        }
      ],
      "name": "OwnershipTransferred",
      "type": "event"
    },
    {
      "anonymous": false,
      "inputs": [
        {
          "indexed": false,
          "internalType": "address",
          "name": "",
          "type": "address"
        },
        {
          "indexed": false,
          "internalType": "uint256",
          "name": "",
          "type": "uint256"
        }
      ],
      "name": "Received",
      "type": "event"
    },
    {
      "anonymous": false,
      "inputs": [
        {
          "indexed": false,
          "internalType": "address",
          "name": "",
          "type": "address"
        },
        {
          "indexed": false,
          "internalType": "address",
          "name": "",
          "type": "address"
        },
        {
          "indexed": false,
          "internalType": "uint256",
          "name": "",
          "type": "uint256"
        },
        {
          "indexed": false,
          "internalType": "uint8",
          "name": "",
          "type": "uint8"
        }
      ],
      "name": "RewardApplied",
      "type": "event"
    },
    {
      "inputs": [
        {
          "internalType": "address",
          "name": "campaign",
          "type": "address"
        },
        {
          "internalType": "address",
          "name": "user",
          "type": "address"
        },
        {
          "internalType": "uint8",
          "name": "amountUSD",
          "type": "uint8"
        },
        {
          "internalType": "enum PMLibrary.InvestmentType",
          "name": "_type",
          "type": "uint8"
        }
      ],
      "name": "applyRewardToACampaing",
      "outputs": [],
      "stateMutability": "nonpayable",
      "type": "function"
    },
    {
      "inputs": [
        {
          "internalType": "bool",
          "name": "action",
          "type": "bool"
        }
      ],
      "name": "changePauseStatus",
      "outputs": [],
      "stateMutability": "nonpayable",
      "type": "function"
    },
    {
      "inputs": [
        {
          "internalType": "address",
          "name": "winner",
          "type": "address"
        },
        {
          "internalType": "uint8",
          "name": "prizeUSD",
          "type": "uint8"
        }
      ],
      "name": "distributeReward",
      "outputs": [],
      "stateMutability": "nonpayable",
      "type": "function"
    },
    {
      "inputs": [],
      "name": "emergencyWithdraw",
      "outputs": [],
      "stateMutability": "nonpayable",
      "type": "function"
    },
    {
      "inputs": [],
      "name": "getGiveAwayManager",
      "outputs": [
        {
          "internalType": "address",
          "name": "",
          "type": "address"
        }
      ],
      "stateMutability": "view",
      "type": "function"
    },
    {
      "inputs": [],
      "name": "getLatestPriceOfOneUSD",
      "outputs": [
        {
          "internalType": "int256",
          "name": "price",
          "type": "int256"
        }
      ],
      "stateMutability": "view",
      "type": "function"
    },
    {
      "inputs": [],
      "name": "getTotalRewardDistributed",
      "outputs": [
        {
          "internalType": "uint256",
          "name": "",
          "type": "uint256"
        }
      ],
      "stateMutability": "view",
      "type": "function"
    },
    {
      "inputs": [],
      "name": "isPaused",
      "outputs": [
        {
          "internalType": "bool",
          "name": "",
          "type": "bool"
        }
      ],
      "stateMutability": "view",
      "type": "function"
    },
    {
      "inputs": [],
      "name": "owner",
      "outputs": [
        {
          "internalType": "address",
          "name": "",
          "type": "address"
        }
      ],
      "stateMutability": "view",
      "type": "function"
    },
    {
      "inputs": [],
      "name": "renounceOwnership",
      "outputs": [],
      "stateMutability": "nonpayable",
      "type": "function"
    },
    {
      "inputs": [
        {
          "internalType": "address",
          "name": "newOwner",
          "type": "address"
        }
      ],
      "name": "transferOwnership",
      "outputs": [],
      "stateMutability": "nonpayable",
      "type": "function"
    },
    {
      "inputs": [],
      "name": "uniswapV2Router",
      "outputs": [
        {
          "internalType": "contract IUniswapV2Router02",
          "name": "",
          "type": "address"
        }
      ],
      "stateMutability": "view",
      "type": "function"
    },
    {
      "inputs": [
        {
          "internalType": "address",
          "name": "_giveAwayManager",
          "type": "address"
        }
      ],
      "name": "updateGiveAwayManager",
      "outputs": [],
      "stateMutability": "nonpayable",
      "type": "function"
    },
    {
      "inputs": [
        {
          "internalType": "contract AggregatorV3Interface",
          "name": "_priceFeed",
          "type": "address"
        }
      ],
      "name": "updatePriceFeed",
      "outputs": [],
      "stateMutability": "nonpayable",
      "type": "function"
    },
    {
      "inputs": [
        {
          "internalType": "contract IUniswapV2Router02",
          "name": "_uniswapV2Router",
          "type": "address"
        }
      ],
      "name": "updateRouter",
      "outputs": [],
      "stateMutability": "nonpayable",
      "type": "function"
    },
    {
      "stateMutability": "payable",
      "type": "receive"
    }
  ],
  "transactionHash": "0x6ff2ff76bc4ba685bd7a6830c4599a16eea62e5907ed6d85503bee09813079ba",
  "args": [
    "0x49EB9ac3e28a22A90D73e3F7B27Bc76628b2442B"
  ],
  "numDeployments": 1,
  "solcInputHash": "0fb1101042a11c55763c576911848678",
  "bytecode": "0x6080604052600180546001600160a01b031990811673694aa1769357215de4fac081bf1f309adc325306179091556002805490911673b26b2de65d07ebb5e54c7f6282424d3be670e1f01790556003805460ff60a01b1916600160a01b17905534801561006b57600080fd5b506040516115c63803806115c683398101604081905261008a91610108565b610093336100b8565b600380546001600160a01b0319166001600160a01b0392909216919091179055610138565b600080546001600160a01b038381166001600160a01b0319831681178455604051919092169283917f8be0079c531659141344cd1fd0a4f28419497f9722a3daafe3b4186f6b6457e09190a35050565b60006020828403121561011a57600080fd5b81516001600160a01b038116811461013157600080fd5b9392505050565b61147f806101476000396000f3fe6080604052600436106100ec5760003560e01c8063715018a61161008a578063c851cc3211610059578063c851cc32146102a2578063d478c0e0146102c2578063db2e21bc146102e2578063f2fde38b146102f757600080fd5b8063715018a6146102255780638da5cb5b1461023a57806395877f7814610258578063b187bd261461027857600080fd5b80633424b8ce116100c65780633424b8ce146101b25780633b146163146101d2578063442f1f65146101f057806359199c6c1461021057600080fd5b806302a64a4b146101305780631694505e14610158578063190f5ded1461019057600080fd5b3661012b57604080513381523460208201527f88a5966d370b9919b20f3e2c13ff65706f196a4e32cc2c12bf57088f88525874910160405180910390a1005b600080fd5b34801561013c57600080fd5b50610145610317565b6040519081526020015b60405180910390f35b34801561016457600080fd5b50600254610178906001600160a01b031681565b6040516001600160a01b03909116815260200161014f565b34801561019c57600080fd5b506101b06101ab366004610b69565b6103b7565b005b3480156101be57600080fd5b506101b06101cd366004610bd7565b610632565b3480156101de57600080fd5b506003546001600160a01b0316610178565b3480156101fc57600080fd5b506101b061020b366004610bfb565b610658565b34801561021c57600080fd5b50600454610145565b34801561023157600080fd5b506101b0610682565b34801561024657600080fd5b506000546001600160a01b0316610178565b34801561026457600080fd5b506101b0610273366004610bfb565b610696565b34801561028457600080fd5b50600354600160a01b900460ff16604051901515815260200161014f565b3480156102ae57600080fd5b506101b06102bd366004610bfb565b6106c0565b3480156102ce57600080fd5b506101b06102dd366004610c18565b6106ea565b3480156102ee57600080fd5b506101b06107d5565b34801561030357600080fd5b506101b0610312366004610bfb565b610877565b60015460408051633fabe5a360e21b815290516000926001600160a01b03169163feaf968c9160048083019260a09291908290030181865afa158015610361573d6000803e3d6000fd5b505050506040513d601f19601f820116820180604052508101906103859190610c70565b50919350670de0b6b3a764000092508391506103a79050826305f5e100610cd6565b6103b19190610d0c565b91505090565b6003546001600160a01b031633146103e25760405163e51e640160e01b815260040160405180910390fd5b600354600160a01b900460ff161561040d57604051631d7eb59760e31b815260040160405180910390fd5b6000610417610317565b9050600061042860ff851683610d48565b9050806004600082825461043c9190610d5f565b909155504790508181101561046457604051638aa27f2b60e01b815260040160405180910390fd5b6000876001600160a01b03166367c897fe6040518163ffffffff1660e01b8152600401600060405180830381865afa1580156104a4573d6000803e3d6000fd5b505050506040513d6000823e601f3d908101601f191682016040526104cc919081019061115f565b60208101516060015190915060006104e58230876108f0565b60405163095ea7b360e01b81526001600160a01b038c81166004830152602482018390529192509083169063095ea7b3906044016020604051808303816000875af1158015610538573d6000803e3d6000fd5b505050506040513d601f19601f8201168201806040525081019061055c919061127d565b5060405163aad012e760e01b81526001600160a01b038b169063aad012e79061058d908c9085908c906004016112b0565b600060405180830381600087803b1580156105a757600080fd5b505af11580156105bb573d6000803e3d6000fd5b505050507f4d7cc17f866386d5d89d8e5590222a32b2f868de90f085e211d0643cc6d8fa5d8a8a838a60048111156105f5576105f561129a565b604080516001600160a01b0395861681529490931660208501529183015260ff16606082015260800160405180910390a150505050505050505050565b61063a610a9b565b60038054911515600160a01b0260ff60a01b19909216919091179055565b610660610a9b565b600380546001600160a01b0319166001600160a01b0392909216919091179055565b61068a610a9b565b6106946000610af5565b565b61069e610a9b565b600180546001600160a01b0319166001600160a01b0392909216919091179055565b6106c8610a9b565b600280546001600160a01b0319166001600160a01b0392909216919091179055565b6003546001600160a01b031633146107155760405163e51e640160e01b815260040160405180910390fd5b600354600160a01b900460ff161561074057604051631d7eb59760e31b815260040160405180910390fd5b600061074a610317565b9050600061075b60ff841683610d48565b9050806004600082825461076f9190610d5f565b909155504790508181101561079757604051638aa27f2b60e01b815260040160405180910390fd5b6040516001600160a01b0386169083156108fc029084906000818181858888f193505050501580156107cd573d6000803e3d6000fd5b505050505050565b6107dd610a9b565b478061083a5760405162461bcd60e51b815260206004820152602160248201527f4e6f2062616c616e63652061766169616c626c6520666f7220776974686472616044820152607760f81b60648201526084015b60405180910390fd5b600080546040516001600160a01b039091169183156108fc02918491818181858888f19350505050158015610873573d6000803e3d6000fd5b5050565b61087f610a9b565b6001600160a01b0381166108e45760405162461bcd60e51b815260206004820152602660248201527f4f776e61626c653a206e6577206f776e657220697320746865207a65726f206160448201526564647265737360d01b6064820152608401610831565b6108ed81610af5565b50565b604080516002808252606082018352600092839291906020830190803683375050600254604080516315ab88c960e31b815290519394506001600160a01b039091169263ad5c4648925060048083019260209291908290030181865afa15801561095e573d6000803e3d6000fd5b505050506040513d601f19601f8201168201806040525081019061098291906112f3565b8160008151811061099557610995611310565b60200260200101906001600160a01b031690816001600160a01b03168152505084816001815181106109c9576109c9611310565b6001600160a01b03928316602091820292909201015260025460009116637ff36ab5858385896109fb426101f4610d5f565b6040518663ffffffff1660e01b8152600401610a1a9493929190611326565b60006040518083038185885af1158015610a38573d6000803e3d6000fd5b50505050506040513d6000823e601f3d908101601f19168201604052610a619190810190611390565b905060008160018351610a749190611436565b81518110610a8457610a84611310565b602002602001015190508093505050509392505050565b6000546001600160a01b031633146106945760405162461bcd60e51b815260206004820181905260248201527f4f776e61626c653a2063616c6c6572206973206e6f7420746865206f776e65726044820152606401610831565b600080546001600160a01b038381166001600160a01b0319831681178455604051919092169283917f8be0079c531659141344cd1fd0a4f28419497f9722a3daafe3b4186f6b6457e09190a35050565b6001600160a01b03811681146108ed57600080fd5b60ff811681146108ed57600080fd5b60008060008060808587031215610b7f57600080fd5b8435610b8a81610b45565b93506020850135610b9a81610b45565b92506040850135610baa81610b5a565b9150606085013560058110610bbe57600080fd5b939692955090935050565b80151581146108ed57600080fd5b600060208284031215610be957600080fd5b8135610bf481610bc9565b9392505050565b600060208284031215610c0d57600080fd5b8135610bf481610b45565b60008060408385031215610c2b57600080fd5b8235610c3681610b45565b91506020830135610c4681610b5a565b809150509250929050565b805169ffffffffffffffffffff81168114610c6b57600080fd5b919050565b600080600080600060a08688031215610c8857600080fd5b610c9186610c51565b9450602086015193506040860151925060608601519150610cb460808701610c51565b90509295509295909350565b634e487b7160e01b600052601160045260246000fd5b80820260008212600160ff1b84141615610cf257610cf2610cc0565b8181058314821517610d0657610d06610cc0565b92915050565b600082610d2957634e487b7160e01b600052601260045260246000fd5b600160ff1b821460001984141615610d4357610d43610cc0565b500590565b8082028115828204841417610d0657610d06610cc0565b80820180821115610d0657610d06610cc0565b634e487b7160e01b600052604160045260246000fd5b604051610100810167ffffffffffffffff81118282101715610dac57610dac610d72565b60405290565b604051610140810167ffffffffffffffff81118282101715610dac57610dac610d72565b6040516080810167ffffffffffffffff81118282101715610dac57610dac610d72565b60405160e0810167ffffffffffffffff81118282101715610dac57610dac610d72565b604051601f8201601f1916810167ffffffffffffffff81118282101715610e4557610e45610d72565b604052919050565b8051610c6b81610b45565b805160038110610c6b57600080fd5b600082601f830112610e7857600080fd5b815167ffffffffffffffff811115610e9257610e92610d72565b6020610ea6601f8301601f19168201610e1c565b8281528582848701011115610eba57600080fd5b60005b83811015610ed8578581018301518282018401528201610ebd565b506000928101909101919091529392505050565b8051610c6b81610b5a565b60006101008284031215610f0a57600080fd5b610f12610d88565b9050610f1d82610e58565b8152602082015167ffffffffffffffff80821115610f3a57600080fd5b610f4685838601610e67565b60208401526040840151915080821115610f5f57600080fd5b610f6b85838601610e67565b6040840152610f7c60608501610e4d565b6060840152610f8d60808501610eec565b608084015260a0840151915080821115610fa657600080fd5b50610fb384828501610e67565b60a083015250610fc560c08301610e58565b60c082015260e082015160e082015292915050565b600060408284031215610fec57600080fd5b6040516040810181811067ffffffffffffffff8211171561100f5761100f610d72565b604052825181526020928301519281019290925250919050565b6000610140828403121561103c57600080fd5b611044610db2565b9050815167ffffffffffffffff8082111561105e57600080fd5b61106a85838601610e67565b8352602084015191508082111561108057600080fd5b61108c85838601610e67565b602084015260408401519150808211156110a557600080fd5b6110b185838601610e67565b604084015260608401519150808211156110ca57600080fd5b6110d685838601610e67565b606084015260808401519150808211156110ef57600080fd5b506110fc84828501610e67565b60808301525061110e60a08301610eec565b60a082015261111f60c08301610eec565b60c082015261113060e08301610eec565b60e0820152610100611143818401610eec565b90820152610120611155838201610eec565b9082015292915050565b60006020828403121561117157600080fd5b815167ffffffffffffffff8082111561118957600080fd5b9083019081850361016081121561119f57600080fd5b6111a7610dd6565b60e08212156111b557600080fd5b6111bd610df9565b91508351825260208401516111d181610b45565b8060208401525060408401516040830152606084015160608301526080840151608083015260a084015160a083015260c084015161120e81610b45565b60c083015290815260e0830151908282111561122957600080fd5b61123587838601610ef7565b6020820152611248876101008601610fda565b604082015261014084015191508282111561126257600080fd5b61126e87838601611029565b60608201529695505050505050565b60006020828403121561128f57600080fd5b8151610bf481610bc9565b634e487b7160e01b600052602160045260246000fd5b6001600160a01b03841681526020810183905260608101600583106112e557634e487b7160e01b600052602160045260246000fd5b826040830152949350505050565b60006020828403121561130557600080fd5b8151610bf481610b45565b634e487b7160e01b600052603260045260246000fd5b600060808201868352602060808185015281875180845260a086019150828901935060005b818110156113705784516001600160a01b03168352938301939183019160010161134b565b50506001600160a01b039690961660408501525050506060015292915050565b600060208083850312156113a357600080fd5b825167ffffffffffffffff808211156113bb57600080fd5b818501915085601f8301126113cf57600080fd5b8151818111156113e1576113e1610d72565b8060051b91506113f2848301610e1c565b818152918301840191848101908884111561140c57600080fd5b938501935b8385101561142a57845182529385019390850190611411565b98975050505050505050565b81810381811115610d0657610d06610cc056fea2646970667358221220f323e43e1fbf16222589307d7e3b8236069a64dd01089c60562185e2110bbf4464736f6c63430008120033",
  "devdoc": {
    "kind": "dev",
    "methods": {
      "owner()": {
        "details": "Returns the address of the current owner."
      },
      "renounceOwnership()": {
        "details": "Leaves the contract without owner. It will not be possible to call `onlyOwner` functions anymore. Can only be called by the current owner. NOTE: Renouncing ownership will leave the contract without an owner, thereby removing any functionality that is only available to the owner."
      },
      "transferOwnership(address)": {
        "details": "Transfers ownership of the contract to a new account (`newOwner`). Can only be called by the current owner."
      }
    },
    "version": 1
  },
  "userdoc": {
    "kind": "user",
    "methods": {},
    "version": 1
  },
  "storageLayout": {
    "storage": [
      {
        "astId": 53,
        "contract": "contracts/Planetmoon/PMRewardDistributor.sol:PMRewardDistributor",
        "label": "_owner",
        "offset": 0,
        "slot": "0",
        "type": "t_address"
      },
      {
        "astId": 2022,
        "contract": "contracts/Planetmoon/PMRewardDistributor.sol:PMRewardDistributor",
        "label": "priceFeed",
        "offset": 0,
        "slot": "1",
        "type": "t_contract(AggregatorV3Interface)45"
      },
      {
        "astId": 2061,
        "contract": "contracts/Planetmoon/PMRewardDistributor.sol:PMRewardDistributor",
        "label": "uniswapV2Router",
        "offset": 0,
        "slot": "2",
        "type": "t_contract(IUniswapV2Router02)2559"
      },
      {
        "astId": 1684,
        "contract": "contracts/Planetmoon/PMRewardDistributor.sol:PMRewardDistributor",
        "label": "s_giveAwayManager",
        "offset": 0,
        "slot": "3",
        "type": "t_address"
      },
      {
        "astId": 1687,
        "contract": "contracts/Planetmoon/PMRewardDistributor.sol:PMRewardDistributor",
        "label": "s_isPaused",
        "offset": 20,
        "slot": "3",
        "type": "t_bool"
      },
      {
        "astId": 1689,
        "contract": "contracts/Planetmoon/PMRewardDistributor.sol:PMRewardDistributor",
        "label": "s_totalRewardDistributed",
        "offset": 0,
        "slot": "4",
        "type": "t_uint256"
      }
    ],
    "types": {
      "t_address": {
        "encoding": "inplace",
        "label": "address",
        "numberOfBytes": "20"
      },
      "t_bool": {
        "encoding": "inplace",
        "label": "bool",
        "numberOfBytes": "1"
      },
      "t_contract(AggregatorV3Interface)45": {
        "encoding": "inplace",
        "label": "contract AggregatorV3Interface",
        "numberOfBytes": "20"
      },
      "t_contract(IUniswapV2Router02)2559": {
        "encoding": "inplace",
        "label": "contract IUniswapV2Router02",
        "numberOfBytes": "20"
      },
      "t_uint256": {
        "encoding": "inplace",
        "label": "uint256",
        "numberOfBytes": "32"
      }
    }
  }
}