{
  "address": "0x04DFE53A785c0654e85571bBF3Cc813b07B228Cc",
  "abi": [
    {
      "inputs": [
        {
          "internalType": "address",
          "name": "_membershipFeeManager",
          "type": "address"
        }
      ],
      "stateMutability": "nonpayable",
      "type": "constructor"
    },
    {
      "inputs": [],
      "name": "CONTRACT_IS_PAUSED",
      "type": "error"
    },
    {
      "inputs": [],
      "name": "FAILED_TO_TRANSFER_BNBS",
      "type": "error"
    },
    {
      "inputs": [],
      "name": "INSUFFICIENT_FUNDS",
      "type": "error"
    },
    {
      "inputs": [],
      "name": "NOT_OWNER_OF_TEAM",
      "type": "error"
    },
    {
      "inputs": [],
      "name": "TOKEN_DONT_EXIST",
      "type": "error"
    },
    {
      "anonymous": false,
      "inputs": [
        {
          "indexed": true,
          "internalType": "address",
          "name": "owner",
          "type": "address"
        },
        {
          "indexed": true,
          "internalType": "address",
          "name": "approved",
          "type": "address"
        },
        {
          "indexed": true,
          "internalType": "uint256",
          "name": "tokenId",
          "type": "uint256"
        }
      ],
      "name": "Approval",
      "type": "event"
    },
    {
      "anonymous": false,
      "inputs": [
        {
          "indexed": true,
          "internalType": "address",
          "name": "owner",
          "type": "address"
        },
        {
          "indexed": true,
          "internalType": "address",
          "name": "operator",
          "type": "address"
        },
        {
          "indexed": false,
          "internalType": "bool",
          "name": "approved",
          "type": "bool"
        }
      ],
      "name": "ApprovalForAll",
      "type": "event"
    },
    {
      "anonymous": false,
      "inputs": [
        {
          "indexed": true,
          "internalType": "address",
          "name": "previousOwner",
          "type": "address"
        },
        {
          "indexed": true,
          "internalType": "address",
          "name": "newOwner",
          "type": "address"
        }
      ],
      "name": "OwnershipTransferred",
      "type": "event"
    },
    {
      "anonymous": false,
      "inputs": [
        {
          "indexed": false,
          "internalType": "uint256",
          "name": "teamId",
          "type": "uint256"
        },
        {
          "indexed": false,
          "internalType": "uint256",
          "name": "createdAt",
          "type": "uint256"
        }
      ],
      "name": "TeamCreated",
      "type": "event"
    },
    {
      "anonymous": false,
      "inputs": [
        {
          "indexed": true,
          "internalType": "address",
          "name": "from",
          "type": "address"
        },
        {
          "indexed": true,
          "internalType": "address",
          "name": "to",
          "type": "address"
        },
        {
          "indexed": true,
          "internalType": "uint256",
          "name": "tokenId",
          "type": "uint256"
        }
      ],
      "name": "Transfer",
      "type": "event"
    },
    {
      "inputs": [
        {
          "internalType": "address",
          "name": "to",
          "type": "address"
        },
        {
          "internalType": "uint256",
          "name": "tokenId",
          "type": "uint256"
        }
      ],
      "name": "approve",
      "outputs": [],
      "stateMutability": "nonpayable",
      "type": "function"
    },
    {
      "inputs": [
        {
          "internalType": "address",
          "name": "owner",
          "type": "address"
        }
      ],
      "name": "balanceOf",
      "outputs": [
        {
          "internalType": "uint256",
          "name": "",
          "type": "uint256"
        }
      ],
      "stateMutability": "view",
      "type": "function"
    },
    {
      "inputs": [
        {
          "internalType": "bool",
          "name": "action",
          "type": "bool"
        }
      ],
      "name": "changePauseStatus",
      "outputs": [],
      "stateMutability": "nonpayable",
      "type": "function"
    },
    {
      "inputs": [
        {
          "internalType": "address",
          "name": "to",
          "type": "address"
        }
      ],
      "name": "createATeam",
      "outputs": [],
      "stateMutability": "payable",
      "type": "function"
    },
    {
      "inputs": [
        {
          "internalType": "uint256",
          "name": "tokenId",
          "type": "uint256"
        }
      ],
      "name": "getApproved",
      "outputs": [
        {
          "internalType": "address",
          "name": "",
          "type": "address"
        }
      ],
      "stateMutability": "view",
      "type": "function"
    },
    {
      "inputs": [
        {
          "internalType": "uint256",
          "name": "tokenId",
          "type": "uint256"
        }
      ],
      "name": "getTeamData",
      "outputs": [
        {
          "components": [
            {
              "internalType": "uint256",
              "name": "teamId",
              "type": "uint256"
            },
            {
              "internalType": "address[]",
              "name": "members",
              "type": "address[]"
            },
            {
              "internalType": "uint256",
              "name": "inceptionDate",
              "type": "uint256"
            }
          ],
          "internalType": "struct PMTeamManager.Team",
          "name": "",
          "type": "tuple"
        }
      ],
      "stateMutability": "view",
      "type": "function"
    },
    {
      "inputs": [
        {
          "internalType": "uint256",
          "name": "from",
          "type": "uint256"
        },
        {
          "internalType": "uint256",
          "name": "length",
          "type": "uint256"
        }
      ],
      "name": "getTeamsDataByRange",
      "outputs": [
        {
          "components": [
            {
              "internalType": "uint256",
              "name": "teamId",
              "type": "uint256"
            },
            {
              "internalType": "address[]",
              "name": "members",
              "type": "address[]"
            },
            {
              "internalType": "uint256",
              "name": "inceptionDate",
              "type": "uint256"
            }
          ],
          "internalType": "struct PMTeamManager.Team[]",
          "name": "",
          "type": "tuple[]"
        }
      ],
      "stateMutability": "view",
      "type": "function"
    },
    {
      "inputs": [
        {
          "internalType": "address",
          "name": "owner",
          "type": "address"
        },
        {
          "internalType": "address",
          "name": "operator",
          "type": "address"
        }
      ],
      "name": "isApprovedForAll",
      "outputs": [
        {
          "internalType": "bool",
          "name": "",
          "type": "bool"
        }
      ],
      "stateMutability": "view",
      "type": "function"
    },
    {
      "inputs": [],
      "name": "membershipFeeManager",
      "outputs": [
        {
          "internalType": "address payable",
          "name": "",
          "type": "address"
        }
      ],
      "stateMutability": "view",
      "type": "function"
    },
    {
      "inputs": [],
      "name": "name",
      "outputs": [
        {
          "internalType": "string",
          "name": "",
          "type": "string"
        }
      ],
      "stateMutability": "view",
      "type": "function"
    },
    {
      "inputs": [],
      "name": "owner",
      "outputs": [
        {
          "internalType": "address",
          "name": "",
          "type": "address"
        }
      ],
      "stateMutability": "view",
      "type": "function"
    },
    {
      "inputs": [
        {
          "internalType": "uint256",
          "name": "tokenId",
          "type": "uint256"
        }
      ],
      "name": "ownerOf",
      "outputs": [
        {
          "internalType": "address",
          "name": "",
          "type": "address"
        }
      ],
      "stateMutability": "view",
      "type": "function"
    },
    {
      "inputs": [],
      "name": "pause",
      "outputs": [
        {
          "internalType": "bool",
          "name": "",
          "type": "bool"
        }
      ],
      "stateMutability": "view",
      "type": "function"
    },
    {
      "inputs": [],
      "name": "renounceOwnership",
      "outputs": [],
      "stateMutability": "nonpayable",
      "type": "function"
    },
    {
      "inputs": [
        {
          "internalType": "address",
          "name": "from",
          "type": "address"
        },
        {
          "internalType": "address",
          "name": "to",
          "type": "address"
        },
        {
          "internalType": "uint256",
          "name": "tokenId",
          "type": "uint256"
        }
      ],
      "name": "safeTransferFrom",
      "outputs": [],
      "stateMutability": "nonpayable",
      "type": "function"
    },
    {
      "inputs": [
        {
          "internalType": "address",
          "name": "from",
          "type": "address"
        },
        {
          "internalType": "address",
          "name": "to",
          "type": "address"
        },
        {
          "internalType": "uint256",
          "name": "tokenId",
          "type": "uint256"
        },
        {
          "internalType": "bytes",
          "name": "data",
          "type": "bytes"
        }
      ],
      "name": "safeTransferFrom",
      "outputs": [],
      "stateMutability": "nonpayable",
      "type": "function"
    },
    {
      "inputs": [
        {
          "internalType": "address",
          "name": "operator",
          "type": "address"
        },
        {
          "internalType": "bool",
          "name": "approved",
          "type": "bool"
        }
      ],
      "name": "setApprovalForAll",
      "outputs": [],
      "stateMutability": "nonpayable",
      "type": "function"
    },
    {
      "inputs": [
        {
          "internalType": "bytes4",
          "name": "interfaceId",
          "type": "bytes4"
        }
      ],
      "name": "supportsInterface",
      "outputs": [
        {
          "internalType": "bool",
          "name": "",
          "type": "bool"
        }
      ],
      "stateMutability": "view",
      "type": "function"
    },
    {
      "inputs": [],
      "name": "symbol",
      "outputs": [
        {
          "internalType": "string",
          "name": "",
          "type": "string"
        }
      ],
      "stateMutability": "view",
      "type": "function"
    },
    {
      "inputs": [],
      "name": "teamTokenURI",
      "outputs": [
        {
          "internalType": "string",
          "name": "",
          "type": "string"
        }
      ],
      "stateMutability": "view",
      "type": "function"
    },
    {
      "inputs": [
        {
          "internalType": "uint256",
          "name": "index",
          "type": "uint256"
        }
      ],
      "name": "tokenByIndex",
      "outputs": [
        {
          "internalType": "uint256",
          "name": "",
          "type": "uint256"
        }
      ],
      "stateMutability": "view",
      "type": "function"
    },
    {
      "inputs": [
        {
          "internalType": "address",
          "name": "owner",
          "type": "address"
        },
        {
          "internalType": "uint256",
          "name": "index",
          "type": "uint256"
        }
      ],
      "name": "tokenOfOwnerByIndex",
      "outputs": [
        {
          "internalType": "uint256",
          "name": "",
          "type": "uint256"
        }
      ],
      "stateMutability": "view",
      "type": "function"
    },
    {
      "inputs": [
        {
          "internalType": "uint256",
          "name": "tokenId",
          "type": "uint256"
        }
      ],
      "name": "tokenURI",
      "outputs": [
        {
          "internalType": "string",
          "name": "",
          "type": "string"
        }
      ],
      "stateMutability": "view",
      "type": "function"
    },
    {
      "inputs": [],
      "name": "totalSupply",
      "outputs": [
        {
          "internalType": "uint256",
          "name": "",
          "type": "uint256"
        }
      ],
      "stateMutability": "view",
      "type": "function"
    },
    {
      "inputs": [
        {
          "internalType": "address",
          "name": "from",
          "type": "address"
        },
        {
          "internalType": "address",
          "name": "to",
          "type": "address"
        },
        {
          "internalType": "uint256",
          "name": "tokenId",
          "type": "uint256"
        }
      ],
      "name": "transferFrom",
      "outputs": [],
      "stateMutability": "nonpayable",
      "type": "function"
    },
    {
      "inputs": [
        {
          "internalType": "address",
          "name": "newOwner",
          "type": "address"
        }
      ],
      "name": "transferOwnership",
      "outputs": [],
      "stateMutability": "nonpayable",
      "type": "function"
    },
    {
      "inputs": [
        {
          "internalType": "address",
          "name": "_membershipFeeManager",
          "type": "address"
        }
      ],
      "name": "updateMembershipFeeManager",
      "outputs": [],
      "stateMutability": "nonpayable",
      "type": "function"
    },
    {
      "inputs": [
        {
          "internalType": "uint256",
          "name": "tokenId",
          "type": "uint256"
        },
        {
          "internalType": "address[]",
          "name": "members",
          "type": "address[]"
        }
      ],
      "name": "updateTeamMembers",
      "outputs": [],
      "stateMutability": "nonpayable",
      "type": "function"
    }
  ],
  "transactionHash": "0x9221cc9179d1d3ca0f941edb1b2d883e02fdc4656a24debf7d60e887efa41ef2",
  "args": [
    "0x2D2f424B2B3FD9F5E9178b48c359FD776F488890"
  ],
  "numDeployments": 1,
  "solcInputHash": "5d88bf75289a7e7baa9fe7cf87e5cfb7",
  "bytecode": "0x6101006040526058608081815290620025f360a039600d9062000023908262000211565b50600e805460ff191660011790553480156200003e57600080fd5b506040516200264b3803806200264b8339810160408190526200006191620002dd565b6040518060400160405280601781526020017f506c616e65744d6f6f6e205465616d204d616e616765720000000000000000008152506040518060400160405280600381526020016250544d60e81b8152508160009081620000c4919062000211565b506001620000d3828262000211565b505050620000f0620000ea6200011660201b60201c565b6200011a565b600b80546001600160a01b0319166001600160a01b03929092169190911790556200030f565b3390565b600a80546001600160a01b038381166001600160a01b0319831681179093556040519116919082907f8be0079c531659141344cd1fd0a4f28419497f9722a3daafe3b4186f6b6457e090600090a35050565b634e487b7160e01b600052604160045260246000fd5b600181811c908216806200019757607f821691505b602082108103620001b857634e487b7160e01b600052602260045260246000fd5b50919050565b601f8211156200020c57600081815260208120601f850160051c81016020861015620001e75750805b601f850160051c820191505b818110156200020857828155600101620001f3565b5050505b505050565b81516001600160401b038111156200022d576200022d6200016c565b62000245816200023e845462000182565b84620001be565b602080601f8311600181146200027d5760008415620002645750858301515b600019600386901b1c1916600185901b17855562000208565b600085815260208120601f198616915b82811015620002ae578886015182559484019460019091019084016200028d565b5085821015620002cd5787850151600019600388901b60f8161c191681555b5050505050600190811b01905550565b600060208284031215620002f057600080fd5b81516001600160a01b03811681146200030857600080fd5b9392505050565b6122d4806200031f6000396000f3fe6080604052600436106101b75760003560e01c806370a08231116100ec578063b1e5494c1161008a578063e5dcf1b711610064578063e5dcf1b7146104c3578063e985e9c5146104f0578063ee37adc214610539578063f2fde38b1461055957600080fd5b8063b1e5494c14610463578063b88d4fde14610483578063c87b56dd146104a357600080fd5b80638da5cb5b116100c65780638da5cb5b146103f057806390f7ad7d1461040e57806395d89b411461042e578063a22cb4651461044357600080fd5b806370a08231146103a1578063715018a6146103c15780638456cb59146103d657600080fd5b806323b872dd116101595780633424b8ce116101335780633424b8ce1461032157806342842e0e146103415780634f6ccce7146103615780636352211e1461038157600080fd5b806323b872dd146102cc5780632cc9280d146102ec5780632f745c591461030157600080fd5b8063095ea7b311610195578063095ea7b31461024b578063120dd0381461026d57806318160ddd1461029a578063228e0ace146102b957600080fd5b806301ffc9a7146101bc57806306fdde03146101f1578063081812fc14610213575b600080fd5b3480156101c857600080fd5b506101dc6101d7366004611bd0565b610579565b60405190151581526020015b60405180910390f35b3480156101fd57600080fd5b506102066105a4565b6040516101e89190611c41565b34801561021f57600080fd5b5061023361022e366004611c54565b610636565b6040516001600160a01b0390911681526020016101e8565b34801561025757600080fd5b5061026b610266366004611c89565b61065d565b005b34801561027957600080fd5b5061028d610288366004611cb3565b610777565b6040516101e89190611d42565b3480156102a657600080fd5b506008545b6040519081526020016101e8565b61026b6102c7366004611da4565b6108e0565b3480156102d857600080fd5b5061026b6102e7366004611dbf565b610ac1565b3480156102f857600080fd5b50610206610af2565b34801561030d57600080fd5b506102ab61031c366004611c89565b610b80565b34801561032d57600080fd5b5061026b61033c366004611e0b565b610c16565b34801561034d57600080fd5b5061026b61035c366004611dbf565b610c31565b34801561036d57600080fd5b506102ab61037c366004611c54565b610c4c565b34801561038d57600080fd5b5061023361039c366004611c54565b610cdf565b3480156103ad57600080fd5b506102ab6103bc366004611da4565b610d3f565b3480156103cd57600080fd5b5061026b610dc5565b3480156103e257600080fd5b50600e546101dc9060ff1681565b3480156103fc57600080fd5b50600a546001600160a01b0316610233565b34801561041a57600080fd5b5061026b610429366004611e6d565b610dd9565b34801561043a57600080fd5b50610206610e2f565b34801561044f57600080fd5b5061026b61045e366004611f26565b610e3e565b34801561046f57600080fd5b5061026b61047e366004611da4565b610e4d565b34801561048f57600080fd5b5061026b61049e366004611f59565b610e77565b3480156104af57600080fd5b506102066104be366004611c54565b610eaf565b3480156104cf57600080fd5b506104e36104de366004611c54565b610f79565b6040516101e89190612019565b3480156104fc57600080fd5b506101dc61050b36600461202c565b6001600160a01b03918216600090815260056020908152604080832093909416825291909152205460ff1690565b34801561054557600080fd5b50600b54610233906001600160a01b031681565b34801561056557600080fd5b5061026b610574366004611da4565b611062565b60006001600160e01b0319821663780e9d6360e01b148061059e575061059e826110db565b92915050565b6060600080546105b390612056565b80601f01602080910402602001604051908101604052809291908181526020018280546105df90612056565b801561062c5780601f106106015761010080835404028352916020019161062c565b820191906000526020600020905b81548152906001019060200180831161060f57829003601f168201915b5050505050905090565b60006106418261112b565b506000908152600460205260409020546001600160a01b031690565b600061066882610cdf565b9050806001600160a01b0316836001600160a01b0316036106da5760405162461bcd60e51b815260206004820152602160248201527f4552433732313a20617070726f76616c20746f2063757272656e74206f776e656044820152603960f91b60648201526084015b60405180910390fd5b336001600160a01b03821614806106f657506106f6813361050b565b6107685760405162461bcd60e51b815260206004820152603d60248201527f4552433732313a20617070726f76652063616c6c6572206973206e6f7420746f60448201527f6b656e206f776e6572206f7220617070726f76656420666f7220616c6c00000060648201526084016106d1565b610772838361118a565b505050565b6060818311610784578291505b60008267ffffffffffffffff81111561079f5761079f611e26565b6040519080825280602002602001820160405280156107f457816020015b6107e160405180606001604052806000815260200160608152602001600081525090565b8152602001906001900390816107bd5790505b5090506000845b61080585876120a6565b8111156108d6576000818152600f60209081526040918290208251606081018452815481526001820180548551818602810186019096528086529194929385810193929083018282801561088257602002820191906000526020600020905b81546001600160a01b03168152600190910190602001808311610864575b50505050508152602001600282015481525050838360ff16815181106108aa576108aa6120bd565b602002602001018190525081806108c0906120d3565b92505080806108ce906120f2565b9150506107fb565b5090949350505050565b600e5460ff16156109045760405163364759ad60e11b815260040160405180910390fd5b600b54604051634daf418d60e11b81526000916001600160a01b031690639b5e831a9061093690600390600401612109565b602060405180830381865afa158015610953573d6000803e3d6000fd5b505050506040513d601f19601f820116820180604052508101906109779190612131565b90508034101561099a57604051631cf2628760e31b815260040160405180910390fd5b6109a8600c80546001019055565b60006109b3600c5490565b6000818152600f602090815260408220838155600180820180549182018155845291832090910180546001600160a01b0319166001600160a01b03881617905590829052426002909101819055909150610a0d84836111f8565b600b546040516000916001600160a01b03169034908381818185875af1925050503d8060008114610a5a576040519150601f19603f3d011682016040523d82523d6000602084013e610a5f565b606091505b5050905080610a8157604051635b77072160e11b815260040160405180910390fd5b60408051848152602081018490527f9574ebbd8a596f705e129fa49700bb52708e69b1b8e2dece8bb7d2f3f6951312910160405180910390a15050505050565b610acb3382611212565b610ae75760405162461bcd60e51b81526004016106d19061214a565b610772838383611291565b600d8054610aff90612056565b80601f0160208091040260200160405190810160405280929190818152602001828054610b2b90612056565b8015610b785780601f10610b4d57610100808354040283529160200191610b78565b820191906000526020600020905b815481529060010190602001808311610b5b57829003601f168201915b505050505081565b6000610b8b83610d3f565b8210610bed5760405162461bcd60e51b815260206004820152602b60248201527f455243373231456e756d657261626c653a206f776e657220696e646578206f7560448201526a74206f6620626f756e647360a81b60648201526084016106d1565b506001600160a01b03919091166000908152600660209081526040808320938352929052205490565b610c1e611402565b600e805460ff1916911515919091179055565b61077283838360405180602001604052806000815250610e77565b6000610c5760085490565b8210610cba5760405162461bcd60e51b815260206004820152602c60248201527f455243373231456e756d657261626c653a20676c6f62616c20696e646578206f60448201526b7574206f6620626f756e647360a01b60648201526084016106d1565b60088281548110610ccd57610ccd6120bd565b90600052602060002001549050919050565b6000818152600260205260408120546001600160a01b03168061059e5760405162461bcd60e51b8152602060048201526018602482015277115490cdcc8c4e881a5b9d985b1a59081d1bdad95b88125160421b60448201526064016106d1565b60006001600160a01b038216610da95760405162461bcd60e51b815260206004820152602960248201527f4552433732313a2061646472657373207a65726f206973206e6f7420612076616044820152683634b21037bbb732b960b91b60648201526084016106d1565b506001600160a01b031660009081526003602052604090205490565b610dcd611402565b610dd7600061145c565b565b33610de383610cdf565b6001600160a01b031614610e0a57604051636edd33cd60e11b815260040160405180910390fd5b6000828152600f60209081526040909120825161077292600190920191840190611b40565b6060600180546105b390612056565b610e493383836114ae565b5050565b610e55611402565b600b80546001600160a01b0319166001600160a01b0392909216919091179055565b610e813383611212565b610e9d5760405162461bcd60e51b81526004016106d19061214a565b610ea98484848461157c565b50505050565b6000818152600260205260409020546060906001600160a01b0316610ee7576040516315b07cc360e21b815260040160405180910390fd5b600d8054610ef490612056565b80601f0160208091040260200160405190810160405280929190818152602001828054610f2090612056565b8015610f6d5780601f10610f4257610100808354040283529160200191610f6d565b820191906000526020600020905b815481529060010190602001808311610f5057829003601f168201915b50505050509050919050565b610f9d60405180606001604052806000815260200160608152602001600081525090565b6000828152600260205260409020546001600160a01b0316610fd2576040516315b07cc360e21b815260040160405180910390fd5b6000828152600f60209081526040918290208251606081018452815481526001820180548551818602810186019096528086529194929385810193929083018282801561104857602002820191906000526020600020905b81546001600160a01b0316815260019091019060200180831161102a575b505050505081526020016002820154815250509050919050565b61106a611402565b6001600160a01b0381166110cf5760405162461bcd60e51b815260206004820152602660248201527f4f776e61626c653a206e6577206f776e657220697320746865207a65726f206160448201526564647265737360d01b60648201526084016106d1565b6110d88161145c565b50565b60006001600160e01b031982166380ac58cd60e01b148061110c57506001600160e01b03198216635b5e139f60e01b145b8061059e57506301ffc9a760e01b6001600160e01b031983161461059e565b6000818152600260205260409020546001600160a01b03166110d85760405162461bcd60e51b8152602060048201526018602482015277115490cdcc8c4e881a5b9d985b1a59081d1bdad95b88125160421b60448201526064016106d1565b600081815260046020526040902080546001600160a01b0319166001600160a01b03841690811790915581906111bf82610cdf565b6001600160a01b03167f8c5be1e5ebec7d5bd14f71427d1e84f3dd0314c0f7b2291e5b200ac8c7c3b92560405160405180910390a45050565b610e498282604051806020016040528060008152506115af565b60008061121e83610cdf565b9050806001600160a01b0316846001600160a01b0316148061126557506001600160a01b0380821660009081526005602090815260408083209388168352929052205460ff165b806112895750836001600160a01b031661127e84610636565b6001600160a01b0316145b949350505050565b826001600160a01b03166112a482610cdf565b6001600160a01b0316146112ca5760405162461bcd60e51b81526004016106d190612197565b6001600160a01b03821661132c5760405162461bcd60e51b8152602060048201526024808201527f4552433732313a207472616e7366657220746f20746865207a65726f206164646044820152637265737360e01b60648201526084016106d1565b61133983838360016115e2565b826001600160a01b031661134c82610cdf565b6001600160a01b0316146113725760405162461bcd60e51b81526004016106d190612197565b600081815260046020908152604080832080546001600160a01b03199081169091556001600160a01b0387811680865260038552838620805460001901905590871680865283862080546001019055868652600290945282852080549092168417909155905184937fddf252ad1be2c89b69c2b068fc378daa952ba7f163c4a11628f55a4df523b3ef91a4505050565b600a546001600160a01b03163314610dd75760405162461bcd60e51b815260206004820181905260248201527f4f776e61626c653a2063616c6c6572206973206e6f7420746865206f776e657260448201526064016106d1565b600a80546001600160a01b038381166001600160a01b0319831681179093556040519116919082907f8be0079c531659141344cd1fd0a4f28419497f9722a3daafe3b4186f6b6457e090600090a35050565b816001600160a01b0316836001600160a01b03160361150f5760405162461bcd60e51b815260206004820152601960248201527f4552433732313a20617070726f766520746f2063616c6c65720000000000000060448201526064016106d1565b6001600160a01b03838116600081815260056020908152604080832094871680845294825291829020805460ff191686151590811790915591519182527f17307eab39ab6107e8899845ad3d59bd9653f200f220920489ca2b5937696c31910160405180910390a3505050565b611587848484611291565b61159384848484611716565b610ea95760405162461bcd60e51b81526004016106d1906121dc565b6115b98383611817565b6115c66000848484611716565b6107725760405162461bcd60e51b81526004016106d1906121dc565b60018111156116515760405162461bcd60e51b815260206004820152603560248201527f455243373231456e756d657261626c653a20636f6e7365637574697665207472604482015274185b9cd9995c9cc81b9bdd081cdd5c1c1bdc9d1959605a1b60648201526084016106d1565b816001600160a01b0385166116ad576116a881600880546000838152600960205260408120829055600182018355919091527ff3f7a9fe364faab93b216da50a3214154f22a0a2b415b23a84c8169e8b636ee30155565b6116d0565b836001600160a01b0316856001600160a01b0316146116d0576116d085826119b0565b6001600160a01b0384166116ec576116e781611a4d565b61170f565b846001600160a01b0316846001600160a01b03161461170f5761170f8482611afc565b5050505050565b60006001600160a01b0384163b1561180c57604051630a85bd0160e11b81526001600160a01b0385169063150b7a029061175a90339089908890889060040161222e565b6020604051808303816000875af1925050508015611795575060408051601f3d908101601f191682019092526117929181019061226b565b60015b6117f2573d8080156117c3576040519150601f19603f3d011682016040523d82523d6000602084013e6117c8565b606091505b5080516000036117ea5760405162461bcd60e51b81526004016106d1906121dc565b805181602001fd5b6001600160e01b031916630a85bd0160e11b149050611289565b506001949350505050565b6001600160a01b03821661186d5760405162461bcd60e51b815260206004820181905260248201527f4552433732313a206d696e7420746f20746865207a65726f206164647265737360448201526064016106d1565b6000818152600260205260409020546001600160a01b0316156118d25760405162461bcd60e51b815260206004820152601c60248201527f4552433732313a20746f6b656e20616c7265616479206d696e7465640000000060448201526064016106d1565b6118e06000838360016115e2565b6000818152600260205260409020546001600160a01b0316156119455760405162461bcd60e51b815260206004820152601c60248201527f4552433732313a20746f6b656e20616c7265616479206d696e7465640000000060448201526064016106d1565b6001600160a01b038216600081815260036020908152604080832080546001019055848352600290915280822080546001600160a01b0319168417905551839291907fddf252ad1be2c89b69c2b068fc378daa952ba7f163c4a11628f55a4df523b3ef908290a45050565b600060016119bd84610d3f565b6119c791906120a6565b600083815260076020526040902054909150808214611a1a576001600160a01b03841660009081526006602090815260408083208584528252808320548484528184208190558352600790915290208190555b5060009182526007602090815260408084208490556001600160a01b039094168352600681528383209183525290812055565b600854600090611a5f906001906120a6565b60008381526009602052604081205460088054939450909284908110611a8757611a876120bd565b906000526020600020015490508060088381548110611aa857611aa86120bd565b6000918252602080832090910192909255828152600990915260408082208490558582528120556008805480611ae057611ae0612288565b6001900381819060005260206000200160009055905550505050565b6000611b0783610d3f565b6001600160a01b039093166000908152600660209081526040808320868452825280832085905593825260079052919091209190915550565b828054828255906000526020600020908101928215611b95579160200282015b82811115611b9557825182546001600160a01b0319166001600160a01b03909116178255602090920191600190910190611b60565b50611ba1929150611ba5565b5090565b5b80821115611ba15760008155600101611ba6565b6001600160e01b0319811681146110d857600080fd5b600060208284031215611be257600080fd5b8135611bed81611bba565b9392505050565b6000815180845260005b81811015611c1a57602081850181015186830182015201611bfe565b81811115611c2c576000602083870101525b50601f01601f19169290920160200192915050565b602081526000611bed6020830184611bf4565b600060208284031215611c6657600080fd5b5035919050565b80356001600160a01b0381168114611c8457600080fd5b919050565b60008060408385031215611c9c57600080fd5b611ca583611c6d565b946020939093013593505050565b60008060408385031215611cc657600080fd5b50508035926020909101359150565b600060608301825184526020808401516060828701528281518085526080880191508383019450600092505b80831015611d2a5784516001600160a01b03168252938301936001929092019190830190611d01565b50604086015160408801528094505050505092915050565b6000602080830181845280855180835260408601915060408160051b870101925083870160005b82811015611d9757603f19888603018452611d85858351611cd5565b94509285019290850190600101611d69565b5092979650505050505050565b600060208284031215611db657600080fd5b611bed82611c6d565b600080600060608486031215611dd457600080fd5b611ddd84611c6d565b9250611deb60208501611c6d565b9150604084013590509250925092565b80358015158114611c8457600080fd5b600060208284031215611e1d57600080fd5b611bed82611dfb565b634e487b7160e01b600052604160045260246000fd5b604051601f8201601f1916810167ffffffffffffffff81118282101715611e6557611e65611e26565b604052919050565b60008060408385031215611e8057600080fd5b8235915060208084013567ffffffffffffffff80821115611ea057600080fd5b818601915086601f830112611eb457600080fd5b813581811115611ec657611ec6611e26565b8060051b9150611ed7848301611e3c565b8181529183018401918481019089841115611ef157600080fd5b938501935b83851015611f1657611f0785611c6d565b82529385019390850190611ef6565b8096505050505050509250929050565b60008060408385031215611f3957600080fd5b611f4283611c6d565b9150611f5060208401611dfb565b90509250929050565b60008060008060808587031215611f6f57600080fd5b611f7885611c6d565b93506020611f87818701611c6d565b935060408601359250606086013567ffffffffffffffff80821115611fab57600080fd5b818801915088601f830112611fbf57600080fd5b813581811115611fd157611fd1611e26565b611fe3601f8201601f19168501611e3c565b91508082528984828501011115611ff957600080fd5b808484018584013760008482840101525080935050505092959194509250565b602081526000611bed6020830184611cd5565b6000806040838503121561203f57600080fd5b61204883611c6d565b9150611f5060208401611c6d565b600181811c9082168061206a57607f821691505b60208210810361208a57634e487b7160e01b600052602260045260246000fd5b50919050565b634e487b7160e01b600052601160045260246000fd5b6000828210156120b8576120b8612090565b500390565b634e487b7160e01b600052603260045260246000fd5b600060ff821660ff81036120e9576120e9612090565b60010192915050565b60008161210157612101612090565b506000190190565b602081016004831061212b57634e487b7160e01b600052602160045260246000fd5b91905290565b60006020828403121561214357600080fd5b5051919050565b6020808252602d908201527f4552433732313a2063616c6c6572206973206e6f7420746f6b656e206f776e6560408201526c1c881bdc88185c1c1c9bdd9959609a1b606082015260800190565b60208082526025908201527f4552433732313a207472616e736665722066726f6d20696e636f72726563742060408201526437bbb732b960d91b606082015260800190565b60208082526032908201527f4552433732313a207472616e7366657220746f206e6f6e20455243373231526560408201527131b2b4bb32b91034b6b83632b6b2b73a32b960711b606082015260800190565b6001600160a01b038581168252841660208201526040810183905260806060820181905260009061226190830184611bf4565b9695505050505050565b60006020828403121561227d57600080fd5b8151611bed81611bba565b634e487b7160e01b600052603160045260246000fdfea2646970667358221220fe4b336398655c7cef0fa8b9fd2396136e95ce202e8032da851325c95e653bad64736f6c634300080f003368747470733a2f2f6261666b7265696166746b7574357a66787a6666666137656c737336747533626c75776a70326b6c69347a6171776d32716c70703775376a6272342e697066732e6e667473746f726167652e6c696e6b",
  "devdoc": {
    "kind": "dev",
    "methods": {
      "approve(address,uint256)": {
        "details": "See {IERC721-approve}."
      },
      "balanceOf(address)": {
        "details": "See {IERC721-balanceOf}."
      },
      "getApproved(uint256)": {
        "details": "See {IERC721-getApproved}."
      },
      "isApprovedForAll(address,address)": {
        "details": "See {IERC721-isApprovedForAll}."
      },
      "name()": {
        "details": "See {IERC721Metadata-name}."
      },
      "owner()": {
        "details": "Returns the address of the current owner."
      },
      "ownerOf(uint256)": {
        "details": "See {IERC721-ownerOf}."
      },
      "renounceOwnership()": {
        "details": "Leaves the contract without owner. It will not be possible to call `onlyOwner` functions anymore. Can only be called by the current owner. NOTE: Renouncing ownership will leave the contract without an owner, thereby removing any functionality that is only available to the owner."
      },
      "safeTransferFrom(address,address,uint256)": {
        "details": "See {IERC721-safeTransferFrom}."
      },
      "safeTransferFrom(address,address,uint256,bytes)": {
        "details": "See {IERC721-safeTransferFrom}."
      },
      "setApprovalForAll(address,bool)": {
        "details": "See {IERC721-setApprovalForAll}."
      },
      "supportsInterface(bytes4)": {
        "details": "See {IERC165-supportsInterface}."
      },
      "symbol()": {
        "details": "See {IERC721Metadata-symbol}."
      },
      "tokenByIndex(uint256)": {
        "details": "See {IERC721Enumerable-tokenByIndex}."
      },
      "tokenOfOwnerByIndex(address,uint256)": {
        "details": "See {IERC721Enumerable-tokenOfOwnerByIndex}."
      },
      "tokenURI(uint256)": {
        "details": "See {IERC721Metadata-tokenURI}."
      },
      "totalSupply()": {
        "details": "See {IERC721Enumerable-totalSupply}."
      },
      "transferFrom(address,address,uint256)": {
        "details": "See {IERC721-transferFrom}."
      },
      "transferOwnership(address)": {
        "details": "Transfers ownership of the contract to a new account (`newOwner`). Can only be called by the current owner."
      }
    },
    "version": 1
  },
  "userdoc": {
    "kind": "user",
    "methods": {},
    "version": 1
  },
  "storageLayout": {
    "storage": [
      {
        "astId": 2275,
        "contract": "contracts/CreatorContract/PMTeamManager.sol:PMTeamManager",
        "label": "_name",
        "offset": 0,
        "slot": "0",
        "type": "t_string_storage"
      },
      {
        "astId": 2277,
        "contract": "contracts/CreatorContract/PMTeamManager.sol:PMTeamManager",
        "label": "_symbol",
        "offset": 0,
        "slot": "1",
        "type": "t_string_storage"
      },
      {
        "astId": 2281,
        "contract": "contracts/CreatorContract/PMTeamManager.sol:PMTeamManager",
        "label": "_owners",
        "offset": 0,
        "slot": "2",
        "type": "t_mapping(t_uint256,t_address)"
      },
      {
        "astId": 2285,
        "contract": "contracts/CreatorContract/PMTeamManager.sol:PMTeamManager",
        "label": "_balances",
        "offset": 0,
        "slot": "3",
        "type": "t_mapping(t_address,t_uint256)"
      },
      {
        "astId": 2289,
        "contract": "contracts/CreatorContract/PMTeamManager.sol:PMTeamManager",
        "label": "_tokenApprovals",
        "offset": 0,
        "slot": "4",
        "type": "t_mapping(t_uint256,t_address)"
      },
      {
        "astId": 2295,
        "contract": "contracts/CreatorContract/PMTeamManager.sol:PMTeamManager",
        "label": "_operatorApprovals",
        "offset": 0,
        "slot": "5",
        "type": "t_mapping(t_address,t_mapping(t_address,t_bool))"
      },
      {
        "astId": 3325,
        "contract": "contracts/CreatorContract/PMTeamManager.sol:PMTeamManager",
        "label": "_ownedTokens",
        "offset": 0,
        "slot": "6",
        "type": "t_mapping(t_address,t_mapping(t_uint256,t_uint256))"
      },
      {
        "astId": 3329,
        "contract": "contracts/CreatorContract/PMTeamManager.sol:PMTeamManager",
        "label": "_ownedTokensIndex",
        "offset": 0,
        "slot": "7",
        "type": "t_mapping(t_uint256,t_uint256)"
      },
      {
        "astId": 3332,
        "contract": "contracts/CreatorContract/PMTeamManager.sol:PMTeamManager",
        "label": "_allTokens",
        "offset": 0,
        "slot": "8",
        "type": "t_array(t_uint256)dyn_storage"
      },
      {
        "astId": 3336,
        "contract": "contracts/CreatorContract/PMTeamManager.sol:PMTeamManager",
        "label": "_allTokensIndex",
        "offset": 0,
        "slot": "9",
        "type": "t_mapping(t_uint256,t_uint256)"
      },
      {
        "astId": 53,
        "contract": "contracts/CreatorContract/PMTeamManager.sol:PMTeamManager",
        "label": "_owner",
        "offset": 0,
        "slot": "10",
        "type": "t_address"
      },
      {
        "astId": 6685,
        "contract": "contracts/CreatorContract/PMTeamManager.sol:PMTeamManager",
        "label": "membershipFeeManager",
        "offset": 0,
        "slot": "11",
        "type": "t_address_payable"
      },
      {
        "astId": 6692,
        "contract": "contracts/CreatorContract/PMTeamManager.sol:PMTeamManager",
        "label": "_tokenIdCounter",
        "offset": 0,
        "slot": "12",
        "type": "t_struct(Counter)4107_storage"
      },
      {
        "astId": 6695,
        "contract": "contracts/CreatorContract/PMTeamManager.sol:PMTeamManager",
        "label": "teamTokenURI",
        "offset": 0,
        "slot": "13",
        "type": "t_string_storage"
      },
      {
        "astId": 6698,
        "contract": "contracts/CreatorContract/PMTeamManager.sol:PMTeamManager",
        "label": "pause",
        "offset": 0,
        "slot": "14",
        "type": "t_bool"
      },
      {
        "astId": 6703,
        "contract": "contracts/CreatorContract/PMTeamManager.sol:PMTeamManager",
        "label": "team",
        "offset": 0,
        "slot": "15",
        "type": "t_mapping(t_uint256,t_struct(Team)6711_storage)"
      }
    ],
    "types": {
      "t_address": {
        "encoding": "inplace",
        "label": "address",
        "numberOfBytes": "20"
      },
      "t_address_payable": {
        "encoding": "inplace",
        "label": "address payable",
        "numberOfBytes": "20"
      },
      "t_array(t_address)dyn_storage": {
        "base": "t_address",
        "encoding": "dynamic_array",
        "label": "address[]",
        "numberOfBytes": "32"
      },
      "t_array(t_uint256)dyn_storage": {
        "base": "t_uint256",
        "encoding": "dynamic_array",
        "label": "uint256[]",
        "numberOfBytes": "32"
      },
      "t_bool": {
        "encoding": "inplace",
        "label": "bool",
        "numberOfBytes": "1"
      },
      "t_mapping(t_address,t_bool)": {
        "encoding": "mapping",
        "key": "t_address",
        "label": "mapping(address => bool)",
        "numberOfBytes": "32",
        "value": "t_bool"
      },
      "t_mapping(t_address,t_mapping(t_address,t_bool))": {
        "encoding": "mapping",
        "key": "t_address",
        "label": "mapping(address => mapping(address => bool))",
        "numberOfBytes": "32",
        "value": "t_mapping(t_address,t_bool)"
      },
      "t_mapping(t_address,t_mapping(t_uint256,t_uint256))": {
        "encoding": "mapping",
        "key": "t_address",
        "label": "mapping(address => mapping(uint256 => uint256))",
        "numberOfBytes": "32",
        "value": "t_mapping(t_uint256,t_uint256)"
      },
      "t_mapping(t_address,t_uint256)": {
        "encoding": "mapping",
        "key": "t_address",
        "label": "mapping(address => uint256)",
        "numberOfBytes": "32",
        "value": "t_uint256"
      },
      "t_mapping(t_uint256,t_address)": {
        "encoding": "mapping",
        "key": "t_uint256",
        "label": "mapping(uint256 => address)",
        "numberOfBytes": "32",
        "value": "t_address"
      },
      "t_mapping(t_uint256,t_struct(Team)6711_storage)": {
        "encoding": "mapping",
        "key": "t_uint256",
        "label": "mapping(uint256 => struct PMTeamManager.Team)",
        "numberOfBytes": "32",
        "value": "t_struct(Team)6711_storage"
      },
      "t_mapping(t_uint256,t_uint256)": {
        "encoding": "mapping",
        "key": "t_uint256",
        "label": "mapping(uint256 => uint256)",
        "numberOfBytes": "32",
        "value": "t_uint256"
      },
      "t_string_storage": {
        "encoding": "bytes",
        "label": "string",
        "numberOfBytes": "32"
      },
      "t_struct(Counter)4107_storage": {
        "encoding": "inplace",
        "label": "struct Counters.Counter",
        "members": [
          {
            "astId": 4106,
            "contract": "contracts/CreatorContract/PMTeamManager.sol:PMTeamManager",
            "label": "_value",
            "offset": 0,
            "slot": "0",
            "type": "t_uint256"
          }
        ],
        "numberOfBytes": "32"
      },
      "t_struct(Team)6711_storage": {
        "encoding": "inplace",
        "label": "struct PMTeamManager.Team",
        "members": [
          {
            "astId": 6705,
            "contract": "contracts/CreatorContract/PMTeamManager.sol:PMTeamManager",
            "label": "teamId",
            "offset": 0,
            "slot": "0",
            "type": "t_uint256"
          },
          {
            "astId": 6708,
            "contract": "contracts/CreatorContract/PMTeamManager.sol:PMTeamManager",
            "label": "members",
            "offset": 0,
            "slot": "1",
            "type": "t_array(t_address)dyn_storage"
          },
          {
            "astId": 6710,
            "contract": "contracts/CreatorContract/PMTeamManager.sol:PMTeamManager",
            "label": "inceptionDate",
            "offset": 0,
            "slot": "2",
            "type": "t_uint256"
          }
        ],
        "numberOfBytes": "96"
      },
      "t_uint256": {
        "encoding": "inplace",
        "label": "uint256",
        "numberOfBytes": "32"
      }
    }
  }
}