{
  "address": "0x36B4dd453481936962246440f8aD0A3059dcEf99",
  "abi": [
    {
      "inputs": [
        {
          "internalType": "address",
          "name": "campaignFeeManager",
          "type": "address"
        },
        {
          "internalType": "address",
          "name": "pmMembershipManager",
          "type": "address"
        },
        {
          "internalType": "address",
          "name": "pmTeamManager",
          "type": "address"
        },
        {
          "internalType": "address",
          "name": "creatorManager",
          "type": "address"
        }
      ],
      "stateMutability": "nonpayable",
      "type": "constructor"
    },
    {
      "inputs": [],
      "name": "RewardCampaignFactory__CONTRACT_IS_PAUSED",
      "type": "error"
    },
    {
      "inputs": [],
      "name": "RewardCampaignFactory__FAILED_TO_TRANSFER_BNBS",
      "type": "error"
    },
    {
      "inputs": [],
      "name": "RewardCampaignFactory__FAILED_TO_TRANSFER_TOKENS",
      "type": "error"
    },
    {
      "inputs": [],
      "name": "RewardCampaignFactory__INSUFFICIENT_FUNDS",
      "type": "error"
    },
    {
      "inputs": [],
      "name": "RewardCampaignFactory__NOT_MEMBER_OR_TEAM",
      "type": "error"
    },
    {
      "inputs": [],
      "name": "RewardCampaignFactory__NOT_OWNER_OF_TEAM",
      "type": "error"
    },
    {
      "inputs": [],
      "name": "RewardCampaignFactory__START_TIME_SHOULD_BE_FUTURE",
      "type": "error"
    },
    {
      "anonymous": false,
      "inputs": [
        {
          "indexed": true,
          "internalType": "address",
          "name": "previousOwner",
          "type": "address"
        },
        {
          "indexed": true,
          "internalType": "address",
          "name": "newOwner",
          "type": "address"
        }
      ],
      "name": "OwnershipTransferred",
      "type": "event"
    },
    {
      "anonymous": false,
      "inputs": [
        {
          "indexed": false,
          "internalType": "uint256",
          "name": "poolId",
          "type": "uint256"
        },
        {
          "indexed": false,
          "internalType": "address",
          "name": "poolAddress",
          "type": "address"
        },
        {
          "indexed": false,
          "internalType": "address",
          "name": "tokenAddress",
          "type": "address"
        }
      ],
      "name": "Poolcreated",
      "type": "event"
    },
    {
      "inputs": [
        {
          "internalType": "bool",
          "name": "action",
          "type": "bool"
        }
      ],
      "name": "changePauseStatus",
      "outputs": [],
      "stateMutability": "nonpayable",
      "type": "function"
    },
    {
      "inputs": [
        {
          "components": [
            {
              "internalType": "enum PMLibrary.CampaignCategories",
              "name": "category",
              "type": "uint8"
            },
            {
              "internalType": "string",
              "name": "projectName",
              "type": "string"
            },
            {
              "internalType": "string",
              "name": "projectSymbol",
              "type": "string"
            },
            {
              "internalType": "address",
              "name": "tokenAddress",
              "type": "address"
            },
            {
              "internalType": "uint8",
              "name": "tokenDecimals",
              "type": "uint8"
            },
            {
              "internalType": "string",
              "name": "tokenSymbol",
              "type": "string"
            },
            {
              "internalType": "enum PMLibrary.ProfileType",
              "name": "profileType",
              "type": "uint8"
            },
            {
              "internalType": "uint256",
              "name": "profileId",
              "type": "uint256"
            }
          ],
          "internalType": "struct PMLibrary.ProjectInfo",
          "name": "projectInfo",
          "type": "tuple"
        },
        {
          "components": [
            {
              "internalType": "uint256",
              "name": "startedAt",
              "type": "uint256"
            },
            {
              "internalType": "uint256",
              "name": "poolAmount",
              "type": "uint256"
            }
          ],
          "internalType": "struct PMLibrary.RewardPoolInfo",
          "name": "rewardPoolInfo",
          "type": "tuple"
        },
        {
          "components": [
            {
              "internalType": "string",
              "name": "image_1_months",
              "type": "string"
            },
            {
              "internalType": "string",
              "name": "image_3_months",
              "type": "string"
            },
            {
              "internalType": "string",
              "name": "image_6_months",
              "type": "string"
            },
            {
              "internalType": "string",
              "name": "image_9_months",
              "type": "string"
            },
            {
              "internalType": "string",
              "name": "image_12_months",
              "type": "string"
            },
            {
              "internalType": "uint8",
              "name": "APY_1_months",
              "type": "uint8"
            },
            {
              "internalType": "uint8",
              "name": "APY_3_months",
              "type": "uint8"
            },
            {
              "internalType": "uint8",
              "name": "APY_6_months",
              "type": "uint8"
            },
            {
              "internalType": "uint8",
              "name": "APY_9_months",
              "type": "uint8"
            },
            {
              "internalType": "uint8",
              "name": "APY_12_months",
              "type": "uint8"
            }
          ],
          "internalType": "struct PMLibrary.NFTData",
          "name": "nftData",
          "type": "tuple"
        }
      ],
      "name": "createARewardCampaign",
      "outputs": [],
      "stateMutability": "payable",
      "type": "function"
    },
    {
      "inputs": [],
      "name": "getPMAddresses",
      "outputs": [
        {
          "internalType": "address",
          "name": "",
          "type": "address"
        },
        {
          "internalType": "address",
          "name": "",
          "type": "address"
        },
        {
          "internalType": "address",
          "name": "",
          "type": "address"
        },
        {
          "internalType": "address",
          "name": "",
          "type": "address"
        }
      ],
      "stateMutability": "view",
      "type": "function"
    },
    {
      "inputs": [
        {
          "internalType": "uint256",
          "name": "id",
          "type": "uint256"
        }
      ],
      "name": "getPoolByID",
      "outputs": [
        {
          "internalType": "address",
          "name": "",
          "type": "address"
        }
      ],
      "stateMutability": "view",
      "type": "function"
    },
    {
      "inputs": [
        {
          "internalType": "uint256",
          "name": "teamId",
          "type": "uint256"
        }
      ],
      "name": "getPoolIdsOfATeam",
      "outputs": [
        {
          "internalType": "uint256[]",
          "name": "",
          "type": "uint256[]"
        }
      ],
      "stateMutability": "view",
      "type": "function"
    },
    {
      "inputs": [
        {
          "internalType": "address",
          "name": "user",
          "type": "address"
        }
      ],
      "name": "getPoolIdsOfAUser",
      "outputs": [
        {
          "internalType": "uint256[]",
          "name": "",
          "type": "uint256[]"
        }
      ],
      "stateMutability": "view",
      "type": "function"
    },
    {
      "inputs": [
        {
          "internalType": "address",
          "name": "token",
          "type": "address"
        }
      ],
      "name": "getPoolsByToken",
      "outputs": [
        {
          "internalType": "address[]",
          "name": "",
          "type": "address[]"
        }
      ],
      "stateMutability": "view",
      "type": "function"
    },
    {
      "inputs": [],
      "name": "isPaused",
      "outputs": [
        {
          "internalType": "bool",
          "name": "",
          "type": "bool"
        }
      ],
      "stateMutability": "view",
      "type": "function"
    },
    {
      "inputs": [],
      "name": "owner",
      "outputs": [
        {
          "internalType": "address",
          "name": "",
          "type": "address"
        }
      ],
      "stateMutability": "view",
      "type": "function"
    },
    {
      "inputs": [],
      "name": "renounceOwnership",
      "outputs": [],
      "stateMutability": "nonpayable",
      "type": "function"
    },
    {
      "inputs": [
        {
          "internalType": "address",
          "name": "newOwner",
          "type": "address"
        }
      ],
      "name": "transferOwnership",
      "outputs": [],
      "stateMutability": "nonpayable",
      "type": "function"
    }
  ],
  "transactionHash": "0xd9329635aefbc95376f79340a30ec197e940183de0f1952dc67be792886f2da7",
  "args": [
    "0xF67F00E32507B9201d44c9d5a3540768EbC2104f",
    "0x3C17C3Dfe724A89b6Ca538912d7d7FFE08dBf90e",
    "0xFB2ac5244D4BD3d0B00cF3e91434cdE0DC562e9c",
    "0xf8a8Acfea832Cd265d26e31BAB411b03B01180e6"
  ],
  "numDeployments": 1,
  "solcInputHash": "f3f6c715391d995e0d22c3812177edd2",
  "bytecode": "0x60806040526002805460ff191690553480156200001b57600080fd5b50604051620060c4380380620060c48339810160408190526200003e9162000113565b6200004933620000a6565b600280546001600160a01b0395861661010002610100600160a81b0319909116179055600380549385166001600160a01b031994851617905560048054928516928416929092179091556005805491909316911617905562000170565b600080546001600160a01b038381166001600160a01b0319831681178455604051919092169283917f8be0079c531659141344cd1fd0a4f28419497f9722a3daafe3b4186f6b6457e09190a35050565b80516001600160a01b03811681146200010e57600080fd5b919050565b600080600080608085870312156200012a57600080fd5b6200013585620000f6565b93506200014560208601620000f6565b92506200015560408601620000f6565b91506200016560608601620000f6565b905092959194509250565b615f4480620001806000396000f3fe608060405260043610620000a95760003560e01c80638da5cb5b116200006c5780638da5cb5b14620001ac5780638dc6c5f614620001cc578063b187bd2614620001f1578063e451a2501462000216578063e645ab06146200022d578063f2fde38b146200027f57600080fd5b80633424b8ce14620000ae5780635055149c14620000d5578063715018a6146200012c5780637a0e6ad3146200014457806386959b4b1462000178575b600080fd5b348015620000bb57600080fd5b50620000d3620000cd36600462000aec565b620002a4565b005b348015620000e257600080fd5b506200010f620000f436600462000b13565b6000908152600960205260409020546001600160a01b031690565b6040516001600160a01b0390911681526020015b60405180910390f35b3480156200013957600080fd5b50620000d3620002c1565b3480156200015157600080fd5b50620001696200016336600462000b55565b620002d9565b60405162000123919062000b75565b3480156200018557600080fd5b506200019d6200019736600462000b55565b62000347565b60405162000123919062000bbb565b348015620001b957600080fd5b506000546001600160a01b03166200010f565b348015620001d957600080fd5b5062000169620001eb36600462000b13565b620003be565b348015620001fe57600080fd5b5060025460ff16604051901515815260200162000123565b620000d36200022736600462000ec4565b62000420565b3480156200023a57600080fd5b50600254600354600454600554604080516101009095046001600160a01b03908116865293841660208601529183169184019190915216606082015260800162000123565b3480156200028c57600080fd5b50620000d36200029e36600462000b55565b620009a0565b620002ae62000a23565b6002805460ff1916911515919091179055565b620002cb62000a23565b620002d7600062000a7f565b565b6001600160a01b0381166000908152600660209081526040918290208054835181840281018401909452808452606093928301828280156200033b57602002820191906000526020600020905b81548152602001906001019080831162000326575b50505050509050919050565b6001600160a01b0381166000908152600860209081526040918290208054835181840281018401909452808452606093928301828280156200033b57602002820191906000526020600020905b81546001600160a01b03168152600190910190602001808311620003945750505050509050919050565b6000818152600760209081526040918290208054835181840281018401909452808452606093928301828280156200033b5760200282019190600052602060002090815481526020019060010190808311620003265750505050509050919050565b60025460ff16156200044557604051637a67145160e01b815260040160405180910390fd5b600480546040516370a0823160e01b8152339281019290925260009182916001600160a01b0316906370a0823190602401602060405180830381865afa15801562000494573d6000803e3d6000fd5b505050506040513d601f19601f82011682018060405250810190620004ba919062001019565b60035460405163288c314960e21b81523360048201529290911192506000916001600160a01b039091169063a230c52490602401602060405180830381865afa1580156200050c573d6000803e3d6000fd5b505050506040513d601f19601f8201168201806040525081019062000532919062001033565b90508115801562000541575080155b1562000560576040516315b1134160e21b815260040160405180910390fd5b60018560c0015160028111156200057b576200057b62001053565b0362000625576004805460e08701516040516331a9108f60e11b8152928301526000916001600160a01b0390911690636352211e90602401602060405180830381865afa158015620005d1573d6000803e3d6000fd5b505050506040513d601f19601f82011682018060405250810190620005f7919062001069565b90506001600160a01b038116331462000623576040516314b0092160e01b815260040160405180910390fd5b505b600254855160405163abe9836360e01b815260009261010090046001600160a01b03169163abe98363916200065e9190600401620010b7565b602060405180830381865afa1580156200067c573d6000803e3d6000fd5b505050506040513d601f19601f82011682018060405250810190620006a2919062001019565b905080341015620006c6576040516338ba8e1560e21b815260040160405180910390fd5b8451421115620006e957604051636c0e2c5160e11b815260040160405180910390fd5b620006f8600180546001019055565b60006200070460015490565b60055460025460405192935060009284928b928b928b926001600160a01b03908116926101009004169033906200073b9062000acf565b6200074d979695949392919062001208565b604051809103906000f0801580156200076a573d6000803e3d6000fd5b50905060018860c00151600281111562000788576200078862001053565b03620007b55760e08801516000908152600760209081526040822080546001810182559083529120018290555b6060880180516001600160a01b0390811660009081526008602090815260408083208054600180820183559185528385200180548887166001600160a01b031991821681179092558986526009855283862080549091168217905533808652600685528386208054938401815586528486209092018990559551928d015191516323b872dd60e01b815260048101919091526024810195909552604485015290929116906323b872dd906064016020604051808303816000875af115801562000882573d6000803e3d6000fd5b505050506040513d601f19601f82011682018060405250810190620008a8919062001033565b905080620008c95760405163124c872560e31b815260040160405180910390fd5b60025460405160009161010090046001600160a01b03169034908381818185875af1925050503d80600081146200091d576040519150601f19603f3d011682016040523d82523d6000602084013e62000922565b606091505b505090508062000945576040516323dec52d60e11b815260040160405180910390fd5b6060808b0151604080518781526001600160a01b038088166020830152909216908201527fdffe5be4b28e9feff47252db2cf2054aef948f89043d4ba606b2c6a0fd0cff0d910160405180910390a150505050505050505050565b620009aa62000a23565b6001600160a01b03811662000a155760405162461bcd60e51b815260206004820152602660248201527f4f776e61626c653a206e6577206f776e657220697320746865207a65726f206160448201526564647265737360d01b60648201526084015b60405180910390fd5b62000a208162000a7f565b50565b6000546001600160a01b03163314620002d75760405162461bcd60e51b815260206004820181905260248201527f4f776e61626c653a2063616c6c6572206973206e6f7420746865206f776e6572604482015260640162000a0c565b600080546001600160a01b038381166001600160a01b0319831681178455604051919092169283917f8be0079c531659141344cd1fd0a4f28419497f9722a3daafe3b4186f6b6457e09190a35050565b614bd2806200133d83390190565b801515811462000a2057600080fd5b60006020828403121562000aff57600080fd5b813562000b0c8162000add565b9392505050565b60006020828403121562000b2657600080fd5b5035919050565b6001600160a01b038116811462000a2057600080fd5b803562000b508162000b2d565b919050565b60006020828403121562000b6857600080fd5b813562000b0c8162000b2d565b6020808252825182820181905260009190848201906040850190845b8181101562000baf5783518352928401929184019160010162000b91565b50909695505050505050565b6020808252825182820181905260009190848201906040850190845b8181101562000baf5783516001600160a01b03168352928401929184019160010162000bd7565b634e487b7160e01b600052604160045260246000fd5b604051610140810167ffffffffffffffff8111828210171562000c3b5762000c3b62000bfe565b60405290565b604051610100810167ffffffffffffffff8111828210171562000c3b5762000c3b62000bfe565b80356003811062000b5057600080fd5b600082601f83011262000c8a57600080fd5b813567ffffffffffffffff8082111562000ca85762000ca862000bfe565b604051601f8301601f19908116603f0116810190828211818310171562000cd35762000cd362000bfe565b8160405283815286602085880101111562000ced57600080fd5b836020870160208301376000602085830101528094505050505092915050565b803560ff8116811462000b5057600080fd5b60006040828403121562000d3257600080fd5b6040516040810181811067ffffffffffffffff8211171562000d585762000d5862000bfe565b604052823581526020928301359281019290925250919050565b6000610140828403121562000d8657600080fd5b62000d9062000c14565b9050813567ffffffffffffffff8082111562000dab57600080fd5b62000db98583860162000c78565b8352602084013591508082111562000dd057600080fd5b62000dde8583860162000c78565b6020840152604084013591508082111562000df857600080fd5b62000e068583860162000c78565b6040840152606084013591508082111562000e2057600080fd5b62000e2e8583860162000c78565b6060840152608084013591508082111562000e4857600080fd5b5062000e578482850162000c78565b60808301525062000e6b60a0830162000d0d565b60a082015262000e7e60c0830162000d0d565b60c082015262000e9160e0830162000d0d565b60e082015261010062000ea681840162000d0d565b9082015261012062000eba83820162000d0d565b9082015292915050565b60008060006080848603121562000eda57600080fd5b833567ffffffffffffffff8082111562000ef357600080fd5b90850190610100828803121562000f0957600080fd5b62000f1362000c41565b62000f1e8362000c68565b815260208301358281111562000f3357600080fd5b62000f418982860162000c78565b60208301525060408301358281111562000f5a57600080fd5b62000f688982860162000c78565b60408301525062000f7c6060840162000b43565b606082015262000f8f6080840162000d0d565b608082015260a08301358281111562000fa757600080fd5b62000fb58982860162000c78565b60a08301525062000fc960c0840162000c68565b60c082015260e08381013590820152945062000fe9876020880162000d1f565b935060608601359150808211156200100057600080fd5b506200100f8682870162000d72565b9150509250925092565b6000602082840312156200102c57600080fd5b5051919050565b6000602082840312156200104657600080fd5b815162000b0c8162000add565b634e487b7160e01b600052602160045260246000fd5b6000602082840312156200107c57600080fd5b815162000b0c8162000b2d565b6003811062000a2057634e487b7160e01b600052602160045260246000fd5b620010b38162001089565b9052565b60208101620010c68362001089565b91905290565b6000815180845260005b81811015620010f457602081850181015186830182015201620010d6565b506000602082860101526020601f19601f83011685010191505092915050565b600061014082518185526200112c82860182620010cc565b91505060208301518482036020860152620011488282620010cc565b91505060408301518482036040860152620011648282620010cc565b91505060608301518482036060860152620011808282620010cc565b915050608083015184820360808601526200119c8282620010cc565b91505060a0830151620011b460a086018260ff169052565b5060c0830151620011ca60c086018260ff169052565b5060e0830151620011e060e086018260ff169052565b506101008381015160ff90811691860191909152610120938401511692909301919091525090565b6000610100898352806020840152620012258184018a51620010a8565b60208901518161012085015262001241610200850182620010cc565b915050604089015160ff198085840301610140860152620012638383620010cc565b925060608b01519150620012836101608601836001600160a01b03169052565b60808b015160ff1661018086015260a08b01518584039091016101a08601529050620012b08282620010cc565b91505060c0890151620012c86101c0850182620010a8565b5060e08901516101e084015287516040840152602088015160608401528281036080840152620012f9818862001114565b9150506200131260a08301866001600160a01b03169052565b6001600160a01b03841660c08301526001600160a01b03831660e08301529897505050505050505056fe60c06040523480156200001157600080fd5b5060405162004bd238038062004bd283398101604081905262000034916200089b565b6020860151604087015160006200004c838262000ac6565b5060016200005b828262000ac6565b50505062015180601e62000070919062000b92565b60008052602080527f29ab76e7ca72530a8284597fb76b039d796325740b21528d71ade454c6f2dbe95560a084015160ff167f29ab76e7ca72530a8284597fb76b039d796325740b21528d71ade454c6f2dbea5583517f29ab76e7ca72530a8284597fb76b039d796325740b21528d71ade454c6f2dbeb90620000f4908262000ac6565b506200010562015180605a62000b92565b600160005260208080527f156774b33c8bc7cb83eda4cbc43b36c7c9490ff8913c488ccd5132cfc71344ea9190915560c085015160ff167f156774b33c8bc7cb83eda4cbc43b36c7c9490ff8913c488ccd5132cfc71344eb558401517f156774b33c8bc7cb83eda4cbc43b36c7c9490ff8913c488ccd5132cfc71344ec906200018f908262000ac6565b50620001a06201518060b462000b92565b6002600052602080527f2c5f9a2e204d4db70ad0f9037679e33061b4c51a386497019bee969e16be28d75560e084015160ff167f2c5f9a2e204d4db70ad0f9037679e33061b4c51a386497019bee969e16be28d85560408401517f2c5f9a2e204d4db70ad0f9037679e33061b4c51a386497019bee969e16be28d99062000228908262000ac6565b506200023a6201518061010e62000b92565b6003600052602080527f1ae1eab41a4db68d73559dd6c8b7ac16a4bc819634768486d35edbff05543abf5561010084015160ff167f1ae1eab41a4db68d73559dd6c8b7ac16a4bc819634768486d35edbff05543ac05560608401517f1ae1eab41a4db68d73559dd6c8b7ac16a4bc819634768486d35edbff05543ac190620002c3908262000ac6565b50620002d56201518061016d62000b92565b6004600052602080527faf69f7ec271f94daa686978b3a96acf46914b99f1828a3f8265276d5eab630fa5561012084015160ff167faf69f7ec271f94daa686978b3a96acf46914b99f1828a3f8265276d5eab630fb5560808401517faf69f7ec271f94daa686978b3a96acf46914b99f1828a3f8265276d5eab630fc906200035e908262000ac6565b50855160118054889290829060ff1916600183600281111562000385576200038562000bbe565b021790555060208201516001820190620003a0908262000ac6565b5060408201516002820190620003b7908262000ac6565b506060820151600382018054608085015160ff16600160a01b026001600160a81b03199091166001600160a01b039093169290921791909117905560a0820151600482019062000408908262000ac6565b5060c082015160058201805460ff191660018360028111156200042f576200042f62000bbe565b021790555060e091909101516006909101558451601855602085015160195583518490601a90819062000463908262000ac6565b50602082015160018201906200047a908262000ac6565b506040820151600282019062000491908262000ac6565b5060608201516003820190620004a8908262000ac6565b5060808201516004820190620004bf908262000ac6565b5060a0828101516005909201805460c085015160e0860151610100808801516101209098015160ff9081166401000000000260ff60201b1999821663010000000263ff0000001994831662010000029490941663ffff00001995831690930261ffff199096169190981617939093179190911691909117179390931691909117909155600a97909755601080546001600160a01b039283166001600160a01b031991821617909155600b805490911630179055602090940151600c559083166080529091169092525062000bd49050565b634e487b7160e01b600052604160045260246000fd5b60405161014081016001600160401b0381118282101715620005cc57620005cc62000590565b60405290565b60405161010081016001600160401b0381118282101715620005cc57620005cc62000590565b604051601f8201601f191681016001600160401b038111828210171562000623576200062362000590565b604052919050565b8051600381106200063b57600080fd5b919050565b600082601f8301126200065257600080fd5b81516001600160401b038111156200066e576200066e62000590565b602062000684601f8301601f19168201620005f8565b82815285828487010111156200069957600080fd5b60005b83811015620006b95785810183015182820184015282016200069c565b506000928101909101919091529392505050565b80516001600160a01b03811681146200063b57600080fd5b805160ff811681146200063b57600080fd5b6000604082840312156200070a57600080fd5b604080519081016001600160401b03811182821017156200072f576200072f62000590565b604052825181526020928301519281019290925250919050565b600061014082840312156200075d57600080fd5b62000767620005a6565b82519091506001600160401b03808211156200078257600080fd5b620007908583860162000640565b83526020840151915080821115620007a757600080fd5b620007b58583860162000640565b60208401526040840151915080821115620007cf57600080fd5b620007dd8583860162000640565b60408401526060840151915080821115620007f757600080fd5b620008058583860162000640565b606084015260808401519150808211156200081f57600080fd5b506200082e8482850162000640565b6080830152506200084260a08301620006e5565b60a08201526200085560c08301620006e5565b60c08201526200086860e08301620006e5565b60e08201526101006200087d818401620006e5565b9082015261012062000891838201620006e5565b9082015292915050565b600080600080600080600061010080898b031215620008b957600080fd5b885160208a01519098506001600160401b0380821115620008d957600080fd5b818b01915082828d031215620008ee57600080fd5b620008f8620005d2565b925062000905826200062b565b83526020820151818111156200091a57600080fd5b620009288d82850162000640565b6020850152506040820151818111156200094157600080fd5b6200094f8d82850162000640565b6040850152506200096360608301620006cd565b60608401526200097660808301620006e5565b608084015260a0820151818111156200098e57600080fd5b6200099c8d82850162000640565b60a085015250620009b060c083016200062b565b60c084015260e082015160e0840152829850620009d18c60408d01620006f7565b975060808b0151925080831115620009e857600080fd5b5050620009f88a828b0162000749565b94505062000a0960a08901620006cd565b925062000a1960c08901620006cd565b915062000a2960e08901620006cd565b905092959891949750929550565b600181811c9082168062000a4c57607f821691505b60208210810362000a6d57634e487b7160e01b600052602260045260246000fd5b50919050565b601f82111562000ac157600081815260208120601f850160051c8101602086101562000a9c5750805b601f850160051c820191505b8181101562000abd5782815560010162000aa8565b5050505b505050565b81516001600160401b0381111562000ae25762000ae262000590565b62000afa8162000af3845462000a37565b8462000a73565b602080601f83116001811462000b32576000841562000b195750858301515b600019600386901b1c1916600185901b17855562000abd565b600085815260208120601f198616915b8281101562000b635788860151825594840194600190910190840162000b42565b508582101562000b825787850151600019600388901b60f8161c191681555b5050505050600190811b01905550565b808202811582820484141762000bb857634e487b7160e01b600052601160045260246000fd5b92915050565b634e487b7160e01b600052602160045260246000fd5b60805160a051613fbc62000c16600039600081816106b20152611058015260008181610a69015281816110fb0152818161206a01526121040152613fbc6000f3fe6080604052600436106101405760003560e01c80636352211e116100b6578063a3a439311161006f578063a3a43931146103a9578063aad012e7146103f2578063b09afec114610412578063b88d4fde1461043f578063c87b56dd1461045f578063e985e9c51461047f57600080fd5b80636352211e146102ff57806366e0ebef1461031f57806367c897fe1461033257806370a082311461035457806395d89b4114610374578063a22cb4651461038957600080fd5b80631df025c6116101085780631df025c61461021557806323b872dd146102525780632f745c591461027257806342842e0e146102925780634f6ccce7146102b2578063519dc8d2146102d257600080fd5b806301ffc9a71461014557806306fdde031461017a578063081812fc1461019c578063095ea7b3146101d457806318160ddd146101f6575b600080fd5b34801561015157600080fd5b5061016561016036600461349a565b6104c8565b60405190151581526020015b60405180910390f35b34801561018657600080fd5b5061018f6104d9565b6040516101719190613507565b3480156101a857600080fd5b506101bc6101b736600461351a565b61056b565b6040516001600160a01b039091168152602001610171565b3480156101e057600080fd5b506101f46101ef366004613548565b610592565b005b34801561020257600080fd5b506008545b604051908152602001610171565b34801561022157600080fd5b50610235610230366004613574565b6106ac565b6040805193845260ff909216602084015290820152606001610171565b34801561025e57600080fd5b506101f461026d3660046135a0565b6108cf565b34801561027e57600080fd5b5061020761028d366004613548565b610900565b34801561029e57600080fd5b506101f46102ad3660046135a0565b610996565b3480156102be57600080fd5b506102076102cd36600461351a565b6109b1565b3480156102de57600080fd5b506102f26102ed3660046135e1565b610a44565b604051610171919061372b565b34801561030b57600080fd5b506101bc61031a36600461351a565b610d40565b6101f461032d36600461351a565b610da0565b34801561033e57600080fd5b50610347611325565b604051610171919061393b565b34801561036057600080fd5b5061020761036f3660046135e1565b611946565b34801561038057600080fd5b5061018f6119cc565b34801561039557600080fd5b506101f46103a43660046139fe565b6119db565b3480156103b557600080fd5b506103c96103c436600461351a565b6119ea565b6040516101719493929190938452602084019290925260ff166040830152606082015260800190565b3480156103fe57600080fd5b506101f461040d366004613a37565b611ba6565b34801561041e57600080fd5b5061043261042d36600461351a565b6124a8565b6040516101719190613a7d565b34801561044b57600080fd5b506101f461045a366004613aa6565b612637565b34801561046b57600080fd5b5061018f61047a36600461351a565b61266f565b34801561048b57600080fd5b5061016561049a366004613b86565b6001600160a01b03918216600090815260056020908152604080832093909416825291909152205460ff1690565b60006104d3826126e3565b92915050565b6060600080546104e890613bb4565b80601f016020809104026020016040519081016040528092919081815260200182805461051490613bb4565b80156105615780601f1061053657610100808354040283529160200191610561565b820191906000526020600020905b81548152906001019060200180831161054457829003601f168201915b5050505050905090565b600061057682612708565b506000908152600460205260409020546001600160a01b031690565b600061059d82610d40565b9050806001600160a01b0316836001600160a01b03160361060f5760405162461bcd60e51b815260206004820152602160248201527f4552433732313a20617070726f76616c20746f2063757272656e74206f776e656044820152603960f91b60648201526084015b60405180910390fd5b336001600160a01b038216148061062b575061062b813361049a565b61069d5760405162461bcd60e51b815260206004820152603d60248201527f4552433732313a20617070726f76652063616c6c6572206973206e6f7420746f60448201527f6b656e206f776e6572206f7220617070726f76656420666f7220616c6c0000006064820152608401610606565b6106a7838361276a565b505050565b600080807f0000000000000000000000000000000000000000000000000000000000000000816106dc8787613c04565b905060006106ea8842613c04565b90506000826106fa836064613c17565b6107049190613c2e565b9050603281101561078a5760405163cfb6e81f60e01b8152600097508796506001600160a01b0385169063cfb6e81f90610742908990600401613c50565b602060405180830381865afa15801561075f573d6000803e3d6000fd5b505050506040513d601f19601f820116820180604052508101906107839190613c6a565b94506108c2565b6032811015801561079b5750605081105b156107ea57601e955060646107b0878c613c17565b6107ba9190613c2e565b60405163cfb6e81f60e01b81529097506001600160a01b0385169063cfb6e81f9061074290600190600401613c50565b605081101580156107fb5750606481105b1561084a576032955060646108108b88613c17565b61081a9190613c2e565b60405163cfb6e81f60e01b81529097506001600160a01b0385169063cfb6e81f9061074290600290600401613c50565b60405163cfb6e81f60e01b81528a9750606496506001600160a01b0385169063cfb6e81f9061087e90600390600401613c50565b602060405180830381865afa15801561089b573d6000803e3d6000fd5b505050506040513d601f19601f820116820180604052508101906108bf9190613c6a565b94505b5050505093509350939050565b6108d933826127d8565b6108f55760405162461bcd60e51b815260040161060690613c83565b6106a7838383612857565b600061090b83611946565b821061096d5760405162461bcd60e51b815260206004820152602b60248201527f455243373231456e756d657261626c653a206f776e657220696e646578206f7560448201526a74206f6620626f756e647360a81b6064820152608401610606565b506001600160a01b03919091166000908152600660209081526040808320938352929052205490565b6106a783838360405180602001604052806000815250612637565b60006109bc60085490565b8210610a1f5760405162461bcd60e51b815260206004820152602c60248201527f455243373231456e756d657261626c653a20676c6f62616c20696e646578206f60448201526b7574206f6620626f756e647360a01b6064820152608401610606565b60088281548110610a3257610a32613cd0565b90600052602060002001549050919050565b604051631604f1c960e11b81526001600160a01b0382811660048301526060916000917f00000000000000000000000000000000000000000000000000000000000000001690632c09e39290602401602060405180830381865afa158015610ab0573d6000803e3d6000fd5b505050506040513d601f19601f82011682018060405250810190610ad49190613ce6565b90506001600160a01b038116610afd576040516348652e5b60e01b815260040160405180910390fd5b6000610b0882611946565b905060008167ffffffffffffffff811115610b2557610b25613a90565b604051908082528060200260200182016040528015610b5e57816020015b610b4b6132c4565b815260200190600190039081610b435790505b50905060005b82811015610d37576000610b788583610900565b600081815260216020908152604080832081516101e08101835281546001600160a01b039081168252600183015494820194909452600282015492810192909252600381015483166060830152600481015483166080830152600581015490921660a0820152600682015460c08201526007820180549495509293909260e0840191610c0390613bb4565b80601f0160208091040260200160405190810160405280929190818152602001828054610c2f90613bb4565b8015610c7c5780601f10610c5157610100808354040283529160200191610c7c565b820191906000526020600020905b815481529060010190602001808311610c5f57829003601f168201915b5050509183525050600882015460209091019060ff166004811115610ca357610ca36135fe565b6004811115610cb457610cb46135fe565b815260098201546020820152600a8201546040820152600b8201546060820152600c82015460ff90811615156080830152600d83015460a0830152600e9092015490911660c09091015284519091508190859085908110610d1757610d17613cd0565b602002602001018190525050508080610d2f90613d03565b915050610b64565b50949350505050565b6000818152600260205260408120546001600160a01b0316806104d35760405162461bcd60e51b8152602060048201526018602482015277115490cdcc8c4e881a5b9d985b1a59081d1bdad95b88125160421b6044820152606401610606565b600081815260216020908152604080832081516101e08101835281546001600160a01b039081168252600183015494820194909452600282015492810192909252600381015483166060830152600481015483166080830152600581015490921660a0820152600682015460c082015260078201805491929160e084019190610e2890613bb4565b80601f0160208091040260200160405190810160405280929190818152602001828054610e5490613bb4565b8015610ea15780601f10610e7657610100808354040283529160200191610ea1565b820191906000526020600020905b815481529060010190602001808311610e8457829003601f168201915b5050509183525050600882015460209091019060ff166004811115610ec857610ec86135fe565b6004811115610ed957610ed96135fe565b815260098201546020820152600a8201546040820152600b8201546060820152600c82015460ff9081161515608080840191909152600d84015460a0840152600e909301541660c0909101528101519091506001600160a01b03163314610f5357604051633094e7cd60e21b815260040160405180910390fd5b6000806000610f728461016001518561012001518661014001516106ac565b92509250925080341015610f9957604051637751490b60e01b815260040160405180910390fd5b836101600151600003610fbf5760405163a01e56e960e01b815260040160405180910390fd5b83610180015115610fe357604051635c57e0e360e01b815260040160405180910390fd5b6000858152602160205260408120600c81018054600160ff1991821617909155600d8201869055600e909101805490911660ff851617905561016085015161102c908590613c04565b905080600a60020160008282546110439190613d1c565b90915550506040516000906001600160a01b037f0000000000000000000000000000000000000000000000000000000000000000169034908381818185875af1925050503d80600081146110b3576040519150601f19603f3d011682016040523d82523d6000602084013e6110b8565b606091505b50509050806110da576040516381d7410160e01b815260040160405180910390fd5b6110e3876129c8565b604051631604f1c960e11b81523360048201526000907f00000000000000000000000000000000000000000000000000000000000000006001600160a01b031690632c09e39290602401602060405180830381865afa15801561114a573d6000803e3d6000fd5b505050506040513d601f19601f8201168201806040525081019061116e9190613ce6565b6040516357fecd5d60e11b8152306004820152602481018a90529091506000906001600160a01b0383169063affd9aba906044016020604051808303816000875af11580156111c1573d6000803e3d6000fd5b505050506040513d601f19601f820116820180604052508101906111e59190613d2f565b905080611205576040516384f20e1760e01b815260040160405180910390fd5b6060880151608089015160405163a9059cbb60e01b81526001600160a01b039182166004820152602481018a905291169063a9059cbb906044016020604051808303816000875af115801561125e573d6000803e3d6000fd5b505050506040513d601f19601f820116820180604052508101906112829190613d2f565b9050806112a257604051637f9a668760e01b815260040160405180910390fd5b7f8958f0c58afef19b6642cac81ae35a14e955e85b5d55cdc65c7d502eb592fe0d8860200151338a604001518b610100015160048111156112e5576112e56135fe565b604080519485526001600160a01b0390931660208501529183015260ff1660608201526080810189905260a00160405180910390a1505050505050505050565b61132d61333f565b6040805161016081018252600a5460808201908152600b546001600160a01b0390811660a0840152600c5460c0840152600d5460e0840152600e5461010080850191909152600f5461012085015260105490911661014084015290825282519081019092526011805491926020840192909190829060ff1660028111156113b6576113b66135fe565b60028111156113c7576113c76135fe565b81526020016001820180546113db90613bb4565b80601f016020809104026020016040519081016040528092919081815260200182805461140790613bb4565b80156114545780601f1061142957610100808354040283529160200191611454565b820191906000526020600020905b81548152906001019060200180831161143757829003601f168201915b5050505050815260200160028201805461146d90613bb4565b80601f016020809104026020016040519081016040528092919081815260200182805461149990613bb4565b80156114e65780601f106114bb576101008083540402835291602001916114e6565b820191906000526020600020905b8154815290600101906020018083116114c957829003601f168201915b505050918352505060038201546001600160a01b0381166020830152600160a01b900460ff16604082015260048201805460609092019161152690613bb4565b80601f016020809104026020016040519081016040528092919081815260200182805461155290613bb4565b801561159f5780601f106115745761010080835404028352916020019161159f565b820191906000526020600020905b81548152906001019060200180831161158257829003601f168201915b5050509183525050600582015460209091019060ff1660028111156115c6576115c66135fe565b60028111156115d7576115d76135fe565b815260200160068201548152505081526020016018604051806040016040529081600082015481526020016001820154815250508152602001601a6040518061014001604052908160008201805461162e90613bb4565b80601f016020809104026020016040519081016040528092919081815260200182805461165a90613bb4565b80156116a75780601f1061167c576101008083540402835291602001916116a7565b820191906000526020600020905b81548152906001019060200180831161168a57829003601f168201915b505050505081526020016001820180546116c090613bb4565b80601f01602080910402602001604051908101604052809291908181526020018280546116ec90613bb4565b80156117395780601f1061170e57610100808354040283529160200191611739565b820191906000526020600020905b81548152906001019060200180831161171c57829003601f168201915b5050505050815260200160028201805461175290613bb4565b80601f016020809104026020016040519081016040528092919081815260200182805461177e90613bb4565b80156117cb5780601f106117a0576101008083540402835291602001916117cb565b820191906000526020600020905b8154815290600101906020018083116117ae57829003601f168201915b505050505081526020016003820180546117e490613bb4565b80601f016020809104026020016040519081016040528092919081815260200182805461181090613bb4565b801561185d5780601f106118325761010080835404028352916020019161185d565b820191906000526020600020905b81548152906001019060200180831161184057829003601f168201915b5050505050815260200160048201805461187690613bb4565b80601f01602080910402602001604051908101604052809291908181526020018280546118a290613bb4565b80156118ef5780601f106118c4576101008083540402835291602001916118ef565b820191906000526020600020905b8154815290600101906020018083116118d257829003601f168201915b50505091835250506005919091015460ff80821660208401526101008204811660408401526201000082048116606084015263010000008204811660808401526401000000009091041660a0909101529052919050565b60006001600160a01b0382166119b05760405162461bcd60e51b815260206004820152602960248201527f4552433732313a2061646472657373207a65726f206973206e6f7420612076616044820152683634b21037bbb732b960b91b6064820152608401610606565b506001600160a01b031660009081526003602052604090205490565b6060600180546104e890613bb4565b6119e6338383612a6b565b5050565b600081815260216020908152604080832081516101e08101835281546001600160a01b039081168252600183015494820194909452600282015492810192909252600381015483166060830152600481015483166080830152600581015490921660a0820152600682015460c0820152600782018054849384938493849391929160e084019190611a7a90613bb4565b80601f0160208091040260200160405190810160405280929190818152602001828054611aa690613bb4565b8015611af35780601f10611ac857610100808354040283529160200191611af3565b820191906000526020600020905b815481529060010190602001808311611ad657829003601f168201915b5050509183525050600882015460209091019060ff166004811115611b1a57611b1a6135fe565b6004811115611b2b57611b2b6135fe565b815260098201546020820152600a8201546040820152600b8201546060820152600c82015460ff90811615156080830152600d83015460a0830152600e9092015490911660c090910152610160810151610120820151610140830151919750919250611b989187916106ac565b969891975095945092505050565b6040805160e081018252600a548152600b546001600160a01b03908116602080840191909152600c5483850152600d546060840152600e546080840152600f5460a084015260105490911660c0830152825180840184526018548152601954918101919091528251610100810190935260118054929391926000929190829060ff166002811115611c3957611c396135fe565b6002811115611c4a57611c4a6135fe565b8152602001600182018054611c5e90613bb4565b80601f0160208091040260200160405190810160405280929190818152602001828054611c8a90613bb4565b8015611cd75780601f10611cac57610100808354040283529160200191611cd7565b820191906000526020600020905b815481529060010190602001808311611cba57829003601f168201915b50505050508152602001600282018054611cf090613bb4565b80601f0160208091040260200160405190810160405280929190818152602001828054611d1c90613bb4565b8015611d695780601f10611d3e57610100808354040283529160200191611d69565b820191906000526020600020905b815481529060010190602001808311611d4c57829003601f168201915b505050918352505060038201546001600160a01b0381166020830152600160a01b900460ff166040820152600482018054606090920191611da990613bb4565b80601f0160208091040260200160405190810160405280929190818152602001828054611dd590613bb4565b8015611e225780601f10611df757610100808354040283529160200191611e22565b820191906000526020600020905b815481529060010190602001808311611e0557829003601f168201915b5050509183525050600582015460209091019060ff166002811115611e4957611e496135fe565b6002811115611e5a57611e5a6135fe565b81526020016006820154815250509050600060206000866004811115611e8257611e826135fe565b6004811115611e9357611e936135fe565b81526020019081526020016000206040518060600160405290816000820154815260200160018201548152602001600282018054611ed090613bb4565b80601f0160208091040260200160405190810160405280929190818152602001828054611efc90613bb4565b8015611f495780601f10611f1e57610100808354040283529160200191611f49565b820191906000526020600020905b815481529060010190602001808311611f2c57829003601f168201915b50505050508152505090508260000151421015611f795760405163616f1a0d60e11b815260040160405180910390fd5b8060200151600003611f9e57604051633a5b920160e11b815260040160405180910390fd5b60006064826020015188611fb29190613c17565b611fbc9190613c2e565b90508085604001511015611fe35760405163adfe069160e01b815260040160405180910390fd5b80600a6002016000828254611ff89190613c04565b9091555050600d8054889190600090612012908490613d1c565b9091555050600e805490600061202783613d03565b91905055506000600a6005016000815461204090613d03565b9182905550604051631604f1c960e11b81526001600160a01b038b811660048301529192506000917f00000000000000000000000000000000000000000000000000000000000000001690632c09e39290602401602060405180830381865afa1580156120b1573d6000803e3d6000fd5b505050506040513d601f19601f820116820180604052508101906120d59190613ce6565b90506001600160a01b038116612174576040516331b77b8960e21b81526001600160a01b038b811660048301527f0000000000000000000000000000000000000000000000000000000000000000169063c6ddee24906024016020604051808303816000875af115801561214d573d6000803e3d6000fd5b505050506040513d601f19601f820116820180604052508101906121719190613ce6565b90505b604051806101e00160405280306001600160a01b03168152602001886000015181526020018a815260200186606001516001600160a01b031681526020018b6001600160a01b03168152602001826001600160a01b03168152602001838152602001856040015181526020018960048111156121f2576121f26135fe565b815260200142815260200185600001514261220d9190613d1c565b8152602080820186905260006040808401829052606080850183905260809485018390528783526021845291819020855181546001600160a01b03199081166001600160a01b0392831617835594870151600183015591860151600282015591850151600383018054851691831691909117905592840151600482018054841691851691909117905560a0840151600582018054909316931692909217905560c0820151600682015560e082015160078201906122ca9082613d9a565b5061010082015160088201805460ff191660018360048111156122ef576122ef6135fe565b02179055506101208201516009820155610140820151600a820155610160820151600b820155610180820151600c8201805491151560ff199283161790556101a0830151600d8301556101c090920151600e909101805460ff9092169190921617905560608501516040516323b872dd60e01b81523360048201526001600160a01b038381166024830152604482018c905260009216906323b872dd906064016020604051808303816000875af11580156123ae573d6000803e3d6000fd5b505050506040513d601f19601f820116820180604052508101906123d29190613d2f565b9050806123f2576040516382cc267f60e01b815260040160405180910390fd5b6040516bffffffffffffffffffffffff193060601b16602082015261242c9083908590603401604051602081830303815290604052612b39565b87517fbbd184b832a658705e19e15121bf8abb81df8e6c59469af906e22fdf841bbffa90848d8d8d6004811115612465576124656135fe565b6040805195865260208601949094526001600160a01b039290921684840152606084015260ff166080830152519081900360a00190a15050505050505050505050565b6124b06132c4565b60008281526021602090815260409182902082516101e08101845281546001600160a01b039081168252600183015493820193909352600282015493810193909352600381015482166060840152600481015482166080840152600581015490911660a0830152600681015460c083015260078101805460e08401919061253690613bb4565b80601f016020809104026020016040519081016040528092919081815260200182805461256290613bb4565b80156125af5780601f10612584576101008083540402835291602001916125af565b820191906000526020600020905b81548152906001019060200180831161259257829003601f168201915b5050509183525050600882015460209091019060ff1660048111156125d6576125d66135fe565b60048111156125e7576125e76135fe565b815260098201546020820152600a8201546040820152600b8201546060820152600c82015460ff90811615156080830152600d83015460a0830152600e9092015490911660c09091015292915050565b61264133836127d8565b61265d5760405162461bcd60e51b815260040161060690613c83565b61266984848484612b6c565b50505050565b606061267a82612708565b600061269160408051602081019091526000815290565b905060008151116126b157604051806020016040528060008152506126dc565b806126bb84612b9f565b6040516020016126cc929190613e5a565b6040516020818303038152906040525b9392505050565b60006001600160e01b0319821663780e9d6360e01b14806104d357506104d382612c32565b6000818152600260205260409020546001600160a01b03166127675760405162461bcd60e51b8152602060048201526018602482015277115490cdcc8c4e881a5b9d985b1a59081d1bdad95b88125160421b6044820152606401610606565b50565b600081815260046020526040902080546001600160a01b0319166001600160a01b038416908117909155819061279f82610d40565b6001600160a01b03167f8c5be1e5ebec7d5bd14f71427d1e84f3dd0314c0f7b2291e5b200ac8c7c3b92560405160405180910390a45050565b6000806127e483610d40565b9050806001600160a01b0316846001600160a01b0316148061282b57506001600160a01b0380821660009081526005602090815260408083209388168352929052205460ff165b8061284f5750836001600160a01b03166128448461056b565b6001600160a01b0316145b949350505050565b826001600160a01b031661286a82610d40565b6001600160a01b0316146128905760405162461bcd60e51b815260040161060690613e89565b6001600160a01b0382166128f25760405162461bcd60e51b8152602060048201526024808201527f4552433732313a207472616e7366657220746f20746865207a65726f206164646044820152637265737360e01b6064820152608401610606565b6128ff8383836001612c82565b826001600160a01b031661291282610d40565b6001600160a01b0316146129385760405162461bcd60e51b815260040161060690613e89565b600081815260046020908152604080832080546001600160a01b03199081169091556001600160a01b0387811680865260038552838620805460001901905590871680865283862080546001019055868652600290945282852080549092168417909155905184937fddf252ad1be2c89b69c2b068fc378daa952ba7f163c4a11628f55a4df523b3ef91a4505050565b60006129d382610d40565b90506129e3816000846001612c82565b6129ec82610d40565b600083815260046020908152604080832080546001600160a01b03199081169091556001600160a01b0385168085526003845282852080546000190190558785526002909352818420805490911690555192935084927fddf252ad1be2c89b69c2b068fc378daa952ba7f163c4a11628f55a4df523b3ef908390a45050565b816001600160a01b0316836001600160a01b031603612acc5760405162461bcd60e51b815260206004820152601960248201527f4552433732313a20617070726f766520746f2063616c6c6572000000000000006044820152606401610606565b6001600160a01b03838116600081815260056020908152604080832094871680845294825291829020805460ff191686151590811790915591519182527f17307eab39ab6107e8899845ad3d59bd9653f200f220920489ca2b5937696c31910160405180910390a3505050565b612b438383612c8e565b612b506000848484612e27565b6106a75760405162461bcd60e51b815260040161060690613ece565b612b77848484612857565b612b8384848484612e27565b6126695760405162461bcd60e51b815260040161060690613ece565b60606000612bac83612f28565b600101905060008167ffffffffffffffff811115612bcc57612bcc613a90565b6040519080825280601f01601f191660200182016040528015612bf6576020820181803683370190505b5090508181016020015b600019016f181899199a1a9b1b9c1cb0b131b232b360811b600a86061a8153600a8504945084612c0057509392505050565b60006001600160e01b031982166380ac58cd60e01b1480612c6357506001600160e01b03198216635b5e139f60e01b145b806104d357506301ffc9a760e01b6001600160e01b03198316146104d3565b61266984848484613000565b6001600160a01b038216612ce45760405162461bcd60e51b815260206004820181905260248201527f4552433732313a206d696e7420746f20746865207a65726f20616464726573736044820152606401610606565b6000818152600260205260409020546001600160a01b031615612d495760405162461bcd60e51b815260206004820152601c60248201527f4552433732313a20746f6b656e20616c7265616479206d696e746564000000006044820152606401610606565b612d57600083836001612c82565b6000818152600260205260409020546001600160a01b031615612dbc5760405162461bcd60e51b815260206004820152601c60248201527f4552433732313a20746f6b656e20616c7265616479206d696e746564000000006044820152606401610606565b6001600160a01b038216600081815260036020908152604080832080546001019055848352600290915280822080546001600160a01b0319168417905551839291907fddf252ad1be2c89b69c2b068fc378daa952ba7f163c4a11628f55a4df523b3ef908290a45050565b60006001600160a01b0384163b15612f1d57604051630a85bd0160e11b81526001600160a01b0385169063150b7a0290612e6b903390899088908890600401613f20565b6020604051808303816000875af1925050508015612ea6575060408051601f3d908101601f19168201909252612ea391810190613f53565b60015b612f03573d808015612ed4576040519150601f19603f3d011682016040523d82523d6000602084013e612ed9565b606091505b508051600003612efb5760405162461bcd60e51b815260040161060690613ece565b805181602001fd5b6001600160e01b031916630a85bd0160e11b14905061284f565b506001949350505050565b60008072184f03e93ff9f4daa797ed6e38ed64bf6a1f0160401b8310612f675772184f03e93ff9f4daa797ed6e38ed64bf6a1f0160401b830492506040015b6d04ee2d6d415b85acef81000000008310612f93576d04ee2d6d415b85acef8100000000830492506020015b662386f26fc100008310612fb157662386f26fc10000830492506010015b6305f5e1008310612fc9576305f5e100830492506008015b6127108310612fdd57612710830492506004015b60648310612fef576064830492506002015b600a83106104d35760010192915050565b600181111561306f5760405162461bcd60e51b815260206004820152603560248201527f455243373231456e756d657261626c653a20636f6e7365637574697665207472604482015274185b9cd9995c9cc81b9bdd081cdd5c1c1bdc9d1959605a1b6064820152608401610606565b816001600160a01b0385166130cb576130c681600880546000838152600960205260408120829055600182018355919091527ff3f7a9fe364faab93b216da50a3214154f22a0a2b415b23a84c8169e8b636ee30155565b6130ee565b836001600160a01b0316856001600160a01b0316146130ee576130ee8582613134565b6001600160a01b03841661310a57613105816131d1565b61312d565b846001600160a01b0316846001600160a01b03161461312d5761312d8482613280565b5050505050565b6000600161314184611946565b61314b9190613c04565b60008381526007602052604090205490915080821461319e576001600160a01b03841660009081526006602090815260408083208584528252808320548484528184208190558352600790915290208190555b5060009182526007602090815260408084208490556001600160a01b039094168352600681528383209183525290812055565b6008546000906131e390600190613c04565b6000838152600960205260408120546008805493945090928490811061320b5761320b613cd0565b90600052602060002001549050806008838154811061322c5761322c613cd0565b600091825260208083209091019290925582815260099091526040808220849055858252812055600880548061326457613264613f70565b6001900381819060005260206000200160009055905550505050565b600061328b83611946565b6001600160a01b039093166000908152600660209081526040808320868452825280832085905593825260079052919091209190915550565b604080516101e08101825260008082526020820181905291810182905260608082018390526080820183905260a0820183905260c0820183905260e082015290610100820190815260200160008152602001600081526020016000815260200160001515815260200160008152602001600060ff1681525090565b604051806080016040528061339c6040518060e001604052806000815260200160006001600160a01b031681526020016000815260200160008152602001600081526020016000815260200160006001600160a01b031681525090565b81526020016133a9613421565b81526020016133cb604051806040016040528060008152602001600081525090565b81526040805161014081018252606080825260208281018290529282018190528082018190526080820152600060a0820181905260c0820181905260e08201819052610100820181905261012082015291015290565b6040805161010081019091528060008152602001606081526020016060815260200160006001600160a01b03168152602001600060ff1681526020016060815260200160006002811115613477576134776135fe565b8152602001600081525090565b6001600160e01b03198116811461276757600080fd5b6000602082840312156134ac57600080fd5b81356126dc81613484565b60005b838110156134d25781810151838201526020016134ba565b50506000910152565b600081518084526134f38160208601602086016134b7565b601f01601f19169290920160200192915050565b6020815260006126dc60208301846134db565b60006020828403121561352c57600080fd5b5035919050565b6001600160a01b038116811461276757600080fd5b6000806040838503121561355b57600080fd5b823561356681613533565b946020939093013593505050565b60008060006060848603121561358957600080fd5b505081359360208301359350604090920135919050565b6000806000606084860312156135b557600080fd5b83356135c081613533565b925060208401356135d081613533565b929592945050506040919091013590565b6000602082840312156135f357600080fd5b81356126dc81613533565b634e487b7160e01b600052602160045260246000fd5b60058110613624576136246135fe565b9052565b80516001600160a01b0316825260006101e06020830151602085015260408301516040850152606083015161366860608601826001600160a01b03169052565b50608083015161368360808601826001600160a01b03169052565b5060a083015161369e60a08601826001600160a01b03169052565b5060c083015160c085015260e08301518160e08601526136c0828601826134db565b915050610100808401516136d682870182613614565b5050610120838101519085015261014080840151908501526101608084015190850152610180808401511515908501526101a080840151908501526101c08084015160ff8116828701525b5090949350505050565b6000602080830181845280855180835260408601915060408160051b870101925083870160005b8281101561378057603f1988860301845261376e858351613628565b94509285019290850190600101613752565b5092979650505050505050565b60038110612767576127676135fe565b6136248161378d565b600061010082516137b68161378d565b8085525060208301518160208601526137d1828601826134db565b915050604083015184820360408601526137eb82826134db565b91505060018060a01b0360608401511660608501526080830151613814608086018260ff169052565b5060a083015184820360a086015261382c82826134db565b91505060c083015161384160c086018261379d565b5060e083015160e08501528091505092915050565b6000610140825181855261386c828601826134db565b9150506020830151848203602086015261388682826134db565b915050604083015184820360408601526138a082826134db565b915050606083015184820360608601526138ba82826134db565b915050608083015184820360808601526138d482826134db565b91505060a08301516138eb60a086018260ff169052565b5060c083015161390060c086018260ff169052565b5060e083015161391560e086018260ff169052565b506101008381015160ff81168683015250506101208381015160ff811686830152613721565b602081526000825180516020840152602081015160018060a01b0380821660408601526040830151606086015260608301516080860152608083015160a086015260a083015160c08601528060c08401511660e08601525050506020830151610160806101008501526139b26101808501836137a6565b60408601518051610120870152602001516101408601526060860151858203601f1901838701529092506139e68382613856565b9695505050505050565b801515811461276757600080fd5b60008060408385031215613a1157600080fd5b8235613a1c81613533565b91506020830135613a2c816139f0565b809150509250929050565b600080600060608486031215613a4c57600080fd5b8335613a5781613533565b925060208401359150604084013560058110613a7257600080fd5b809150509250925092565b6020815260006126dc6020830184613628565b634e487b7160e01b600052604160045260246000fd5b60008060008060808587031215613abc57600080fd5b8435613ac781613533565b93506020850135613ad781613533565b925060408501359150606085013567ffffffffffffffff80821115613afb57600080fd5b818701915087601f830112613b0f57600080fd5b813581811115613b2157613b21613a90565b604051601f8201601f19908116603f01168101908382118183101715613b4957613b49613a90565b816040528281528a6020848701011115613b6257600080fd5b82602086016020830137600060208483010152809550505050505092959194509250565b60008060408385031215613b9957600080fd5b8235613ba481613533565b91506020830135613a2c81613533565b600181811c90821680613bc857607f821691505b602082108103613be857634e487b7160e01b600052602260045260246000fd5b50919050565b634e487b7160e01b600052601160045260246000fd5b818103818111156104d3576104d3613bee565b80820281158282048414176104d3576104d3613bee565b600082613c4b57634e487b7160e01b600052601260045260246000fd5b500490565b6020810160048310613c6457613c646135fe565b91905290565b600060208284031215613c7c57600080fd5b5051919050565b6020808252602d908201527f4552433732313a2063616c6c6572206973206e6f7420746f6b656e206f776e6560408201526c1c881bdc88185c1c1c9bdd9959609a1b606082015260800190565b634e487b7160e01b600052603260045260246000fd5b600060208284031215613cf857600080fd5b81516126dc81613533565b600060018201613d1557613d15613bee565b5060010190565b808201808211156104d3576104d3613bee565b600060208284031215613d4157600080fd5b81516126dc816139f0565b601f8211156106a757600081815260208120601f850160051c81016020861015613d735750805b601f850160051c820191505b81811015613d9257828155600101613d7f565b505050505050565b815167ffffffffffffffff811115613db457613db4613a90565b613dc881613dc28454613bb4565b84613d4c565b602080601f831160018114613dfd5760008415613de55750858301515b600019600386901b1c1916600185901b178555613d92565b600085815260208120601f198616915b82811015613e2c57888601518255948401946001909101908401613e0d565b5085821015613e4a5787850151600019600388901b60f8161c191681555b5050505050600190811b01905550565b60008351613e6c8184602088016134b7565b835190830190613e808183602088016134b7565b01949350505050565b60208082526025908201527f4552433732313a207472616e736665722066726f6d20696e636f72726563742060408201526437bbb732b960d91b606082015260800190565b60208082526032908201527f4552433732313a207472616e7366657220746f206e6f6e20455243373231526560408201527131b2b4bb32b91034b6b83632b6b2b73a32b960711b606082015260800190565b6001600160a01b03858116825284166020820152604081018390526080606082018190526000906139e6908301846134db565b600060208284031215613f6557600080fd5b81516126dc81613484565b634e487b7160e01b600052603160045260246000fdfea2646970667358221220a73b332f1cc0f3a1de78b4b1c5e0e022db77b3b05354fec744f73c8c882ba19364736f6c63430008120033a264697066735822122090d1f09731ea95ffbe51334243fb0de62ce6ad0c8b3a1023feb1a0d59046bcb964736f6c63430008120033",
  "devdoc": {
    "kind": "dev",
    "methods": {
      "owner()": {
        "details": "Returns the address of the current owner."
      },
      "renounceOwnership()": {
        "details": "Leaves the contract without owner. It will not be possible to call `onlyOwner` functions anymore. Can only be called by the current owner. NOTE: Renouncing ownership will leave the contract without an owner, thereby removing any functionality that is only available to the owner."
      },
      "transferOwnership(address)": {
        "details": "Transfers ownership of the contract to a new account (`newOwner`). Can only be called by the current owner."
      }
    },
    "version": 1
  },
  "userdoc": {
    "kind": "user",
    "methods": {},
    "version": 1
  },
  "storageLayout": {
    "storage": [
      {
        "astId": 7,
        "contract": "contracts/RewardCampaign/RewardCampaignFactory.sol:RewardCampaignFactory",
        "label": "_owner",
        "offset": 0,
        "slot": "0",
        "type": "t_address"
      },
      {
        "astId": 5138,
        "contract": "contracts/RewardCampaign/RewardCampaignFactory.sol:RewardCampaignFactory",
        "label": "s_projectsCount",
        "offset": 0,
        "slot": "1",
        "type": "t_struct(Counter)2021_storage"
      },
      {
        "astId": 5141,
        "contract": "contracts/RewardCampaign/RewardCampaignFactory.sol:RewardCampaignFactory",
        "label": "s_isPaused",
        "offset": 0,
        "slot": "2",
        "type": "t_bool"
      },
      {
        "astId": 5143,
        "contract": "contracts/RewardCampaign/RewardCampaignFactory.sol:RewardCampaignFactory",
        "label": "s_campaignFeeManager",
        "offset": 1,
        "slot": "2",
        "type": "t_address"
      },
      {
        "astId": 5145,
        "contract": "contracts/RewardCampaign/RewardCampaignFactory.sol:RewardCampaignFactory",
        "label": "s_pmMembershipManager",
        "offset": 0,
        "slot": "3",
        "type": "t_address"
      },
      {
        "astId": 5147,
        "contract": "contracts/RewardCampaign/RewardCampaignFactory.sol:RewardCampaignFactory",
        "label": "s_pmTeamManager",
        "offset": 0,
        "slot": "4",
        "type": "t_address"
      },
      {
        "astId": 5149,
        "contract": "contracts/RewardCampaign/RewardCampaignFactory.sol:RewardCampaignFactory",
        "label": "s_creatorManager",
        "offset": 0,
        "slot": "5",
        "type": "t_address"
      },
      {
        "astId": 5154,
        "contract": "contracts/RewardCampaign/RewardCampaignFactory.sol:RewardCampaignFactory",
        "label": "s_poolsOfAUser",
        "offset": 0,
        "slot": "6",
        "type": "t_mapping(t_address,t_array(t_uint256)dyn_storage)"
      },
      {
        "astId": 5159,
        "contract": "contracts/RewardCampaign/RewardCampaignFactory.sol:RewardCampaignFactory",
        "label": "s_poolsOfATeam",
        "offset": 0,
        "slot": "7",
        "type": "t_mapping(t_uint256,t_array(t_uint256)dyn_storage)"
      },
      {
        "astId": 5164,
        "contract": "contracts/RewardCampaign/RewardCampaignFactory.sol:RewardCampaignFactory",
        "label": "s_poolsByToken",
        "offset": 0,
        "slot": "8",
        "type": "t_mapping(t_address,t_array(t_address)dyn_storage)"
      },
      {
        "astId": 5168,
        "contract": "contracts/RewardCampaign/RewardCampaignFactory.sol:RewardCampaignFactory",
        "label": "s_poolByID",
        "offset": 0,
        "slot": "9",
        "type": "t_mapping(t_uint256,t_address)"
      }
    ],
    "types": {
      "t_address": {
        "encoding": "inplace",
        "label": "address",
        "numberOfBytes": "20"
      },
      "t_array(t_address)dyn_storage": {
        "base": "t_address",
        "encoding": "dynamic_array",
        "label": "address[]",
        "numberOfBytes": "32"
      },
      "t_array(t_uint256)dyn_storage": {
        "base": "t_uint256",
        "encoding": "dynamic_array",
        "label": "uint256[]",
        "numberOfBytes": "32"
      },
      "t_bool": {
        "encoding": "inplace",
        "label": "bool",
        "numberOfBytes": "1"
      },
      "t_mapping(t_address,t_array(t_address)dyn_storage)": {
        "encoding": "mapping",
        "key": "t_address",
        "label": "mapping(address => address[])",
        "numberOfBytes": "32",
        "value": "t_array(t_address)dyn_storage"
      },
      "t_mapping(t_address,t_array(t_uint256)dyn_storage)": {
        "encoding": "mapping",
        "key": "t_address",
        "label": "mapping(address => uint256[])",
        "numberOfBytes": "32",
        "value": "t_array(t_uint256)dyn_storage"
      },
      "t_mapping(t_uint256,t_address)": {
        "encoding": "mapping",
        "key": "t_uint256",
        "label": "mapping(uint256 => address)",
        "numberOfBytes": "32",
        "value": "t_address"
      },
      "t_mapping(t_uint256,t_array(t_uint256)dyn_storage)": {
        "encoding": "mapping",
        "key": "t_uint256",
        "label": "mapping(uint256 => uint256[])",
        "numberOfBytes": "32",
        "value": "t_array(t_uint256)dyn_storage"
      },
      "t_struct(Counter)2021_storage": {
        "encoding": "inplace",
        "label": "struct Counters.Counter",
        "members": [
          {
            "astId": 2020,
            "contract": "contracts/RewardCampaign/RewardCampaignFactory.sol:RewardCampaignFactory",
            "label": "_value",
            "offset": 0,
            "slot": "0",
            "type": "t_uint256"
          }
        ],
        "numberOfBytes": "32"
      },
      "t_uint256": {
        "encoding": "inplace",
        "label": "uint256",
        "numberOfBytes": "32"
      }
    }
  }
}