{
  "address": "0x5Ed3D00C46E5C16d0489F9ac22c764Dd306EdE1a",
  "abi": [
    {
      "inputs": [
        {
          "internalType": "address",
          "name": "_campaignFeeManager",
          "type": "address"
        },
        {
          "internalType": "address",
          "name": "_pmMembership",
          "type": "address"
        },
        {
          "internalType": "address",
          "name": "_pmTeamManager",
          "type": "address"
        },
        {
          "internalType": "address",
          "name": "_creatorManager",
          "type": "address"
        }
      ],
      "stateMutability": "nonpayable",
      "type": "constructor"
    },
    {
      "inputs": [],
      "name": "CONTRACT_IS_PAUSED",
      "type": "error"
    },
    {
      "inputs": [],
      "name": "FAILED_TO_TRANSFER_BNBS",
      "type": "error"
    },
    {
      "inputs": [],
      "name": "FAILED_TO_TRANSFER_TOKENS",
      "type": "error"
    },
    {
      "inputs": [],
      "name": "INSUFFICIENT_FUNDS",
      "type": "error"
    },
    {
      "inputs": [],
      "name": "NOT_OWNER_OF_TEAM",
      "type": "error"
    },
    {
      "inputs": [],
      "name": "NOT_PREMIUM_OR_TEAM",
      "type": "error"
    },
    {
      "inputs": [],
      "name": "START_TIME_SHOULD_BE_FUTURE",
      "type": "error"
    },
    {
      "anonymous": false,
      "inputs": [
        {
          "indexed": true,
          "internalType": "address",
          "name": "previousOwner",
          "type": "address"
        },
        {
          "indexed": true,
          "internalType": "address",
          "name": "newOwner",
          "type": "address"
        }
      ],
      "name": "OwnershipTransferred",
      "type": "event"
    },
    {
      "anonymous": false,
      "inputs": [
        {
          "indexed": false,
          "internalType": "uint256",
          "name": "poolId",
          "type": "uint256"
        },
        {
          "indexed": false,
          "internalType": "address",
          "name": "poolAddress",
          "type": "address"
        },
        {
          "indexed": false,
          "internalType": "address",
          "name": "tokenAddress",
          "type": "address"
        }
      ],
      "name": "Poolcreated",
      "type": "event"
    },
    {
      "inputs": [],
      "name": "campaignFeeManager",
      "outputs": [
        {
          "internalType": "address payable",
          "name": "",
          "type": "address"
        }
      ],
      "stateMutability": "view",
      "type": "function"
    },
    {
      "inputs": [
        {
          "internalType": "bool",
          "name": "action",
          "type": "bool"
        }
      ],
      "name": "changePauseStatus",
      "outputs": [],
      "stateMutability": "nonpayable",
      "type": "function"
    },
    {
      "inputs": [
        {
          "components": [
            {
              "internalType": "enum StakingLibrary.CampaignCategories",
              "name": "category",
              "type": "uint8"
            },
            {
              "internalType": "string",
              "name": "projectName",
              "type": "string"
            },
            {
              "internalType": "string",
              "name": "projectSymbol",
              "type": "string"
            },
            {
              "internalType": "address",
              "name": "tokenAddress",
              "type": "address"
            },
            {
              "internalType": "uint8",
              "name": "tokenDecimals",
              "type": "uint8"
            },
            {
              "internalType": "string",
              "name": "tokenSymbol",
              "type": "string"
            },
            {
              "internalType": "enum StakingLibrary.ProfileType",
              "name": "profileType",
              "type": "uint8"
            },
            {
              "internalType": "uint256",
              "name": "profileId",
              "type": "uint256"
            }
          ],
          "internalType": "struct StakingLibrary.ProjectInfo",
          "name": "projectInfo",
          "type": "tuple"
        },
        {
          "components": [
            {
              "internalType": "uint256",
              "name": "startedAt",
              "type": "uint256"
            },
            {
              "internalType": "uint256",
              "name": "poolAmount",
              "type": "uint256"
            }
          ],
          "internalType": "struct StakingLibrary.RewardPoolInfo",
          "name": "rewardPoolInfo",
          "type": "tuple"
        },
        {
          "components": [
            {
              "internalType": "string",
              "name": "image_3_months",
              "type": "string"
            },
            {
              "internalType": "string",
              "name": "image_6_months",
              "type": "string"
            },
            {
              "internalType": "string",
              "name": "image_12_months",
              "type": "string"
            }
          ],
          "internalType": "struct StakingLibrary.Images",
          "name": "images",
          "type": "tuple"
        }
      ],
      "name": "createAStakingPool",
      "outputs": [],
      "stateMutability": "payable",
      "type": "function"
    },
    {
      "inputs": [],
      "name": "creatorManager",
      "outputs": [
        {
          "internalType": "address",
          "name": "",
          "type": "address"
        }
      ],
      "stateMutability": "view",
      "type": "function"
    },
    {
      "inputs": [
        {
          "internalType": "uint256",
          "name": "id",
          "type": "uint256"
        }
      ],
      "name": "getPoolByID",
      "outputs": [
        {
          "internalType": "address",
          "name": "",
          "type": "address"
        }
      ],
      "stateMutability": "view",
      "type": "function"
    },
    {
      "inputs": [
        {
          "internalType": "uint256",
          "name": "teamId",
          "type": "uint256"
        }
      ],
      "name": "getPoolIdsOfATeam",
      "outputs": [
        {
          "internalType": "uint256[]",
          "name": "",
          "type": "uint256[]"
        }
      ],
      "stateMutability": "view",
      "type": "function"
    },
    {
      "inputs": [
        {
          "internalType": "address",
          "name": "user",
          "type": "address"
        }
      ],
      "name": "getPoolIdsOfAUser",
      "outputs": [
        {
          "internalType": "uint256[]",
          "name": "",
          "type": "uint256[]"
        }
      ],
      "stateMutability": "view",
      "type": "function"
    },
    {
      "inputs": [
        {
          "internalType": "address",
          "name": "token",
          "type": "address"
        }
      ],
      "name": "getPoolsByToken",
      "outputs": [
        {
          "internalType": "address[]",
          "name": "",
          "type": "address[]"
        }
      ],
      "stateMutability": "view",
      "type": "function"
    },
    {
      "inputs": [],
      "name": "owner",
      "outputs": [
        {
          "internalType": "address",
          "name": "",
          "type": "address"
        }
      ],
      "stateMutability": "view",
      "type": "function"
    },
    {
      "inputs": [],
      "name": "pause",
      "outputs": [
        {
          "internalType": "bool",
          "name": "",
          "type": "bool"
        }
      ],
      "stateMutability": "view",
      "type": "function"
    },
    {
      "inputs": [],
      "name": "pmMembership",
      "outputs": [
        {
          "internalType": "address",
          "name": "",
          "type": "address"
        }
      ],
      "stateMutability": "view",
      "type": "function"
    },
    {
      "inputs": [],
      "name": "pmTeamManager",
      "outputs": [
        {
          "internalType": "address",
          "name": "",
          "type": "address"
        }
      ],
      "stateMutability": "view",
      "type": "function"
    },
    {
      "inputs": [],
      "name": "projectsCount",
      "outputs": [
        {
          "internalType": "uint256",
          "name": "",
          "type": "uint256"
        }
      ],
      "stateMutability": "view",
      "type": "function"
    },
    {
      "inputs": [],
      "name": "renounceOwnership",
      "outputs": [],
      "stateMutability": "nonpayable",
      "type": "function"
    },
    {
      "inputs": [
        {
          "internalType": "address",
          "name": "newOwner",
          "type": "address"
        }
      ],
      "name": "transferOwnership",
      "outputs": [],
      "stateMutability": "nonpayable",
      "type": "function"
    },
    {
      "inputs": [
        {
          "internalType": "address",
          "name": "_campaignFeeManager",
          "type": "address"
        }
      ],
      "name": "updateCampaignFeeManager",
      "outputs": [],
      "stateMutability": "nonpayable",
      "type": "function"
    }
  ],
  "transactionHash": "0x055899371f89082415bdd625be7282bd645bc95eb2f69329d00feaa9011db166",
  "args": [
    "0x7a8321fA84D5D79A2A664fB56D4D5ded8cD94513",
    "0xEDE4C6b18A3669b805dC4Be61316DfFB2eECE567",
    "0xB163DbCaeF9f494f17BbEf46BACcF076e2FcFDcB",
    "0x64c958d931fDc54F634c9b081f08fDA5954d3b3A"
  ],
  "numDeployments": 1,
  "solcInputHash": "e61dfc8c28feed11111b89b9ad43a47f",
  "bytecode": "0x60806040526006805460ff191690553480156200001b57600080fd5b50604051620060a7380380620060a78339810160408190526200003e916200010a565b62000049336200009d565b600180546001600160a01b039586166001600160a01b031991821617909155600280549486169482169490941790935560038054928516928416929092179091556004805491909316911617905562000167565b600080546001600160a01b038381166001600160a01b0319831681178455604051919092169283917f8be0079c531659141344cd1fd0a4f28419497f9722a3daafe3b4186f6b6457e09190a35050565b80516001600160a01b03811681146200010557600080fd5b919050565b600080600080608085870312156200012157600080fd5b6200012c85620000ed565b93506200013c60208601620000ed565b92506200014c60408601620000ed565b91506200015c60608601620000ed565b905092959194509250565b615f3080620001776000396000f3fe608060405260043610620001075760003560e01c80638da5cb5b1162000095578063a0ac50b91162000060578063a0ac50b914620002fc578063c73b302e146200031e578063d4f47e931462000345578063f2fde38b146200036757600080fd5b80638da5cb5b146200027e5780638dc6c5f6146200029e578063942cc30714620002c35780639aa3363614620002e557600080fd5b80637a0e6ad311620000d65780637a0e6ad314620001c75780637f71303714620001fb5780638456cb59146200021d57806386959b4b146200024a57600080fd5b80633424b8ce146200010c57806340362db414620001335780635055149c1462000158578063715018a614620001af575b600080fd5b3480156200011957600080fd5b50620001316200012b36600462000c4e565b6200038c565b005b3480156200014057600080fd5b50620001316200015236600462000c9d565b620003a9565b3480156200016557600080fd5b50620001926200017736600462000cbd565b6000908152600a60205260409020546001600160a01b031690565b6040516001600160a01b0390911681526020015b60405180910390f35b348015620001bc57600080fd5b5062000131620003d5565b348015620001d457600080fd5b50620001ec620001e636600462000c9d565b620003ed565b604051620001a6919062000cd7565b3480156200020857600080fd5b5060035462000192906001600160a01b031681565b3480156200022a57600080fd5b50600654620002399060ff1681565b6040519015158152602001620001a6565b3480156200025757600080fd5b506200026f6200026936600462000c9d565b6200045b565b604051620001a6919062000d1d565b3480156200028b57600080fd5b506000546001600160a01b031662000192565b348015620002ab57600080fd5b50620001ec620002bd36600462000cbd565b620004d2565b348015620002d057600080fd5b5060015462000192906001600160a01b031681565b62000131620002f636600462000f69565b62000534565b3480156200030957600080fd5b5060025462000192906001600160a01b031681565b3480156200032b57600080fd5b506200033660055481565b604051908152602001620001a6565b3480156200035257600080fd5b5060045462000192906001600160a01b031681565b3480156200037457600080fd5b50620001316200038636600462000c9d565b62000b02565b6200039662000b85565b6006805460ff1916911515919091179055565b620003b362000b85565b600180546001600160a01b0319166001600160a01b0392909216919091179055565b620003df62000b85565b620003eb600062000be1565b565b6001600160a01b0381166000908152600760209081526040918290208054835181840281018401909452808452606093928301828280156200044f57602002820191906000526020600020905b8154815260200190600101908083116200043a575b50505050509050919050565b6001600160a01b0381166000908152600960209081526040918290208054835181840281018401909452808452606093928301828280156200044f57602002820191906000526020600020905b81546001600160a01b03168152600190910190602001808311620004a85750505050509050919050565b6000818152600860209081526040918290208054835181840281018401909452808452606093928301828280156200044f57602002820191906000526020600020908154815260200190600101908083116200043a5750505050509050919050565b60065460ff1615620005595760405163364759ad60e11b815260040160405180910390fd5b6003546040516370a0823160e01b815233600482015260009182916001600160a01b03909116906370a082319060240160206040518083038186803b158015620005a257600080fd5b505afa158015620005b7573d6000803e3d6000fd5b505050506040513d601f19601f82011682018060405250810190620005dd9190620010be565b6002546040516329c59e0360e01b81523360048201529290911192506000916001600160a01b03909116906329c59e039060240160606040518083038186803b1580156200062a57600080fd5b505afa1580156200063f573d6000803e3d6000fd5b505050506040513d601f19601f82011682018060405250810190620006659190620010d8565b6040015190508115801562000678575080155b15620006975760405163eb932d8b60e01b815260040160405180910390fd5b60018560c001516002811115620006b257620006b262001140565b14156200076e5760035460e08601516040516331a9108f60e11b815260048101919091526000916001600160a01b031690636352211e9060240160206040518083038186803b1580156200070557600080fd5b505afa1580156200071a573d6000803e3d6000fd5b505050506040513d601f19601f8201168201806040525081019062000740919062001156565b90506001600160a01b03811633146200076c57604051636edd33cd60e11b815260040160405180910390fd5b505b600154855160405163abe9836360e01b81526000926001600160a01b03169163abe9836391620007a29190600401620011a4565b60206040518083038186803b158015620007bb57600080fd5b505afa158015620007d0573d6000803e3d6000fd5b505050506040513d601f19601f82011682018060405250810190620007f69190620010be565b9050803410156200081a57604051631cf2628760e31b815260040160405180910390fd5b84514211156200083d5760405163474435c160e01b815260040160405180910390fd5b600580549060006200084f83620011b9565b9091555050600554600454600154604051600093928a928a928a926001600160a01b039081169216903390620008859062000c31565b6200089797969594939291906200128a565b604051809103906000f080158015620008b4573d6000803e3d6000fd5b50905060018760c001516002811115620008d257620008d262001140565b1415620009055760e087015160009081526008602090815260408220600554815460018101835591845291909220909101555b6060870180516001600160a01b0390811660009081526009602090815260408083208054600180820183559185528385200180548887166001600160a01b03199182168117909255600580548752600a8652848720805490921683179091553380875260078652848720915482549485018355918752858720909301559551928c015191516323b872dd60e01b815260048101919091526024810195909552604485015290929116906323b872dd90606401602060405180830381600087803b158015620009d257600080fd5b505af1158015620009e7573d6000803e3d6000fd5b505050506040513d601f19601f8201168201806040525081019062000a0d9190620013be565b90508062000a2e5760405163197d6ecf60e21b815260040160405180910390fd5b6001546040516000916001600160a01b03169034908381818185875af1925050503d806000811462000a7d576040519150601f19603f3d011682016040523d82523d6000602084013e62000a82565b606091505b505090508062000aa557604051635b77072160e11b815260040160405180910390fd5b6005546060808b0151604080519384526001600160a01b038088166020860152909116908301527fdffe5be4b28e9feff47252db2cf2054aef948f89043d4ba606b2c6a0fd0cff0d910160405180910390a1505050505050505050565b62000b0c62000b85565b6001600160a01b03811662000b775760405162461bcd60e51b815260206004820152602660248201527f4f776e61626c653a206e6577206f776e657220697320746865207a65726f206160448201526564647265737360d01b60648201526084015b60405180910390fd5b62000b828162000be1565b50565b6000546001600160a01b03163314620003eb5760405162461bcd60e51b815260206004820181905260248201527f4f776e61626c653a2063616c6c6572206973206e6f7420746865206f776e6572604482015260640162000b6e565b600080546001600160a01b038381166001600160a01b0319831681178455604051919092169283917f8be0079c531659141344cd1fd0a4f28419497f9722a3daafe3b4186f6b6457e09190a35050565b614b1c80620013df83390190565b801515811462000b8257600080fd5b60006020828403121562000c6157600080fd5b813562000c6e8162000c3f565b9392505050565b6001600160a01b038116811462000b8257600080fd5b803562000c988162000c75565b919050565b60006020828403121562000cb057600080fd5b813562000c6e8162000c75565b60006020828403121562000cd057600080fd5b5035919050565b6020808252825182820181905260009190848201906040850190845b8181101562000d115783518352928401929184019160010162000cf3565b50909695505050505050565b6020808252825182820181905260009190848201906040850190845b8181101562000d115783516001600160a01b03168352928401929184019160010162000d39565b634e487b7160e01b600052604160045260246000fd5b604051610100810167ffffffffffffffff8111828210171562000d9d5762000d9d62000d60565b60405290565b80356003811062000c9857600080fd5b600082601f83011262000dc557600080fd5b813567ffffffffffffffff8082111562000de35762000de362000d60565b604051601f8301601f19908116603f0116810190828211818310171562000e0e5762000e0e62000d60565b8160405283815286602085880101111562000e2857600080fd5b836020870160208301376000602085830101528094505050505092915050565b803560ff8116811462000c9857600080fd5b60006040828403121562000e6d57600080fd5b6040516040810181811067ffffffffffffffff8211171562000e935762000e9362000d60565b604052823581526020928301359281019290925250919050565b60006060828403121562000ec057600080fd5b6040516060810167ffffffffffffffff828210818311171562000ee75762000ee762000d60565b81604052829350843591508082111562000f0057600080fd5b62000f0e8683870162000db3565b8352602085013591508082111562000f2557600080fd5b62000f338683870162000db3565b6020840152604085013591508082111562000f4d57600080fd5b5062000f5c8582860162000db3565b6040830152505092915050565b60008060006080848603121562000f7f57600080fd5b833567ffffffffffffffff8082111562000f9857600080fd5b90850190610100828803121562000fae57600080fd5b62000fb862000d76565b62000fc38362000da3565b815260208301358281111562000fd857600080fd5b62000fe68982860162000db3565b60208301525060408301358281111562000fff57600080fd5b6200100d8982860162000db3565b604083015250620010216060840162000c8b565b6060820152620010346080840162000e48565b608082015260a0830135828111156200104c57600080fd5b6200105a8982860162000db3565b60a0830152506200106e60c0840162000da3565b60c082015260e0838101359082015294506200108e876020880162000e5a565b93506060860135915080821115620010a557600080fd5b50620010b48682870162000ead565b9150509250925092565b600060208284031215620010d157600080fd5b5051919050565b600060608284031215620010eb57600080fd5b6040516060810181811067ffffffffffffffff8211171562001111576200111162000d60565b806040525082518152602083015160208201526040830151620011348162000c3f565b60408201529392505050565b634e487b7160e01b600052602160045260246000fd5b6000602082840312156200116957600080fd5b815162000c6e8162000c75565b6003811062000b8257634e487b7160e01b600052602160045260246000fd5b620011a08162001176565b9052565b60208101620011b38362001176565b91905290565b6000600019821415620011dc57634e487b7160e01b600052601160045260246000fd5b5060010190565b6000815180845260005b818110156200120b57602081850181015186830182015201620011ed565b818111156200121e576000602083870101525b50601f01601f19169290920160200192915050565b60008151606084526200124a6060850182620011e3565b905060208301518482036020860152620012658282620011e3565b91505060408301518482036040860152620012818282620011e3565b95945050505050565b6000610100898352806020840152620012a78184018a5162001195565b602089015181610120850152620012c3610200850182620011e3565b915050604089015160ff198085840301610140860152620012e58383620011e3565b925060608b01519150620013056101608601836001600160a01b03169052565b60808b015160ff1661018086015260a08b01518584039091016101a08601529050620013328282620011e3565b91505060c08901516200134a6101c085018262001195565b5060e08901516101e0840152875160408401526020880151606084015282810360808401526200137b818862001233565b9150506200139460a08301866001600160a01b03169052565b6001600160a01b03841660c08301526001600160a01b03831660e083015298975050505050505050565b600060208284031215620013d157600080fd5b815162000c6e8162000c3f56fe6101006040526000608090815260a06200001e62015180605a6200074a565b8152601e60208083019190915260408051918201815260008252909101528051601f8054909190829060ff1916600183600281111562000062576200006262000734565b0217905550602082810151600183015560408301516002830155606083015180516200009592600385019201906200060a565b5050604080516080810190915290508060018152602001620000bc6201518060b46200074a565b815260326020808301919091526040805191820181526000825290910152805160238054909190829060ff1916600183600281111562000100576200010062000734565b0217905550602082810151600183015560408301516002830155606083015180516200013392600385019201906200060a565b50506040805160808101909152905080600281526020016200015b6201518061016d6200074a565b815260506020808301919091526040805191820181526000825290910152805160278054909190829060ff191660018360028111156200019f576200019f62000734565b021790555060208281015160018301556040830151600283015560608301518051620001d292600385019201906200060a565b505050348015620001e257600080fd5b5060405162004b1c38038062004b1c8339810160408190526200020591620009ce565b6020808701518051909182916200022391600091908401906200060a565b508051620002399060019060208401906200060a565b505084518051620002529250602291602001906200060a565b5060208085015180516200026b9260269201906200060a565b50604084015180516200028791602a916020909101906200060a565b5060008052602b602052601f80547fe18c65fb8491ea105d3652ed62258476aaccd771ae89682addbba12f33acc62a8054909160ff1690829060ff19166001836002811115620002db57620002db62000734565b0217905550600182015481600101556002820154816002015560038201816003019080546200030a9062000b6a565b6200031792919062000699565b505060016000819052602b602052602380547ffcc3d43705633578a5e8f1b6d6f38d08eb8cb891174edcc94b1a54972a1aebbd80549294509260ff90911691839160ff199091169083600281111562000374576200037462000734565b021790555060018201548160010155600282015481600201556003820181600301908054620003a39062000b6a565b620003b092919062000699565b505060026000819052602b602052602780547fbd6c10e6ce287735500a1c033be76c57d5e632addc2ff6eff6bb587b8ee0d95c80549294509260ff90911691839160ff199091169060019084908111156200040f576200040f62000734565b0217905550600182015481600101556002820154816002015560038201816003019080546200043e9062000b6a565b6200044b92919062000699565b5050865160138054899350909190829060ff1916600183600281111562000476576200047662000734565b021790555060208281015180516200049592600185019201906200060a565b5060408201518051620004b39160028401916020909101906200060a565b506060820151600382018054608085015160ff16600160a01b026001600160a81b03199091166001600160a01b039093169290921791909117905560a082015180516200050b9160048401916020909101906200060a565b5060c082015160058201805460ff1916600183600281111562000532576200053262000734565b021790555060e091909101516006909101558451601a55602080860151601b55845180518692601c926200056d92849291909101906200060a565b5060208281015180516200058892600185019201906200060a565b5060408201518051620005a69160028401916020909101906200060a565b505050600c96909655600d8054306001600160a01b03199182161790915560209490940151600e556012805485166001600160a01b03978816179055600a8054851692871692909217909155600b805490931694169390931790555062000ba79050565b828054620006189062000b6a565b90600052602060002090601f0160209004810192826200063c576000855562000687565b82601f106200065757805160ff191683800117855562000687565b8280016001018555821562000687579182015b82811115620006875782518255916020019190600101906200066a565b50620006959291506200071d565b5090565b828054620006a79062000b6a565b90600052602060002090601f016020900481019282620006cb576000855562000687565b82601f10620006de578054855562000687565b828001600101855582156200068757600052602060002091601f016020900482015b828111156200068757825482559160010191906001019062000700565b5b808211156200069557600081556001016200071e565b634e487b7160e01b600052602160045260246000fd5b60008160001904831182151516156200077357634e487b7160e01b600052601160045260246000fd5b500290565b634e487b7160e01b600052604160045260246000fd5b60405161010081016001600160401b0381118282101715620007b457620007b462000778565b60405290565b604051601f8201601f191681016001600160401b0381118282101715620007e557620007e562000778565b604052919050565b805160038110620007fd57600080fd5b919050565b600082601f8301126200081457600080fd5b81516001600160401b0381111562000830576200083062000778565b602062000846601f8301601f19168201620007ba565b82815285828487010111156200085b57600080fd5b60005b838110156200087b5785810183015182820184015282016200085e565b838111156200088d5760008385840101525b5095945050505050565b80516001600160a01b0381168114620007fd57600080fd5b805160ff81168114620007fd57600080fd5b600060408284031215620008d457600080fd5b604080519081016001600160401b0381118282101715620008f957620008f962000778565b604052825181526020928301519281019290925250919050565b6000606082840312156200092657600080fd5b604051606081016001600160401b0380821183831017156200094c576200094c62000778565b8160405282935084519150808211156200096557600080fd5b620009738683870162000802565b835260208501519150808211156200098a57600080fd5b620009988683870162000802565b60208401526040850151915080821115620009b257600080fd5b50620009c18582860162000802565b6040830152505092915050565b600080600080600080600061010080898b031215620009ec57600080fd5b885160208a01519098506001600160401b038082111562000a0c57600080fd5b818b01915082828d03121562000a2157600080fd5b62000a2b6200078e565b925062000a3882620007ed565b835260208201518181111562000a4d57600080fd5b62000a5b8d82850162000802565b60208501525060408201518181111562000a7457600080fd5b62000a828d82850162000802565b60408501525062000a966060830162000897565b606084015262000aa960808301620008af565b608084015260a08201518181111562000ac157600080fd5b62000acf8d82850162000802565b60a08501525062000ae360c08301620007ed565b60c084015260e082015160e084015282985062000b048c60408d01620008c1565b975060808b015192508083111562000b1b57600080fd5b505062000b2b8a828b0162000913565b94505062000b3c60a0890162000897565b925062000b4c60c0890162000897565b915062000b5c60e0890162000897565b905092959891949750929550565b600181811c9082168062000b7f57607f821691505b6020821081141562000ba157634e487b7160e01b600052602260045260246000fd5b50919050565b613f658062000bb76000396000f3fe6080604052600436106101b75760003560e01c80636352211e116100ec578063a3a439311161008a578063c87b56dd11610064578063c87b56dd14610531578063d4f47e9314610551578063e7301f0e14610571578063e985e9c51461058657600080fd5b8063a3a439311461049b578063b09afec1146104e4578063b88d4fde1461051157600080fd5b806370a08231116100c657806370a0823114610426578063942cc3071461044657806395d89b4114610466578063a22cb4651461047b57600080fd5b80636352211e146103c4578063637888c0146103e457806367c897fe1461040457600080fd5b80631df025c61161015957806342842e0e1161013357806342842e0e146103435780634f6ccce714610363578063519dc8d214610383578063608e4dd0146103b157600080fd5b80631df025c6146102c657806323b872dd146103035780632f745c591461032357600080fd5b8063095ea7b311610195578063095ea7b31461024b5780630a851b401461026d5780630c12252b1461029257806318160ddd146102a757600080fd5b806301ffc9a7146101bc57806306fdde03146101f1578063081812fc14610213575b600080fd5b3480156101c857600080fd5b506101dc6101d736600461359d565b6105cf565b60405190151581526020015b60405180910390f35b3480156101fd57600080fd5b506102066105fa565b6040516101e89190613612565b34801561021f57600080fd5b5061023361022e366004613625565b61068c565b6040516001600160a01b0390911681526020016101e8565b34801561025757600080fd5b5061026b610266366004613653565b6106b3565b005b34801561027957600080fd5b506102826107ce565b6040516101e894939291906136a5565b34801561029e57600080fd5b50610282610873565b3480156102b357600080fd5b506008545b6040519081526020016101e8565b3480156102d257600080fd5b506102e66102e13660046136dd565b610895565b6040805193845260ff9092166020840152908201526060016101e8565b34801561030f57600080fd5b5061026b61031e366004613709565b610ac0565b34801561032f57600080fd5b506102b861033e366004613653565b610af1565b34801561034f57600080fd5b5061026b61035e366004613709565b610b87565b34801561036f57600080fd5b506102b861037e366004613625565b610ba2565b34801561038f57600080fd5b506103a361039e36600461374a565b610c35565b6040516101e8929190613925565b61026b6103bf366004613625565b611166565b3480156103d057600080fd5b506102336103df366004613625565b61170a565b3480156103f057600080fd5b5061026b6103ff366004613997565b61176a565b34801561041057600080fd5b50610419611e41565b6040516101e89190613a2e565b34801561043257600080fd5b506102b861044136600461374a565b6122f7565b34801561045257600080fd5b50600b54610233906001600160a01b031681565b34801561047257600080fd5b5061020661237d565b34801561048757600080fd5b5061026b610496366004613ae7565b61238c565b3480156104a757600080fd5b506104bb6104b6366004613625565b61239b565b6040516101e89493929190938452602084019290925260ff166040830152606082015260800190565b3480156104f057600080fd5b506105046104ff366004613625565b612531565b6040516101e89190613b20565b34801561051d57600080fd5b5061026b61052c366004613b49565b61269a565b34801561053d57600080fd5b5061020661054c366004613625565b6126d2565b34801561055d57600080fd5b50600a54610233906001600160a01b031681565b34801561057d57600080fd5b50610282612746565b34801561059257600080fd5b506101dc6105a1366004613c29565b6001600160a01b03918216600090815260056020908152604080832093909416825291909152205460ff1690565b60006001600160e01b0319821663780e9d6360e01b14806105f457506105f482612768565b92915050565b60606000805461060990613c57565b80601f016020809104026020016040519081016040528092919081815260200182805461063590613c57565b80156106825780601f1061065757610100808354040283529160200191610682565b820191906000526020600020905b81548152906001019060200180831161066557829003601f168201915b5050505050905090565b6000610697826127b8565b506000908152600460205260409020546001600160a01b031690565b60006106be8261170a565b9050806001600160a01b0316836001600160a01b031614156107315760405162461bcd60e51b815260206004820152602160248201527f4552433732313a20617070726f76616c20746f2063757272656e74206f776e656044820152603960f91b60648201526084015b60405180910390fd5b336001600160a01b038216148061074d575061074d81336105a1565b6107bf5760405162461bcd60e51b815260206004820152603d60248201527f4552433732313a20617070726f76652063616c6c6572206973206e6f7420746f60448201527f6b656e206f776e6572206f7220617070726f76656420666f7220616c6c0000006064820152608401610728565b6107c9838361281a565b505050565b602380546024546025546026805460ff9094169492939192916107f090613c57565b80601f016020809104026020016040519081016040528092919081815260200182805461081c90613c57565b80156108695780601f1061083e57610100808354040283529160200191610869565b820191906000526020600020905b81548152906001019060200180831161084c57829003601f168201915b5050505050905084565b601f80546020546021546022805460ff9094169492939192916107f090613c57565b60008080806108a48686613ca8565b905060006108b28742613ca8565b90506000826108c2836064613cbf565b6108cc9190613cde565b9050603281101561096557600b54604051633b6a8f1d60e01b8152600097508796506001600160a01b0390911690633b6a8f1d9061090e908890600401613d00565b60206040518083038186803b15801561092657600080fd5b505afa15801561093a573d6000803e3d6000fd5b505050506040513d601f19601f8201168201806040525081019061095e9190613d1a565b9350610ab4565b603281101580156109765750605081105b156109c757601e9450606461098b868b613cbf565b6109959190613cde565b600b54604051633b6a8f1d60e01b81529197506001600160a01b031690633b6a8f1d9061090e90600190600401613d00565b605081101580156109d85750606481105b15610a29576032945060646109ed8a87613cbf565b6109f79190613cde565b600b54604051633b6a8f1d60e01b81529197506001600160a01b031690633b6a8f1d9061090e90600290600401613d00565b600b54604051633b6a8f1d60e01b81528a9750606496506001600160a01b0390911690633b6a8f1d90610a6190600390600401613d00565b60206040518083038186803b158015610a7957600080fd5b505afa158015610a8d573d6000803e3d6000fd5b505050506040513d601f19601f82011682018060405250810190610ab19190613d1a565b93505b50505093509350939050565b610aca3382612888565b610ae65760405162461bcd60e51b815260040161072890613d33565b6107c9838383612907565b6000610afc836122f7565b8210610b5e5760405162461bcd60e51b815260206004820152602b60248201527f455243373231456e756d657261626c653a206f776e657220696e646578206f7560448201526a74206f6620626f756e647360a81b6064820152608401610728565b506001600160a01b03919091166000908152600660209081526040808320938352929052205490565b6107c98383836040518060200160405280600081525061269a565b6000610bad60085490565b8210610c105760405162461bcd60e51b815260206004820152602c60248201527f455243373231456e756d657261626c653a20676c6f62616c20696e646578206f60448201526b7574206f6620626f756e647360a01b6064820152608401610728565b60088281548110610c2357610c23613d80565b90600052602060002001549050919050565b610c3d61332f565b600a5460405163677755bb60e01b81526001600160a01b03848116600483015260609260009291169063677755bb9060240160206040518083038186803b158015610c8757600080fd5b505afa158015610c9b573d6000803e3d6000fd5b505050506040513d601f19601f82011682018060405250810190610cbf9190613d96565b90506001600160a01b038116610ce8576040516374fcb30d60e11b815260040160405180910390fd5b6000610cf3826122f7565b905060008167ffffffffffffffff811115610d1057610d10613b33565b604051908082528060200260200182016040528015610d4957816020015b610d36613392565b815260200190600190039081610d2e5790505b50905060005b82811015610efc576000610d638583610af1565b6000818152602c6020908152604080832081516101e08101835281546001600160a01b039081168252600183015494820194909452600282015492810192909252600381015483166060830152600481015483166080830152600581015490921660a0820152600682015460c08201526007820180549495509293909260e0840191610dee90613c57565b80601f0160208091040260200160405190810160405280929190818152602001828054610e1a90613c57565b8015610e675780601f10610e3c57610100808354040283529160200191610e67565b820191906000526020600020905b815481529060010190602001808311610e4a57829003601f168201915b5050509183525050600882015460ff908116602083015260098301546040830152600a8301546060830152600b8301546080830152600c8301548116151560a0830152600d83015460c0830152600e9092015490911660e09091015284519091508190859085908110610edc57610edc613d80565b602002602001018190525050508080610ef490613db3565b915050610d4f565b5060408051610100810190915260138054909183918390829060ff166002811115610f2957610f2961367f565b6002811115610f3a57610f3a61367f565b8152602001600182018054610f4e90613c57565b80601f0160208091040260200160405190810160405280929190818152602001828054610f7a90613c57565b8015610fc75780601f10610f9c57610100808354040283529160200191610fc7565b820191906000526020600020905b815481529060010190602001808311610faa57829003601f168201915b50505050508152602001600282018054610fe090613c57565b80601f016020809104026020016040519081016040528092919081815260200182805461100c90613c57565b80156110595780601f1061102e57610100808354040283529160200191611059565b820191906000526020600020905b81548152906001019060200180831161103c57829003601f168201915b505050918352505060038201546001600160a01b0381166020830152600160a01b900460ff16604082015260048201805460609092019161109990613c57565b80601f01602080910402602001604051908101604052809291908181526020018280546110c590613c57565b80156111125780601f106110e757610100808354040283529160200191611112565b820191906000526020600020905b8154815290600101906020018083116110f557829003601f168201915b5050509183525050600582015460209091019060ff1660028111156111395761113961367f565b600281111561114a5761114a61367f565b8152602001600682015481525050915094509450505050915091565b6000818152602c6020908152604080832081516101e08101835281546001600160a01b039081168252600183015494820194909452600282015492810192909252600381015483166060830152600481015483166080830152600581015490921660a0820152600682015460c082015260078201805491929160e0840191906111ee90613c57565b80601f016020809104026020016040519081016040528092919081815260200182805461121a90613c57565b80156112675780601f1061123c57610100808354040283529160200191611267565b820191906000526020600020905b81548152906001019060200180831161124a57829003601f168201915b5050509183525050600882015460ff908116602083015260098301546040830152600a8301546060830152600b830154608080840191909152600c8401548216151560a0840152600d84015460c0840152600e909301541660e0909101528101519091506001600160a01b031633146112f357604051636ff49be560e01b815260040160405180910390fd5b61016081015161131657604051630638c18f60e51b815260040160405180910390fd5b8061018001511561133a57604051636dc6682d60e01b815260040160405180910390fd5b6000828152602c60205260408120600c01805460ff191660011790556101608201516101208301516101408401518392839261137592610895565b6000888152602c60205260408120600d8101859055600e01805460ff191660ff85161790556101608801519396509194509250906113b4908590613ca8565b905080600c60020160008282546113cb9190613dce565b9091555050348211156113f157604051631cf2628760e31b815260040160405180910390fd5b600b546040516000916001600160a01b03169034908381818185875af1925050503d806000811461143e576040519150601f19603f3d011682016040523d82523d6000602084013e611443565b606091505b505090508061146557604051635b77072160e11b815260040160405180910390fd5b600a5460405163677755bb60e01b81523360048201526000916001600160a01b03169063677755bb9060240160206040518083038186803b1580156114a957600080fd5b505afa1580156114bd573d6000803e3d6000fd5b505050506040513d601f19601f820116820180604052508101906114e19190613d96565b6040516357fecd5d60e11b8152306004820152602481018a90529091506000906001600160a01b0383169063affd9aba90604401602060405180830381600087803b15801561152f57600080fd5b505af1158015611543573d6000803e3d6000fd5b505050506040513d601f19601f820116820180604052508101906115679190613de6565b9050806115875760405163d0411c3960e01b815260040160405180910390fd5b601654608089015160405163a9059cbb60e01b81526001600160a01b039182166004820152602481018a905291169063a9059cbb90604401602060405180830381600087803b1580156115d957600080fd5b505af11580156115ed573d6000803e3d6000fd5b505050506040513d601f19601f820116820180604052508101906116119190613de6565b90508061163157604051630c26b1fd60e11b815260040160405180910390fd5b61163e8860c00151612a78565b611647826122f7565b6116a55760405163838c003960e01b81523060048201526001600160a01b0383169063838c003990602401600060405180830381600087803b15801561168c57600080fd5b505af11580156116a0573d6000803e3d6000fd5b505050505b600c546040808a01516101008b015182519384523360208501529183015260ff166060820152608081018890527f8958f0c58afef19b6642cac81ae35a14e955e85b5d55cdc65c7d502eb592fe0d9060a00160405180910390a1505050505050505050565b6000818152600260205260408120546001600160a01b0316806105f45760405162461bcd60e51b8152602060048201526018602482015277115490cdcc8c4e881a5b9d985b1a59081d1bdad95b88125160421b6044820152606401610728565b601a5442101561178d57604051638f2d4c2d60e01b815260040160405180910390fd5b6000602b60008360028111156117a5576117a561367f565b60028111156117b6576117b661367f565b8152602081019190915260409081016000208151608081019092528054829060ff1660028111156117e9576117e961367f565b60028111156117fa576117fa61367f565b8152602001600182015481526020016002820154815260200160038201805461182290613c57565b80601f016020809104026020016040519081016040528092919081815260200182805461184e90613c57565b801561189b5780601f106118705761010080835404028352916020019161189b565b820191906000526020600020905b81548152906001019060200180831161187e57829003601f168201915b5050505050815250509050600060648260400151856118ba9190613cbf565b6118c49190613cde565b905080600c6002015410156118ec576040516348eb126760e11b815260040160405180910390fd5b80600c60020160008282546119019190613ca8565b9091555050600f805485919060009061191b908490613dce565b90915550506010805490600061193083613db3565b90915550506011805490600061194583613db3565b91905055506000602b60008560028111156119625761196261367f565b60028111156119735761197361367f565b8152602001908152602001600020600301805461198f90613c57565b80601f01602080910402602001604051908101604052809291908181526020018280546119bb90613c57565b8015611a085780601f106119dd57610100808354040283529160200191611a08565b820191906000526020600020905b8154815290600101906020018083116119eb57829003601f168201915b5050600a5460405163677755bb60e01b81526001600160a01b038c81166004830152959650600095909116935063677755bb9250602401905060206040518083038186803b158015611a5957600080fd5b505afa158015611a6d573d6000803e3d6000fd5b505050506040513d601f19601f82011682018060405250810190611a919190613d96565b90506001600160a01b038116611b2357600a546040516331b77b8960e21b81526001600160a01b0389811660048301529091169063c6ddee2490602401602060405180830381600087803b158015611ae857600080fd5b505af1158015611afc573d6000803e3d6000fd5b505050506040513d601f19601f82011682018060405250810190611b209190613d96565b90505b604080516101e081018252308152600c5460208201529081018790526016546001600160a01b0390811660608301528881166080830152821660a082015260115460c082015260e081018390526101008101866002811115611b8757611b8761367f565b60ff168152602001428152602001856020015142611ba59190613dce565b8152602080820186905260006040808401829052606080850183905260809485018390526011548352602c845291819020855181546001600160a01b039182166001600160a01b0319918216178355878601516001840155928701516002830155928601516003820180549185169184169190911790559385015160048501805491841691831691909117905560a085015160058501805491909316911617905560c0830151600683015560e08301518051611c679260078501920190613434565b5061010082015160088201805460ff1990811660ff938416179091556101208401516009840155610140840151600a840155610160840151600b840155610180840151600c8401805483169115159190911790556101a0840151600d8401556101c090930151600e909201805490931691161790556016546040516323b872dd60e01b81523360048201526001600160a01b0383811660248301526044820189905260009216906323b872dd90606401602060405180830381600087803b158015611d3157600080fd5b505af1158015611d45573d6000803e3d6000fd5b505050506040513d601f19601f82011682018060405250810190611d699190613de6565b905080611d895760405163986aebbb60e01b815260040160405180910390fd5b6011546040516bffffffffffffffffffffffff193060601b166020820152611dc4918491603401604051602081830303815290604052612b1b565b600c546011547fbbd184b832a658705e19e15121bf8abb81df8e6c59469af906e22fdf841bbffa91908a8a8a6002811115611e0157611e0161367f565b6040805195865260208601949094526001600160a01b039290921684840152606084015260ff166080830152519081900360a00190a15050505050505050565b611e496134b8565b6040805161016081018252600c5460808201908152600d546001600160a01b0390811660a0840152600e5460c0840152600f5460e08401526010546101008085019190915260115461012085015260125490911661014084015290825282519081019092526013805491926020840192909190829060ff166002811115611ed257611ed261367f565b6002811115611ee357611ee361367f565b8152602001600182018054611ef790613c57565b80601f0160208091040260200160405190810160405280929190818152602001828054611f2390613c57565b8015611f705780601f10611f4557610100808354040283529160200191611f70565b820191906000526020600020905b815481529060010190602001808311611f5357829003601f168201915b50505050508152602001600282018054611f8990613c57565b80601f0160208091040260200160405190810160405280929190818152602001828054611fb590613c57565b80156120025780601f10611fd757610100808354040283529160200191612002565b820191906000526020600020905b815481529060010190602001808311611fe557829003601f168201915b505050918352505060038201546001600160a01b0381166020830152600160a01b900460ff16604082015260048201805460609092019161204290613c57565b80601f016020809104026020016040519081016040528092919081815260200182805461206e90613c57565b80156120bb5780601f10612090576101008083540402835291602001916120bb565b820191906000526020600020905b81548152906001019060200180831161209e57829003601f168201915b5050509183525050600582015460209091019060ff1660028111156120e2576120e261367f565b60028111156120f3576120f361367f565b81526020016006820154815250508152602001601a604051806040016040529081600082015481526020016001820154815250508152602001601c60405180606001604052908160008201805461214990613c57565b80601f016020809104026020016040519081016040528092919081815260200182805461217590613c57565b80156121c25780601f10612197576101008083540402835291602001916121c2565b820191906000526020600020905b8154815290600101906020018083116121a557829003601f168201915b505050505081526020016001820180546121db90613c57565b80601f016020809104026020016040519081016040528092919081815260200182805461220790613c57565b80156122545780601f1061222957610100808354040283529160200191612254565b820191906000526020600020905b81548152906001019060200180831161223757829003601f168201915b5050505050815260200160028201805461226d90613c57565b80601f016020809104026020016040519081016040528092919081815260200182805461229990613c57565b80156122e65780601f106122bb576101008083540402835291602001916122e6565b820191906000526020600020905b8154815290600101906020018083116122c957829003601f168201915b505050505081525050815250905090565b60006001600160a01b0382166123615760405162461bcd60e51b815260206004820152602960248201527f4552433732313a2061646472657373207a65726f206973206e6f7420612076616044820152683634b21037bbb732b960b91b6064820152608401610728565b506001600160a01b031660009081526003602052604090205490565b60606001805461060990613c57565b612397338383612b4e565b5050565b6000818152602c6020908152604080832081516101e08101835281546001600160a01b039081168252600183015494820194909452600282015492810192909252600381015483166060830152600481015483166080830152600581015490921660a0820152600682015460c0820152600782018054849384938493849391929160e08401919061242b90613c57565b80601f016020809104026020016040519081016040528092919081815260200182805461245790613c57565b80156124a45780601f10612479576101008083540402835291602001916124a4565b820191906000526020600020905b81548152906001019060200180831161248757829003601f168201915b5050509183525050600882015460ff908116602083015260098301546040830152600a8301546060830152600b8301546080830152600c8301548116151560a0830152600d83015460c0830152600e9092015490911660e090910152610160810151610120820151610140830151919750919250612523918791610895565b969891975095945092505050565b612539613392565b6000828152602c602090815260409182902082516101e08101845281546001600160a01b039081168252600183015493820193909352600282015493810193909352600381015482166060840152600481015482166080840152600581015490911660a0830152600681015460c083015260078101805460e0840191906125bf90613c57565b80601f01602080910402602001604051908101604052809291908181526020018280546125eb90613c57565b80156126385780601f1061260d57610100808354040283529160200191612638565b820191906000526020600020905b81548152906001019060200180831161261b57829003601f168201915b5050509183525050600882015460ff908116602083015260098301546040830152600a8301546060830152600b8301546080830152600c8301548116151560a0830152600d83015460c0830152600e9092015490911660e09091015292915050565b6126a43383612888565b6126c05760405162461bcd60e51b815260040161072890613d33565b6126cc84848484612c1d565b50505050565b60606126dd826127b8565b60006126f460408051602081019091526000815290565b90506000815111612714576040518060200160405280600081525061273f565b8061271e84612c50565b60405160200161272f929190613e03565b6040516020818303038152906040525b9392505050565b60278054602854602954602a805460ff9094169492939192916107f090613c57565b60006001600160e01b031982166380ac58cd60e01b148061279957506001600160e01b03198216635b5e139f60e01b145b806105f457506301ffc9a760e01b6001600160e01b03198316146105f4565b6000818152600260205260409020546001600160a01b03166128175760405162461bcd60e51b8152602060048201526018602482015277115490cdcc8c4e881a5b9d985b1a59081d1bdad95b88125160421b6044820152606401610728565b50565b600081815260046020526040902080546001600160a01b0319166001600160a01b038416908117909155819061284f8261170a565b6001600160a01b03167f8c5be1e5ebec7d5bd14f71427d1e84f3dd0314c0f7b2291e5b200ac8c7c3b92560405160405180910390a45050565b6000806128948361170a565b9050806001600160a01b0316846001600160a01b031614806128db57506001600160a01b0380821660009081526005602090815260408083209388168352929052205460ff165b806128ff5750836001600160a01b03166128f48461068c565b6001600160a01b0316145b949350505050565b826001600160a01b031661291a8261170a565b6001600160a01b0316146129405760405162461bcd60e51b815260040161072890613e32565b6001600160a01b0382166129a25760405162461bcd60e51b8152602060048201526024808201527f4552433732313a207472616e7366657220746f20746865207a65726f206164646044820152637265737360e01b6064820152608401610728565b6129af8383836001612ced565b826001600160a01b03166129c28261170a565b6001600160a01b0316146129e85760405162461bcd60e51b815260040161072890613e32565b600081815260046020908152604080832080546001600160a01b03199081169091556001600160a01b0387811680865260038552838620805460001901905590871680865283862080546001019055868652600290945282852080549092168417909155905184937fddf252ad1be2c89b69c2b068fc378daa952ba7f163c4a11628f55a4df523b3ef91a4505050565b6000612a838261170a565b9050612a93816000846001612ced565b612a9c8261170a565b600083815260046020908152604080832080546001600160a01b03199081169091556001600160a01b0385168085526003845282852080546000190190558785526002909352818420805490911690555192935084927fddf252ad1be2c89b69c2b068fc378daa952ba7f163c4a11628f55a4df523b3ef908390a45050565b612b258383612e21565b612b326000848484612fba565b6107c95760405162461bcd60e51b815260040161072890613e77565b816001600160a01b0316836001600160a01b03161415612bb05760405162461bcd60e51b815260206004820152601960248201527f4552433732313a20617070726f766520746f2063616c6c6572000000000000006044820152606401610728565b6001600160a01b03838116600081815260056020908152604080832094871680845294825291829020805460ff191686151590811790915591519182527f17307eab39ab6107e8899845ad3d59bd9653f200f220920489ca2b5937696c31910160405180910390a3505050565b612c28848484612907565b612c3484848484612fba565b6126cc5760405162461bcd60e51b815260040161072890613e77565b60606000612c5d836130c7565b600101905060008167ffffffffffffffff811115612c7d57612c7d613b33565b6040519080825280601f01601f191660200182016040528015612ca7576020820181803683370190505b5090508181016020015b600019016f181899199a1a9b1b9c1cb0b131b232b360811b600a86061a8153600a8504945084612ce057612ce5565b612cb1565b509392505050565b6001811115612d5c5760405162461bcd60e51b815260206004820152603560248201527f455243373231456e756d657261626c653a20636f6e7365637574697665207472604482015274185b9cd9995c9cc81b9bdd081cdd5c1c1bdc9d1959605a1b6064820152608401610728565b816001600160a01b038516612db857612db381600880546000838152600960205260408120829055600182018355919091527ff3f7a9fe364faab93b216da50a3214154f22a0a2b415b23a84c8169e8b636ee30155565b612ddb565b836001600160a01b0316856001600160a01b031614612ddb57612ddb858261319f565b6001600160a01b038416612df757612df28161323c565b612e1a565b846001600160a01b0316846001600160a01b031614612e1a57612e1a84826132eb565b5050505050565b6001600160a01b038216612e775760405162461bcd60e51b815260206004820181905260248201527f4552433732313a206d696e7420746f20746865207a65726f20616464726573736044820152606401610728565b6000818152600260205260409020546001600160a01b031615612edc5760405162461bcd60e51b815260206004820152601c60248201527f4552433732313a20746f6b656e20616c7265616479206d696e746564000000006044820152606401610728565b612eea600083836001612ced565b6000818152600260205260409020546001600160a01b031615612f4f5760405162461bcd60e51b815260206004820152601c60248201527f4552433732313a20746f6b656e20616c7265616479206d696e746564000000006044820152606401610728565b6001600160a01b038216600081815260036020908152604080832080546001019055848352600290915280822080546001600160a01b0319168417905551839291907fddf252ad1be2c89b69c2b068fc378daa952ba7f163c4a11628f55a4df523b3ef908290a45050565b60006001600160a01b0384163b156130bc57604051630a85bd0160e11b81526001600160a01b0385169063150b7a0290612ffe903390899088908890600401613ec9565b602060405180830381600087803b15801561301857600080fd5b505af1925050508015613048575060408051601f3d908101601f1916820190925261304591810190613efc565b60015b6130a2573d808015613076576040519150601f19603f3d011682016040523d82523d6000602084013e61307b565b606091505b50805161309a5760405162461bcd60e51b815260040161072890613e77565b805181602001fd5b6001600160e01b031916630a85bd0160e11b1490506128ff565b506001949350505050565b60008072184f03e93ff9f4daa797ed6e38ed64bf6a1f0160401b83106131065772184f03e93ff9f4daa797ed6e38ed64bf6a1f0160401b830492506040015b6d04ee2d6d415b85acef81000000008310613132576d04ee2d6d415b85acef8100000000830492506020015b662386f26fc10000831061315057662386f26fc10000830492506010015b6305f5e1008310613168576305f5e100830492506008015b612710831061317c57612710830492506004015b6064831061318e576064830492506002015b600a83106105f45760010192915050565b600060016131ac846122f7565b6131b69190613ca8565b600083815260076020526040902054909150808214613209576001600160a01b03841660009081526006602090815260408083208584528252808320548484528184208190558352600790915290208190555b5060009182526007602090815260408084208490556001600160a01b039094168352600681528383209183525290812055565b60085460009061324e90600190613ca8565b6000838152600960205260408120546008805493945090928490811061327657613276613d80565b90600052602060002001549050806008838154811061329757613297613d80565b60009182526020808320909101929092558281526009909152604080822084905585825281205560088054806132cf576132cf613f19565b6001900381819060005260206000200160009055905550505050565b60006132f6836122f7565b6001600160a01b039093166000908152600660209081526040808320868452825280832085905593825260079052919091209190915550565b6040805161010081019091528060008152602001606081526020016060815260200160006001600160a01b03168152602001600060ff16815260200160608152602001600060028111156133855761338561367f565b8152602001600081525090565b604051806101e0016040528060006001600160a01b03168152602001600081526020016000815260200160006001600160a01b0316815260200160006001600160a01b0316815260200160006001600160a01b031681526020016000815260200160608152602001600060ff16815260200160008152602001600081526020016000815260200160001515815260200160008152602001600060ff1681525090565b82805461344090613c57565b90600052602060002090601f01602090048101928261346257600085556134a8565b82601f1061347b57805160ff19168380011785556134a8565b828001600101855582156134a8579182015b828111156134a857825182559160200191906001019061348d565b506134b4929150613572565b5090565b60405180608001604052806135156040518060e001604052806000815260200160006001600160a01b031681526020016000815260200160008152602001600081526020016000815260200160006001600160a01b031681525090565b815260200161352261332f565b8152602001613544604051806040016040528060008152602001600081525090565b815260200161356d60405180606001604052806060815260200160608152602001606081525090565b905290565b5b808211156134b45760008155600101613573565b6001600160e01b03198116811461281757600080fd5b6000602082840312156135af57600080fd5b813561273f81613587565b60005b838110156135d55781810151838201526020016135bd565b838111156126cc5750506000910152565b600081518084526135fe8160208601602086016135ba565b601f01601f19169290920160200192915050565b60208152600061273f60208301846135e6565b60006020828403121561363757600080fd5b5035919050565b6001600160a01b038116811461281757600080fd5b6000806040838503121561366657600080fd5b82356136718161363e565b946020939093013593505050565b634e487b7160e01b600052602160045260246000fd5b600381106128175761281761367f565b6136ae85613695565b8481528360208201528260408201526080606082015260006136d360808301846135e6565b9695505050505050565b6000806000606084860312156136f257600080fd5b505081359360208301359350604090920135919050565b60008060006060848603121561371e57600080fd5b83356137298161363e565b925060208401356137398161363e565b929592945050506040919091013590565b60006020828403121561375c57600080fd5b813561273f8161363e565b61377081613695565b9052565b6000610100825161378481613695565b80855250602083015181602086015261379f828601826135e6565b915050604083015184820360408601526137b982826135e6565b91505060018060a01b03606084015116606085015260808301516137e2608086018260ff169052565b5060a083015184820360a08601526137fa82826135e6565b91505060c083015161380f60c0860182613767565b5060e083015160e08501528091505092915050565b80516001600160a01b0316825260006101e06020830151602085015260408301516040850152606083015161386460608601826001600160a01b03169052565b50608083015161387f60808601826001600160a01b03169052565b5060a083015161389a60a08601826001600160a01b03169052565b5060c083015160c085015260e08301518160e08601526138bc828601826135e6565b915050610100808401516138d48287018260ff169052565b5050610120838101519085015261014080840151908501526101608084015190850152610180808401511515908501526101a080840151908501526101c09283015160ff1692909301919091525090565b6040815260006139386040830185613774565b6020838203818501528185518084528284019150828160051b85010183880160005b8381101561398857601f19878403018552613976838351613824565b9486019492509085019060010161395a565b50909998505050505050505050565b6000806000606084860312156139ac57600080fd5b83356139b78161363e565b9250602084013591506040840135600381106139d257600080fd5b809150509250925092565b60008151606084526139f260608501826135e6565b905060208301518482036020860152613a0b82826135e6565b91505060408301518482036040860152613a2582826135e6565b95945050505050565b602081526000825180516020840152602081015160018060a01b0380821660408601526040830151606086015260608301516080860152608083015160a086015260a083015160c08601528060c08401511660e0860152505050602083015161016080610100850152613aa5610180850183613774565b60408601518051610120870152602001516101408601526060860151858203601f1901838701529092506136d383826139dd565b801515811461281757600080fd5b60008060408385031215613afa57600080fd5b8235613b058161363e565b91506020830135613b1581613ad9565b809150509250929050565b60208152600061273f6020830184613824565b634e487b7160e01b600052604160045260246000fd5b60008060008060808587031215613b5f57600080fd5b8435613b6a8161363e565b93506020850135613b7a8161363e565b925060408501359150606085013567ffffffffffffffff80821115613b9e57600080fd5b818701915087601f830112613bb257600080fd5b813581811115613bc457613bc4613b33565b604051601f8201601f19908116603f01168101908382118183101715613bec57613bec613b33565b816040528281528a6020848701011115613c0557600080fd5b82602086016020830137600060208483010152809550505050505092959194509250565b60008060408385031215613c3c57600080fd5b8235613c478161363e565b91506020830135613b158161363e565b600181811c90821680613c6b57607f821691505b60208210811415613c8c57634e487b7160e01b600052602260045260246000fd5b50919050565b634e487b7160e01b600052601160045260246000fd5b600082821015613cba57613cba613c92565b500390565b6000816000190483118215151615613cd957613cd9613c92565b500290565b600082613cfb57634e487b7160e01b600052601260045260246000fd5b500490565b6020810160048310613d1457613d1461367f565b91905290565b600060208284031215613d2c57600080fd5b5051919050565b6020808252602d908201527f4552433732313a2063616c6c6572206973206e6f7420746f6b656e206f776e6560408201526c1c881bdc88185c1c1c9bdd9959609a1b606082015260800190565b634e487b7160e01b600052603260045260246000fd5b600060208284031215613da857600080fd5b815161273f8161363e565b6000600019821415613dc757613dc7613c92565b5060010190565b60008219821115613de157613de1613c92565b500190565b600060208284031215613df857600080fd5b815161273f81613ad9565b60008351613e158184602088016135ba565b835190830190613e298183602088016135ba565b01949350505050565b60208082526025908201527f4552433732313a207472616e736665722066726f6d20696e636f72726563742060408201526437bbb732b960d91b606082015260800190565b60208082526032908201527f4552433732313a207472616e7366657220746f206e6f6e20455243373231526560408201527131b2b4bb32b91034b6b83632b6b2b73a32b960711b606082015260800190565b6001600160a01b03858116825284166020820152604081018390526080606082018190526000906136d3908301846135e6565b600060208284031215613f0e57600080fd5b815161273f81613587565b634e487b7160e01b600052603160045260246000fdfea26469706673582212208c9330e272df4d548ee876c8e7abe1bffc637ea887bdbea6997d22dd011b93fe64736f6c63430008090033a26469706673582212203d1ac210623da7ecff99d97da917b88a8fe5659eff458e98d69c1154f84fcfec64736f6c63430008090033",
  "devdoc": {
    "kind": "dev",
    "methods": {
      "owner()": {
        "details": "Returns the address of the current owner."
      },
      "renounceOwnership()": {
        "details": "Leaves the contract without owner. It will not be possible to call `onlyOwner` functions anymore. Can only be called by the current owner. NOTE: Renouncing ownership will leave the contract without an owner, thereby removing any functionality that is only available to the owner."
      },
      "transferOwnership(address)": {
        "details": "Transfers ownership of the contract to a new account (`newOwner`). Can only be called by the current owner."
      }
    },
    "version": 1
  },
  "userdoc": {
    "kind": "user",
    "methods": {},
    "version": 1
  },
  "storageLayout": {
    "storage": [
      {
        "astId": 53,
        "contract": "contracts/StakingContract/StakingPoolFactory.sol:StakingPoolFactory",
        "label": "_owner",
        "offset": 0,
        "slot": "0",
        "type": "t_address"
      },
      {
        "astId": 9667,
        "contract": "contracts/StakingContract/StakingPoolFactory.sol:StakingPoolFactory",
        "label": "campaignFeeManager",
        "offset": 0,
        "slot": "1",
        "type": "t_address_payable"
      },
      {
        "astId": 9669,
        "contract": "contracts/StakingContract/StakingPoolFactory.sol:StakingPoolFactory",
        "label": "pmMembership",
        "offset": 0,
        "slot": "2",
        "type": "t_address"
      },
      {
        "astId": 9671,
        "contract": "contracts/StakingContract/StakingPoolFactory.sol:StakingPoolFactory",
        "label": "pmTeamManager",
        "offset": 0,
        "slot": "3",
        "type": "t_address"
      },
      {
        "astId": 9673,
        "contract": "contracts/StakingContract/StakingPoolFactory.sol:StakingPoolFactory",
        "label": "creatorManager",
        "offset": 0,
        "slot": "4",
        "type": "t_address"
      },
      {
        "astId": 9675,
        "contract": "contracts/StakingContract/StakingPoolFactory.sol:StakingPoolFactory",
        "label": "projectsCount",
        "offset": 0,
        "slot": "5",
        "type": "t_uint256"
      },
      {
        "astId": 9678,
        "contract": "contracts/StakingContract/StakingPoolFactory.sol:StakingPoolFactory",
        "label": "pause",
        "offset": 0,
        "slot": "6",
        "type": "t_bool"
      },
      {
        "astId": 9683,
        "contract": "contracts/StakingContract/StakingPoolFactory.sol:StakingPoolFactory",
        "label": "poolsOfAUser",
        "offset": 0,
        "slot": "7",
        "type": "t_mapping(t_address,t_array(t_uint256)dyn_storage)"
      },
      {
        "astId": 9688,
        "contract": "contracts/StakingContract/StakingPoolFactory.sol:StakingPoolFactory",
        "label": "poolsOfATeam",
        "offset": 0,
        "slot": "8",
        "type": "t_mapping(t_uint256,t_array(t_uint256)dyn_storage)"
      },
      {
        "astId": 9693,
        "contract": "contracts/StakingContract/StakingPoolFactory.sol:StakingPoolFactory",
        "label": "stakingPoolsByToken",
        "offset": 0,
        "slot": "9",
        "type": "t_mapping(t_address,t_array(t_address)dyn_storage)"
      },
      {
        "astId": 9697,
        "contract": "contracts/StakingContract/StakingPoolFactory.sol:StakingPoolFactory",
        "label": "stakingPoolByID",
        "offset": 0,
        "slot": "10",
        "type": "t_mapping(t_uint256,t_address)"
      }
    ],
    "types": {
      "t_address": {
        "encoding": "inplace",
        "label": "address",
        "numberOfBytes": "20"
      },
      "t_address_payable": {
        "encoding": "inplace",
        "label": "address payable",
        "numberOfBytes": "20"
      },
      "t_array(t_address)dyn_storage": {
        "base": "t_address",
        "encoding": "dynamic_array",
        "label": "address[]",
        "numberOfBytes": "32"
      },
      "t_array(t_uint256)dyn_storage": {
        "base": "t_uint256",
        "encoding": "dynamic_array",
        "label": "uint256[]",
        "numberOfBytes": "32"
      },
      "t_bool": {
        "encoding": "inplace",
        "label": "bool",
        "numberOfBytes": "1"
      },
      "t_mapping(t_address,t_array(t_address)dyn_storage)": {
        "encoding": "mapping",
        "key": "t_address",
        "label": "mapping(address => address[])",
        "numberOfBytes": "32",
        "value": "t_array(t_address)dyn_storage"
      },
      "t_mapping(t_address,t_array(t_uint256)dyn_storage)": {
        "encoding": "mapping",
        "key": "t_address",
        "label": "mapping(address => uint256[])",
        "numberOfBytes": "32",
        "value": "t_array(t_uint256)dyn_storage"
      },
      "t_mapping(t_uint256,t_address)": {
        "encoding": "mapping",
        "key": "t_uint256",
        "label": "mapping(uint256 => address)",
        "numberOfBytes": "32",
        "value": "t_address"
      },
      "t_mapping(t_uint256,t_array(t_uint256)dyn_storage)": {
        "encoding": "mapping",
        "key": "t_uint256",
        "label": "mapping(uint256 => uint256[])",
        "numberOfBytes": "32",
        "value": "t_array(t_uint256)dyn_storage"
      },
      "t_uint256": {
        "encoding": "inplace",
        "label": "uint256",
        "numberOfBytes": "32"
      }
    }
  }
}