{
  "address": "0x2B64DC525a7D61be41ab546a97d70DB057D545D1",
  "abi": [
    {
      "anonymous": false,
      "inputs": [
        {
          "indexed": false,
          "internalType": "address",
          "name": "user",
          "type": "address"
        },
        {
          "indexed": false,
          "internalType": "address",
          "name": "creator",
          "type": "address"
        }
      ],
      "name": "CreatorCreated",
      "type": "event"
    },
    {
      "inputs": [
        {
          "internalType": "address",
          "name": "user",
          "type": "address"
        }
      ],
      "name": "createACreator",
      "outputs": [
        {
          "internalType": "address",
          "name": "",
          "type": "address"
        }
      ],
      "stateMutability": "nonpayable",
      "type": "function"
    },
    {
      "inputs": [],
      "name": "createACreatorForSelf",
      "outputs": [
        {
          "internalType": "address",
          "name": "",
          "type": "address"
        }
      ],
      "stateMutability": "nonpayable",
      "type": "function"
    },
    {
      "inputs": [
        {
          "internalType": "address",
          "name": "",
          "type": "address"
        }
      ],
      "name": "creatorAddress",
      "outputs": [
        {
          "internalType": "contract CreatorContract",
          "name": "",
          "type": "address"
        }
      ],
      "stateMutability": "view",
      "type": "function"
    },
    {
      "inputs": [
        {
          "internalType": "address",
          "name": "user",
          "type": "address"
        }
      ],
      "name": "getCreatorAddress",
      "outputs": [
        {
          "internalType": "address",
          "name": "",
          "type": "address"
        }
      ],
      "stateMutability": "view",
      "type": "function"
    },
    {
      "inputs": [],
      "name": "getMyCreatorAddress",
      "outputs": [
        {
          "internalType": "address",
          "name": "",
          "type": "address"
        }
      ],
      "stateMutability": "view",
      "type": "function"
    },
    {
      "inputs": [
        {
          "internalType": "address",
          "name": "_stakingPoolManager",
          "type": "address"
        }
      ],
      "name": "setStakingPoolManager",
      "outputs": [],
      "stateMutability": "nonpayable",
      "type": "function"
    },
    {
      "inputs": [],
      "name": "stakingPoolManager",
      "outputs": [
        {
          "internalType": "address",
          "name": "",
          "type": "address"
        }
      ],
      "stateMutability": "view",
      "type": "function"
    },
    {
      "inputs": [
        {
          "internalType": "address",
          "name": "",
          "type": "address"
        }
      ],
      "name": "walletAddress",
      "outputs": [
        {
          "internalType": "address",
          "name": "",
          "type": "address"
        }
      ],
      "stateMutability": "view",
      "type": "function"
    }
  ],
  "transactionHash": "0x5ffd464f02ae8b53ec4d86d59e1dbc345cb994a60d3006a9ebd2e80eb2edf854",
  "args": [],
  "numDeployments": 3,
  "solcInputHash": "368864b5c65ce605d7a63c9d9df496aa",
  "bytecode": "0x608060405234801561001057600080fd5b506112aa806100206000396000f3fe608060405234801561001057600080fd5b50600436106100885760003560e01c8063c082c30c1161005b578063c082c30c14610147578063c6ddee2414610173578063d600af4014610186578063f0409a331461019957600080fd5b80634fb7cb271461008d5780635b78a564146100c3578063638a88ae146100f5578063677755bb1461011e575b600080fd5b336000908152600160205260409020546001600160a01b03165b6040516001600160a01b03909116815260200160405180910390f35b6100f36100d1366004610437565b600380546001600160a01b0319166001600160a01b0392909216919091179055565b005b6100a7610103366004610437565b6002602052600090815260409020546001600160a01b031681565b6100a761012c366004610437565b6001602052600090815260409020546001600160a01b031681565b6100a7610155366004610437565b6001600160a01b039081166000908152600160205260409020541690565b6100a7610181366004610437565b6101a1565b6003546100a7906001600160a01b031681565b6100a76102f9565b6001600160a01b03818116600090815260016020526040812054909116156102015760405162461bcd60e51b815260206004820152600e60248201526d416c72656164792065786973747360901b60448201526064015b60405180910390fd5b60035460405160009184916001600160a01b03909116906102219061042a565b6001600160a01b03928316815291166020820152604001604051809103906000f080158015610254573d6000803e3d6000fd5b506001600160a01b03808516600081815260016020908152604080832080549587166001600160a01b0319968716811790915583526002909152812080549093169091179091558054919250806102aa83610467565b9091555050604080516001600160a01b038086168252831660208201527f2cf58b2dfc67dd9fd9d3be318ce396658897594c9e8d321599127060601c9a9591015b60405180910390a192915050565b336000818152600160205260408120549091906001600160a01b0316156103535760405162461bcd60e51b815260206004820152600e60248201526d416c72656164792065786973747360901b60448201526064016101f8565b60035460405160009183916001600160a01b03909116906103739061042a565b6001600160a01b03928316815291166020820152604001604051809103906000f0801580156103a6573d6000803e3d6000fd5b506001600160a01b03838116600090815260016020526040812080546001600160a01b031916928416929092179091558054919250806103e583610467565b9091555050604080516001600160a01b038085168252831660208201527f2cf58b2dfc67dd9fd9d3be318ce396658897594c9e8d321599127060601c9a9591016102eb565b610de48061049183390190565b60006020828403121561044957600080fd5b81356001600160a01b038116811461046057600080fd5b9392505050565b600060001982141561048957634e487b7160e01b600052601160045260246000fd5b506001019056fe60806040523480156200001157600080fd5b5060405162000de438038062000de48339810160408190526200003491620001bf565b6200003f3362000071565b6200004a82620000c1565b600480546001600160a01b0319166001600160a01b039290921691909117905550620001f7565b600080546001600160a01b038381166001600160a01b0319831681178455604051919092169283917f8be0079c531659141344cd1fd0a4f28419497f9722a3daafe3b4186f6b6457e09190a35050565b620000cb62000144565b6001600160a01b038116620001365760405162461bcd60e51b815260206004820152602660248201527f4f776e61626c653a206e6577206f776e657220697320746865207a65726f206160448201526564647265737360d01b60648201526084015b60405180910390fd5b620001418162000071565b50565b6000546001600160a01b03163314620001a05760405162461bcd60e51b815260206004820181905260248201527f4f776e61626c653a2063616c6c6572206973206e6f7420746865206f776e657260448201526064016200012d565b565b80516001600160a01b0381168114620001ba57600080fd5b919050565b60008060408385031215620001d357600080fd5b620001de83620001a2565b9150620001ee60208401620001a2565b90509250929050565b610bdd80620002076000396000f3fe608060405234801561001057600080fd5b506004361061009e5760003560e01c8063838c003911610066578063838c00391461011b5780638da5cb5b1461012e578063a1b8adcb14610153578063ea2d03e014610166578063f2fde38b1461017b57600080fd5b8063150b7a02146100a357806343499844146100d457806361bc221a146100e95780636347503914610100578063715018a614610113575b600080fd5b6100b66100b136600461081b565b61018e565b6040516001600160e01b031990911681526020015b60405180910390f35b6100e76100e23660046108ca565b6101b1565b005b6100f260035481565b6040519081526020016100cb565b6100e761010e3660046108e7565b6101c0565b6100e7610430565b6100e76101293660046108ca565b610444565b6000546001600160a01b03165b6040516001600160a01b0390911681526020016100cb565b60045461013b906001600160a01b031681565b61016e61044f565b6040516100cb9190610909565b6100e76101893660046108ca565b610460565b601481015160009061019f816101b1565b50630a85bd0160e11b95945050505050565b6101bc6001826104de565b5050565b6101c86104fc565b60048054604051631415452760e21b81529182018390526000916001600160a01b0390911690635055149c9060240160206040518083038186803b15801561020f57600080fd5b505afa158015610223573d6000803e3d6000fd5b505050506040513d601f19601f820116820180604052508101906102479190610966565b90506001600160a01b03811661027057604051635011b19b60e11b815260040160405180910390fd5b60405163b09afec160e01b8152600481018490526000906001600160a01b0383169063b09afec19060240160006040518083038186803b1580156102b357600080fd5b505afa1580156102c7573d6000803e3d6000fd5b505050506040513d6000823e601f3d908101601f191682016040526102ef9190810190610a13565b60608101519091506001600160a01b031661031d5760405163b49aa3b560e01b815260040160405180910390fd5b806101600151610411576040808201516020830151915163a9059cbb60e01b815233600482015260248101929092526001600160a01b03169063a9059cbb90604401602060405180830381600087803b15801561037957600080fd5b505af115801561038d573d6000803e3d6000fd5b505050506040513d601f19601f820116820180604052508101906103b19190610b3b565b50604051630608e4dd60e41b8152600481018590526001600160a01b0383169063608e4dd090602401600060405180830381600087803b1580156103f457600080fd5b505af1158015610408573d6000803e3d6000fd5b5050505061042a565b60405163c47c6c3760e01b815260040160405180910390fd5b50505050565b6104386104fc565b6104426000610556565b565b6101bc6001826105a6565b606061045b60016105bb565b905090565b6104686104fc565b6001600160a01b0381166104d25760405162461bcd60e51b815260206004820152602660248201527f4f776e61626c653a206e6577206f776e657220697320746865207a65726f206160448201526564647265737360d01b60648201526084015b60405180910390fd5b6104db81610556565b50565b60006104f3836001600160a01b0384166105cf565b90505b92915050565b6000546001600160a01b031633146104425760405162461bcd60e51b815260206004820181905260248201527f4f776e61626c653a2063616c6c6572206973206e6f7420746865206f776e657260448201526064016104c9565b600080546001600160a01b038381166001600160a01b0319831681178455604051919092169283917f8be0079c531659141344cd1fd0a4f28419497f9722a3daafe3b4186f6b6457e09190a35050565b60006104f3836001600160a01b03841661061e565b606060006105c883610711565b9392505050565b6000818152600183016020526040812054610616575081546001818101845560008481526020808220909301849055845484825282860190935260409020919091556104f6565b5060006104f6565b60008181526001830160205260408120548015610707576000610642600183610b56565b855490915060009061065690600190610b56565b90508181146106bb57600086600001828154811061067657610676610b7b565b906000526020600020015490508087600001848154811061069957610699610b7b565b6000918252602080832090910192909255918252600188019052604090208390555b85548690806106cc576106cc610b91565b6001900381819060005260206000200160009055905585600101600086815260200190815260200160002060009055600193505050506104f6565b60009150506104f6565b60608160000180548060200260200160405190810160405280929190818152602001828054801561076157602002820191906000526020600020905b81548152602001906001019080831161074d575b50505050509050919050565b6001600160a01b03811681146104db57600080fd5b634e487b7160e01b600052604160045260246000fd5b6040516101c0810167ffffffffffffffff811182821017156107bc576107bc610782565b60405290565b604051601f8201601f1916810167ffffffffffffffff811182821017156107eb576107eb610782565b604052919050565b600067ffffffffffffffff82111561080d5761080d610782565b50601f01601f191660200190565b6000806000806080858703121561083157600080fd5b843561083c8161076d565b9350602085013561084c8161076d565b925060408501359150606085013567ffffffffffffffff81111561086f57600080fd5b8501601f8101871361088057600080fd5b803561089361088e826107f3565b6107c2565b8181528860208385010111156108a857600080fd5b8160208401602083013760006020838301015280935050505092959194509250565b6000602082840312156108dc57600080fd5b81356105c88161076d565b600080604083850312156108fa57600080fd5b50508035926020909101359150565b6020808252825182820181905260009190848201906040850190845b8181101561094a5783516001600160a01b031683529284019291840191600101610925565b50909695505050505050565b80516109618161076d565b919050565b60006020828403121561097857600080fd5b81516105c88161076d565b600082601f83011261099457600080fd5b81516109a261088e826107f3565b818152602085818487010111156109b857600080fd5b60005b838110156109d65785810182015183820183015281016109bb565b838111156109e75760008285850101525b509095945050505050565b805160ff8116811461096157600080fd5b8051801515811461096157600080fd5b600060208284031215610a2557600080fd5b815167ffffffffffffffff80821115610a3d57600080fd5b908301906101c08286031215610a5257600080fd5b610a5a610798565b8251815260208301516020820152610a7460408401610956565b6040820152610a8560608401610956565b6060820152610a9660808401610956565b608082015260a083015160a082015260c083015182811115610ab757600080fd5b610ac387828601610983565b60c083015250610ad560e084016109f2565b60e08201526101008381015190820152610120808401519082015261014080840151908201526101609150610b0b828401610a03565b82820152610180915081830151828201526101a09150610b2c8284016109f2565b91810191909152949350505050565b600060208284031215610b4d57600080fd5b6104f382610a03565b600082821015610b7657634e487b7160e01b600052601160045260246000fd5b500390565b634e487b7160e01b600052603260045260246000fd5b634e487b7160e01b600052603160045260246000fdfea264697066735822122074f4c079b0ef4b27a4310658dd260ac533fa0637de84eeb9798ddcb573efa20f64736f6c63430008090033a2646970667358221220ff20737abc96fbf999ec9561b135584a69b7e76b5dfad24c97db2be9ef0eb84264736f6c63430008090033",
  "devdoc": {
    "kind": "dev",
    "methods": {},
    "version": 1
  },
  "userdoc": {
    "kind": "user",
    "methods": {},
    "version": 1
  },
  "storageLayout": {
    "storage": [
      {
        "astId": 5001,
        "contract": "contracts/CreatorContract/CreatorManager.sol:CreatorManager",
        "label": "creatorsCount",
        "offset": 0,
        "slot": "0",
        "type": "t_uint256"
      },
      {
        "astId": 5006,
        "contract": "contracts/CreatorContract/CreatorManager.sol:CreatorManager",
        "label": "creatorAddress",
        "offset": 0,
        "slot": "1",
        "type": "t_mapping(t_address,t_contract(CreatorContract)4995)"
      },
      {
        "astId": 5010,
        "contract": "contracts/CreatorContract/CreatorManager.sol:CreatorManager",
        "label": "walletAddress",
        "offset": 0,
        "slot": "2",
        "type": "t_mapping(t_address,t_address)"
      },
      {
        "astId": 5012,
        "contract": "contracts/CreatorContract/CreatorManager.sol:CreatorManager",
        "label": "stakingPoolManager",
        "offset": 0,
        "slot": "3",
        "type": "t_address"
      }
    ],
    "types": {
      "t_address": {
        "encoding": "inplace",
        "label": "address",
        "numberOfBytes": "20"
      },
      "t_contract(CreatorContract)4995": {
        "encoding": "inplace",
        "label": "contract CreatorContract",
        "numberOfBytes": "20"
      },
      "t_mapping(t_address,t_address)": {
        "encoding": "mapping",
        "key": "t_address",
        "label": "mapping(address => address)",
        "numberOfBytes": "32",
        "value": "t_address"
      },
      "t_mapping(t_address,t_contract(CreatorContract)4995)": {
        "encoding": "mapping",
        "key": "t_address",
        "label": "mapping(address => contract CreatorContract)",
        "numberOfBytes": "32",
        "value": "t_contract(CreatorContract)4995"
      },
      "t_uint256": {
        "encoding": "inplace",
        "label": "uint256",
        "numberOfBytes": "32"
      }
    }
  }
}