{
  "address": "0x98f7D223777d0e495ee2f630e50b6b1b89A74fEE",
  "abi": [
    {
      "inputs": [
        {
          "internalType": "contract ICreatorManager",
          "name": "_creatorManager",
          "type": "address"
        }
      ],
      "stateMutability": "nonpayable",
      "type": "constructor"
    },
    {
      "anonymous": false,
      "inputs": [
        {
          "indexed": true,
          "internalType": "address",
          "name": "previousOwner",
          "type": "address"
        },
        {
          "indexed": true,
          "internalType": "address",
          "name": "newOwner",
          "type": "address"
        }
      ],
      "name": "OwnershipTransferred",
      "type": "event"
    },
    {
      "anonymous": false,
      "inputs": [
        {
          "indexed": false,
          "internalType": "uint256",
          "name": "poolId",
          "type": "uint256"
        },
        {
          "indexed": false,
          "internalType": "address",
          "name": "poolAddress",
          "type": "address"
        },
        {
          "indexed": false,
          "internalType": "address",
          "name": "tokenAddress",
          "type": "address"
        }
      ],
      "name": "Poolcreated",
      "type": "event"
    },
    {
      "inputs": [
        {
          "components": [
            {
              "internalType": "string",
              "name": "projectName",
              "type": "string"
            },
            {
              "internalType": "string",
              "name": "projectSymbol",
              "type": "string"
            },
            {
              "internalType": "address",
              "name": "tokenAddress",
              "type": "address"
            },
            {
              "internalType": "uint8",
              "name": "tokenDecimals",
              "type": "uint8"
            },
            {
              "internalType": "string",
              "name": "tokenSymbol",
              "type": "string"
            },
            {
              "internalType": "string",
              "name": "teamDescription",
              "type": "string"
            },
            {
              "internalType": "string",
              "name": "projectDescription",
              "type": "string"
            },
            {
              "internalType": "string",
              "name": "projectCover",
              "type": "string"
            },
            {
              "internalType": "string",
              "name": "projectAvatar",
              "type": "string"
            },
            {
              "components": [
                {
                  "internalType": "string",
                  "name": "website",
                  "type": "string"
                },
                {
                  "internalType": "string",
                  "name": "twitter",
                  "type": "string"
                },
                {
                  "internalType": "string",
                  "name": "facebook",
                  "type": "string"
                },
                {
                  "internalType": "string",
                  "name": "telegram",
                  "type": "string"
                },
                {
                  "internalType": "string",
                  "name": "discord",
                  "type": "string"
                }
              ],
              "internalType": "struct StakingLibrary.SocialHandles",
              "name": "socialHandles",
              "type": "tuple"
            }
          ],
          "internalType": "struct StakingLibrary.ProjectInfo",
          "name": "projectInfo",
          "type": "tuple"
        },
        {
          "components": [
            {
              "internalType": "uint256",
              "name": "startedAt",
              "type": "uint256"
            },
            {
              "internalType": "uint256",
              "name": "poolAmount",
              "type": "uint256"
            }
          ],
          "internalType": "struct StakingLibrary.RewardPoolInfo",
          "name": "rewardPoolInfo",
          "type": "tuple"
        },
        {
          "components": [
            {
              "internalType": "string",
              "name": "image_3_months",
              "type": "string"
            },
            {
              "internalType": "string",
              "name": "image_6_months",
              "type": "string"
            },
            {
              "internalType": "string",
              "name": "image_12_months",
              "type": "string"
            }
          ],
          "internalType": "struct StakingLibrary.Images",
          "name": "images",
          "type": "tuple"
        }
      ],
      "name": "createAStakingPool",
      "outputs": [],
      "stateMutability": "nonpayable",
      "type": "function"
    },
    {
      "inputs": [],
      "name": "creatorManager",
      "outputs": [
        {
          "internalType": "contract ICreatorManager",
          "name": "",
          "type": "address"
        }
      ],
      "stateMutability": "view",
      "type": "function"
    },
    {
      "inputs": [],
      "name": "fee",
      "outputs": [
        {
          "internalType": "uint256",
          "name": "",
          "type": "uint256"
        }
      ],
      "stateMutability": "view",
      "type": "function"
    },
    {
      "inputs": [
        {
          "internalType": "uint256",
          "name": "id",
          "type": "uint256"
        }
      ],
      "name": "getPoolByID",
      "outputs": [
        {
          "internalType": "address",
          "name": "",
          "type": "address"
        }
      ],
      "stateMutability": "view",
      "type": "function"
    },
    {
      "inputs": [
        {
          "internalType": "address",
          "name": "token",
          "type": "address"
        }
      ],
      "name": "getPoolsByToken",
      "outputs": [
        {
          "internalType": "address[]",
          "name": "",
          "type": "address[]"
        }
      ],
      "stateMutability": "view",
      "type": "function"
    },
    {
      "inputs": [],
      "name": "owner",
      "outputs": [
        {
          "internalType": "address",
          "name": "",
          "type": "address"
        }
      ],
      "stateMutability": "view",
      "type": "function"
    },
    {
      "inputs": [],
      "name": "projectsCount",
      "outputs": [
        {
          "internalType": "uint256",
          "name": "",
          "type": "uint256"
        }
      ],
      "stateMutability": "view",
      "type": "function"
    },
    {
      "inputs": [],
      "name": "renounceOwnership",
      "outputs": [],
      "stateMutability": "nonpayable",
      "type": "function"
    },
    {
      "inputs": [
        {
          "internalType": "address",
          "name": "newOwner",
          "type": "address"
        }
      ],
      "name": "transferOwnership",
      "outputs": [],
      "stateMutability": "nonpayable",
      "type": "function"
    }
  ],
  "transactionHash": "0x3871ad2259c9edf46265eea8c4f13faff791dd769e46f40da63568d6b2173060",
  "args": [
    "0x2B64DC525a7D61be41ab546a97d70DB057D545D1"
  ],
  "numDeployments": 3,
  "solcInputHash": "368864b5c65ce605d7a63c9d9df496aa",
  "bytecode": "0x60806040526706f05b59d3b2000060025534801561001c57600080fd5b506040516160ec3803806160ec83398101604081905261003b916100b9565b61004433610069565b600180546001600160a01b0319166001600160a01b03929092169190911790556100e9565b600080546001600160a01b038381166001600160a01b0319831681178455604051919092169283917f8be0079c531659141344cd1fd0a4f28419497f9722a3daafe3b4186f6b6457e09190a35050565b6000602082840312156100cb57600080fd5b81516001600160a01b03811681146100e257600080fd5b9392505050565b615ff4806100f86000396000f3fe60806040523480156200001157600080fd5b50600436106200009f5760003560e01c80638da5cb5b116200006e5780638da5cb5b1462000136578063c73b302e1462000148578063d4f47e931462000161578063ddca3f431462000175578063f2fde38b146200017f57600080fd5b80635055149c14620000a4578063715018a614620000ed5780637cf12d6614620000f957806386959b4b1462000110575b600080fd5b620000d0620000b53660046200056a565b6000908152600560205260409020546001600160a01b031690565b6040516001600160a01b0390911681526020015b60405180910390f35b620000f762000196565b005b620000f76200010a366004620008b0565b620001ae565b620001276200012136600462000a9e565b620003b9565b604051620000e4919062000ac3565b6000546001600160a01b0316620000d0565b6200015260035481565b604051908152602001620000e4565b600154620000d0906001600160a01b031681565b6200015260025481565b620000f76200019036600462000a9e565b62000431565b620001a0620004b0565b620001ac60006200050c565b565b81514210620002045760405162461bcd60e51b815260206004820152601e60248201527f53746172742074696d652073686f756c6420626520696e20667574757265000060448201526064015b60405180910390fd5b60038054906000620002168362000b12565b91905055506000600354848484600160009054906101000a90046001600160a01b03163360405162000248906200055c565b620002599695949392919062000c69565b604051809103906000f08015801562000276573d6000803e3d6000fd5b50604085810180516001600160a01b0390811660009081526004602081815285832080546001810182559084528184200180548886166001600160a01b03199182168117909255600354855260058352938790208054909416811790935593519389015194516323b872dd60e01b8152339181019190915260248101919091526044810193909352929350909116906323b872dd90606401602060405180830381600087803b1580156200032957600080fd5b505af11580156200033e573d6000803e3d6000fd5b505050506040513d601f19601f8201168201806040525081019062000364919062000e04565b5060035460408581015181519283526001600160a01b0384811660208501521682820152517fdffe5be4b28e9feff47252db2cf2054aef948f89043d4ba606b2c6a0fd0cff0d9181900360600190a150505050565b6001600160a01b0381166000908152600460209081526040918290208054835181840281018401909452808452606093928301828280156200042557602002820191906000526020600020905b81546001600160a01b0316815260019091019060200180831162000406575b50505050509050919050565b6200043b620004b0565b6001600160a01b038116620004a25760405162461bcd60e51b815260206004820152602660248201527f4f776e61626c653a206e6577206f776e657220697320746865207a65726f206160448201526564647265737360d01b6064820152608401620001fb565b620004ad816200050c565b50565b6000546001600160a01b03163314620001ac5760405162461bcd60e51b815260206004820181905260248201527f4f776e61626c653a2063616c6c6572206973206e6f7420746865206f776e65726044820152606401620001fb565b600080546001600160a01b038381166001600160a01b0319831681178455604051919092169283917f8be0079c531659141344cd1fd0a4f28419497f9722a3daafe3b4186f6b6457e09190a35050565b6151968062000e2983390190565b6000602082840312156200057d57600080fd5b5035919050565b634e487b7160e01b600052604160045260246000fd5b60405160a0810167ffffffffffffffff81118282101715620005c057620005c062000584565b60405290565b604051610140810167ffffffffffffffff81118282101715620005c057620005c062000584565b600082601f830112620005ff57600080fd5b813567ffffffffffffffff808211156200061d576200061d62000584565b604051601f8301601f19908116603f0116810190828211818310171562000648576200064862000584565b816040528381528660208588010111156200066257600080fd5b836020870160208301376000602085830101528094505050505092915050565b80356001600160a01b03811681146200069a57600080fd5b919050565b803560ff811681146200069a57600080fd5b600060a08284031215620006c457600080fd5b620006ce6200059a565b9050813567ffffffffffffffff80821115620006e957600080fd5b620006f785838601620005ed565b835260208401359150808211156200070e57600080fd5b6200071c85838601620005ed565b602084015260408401359150808211156200073657600080fd5b6200074485838601620005ed565b604084015260608401359150808211156200075e57600080fd5b6200076c85838601620005ed565b606084015260808401359150808211156200078657600080fd5b506200079584828501620005ed565b60808301525092915050565b600060408284031215620007b457600080fd5b6040516040810181811067ffffffffffffffff82111715620007da57620007da62000584565b604052823581526020928301359281019290925250919050565b6000606082840312156200080757600080fd5b6040516060810167ffffffffffffffff82821081831117156200082e576200082e62000584565b8160405282935084359150808211156200084757600080fd5b6200085586838701620005ed565b835260208501359150808211156200086c57600080fd5b6200087a86838701620005ed565b602084015260408501359150808211156200089457600080fd5b50620008a385828601620005ed565b6040830152505092915050565b600080600060808486031215620008c657600080fd5b833567ffffffffffffffff80821115620008df57600080fd5b908501906101408288031215620008f557600080fd5b620008ff620005c6565b8235828111156200090f57600080fd5b6200091d89828601620005ed565b8252506020830135828111156200093357600080fd5b6200094189828601620005ed565b602083015250620009556040840162000682565b604082015262000968606084016200069f565b60608201526080830135828111156200098057600080fd5b6200098e89828601620005ed565b60808301525060a083013582811115620009a757600080fd5b620009b589828601620005ed565b60a08301525060c083013582811115620009ce57600080fd5b620009dc89828601620005ed565b60c08301525060e083013582811115620009f557600080fd5b62000a0389828601620005ed565b60e083015250610100808401358381111562000a1e57600080fd5b62000a2c8a828701620005ed565b828401525050610120808401358381111562000a4757600080fd5b62000a558a828701620006b1565b8284015250508095505062000a6e8760208801620007a1565b9350606086013591508082111562000a8557600080fd5b5062000a9486828701620007f4565b9150509250925092565b60006020828403121562000ab157600080fd5b62000abc8262000682565b9392505050565b6020808252825182820181905260009190848201906040850190845b8181101562000b065783516001600160a01b03168352928401929184019160010162000adf565b50909695505050505050565b600060001982141562000b3557634e487b7160e01b600052601160045260246000fd5b5060010190565b6000815180845260005b8181101562000b645760208185018101518683018201520162000b46565b8181111562000b77576000602083870101525b50601f01601f19169290920160200192915050565b6000815160a0845262000ba360a085018262000b3c565b90506020830151848203602086015262000bbe828262000b3c565b9150506040830151848203604086015262000bda828262000b3c565b9150506060830151848203606086015262000bf6828262000b3c565b9150506080830151848203608086015262000c12828262000b3c565b95945050505050565b600081516060845262000c32606085018262000b3c565b90506020830151848203602086015262000c4d828262000b3c565b9150506040830151848203604086015262000c12828262000b3c565b86815260e06020820152600086516101408060e085015262000c9061022085018362000b3c565b9150602089015160df1961010081878603018188015262000cb2858462000b3c565b945060408c0151925061012062000cd3818901856001600160a01b03169052565b60608d015160ff811689870152935060808d01519450828887030161016089015262000d00868662000b3c565b955060a08d01519450828887030161018089015262000d20868662000b3c565b955060c08d0151945082888703016101a089015262000d40868662000b3c565b955060e08d0151945082888703016101c089015262000d60868662000b3c565b9550818d0151945082888703016101e089015262000d7f868662000b3c565b9550808d0151945050508086850301610200870152505062000da2828262000b8c565b8851604086015260208901516060860152915062000dbd9050565b828103608084015262000dd1818762000c1b565b91505062000dea60a08301856001600160a01b03169052565b6001600160a01b03831660c0830152979650505050505050565b60006020828403121562000e1757600080fd5b8151801515811462000abc57600080fdfe6101006040526000608090815260a06200001c6001605a620007d9565b8152601e6020808301919091526040805191820181526000825290910152805160248054909190829060ff19166001836002811115620000605762000060620007c3565b02179055506020828101516001830155604083015160028301556060830151805162000093926003850192019062000699565b5050604080516080810190915290508060018152602001620000b8600160b4620007d9565b815260326020808301919091526040805191820181526000825290910152805160288054909190829060ff19166001836002811115620000fc57620000fc620007c3565b0217905550602082810151600183015560408301516002830155606083015180516200012f926003850192019062000699565b505060408051608081019091529050806002815260200162000155600161016d620007d9565b8152605060208083019190915260408051918201815260008252909101528051602c8054909190829060ff19166001836002811115620001995762000199620007c3565b021790555060208281015160018301556040830151600283015560608301518051620001cc926003850192019062000699565b505050348015620001dc57600080fd5b506040516200519638038062005196833981016040819052620001ff9162000b62565b8451805181906200021890600090602084019062000699565b5080516200022e90600190602084019062000699565b5050835180516200024792506027916020019062000699565b5060208084015180516200026092602b92019062000699565b50604083015180516200027c91602f9160209091019062000699565b50600080526030602052602480547f686dc217b182b1fe88c7defdc5cd77807fc691ce05a160638669d7322051eee08054909160ff1690829060ff19166001836002811115620002d057620002d0620007c3565b021790555060018201548160010155600282015481600201556003820181600301908054620002ff9062000d7e565b6200030c92919062000728565b5050600160008190526030602052602880547fc7874712a1c7fb891b421aa6c0d42dbf3cd912d7a18f183783fb32e938cbaa0180549294509260ff90911691839160ff1990911690836002811115620003695762000369620007c3565b021790555060018201548160010155600282015481600201556003820181600301908054620003989062000d7e565b620003a592919062000728565b5050600260008190526030602052602c80547f89a47dfbb363dd4e64da56b4585033c9abd8a425d24b94630469c44bee7189c280549294509260ff90911691839160ff19909116906001908490811115620004045762000404620007c3565b021790555060018201548160010155600282015481600201556003820181600301908054620004339062000d7e565b6200044092919062000728565b5050855180518792506012916200045d9183916020019062000699565b50602082810151805162000478926001850192019062000699565b506040820151600282018054606085015160ff16600160a01b026001600160a81b03199091166001600160a01b039093169290921791909117905560808201518051620004d091600384019160209091019062000699565b5060a08201518051620004ee91600484019160209091019062000699565b5060c082015180516200050c91600584019160209091019062000699565b5060e082015180516200052a91600684019160209091019062000699565b5061010082015180516200054991600784019160209091019062000699565b506101208201518051805160088401916200056a9183916020019062000699565b50602082810151805162000585926001850192019062000699565b5060408201518051620005a391600284019160209091019062000699565b5060608201518051620005c191600384019160209091019062000699565b5060808201518051620005df91600484019160209091019062000699565b50508651601f5550505060208085015181558351805185926021926200060c928492919091019062000699565b50602082810151805162000627926001850192019062000699565b50604082015180516200064591600284019160209091019062000699565b505050600b95909555600c8054306001600160a01b03199182161790915560209390930151600d556011805484166001600160a01b03968716179055600a805490931694169390931790555062000dbb9050565b828054620006a79062000d7e565b90600052602060002090601f016020900481019282620006cb576000855562000716565b82601f10620006e657805160ff191683800117855562000716565b8280016001018555821562000716579182015b8281111562000716578251825591602001919060010190620006f9565b5062000724929150620007ac565b5090565b828054620007369062000d7e565b90600052602060002090601f0160209004810192826200075a576000855562000716565b82601f106200076d578054855562000716565b828001600101855582156200071657600052602060002091601f016020900482015b82811115620007165782548255916001019190600101906200078f565b5b80821115620007245760008155600101620007ad565b634e487b7160e01b600052602160045260246000fd5b60008160001904831182151516156200080257634e487b7160e01b600052601160045260246000fd5b500290565b634e487b7160e01b600052604160045260246000fd5b60405160a081016001600160401b038111828210171562000842576200084262000807565b60405290565b60405161014081016001600160401b038111828210171562000842576200084262000807565b604051601f8201601f191681016001600160401b038111828210171562000899576200089962000807565b604052919050565b600082601f830112620008b357600080fd5b81516001600160401b03811115620008cf57620008cf62000807565b6020620008e5601f8301601f191682016200086e565b8281528582848701011115620008fa57600080fd5b60005b838110156200091a578581018301518282018401528201620008fd565b838111156200092c5760008385840101525b5095945050505050565b80516001600160a01b03811681146200094e57600080fd5b919050565b805160ff811681146200094e57600080fd5b600060a082840312156200097857600080fd5b620009826200081d565b82519091506001600160401b03808211156200099d57600080fd5b620009ab85838601620008a1565b83526020840151915080821115620009c257600080fd5b620009d085838601620008a1565b60208401526040840151915080821115620009ea57600080fd5b620009f885838601620008a1565b6040840152606084015191508082111562000a1257600080fd5b62000a2085838601620008a1565b6060840152608084015191508082111562000a3a57600080fd5b5062000a4984828501620008a1565b60808301525092915050565b60006040828403121562000a6857600080fd5b604080519081016001600160401b038111828210171562000a8d5762000a8d62000807565b604052825181526020928301519281019290925250919050565b60006060828403121562000aba57600080fd5b604051606081016001600160401b03808211838310171562000ae05762000ae062000807565b81604052829350845191508082111562000af957600080fd5b62000b0786838701620008a1565b8352602085015191508082111562000b1e57600080fd5b62000b2c86838701620008a1565b6020840152604085015191508082111562000b4657600080fd5b5062000b5585828601620008a1565b6040830152505092915050565b60008060008060008060e0878903121562000b7c57600080fd5b865160208801519096506001600160401b038082111562000b9c57600080fd5b90880190610140828b03121562000bb257600080fd5b62000bbc62000848565b82518281111562000bcc57600080fd5b62000bda8c828601620008a1565b82525060208301518281111562000bf057600080fd5b62000bfe8c828601620008a1565b60208301525062000c126040840162000936565b604082015262000c256060840162000953565b606082015260808301518281111562000c3d57600080fd5b62000c4b8c828601620008a1565b60808301525060a08301518281111562000c6457600080fd5b62000c728c828601620008a1565b60a08301525060c08301518281111562000c8b57600080fd5b62000c998c828601620008a1565b60c08301525060e08301518281111562000cb257600080fd5b62000cc08c828601620008a1565b60e083015250610100808401518381111562000cdb57600080fd5b62000ce98d828701620008a1565b828401525050610120808401518381111562000d0457600080fd5b62000d128d82870162000965565b8284015250508097505062000d2b8a60408b0162000a55565b9550608089015191508082111562000d4257600080fd5b5062000d5189828a0162000aa7565b93505062000d6260a0880162000936565b915062000d7260c0880162000936565b90509295509295509295565b600181811c9082168062000d9357607f821691505b6020821081141562000db557634e487b7160e01b600052602260045260246000fd5b50919050565b6143cb8062000dcb6000396000f3fe608060405234801561001057600080fd5b50600436106101c45760003560e01c80636352211e116100f9578063b78bec7811610097578063c87b56dd11610071578063c87b56dd146103ee578063c948b74a14610401578063d4f47e9314610414578063e985e9c51461042757600080fd5b8063b78bec78146103cb578063b88d4fde146103d3578063c3880b22146103e657600080fd5b806395d89b41116100d357806395d89b4114610368578063a22cb46514610370578063a3a4393114610383578063b09afec1146103ab57600080fd5b80636352211e1461032d57806367c897fe1461034057806370a082311461035557600080fd5b806323b872dd116101665780633776ee78116101405780633776ee78146102dc57806342842e0e146102f45780634f6ccce714610307578063608e4dd01461031a57600080fd5b806323b872dd146102a3578063277c2d68146102b65780632f745c59146102c957600080fd5b8063095ea7b3116101a2578063095ea7b31461023157806318160ddd146102465780631df025c61461025857806320e0c51c1461028257600080fd5b806301ffc9a7146101c957806306fdde03146101f1578063081812fc14610206575b600080fd5b6101dc6101d7366004613871565b610463565b60405190151581526020015b60405180910390f35b6101f961048e565b6040516101e891906138e6565b6102196102143660046138f9565b610520565b6040516001600160a01b0390911681526020016101e8565b61024461023f366004613927565b610547565b005b6008545b6040519081526020016101e8565b61026b610266366004613953565b610662565b6040805192835260ff9091166020830152016101e8565b61029561029036600461397f565b610720565b6040516101e8929190613c16565b6102446102b1366004613c88565b611065565b6102446102c4366004613cc9565b611096565b61024a6102d7366004613927565b61172c565b6102e46117c2565b6040516101e89493929190613d13565b610244610302366004613c88565b611867565b61024a6103153660046138f9565b611882565b6102446103283660046138f9565b611915565b61021961033b3660046138f9565b611cd6565b610348611d36565b6040516101e89190613d9e565b61024a61036336600461397f565b6126a8565b6101f961272e565b61024461037e366004613e57565b61273d565b6103966103913660046138f9565b61274c565b604080519283526020830191909152016101e8565b6103be6103b93660046138f9565b6128cf565b6040516101e89190613e85565b6102e4612a2f565b6102446103e1366004613f4d565b612a51565b6102e4612a89565b6101f96103fc3660046138f9565b612aab565b61024461040f366004613fed565b612b1f565b600a54610219906001600160a01b031681565b6101dc6104353660046140ea565b6001600160a01b03918216600090815260056020908152604080832093909416825291909152205460ff1690565b60006001600160e01b0319821663780e9d6360e01b1480610488575061048882612bd1565b92915050565b60606000805461049d90614118565b80601f01602080910402602001604051908101604052809291908181526020018280546104c990614118565b80156105165780601f106104eb57610100808354040283529160200191610516565b820191906000526020600020905b8154815290600101906020018083116104f957829003601f168201915b5050505050905090565b600061052b82612c21565b506000908152600460205260409020546001600160a01b031690565b600061055282611cd6565b9050806001600160a01b0316836001600160a01b031614156105c55760405162461bcd60e51b815260206004820152602160248201527f4552433732313a20617070726f76616c20746f2063757272656e74206f776e656044820152603960f91b60648201526084015b60405180910390fd5b336001600160a01b03821614806105e157506105e18133610435565b6106535760405162461bcd60e51b815260206004820152603e60248201527f4552433732313a20617070726f76652063616c6c6572206973206e6f7420746f60448201527f6b656e206f776e6572206e6f7220617070726f76656420666f7220616c6c000060648201526084016105bc565b61065d8383612c83565b505050565b600080806106708585614169565b9050600061067e8642614169565b905060008261068e836064614180565b61069891906141b5565b905060328110156106b0576000935060009450610715565b603281101580156106c15750605081105b156106e757601e935060646106d6858a614180565b6106e091906141b5565b9450610715565b605081101580156106f85750606481105b1561070d576032935060646106d68986614180565b606493508794505b505050935093915050565b6107286135ed565b60606000610735846126a8565b905060008167ffffffffffffffff81111561075257610752613e98565b60405190808252806020026020018201604052801561078b57816020015b61077861367b565b8152602001906001900390816107705790505b50905060005b828110156109355760006107a5878361172c565b600081815260316020908152604080832081516101c0810183528154815260018201549381019390935260028101546001600160a01b039081169284019290925260038101548216606084015260048101549091166080830152600581015460a083015260068101805494955092939192909160c08401919061082790614118565b80601f016020809104026020016040519081016040528092919081815260200182805461085390614118565b80156108a05780601f10610875576101008083540402835291602001916108a0565b820191906000526020600020905b81548152906001019060200180831161088357829003601f168201915b5050509183525050600782015460ff90811660208301526008830154604083015260098301546060830152600a8301546080830152600b8301548116151560a0830152600c83015460c0830152600d9092015490911660e09091015284519091508190859085908110610915576109156141c9565b60200260200101819052505050808061092d906141df565b915050610791565b50601281816040518061014001604052908160008201805461095690614118565b80601f016020809104026020016040519081016040528092919081815260200182805461098290614118565b80156109cf5780601f106109a4576101008083540402835291602001916109cf565b820191906000526020600020905b8154815290600101906020018083116109b257829003601f168201915b505050505081526020016001820180546109e890614118565b80601f0160208091040260200160405190810160405280929190818152602001828054610a1490614118565b8015610a615780601f10610a3657610100808354040283529160200191610a61565b820191906000526020600020905b815481529060010190602001808311610a4457829003601f168201915b505050918352505060028201546001600160a01b0381166020830152600160a01b900460ff166040820152600382018054606090920191610aa190614118565b80601f0160208091040260200160405190810160405280929190818152602001828054610acd90614118565b8015610b1a5780601f10610aef57610100808354040283529160200191610b1a565b820191906000526020600020905b815481529060010190602001808311610afd57829003601f168201915b50505050508152602001600482018054610b3390614118565b80601f0160208091040260200160405190810160405280929190818152602001828054610b5f90614118565b8015610bac5780601f10610b8157610100808354040283529160200191610bac565b820191906000526020600020905b815481529060010190602001808311610b8f57829003601f168201915b50505050508152602001600582018054610bc590614118565b80601f0160208091040260200160405190810160405280929190818152602001828054610bf190614118565b8015610c3e5780601f10610c1357610100808354040283529160200191610c3e565b820191906000526020600020905b815481529060010190602001808311610c2157829003601f168201915b50505050508152602001600682018054610c5790614118565b80601f0160208091040260200160405190810160405280929190818152602001828054610c8390614118565b8015610cd05780601f10610ca557610100808354040283529160200191610cd0565b820191906000526020600020905b815481529060010190602001808311610cb357829003601f168201915b50505050508152602001600782018054610ce990614118565b80601f0160208091040260200160405190810160405280929190818152602001828054610d1590614118565b8015610d625780601f10610d3757610100808354040283529160200191610d62565b820191906000526020600020905b815481529060010190602001808311610d4557829003601f168201915b50505050508152602001600882016040518060a0016040529081600082018054610d8b90614118565b80601f0160208091040260200160405190810160405280929190818152602001828054610db790614118565b8015610e045780601f10610dd957610100808354040283529160200191610e04565b820191906000526020600020905b815481529060010190602001808311610de757829003601f168201915b50505050508152602001600182018054610e1d90614118565b80601f0160208091040260200160405190810160405280929190818152602001828054610e4990614118565b8015610e965780601f10610e6b57610100808354040283529160200191610e96565b820191906000526020600020905b815481529060010190602001808311610e7957829003601f168201915b50505050508152602001600282018054610eaf90614118565b80601f0160208091040260200160405190810160405280929190818152602001828054610edb90614118565b8015610f285780601f10610efd57610100808354040283529160200191610f28565b820191906000526020600020905b815481529060010190602001808311610f0b57829003601f168201915b50505050508152602001600382018054610f4190614118565b80601f0160208091040260200160405190810160405280929190818152602001828054610f6d90614118565b8015610fba5780601f10610f8f57610100808354040283529160200191610fba565b820191906000526020600020905b815481529060010190602001808311610f9d57829003601f168201915b50505050508152602001600482018054610fd390614118565b80601f0160208091040260200160405190810160405280929190818152602001828054610fff90614118565b801561104c5780601f106110215761010080835404028352916020019161104c565b820191906000526020600020905b81548152906001019060200180831161102f57829003601f168201915b5050509190925250505090525097909650945050505050565b61106f3382612cf1565b61108b5760405162461bcd60e51b81526004016105bc906141fa565b61065d838383612d70565b601f544210156110b957604051638f2d4c2d60e01b815260040160405180910390fd5b6000603060008360028111156110d1576110d1613cfd565b60028111156110e2576110e2613cfd565b8152602081019190915260409081016000208151608081019092528054829060ff16600281111561111557611115613cfd565b600281111561112657611126613cfd565b8152602001600182015481526020016002820154815260200160038201805461114e90614118565b80601f016020809104026020016040519081016040528092919081815260200182805461117a90614118565b80156111c75780601f1061119c576101008083540402835291602001916111c7565b820191906000526020600020905b8154815290600101906020018083116111aa57829003601f168201915b5050505050815250509050600060648260400151856111e69190614180565b6111f091906141b5565b905080600b600201541015611218576040516348eb126760e11b815260040160405180910390fd5b600a5460405163677755bb60e01b81523360048201526000916001600160a01b03169063677755bb9060240160206040518083038186803b15801561125c57600080fd5b505afa158015611270573d6000803e3d6000fd5b505050506040513d601f19601f820116820180604052508101906112949190614248565b90506001600160a01b03811661132457600a546040516331b77b8960e21b81523360048201526001600160a01b039091169063c6ddee2490602401602060405180830381600087803b1580156112e957600080fd5b505af11580156112fd573d6000803e3d6000fd5b505050506040513d601f19601f820116820180604052508101906113219190614248565b90505b60108054906000611334836141df565b919050555060006030600086600281111561135157611351613cfd565b600281111561136257611362613cfd565b8152602001908152602001600020600301805461137e90614118565b80601f01602080910402602001604051908101604052809291908181526020018280546113aa90614118565b80156113f75780601f106113cc576101008083540402835291602001916113f7565b820191906000526020600020905b8154815290600101906020018083116113da57829003601f168201915b5050604080516101c081018252600b548152602081018c90526014546001600160a01b0390811692820192909252336060820152908716608082015260105460a082015260c081018590529394505060e083019150879050600281111561146057611460613cfd565b60ff16815260200142815260200185602001514261147e9190614265565b8152602080820186905260006040808401829052606080850183905260809485018390526010548352603184529181902085518155858401516001820155908501516002820180546001600160a01b03199081166001600160a01b039384161790915592860151600383018054851691831691909117905593850151600482018054909316941693909317905560a0830151600583015560c0830151805161152c926006850192019061370d565b5060e082015160078201805460ff1990811660ff9384161790915561010084015160088401556101208401516009840155610140840151600a840155610160840151600b840180548316911515919091179055610180840151600c8401556101a090930151600d909201805490931691161790556014546040516323b872dd60e01b81523360048201526001600160a01b03848116602483015260448201899052909116906323b872dd90606401602060405180830381600087803b1580156115f457600080fd5b505af1158015611608573d6000803e3d6000fd5b505050506040513d601f19601f8201168201806040525081019061162c919061427d565b5082600b60020160008282546116429190614169565b9091555050600e805487919060009061165c908490614265565b9091555050600f8054906000611671836141df565b90915550506010546040516bffffffffffffffffffffffff193060601b1660208201526116b1918491603401604051602081830303815290604052612f17565b600b546010547fbbd184b832a658705e19e15121bf8abb81df8e6c59469af906e22fdf841bbffa919033898960028111156116ee576116ee613cfd565b6040805195865260208601949094526001600160a01b039290921684840152606084015260ff166080830152519081900360a00190a1505050505050565b6000611737836126a8565b82106117995760405162461bcd60e51b815260206004820152602b60248201527f455243373231456e756d657261626c653a206f776e657220696e646578206f7560448201526a74206f6620626f756e647360a81b60648201526084016105bc565b506001600160a01b03919091166000908152600660209081526040808320938352929052205490565b60288054602954602a54602b805460ff9094169492939192916117e490614118565b80601f016020809104026020016040519081016040528092919081815260200182805461181090614118565b801561185d5780601f106118325761010080835404028352916020019161185d565b820191906000526020600020905b81548152906001019060200180831161184057829003601f168201915b5050505050905084565b61065d83838360405180602001604052806000815250612a51565b600061188d60085490565b82106118f05760405162461bcd60e51b815260206004820152602c60248201527f455243373231456e756d657261626c653a20676c6f62616c20696e646578206f60448201526b7574206f6620626f756e647360a01b60648201526084016105bc565b60088281548110611903576119036141c9565b90600052602060002001549050919050565b600081815260316020908152604080832081516101c0810183528154815260018201549381019390935260028101546001600160a01b039081169284019290925260038101548216606084015260048101549091166080830152600581015460a083015260068101805460c08401919061198e90614118565b80601f01602080910402602001604051908101604052809291908181526020018280546119ba90614118565b8015611a075780601f106119dc57610100808354040283529160200191611a07565b820191906000526020600020905b8154815290600101906020018083116119ea57829003601f168201915b5050509183525050600782015460ff90811660208301526008830154604083015260098301546060830152600a830154608080840191909152600b8401548216151560a0840152600c84015460c0840152600d909301541660e0909101528101519091506001600160a01b03163314611ac25760405162461bcd60e51b815260206004820152601960248201527f4e6f7420417574686f72697a656420746f20556e7374616b650000000000000060448201526064016105bc565b600081610140015111611b0d5760405162461bcd60e51b8152602060048201526013602482015272139bdd1a1a5b99c81d1bc81d5b9cdd185ad959606a1b60448201526064016105bc565b80610160015115611b535760405162461bcd60e51b815260206004820152601060248201526f105b1c9958591e481d5b9cdd185ad95960821b60448201526064016105bc565b6000828152603160205260408120600b01805460ff191660011790556101408201516101008301516101208401518392611b8e929091610662565b6000868152603160205260408120600c8101849055600d01805460ff191660ff841617905561014086015192945090925090611bcb908490614169565b905080600b6002016000828254611be29190614265565b9091555050601454606085015160405163a9059cbb60e01b81526001600160a01b0391821660048201526024810186905291169063a9059cbb90604401602060405180830381600087803b158015611c3957600080fd5b505af1158015611c4d573d6000803e3d6000fd5b505050506040513d601f19601f82011682018060405250810190611c71919061427d565b50600b5460208581015160e08701516040805194855233938501939093529183015260ff166060820152608081018490527f8958f0c58afef19b6642cac81ae35a14e955e85b5d55cdc65c7d502eb592fe0d9060a00160405180910390a15050505050565b6000818152600260205260408120546001600160a01b0316806104885760405162461bcd60e51b8152602060048201526018602482015277115490cdcc8c4e881a5b9d985b1a59081d1bdad95b88125160421b60448201526064016105bc565b611d3e613791565b6040805161016081018252600b5460808201908152600c546001600160a01b0390811660a0840152600d5460c0840152600e5460e0840152600f5461010084015260105461012084015260115416610140808401919091529082528251908101909252601280549192602084019290919082908290611dbc90614118565b80601f0160208091040260200160405190810160405280929190818152602001828054611de890614118565b8015611e355780601f10611e0a57610100808354040283529160200191611e35565b820191906000526020600020905b815481529060010190602001808311611e1857829003601f168201915b50505050508152602001600182018054611e4e90614118565b80601f0160208091040260200160405190810160405280929190818152602001828054611e7a90614118565b8015611ec75780601f10611e9c57610100808354040283529160200191611ec7565b820191906000526020600020905b815481529060010190602001808311611eaa57829003601f168201915b505050918352505060028201546001600160a01b0381166020830152600160a01b900460ff166040820152600382018054606090920191611f0790614118565b80601f0160208091040260200160405190810160405280929190818152602001828054611f3390614118565b8015611f805780601f10611f5557610100808354040283529160200191611f80565b820191906000526020600020905b815481529060010190602001808311611f6357829003601f168201915b50505050508152602001600482018054611f9990614118565b80601f0160208091040260200160405190810160405280929190818152602001828054611fc590614118565b80156120125780601f10611fe757610100808354040283529160200191612012565b820191906000526020600020905b815481529060010190602001808311611ff557829003601f168201915b5050505050815260200160058201805461202b90614118565b80601f016020809104026020016040519081016040528092919081815260200182805461205790614118565b80156120a45780601f10612079576101008083540402835291602001916120a4565b820191906000526020600020905b81548152906001019060200180831161208757829003601f168201915b505050505081526020016006820180546120bd90614118565b80601f01602080910402602001604051908101604052809291908181526020018280546120e990614118565b80156121365780601f1061210b57610100808354040283529160200191612136565b820191906000526020600020905b81548152906001019060200180831161211957829003601f168201915b5050505050815260200160078201805461214f90614118565b80601f016020809104026020016040519081016040528092919081815260200182805461217b90614118565b80156121c85780601f1061219d576101008083540402835291602001916121c8565b820191906000526020600020905b8154815290600101906020018083116121ab57829003601f168201915b50505050508152602001600882016040518060a00160405290816000820180546121f190614118565b80601f016020809104026020016040519081016040528092919081815260200182805461221d90614118565b801561226a5780601f1061223f5761010080835404028352916020019161226a565b820191906000526020600020905b81548152906001019060200180831161224d57829003601f168201915b5050505050815260200160018201805461228390614118565b80601f01602080910402602001604051908101604052809291908181526020018280546122af90614118565b80156122fc5780601f106122d1576101008083540402835291602001916122fc565b820191906000526020600020905b8154815290600101906020018083116122df57829003601f168201915b5050505050815260200160028201805461231590614118565b80601f016020809104026020016040519081016040528092919081815260200182805461234190614118565b801561238e5780601f106123635761010080835404028352916020019161238e565b820191906000526020600020905b81548152906001019060200180831161237157829003601f168201915b505050505081526020016003820180546123a790614118565b80601f01602080910402602001604051908101604052809291908181526020018280546123d390614118565b80156124205780601f106123f557610100808354040283529160200191612420565b820191906000526020600020905b81548152906001019060200180831161240357829003601f168201915b5050505050815260200160048201805461243990614118565b80601f016020809104026020016040519081016040528092919081815260200182805461246590614118565b80156124b25780601f10612487576101008083540402835291602001916124b2565b820191906000526020600020905b81548152906001019060200180831161249557829003601f168201915b505050919092525050509052508152604080518082018252601f548152602080548282015283015280516060810182526021805492909301929091829082906124fa90614118565b80601f016020809104026020016040519081016040528092919081815260200182805461252690614118565b80156125735780601f1061254857610100808354040283529160200191612573565b820191906000526020600020905b81548152906001019060200180831161255657829003601f168201915b5050505050815260200160018201805461258c90614118565b80601f01602080910402602001604051908101604052809291908181526020018280546125b890614118565b80156126055780601f106125da57610100808354040283529160200191612605565b820191906000526020600020905b8154815290600101906020018083116125e857829003601f168201915b5050505050815260200160028201805461261e90614118565b80601f016020809104026020016040519081016040528092919081815260200182805461264a90614118565b80156126975780601f1061266c57610100808354040283529160200191612697565b820191906000526020600020905b81548152906001019060200180831161267a57829003601f168201915b505050505081525050815250905090565b60006001600160a01b0382166127125760405162461bcd60e51b815260206004820152602960248201527f4552433732313a2061646472657373207a65726f206973206e6f7420612076616044820152683634b21037bbb732b960b91b60648201526084016105bc565b506001600160a01b031660009081526003602052604090205490565b60606001805461049d90614118565b612748338383612f4a565b5050565b600081815260316020908152604080832081516101c0810183528154815260018201549381019390935260028101546001600160a01b039081169284019290925260038101548216606084015260048101549091166080830152600581015460a0830152600681018054849384939092909160c0840191906127cd90614118565b80601f01602080910402602001604051908101604052809291908181526020018280546127f990614118565b80156128465780601f1061281b57610100808354040283529160200191612846565b820191906000526020600020905b81548152906001019060200180831161282957829003601f168201915b5050509183525050600782015460ff90811660208301526008830154604083015260098301546060830152600a8301546080830152600b8301548116151560a0830152600c83015460c0830152600d9092015490911660e0909101526101408101516101008201516101208301519195509192506128c5918591610662565b5092949293505050565b6128d761367b565b60008281526031602090815260409182902082516101c0810184528154815260018201549281019290925260028101546001600160a01b039081169383019390935260038101548316606083015260048101549092166080820152600582015460a082015260068201805491929160c08401919061295490614118565b80601f016020809104026020016040519081016040528092919081815260200182805461298090614118565b80156129cd5780601f106129a2576101008083540402835291602001916129cd565b820191906000526020600020905b8154815290600101906020018083116129b057829003601f168201915b5050509183525050600782015460ff90811660208301526008830154604083015260098301546060830152600a8301546080830152600b8301548116151560a0830152600c83015460c0830152600d9092015490911660e09091015292915050565b602480546025546026546027805460ff9094169492939192916117e490614118565b612a5b3383612cf1565b612a775760405162461bcd60e51b81526004016105bc906141fa565b612a8384848484613019565b50505050565b602c8054602d54602e54602f805460ff9094169492939192916117e490614118565b6060612ab682612c21565b6000612acd60408051602081019091526000815290565b90506000815111612aed5760405180602001604052806000815250612b18565b80612af78461304c565b604051602001612b0892919061429a565b6040516020818303038152906040525b9392505050565b6011546001600160a01b03163314612b4a5760405163057e81db60e31b815260040160405180910390fd5b805180518291601a91612b6491839160209091019061370d565b506020828101518051612b7d926001850192019061370d565b5060408201518051612b9991600284019160209091019061370d565b5060608201518051612bb591600384019160209091019061370d565b5060808201518051612a8391600484019160209091019061370d565b60006001600160e01b031982166380ac58cd60e01b1480612c0257506001600160e01b03198216635b5e139f60e01b145b8061048857506301ffc9a760e01b6001600160e01b0319831614610488565b6000818152600260205260409020546001600160a01b0316612c805760405162461bcd60e51b8152602060048201526018602482015277115490cdcc8c4e881a5b9d985b1a59081d1bdad95b88125160421b60448201526064016105bc565b50565b600081815260046020526040902080546001600160a01b0319166001600160a01b0384169081179091558190612cb882611cd6565b6001600160a01b03167f8c5be1e5ebec7d5bd14f71427d1e84f3dd0314c0f7b2291e5b200ac8c7c3b92560405160405180910390a45050565b600080612cfd83611cd6565b9050806001600160a01b0316846001600160a01b03161480612d4457506001600160a01b0380821660009081526005602090815260408083209388168352929052205460ff165b80612d685750836001600160a01b0316612d5d84610520565b6001600160a01b0316145b949350505050565b826001600160a01b0316612d8382611cd6565b6001600160a01b031614612de75760405162461bcd60e51b815260206004820152602560248201527f4552433732313a207472616e736665722066726f6d20696e636f72726563742060448201526437bbb732b960d91b60648201526084016105bc565b6001600160a01b038216612e495760405162461bcd60e51b8152602060048201526024808201527f4552433732313a207472616e7366657220746f20746865207a65726f206164646044820152637265737360e01b60648201526084016105bc565b612e5483838361314a565b612e5f600082612c83565b6001600160a01b0383166000908152600360205260408120805460019290612e88908490614169565b90915550506001600160a01b0382166000908152600360205260408120805460019290612eb6908490614265565b909155505060008181526002602052604080822080546001600160a01b0319166001600160a01b0386811691821790925591518493918716917fddf252ad1be2c89b69c2b068fc378daa952ba7f163c4a11628f55a4df523b3ef91a4505050565b612f218383613202565b612f2e6000848484613350565b61065d5760405162461bcd60e51b81526004016105bc906142c9565b816001600160a01b0316836001600160a01b03161415612fac5760405162461bcd60e51b815260206004820152601960248201527f4552433732313a20617070726f766520746f2063616c6c65720000000000000060448201526064016105bc565b6001600160a01b03838116600081815260056020908152604080832094871680845294825291829020805460ff191686151590811790915591519182527f17307eab39ab6107e8899845ad3d59bd9653f200f220920489ca2b5937696c31910160405180910390a3505050565b613024848484612d70565b61303084848484613350565b612a835760405162461bcd60e51b81526004016105bc906142c9565b6060816130705750506040805180820190915260018152600360fc1b602082015290565b8160005b811561309a5780613084816141df565b91506130939050600a836141b5565b9150613074565b60008167ffffffffffffffff8111156130b5576130b5613e98565b6040519080825280601f01601f1916602001820160405280156130df576020820181803683370190505b5090505b8415612d68576130f4600183614169565b9150613101600a8661431b565b61310c906030614265565b60f81b818381518110613121576131216141c9565b60200101906001600160f81b031916908160001a905350613143600a866141b5565b94506130e3565b6001600160a01b0383166131a5576131a081600880546000838152600960205260408120829055600182018355919091527ff3f7a9fe364faab93b216da50a3214154f22a0a2b415b23a84c8169e8b636ee30155565b6131c8565b816001600160a01b0316836001600160a01b0316146131c8576131c8838261345d565b6001600160a01b0382166131df5761065d816134fa565b826001600160a01b0316826001600160a01b03161461065d5761065d82826135a9565b6001600160a01b0382166132585760405162461bcd60e51b815260206004820181905260248201527f4552433732313a206d696e7420746f20746865207a65726f206164647265737360448201526064016105bc565b6000818152600260205260409020546001600160a01b0316156132bd5760405162461bcd60e51b815260206004820152601c60248201527f4552433732313a20746f6b656e20616c7265616479206d696e7465640000000060448201526064016105bc565b6132c96000838361314a565b6001600160a01b03821660009081526003602052604081208054600192906132f2908490614265565b909155505060008181526002602052604080822080546001600160a01b0319166001600160a01b03861690811790915590518392907fddf252ad1be2c89b69c2b068fc378daa952ba7f163c4a11628f55a4df523b3ef908290a45050565b60006001600160a01b0384163b1561345257604051630a85bd0160e11b81526001600160a01b0385169063150b7a029061339490339089908890889060040161432f565b602060405180830381600087803b1580156133ae57600080fd5b505af19250505080156133de575060408051601f3d908101601f191682019092526133db91810190614362565b60015b613438573d80801561340c576040519150601f19603f3d011682016040523d82523d6000602084013e613411565b606091505b5080516134305760405162461bcd60e51b81526004016105bc906142c9565b805181602001fd5b6001600160e01b031916630a85bd0160e11b149050612d68565b506001949350505050565b6000600161346a846126a8565b6134749190614169565b6000838152600760205260409020549091508082146134c7576001600160a01b03841660009081526006602090815260408083208584528252808320548484528184208190558352600790915290208190555b5060009182526007602090815260408084208490556001600160a01b039094168352600681528383209183525290812055565b60085460009061350c90600190614169565b60008381526009602052604081205460088054939450909284908110613534576135346141c9565b906000526020600020015490508060088381548110613555576135556141c9565b600091825260208083209091019290925582815260099091526040808220849055858252812055600880548061358d5761358d61437f565b6001900381819060005260206000200160009055905550505050565b60006135b4836126a8565b6001600160a01b039093166000908152600660209081526040808320868452825280832085905593825260079052919091209190915550565b604051806101400160405280606081526020016060815260200160006001600160a01b03168152602001600060ff16815260200160608152602001606081526020016060815260200160608152602001606081526020016136766040518060a0016040528060608152602001606081526020016060815260200160608152602001606081525090565b905290565b604051806101c00160405280600081526020016000815260200160006001600160a01b0316815260200160006001600160a01b0316815260200160006001600160a01b031681526020016000815260200160608152602001600060ff16815260200160008152602001600081526020016000815260200160001515815260200160008152602001600060ff1681525090565b82805461371990614118565b90600052602060002090601f01602090048101928261373b5760008555613781565b82601f1061375457805160ff1916838001178555613781565b82800160010185558215613781579182015b82811115613781578251825591602001919060010190613766565b5061378d929150613846565b5090565b60405180608001604052806137ee6040518060e001604052806000815260200160006001600160a01b031681526020016000815260200160008152602001600081526020016000815260200160006001600160a01b031681525090565b81526020016137fb6135ed565b815260200161381d604051806040016040528060008152602001600081525090565b815260200161367660405180606001604052806060815260200160608152602001606081525090565b5b8082111561378d5760008155600101613847565b6001600160e01b031981168114612c8057600080fd5b60006020828403121561388357600080fd5b8135612b188161385b565b60005b838110156138a9578181015183820152602001613891565b83811115612a835750506000910152565b600081518084526138d281602086016020860161388e565b601f01601f19169290920160200192915050565b602081526000612b1860208301846138ba565b60006020828403121561390b57600080fd5b5035919050565b6001600160a01b0381168114612c8057600080fd5b6000806040838503121561393a57600080fd5b823561394581613912565b946020939093013593505050565b60008060006060848603121561396857600080fd5b505081359360208301359350604090920135919050565b60006020828403121561399157600080fd5b8135612b1881613912565b6000815160a084526139b160a08501826138ba565b9050602083015184820360208601526139ca82826138ba565b915050604083015184820360408601526139e482826138ba565b915050606083015184820360608601526139fe82826138ba565b91505060808301518482036080860152613a1882826138ba565b95945050505050565b60006101408251818552613a37828601826138ba565b91505060208301518482036020860152613a5182826138ba565b9150506040830151613a6e60408601826001600160a01b03169052565b506060830151613a83606086018260ff169052565b5060808301518482036080860152613a9b82826138ba565b91505060a083015184820360a0860152613ab582826138ba565b91505060c083015184820360c0860152613acf82826138ba565b91505060e083015184820360e0860152613ae982826138ba565b9150506101008084015185830382870152613b0483826138ba565b925050506101208084015185830382870152613b20838261399c565b9695505050505050565b60006101c082518452602083015160208501526040830151613b5760408601826001600160a01b03169052565b506060830151613b7260608601826001600160a01b03169052565b506080830151613b8d60808601826001600160a01b03169052565b5060a083015160a085015260c08301518160c0860152613baf828601826138ba565b91505060e0830151613bc660e086018260ff169052565b506101008381015190850152610120808401519085015261014080840151908501526101608084015115159085015261018080840151908501526101a09283015160ff1692909301919091525090565b604081526000613c296040830185613a21565b6020838203818501528185518084528284019150828160051b85010183880160005b83811015613c7957601f19878403018552613c67838351613b2a565b94860194925090850190600101613c4b565b50909998505050505050505050565b600080600060608486031215613c9d57600080fd5b8335613ca881613912565b92506020840135613cb881613912565b929592945050506040919091013590565b60008060408385031215613cdc57600080fd5b82359150602083013560038110613cf257600080fd5b809150509250929050565b634e487b7160e01b600052602160045260246000fd5b600060038610613d3357634e487b7160e01b600052602160045260246000fd5b85825284602083015283604083015260806060830152613b2060808301846138ba565b6000815160608452613d6b60608501826138ba565b905060208301518482036020860152613d8482826138ba565b91505060408301518482036040860152613a1882826138ba565b602081526000825180516020840152602081015160018060a01b0380821660408601526040830151606086015260608301516080860152608083015160a086015260a083015160c08601528060c08401511660e0860152505050602083015161016080610100850152613e15610180850183613a21565b60408601518051610120870152602001516101408601526060860151858203601f190183870152909250613b208382613d56565b8015158114612c8057600080fd5b60008060408385031215613e6a57600080fd5b8235613e7581613912565b91506020830135613cf281613e49565b602081526000612b186020830184613b2a565b634e487b7160e01b600052604160045260246000fd5b60405160a0810167ffffffffffffffff81118282101715613ed157613ed1613e98565b60405290565b600067ffffffffffffffff80841115613ef257613ef2613e98565b604051601f8501601f19908116603f01168101908282118183101715613f1a57613f1a613e98565b81604052809350858152868686011115613f3357600080fd5b858560208301376000602087830101525050509392505050565b60008060008060808587031215613f6357600080fd5b8435613f6e81613912565b93506020850135613f7e81613912565b925060408501359150606085013567ffffffffffffffff811115613fa157600080fd5b8501601f81018713613fb257600080fd5b613fc187823560208401613ed7565b91505092959194509250565b600082601f830112613fde57600080fd5b612b1883833560208501613ed7565b600060208284031215613fff57600080fd5b813567ffffffffffffffff8082111561401757600080fd5b9083019060a0828603121561402b57600080fd5b614033613eae565b82358281111561404257600080fd5b61404e87828601613fcd565b82525060208301358281111561406357600080fd5b61406f87828601613fcd565b60208301525060408301358281111561408757600080fd5b61409387828601613fcd565b6040830152506060830135828111156140ab57600080fd5b6140b787828601613fcd565b6060830152506080830135828111156140cf57600080fd5b6140db87828601613fcd565b60808301525095945050505050565b600080604083850312156140fd57600080fd5b823561410881613912565b91506020830135613cf281613912565b600181811c9082168061412c57607f821691505b6020821081141561414d57634e487b7160e01b600052602260045260246000fd5b50919050565b634e487b7160e01b600052601160045260246000fd5b60008282101561417b5761417b614153565b500390565b600081600019048311821515161561419a5761419a614153565b500290565b634e487b7160e01b600052601260045260246000fd5b6000826141c4576141c461419f565b500490565b634e487b7160e01b600052603260045260246000fd5b60006000198214156141f3576141f3614153565b5060010190565b6020808252602e908201527f4552433732313a2063616c6c6572206973206e6f7420746f6b656e206f776e6560408201526d1c881b9bdc88185c1c1c9bdd995960921b606082015260800190565b60006020828403121561425a57600080fd5b8151612b1881613912565b6000821982111561427857614278614153565b500190565b60006020828403121561428f57600080fd5b8151612b1881613e49565b600083516142ac81846020880161388e565b8351908301906142c081836020880161388e565b01949350505050565b60208082526032908201527f4552433732313a207472616e7366657220746f206e6f6e20455243373231526560408201527131b2b4bb32b91034b6b83632b6b2b73a32b960711b606082015260800190565b60008261432a5761432a61419f565b500690565b6001600160a01b0385811682528416602082015260408101839052608060608201819052600090613b20908301846138ba565b60006020828403121561437457600080fd5b8151612b188161385b565b634e487b7160e01b600052603160045260246000fdfea2646970667358221220f2538a25bf1abea670c9b8042a2ddaf71732830552368376a853f1eb9db1fcc664736f6c63430008090033a2646970667358221220155772e6d21fb48963c4c16dc2aea599965c1e2b0ff17817b15169ad010f2e2864736f6c63430008090033",
  "devdoc": {
    "kind": "dev",
    "methods": {
      "owner()": {
        "details": "Returns the address of the current owner."
      },
      "renounceOwnership()": {
        "details": "Leaves the contract without owner. It will not be possible to call `onlyOwner` functions anymore. Can only be called by the current owner. NOTE: Renouncing ownership will leave the contract without an owner, thereby removing any functionality that is only available to the owner."
      },
      "transferOwnership(address)": {
        "details": "Transfers ownership of the contract to a new account (`newOwner`). Can only be called by the current owner."
      }
    },
    "version": 1
  },
  "userdoc": {
    "kind": "user",
    "methods": {},
    "version": 1
  },
  "storageLayout": {
    "storage": [
      {
        "astId": 7,
        "contract": "contracts/StakingContract/StakingPoolFactory.sol:StakingPoolFactory",
        "label": "_owner",
        "offset": 0,
        "slot": "0",
        "type": "t_address"
      },
      {
        "astId": 5983,
        "contract": "contracts/StakingContract/StakingPoolFactory.sol:StakingPoolFactory",
        "label": "creatorManager",
        "offset": 0,
        "slot": "1",
        "type": "t_contract(ICreatorManager)6329"
      },
      {
        "astId": 5986,
        "contract": "contracts/StakingContract/StakingPoolFactory.sol:StakingPoolFactory",
        "label": "fee",
        "offset": 0,
        "slot": "2",
        "type": "t_uint256"
      },
      {
        "astId": 5988,
        "contract": "contracts/StakingContract/StakingPoolFactory.sol:StakingPoolFactory",
        "label": "projectsCount",
        "offset": 0,
        "slot": "3",
        "type": "t_uint256"
      },
      {
        "astId": 5993,
        "contract": "contracts/StakingContract/StakingPoolFactory.sol:StakingPoolFactory",
        "label": "stakingPoolsByToken",
        "offset": 0,
        "slot": "4",
        "type": "t_mapping(t_address,t_array(t_address)dyn_storage)"
      },
      {
        "astId": 5997,
        "contract": "contracts/StakingContract/StakingPoolFactory.sol:StakingPoolFactory",
        "label": "stakingPoolByID",
        "offset": 0,
        "slot": "5",
        "type": "t_mapping(t_uint256,t_address)"
      }
    ],
    "types": {
      "t_address": {
        "encoding": "inplace",
        "label": "address",
        "numberOfBytes": "20"
      },
      "t_array(t_address)dyn_storage": {
        "base": "t_address",
        "encoding": "dynamic_array",
        "label": "address[]",
        "numberOfBytes": "32"
      },
      "t_contract(ICreatorManager)6329": {
        "encoding": "inplace",
        "label": "contract ICreatorManager",
        "numberOfBytes": "20"
      },
      "t_mapping(t_address,t_array(t_address)dyn_storage)": {
        "encoding": "mapping",
        "key": "t_address",
        "label": "mapping(address => address[])",
        "numberOfBytes": "32",
        "value": "t_array(t_address)dyn_storage"
      },
      "t_mapping(t_uint256,t_address)": {
        "encoding": "mapping",
        "key": "t_uint256",
        "label": "mapping(uint256 => address)",
        "numberOfBytes": "32",
        "value": "t_address"
      },
      "t_uint256": {
        "encoding": "inplace",
        "label": "uint256",
        "numberOfBytes": "32"
      }
    }
  }
}