{
  "address": "0xA470371c789ce85f6f8dab00293A7D36718B116e",
  "abi": [
    {
      "inputs": [
        {
          "internalType": "address",
          "name": "_giveAwayManager",
          "type": "address"
        }
      ],
      "stateMutability": "nonpayable",
      "type": "constructor"
    },
    {
      "inputs": [],
      "name": "NOT_ENOUGH_BALANCE",
      "type": "error"
    },
    {
      "anonymous": false,
      "inputs": [
        {
          "indexed": true,
          "internalType": "address",
          "name": "previousOwner",
          "type": "address"
        },
        {
          "indexed": true,
          "internalType": "address",
          "name": "newOwner",
          "type": "address"
        }
      ],
      "name": "OwnershipTransferred",
      "type": "event"
    },
    {
      "anonymous": false,
      "inputs": [
        {
          "indexed": false,
          "internalType": "address",
          "name": "",
          "type": "address"
        },
        {
          "indexed": false,
          "internalType": "uint256",
          "name": "",
          "type": "uint256"
        }
      ],
      "name": "Received",
      "type": "event"
    },
    {
      "anonymous": false,
      "inputs": [
        {
          "indexed": false,
          "internalType": "address",
          "name": "",
          "type": "address"
        },
        {
          "indexed": false,
          "internalType": "address",
          "name": "",
          "type": "address"
        },
        {
          "indexed": false,
          "internalType": "uint256",
          "name": "",
          "type": "uint256"
        },
        {
          "indexed": false,
          "internalType": "uint8",
          "name": "",
          "type": "uint8"
        }
      ],
      "name": "RewardApplied",
      "type": "event"
    },
    {
      "inputs": [
        {
          "internalType": "address",
          "name": "campaign",
          "type": "address"
        },
        {
          "internalType": "address",
          "name": "user",
          "type": "address"
        },
        {
          "internalType": "uint8",
          "name": "amountUSD",
          "type": "uint8"
        },
        {
          "internalType": "enum StakingLibrary.StakingType",
          "name": "_type",
          "type": "uint8"
        }
      ],
      "name": "applyRewardToACampaing",
      "outputs": [],
      "stateMutability": "nonpayable",
      "type": "function"
    },
    {
      "inputs": [
        {
          "internalType": "address",
          "name": "winner",
          "type": "address"
        },
        {
          "internalType": "uint8",
          "name": "prizeUSD",
          "type": "uint8"
        }
      ],
      "name": "distributeReward",
      "outputs": [],
      "stateMutability": "nonpayable",
      "type": "function"
    },
    {
      "inputs": [],
      "name": "emergencyWithdraw",
      "outputs": [],
      "stateMutability": "nonpayable",
      "type": "function"
    },
    {
      "inputs": [],
      "name": "getLatestPriceOfOneUSD",
      "outputs": [
        {
          "internalType": "int256",
          "name": "price",
          "type": "int256"
        }
      ],
      "stateMutability": "pure",
      "type": "function"
    },
    {
      "inputs": [],
      "name": "giveAwayManager",
      "outputs": [
        {
          "internalType": "address",
          "name": "",
          "type": "address"
        }
      ],
      "stateMutability": "view",
      "type": "function"
    },
    {
      "inputs": [],
      "name": "owner",
      "outputs": [
        {
          "internalType": "address",
          "name": "",
          "type": "address"
        }
      ],
      "stateMutability": "view",
      "type": "function"
    },
    {
      "inputs": [],
      "name": "renounceOwnership",
      "outputs": [],
      "stateMutability": "nonpayable",
      "type": "function"
    },
    {
      "inputs": [
        {
          "internalType": "contract IUniswapV2Router02",
          "name": "_uniswapV2Router",
          "type": "address"
        }
      ],
      "name": "setRouter",
      "outputs": [],
      "stateMutability": "nonpayable",
      "type": "function"
    },
    {
      "inputs": [
        {
          "internalType": "address",
          "name": "newOwner",
          "type": "address"
        }
      ],
      "name": "transferOwnership",
      "outputs": [],
      "stateMutability": "nonpayable",
      "type": "function"
    },
    {
      "inputs": [],
      "name": "uniswapV2Router",
      "outputs": [
        {
          "internalType": "contract IUniswapV2Router02",
          "name": "",
          "type": "address"
        }
      ],
      "stateMutability": "view",
      "type": "function"
    },
    {
      "inputs": [
        {
          "internalType": "address",
          "name": "_giveAwayManager",
          "type": "address"
        }
      ],
      "name": "updateGiveAwayManager",
      "outputs": [],
      "stateMutability": "nonpayable",
      "type": "function"
    },
    {
      "stateMutability": "payable",
      "type": "receive"
    }
  ],
  "transactionHash": "0x3ef1d5c3bb7ac71e3e56206f5d6993607ae660cf100f047d70979be1fdb48cec",
  "args": [
    "0xE813d775f33a97BDA25D71240525C724423D4Cd0"
  ],
  "numDeployments": 1,
  "solcInputHash": "90e023f6605d1bffee9acc929bb68af3",
  "bytecode": "0x6080604052600180546001600160a01b031990811673d4a33860578de61dbabdc8bfdb98fd742fa7028e1790915560028054909116737a250d5630b4cf539739df2c5dacb4c659f2488d17905534801561005857600080fd5b50604051611255380380611255833981016040819052610077916100f5565b610080336100a5565b600380546001600160a01b0319166001600160a01b0392909216919091179055610125565b600080546001600160a01b038381166001600160a01b0319831681178455604051919092169283917f8be0079c531659141344cd1fd0a4f28419497f9722a3daafe3b4186f6b6457e09190a35050565b60006020828403121561010757600080fd5b81516001600160a01b038116811461011e57600080fd5b9392505050565b611121806101346000396000f3fe6080604052600436106100a05760003560e01c80638da5cb5b116100645780638da5cb5b1461019a578063c0d78655146101b8578063d478c0e0146101d8578063db2e21bc146101f8578063f206f2db1461020d578063f2fde38b1461022d57600080fd5b806302a64a4b146100e45780631694505e1461010b578063190f5ded14610143578063442f1f6514610165578063715018a61461018557600080fd5b366100df57604080513381523460208201527f88a5966d370b9919b20f3e2c13ff65706f196a4e32cc2c12bf57088f88525874910160405180910390a1005b600080fd5b3480156100f057600080fd5b506040516602b0614fb6df5b81526020015b60405180910390f35b34801561011757600080fd5b5060025461012b906001600160a01b031681565b6040516001600160a01b039091168152602001610102565b34801561014f57600080fd5b5061016361015e3660046109a8565b61024d565b005b34801561017157600080fd5b50610163610180366004610a04565b6104c3565b34801561019157600080fd5b506101636104ed565b3480156101a657600080fd5b506000546001600160a01b031661012b565b3480156101c457600080fd5b506101636101d3366004610a04565b610501565b3480156101e457600080fd5b506101636101f3366004610a28565b61052b565b34801561020457600080fd5b506101636105ee565b34801561021957600080fd5b5060035461012b906001600160a01b031681565b34801561023957600080fd5b50610163610248366004610a04565b61068b565b6003546001600160a01b0316331461029c5760405162461bcd60e51b815260206004820152600d60248201526c139bc8105d5d1a1bdc9a5e9959609a1b60448201526064015b60405180910390fd5b6602b0614fb6df5b60006102b360ff851683610a77565b905047818110156102d75760405163119563e560e31b815260040160405180910390fd5b6000876001600160a01b03166367c897fe6040518163ffffffff1660e01b815260040160006040518083038186803b15801561031257600080fd5b505afa158015610326573d6000803e3d6000fd5b505050506040513d6000823e601f3d908101601f1916820160405261034e9190810190610de0565b6020810151606001519091506000610367823087610704565b60405163095ea7b360e01b81526001600160a01b038c81166004830152602482018390529192509083169063095ea7b390604401602060405180830381600087803b1580156103b557600080fd5b505af11580156103c9573d6000803e3d6000fd5b505050506040513d601f19601f820116820180604052508101906103ed9190610efe565b5060405163018de22360e61b81526001600160a01b038b169063637888c09061041e908c9085908c90600401610f36565b600060405180830381600087803b15801561043857600080fd5b505af115801561044c573d6000803e3d6000fd5b505050507f4d7cc17f866386d5d89d8e5590222a32b2f868de90f085e211d0643cc6d8fa5d8a8a838a600281111561048657610486610f20565b604080516001600160a01b0395861681529490931660208501529183015260ff16606082015260800160405180910390a150505050505050505050565b6104cb6108cd565b600380546001600160a01b0319166001600160a01b0392909216919091179055565b6104f56108cd565b6104ff6000610927565b565b6105096108cd565b600280546001600160a01b0319166001600160a01b0392909216919091179055565b6003546001600160a01b031633146105755760405162461bcd60e51b815260206004820152600d60248201526c139bc8105d5d1a1bdc9a5e9959609a1b6044820152606401610293565b6602b0614fb6df5b600061058c60ff841683610a77565b905047818110156105b05760405163119563e560e31b815260040160405180910390fd5b6040516001600160a01b0386169083156108fc029084906000818181858888f193505050501580156105e6573d6000803e3d6000fd5b505050505050565b6105f66108cd565b478061064e5760405162461bcd60e51b815260206004820152602160248201527f4e6f2062616c616e63652061766169616c626c6520666f7220776974686472616044820152607760f81b6064820152608401610293565b600080546040516001600160a01b039091169183156108fc02918491818181858888f19350505050158015610687573d6000803e3d6000fd5b5050565b6106936108cd565b6001600160a01b0381166106f85760405162461bcd60e51b815260206004820152602660248201527f4f776e61626c653a206e6577206f776e657220697320746865207a65726f206160448201526564647265737360d01b6064820152608401610293565b61070181610927565b50565b604080516002808252606082018352600092839291906020830190803683375050600254604080516315ab88c960e31b815290519394506001600160a01b039091169263ad5c464892506004808301926020929190829003018186803b15801561076d57600080fd5b505afa158015610781573d6000803e3d6000fd5b505050506040513d601f19601f820116820180604052508101906107a59190610f79565b816000815181106107b8576107b8610f96565b60200260200101906001600160a01b031690816001600160a01b03168152505084816001815181106107ec576107ec610f96565b6001600160a01b03928316602091820292909201015260025460009116637ff36ab58583858961081e426101f4610fac565b6040518663ffffffff1660e01b815260040161083d9493929190610fc4565b6000604051808303818588803b15801561085657600080fd5b505af115801561086a573d6000803e3d6000fd5b50505050506040513d6000823e601f3d908101601f19168201604052610893919081019061102e565b9050600081600183516108a691906110d4565b815181106108b6576108b6610f96565b602002602001015190508093505050509392505050565b6000546001600160a01b031633146104ff5760405162461bcd60e51b815260206004820181905260248201527f4f776e61626c653a2063616c6c6572206973206e6f7420746865206f776e65726044820152606401610293565b600080546001600160a01b038381166001600160a01b0319831681178455604051919092169283917f8be0079c531659141344cd1fd0a4f28419497f9722a3daafe3b4186f6b6457e09190a35050565b6001600160a01b038116811461070157600080fd5b60ff8116811461070157600080fd5b6003811061070157600080fd5b600080600080608085870312156109be57600080fd5b84356109c981610977565b935060208501356109d981610977565b925060408501356109e98161098c565b915060608501356109f98161099b565b939692955090935050565b600060208284031215610a1657600080fd5b8135610a2181610977565b9392505050565b60008060408385031215610a3b57600080fd5b8235610a4681610977565b91506020830135610a568161098c565b809150509250929050565b634e487b7160e01b600052601160045260246000fd5b6000816000190483118215151615610a9157610a91610a61565b500290565b634e487b7160e01b600052604160045260246000fd5b604051610100810167ffffffffffffffff81118282101715610ad057610ad0610a96565b60405290565b6040516080810167ffffffffffffffff81118282101715610ad057610ad0610a96565b60405160e0810167ffffffffffffffff81118282101715610ad057610ad0610a96565b604051601f8201601f1916810167ffffffffffffffff81118282101715610b4557610b45610a96565b604052919050565b8051610b5881610977565b919050565b8051610b588161099b565b600082601f830112610b7957600080fd5b815167ffffffffffffffff811115610b9357610b93610a96565b6020610ba7601f8301601f19168201610b1c565b8281528582848701011115610bbb57600080fd5b60005b83811015610bd9578581018301518282018401528201610bbe565b83811115610bea5760008385840101525b5095945050505050565b8051610b588161098c565b60006101008284031215610c1257600080fd5b610c1a610aac565b9050610c2582610b5d565b8152602082015167ffffffffffffffff80821115610c4257600080fd5b610c4e85838601610b68565b60208401526040840151915080821115610c6757600080fd5b610c7385838601610b68565b6040840152610c8460608501610b4d565b6060840152610c9560808501610bf4565b608084015260a0840151915080821115610cae57600080fd5b50610cbb84828501610b68565b60a083015250610ccd60c08301610b5d565b60c082015260e082015160e082015292915050565b600060408284031215610cf457600080fd5b6040516040810181811067ffffffffffffffff82111715610d1757610d17610a96565b604052825181526020928301519281019290925250919050565b600060608284031215610d4357600080fd5b6040516060810167ffffffffffffffff8282108183111715610d6757610d67610a96565b816040528293508451915080821115610d7f57600080fd5b610d8b86838701610b68565b83526020850151915080821115610da157600080fd5b610dad86838701610b68565b60208401526040850151915080821115610dc657600080fd5b50610dd385828601610b68565b6040830152505092915050565b600060208284031215610df257600080fd5b815167ffffffffffffffff80821115610e0a57600080fd5b90830190818503610160811215610e2057600080fd5b610e28610ad6565b60e0821215610e3657600080fd5b610e3e610af9565b9150835182526020840151610e5281610977565b8060208401525060408401516040830152606084015160608301526080840151608083015260a084015160a083015260c0840151610e8f81610977565b60c083015290815260e08301519082821115610eaa57600080fd5b610eb687838601610bff565b6020820152610ec9876101008601610ce2565b6040820152610140840151915082821115610ee357600080fd5b610eef87838601610d31565b60608201529695505050505050565b600060208284031215610f1057600080fd5b81518015158114610a2157600080fd5b634e487b7160e01b600052602160045260246000fd5b6001600160a01b0384168152602081018390526060810160038310610f6b57634e487b7160e01b600052602160045260246000fd5b826040830152949350505050565b600060208284031215610f8b57600080fd5b8151610a2181610977565b634e487b7160e01b600052603260045260246000fd5b60008219821115610fbf57610fbf610a61565b500190565b600060808201868352602060808185015281875180845260a086019150828901935060005b8181101561100e5784516001600160a01b031683529383019391830191600101610fe9565b50506001600160a01b039690961660408501525050506060015292915050565b6000602080838503121561104157600080fd5b825167ffffffffffffffff8082111561105957600080fd5b818501915085601f83011261106d57600080fd5b81518181111561107f5761107f610a96565b8060051b9150611090848301610b1c565b81815291830184019184810190888411156110aa57600080fd5b938501935b838510156110c8578451825293850193908501906110af565b98975050505050505050565b6000828210156110e6576110e6610a61565b50039056fea26469706673582212200c2f352cd5bbec21edd81cbffe38a32ef8e57adf723152ccfcabeafc097b581a64736f6c63430008090033",
  "devdoc": {
    "kind": "dev",
    "methods": {
      "owner()": {
        "details": "Returns the address of the current owner."
      },
      "renounceOwnership()": {
        "details": "Leaves the contract without owner. It will not be possible to call `onlyOwner` functions anymore. Can only be called by the current owner. NOTE: Renouncing ownership will leave the contract without an owner, thereby removing any functionality that is only available to the owner."
      },
      "transferOwnership(address)": {
        "details": "Transfers ownership of the contract to a new account (`newOwner`). Can only be called by the current owner."
      }
    },
    "version": 1
  },
  "userdoc": {
    "kind": "user",
    "methods": {},
    "version": 1
  },
  "storageLayout": {
    "storage": [
      {
        "astId": 53,
        "contract": "contracts/Planetmoon/PMRewardDistributor.sol:PMRewardDistributor",
        "label": "_owner",
        "offset": 0,
        "slot": "0",
        "type": "t_address"
      },
      {
        "astId": 8258,
        "contract": "contracts/Planetmoon/PMRewardDistributor.sol:PMRewardDistributor",
        "label": "priceFeed",
        "offset": 0,
        "slot": "1",
        "type": "t_contract(AggregatorV3Interface)45"
      },
      {
        "astId": 8264,
        "contract": "contracts/Planetmoon/PMRewardDistributor.sol:PMRewardDistributor",
        "label": "uniswapV2Router",
        "offset": 0,
        "slot": "2",
        "type": "t_contract(IUniswapV2Router02)10721"
      },
      {
        "astId": 8282,
        "contract": "contracts/Planetmoon/PMRewardDistributor.sol:PMRewardDistributor",
        "label": "giveAwayManager",
        "offset": 0,
        "slot": "3",
        "type": "t_address"
      }
    ],
    "types": {
      "t_address": {
        "encoding": "inplace",
        "label": "address",
        "numberOfBytes": "20"
      },
      "t_contract(AggregatorV3Interface)45": {
        "encoding": "inplace",
        "label": "contract AggregatorV3Interface",
        "numberOfBytes": "20"
      },
      "t_contract(IUniswapV2Router02)10721": {
        "encoding": "inplace",
        "label": "contract IUniswapV2Router02",
        "numberOfBytes": "20"
      }
    }
  }
}