{
  "address": "0x53c9B65d512fbd7EB27808B10072a27a0517aBBd",
  "abi": [
    {
      "inputs": [
        {
          "internalType": "address",
          "name": "_campaignFeeManager",
          "type": "address"
        },
        {
          "internalType": "address",
          "name": "_pmMembership",
          "type": "address"
        },
        {
          "internalType": "address",
          "name": "_pmTeamManager",
          "type": "address"
        },
        {
          "internalType": "address",
          "name": "_creatorManager",
          "type": "address"
        }
      ],
      "stateMutability": "nonpayable",
      "type": "constructor"
    },
    {
      "inputs": [],
      "name": "FAILED_TO_TRANSFER_BNBS",
      "type": "error"
    },
    {
      "inputs": [],
      "name": "FAILED_TO_TRANSFER_TOKENS",
      "type": "error"
    },
    {
      "inputs": [],
      "name": "INSUFFICIENT_FUNDS",
      "type": "error"
    },
    {
      "inputs": [],
      "name": "NOT_OWNER_OF_TEAM",
      "type": "error"
    },
    {
      "inputs": [],
      "name": "NOT_PREMIUM_OR_TEAM",
      "type": "error"
    },
    {
      "inputs": [],
      "name": "START_TIME_SHOULD_BE_FUTURE",
      "type": "error"
    },
    {
      "anonymous": false,
      "inputs": [
        {
          "indexed": true,
          "internalType": "address",
          "name": "previousOwner",
          "type": "address"
        },
        {
          "indexed": true,
          "internalType": "address",
          "name": "newOwner",
          "type": "address"
        }
      ],
      "name": "OwnershipTransferred",
      "type": "event"
    },
    {
      "anonymous": false,
      "inputs": [
        {
          "indexed": false,
          "internalType": "uint256",
          "name": "poolId",
          "type": "uint256"
        },
        {
          "indexed": false,
          "internalType": "address",
          "name": "poolAddress",
          "type": "address"
        },
        {
          "indexed": false,
          "internalType": "address",
          "name": "tokenAddress",
          "type": "address"
        }
      ],
      "name": "Poolcreated",
      "type": "event"
    },
    {
      "inputs": [],
      "name": "campaignFeeManager",
      "outputs": [
        {
          "internalType": "address payable",
          "name": "",
          "type": "address"
        }
      ],
      "stateMutability": "view",
      "type": "function"
    },
    {
      "inputs": [
        {
          "components": [
            {
              "internalType": "enum StakingLibrary.CampaignCategories",
              "name": "category",
              "type": "uint8"
            },
            {
              "internalType": "string",
              "name": "projectName",
              "type": "string"
            },
            {
              "internalType": "string",
              "name": "projectSymbol",
              "type": "string"
            },
            {
              "internalType": "address",
              "name": "tokenAddress",
              "type": "address"
            },
            {
              "internalType": "uint8",
              "name": "tokenDecimals",
              "type": "uint8"
            },
            {
              "internalType": "string",
              "name": "tokenSymbol",
              "type": "string"
            },
            {
              "internalType": "enum StakingLibrary.ProfileType",
              "name": "profileType",
              "type": "uint8"
            },
            {
              "internalType": "uint256",
              "name": "profileId",
              "type": "uint256"
            }
          ],
          "internalType": "struct StakingLibrary.ProjectInfo",
          "name": "projectInfo",
          "type": "tuple"
        },
        {
          "components": [
            {
              "internalType": "uint256",
              "name": "startedAt",
              "type": "uint256"
            },
            {
              "internalType": "uint256",
              "name": "poolAmount",
              "type": "uint256"
            }
          ],
          "internalType": "struct StakingLibrary.RewardPoolInfo",
          "name": "rewardPoolInfo",
          "type": "tuple"
        },
        {
          "components": [
            {
              "internalType": "string",
              "name": "image_3_months",
              "type": "string"
            },
            {
              "internalType": "string",
              "name": "image_6_months",
              "type": "string"
            },
            {
              "internalType": "string",
              "name": "image_12_months",
              "type": "string"
            }
          ],
          "internalType": "struct StakingLibrary.Images",
          "name": "images",
          "type": "tuple"
        }
      ],
      "name": "createAStakingPool",
      "outputs": [],
      "stateMutability": "payable",
      "type": "function"
    },
    {
      "inputs": [],
      "name": "creatorManager",
      "outputs": [
        {
          "internalType": "address",
          "name": "",
          "type": "address"
        }
      ],
      "stateMutability": "view",
      "type": "function"
    },
    {
      "inputs": [
        {
          "internalType": "uint256",
          "name": "id",
          "type": "uint256"
        }
      ],
      "name": "getPoolByID",
      "outputs": [
        {
          "internalType": "address",
          "name": "",
          "type": "address"
        }
      ],
      "stateMutability": "view",
      "type": "function"
    },
    {
      "inputs": [
        {
          "internalType": "uint256",
          "name": "teamId",
          "type": "uint256"
        }
      ],
      "name": "getPoolIdsOfATeam",
      "outputs": [
        {
          "internalType": "uint256[]",
          "name": "",
          "type": "uint256[]"
        }
      ],
      "stateMutability": "view",
      "type": "function"
    },
    {
      "inputs": [
        {
          "internalType": "address",
          "name": "user",
          "type": "address"
        }
      ],
      "name": "getPoolIdsOfAUser",
      "outputs": [
        {
          "internalType": "uint256[]",
          "name": "",
          "type": "uint256[]"
        }
      ],
      "stateMutability": "view",
      "type": "function"
    },
    {
      "inputs": [
        {
          "internalType": "address",
          "name": "token",
          "type": "address"
        }
      ],
      "name": "getPoolsByToken",
      "outputs": [
        {
          "internalType": "address[]",
          "name": "",
          "type": "address[]"
        }
      ],
      "stateMutability": "view",
      "type": "function"
    },
    {
      "inputs": [],
      "name": "owner",
      "outputs": [
        {
          "internalType": "address",
          "name": "",
          "type": "address"
        }
      ],
      "stateMutability": "view",
      "type": "function"
    },
    {
      "inputs": [],
      "name": "pmMembership",
      "outputs": [
        {
          "internalType": "address",
          "name": "",
          "type": "address"
        }
      ],
      "stateMutability": "view",
      "type": "function"
    },
    {
      "inputs": [],
      "name": "pmTeamManager",
      "outputs": [
        {
          "internalType": "address",
          "name": "",
          "type": "address"
        }
      ],
      "stateMutability": "view",
      "type": "function"
    },
    {
      "inputs": [],
      "name": "projectsCount",
      "outputs": [
        {
          "internalType": "uint256",
          "name": "",
          "type": "uint256"
        }
      ],
      "stateMutability": "view",
      "type": "function"
    },
    {
      "inputs": [],
      "name": "renounceOwnership",
      "outputs": [],
      "stateMutability": "nonpayable",
      "type": "function"
    },
    {
      "inputs": [
        {
          "internalType": "address",
          "name": "newOwner",
          "type": "address"
        }
      ],
      "name": "transferOwnership",
      "outputs": [],
      "stateMutability": "nonpayable",
      "type": "function"
    },
    {
      "inputs": [
        {
          "internalType": "address",
          "name": "_campaignFeeManager",
          "type": "address"
        }
      ],
      "name": "updateCampaignFeeManager",
      "outputs": [],
      "stateMutability": "nonpayable",
      "type": "function"
    }
  ],
  "transactionHash": "0x0783669a2841a5372fae1b9ac3b72e57a6ad0420e03cbcaf2eeedf07adfb00d4",
  "args": [
    "0x7B1204eF7C563bc0bdaEB3833Be8597C4Ed7942C",
    "0xFC854e79aCbDC48C2DfA9d2b6e5359207747Eac7",
    "0xE18fb70Ea54CAb1BF02c102DFFEe75C3FD79723d",
    "0x4ee7b716c106c3f27284f7327b229c755cd44910"
  ],
  "numDeployments": 1,
  "solcInputHash": "90e023f6605d1bffee9acc929bb68af3",
  "bytecode": "0x60806040523480156200001157600080fd5b506040516200605d3803806200605d833981016040819052620000349162000100565b6200003f3362000093565b600180546001600160a01b039586166001600160a01b03199182161790915560028054948616948216949094179093556003805492851692841692909217909155600480549190931691161790556200015d565b600080546001600160a01b038381166001600160a01b0319831681178455604051919092169283917f8be0079c531659141344cd1fd0a4f28419497f9722a3daafe3b4186f6b6457e09190a35050565b80516001600160a01b0381168114620000fb57600080fd5b919050565b600080600080608085870312156200011757600080fd5b6200012285620000e3565b93506200013260208601620000e3565b92506200014260408601620000e3565b91506200015260608601620000e3565b905092959194509250565b615ef0806200016d6000396000f3fe608060405260043610620000ef5760003560e01c80638dc6c5f61162000089578063a0ac50b91162000060578063a0ac50b91462000292578063c73b302e14620002b4578063d4f47e9314620002db578063f2fde38b14620002fd57600080fd5b80638dc6c5f61462000234578063942cc30714620002595780639aa33636146200027b57600080fd5b80637a0e6ad311620000ca5780637a0e6ad3146200018a5780637f71303714620001be57806386959b4b14620001e05780638da5cb5b146200021457600080fd5b806340362db414620000f45780635055149c146200011b578063715018a61462000172575b600080fd5b3480156200010157600080fd5b50620001196200011336600462000bbb565b62000322565b005b3480156200012857600080fd5b50620001556200013a36600462000be2565b6000908152600960205260409020546001600160a01b031690565b6040516001600160a01b0390911681526020015b60405180910390f35b3480156200017f57600080fd5b50620001196200034e565b3480156200019757600080fd5b50620001af620001a936600462000bbb565b62000366565b60405162000169919062000bfc565b348015620001cb57600080fd5b5060035462000155906001600160a01b031681565b348015620001ed57600080fd5b5062000205620001ff36600462000bbb565b620003d4565b60405162000169919062000c42565b3480156200022157600080fd5b506000546001600160a01b031662000155565b3480156200024157600080fd5b50620001af6200025336600462000be2565b6200044b565b3480156200026657600080fd5b5060015462000155906001600160a01b031681565b620001196200028c36600462000e8e565b620004ad565b3480156200029f57600080fd5b5060025462000155906001600160a01b031681565b348015620002c157600080fd5b50620002cc60055481565b60405190815260200162000169565b348015620002e857600080fd5b5060045462000155906001600160a01b031681565b3480156200030a57600080fd5b50620001196200031c36600462000bbb565b62000a56565b6200032c62000ad9565b600180546001600160a01b0319166001600160a01b0392909216919091179055565b6200035862000ad9565b62000364600062000b35565b565b6001600160a01b038116600090815260066020908152604091829020805483518184028101840190945280845260609392830182828015620003c857602002820191906000526020600020905b815481526020019060010190808311620003b3575b50505050509050919050565b6001600160a01b038116600090815260086020908152604091829020805483518184028101840190945280845260609392830182828015620003c857602002820191906000526020600020905b81546001600160a01b03168152600190910190602001808311620004215750505050509050919050565b600081815260076020908152604091829020805483518184028101840190945280845260609392830182828015620003c85760200282019190600052602060002090815481526020019060010190808311620003b35750505050509050919050565b6003546040516370a0823160e01b815233600482015260009182916001600160a01b03909116906370a082319060240160206040518083038186803b158015620004f657600080fd5b505afa1580156200050b573d6000803e3d6000fd5b505050506040513d601f19601f8201168201806040525081019062000531919062000fe3565b6002546040516329c59e0360e01b81523360048201529290911192506000916001600160a01b03909116906329c59e039060240160606040518083038186803b1580156200057e57600080fd5b505afa15801562000593573d6000803e3d6000fd5b505050506040513d601f19601f82011682018060405250810190620005b991906200100e565b60400151905081158015620005cc575080155b15620005eb5760405163eb932d8b60e01b815260040160405180910390fd5b60018560c00151600281111562000606576200060662001074565b1415620006c25760035460e08601516040516331a9108f60e11b815260048101919091526000916001600160a01b031690636352211e9060240160206040518083038186803b1580156200065957600080fd5b505afa1580156200066e573d6000803e3d6000fd5b505050506040513d601f19601f820116820180604052508101906200069491906200108a565b90506001600160a01b0381163314620006c057604051636edd33cd60e11b815260040160405180910390fd5b505b600154855160405163abe9836360e01b81526000926001600160a01b03169163abe9836391620006f69190600401620010d8565b60206040518083038186803b1580156200070f57600080fd5b505afa15801562000724573d6000803e3d6000fd5b505050506040513d601f19601f820116820180604052508101906200074a919062000fe3565b9050803410156200076e57604051631cf2628760e31b815260040160405180910390fd5b8451421115620007915760405163474435c160e01b815260040160405180910390fd5b60058054906000620007a383620010ed565b9091555050600554600454600154604051600093928a928a928a926001600160a01b039081169216903390620007d99062000b85565b620007eb9796959493929190620011be565b604051809103906000f08015801562000808573d6000803e3d6000fd5b50905060018760c00151600281111562000826576200082662001074565b1415620008595760e087015160009081526007602090815260408220600554815460018101835591845291909220909101555b6060870180516001600160a01b0390811660009081526008602090815260408083208054600180820183559185528385200180548887166001600160a01b0319918216811790925560058054875260098652848720805490921683179091553380875260068652848720915482549485018355918752858720909301559551928c015191516323b872dd60e01b815260048101919091526024810195909552604485015290929116906323b872dd90606401602060405180830381600087803b1580156200092657600080fd5b505af11580156200093b573d6000803e3d6000fd5b505050506040513d601f19601f82011682018060405250810190620009619190620012f2565b905080620009825760405163197d6ecf60e21b815260040160405180910390fd5b6001546040516000916001600160a01b03169034908381818185875af1925050503d8060008114620009d1576040519150601f19603f3d011682016040523d82523d6000602084013e620009d6565b606091505b5050905080620009f957604051635b77072160e11b815260040160405180910390fd5b6005546060808b0151604080519384526001600160a01b038088166020860152909116908301527fdffe5be4b28e9feff47252db2cf2054aef948f89043d4ba606b2c6a0fd0cff0d910160405180910390a1505050505050505050565b62000a6062000ad9565b6001600160a01b03811662000acb5760405162461bcd60e51b815260206004820152602660248201527f4f776e61626c653a206e6577206f776e657220697320746865207a65726f206160448201526564647265737360d01b60648201526084015b60405180910390fd5b62000ad68162000b35565b50565b6000546001600160a01b03163314620003645760405162461bcd60e51b815260206004820181905260248201527f4f776e61626c653a2063616c6c6572206973206e6f7420746865206f776e6572604482015260640162000ac2565b600080546001600160a01b038381166001600160a01b0319831681178455604051919092169283917f8be0079c531659141344cd1fd0a4f28419497f9722a3daafe3b4186f6b6457e09190a35050565b614baa806200131183390190565b6001600160a01b038116811462000ad657600080fd5b803562000bb68162000b93565b919050565b60006020828403121562000bce57600080fd5b813562000bdb8162000b93565b9392505050565b60006020828403121562000bf557600080fd5b5035919050565b6020808252825182820181905260009190848201906040850190845b8181101562000c365783518352928401929184019160010162000c18565b50909695505050505050565b6020808252825182820181905260009190848201906040850190845b8181101562000c365783516001600160a01b03168352928401929184019160010162000c5e565b634e487b7160e01b600052604160045260246000fd5b604051610100810167ffffffffffffffff8111828210171562000cc25762000cc262000c85565b60405290565b80356003811062000bb657600080fd5b600082601f83011262000cea57600080fd5b813567ffffffffffffffff8082111562000d085762000d0862000c85565b604051601f8301601f19908116603f0116810190828211818310171562000d335762000d3362000c85565b8160405283815286602085880101111562000d4d57600080fd5b836020870160208301376000602085830101528094505050505092915050565b803560ff8116811462000bb657600080fd5b60006040828403121562000d9257600080fd5b6040516040810181811067ffffffffffffffff8211171562000db85762000db862000c85565b604052823581526020928301359281019290925250919050565b60006060828403121562000de557600080fd5b6040516060810167ffffffffffffffff828210818311171562000e0c5762000e0c62000c85565b81604052829350843591508082111562000e2557600080fd5b62000e338683870162000cd8565b8352602085013591508082111562000e4a57600080fd5b62000e588683870162000cd8565b6020840152604085013591508082111562000e7257600080fd5b5062000e818582860162000cd8565b6040830152505092915050565b60008060006080848603121562000ea457600080fd5b833567ffffffffffffffff8082111562000ebd57600080fd5b90850190610100828803121562000ed357600080fd5b62000edd62000c9b565b62000ee88362000cc8565b815260208301358281111562000efd57600080fd5b62000f0b8982860162000cd8565b60208301525060408301358281111562000f2457600080fd5b62000f328982860162000cd8565b60408301525062000f466060840162000ba9565b606082015262000f596080840162000d6d565b608082015260a08301358281111562000f7157600080fd5b62000f7f8982860162000cd8565b60a08301525062000f9360c0840162000cc8565b60c082015260e08381013590820152945062000fb3876020880162000d7f565b9350606086013591508082111562000fca57600080fd5b5062000fd98682870162000dd2565b9150509250925092565b60006020828403121562000ff657600080fd5b5051919050565b8051801515811462000bb657600080fd5b6000606082840312156200102157600080fd5b6040516060810181811067ffffffffffffffff8211171562001047576200104762000c85565b80604052508251815260208301516020820152620010686040840162000ffd565b60408201529392505050565b634e487b7160e01b600052602160045260246000fd5b6000602082840312156200109d57600080fd5b815162000bdb8162000b93565b6003811062000ad657634e487b7160e01b600052602160045260246000fd5b620010d481620010aa565b9052565b60208101620010e783620010aa565b91905290565b60006000198214156200111057634e487b7160e01b600052601160045260246000fd5b5060010190565b6000815180845260005b818110156200113f5760208185018101518683018201520162001121565b8181111562001152576000602083870101525b50601f01601f19169290920160200192915050565b60008151606084526200117e606085018262001117565b90506020830151848203602086015262001199828262001117565b91505060408301518482036040860152620011b5828262001117565b95945050505050565b6000610100898352806020840152620011db8184018a51620010c9565b602089015181610120850152620011f761020085018262001117565b915050604089015160ff19808584030161014086015262001219838362001117565b925060608b01519150620012396101608601836001600160a01b03169052565b60808b015160ff1661018086015260a08b01518584039091016101a0860152905062001266828262001117565b91505060c08901516200127e6101c0850182620010c9565b5060e08901516101e084015287516040840152602088015160608401528281036080840152620012af818862001167565b915050620012c860a08301866001600160a01b03169052565b6001600160a01b03841660c08301526001600160a01b03831660e083015298975050505050505050565b6000602082840312156200130557600080fd5b62000bdb8262000ffd56fe6101006040526000608090815260a06200001c6001605a62000744565b8152601e60208083019190915260408051918201815260008252909101528051601f8054909190829060ff191660018360028111156200006057620000606200072e565b02179055506020828101516001830155604083015160028301556060830151805162000093926003850192019062000604565b5050604080516080810190915290508060018152602001620000b8600160b462000744565b815260326020808301919091526040805191820181526000825290910152805160238054909190829060ff19166001836002811115620000fc57620000fc6200072e565b0217905550602082810151600183015560408301516002830155606083015180516200012f926003850192019062000604565b505060408051608081019091529050806002815260200162000155600161016d62000744565b815260506020808301919091526040805191820181526000825290910152805160278054909190829060ff191660018360028111156200019957620001996200072e565b021790555060208281015160018301556040830151600283015560608301518051620001cc926003850192019062000604565b505050348015620001dc57600080fd5b5060405162004baa38038062004baa833981016040819052620001ff91620009c8565b6020808701518051909182916200021d916000919084019062000604565b5080516200023390600190602084019062000604565b5050845180516200024c92506022916020019062000604565b5060208085015180516200026592602692019062000604565b50604084015180516200028191602a9160209091019062000604565b5060008052602b602052601f80547fe18c65fb8491ea105d3652ed62258476aaccd771ae89682addbba12f33acc62a8054909160ff1690829060ff19166001836002811115620002d557620002d56200072e565b021790555060018201548160010155600282015481600201556003820181600301908054620003049062000b64565b6200031192919062000693565b505060016000819052602b602052602380547ffcc3d43705633578a5e8f1b6d6f38d08eb8cb891174edcc94b1a54972a1aebbd80549294509260ff90911691839160ff19909116908360028111156200036e576200036e6200072e565b0217905550600182015481600101556002820154816002015560038201816003019080546200039d9062000b64565b620003aa92919062000693565b505060026000819052602b602052602780547fbd6c10e6ce287735500a1c033be76c57d5e632addc2ff6eff6bb587b8ee0d95c80549294509260ff90911691839160ff199091169060019084908111156200040957620004096200072e565b021790555060018201548160010155600282015481600201556003820181600301908054620004389062000b64565b6200044592919062000693565b5050865160138054899350909190829060ff191660018360028111156200047057620004706200072e565b021790555060208281015180516200048f926001850192019062000604565b5060408201518051620004ad91600284019160209091019062000604565b506060820151600382018054608085015160ff16600160a01b026001600160a81b03199091166001600160a01b039093169290921791909117905560a082015180516200050591600484019160209091019062000604565b5060c082015160058201805460ff191660018360028111156200052c576200052c6200072e565b021790555060e091909101516006909101558451601a55602080860151601b55845180518692601c9262000567928492919091019062000604565b50602082810151805162000582926001850192019062000604565b5060408201518051620005a091600284019160209091019062000604565b505050600c96909655600d8054306001600160a01b03199182161790915560209490940151600e556012805485166001600160a01b03978816179055600a8054851692871692909217909155600b805490931694169390931790555062000ba19050565b828054620006129062000b64565b90600052602060002090601f01602090048101928262000636576000855562000681565b82601f106200065157805160ff191683800117855562000681565b8280016001018555821562000681579182015b828111156200068157825182559160200191906001019062000664565b506200068f92915062000717565b5090565b828054620006a19062000b64565b90600052602060002090601f016020900481019282620006c5576000855562000681565b82601f10620006d8578054855562000681565b828001600101855582156200068157600052602060002091601f016020900482015b8281111562000681578254825591600101919060010190620006fa565b5b808211156200068f576000815560010162000718565b634e487b7160e01b600052602160045260246000fd5b60008160001904831182151516156200076d57634e487b7160e01b600052601160045260246000fd5b500290565b634e487b7160e01b600052604160045260246000fd5b60405161010081016001600160401b0381118282101715620007ae57620007ae62000772565b60405290565b604051601f8201601f191681016001600160401b0381118282101715620007df57620007df62000772565b604052919050565b805160038110620007f757600080fd5b919050565b600082601f8301126200080e57600080fd5b81516001600160401b038111156200082a576200082a62000772565b602062000840601f8301601f19168201620007b4565b82815285828487010111156200085557600080fd5b60005b838110156200087557858101830151828201840152820162000858565b83811115620008875760008385840101525b5095945050505050565b80516001600160a01b0381168114620007f757600080fd5b805160ff81168114620007f757600080fd5b600060408284031215620008ce57600080fd5b604080519081016001600160401b0381118282101715620008f357620008f362000772565b604052825181526020928301519281019290925250919050565b6000606082840312156200092057600080fd5b604051606081016001600160401b03808211838310171562000946576200094662000772565b8160405282935084519150808211156200095f57600080fd5b6200096d86838701620007fc565b835260208501519150808211156200098457600080fd5b6200099286838701620007fc565b60208401526040850151915080821115620009ac57600080fd5b50620009bb85828601620007fc565b6040830152505092915050565b600080600080600080600061010080898b031215620009e657600080fd5b885160208a01519098506001600160401b038082111562000a0657600080fd5b818b01915082828d03121562000a1b57600080fd5b62000a2562000788565b925062000a3282620007e7565b835260208201518181111562000a4757600080fd5b62000a558d828501620007fc565b60208501525060408201518181111562000a6e57600080fd5b62000a7c8d828501620007fc565b60408501525062000a906060830162000891565b606084015262000aa360808301620008a9565b608084015260a08201518181111562000abb57600080fd5b62000ac98d828501620007fc565b60a08501525062000add60c08301620007e7565b60c084015260e082015160e084015282985062000afe8c60408d01620008bb565b975060808b015192508083111562000b1557600080fd5b505062000b258a828b016200090d565b94505062000b3660a0890162000891565b925062000b4660c0890162000891565b915062000b5660e0890162000891565b905092959891949750929550565b600181811c9082168062000b7957607f821691505b6020821081141562000b9b57634e487b7160e01b600052602260045260246000fd5b50919050565b613ff98062000bb16000396000f3fe6080604052600436106101b75760003560e01c80636352211e116100ec578063a3a439311161008a578063c87b56dd11610064578063c87b56dd14610531578063d4f47e9314610551578063e7301f0e14610571578063e985e9c51461058657600080fd5b8063a3a439311461049b578063b09afec1146104e4578063b88d4fde1461051157600080fd5b806370a08231116100c657806370a0823114610426578063942cc3071461044657806395d89b4114610466578063a22cb4651461047b57600080fd5b80636352211e146103c4578063637888c0146103e457806367c897fe1461040457600080fd5b80631df025c61161015957806342842e0e1161013357806342842e0e146103435780634f6ccce714610363578063519dc8d214610383578063608e4dd0146103b157600080fd5b80631df025c6146102c657806323b872dd146103035780632f745c591461032357600080fd5b8063095ea7b311610195578063095ea7b31461024b5780630a851b401461026d5780630c12252b1461029257806318160ddd146102a757600080fd5b806301ffc9a7146101bc57806306fdde03146101f1578063081812fc14610213575b600080fd5b3480156101c857600080fd5b506101dc6101d7366004613631565b6105cf565b60405190151581526020015b60405180910390f35b3480156101fd57600080fd5b506102066105fa565b6040516101e891906136a6565b34801561021f57600080fd5b5061023361022e3660046136b9565b61068c565b6040516001600160a01b0390911681526020016101e8565b34801561025757600080fd5b5061026b6102663660046136e7565b6106b3565b005b34801561027957600080fd5b506102826107ce565b6040516101e89493929190613739565b34801561029e57600080fd5b50610282610873565b3480156102b357600080fd5b506008545b6040519081526020016101e8565b3480156102d257600080fd5b506102e66102e1366004613771565b610895565b6040805193845260ff9092166020840152908201526060016101e8565b34801561030f57600080fd5b5061026b61031e36600461379d565b610ac0565b34801561032f57600080fd5b506102b861033e3660046136e7565b610af1565b34801561034f57600080fd5b5061026b61035e36600461379d565b610b87565b34801561036f57600080fd5b506102b861037e3660046136b9565b610ba2565b34801561038f57600080fd5b506103a361039e3660046137de565b610c35565b6040516101e89291906139b9565b61026b6103bf3660046136b9565b611166565b3480156103d057600080fd5b506102336103df3660046136b9565b61170a565b3480156103f057600080fd5b5061026b6103ff366004613a2b565b61176a565b34801561041057600080fd5b50610419611e41565b6040516101e89190613ac2565b34801561043257600080fd5b506102b86104413660046137de565b6122f7565b34801561045257600080fd5b50600b54610233906001600160a01b031681565b34801561047257600080fd5b5061020661237d565b34801561048757600080fd5b5061026b610496366004613b7b565b61238c565b3480156104a757600080fd5b506104bb6104b63660046136b9565b61239b565b6040516101e89493929190938452602084019290925260ff166040830152606082015260800190565b3480156104f057600080fd5b506105046104ff3660046136b9565b612531565b6040516101e89190613bb4565b34801561051d57600080fd5b5061026b61052c366004613bdd565b61269a565b34801561053d57600080fd5b5061020661054c3660046136b9565b6126d2565b34801561055d57600080fd5b50600a54610233906001600160a01b031681565b34801561057d57600080fd5b50610282612746565b34801561059257600080fd5b506101dc6105a1366004613cbd565b6001600160a01b03918216600090815260056020908152604080832093909416825291909152205460ff1690565b60006001600160e01b0319821663780e9d6360e01b14806105f457506105f482612768565b92915050565b60606000805461060990613ceb565b80601f016020809104026020016040519081016040528092919081815260200182805461063590613ceb565b80156106825780601f1061065757610100808354040283529160200191610682565b820191906000526020600020905b81548152906001019060200180831161066557829003601f168201915b5050505050905090565b6000610697826127b8565b506000908152600460205260409020546001600160a01b031690565b60006106be8261170a565b9050806001600160a01b0316836001600160a01b031614156107315760405162461bcd60e51b815260206004820152602160248201527f4552433732313a20617070726f76616c20746f2063757272656e74206f776e656044820152603960f91b60648201526084015b60405180910390fd5b336001600160a01b038216148061074d575061074d81336105a1565b6107bf5760405162461bcd60e51b815260206004820152603d60248201527f4552433732313a20617070726f76652063616c6c6572206973206e6f7420746f60448201527f6b656e206f776e6572206f7220617070726f76656420666f7220616c6c0000006064820152608401610728565b6107c9838361281a565b505050565b602380546024546025546026805460ff9094169492939192916107f090613ceb565b80601f016020809104026020016040519081016040528092919081815260200182805461081c90613ceb565b80156108695780601f1061083e57610100808354040283529160200191610869565b820191906000526020600020905b81548152906001019060200180831161084c57829003601f168201915b5050505050905084565b601f80546020546021546022805460ff9094169492939192916107f090613ceb565b60008080806108a48686613d3c565b905060006108b28742613d3c565b90506000826108c2836064613d53565b6108cc9190613d72565b9050603281101561096557600b54604051633b6a8f1d60e01b8152600097508796506001600160a01b0390911690633b6a8f1d9061090e908890600401613d94565b60206040518083038186803b15801561092657600080fd5b505afa15801561093a573d6000803e3d6000fd5b505050506040513d601f19601f8201168201806040525081019061095e9190613dae565b9350610ab4565b603281101580156109765750605081105b156109c757601e9450606461098b868b613d53565b6109959190613d72565b600b54604051633b6a8f1d60e01b81529197506001600160a01b031690633b6a8f1d9061090e90600190600401613d94565b605081101580156109d85750606481105b15610a29576032945060646109ed8a87613d53565b6109f79190613d72565b600b54604051633b6a8f1d60e01b81529197506001600160a01b031690633b6a8f1d9061090e90600290600401613d94565b600b54604051633b6a8f1d60e01b81528a9750606496506001600160a01b0390911690633b6a8f1d90610a6190600390600401613d94565b60206040518083038186803b158015610a7957600080fd5b505afa158015610a8d573d6000803e3d6000fd5b505050506040513d601f19601f82011682018060405250810190610ab19190613dae565b93505b50505093509350939050565b610aca3382612888565b610ae65760405162461bcd60e51b815260040161072890613dc7565b6107c9838383612907565b6000610afc836122f7565b8210610b5e5760405162461bcd60e51b815260206004820152602b60248201527f455243373231456e756d657261626c653a206f776e657220696e646578206f7560448201526a74206f6620626f756e647360a81b6064820152608401610728565b506001600160a01b03919091166000908152600660209081526040808320938352929052205490565b6107c98383836040518060200160405280600081525061269a565b6000610bad60085490565b8210610c105760405162461bcd60e51b815260206004820152602c60248201527f455243373231456e756d657261626c653a20676c6f62616c20696e646578206f60448201526b7574206f6620626f756e647360a01b6064820152608401610728565b60088281548110610c2357610c23613e14565b90600052602060002001549050919050565b610c3d6133c3565b600a5460405163677755bb60e01b81526001600160a01b03848116600483015260609260009291169063677755bb9060240160206040518083038186803b158015610c8757600080fd5b505afa158015610c9b573d6000803e3d6000fd5b505050506040513d601f19601f82011682018060405250810190610cbf9190613e2a565b90506001600160a01b038116610ce8576040516374fcb30d60e11b815260040160405180910390fd5b6000610cf3826122f7565b905060008167ffffffffffffffff811115610d1057610d10613bc7565b604051908082528060200260200182016040528015610d4957816020015b610d36613426565b815260200190600190039081610d2e5790505b50905060005b82811015610efc576000610d638583610af1565b6000818152602c6020908152604080832081516101e08101835281546001600160a01b039081168252600183015494820194909452600282015492810192909252600381015483166060830152600481015483166080830152600581015490921660a0820152600682015460c08201526007820180549495509293909260e0840191610dee90613ceb565b80601f0160208091040260200160405190810160405280929190818152602001828054610e1a90613ceb565b8015610e675780601f10610e3c57610100808354040283529160200191610e67565b820191906000526020600020905b815481529060010190602001808311610e4a57829003601f168201915b5050509183525050600882015460ff908116602083015260098301546040830152600a8301546060830152600b8301546080830152600c8301548116151560a0830152600d83015460c0830152600e9092015490911660e09091015284519091508190859085908110610edc57610edc613e14565b602002602001018190525050508080610ef490613e47565b915050610d4f565b5060408051610100810190915260138054909183918390829060ff166002811115610f2957610f29613713565b6002811115610f3a57610f3a613713565b8152602001600182018054610f4e90613ceb565b80601f0160208091040260200160405190810160405280929190818152602001828054610f7a90613ceb565b8015610fc75780601f10610f9c57610100808354040283529160200191610fc7565b820191906000526020600020905b815481529060010190602001808311610faa57829003601f168201915b50505050508152602001600282018054610fe090613ceb565b80601f016020809104026020016040519081016040528092919081815260200182805461100c90613ceb565b80156110595780601f1061102e57610100808354040283529160200191611059565b820191906000526020600020905b81548152906001019060200180831161103c57829003601f168201915b505050918352505060038201546001600160a01b0381166020830152600160a01b900460ff16604082015260048201805460609092019161109990613ceb565b80601f01602080910402602001604051908101604052809291908181526020018280546110c590613ceb565b80156111125780601f106110e757610100808354040283529160200191611112565b820191906000526020600020905b8154815290600101906020018083116110f557829003601f168201915b5050509183525050600582015460209091019060ff16600281111561113957611139613713565b600281111561114a5761114a613713565b8152602001600682015481525050915094509450505050915091565b6000818152602c6020908152604080832081516101e08101835281546001600160a01b039081168252600183015494820194909452600282015492810192909252600381015483166060830152600481015483166080830152600581015490921660a0820152600682015460c082015260078201805491929160e0840191906111ee90613ceb565b80601f016020809104026020016040519081016040528092919081815260200182805461121a90613ceb565b80156112675780601f1061123c57610100808354040283529160200191611267565b820191906000526020600020905b81548152906001019060200180831161124a57829003601f168201915b5050509183525050600882015460ff908116602083015260098301546040830152600a8301546060830152600b830154608080840191909152600c8401548216151560a0840152600d84015460c0840152600e909301541660e0909101528101519091506001600160a01b031633146112f357604051636ff49be560e01b815260040160405180910390fd5b61016081015161131657604051630638c18f60e51b815260040160405180910390fd5b8061018001511561133a57604051636dc6682d60e01b815260040160405180910390fd5b6000828152602c60205260408120600c01805460ff191660011790556101608201516101208301516101408401518392839261137592610895565b6000888152602c60205260408120600d8101859055600e01805460ff191660ff85161790556101608801519396509194509250906113b4908590613d3c565b905080600c60020160008282546113cb9190613e62565b9091555050348211156113f157604051631cf2628760e31b815260040160405180910390fd5b600b546040516000916001600160a01b03169034908381818185875af1925050503d806000811461143e576040519150601f19603f3d011682016040523d82523d6000602084013e611443565b606091505b505090508061146557604051635b77072160e11b815260040160405180910390fd5b600a5460405163677755bb60e01b81523360048201526000916001600160a01b03169063677755bb9060240160206040518083038186803b1580156114a957600080fd5b505afa1580156114bd573d6000803e3d6000fd5b505050506040513d601f19601f820116820180604052508101906114e19190613e2a565b6040516357fecd5d60e11b8152306004820152602481018a90529091506000906001600160a01b0383169063affd9aba90604401602060405180830381600087803b15801561152f57600080fd5b505af1158015611543573d6000803e3d6000fd5b505050506040513d601f19601f820116820180604052508101906115679190613e7a565b9050806115875760405163d0411c3960e01b815260040160405180910390fd5b601654608089015160405163a9059cbb60e01b81526001600160a01b039182166004820152602481018a905291169063a9059cbb90604401602060405180830381600087803b1580156115d957600080fd5b505af11580156115ed573d6000803e3d6000fd5b505050506040513d601f19601f820116820180604052508101906116119190613e7a565b90508061163157604051630c26b1fd60e11b815260040160405180910390fd5b61163e8860c00151612a78565b611647826122f7565b6116a55760405163838c003960e01b81523060048201526001600160a01b0383169063838c003990602401600060405180830381600087803b15801561168c57600080fd5b505af11580156116a0573d6000803e3d6000fd5b505050505b600c546040808a01516101008b015182519384523360208501529183015260ff166060820152608081018890527f8958f0c58afef19b6642cac81ae35a14e955e85b5d55cdc65c7d502eb592fe0d9060a00160405180910390a1505050505050505050565b6000818152600260205260408120546001600160a01b0316806105f45760405162461bcd60e51b8152602060048201526018602482015277115490cdcc8c4e881a5b9d985b1a59081d1bdad95b88125160421b6044820152606401610728565b601a5442101561178d57604051638f2d4c2d60e01b815260040160405180910390fd5b6000602b60008360028111156117a5576117a5613713565b60028111156117b6576117b6613713565b8152602081019190915260409081016000208151608081019092528054829060ff1660028111156117e9576117e9613713565b60028111156117fa576117fa613713565b8152602001600182015481526020016002820154815260200160038201805461182290613ceb565b80601f016020809104026020016040519081016040528092919081815260200182805461184e90613ceb565b801561189b5780601f106118705761010080835404028352916020019161189b565b820191906000526020600020905b81548152906001019060200180831161187e57829003601f168201915b5050505050815250509050600060648260400151856118ba9190613d53565b6118c49190613d72565b905080600c6002015410156118ec576040516348eb126760e11b815260040160405180910390fd5b80600c60020160008282546119019190613d3c565b9091555050600f805485919060009061191b908490613e62565b90915550506010805490600061193083613e47565b90915550506011805490600061194583613e47565b91905055506000602b600085600281111561196257611962613713565b600281111561197357611973613713565b8152602001908152602001600020600301805461198f90613ceb565b80601f01602080910402602001604051908101604052809291908181526020018280546119bb90613ceb565b8015611a085780601f106119dd57610100808354040283529160200191611a08565b820191906000526020600020905b8154815290600101906020018083116119eb57829003601f168201915b5050600a5460405163677755bb60e01b81526001600160a01b038c81166004830152959650600095909116935063677755bb9250602401905060206040518083038186803b158015611a5957600080fd5b505afa158015611a6d573d6000803e3d6000fd5b505050506040513d601f19601f82011682018060405250810190611a919190613e2a565b90506001600160a01b038116611b2357600a546040516331b77b8960e21b81526001600160a01b0389811660048301529091169063c6ddee2490602401602060405180830381600087803b158015611ae857600080fd5b505af1158015611afc573d6000803e3d6000fd5b505050506040513d601f19601f82011682018060405250810190611b209190613e2a565b90505b604080516101e081018252308152600c5460208201529081018790526016546001600160a01b0390811660608301528881166080830152821660a082015260115460c082015260e081018390526101008101866002811115611b8757611b87613713565b60ff168152602001428152602001856020015142611ba59190613e62565b8152602080820186905260006040808401829052606080850183905260809485018390526011548352602c845291819020855181546001600160a01b039182166001600160a01b0319918216178355878601516001840155928701516002830155928601516003820180549185169184169190911790559385015160048501805491841691831691909117905560a085015160058501805491909316911617905560c0830151600683015560e08301518051611c6792600785019201906134c8565b5061010082015160088201805460ff1990811660ff938416179091556101208401516009840155610140840151600a840155610160840151600b840155610180840151600c8401805483169115159190911790556101a0840151600d8401556101c090930151600e909201805490931691161790556016546040516323b872dd60e01b81523360048201526001600160a01b0383811660248301526044820189905260009216906323b872dd90606401602060405180830381600087803b158015611d3157600080fd5b505af1158015611d45573d6000803e3d6000fd5b505050506040513d601f19601f82011682018060405250810190611d699190613e7a565b905080611d895760405163986aebbb60e01b815260040160405180910390fd5b6011546040516bffffffffffffffffffffffff193060601b166020820152611dc4918491603401604051602081830303815290604052612b1b565b600c546011547fbbd184b832a658705e19e15121bf8abb81df8e6c59469af906e22fdf841bbffa91908a8a8a6002811115611e0157611e01613713565b6040805195865260208601949094526001600160a01b039290921684840152606084015260ff166080830152519081900360a00190a15050505050505050565b611e4961354c565b6040805161016081018252600c5460808201908152600d546001600160a01b0390811660a0840152600e5460c0840152600f5460e08401526010546101008085019190915260115461012085015260125490911661014084015290825282519081019092526013805491926020840192909190829060ff166002811115611ed257611ed2613713565b6002811115611ee357611ee3613713565b8152602001600182018054611ef790613ceb565b80601f0160208091040260200160405190810160405280929190818152602001828054611f2390613ceb565b8015611f705780601f10611f4557610100808354040283529160200191611f70565b820191906000526020600020905b815481529060010190602001808311611f5357829003601f168201915b50505050508152602001600282018054611f8990613ceb565b80601f0160208091040260200160405190810160405280929190818152602001828054611fb590613ceb565b80156120025780601f10611fd757610100808354040283529160200191612002565b820191906000526020600020905b815481529060010190602001808311611fe557829003601f168201915b505050918352505060038201546001600160a01b0381166020830152600160a01b900460ff16604082015260048201805460609092019161204290613ceb565b80601f016020809104026020016040519081016040528092919081815260200182805461206e90613ceb565b80156120bb5780601f10612090576101008083540402835291602001916120bb565b820191906000526020600020905b81548152906001019060200180831161209e57829003601f168201915b5050509183525050600582015460209091019060ff1660028111156120e2576120e2613713565b60028111156120f3576120f3613713565b81526020016006820154815250508152602001601a604051806040016040529081600082015481526020016001820154815250508152602001601c60405180606001604052908160008201805461214990613ceb565b80601f016020809104026020016040519081016040528092919081815260200182805461217590613ceb565b80156121c25780601f10612197576101008083540402835291602001916121c2565b820191906000526020600020905b8154815290600101906020018083116121a557829003601f168201915b505050505081526020016001820180546121db90613ceb565b80601f016020809104026020016040519081016040528092919081815260200182805461220790613ceb565b80156122545780601f1061222957610100808354040283529160200191612254565b820191906000526020600020905b81548152906001019060200180831161223757829003601f168201915b5050505050815260200160028201805461226d90613ceb565b80601f016020809104026020016040519081016040528092919081815260200182805461229990613ceb565b80156122e65780601f106122bb576101008083540402835291602001916122e6565b820191906000526020600020905b8154815290600101906020018083116122c957829003601f168201915b505050505081525050815250905090565b60006001600160a01b0382166123615760405162461bcd60e51b815260206004820152602960248201527f4552433732313a2061646472657373207a65726f206973206e6f7420612076616044820152683634b21037bbb732b960b91b6064820152608401610728565b506001600160a01b031660009081526003602052604090205490565b60606001805461060990613ceb565b612397338383612b4e565b5050565b6000818152602c6020908152604080832081516101e08101835281546001600160a01b039081168252600183015494820194909452600282015492810192909252600381015483166060830152600481015483166080830152600581015490921660a0820152600682015460c0820152600782018054849384938493849391929160e08401919061242b90613ceb565b80601f016020809104026020016040519081016040528092919081815260200182805461245790613ceb565b80156124a45780601f10612479576101008083540402835291602001916124a4565b820191906000526020600020905b81548152906001019060200180831161248757829003601f168201915b5050509183525050600882015460ff908116602083015260098301546040830152600a8301546060830152600b8301546080830152600c8301548116151560a0830152600d83015460c0830152600e9092015490911660e090910152610160810151610120820151610140830151919750919250612523918791610895565b969891975095945092505050565b612539613426565b6000828152602c602090815260409182902082516101e08101845281546001600160a01b039081168252600183015493820193909352600282015493810193909352600381015482166060840152600481015482166080840152600581015490911660a0830152600681015460c083015260078101805460e0840191906125bf90613ceb565b80601f01602080910402602001604051908101604052809291908181526020018280546125eb90613ceb565b80156126385780601f1061260d57610100808354040283529160200191612638565b820191906000526020600020905b81548152906001019060200180831161261b57829003601f168201915b5050509183525050600882015460ff908116602083015260098301546040830152600a8301546060830152600b8301546080830152600c8301548116151560a0830152600d83015460c0830152600e9092015490911660e09091015292915050565b6126a43383612888565b6126c05760405162461bcd60e51b815260040161072890613dc7565b6126cc84848484612c1d565b50505050565b60606126dd826127b8565b60006126f460408051602081019091526000815290565b90506000815111612714576040518060200160405280600081525061273f565b8061271e84612c50565b60405160200161272f929190613e97565b6040516020818303038152906040525b9392505050565b60278054602854602954602a805460ff9094169492939192916107f090613ceb565b60006001600160e01b031982166380ac58cd60e01b148061279957506001600160e01b03198216635b5e139f60e01b145b806105f457506301ffc9a760e01b6001600160e01b03198316146105f4565b6000818152600260205260409020546001600160a01b03166128175760405162461bcd60e51b8152602060048201526018602482015277115490cdcc8c4e881a5b9d985b1a59081d1bdad95b88125160421b6044820152606401610728565b50565b600081815260046020526040902080546001600160a01b0319166001600160a01b038416908117909155819061284f8261170a565b6001600160a01b03167f8c5be1e5ebec7d5bd14f71427d1e84f3dd0314c0f7b2291e5b200ac8c7c3b92560405160405180910390a45050565b6000806128948361170a565b9050806001600160a01b0316846001600160a01b031614806128db57506001600160a01b0380821660009081526005602090815260408083209388168352929052205460ff165b806128ff5750836001600160a01b03166128f48461068c565b6001600160a01b0316145b949350505050565b826001600160a01b031661291a8261170a565b6001600160a01b0316146129405760405162461bcd60e51b815260040161072890613ec6565b6001600160a01b0382166129a25760405162461bcd60e51b8152602060048201526024808201527f4552433732313a207472616e7366657220746f20746865207a65726f206164646044820152637265737360e01b6064820152608401610728565b6129af8383836001612ced565b826001600160a01b03166129c28261170a565b6001600160a01b0316146129e85760405162461bcd60e51b815260040161072890613ec6565b600081815260046020908152604080832080546001600160a01b03199081169091556001600160a01b0387811680865260038552838620805460001901905590871680865283862080546001019055868652600290945282852080549092168417909155905184937fddf252ad1be2c89b69c2b068fc378daa952ba7f163c4a11628f55a4df523b3ef91a4505050565b6000612a838261170a565b9050612a93816000846001612ced565b612a9c8261170a565b600083815260046020908152604080832080546001600160a01b03199081169091556001600160a01b0385168085526003845282852080546000190190558785526002909352818420805490911690555192935084927fddf252ad1be2c89b69c2b068fc378daa952ba7f163c4a11628f55a4df523b3ef908390a45050565b612b258383612e2d565b612b326000848484612fc6565b6107c95760405162461bcd60e51b815260040161072890613f0b565b816001600160a01b0316836001600160a01b03161415612bb05760405162461bcd60e51b815260206004820152601960248201527f4552433732313a20617070726f766520746f2063616c6c6572000000000000006044820152606401610728565b6001600160a01b03838116600081815260056020908152604080832094871680845294825291829020805460ff191686151590811790915591519182527f17307eab39ab6107e8899845ad3d59bd9653f200f220920489ca2b5937696c31910160405180910390a3505050565b612c28848484612907565b612c3484848484612fc6565b6126cc5760405162461bcd60e51b815260040161072890613f0b565b60606000612c5d836130d3565b600101905060008167ffffffffffffffff811115612c7d57612c7d613bc7565b6040519080825280601f01601f191660200182016040528015612ca7576020820181803683370190505b5090508181016020015b600019016f181899199a1a9b1b9c1cb0b131b232b360811b600a86061a8153600a8504945084612ce057612ce5565b612cb1565b509392505050565b612cf9848484846131ab565b6001811115612d685760405162461bcd60e51b815260206004820152603560248201527f455243373231456e756d657261626c653a20636f6e7365637574697665207472604482015274185b9cd9995c9cc81b9bdd081cdd5c1c1bdc9d1959605a1b6064820152608401610728565b816001600160a01b038516612dc457612dbf81600880546000838152600960205260408120829055600182018355919091527ff3f7a9fe364faab93b216da50a3214154f22a0a2b415b23a84c8169e8b636ee30155565b612de7565b836001600160a01b0316856001600160a01b031614612de757612de78582613233565b6001600160a01b038416612e0357612dfe816132d0565b612e26565b846001600160a01b0316846001600160a01b031614612e2657612e26848261337f565b5050505050565b6001600160a01b038216612e835760405162461bcd60e51b815260206004820181905260248201527f4552433732313a206d696e7420746f20746865207a65726f20616464726573736044820152606401610728565b6000818152600260205260409020546001600160a01b031615612ee85760405162461bcd60e51b815260206004820152601c60248201527f4552433732313a20746f6b656e20616c7265616479206d696e746564000000006044820152606401610728565b612ef6600083836001612ced565b6000818152600260205260409020546001600160a01b031615612f5b5760405162461bcd60e51b815260206004820152601c60248201527f4552433732313a20746f6b656e20616c7265616479206d696e746564000000006044820152606401610728565b6001600160a01b038216600081815260036020908152604080832080546001019055848352600290915280822080546001600160a01b0319168417905551839291907fddf252ad1be2c89b69c2b068fc378daa952ba7f163c4a11628f55a4df523b3ef908290a45050565b60006001600160a01b0384163b156130c857604051630a85bd0160e11b81526001600160a01b0385169063150b7a029061300a903390899088908890600401613f5d565b602060405180830381600087803b15801561302457600080fd5b505af1925050508015613054575060408051601f3d908101601f1916820190925261305191810190613f90565b60015b6130ae573d808015613082576040519150601f19603f3d011682016040523d82523d6000602084013e613087565b606091505b5080516130a65760405162461bcd60e51b815260040161072890613f0b565b805181602001fd5b6001600160e01b031916630a85bd0160e11b1490506128ff565b506001949350505050565b60008072184f03e93ff9f4daa797ed6e38ed64bf6a1f0160401b83106131125772184f03e93ff9f4daa797ed6e38ed64bf6a1f0160401b830492506040015b6d04ee2d6d415b85acef8100000000831061313e576d04ee2d6d415b85acef8100000000830492506020015b662386f26fc10000831061315c57662386f26fc10000830492506010015b6305f5e1008310613174576305f5e100830492506008015b612710831061318857612710830492506004015b6064831061319a576064830492506002015b600a83106105f45760010192915050565b60018111156126cc576001600160a01b038416156131f1576001600160a01b038416600090815260036020526040812080548392906131eb908490613d3c565b90915550505b6001600160a01b038316156126cc576001600160a01b03831660009081526003602052604081208054839290613228908490613e62565b909155505050505050565b60006001613240846122f7565b61324a9190613d3c565b60008381526007602052604090205490915080821461329d576001600160a01b03841660009081526006602090815260408083208584528252808320548484528184208190558352600790915290208190555b5060009182526007602090815260408084208490556001600160a01b039094168352600681528383209183525290812055565b6008546000906132e290600190613d3c565b6000838152600960205260408120546008805493945090928490811061330a5761330a613e14565b90600052602060002001549050806008838154811061332b5761332b613e14565b600091825260208083209091019290925582815260099091526040808220849055858252812055600880548061336357613363613fad565b6001900381819060005260206000200160009055905550505050565b600061338a836122f7565b6001600160a01b039093166000908152600660209081526040808320868452825280832085905593825260079052919091209190915550565b6040805161010081019091528060008152602001606081526020016060815260200160006001600160a01b03168152602001600060ff168152602001606081526020016000600281111561341957613419613713565b8152602001600081525090565b604051806101e0016040528060006001600160a01b03168152602001600081526020016000815260200160006001600160a01b0316815260200160006001600160a01b0316815260200160006001600160a01b031681526020016000815260200160608152602001600060ff16815260200160008152602001600081526020016000815260200160001515815260200160008152602001600060ff1681525090565b8280546134d490613ceb565b90600052602060002090601f0160209004810192826134f6576000855561353c565b82601f1061350f57805160ff191683800117855561353c565b8280016001018555821561353c579182015b8281111561353c578251825591602001919060010190613521565b50613548929150613606565b5090565b60405180608001604052806135a96040518060e001604052806000815260200160006001600160a01b031681526020016000815260200160008152602001600081526020016000815260200160006001600160a01b031681525090565b81526020016135b66133c3565b81526020016135d8604051806040016040528060008152602001600081525090565b815260200161360160405180606001604052806060815260200160608152602001606081525090565b905290565b5b808211156135485760008155600101613607565b6001600160e01b03198116811461281757600080fd5b60006020828403121561364357600080fd5b813561273f8161361b565b60005b83811015613669578181015183820152602001613651565b838111156126cc5750506000910152565b6000815180845261369281602086016020860161364e565b601f01601f19169290920160200192915050565b60208152600061273f602083018461367a565b6000602082840312156136cb57600080fd5b5035919050565b6001600160a01b038116811461281757600080fd5b600080604083850312156136fa57600080fd5b8235613705816136d2565b946020939093013593505050565b634e487b7160e01b600052602160045260246000fd5b6003811061281757612817613713565b61374285613729565b848152836020820152826040820152608060608201526000613767608083018461367a565b9695505050505050565b60008060006060848603121561378657600080fd5b505081359360208301359350604090920135919050565b6000806000606084860312156137b257600080fd5b83356137bd816136d2565b925060208401356137cd816136d2565b929592945050506040919091013590565b6000602082840312156137f057600080fd5b813561273f816136d2565b61380481613729565b9052565b6000610100825161381881613729565b8085525060208301518160208601526138338286018261367a565b9150506040830151848203604086015261384d828261367a565b91505060018060a01b0360608401511660608501526080830151613876608086018260ff169052565b5060a083015184820360a086015261388e828261367a565b91505060c08301516138a360c08601826137fb565b5060e083015160e08501528091505092915050565b80516001600160a01b0316825260006101e0602083015160208501526040830151604085015260608301516138f860608601826001600160a01b03169052565b50608083015161391360808601826001600160a01b03169052565b5060a083015161392e60a08601826001600160a01b03169052565b5060c083015160c085015260e08301518160e08601526139508286018261367a565b915050610100808401516139688287018260ff169052565b5050610120838101519085015261014080840151908501526101608084015190850152610180808401511515908501526101a080840151908501526101c09283015160ff1692909301919091525090565b6040815260006139cc6040830185613808565b6020838203818501528185518084528284019150828160051b85010183880160005b83811015613a1c57601f19878403018552613a0a8383516138b8565b948601949250908501906001016139ee565b50909998505050505050505050565b600080600060608486031215613a4057600080fd5b8335613a4b816136d2565b925060208401359150604084013560038110613a6657600080fd5b809150509250925092565b6000815160608452613a86606085018261367a565b905060208301518482036020860152613a9f828261367a565b91505060408301518482036040860152613ab9828261367a565b95945050505050565b602081526000825180516020840152602081015160018060a01b0380821660408601526040830151606086015260608301516080860152608083015160a086015260a083015160c08601528060c08401511660e0860152505050602083015161016080610100850152613b39610180850183613808565b60408601518051610120870152602001516101408601526060860151858203601f1901838701529092506137678382613a71565b801515811461281757600080fd5b60008060408385031215613b8e57600080fd5b8235613b99816136d2565b91506020830135613ba981613b6d565b809150509250929050565b60208152600061273f60208301846138b8565b634e487b7160e01b600052604160045260246000fd5b60008060008060808587031215613bf357600080fd5b8435613bfe816136d2565b93506020850135613c0e816136d2565b925060408501359150606085013567ffffffffffffffff80821115613c3257600080fd5b818701915087601f830112613c4657600080fd5b813581811115613c5857613c58613bc7565b604051601f8201601f19908116603f01168101908382118183101715613c8057613c80613bc7565b816040528281528a6020848701011115613c9957600080fd5b82602086016020830137600060208483010152809550505050505092959194509250565b60008060408385031215613cd057600080fd5b8235613cdb816136d2565b91506020830135613ba9816136d2565b600181811c90821680613cff57607f821691505b60208210811415613d2057634e487b7160e01b600052602260045260246000fd5b50919050565b634e487b7160e01b600052601160045260246000fd5b600082821015613d4e57613d4e613d26565b500390565b6000816000190483118215151615613d6d57613d6d613d26565b500290565b600082613d8f57634e487b7160e01b600052601260045260246000fd5b500490565b6020810160048310613da857613da8613713565b91905290565b600060208284031215613dc057600080fd5b5051919050565b6020808252602d908201527f4552433732313a2063616c6c6572206973206e6f7420746f6b656e206f776e6560408201526c1c881bdc88185c1c1c9bdd9959609a1b606082015260800190565b634e487b7160e01b600052603260045260246000fd5b600060208284031215613e3c57600080fd5b815161273f816136d2565b6000600019821415613e5b57613e5b613d26565b5060010190565b60008219821115613e7557613e75613d26565b500190565b600060208284031215613e8c57600080fd5b815161273f81613b6d565b60008351613ea981846020880161364e565b835190830190613ebd81836020880161364e565b01949350505050565b60208082526025908201527f4552433732313a207472616e736665722066726f6d20696e636f72726563742060408201526437bbb732b960d91b606082015260800190565b60208082526032908201527f4552433732313a207472616e7366657220746f206e6f6e20455243373231526560408201527131b2b4bb32b91034b6b83632b6b2b73a32b960711b606082015260800190565b6001600160a01b03858116825284166020820152604081018390526080606082018190526000906137679083018461367a565b600060208284031215613fa257600080fd5b815161273f8161361b565b634e487b7160e01b600052603160045260246000fdfea2646970667358221220d5abfa316d1c8e6a426a08963aab9e7502e63e8d673e8004048d10024d9155db64736f6c63430008090033a2646970667358221220a9ebdb6d8d0c295f035d2e9ad0ec01269e08a59faf9dd42c51fcf03e511f8a7264736f6c63430008090033",
  "devdoc": {
    "kind": "dev",
    "methods": {
      "owner()": {
        "details": "Returns the address of the current owner."
      },
      "renounceOwnership()": {
        "details": "Leaves the contract without owner. It will not be possible to call `onlyOwner` functions anymore. Can only be called by the current owner. NOTE: Renouncing ownership will leave the contract without an owner, thereby removing any functionality that is only available to the owner."
      },
      "transferOwnership(address)": {
        "details": "Transfers ownership of the contract to a new account (`newOwner`). Can only be called by the current owner."
      }
    },
    "version": 1
  },
  "userdoc": {
    "kind": "user",
    "methods": {},
    "version": 1
  },
  "storageLayout": {
    "storage": [
      {
        "astId": 53,
        "contract": "contracts/StakingContract/StakingPoolFactory.sol:StakingPoolFactory",
        "label": "_owner",
        "offset": 0,
        "slot": "0",
        "type": "t_address"
      },
      {
        "astId": 9593,
        "contract": "contracts/StakingContract/StakingPoolFactory.sol:StakingPoolFactory",
        "label": "campaignFeeManager",
        "offset": 0,
        "slot": "1",
        "type": "t_address_payable"
      },
      {
        "astId": 9595,
        "contract": "contracts/StakingContract/StakingPoolFactory.sol:StakingPoolFactory",
        "label": "pmMembership",
        "offset": 0,
        "slot": "2",
        "type": "t_address"
      },
      {
        "astId": 9597,
        "contract": "contracts/StakingContract/StakingPoolFactory.sol:StakingPoolFactory",
        "label": "pmTeamManager",
        "offset": 0,
        "slot": "3",
        "type": "t_address"
      },
      {
        "astId": 9599,
        "contract": "contracts/StakingContract/StakingPoolFactory.sol:StakingPoolFactory",
        "label": "creatorManager",
        "offset": 0,
        "slot": "4",
        "type": "t_address"
      },
      {
        "astId": 9601,
        "contract": "contracts/StakingContract/StakingPoolFactory.sol:StakingPoolFactory",
        "label": "projectsCount",
        "offset": 0,
        "slot": "5",
        "type": "t_uint256"
      },
      {
        "astId": 9606,
        "contract": "contracts/StakingContract/StakingPoolFactory.sol:StakingPoolFactory",
        "label": "poolsOfAUser",
        "offset": 0,
        "slot": "6",
        "type": "t_mapping(t_address,t_array(t_uint256)dyn_storage)"
      },
      {
        "astId": 9611,
        "contract": "contracts/StakingContract/StakingPoolFactory.sol:StakingPoolFactory",
        "label": "poolsOfATeam",
        "offset": 0,
        "slot": "7",
        "type": "t_mapping(t_uint256,t_array(t_uint256)dyn_storage)"
      },
      {
        "astId": 9616,
        "contract": "contracts/StakingContract/StakingPoolFactory.sol:StakingPoolFactory",
        "label": "stakingPoolsByToken",
        "offset": 0,
        "slot": "8",
        "type": "t_mapping(t_address,t_array(t_address)dyn_storage)"
      },
      {
        "astId": 9620,
        "contract": "contracts/StakingContract/StakingPoolFactory.sol:StakingPoolFactory",
        "label": "stakingPoolByID",
        "offset": 0,
        "slot": "9",
        "type": "t_mapping(t_uint256,t_address)"
      }
    ],
    "types": {
      "t_address": {
        "encoding": "inplace",
        "label": "address",
        "numberOfBytes": "20"
      },
      "t_address_payable": {
        "encoding": "inplace",
        "label": "address payable",
        "numberOfBytes": "20"
      },
      "t_array(t_address)dyn_storage": {
        "base": "t_address",
        "encoding": "dynamic_array",
        "label": "address[]",
        "numberOfBytes": "32"
      },
      "t_array(t_uint256)dyn_storage": {
        "base": "t_uint256",
        "encoding": "dynamic_array",
        "label": "uint256[]",
        "numberOfBytes": "32"
      },
      "t_mapping(t_address,t_array(t_address)dyn_storage)": {
        "encoding": "mapping",
        "key": "t_address",
        "label": "mapping(address => address[])",
        "numberOfBytes": "32",
        "value": "t_array(t_address)dyn_storage"
      },
      "t_mapping(t_address,t_array(t_uint256)dyn_storage)": {
        "encoding": "mapping",
        "key": "t_address",
        "label": "mapping(address => uint256[])",
        "numberOfBytes": "32",
        "value": "t_array(t_uint256)dyn_storage"
      },
      "t_mapping(t_uint256,t_address)": {
        "encoding": "mapping",
        "key": "t_uint256",
        "label": "mapping(uint256 => address)",
        "numberOfBytes": "32",
        "value": "t_address"
      },
      "t_mapping(t_uint256,t_array(t_uint256)dyn_storage)": {
        "encoding": "mapping",
        "key": "t_uint256",
        "label": "mapping(uint256 => uint256[])",
        "numberOfBytes": "32",
        "value": "t_array(t_uint256)dyn_storage"
      },
      "t_uint256": {
        "encoding": "inplace",
        "label": "uint256",
        "numberOfBytes": "32"
      }
    }
  }
}